{
	"ConcejoDeliberante/contracts/Ordenanza.sol": {
		"Ordenanza": {
			"abi": [
				{
					"anonymous": false,
					"inputs": [
						{
							"indexed": false,
							"internalType": "uint256",
							"name": "id",
							"type": "uint256"
						},
						{
							"indexed": false,
							"internalType": "uint256",
							"name": "fechaCreacion",
							"type": "uint256"
						},
						{
							"indexed": false,
							"internalType": "uint256",
							"name": "dniAutor",
							"type": "uint256"
						},
						{
							"indexed": false,
							"internalType": "uint8",
							"name": "estado",
							"type": "uint8"
						},
						{
							"indexed": false,
							"internalType": "bytes32",
							"name": "hash",
							"type": "bytes32"
						}
					],
					"name": "ActuacionAgregada",
					"type": "event"
				},
				{
					"anonymous": false,
					"inputs": [
						{
							"indexed": false,
							"internalType": "uint256",
							"name": "id",
							"type": "uint256"
						},
						{
							"indexed": false,
							"internalType": "uint8",
							"name": "estado",
							"type": "uint8"
						}
					],
					"name": "ActuacionEliminada",
					"type": "event"
				},
				{
					"anonymous": false,
					"inputs": [
						{
							"indexed": false,
							"internalType": "uint256",
							"name": "id",
							"type": "uint256"
						},
						{
							"indexed": false,
							"internalType": "uint8",
							"name": "estado",
							"type": "uint8"
						},
						{
							"indexed": false,
							"internalType": "bytes32",
							"name": "hash",
							"type": "bytes32"
						}
					],
					"name": "ActuacionModificada",
					"type": "event"
				},
				{
					"anonymous": false,
					"inputs": [
						{
							"indexed": false,
							"internalType": "uint256",
							"name": "id",
							"type": "uint256"
						},
						{
							"indexed": false,
							"internalType": "uint256",
							"name": "numOrdenanza",
							"type": "uint256"
						},
						{
							"indexed": false,
							"internalType": "uint8",
							"name": "vigencia",
							"type": "uint8"
						},
						{
							"indexed": false,
							"internalType": "bytes32",
							"name": "hash",
							"type": "bytes32"
						}
					],
					"name": "OrdenanzaAgregada",
					"type": "event"
				},
				{
					"anonymous": false,
					"inputs": [
						{
							"indexed": false,
							"internalType": "uint256",
							"name": "id",
							"type": "uint256"
						},
						{
							"indexed": false,
							"internalType": "uint8",
							"name": "vigenciaNueva",
							"type": "uint8"
						},
						{
							"indexed": false,
							"internalType": "bytes32",
							"name": "hash",
							"type": "bytes32"
						}
					],
					"name": "VigenciaActualizada",
					"type": "event"
				},
				{
					"inputs": [],
					"name": "COSTO",
					"outputs": [
						{
							"internalType": "uint256",
							"name": "",
							"type": "uint256"
						}
					],
					"stateMutability": "view",
					"type": "function"
				},
				{
					"inputs": [
						{
							"internalType": "uint256",
							"name": "_id",
							"type": "uint256"
						}
					],
					"name": "_consultarActuacion",
					"outputs": [
						{
							"components": [
								{
									"internalType": "uint256",
									"name": "fechaCreacion",
									"type": "uint256"
								},
								{
									"internalType": "uint256",
									"name": "dniAutor",
									"type": "uint256"
								},
								{
									"internalType": "bool",
									"name": "existe",
									"type": "bool"
								},
								{
									"components": [
										{
											"internalType": "uint256",
											"name": "timestamp",
											"type": "uint256"
										},
										{
											"internalType": "uint8",
											"name": "estado",
											"type": "uint8"
										},
										{
											"internalType": "bytes32",
											"name": "hash",
											"type": "bytes32"
										},
										{
											"internalType": "address",
											"name": "modificadoPor",
											"type": "address"
										}
									],
									"internalType": "struct ActuacionBase.Cambio[]",
									"name": "historial",
									"type": "tuple[]"
								}
							],
							"internalType": "struct ActuacionBase.Actuacion",
							"name": "",
							"type": "tuple"
						}
					],
					"stateMutability": "view",
					"type": "function"
				},
				{
					"inputs": [
						{
							"internalType": "uint256",
							"name": "_id",
							"type": "uint256"
						},
						{
							"internalType": "uint256",
							"name": "_dniAutor",
							"type": "uint256"
						},
						{
							"internalType": "bytes32",
							"name": "_hash",
							"type": "bytes32"
						},
						{
							"internalType": "uint256",
							"name": "_fechaCreacion",
							"type": "uint256"
						},
						{
							"internalType": "uint256",
							"name": "_numOrdenanza",
							"type": "uint256"
						},
						{
							"internalType": "uint8",
							"name": "_vigencia",
							"type": "uint8"
						}
					],
					"name": "agregarOrdenanza",
					"outputs": [],
					"stateMutability": "payable",
					"type": "function"
				},
				{
					"inputs": [
						{
							"internalType": "uint256",
							"name": "_id",
							"type": "uint256"
						}
					],
					"name": "consultarOrdenanza",
					"outputs": [
						{
							"internalType": "uint256",
							"name": "fechaCreacion",
							"type": "uint256"
						},
						{
							"internalType": "uint256",
							"name": "dniAutor",
							"type": "uint256"
						},
						{
							"internalType": "uint8",
							"name": "vigencia",
							"type": "uint8"
						},
						{
							"internalType": "uint256",
							"name": "numOrdenanza",
							"type": "uint256"
						},
						{
							"internalType": "bytes32",
							"name": "hash",
							"type": "bytes32"
						}
					],
					"stateMutability": "view",
					"type": "function"
				},
				{
					"inputs": [
						{
							"internalType": "uint256",
							"name": "_id",
							"type": "uint256"
						},
						{
							"internalType": "uint8",
							"name": "_vigencia",
							"type": "uint8"
						}
					],
					"name": "eliminar",
					"outputs": [],
					"stateMutability": "nonpayable",
					"type": "function"
				},
				{
					"inputs": [
						{
							"internalType": "uint256",
							"name": "_id",
							"type": "uint256"
						},
						{
							"internalType": "uint8",
							"name": "_vigencia",
							"type": "uint8"
						},
						{
							"internalType": "bytes32",
							"name": "_hash",
							"type": "bytes32"
						}
					],
					"name": "modificarVigencia",
					"outputs": [
						{
							"internalType": "bool",
							"name": "success",
							"type": "bool"
						}
					],
					"stateMutability": "nonpayable",
					"type": "function"
				},
				{
					"inputs": [],
					"name": "propietario",
					"outputs": [
						{
							"internalType": "address",
							"name": "",
							"type": "address"
						}
					],
					"stateMutability": "view",
					"type": "function"
				}
			],
			"devdoc": {
				"kind": "dev",
				"methods": {},
				"version": 1
			},
			"evm": {
				"assembly": "    /* \"ConcejoDeliberante/contracts/Ordenanza.sol\":101:3708  contract Ordenanza is ActuacionBase{... */\n  mstore(0x40, 0x80)\n  callvalue\n  dup1\n  iszero\n  tag_1\n  jumpi\n  revert(0x00, 0x00)\ntag_1:\n  pop\n    /* \"ConcejoDeliberante/contracts/ActuacionBase.sol\":1115:1125  msg.sender */\n  caller\n    /* \"ConcejoDeliberante/contracts/ActuacionBase.sol\":1101:1112  propietario */\n  0x00\n  0x00\n    /* \"ConcejoDeliberante/contracts/ActuacionBase.sol\":1101:1125  propietario = msg.sender */\n  0x0100\n  exp\n  dup2\n  sload\n  dup2\n  0xffffffffffffffffffffffffffffffffffffffff\n  mul\n  not\n  and\n  swap1\n  dup4\n  0xffffffffffffffffffffffffffffffffffffffff\n  and\n  mul\n  or\n  swap1\n  sstore\n  pop\n    /* \"ConcejoDeliberante/contracts/Ordenanza.sol\":101:3708  contract Ordenanza is ActuacionBase{... */\n  dataSize(sub_0)\n  dup1\n  dataOffset(sub_0)\n  0x00\n  codecopy\n  0x00\n  return\nstop\n\nsub_0: assembly {\n        /* \"ConcejoDeliberante/contracts/Ordenanza.sol\":101:3708  contract Ordenanza is ActuacionBase{... */\n      mstore(0x40, 0x80)\n      jumpi(tag_1, lt(calldatasize, 0x04))\n      shr(0xe0, calldataload(0x00))\n      dup1\n      0x52b5241e\n      gt\n      tag_9\n      jumpi\n      dup1\n      0x52b5241e\n      eq\n      tag_5\n      jumpi\n      dup1\n      0x8e8a5876\n      eq\n      tag_6\n      jumpi\n      dup1\n      0xad3b15ef\n      eq\n      tag_7\n      jumpi\n      dup1\n      0xc83e9d6d\n      eq\n      tag_8\n      jumpi\n      jump(tag_1)\n    tag_9:\n      dup1\n      0x3c4f81cd\n      eq\n      tag_2\n      jumpi\n      dup1\n      0x47525ed6\n      eq\n      tag_3\n      jumpi\n      dup1\n      0x4eba0ca0\n      eq\n      tag_4\n      jumpi\n    tag_1:\n      revert(0x00, 0x00)\n        /* \"ConcejoDeliberante/contracts/ActuacionBase.sol\":484:510  address public propietario */\n    tag_2:\n      callvalue\n      dup1\n      iszero\n      tag_10\n      jumpi\n      revert(0x00, 0x00)\n    tag_10:\n      pop\n      tag_11\n      tag_12\n      jump\t// in\n    tag_11:\n      mload(0x40)\n      tag_13\n      swap2\n      swap1\n      tag_14\n      jump\t// in\n    tag_13:\n      mload(0x40)\n      dup1\n      swap2\n      sub\n      swap1\n      return\n        /* \"ConcejoDeliberante/contracts/Ordenanza.sol\":1009:1697  function agregarOrdenanza(  ... */\n    tag_3:\n      tag_15\n      0x04\n      dup1\n      calldatasize\n      sub\n      dup2\n      add\n      swap1\n      tag_16\n      swap2\n      swap1\n      tag_17\n      jump\t// in\n    tag_16:\n      tag_18\n      jump\t// in\n    tag_15:\n      stop\n        /* \"ConcejoDeliberante/contracts/Ordenanza.sol\":2771:3215  function modificarVigencia(... */\n    tag_4:\n      callvalue\n      dup1\n      iszero\n      tag_19\n      jumpi\n      revert(0x00, 0x00)\n    tag_19:\n      pop\n      tag_20\n      0x04\n      dup1\n      calldatasize\n      sub\n      dup2\n      add\n      swap1\n      tag_21\n      swap2\n      swap1\n      tag_22\n      jump\t// in\n    tag_21:\n      tag_23\n      jump\t// in\n    tag_20:\n      mload(0x40)\n      tag_24\n      swap2\n      swap1\n      tag_25\n      jump\t// in\n    tag_24:\n      mload(0x40)\n      dup1\n      swap2\n      sub\n      swap1\n      return\n        /* \"ConcejoDeliberante/contracts/ActuacionBase.sol\":557:592  uint256 public constant COSTO = 500 */\n    tag_5:\n      callvalue\n      dup1\n      iszero\n      tag_26\n      jumpi\n      revert(0x00, 0x00)\n    tag_26:\n      pop\n      tag_27\n      tag_28\n      jump\t// in\n    tag_27:\n      mload(0x40)\n      tag_29\n      swap2\n      swap1\n      tag_30\n      jump\t// in\n    tag_29:\n      mload(0x40)\n      dup1\n      swap2\n      sub\n      swap1\n      return\n        /* \"ConcejoDeliberante/contracts/ActuacionBase.sol\":2420:2665  function _consultarActuacion(uint256 _id)... */\n    tag_6:\n      callvalue\n      dup1\n      iszero\n      tag_31\n      jumpi\n      revert(0x00, 0x00)\n    tag_31:\n      pop\n      tag_32\n      0x04\n      dup1\n      calldatasize\n      sub\n      dup2\n      add\n      swap1\n      tag_33\n      swap2\n      swap1\n      tag_34\n      jump\t// in\n    tag_33:\n      tag_35\n      jump\t// in\n    tag_32:\n      mload(0x40)\n      tag_36\n      swap2\n      swap1\n      tag_37\n      jump\t// in\n    tag_36:\n      mload(0x40)\n      dup1\n      swap2\n      sub\n      swap1\n      return\n        /* \"ConcejoDeliberante/contracts/Ordenanza.sol\":1765:2462  function consultarOrdenanza(uint256 _id)... */\n    tag_7:\n      callvalue\n      dup1\n      iszero\n      tag_38\n      jumpi\n      revert(0x00, 0x00)\n    tag_38:\n      pop\n      tag_39\n      0x04\n      dup1\n      calldatasize\n      sub\n      dup2\n      add\n      swap1\n      tag_40\n      swap2\n      swap1\n      tag_34\n      jump\t// in\n    tag_40:\n      tag_41\n      jump\t// in\n    tag_39:\n      mload(0x40)\n      tag_42\n      swap6\n      swap5\n      swap4\n      swap3\n      swap2\n      swap1\n      tag_43\n      jump\t// in\n    tag_42:\n      mload(0x40)\n      dup1\n      swap2\n      sub\n      swap1\n      return\n        /* \"ConcejoDeliberante/contracts/Ordenanza.sol\":3412:3706  function eliminar(uint256 _id, uint8 _vigencia) public {... */\n    tag_8:\n      callvalue\n      dup1\n      iszero\n      tag_44\n      jumpi\n      revert(0x00, 0x00)\n    tag_44:\n      pop\n      tag_45\n      0x04\n      dup1\n      calldatasize\n      sub\n      dup2\n      add\n      swap1\n      tag_46\n      swap2\n      swap1\n      tag_47\n      jump\t// in\n    tag_46:\n      tag_48\n      jump\t// in\n    tag_45:\n      stop\n        /* \"ConcejoDeliberante/contracts/ActuacionBase.sol\":484:510  address public propietario */\n    tag_12:\n      0x00\n      0x00\n      swap1\n      sload\n      swap1\n      0x0100\n      exp\n      swap1\n      div\n      0xffffffffffffffffffffffffffffffffffffffff\n      and\n      dup2\n      jump\t// out\n        /* \"ConcejoDeliberante/contracts/Ordenanza.sol\":1009:1697  function agregarOrdenanza(  ... */\n    tag_18:\n        /* \"ConcejoDeliberante/contracts/Ordenanza.sol\":1250:1253  500 */\n      0x01f4\n        /* \"ConcejoDeliberante/contracts/Ordenanza.sol\":1237:1246  msg.value */\n      callvalue\n        /* \"ConcejoDeliberante/contracts/Ordenanza.sol\":1237:1253  msg.value >= 500 */\n      lt\n      iszero\n        /* \"ConcejoDeliberante/contracts/Ordenanza.sol\":1229:1295  require(msg.value >= 500, \"No se ha pagado la tarifa de registro\") */\n      tag_50\n      jumpi\n      mload(0x40)\n      0x08c379a000000000000000000000000000000000000000000000000000000000\n      dup2\n      mstore\n      0x04\n      add\n      tag_51\n      swap1\n      tag_52\n      jump\t// in\n    tag_51:\n      mload(0x40)\n      dup1\n      swap2\n      sub\n      swap1\n      revert\n    tag_50:\n        /* \"ConcejoDeliberante/contracts/Ordenanza.sol\":1392:1393  0 */\n      0x00\n        /* \"ConcejoDeliberante/contracts/Ordenanza.sol\":1369:1395  abi.encodePacked(uint8(0)) */\n      add(0x20, mload(0x40))\n      tag_53\n      swap2\n      swap1\n      tag_54\n      jump\t// in\n    tag_53:\n      mload(0x40)\n      0x20\n      dup2\n      dup4\n      sub\n      sub\n      dup2\n      mstore\n      swap1\n      0x40\n      mstore\n        /* \"ConcejoDeliberante/contracts/Ordenanza.sol\":1359:1396  keccak256(abi.encodePacked(uint8(0))) */\n      dup1\n      mload\n      swap1\n      0x20\n      add\n      keccak256\n        /* \"ConcejoDeliberante/contracts/Ordenanza.sol\":1344:1353  _vigencia */\n      dup2\n        /* \"ConcejoDeliberante/contracts/Ordenanza.sol\":1327:1354  abi.encodePacked(_vigencia) */\n      add(0x20, mload(0x40))\n      tag_55\n      swap2\n      swap1\n      tag_54\n      jump\t// in\n    tag_55:\n      mload(0x40)\n      0x20\n      dup2\n      dup4\n      sub\n      sub\n      dup2\n      mstore\n      swap1\n      0x40\n      mstore\n        /* \"ConcejoDeliberante/contracts/Ordenanza.sol\":1317:1355  keccak256(abi.encodePacked(_vigencia)) */\n      dup1\n      mload\n      swap1\n      0x20\n      add\n      keccak256\n        /* \"ConcejoDeliberante/contracts/Ordenanza.sol\":1317:1396  keccak256(abi.encodePacked(_vigencia)) == keccak256(abi.encodePacked(uint8(0))) */\n      eq\n        /* \"ConcejoDeliberante/contracts/Ordenanza.sol\":1309:1469  require(keccak256(abi.encodePacked(_vigencia)) == keccak256(abi.encodePacked(uint8(0))),... */\n      tag_56\n      jumpi\n      mload(0x40)\n      0x08c379a000000000000000000000000000000000000000000000000000000000\n      dup2\n      mstore\n      0x04\n      add\n      tag_57\n      swap1\n      tag_58\n      jump\t// in\n    tag_57:\n      mload(0x40)\n      dup1\n      swap2\n      sub\n      swap1\n      revert\n    tag_56:\n        /* \"ConcejoDeliberante/contracts/Ordenanza.sol\":1483:1554  _inicializarActuacion(_id, _dniAutor, _vigencia, _hash, _fechaCreacion) */\n      tag_59\n        /* \"ConcejoDeliberante/contracts/Ordenanza.sol\":1505:1508  _id */\n      dup7\n        /* \"ConcejoDeliberante/contracts/Ordenanza.sol\":1510:1519  _dniAutor */\n      dup7\n        /* \"ConcejoDeliberante/contracts/Ordenanza.sol\":1521:1530  _vigencia */\n      dup4\n        /* \"ConcejoDeliberante/contracts/Ordenanza.sol\":1532:1537  _hash */\n      dup8\n        /* \"ConcejoDeliberante/contracts/Ordenanza.sol\":1539:1553  _fechaCreacion */\n      dup8\n        /* \"ConcejoDeliberante/contracts/Ordenanza.sol\":1483:1504  _inicializarActuacion */\n      tag_60\n        /* \"ConcejoDeliberante/contracts/Ordenanza.sol\":1483:1554  _inicializarActuacion(_id, _dniAutor, _vigencia, _hash, _fechaCreacion) */\n      jump\t// in\n    tag_59:\n        /* \"ConcejoDeliberante/contracts/Ordenanza.sol\":1599:1612  _numOrdenanza */\n      dup2\n        /* \"ConcejoDeliberante/contracts/Ordenanza.sol\":1568:1578  datosExtra */\n      0x03\n        /* \"ConcejoDeliberante/contracts/Ordenanza.sol\":1568:1583  datosExtra[_id] */\n      0x00\n        /* \"ConcejoDeliberante/contracts/Ordenanza.sol\":1579:1582  _id */\n      dup9\n        /* \"ConcejoDeliberante/contracts/Ordenanza.sol\":1568:1583  datosExtra[_id] */\n      dup2\n      mstore\n      0x20\n      add\n      swap1\n      dup2\n      mstore\n      0x20\n      add\n      0x00\n      keccak256\n        /* \"ConcejoDeliberante/contracts/Ordenanza.sol\":1568:1596  datosExtra[_id].numOrdenanza */\n      0x00\n      add\n        /* \"ConcejoDeliberante/contracts/Ordenanza.sol\":1568:1612  datosExtra[_id].numOrdenanza = _numOrdenanza */\n      dup2\n      swap1\n      sstore\n      pop\n        /* \"ConcejoDeliberante/contracts/Ordenanza.sol\":1631:1686  OrdenanzaAgregada(_id, _numOrdenanza, _vigencia, _hash) */\n      0x5694b19b2cfcf39a4309e7d5015b841327b2020ff7dfbe0c17328b4c90aed71e\n        /* \"ConcejoDeliberante/contracts/Ordenanza.sol\":1649:1652  _id */\n      dup7\n        /* \"ConcejoDeliberante/contracts/Ordenanza.sol\":1654:1667  _numOrdenanza */\n      dup4\n        /* \"ConcejoDeliberante/contracts/Ordenanza.sol\":1669:1678  _vigencia */\n      dup4\n        /* \"ConcejoDeliberante/contracts/Ordenanza.sol\":1680:1685  _hash */\n      dup8\n        /* \"ConcejoDeliberante/contracts/Ordenanza.sol\":1631:1686  OrdenanzaAgregada(_id, _numOrdenanza, _vigencia, _hash) */\n      mload(0x40)\n      tag_61\n      swap5\n      swap4\n      swap3\n      swap2\n      swap1\n      tag_62\n      jump\t// in\n    tag_61:\n      mload(0x40)\n      dup1\n      swap2\n      sub\n      swap1\n      log1\n        /* \"ConcejoDeliberante/contracts/Ordenanza.sol\":1009:1697  function agregarOrdenanza(  ... */\n      pop\n      pop\n      pop\n      pop\n      pop\n      pop\n      jump\t// out\n        /* \"ConcejoDeliberante/contracts/Ordenanza.sol\":2771:3215  function modificarVigencia(... */\n    tag_23:\n        /* \"ConcejoDeliberante/contracts/Ordenanza.sol\":2894:2906  bool success */\n      0x00\n        /* \"ConcejoDeliberante/contracts/Ordenanza.sol\":3005:3006  1 */\n      0x01\n        /* \"ConcejoDeliberante/contracts/Ordenanza.sol\":2982:3008  abi.encodePacked(uint8(1)) */\n      add(0x20, mload(0x40))\n      tag_64\n      swap2\n      swap1\n      tag_54\n      jump\t// in\n    tag_64:\n      mload(0x40)\n      0x20\n      dup2\n      dup4\n      sub\n      sub\n      dup2\n      mstore\n      swap1\n      0x40\n      mstore\n        /* \"ConcejoDeliberante/contracts/Ordenanza.sol\":2972:3009  keccak256(abi.encodePacked(uint8(1))) */\n      dup1\n      mload\n      swap1\n      0x20\n      add\n      keccak256\n        /* \"ConcejoDeliberante/contracts/Ordenanza.sol\":2957:2966  _vigencia */\n      dup4\n        /* \"ConcejoDeliberante/contracts/Ordenanza.sol\":2940:2967  abi.encodePacked(_vigencia) */\n      add(0x20, mload(0x40))\n      tag_65\n      swap2\n      swap1\n      tag_54\n      jump\t// in\n    tag_65:\n      mload(0x40)\n      0x20\n      dup2\n      dup4\n      sub\n      sub\n      dup2\n      mstore\n      swap1\n      0x40\n      mstore\n        /* \"ConcejoDeliberante/contracts/Ordenanza.sol\":2930:2968  keccak256(abi.encodePacked(_vigencia)) */\n      dup1\n      mload\n      swap1\n      0x20\n      add\n      keccak256\n        /* \"ConcejoDeliberante/contracts/Ordenanza.sol\":2930:3009  keccak256(abi.encodePacked(_vigencia)) == keccak256(abi.encodePacked(uint8(1))) */\n      eq\n        /* \"ConcejoDeliberante/contracts/Ordenanza.sol\":2922:3078  require(keccak256(abi.encodePacked(_vigencia)) == keccak256(abi.encodePacked(uint8(1))),... */\n      tag_66\n      jumpi\n      mload(0x40)\n      0x08c379a000000000000000000000000000000000000000000000000000000000\n      dup2\n      mstore\n      0x04\n      add\n      tag_67\n      swap1\n      tag_68\n      jump\t// in\n    tag_67:\n      mload(0x40)\n      dup1\n      swap2\n      sub\n      swap1\n      revert\n    tag_66:\n        /* \"ConcejoDeliberante/contracts/Ordenanza.sol\":3088:3130  _modificarActuacion(_id, _vigencia, _hash) */\n      tag_69\n        /* \"ConcejoDeliberante/contracts/Ordenanza.sol\":3108:3111  _id */\n      dup5\n        /* \"ConcejoDeliberante/contracts/Ordenanza.sol\":3113:3122  _vigencia */\n      dup5\n        /* \"ConcejoDeliberante/contracts/Ordenanza.sol\":3124:3129  _hash */\n      dup5\n        /* \"ConcejoDeliberante/contracts/Ordenanza.sol\":3088:3107  _modificarActuacion */\n      tag_70\n        /* \"ConcejoDeliberante/contracts/Ordenanza.sol\":3088:3130  _modificarActuacion(_id, _vigencia, _hash) */\n      jump\t// in\n    tag_69:\n      pop\n        /* \"ConcejoDeliberante/contracts/Ordenanza.sol\":3145:3187  VigenciaActualizada(_id, _vigencia, _hash) */\n      0x6b61900003115b8294d08086dd6dcc4c444a62a018562b71ed4bc4a47be18fbe\n        /* \"ConcejoDeliberante/contracts/Ordenanza.sol\":3165:3168  _id */\n      dup5\n        /* \"ConcejoDeliberante/contracts/Ordenanza.sol\":3170:3179  _vigencia */\n      dup5\n        /* \"ConcejoDeliberante/contracts/Ordenanza.sol\":3181:3186  _hash */\n      dup5\n        /* \"ConcejoDeliberante/contracts/Ordenanza.sol\":3145:3187  VigenciaActualizada(_id, _vigencia, _hash) */\n      mload(0x40)\n      tag_71\n      swap4\n      swap3\n      swap2\n      swap1\n      tag_72\n      jump\t// in\n    tag_71:\n      mload(0x40)\n      dup1\n      swap2\n      sub\n      swap1\n      log1\n        /* \"ConcejoDeliberante/contracts/Ordenanza.sol\":3204:3208  true */\n      0x01\n        /* \"ConcejoDeliberante/contracts/Ordenanza.sol\":3197:3208  return true */\n      swap1\n      pop\n        /* \"ConcejoDeliberante/contracts/Ordenanza.sol\":2771:3215  function modificarVigencia(... */\n      swap4\n      swap3\n      pop\n      pop\n      pop\n      jump\t// out\n        /* \"ConcejoDeliberante/contracts/ActuacionBase.sol\":557:592  uint256 public constant COSTO = 500 */\n    tag_28:\n        /* \"ConcejoDeliberante/contracts/ActuacionBase.sol\":589:592  500 */\n      0x01f4\n        /* \"ConcejoDeliberante/contracts/ActuacionBase.sol\":557:592  uint256 public constant COSTO = 500 */\n      dup2\n      jump\t// out\n        /* \"ConcejoDeliberante/contracts/ActuacionBase.sol\":2420:2665  function _consultarActuacion(uint256 _id)... */\n    tag_35:\n        /* \"ConcejoDeliberante/contracts/ActuacionBase.sol\":2499:2515  Actuacion memory */\n      tag_73\n      tag_74\n      jump\t// in\n    tag_73:\n        /* \"ConcejoDeliberante/contracts/ActuacionBase.sol\":2539:2550  actuaciones */\n      0x01\n        /* \"ConcejoDeliberante/contracts/ActuacionBase.sol\":2539:2555  actuaciones[_id] */\n      0x00\n        /* \"ConcejoDeliberante/contracts/ActuacionBase.sol\":2551:2554  _id */\n      dup4\n        /* \"ConcejoDeliberante/contracts/ActuacionBase.sol\":2539:2555  actuaciones[_id] */\n      dup2\n      mstore\n      0x20\n      add\n      swap1\n      dup2\n      mstore\n      0x20\n      add\n      0x00\n      keccak256\n        /* \"ConcejoDeliberante/contracts/ActuacionBase.sol\":2539:2562  actuaciones[_id].existe */\n      0x02\n      add\n      0x00\n      swap1\n      sload\n      swap1\n      0x0100\n      exp\n      swap1\n      div\n      0xff\n      and\n        /* \"ConcejoDeliberante/contracts/ActuacionBase.sol\":2531:2589  require(actuaciones[_id].existe, \"La actuacion no existe\") */\n      tag_76\n      jumpi\n      mload(0x40)\n      0x08c379a000000000000000000000000000000000000000000000000000000000\n      dup2\n      mstore\n      0x04\n      add\n      tag_77\n      swap1\n      tag_78\n      jump\t// in\n    tag_77:\n      mload(0x40)\n      dup1\n      swap2\n      sub\n      swap1\n      revert\n    tag_76:\n        /* \"ConcejoDeliberante/contracts/ActuacionBase.sol\":2606:2617  actuaciones */\n      0x01\n        /* \"ConcejoDeliberante/contracts/ActuacionBase.sol\":2606:2622  actuaciones[_id] */\n      0x00\n        /* \"ConcejoDeliberante/contracts/ActuacionBase.sol\":2618:2621  _id */\n      dup4\n        /* \"ConcejoDeliberante/contracts/ActuacionBase.sol\":2606:2622  actuaciones[_id] */\n      dup2\n      mstore\n      0x20\n      add\n      swap1\n      dup2\n      mstore\n      0x20\n      add\n      0x00\n      keccak256\n        /* \"ConcejoDeliberante/contracts/ActuacionBase.sol\":2599:2622  return actuaciones[_id] */\n      mload(0x40)\n      dup1\n      0x80\n      add\n      0x40\n      mstore\n      swap1\n      dup2\n      0x00\n      dup3\n      add\n      sload\n      dup2\n      mstore\n      0x20\n      add\n      0x01\n      dup3\n      add\n      sload\n      dup2\n      mstore\n      0x20\n      add\n      0x02\n      dup3\n      add\n      0x00\n      swap1\n      sload\n      swap1\n      0x0100\n      exp\n      swap1\n      div\n      0xff\n      and\n      iszero\n      iszero\n      iszero\n      iszero\n      dup2\n      mstore\n      0x20\n      add\n      0x03\n      dup3\n      add\n      dup1\n      sload\n      dup1\n      0x20\n      mul\n      0x20\n      add\n      mload(0x40)\n      swap1\n      dup2\n      add\n      0x40\n      mstore\n      dup1\n      swap3\n      swap2\n      swap1\n      dup2\n      dup2\n      mstore\n      0x20\n      add\n      0x00\n      swap1\n    tag_79:\n      dup3\n      dup3\n      lt\n      iszero\n      tag_80\n      jumpi\n      dup4\n      dup3\n      swap1\n      0x00\n      mstore\n      keccak256(0x00, 0x20)\n      swap1\n      0x04\n      mul\n      add\n      mload(0x40)\n      dup1\n      0x80\n      add\n      0x40\n      mstore\n      swap1\n      dup2\n      0x00\n      dup3\n      add\n      sload\n      dup2\n      mstore\n      0x20\n      add\n      0x01\n      dup3\n      add\n      0x00\n      swap1\n      sload\n      swap1\n      0x0100\n      exp\n      swap1\n      div\n      0xff\n      and\n      0xff\n      and\n      0xff\n      and\n      dup2\n      mstore\n      0x20\n      add\n      0x02\n      dup3\n      add\n      sload\n      dup2\n      mstore\n      0x20\n      add\n      0x03\n      dup3\n      add\n      0x00\n      swap1\n      sload\n      swap1\n      0x0100\n      exp\n      swap1\n      div\n      0xffffffffffffffffffffffffffffffffffffffff\n      and\n      0xffffffffffffffffffffffffffffffffffffffff\n      and\n      0xffffffffffffffffffffffffffffffffffffffff\n      and\n      dup2\n      mstore\n      pop\n      pop\n      dup2\n      mstore\n      0x20\n      add\n      swap1\n      0x01\n      add\n      swap1\n      jump(tag_79)\n    tag_80:\n      pop\n      pop\n      pop\n      pop\n      dup2\n      mstore\n      pop\n      pop\n      swap1\n      pop\n        /* \"ConcejoDeliberante/contracts/ActuacionBase.sol\":2420:2665  function _consultarActuacion(uint256 _id)... */\n      swap2\n      swap1\n      pop\n      jump\t// out\n        /* \"ConcejoDeliberante/contracts/Ordenanza.sol\":1765:2462  function consultarOrdenanza(uint256 _id)... */\n    tag_41:\n        /* \"ConcejoDeliberante/contracts/Ordenanza.sol\":1864:1886  uint256  fechaCreacion */\n      0x00\n        /* \"ConcejoDeliberante/contracts/Ordenanza.sol\":1932:1949  uint256  dniAutor */\n      0x00\n        /* \"ConcejoDeliberante/contracts/Ordenanza.sol\":1963:1979  uint8   vigencia */\n      0x00\n        /* \"ConcejoDeliberante/contracts/Ordenanza.sol\":1993:2014  uint256  numOrdenanza */\n      0x00\n        /* \"ConcejoDeliberante/contracts/Ordenanza.sol\":2028:2040  bytes32 hash */\n      0x00\n        /* \"ConcejoDeliberante/contracts/Ordenanza.sol\":2070:2110  ActuacionBase.Actuacion memory actuacion */\n      0x00\n        /* \"ConcejoDeliberante/contracts/Ordenanza.sol\":2113:2137  _consultarActuacion(_id) */\n      tag_83\n        /* \"ConcejoDeliberante/contracts/Ordenanza.sol\":2133:2136  _id */\n      dup8\n        /* \"ConcejoDeliberante/contracts/Ordenanza.sol\":2113:2132  _consultarActuacion */\n      tag_35\n        /* \"ConcejoDeliberante/contracts/Ordenanza.sol\":2113:2137  _consultarActuacion(_id) */\n      jump\t// in\n    tag_83:\n        /* \"ConcejoDeliberante/contracts/Ordenanza.sol\":2070:2137  ActuacionBase.Actuacion memory actuacion = _consultarActuacion(_id) */\n      swap1\n      pop\n        /* \"ConcejoDeliberante/contracts/Ordenanza.sol\":2147:2171  DatosOrdenanza storage o */\n      0x00\n        /* \"ConcejoDeliberante/contracts/Ordenanza.sol\":2174:2184  datosExtra */\n      0x03\n        /* \"ConcejoDeliberante/contracts/Ordenanza.sol\":2174:2189  datosExtra[_id] */\n      0x00\n        /* \"ConcejoDeliberante/contracts/Ordenanza.sol\":2185:2188  _id */\n      dup10\n        /* \"ConcejoDeliberante/contracts/Ordenanza.sol\":2174:2189  datosExtra[_id] */\n      dup2\n      mstore\n      0x20\n      add\n      swap1\n      dup2\n      mstore\n      0x20\n      add\n      0x00\n      keccak256\n        /* \"ConcejoDeliberante/contracts/Ordenanza.sol\":2147:2189  DatosOrdenanza storage o = datosExtra[_id] */\n      swap1\n      pop\n        /* \"ConcejoDeliberante/contracts/Ordenanza.sol\":2220:2229  actuacion */\n      dup2\n        /* \"ConcejoDeliberante/contracts/Ordenanza.sol\":2220:2243  actuacion.fechaCreacion */\n      0x00\n      add\n      mload\n        /* \"ConcejoDeliberante/contracts/Ordenanza.sol\":2257:2266  actuacion */\n      dup3\n        /* \"ConcejoDeliberante/contracts/Ordenanza.sol\":2257:2275  actuacion.dniAutor */\n      0x20\n      add\n      mload\n        /* \"ConcejoDeliberante/contracts/Ordenanza.sol\":2289:2298  actuacion */\n      dup4\n        /* \"ConcejoDeliberante/contracts/Ordenanza.sol\":2289:2308  actuacion.historial */\n      0x60\n      add\n      mload\n        /* \"ConcejoDeliberante/contracts/Ordenanza.sol\":2338:2339  1 */\n      0x01\n        /* \"ConcejoDeliberante/contracts/Ordenanza.sol\":2309:2318  actuacion */\n      dup6\n        /* \"ConcejoDeliberante/contracts/Ordenanza.sol\":2309:2328  actuacion.historial */\n      0x60\n      add\n      mload\n        /* \"ConcejoDeliberante/contracts/Ordenanza.sol\":2309:2335  actuacion.historial.length */\n      mload\n        /* \"ConcejoDeliberante/contracts/Ordenanza.sol\":2309:2339  actuacion.historial.length - 1 */\n      tag_84\n      swap2\n      swap1\n      tag_85\n      jump\t// in\n    tag_84:\n        /* \"ConcejoDeliberante/contracts/Ordenanza.sol\":2289:2340  actuacion.historial[actuacion.historial.length - 1] */\n      dup2\n      mload\n      dup2\n      lt\n      tag_86\n      jumpi\n      tag_87\n      tag_88\n      jump\t// in\n    tag_87:\n    tag_86:\n      0x20\n      mul\n      0x20\n      add\n      add\n      mload\n        /* \"ConcejoDeliberante/contracts/Ordenanza.sol\":2289:2347  actuacion.historial[actuacion.historial.length - 1].estado */\n      0x20\n      add\n      mload\n        /* \"ConcejoDeliberante/contracts/Ordenanza.sol\":2361:2362  o */\n      dup4\n        /* \"ConcejoDeliberante/contracts/Ordenanza.sol\":2361:2375  o.numOrdenanza */\n      0x00\n      add\n      sload\n        /* \"ConcejoDeliberante/contracts/Ordenanza.sol\":2389:2398  actuacion */\n      dup6\n        /* \"ConcejoDeliberante/contracts/Ordenanza.sol\":2389:2408  actuacion.historial */\n      0x60\n      add\n      mload\n        /* \"ConcejoDeliberante/contracts/Ordenanza.sol\":2438:2439  1 */\n      0x01\n        /* \"ConcejoDeliberante/contracts/Ordenanza.sol\":2409:2418  actuacion */\n      dup8\n        /* \"ConcejoDeliberante/contracts/Ordenanza.sol\":2409:2428  actuacion.historial */\n      0x60\n      add\n      mload\n        /* \"ConcejoDeliberante/contracts/Ordenanza.sol\":2409:2435  actuacion.historial.length */\n      mload\n        /* \"ConcejoDeliberante/contracts/Ordenanza.sol\":2409:2439  actuacion.historial.length - 1 */\n      tag_89\n      swap2\n      swap1\n      tag_85\n      jump\t// in\n    tag_89:\n        /* \"ConcejoDeliberante/contracts/Ordenanza.sol\":2389:2440  actuacion.historial[actuacion.historial.length - 1] */\n      dup2\n      mload\n      dup2\n      lt\n      tag_90\n      jumpi\n      tag_91\n      tag_88\n      jump\t// in\n    tag_91:\n    tag_90:\n      0x20\n      mul\n      0x20\n      add\n      add\n      mload\n        /* \"ConcejoDeliberante/contracts/Ordenanza.sol\":2389:2445  actuacion.historial[actuacion.historial.length - 1].hash */\n      0x40\n      add\n      mload\n        /* \"ConcejoDeliberante/contracts/Ordenanza.sol\":2199:2455  return (... */\n      swap7\n      pop\n      swap7\n      pop\n      swap7\n      pop\n      swap7\n      pop\n      swap7\n      pop\n      pop\n      pop\n        /* \"ConcejoDeliberante/contracts/Ordenanza.sol\":1765:2462  function consultarOrdenanza(uint256 _id)... */\n      swap2\n      swap4\n      swap6\n      swap1\n      swap3\n      swap5\n      pop\n      jump\t// out\n        /* \"ConcejoDeliberante/contracts/Ordenanza.sol\":3412:3706  function eliminar(uint256 _id, uint8 _vigencia) public {... */\n    tag_48:\n        /* \"ConcejoDeliberante/contracts/Ordenanza.sol\":3577:3578  2 */\n      0x02\n        /* \"ConcejoDeliberante/contracts/Ordenanza.sol\":3554:3580  abi.encodePacked(uint8(2)) */\n      add(0x20, mload(0x40))\n      tag_93\n      swap2\n      swap1\n      tag_54\n      jump\t// in\n    tag_93:\n      mload(0x40)\n      0x20\n      dup2\n      dup4\n      sub\n      sub\n      dup2\n      mstore\n      swap1\n      0x40\n      mstore\n        /* \"ConcejoDeliberante/contracts/Ordenanza.sol\":3544:3581  keccak256(abi.encodePacked(uint8(2))) */\n      dup1\n      mload\n      swap1\n      0x20\n      add\n      keccak256\n        /* \"ConcejoDeliberante/contracts/Ordenanza.sol\":3529:3538  _vigencia */\n      dup2\n        /* \"ConcejoDeliberante/contracts/Ordenanza.sol\":3512:3539  abi.encodePacked(_vigencia) */\n      add(0x20, mload(0x40))\n      tag_94\n      swap2\n      swap1\n      tag_54\n      jump\t// in\n    tag_94:\n      mload(0x40)\n      0x20\n      dup2\n      dup4\n      sub\n      sub\n      dup2\n      mstore\n      swap1\n      0x40\n      mstore\n        /* \"ConcejoDeliberante/contracts/Ordenanza.sol\":3502:3540  keccak256(abi.encodePacked(_vigencia)) */\n      dup1\n      mload\n      swap1\n      0x20\n      add\n      keccak256\n        /* \"ConcejoDeliberante/contracts/Ordenanza.sol\":3502:3581  keccak256(abi.encodePacked(_vigencia)) == keccak256(abi.encodePacked(uint8(2))) */\n      eq\n        /* \"ConcejoDeliberante/contracts/Ordenanza.sol\":3477:3655  require(... */\n      tag_95\n      jumpi\n      mload(0x40)\n      0x08c379a000000000000000000000000000000000000000000000000000000000\n      dup2\n      mstore\n      0x04\n      add\n      tag_96\n      swap1\n      tag_97\n      jump\t// in\n    tag_96:\n      mload(0x40)\n      dup1\n      swap2\n      sub\n      swap1\n      revert\n    tag_95:\n        /* \"ConcejoDeliberante/contracts/Ordenanza.sol\":3665:3699  _eliminarActuacion(_id, _vigencia) */\n      tag_98\n        /* \"ConcejoDeliberante/contracts/Ordenanza.sol\":3684:3687  _id */\n      dup3\n        /* \"ConcejoDeliberante/contracts/Ordenanza.sol\":3689:3698  _vigencia */\n      dup3\n        /* \"ConcejoDeliberante/contracts/Ordenanza.sol\":3665:3683  _eliminarActuacion */\n      tag_99\n        /* \"ConcejoDeliberante/contracts/Ordenanza.sol\":3665:3699  _eliminarActuacion(_id, _vigencia) */\n      jump\t// in\n    tag_98:\n        /* \"ConcejoDeliberante/contracts/Ordenanza.sol\":3412:3706  function eliminar(uint256 _id, uint8 _vigencia) public {... */\n      pop\n      pop\n      jump\t// out\n        /* \"ConcejoDeliberante/contracts/ActuacionBase.sol\":1625:2352  function _inicializarActuacion(... */\n    tag_60:\n        /* \"ConcejoDeliberante/contracts/ActuacionBase.sol\":1825:1836  actuaciones */\n      0x01\n        /* \"ConcejoDeliberante/contracts/ActuacionBase.sol\":1825:1841  actuaciones[_id] */\n      0x00\n        /* \"ConcejoDeliberante/contracts/ActuacionBase.sol\":1837:1840  _id */\n      dup7\n        /* \"ConcejoDeliberante/contracts/ActuacionBase.sol\":1825:1841  actuaciones[_id] */\n      dup2\n      mstore\n      0x20\n      add\n      swap1\n      dup2\n      mstore\n      0x20\n      add\n      0x00\n      keccak256\n        /* \"ConcejoDeliberante/contracts/ActuacionBase.sol\":1825:1848  actuaciones[_id].existe */\n      0x02\n      add\n      0x00\n      swap1\n      sload\n      swap1\n      0x0100\n      exp\n      swap1\n      div\n      0xff\n      and\n        /* \"ConcejoDeliberante/contracts/ActuacionBase.sol\":1824:1848  !actuaciones[_id].existe */\n      iszero\n        /* \"ConcejoDeliberante/contracts/ActuacionBase.sol\":1816:1875  require(!actuaciones[_id].existe, \"La actuacion ya existe\") */\n      tag_101\n      jumpi\n      mload(0x40)\n      0x08c379a000000000000000000000000000000000000000000000000000000000\n      dup2\n      mstore\n      0x04\n      add\n      tag_102\n      swap1\n      tag_103\n      jump\t// in\n    tag_102:\n      mload(0x40)\n      dup1\n      swap2\n      sub\n      swap1\n      revert\n    tag_101:\n        /* \"ConcejoDeliberante/contracts/ActuacionBase.sol\":1894:1913  Actuacion storage a */\n      0x00\n        /* \"ConcejoDeliberante/contracts/ActuacionBase.sol\":1916:1927  actuaciones */\n      0x01\n        /* \"ConcejoDeliberante/contracts/ActuacionBase.sol\":1916:1932  actuaciones[_id] */\n      0x00\n        /* \"ConcejoDeliberante/contracts/ActuacionBase.sol\":1928:1931  _id */\n      dup8\n        /* \"ConcejoDeliberante/contracts/ActuacionBase.sol\":1916:1932  actuaciones[_id] */\n      dup2\n      mstore\n      0x20\n      add\n      swap1\n      dup2\n      mstore\n      0x20\n      add\n      0x00\n      keccak256\n        /* \"ConcejoDeliberante/contracts/ActuacionBase.sol\":1894:1932  Actuacion storage a = actuaciones[_id] */\n      swap1\n      pop\n        /* \"ConcejoDeliberante/contracts/ActuacionBase.sol\":1960:1964  true */\n      0x01\n        /* \"ConcejoDeliberante/contracts/ActuacionBase.sol\":1942:1943  a */\n      dup2\n        /* \"ConcejoDeliberante/contracts/ActuacionBase.sol\":1942:1950  a.existe */\n      0x02\n      add\n      0x00\n        /* \"ConcejoDeliberante/contracts/ActuacionBase.sol\":1942:1964  a.existe        = true */\n      0x0100\n      exp\n      dup2\n      sload\n      dup2\n      0xff\n      mul\n      not\n      and\n      swap1\n      dup4\n      iszero\n      iszero\n      mul\n      or\n      swap1\n      sstore\n      pop\n        /* \"ConcejoDeliberante/contracts/ActuacionBase.sol\":1992:2001  _dniAutor */\n      dup5\n        /* \"ConcejoDeliberante/contracts/ActuacionBase.sol\":1974:1975  a */\n      dup2\n        /* \"ConcejoDeliberante/contracts/ActuacionBase.sol\":1974:1984  a.dniAutor */\n      0x01\n      add\n        /* \"ConcejoDeliberante/contracts/ActuacionBase.sol\":1974:2001  a.dniAutor      = _dniAutor */\n      dup2\n      swap1\n      sstore\n      pop\n        /* \"ConcejoDeliberante/contracts/ActuacionBase.sol\":2029:2043  _fechaCreacion */\n      dup2\n        /* \"ConcejoDeliberante/contracts/ActuacionBase.sol\":2011:2012  a */\n      dup2\n        /* \"ConcejoDeliberante/contracts/ActuacionBase.sol\":2011:2026  a.fechaCreacion */\n      0x00\n      add\n        /* \"ConcejoDeliberante/contracts/ActuacionBase.sol\":2011:2043  a.fechaCreacion = _fechaCreacion */\n      dup2\n      swap1\n      sstore\n      pop\n        /* \"ConcejoDeliberante/contracts/ActuacionBase.sol\":2054:2055  a */\n      dup1\n        /* \"ConcejoDeliberante/contracts/ActuacionBase.sol\":2054:2065  a.historial */\n      0x03\n      add\n        /* \"ConcejoDeliberante/contracts/ActuacionBase.sol\":2071:2234  Cambio({... */\n      mload(0x40)\n      dup1\n      0x80\n      add\n      0x40\n      mstore\n      dup1\n        /* \"ConcejoDeliberante/contracts/ActuacionBase.sol\":2108:2123  block.timestamp */\n      timestamp\n        /* \"ConcejoDeliberante/contracts/ActuacionBase.sol\":2071:2234  Cambio({... */\n      dup2\n      mstore\n      0x20\n      add\n        /* \"ConcejoDeliberante/contracts/ActuacionBase.sol\":2211:2223  _estadoNuevo */\n      dup7\n        /* \"ConcejoDeliberante/contracts/ActuacionBase.sol\":2071:2234  Cambio({... */\n      0xff\n      and\n      dup2\n      mstore\n      0x20\n      add\n        /* \"ConcejoDeliberante/contracts/ActuacionBase.sol\":2184:2189  _hash */\n      dup6\n        /* \"ConcejoDeliberante/contracts/ActuacionBase.sol\":2071:2234  Cambio({... */\n      dup2\n      mstore\n      0x20\n      add\n        /* \"ConcejoDeliberante/contracts/ActuacionBase.sol\":2153:2163  msg.sender */\n      caller\n        /* \"ConcejoDeliberante/contracts/ActuacionBase.sol\":2071:2234  Cambio({... */\n      0xffffffffffffffffffffffffffffffffffffffff\n      and\n      dup2\n      mstore\n      pop\n        /* \"ConcejoDeliberante/contracts/ActuacionBase.sol\":2054:2235  a.historial.push(Cambio({... */\n      swap1\n      dup1\n      0x01\n      dup2\n      sload\n      add\n      dup1\n      dup3\n      sstore\n      dup1\n      swap2\n      pop\n      pop\n      0x01\n      swap1\n      sub\n      swap1\n      0x00\n      mstore\n      keccak256(0x00, 0x20)\n      swap1\n      0x04\n      mul\n      add\n      0x00\n      swap1\n      swap2\n      swap1\n      swap2\n      swap1\n      swap2\n      pop\n      0x00\n      dup3\n      add\n      mload\n      dup2\n      0x00\n      add\n      sstore\n      0x20\n      dup3\n      add\n      mload\n      dup2\n      0x01\n      add\n      exp(0x0100, 0x00)\n      dup2\n      sload\n      dup2\n      0xff\n      mul\n      not\n      and\n      swap1\n      dup4\n      0xff\n      and\n      mul\n      or\n      swap1\n      sstore\n      pop\n      0x40\n      dup3\n      add\n      mload\n      dup2\n      0x02\n      add\n      sstore\n      0x60\n      dup3\n      add\n      mload\n      dup2\n      0x03\n      add\n      exp(0x0100, 0x00)\n      dup2\n      sload\n      dup2\n      0xffffffffffffffffffffffffffffffffffffffff\n      mul\n      not\n      and\n      swap1\n      dup4\n      0xffffffffffffffffffffffffffffffffffffffff\n      and\n      mul\n      or\n      swap1\n      sstore\n      pop\n      pop\n      pop\n        /* \"ConcejoDeliberante/contracts/ActuacionBase.sol\":2246:2249  ids */\n      0x02\n        /* \"ConcejoDeliberante/contracts/ActuacionBase.sol\":2255:2258  _id */\n      dup7\n        /* \"ConcejoDeliberante/contracts/ActuacionBase.sol\":2246:2259  ids.push(_id) */\n      swap1\n      dup1\n      0x01\n      dup2\n      sload\n      add\n      dup1\n      dup3\n      sstore\n      dup1\n      swap2\n      pop\n      pop\n      0x01\n      swap1\n      sub\n      swap1\n      0x00\n      mstore\n      keccak256(0x00, 0x20)\n      add\n      0x00\n      swap1\n      swap2\n      swap1\n      swap2\n      swap1\n      swap2\n      pop\n      sstore\n        /* \"ConcejoDeliberante/contracts/ActuacionBase.sol\":2275:2345  ActuacionAgregada(_id, _fechaCreacion, _dniAutor, _estadoNuevo, _hash) */\n      0x164383a2b97191661e35fd7054520c2abdf173025e32983b038ecb35a796cda7\n        /* \"ConcejoDeliberante/contracts/ActuacionBase.sol\":2293:2296  _id */\n      dup7\n        /* \"ConcejoDeliberante/contracts/ActuacionBase.sol\":2298:2312  _fechaCreacion */\n      dup4\n        /* \"ConcejoDeliberante/contracts/ActuacionBase.sol\":2314:2323  _dniAutor */\n      dup8\n        /* \"ConcejoDeliberante/contracts/ActuacionBase.sol\":2325:2337  _estadoNuevo */\n      dup8\n        /* \"ConcejoDeliberante/contracts/ActuacionBase.sol\":2339:2344  _hash */\n      dup8\n        /* \"ConcejoDeliberante/contracts/ActuacionBase.sol\":2275:2345  ActuacionAgregada(_id, _fechaCreacion, _dniAutor, _estadoNuevo, _hash) */\n      mload(0x40)\n      tag_106\n      swap6\n      swap5\n      swap4\n      swap3\n      swap2\n      swap1\n      tag_107\n      jump\t// in\n    tag_106:\n      mload(0x40)\n      dup1\n      swap2\n      sub\n      swap1\n      log1\n        /* \"ConcejoDeliberante/contracts/ActuacionBase.sol\":1797:2352  {... */\n      pop\n        /* \"ConcejoDeliberante/contracts/ActuacionBase.sol\":1625:2352  function _inicializarActuacion(... */\n      pop\n      pop\n      pop\n      pop\n      pop\n      jump\t// out\n        /* \"ConcejoDeliberante/contracts/ActuacionBase.sol\":2974:3554  function _modificarActuacion(uint256 _id, uint8 _estadoNuevo, bytes32 _hashNuevo)... */\n    tag_70:\n        /* \"ConcejoDeliberante/contracts/ActuacionBase.sol\":3090:3102  bool success */\n      0x00\n        /* \"ConcejoDeliberante/contracts/ActuacionBase.sol\":3126:3137  actuaciones */\n      0x01\n        /* \"ConcejoDeliberante/contracts/ActuacionBase.sol\":3126:3142  actuaciones[_id] */\n      0x00\n        /* \"ConcejoDeliberante/contracts/ActuacionBase.sol\":3138:3141  _id */\n      dup6\n        /* \"ConcejoDeliberante/contracts/ActuacionBase.sol\":3126:3142  actuaciones[_id] */\n      dup2\n      mstore\n      0x20\n      add\n      swap1\n      dup2\n      mstore\n      0x20\n      add\n      0x00\n      keccak256\n        /* \"ConcejoDeliberante/contracts/ActuacionBase.sol\":3126:3149  actuaciones[_id].existe */\n      0x02\n      add\n      0x00\n      swap1\n      sload\n      swap1\n      0x0100\n      exp\n      swap1\n      div\n      0xff\n      and\n        /* \"ConcejoDeliberante/contracts/ActuacionBase.sol\":3118:3176  require(actuaciones[_id].existe, \"La actuacion no existe\") */\n      tag_109\n      jumpi\n      mload(0x40)\n      0x08c379a000000000000000000000000000000000000000000000000000000000\n      dup2\n      mstore\n      0x04\n      add\n      tag_110\n      swap1\n      tag_78\n      jump\t// in\n    tag_110:\n      mload(0x40)\n      dup1\n      swap2\n      sub\n      swap1\n      revert\n    tag_109:\n        /* \"ConcejoDeliberante/contracts/ActuacionBase.sol\":3208:3219  propietario */\n      0x00\n      0x00\n      swap1\n      sload\n      swap1\n      0x0100\n      exp\n      swap1\n      div\n      0xffffffffffffffffffffffffffffffffffffffff\n      and\n        /* \"ConcejoDeliberante/contracts/ActuacionBase.sol\":3194:3219  msg.sender == propietario */\n      0xffffffffffffffffffffffffffffffffffffffff\n      and\n        /* \"ConcejoDeliberante/contracts/ActuacionBase.sol\":3194:3204  msg.sender */\n      caller\n        /* \"ConcejoDeliberante/contracts/ActuacionBase.sol\":3194:3219  msg.sender == propietario */\n      0xffffffffffffffffffffffffffffffffffffffff\n      and\n      eq\n        /* \"ConcejoDeliberante/contracts/ActuacionBase.sol\":3186:3244  require(msg.sender == propietario, \"No es el propietario\") */\n      tag_111\n      jumpi\n      mload(0x40)\n      0x08c379a000000000000000000000000000000000000000000000000000000000\n      dup2\n      mstore\n      0x04\n      add\n      tag_112\n      swap1\n      tag_113\n      jump\t// in\n    tag_112:\n      mload(0x40)\n      dup1\n      swap2\n      sub\n      swap1\n      revert\n    tag_111:\n        /* \"ConcejoDeliberante/contracts/ActuacionBase.sol\":3255:3266  actuaciones */\n      0x01\n        /* \"ConcejoDeliberante/contracts/ActuacionBase.sol\":3255:3271  actuaciones[_id] */\n      0x00\n        /* \"ConcejoDeliberante/contracts/ActuacionBase.sol\":3267:3270  _id */\n      dup6\n        /* \"ConcejoDeliberante/contracts/ActuacionBase.sol\":3255:3271  actuaciones[_id] */\n      dup2\n      mstore\n      0x20\n      add\n      swap1\n      dup2\n      mstore\n      0x20\n      add\n      0x00\n      keccak256\n        /* \"ConcejoDeliberante/contracts/ActuacionBase.sol\":3255:3281  actuaciones[_id].historial */\n      0x03\n      add\n        /* \"ConcejoDeliberante/contracts/ActuacionBase.sol\":3287:3459  Cambio({... */\n      mload(0x40)\n      dup1\n      0x80\n      add\n      0x40\n      mstore\n      dup1\n        /* \"ConcejoDeliberante/contracts/ActuacionBase.sol\":3323:3338  block.timestamp */\n      timestamp\n        /* \"ConcejoDeliberante/contracts/ActuacionBase.sol\":3287:3459  Cambio({... */\n      dup2\n      mstore\n      0x20\n      add\n        /* \"ConcejoDeliberante/contracts/ActuacionBase.sol\":3436:3448  _estadoNuevo */\n      dup6\n        /* \"ConcejoDeliberante/contracts/ActuacionBase.sol\":3287:3459  Cambio({... */\n      0xff\n      and\n      dup2\n      mstore\n      0x20\n      add\n        /* \"ConcejoDeliberante/contracts/ActuacionBase.sol\":3397:3407  _hashNuevo */\n      dup5\n        /* \"ConcejoDeliberante/contracts/ActuacionBase.sol\":3287:3459  Cambio({... */\n      dup2\n      mstore\n      0x20\n      add\n        /* \"ConcejoDeliberante/contracts/ActuacionBase.sol\":3367:3377  msg.sender */\n      caller\n        /* \"ConcejoDeliberante/contracts/ActuacionBase.sol\":3287:3459  Cambio({... */\n      0xffffffffffffffffffffffffffffffffffffffff\n      and\n      dup2\n      mstore\n      pop\n        /* \"ConcejoDeliberante/contracts/ActuacionBase.sol\":3255:3460  actuaciones[_id].historial.push(Cambio({... */\n      swap1\n      dup1\n      0x01\n      dup2\n      sload\n      add\n      dup1\n      dup3\n      sstore\n      dup1\n      swap2\n      pop\n      pop\n      0x01\n      swap1\n      sub\n      swap1\n      0x00\n      mstore\n      keccak256(0x00, 0x20)\n      swap1\n      0x04\n      mul\n      add\n      0x00\n      swap1\n      swap2\n      swap1\n      swap2\n      swap1\n      swap2\n      pop\n      0x00\n      dup3\n      add\n      mload\n      dup2\n      0x00\n      add\n      sstore\n      0x20\n      dup3\n      add\n      mload\n      dup2\n      0x01\n      add\n      exp(0x0100, 0x00)\n      dup2\n      sload\n      dup2\n      0xff\n      mul\n      not\n      and\n      swap1\n      dup4\n      0xff\n      and\n      mul\n      or\n      swap1\n      sstore\n      pop\n      0x40\n      dup3\n      add\n      mload\n      dup2\n      0x02\n      add\n      sstore\n      0x60\n      dup3\n      add\n      mload\n      dup2\n      0x03\n      add\n      exp(0x0100, 0x00)\n      dup2\n      sload\n      dup2\n      0xffffffffffffffffffffffffffffffffffffffff\n      mul\n      not\n      and\n      swap1\n      dup4\n      0xffffffffffffffffffffffffffffffffffffffff\n      and\n      mul\n      or\n      swap1\n      sstore\n      pop\n      pop\n      pop\n        /* \"ConcejoDeliberante/contracts/ActuacionBase.sol\":3476:3526  ActuacionModificada(_id, _estadoNuevo, _hashNuevo) */\n      0x02fd7cca134bdc372692f9e8679a7046060ca6da0c386e7494b18b9c21b10652\n        /* \"ConcejoDeliberante/contracts/ActuacionBase.sol\":3496:3499  _id */\n      dup5\n        /* \"ConcejoDeliberante/contracts/ActuacionBase.sol\":3501:3513  _estadoNuevo */\n      dup5\n        /* \"ConcejoDeliberante/contracts/ActuacionBase.sol\":3515:3525  _hashNuevo */\n      dup5\n        /* \"ConcejoDeliberante/contracts/ActuacionBase.sol\":3476:3526  ActuacionModificada(_id, _estadoNuevo, _hashNuevo) */\n      mload(0x40)\n      tag_115\n      swap4\n      swap3\n      swap2\n      swap1\n      tag_72\n      jump\t// in\n    tag_115:\n      mload(0x40)\n      dup1\n      swap2\n      sub\n      swap1\n      log1\n        /* \"ConcejoDeliberante/contracts/ActuacionBase.sol\":3543:3547  true */\n      0x01\n        /* \"ConcejoDeliberante/contracts/ActuacionBase.sol\":3536:3547  return true */\n      swap1\n      pop\n        /* \"ConcejoDeliberante/contracts/ActuacionBase.sol\":2974:3554  function _modificarActuacion(uint256 _id, uint8 _estadoNuevo, bytes32 _hashNuevo)... */\n      swap4\n      swap3\n      pop\n      pop\n      pop\n      jump\t// out\n        /* \"ConcejoDeliberante/contracts/ActuacionBase.sol\":3756:4285  function _eliminarActuacion (uint256 _id, uint8 _estadoNuevo) internal {... */\n    tag_99:\n        /* \"ConcejoDeliberante/contracts/ActuacionBase.sol\":3845:3856  actuaciones */\n      0x01\n        /* \"ConcejoDeliberante/contracts/ActuacionBase.sol\":3845:3861  actuaciones[_id] */\n      0x00\n        /* \"ConcejoDeliberante/contracts/ActuacionBase.sol\":3857:3860  _id */\n      dup4\n        /* \"ConcejoDeliberante/contracts/ActuacionBase.sol\":3845:3861  actuaciones[_id] */\n      dup2\n      mstore\n      0x20\n      add\n      swap1\n      dup2\n      mstore\n      0x20\n      add\n      0x00\n      keccak256\n        /* \"ConcejoDeliberante/contracts/ActuacionBase.sol\":3845:3868  actuaciones[_id].existe */\n      0x02\n      add\n      0x00\n      swap1\n      sload\n      swap1\n      0x0100\n      exp\n      swap1\n      div\n      0xff\n      and\n        /* \"ConcejoDeliberante/contracts/ActuacionBase.sol\":3837:3895  require(actuaciones[_id].existe, \"La actuacion no existe\") */\n      tag_117\n      jumpi\n      mload(0x40)\n      0x08c379a000000000000000000000000000000000000000000000000000000000\n      dup2\n      mstore\n      0x04\n      add\n      tag_118\n      swap1\n      tag_78\n      jump\t// in\n    tag_118:\n      mload(0x40)\n      dup1\n      swap2\n      sub\n      swap1\n      revert\n    tag_117:\n        /* \"ConcejoDeliberante/contracts/ActuacionBase.sol\":3927:3938  propietario */\n      0x00\n      0x00\n      swap1\n      sload\n      swap1\n      0x0100\n      exp\n      swap1\n      div\n      0xffffffffffffffffffffffffffffffffffffffff\n      and\n        /* \"ConcejoDeliberante/contracts/ActuacionBase.sol\":3913:3938  msg.sender == propietario */\n      0xffffffffffffffffffffffffffffffffffffffff\n      and\n        /* \"ConcejoDeliberante/contracts/ActuacionBase.sol\":3913:3923  msg.sender */\n      caller\n        /* \"ConcejoDeliberante/contracts/ActuacionBase.sol\":3913:3938  msg.sender == propietario */\n      0xffffffffffffffffffffffffffffffffffffffff\n      and\n      eq\n        /* \"ConcejoDeliberante/contracts/ActuacionBase.sol\":3905:3963  require(msg.sender == propietario, \"No es el propietario\") */\n      tag_119\n      jumpi\n      mload(0x40)\n      0x08c379a000000000000000000000000000000000000000000000000000000000\n      dup2\n      mstore\n      0x04\n      add\n      tag_120\n      swap1\n      tag_113\n      jump\t// in\n    tag_120:\n      mload(0x40)\n      dup1\n      swap2\n      sub\n      swap1\n      revert\n    tag_119:\n        /* \"ConcejoDeliberante/contracts/ActuacionBase.sol\":3973:3984  actuaciones */\n      0x01\n        /* \"ConcejoDeliberante/contracts/ActuacionBase.sol\":3973:3989  actuaciones[_id] */\n      0x00\n        /* \"ConcejoDeliberante/contracts/ActuacionBase.sol\":3985:3988  _id */\n      dup4\n        /* \"ConcejoDeliberante/contracts/ActuacionBase.sol\":3973:3989  actuaciones[_id] */\n      dup2\n      mstore\n      0x20\n      add\n      swap1\n      dup2\n      mstore\n      0x20\n      add\n      0x00\n      keccak256\n        /* \"ConcejoDeliberante/contracts/ActuacionBase.sol\":3973:3999  actuaciones[_id].historial */\n      0x03\n      add\n        /* \"ConcejoDeliberante/contracts/ActuacionBase.sol\":4005:4224  Cambio({... */\n      mload(0x40)\n      dup1\n      0x80\n      add\n      0x40\n      mstore\n      dup1\n        /* \"ConcejoDeliberante/contracts/ActuacionBase.sol\":4041:4056  block.timestamp */\n      timestamp\n        /* \"ConcejoDeliberante/contracts/ActuacionBase.sol\":4005:4224  Cambio({... */\n      dup2\n      mstore\n      0x20\n      add\n        /* \"ConcejoDeliberante/contracts/ActuacionBase.sol\":4201:4213  _estadoNuevo */\n      dup4\n        /* \"ConcejoDeliberante/contracts/ActuacionBase.sol\":4005:4224  Cambio({... */\n      0xff\n      and\n      dup2\n      mstore\n      0x20\n      add\n        /* \"ConcejoDeliberante/contracts/ActuacionBase.sol\":4123:4124  0 */\n      0x00\n        /* \"ConcejoDeliberante/contracts/ActuacionBase.sol\":4115:4125  bytes32(0) */\n      0x00\n      shl\n        /* \"ConcejoDeliberante/contracts/ActuacionBase.sol\":4005:4224  Cambio({... */\n      dup2\n      mstore\n      0x20\n      add\n        /* \"ConcejoDeliberante/contracts/ActuacionBase.sol\":4085:4095  msg.sender */\n      caller\n        /* \"ConcejoDeliberante/contracts/ActuacionBase.sol\":4005:4224  Cambio({... */\n      0xffffffffffffffffffffffffffffffffffffffff\n      and\n      dup2\n      mstore\n      pop\n        /* \"ConcejoDeliberante/contracts/ActuacionBase.sol\":3973:4225  actuaciones[_id].historial.push(Cambio({... */\n      swap1\n      dup1\n      0x01\n      dup2\n      sload\n      add\n      dup1\n      dup3\n      sstore\n      dup1\n      swap2\n      pop\n      pop\n      0x01\n      swap1\n      sub\n      swap1\n      0x00\n      mstore\n      keccak256(0x00, 0x20)\n      swap1\n      0x04\n      mul\n      add\n      0x00\n      swap1\n      swap2\n      swap1\n      swap2\n      swap1\n      swap2\n      pop\n      0x00\n      dup3\n      add\n      mload\n      dup2\n      0x00\n      add\n      sstore\n      0x20\n      dup3\n      add\n      mload\n      dup2\n      0x01\n      add\n      exp(0x0100, 0x00)\n      dup2\n      sload\n      dup2\n      0xff\n      mul\n      not\n      and\n      swap1\n      dup4\n      0xff\n      and\n      mul\n      or\n      swap1\n      sstore\n      pop\n      0x40\n      dup3\n      add\n      mload\n      dup2\n      0x02\n      add\n      sstore\n      0x60\n      dup3\n      add\n      mload\n      dup2\n      0x03\n      add\n      exp(0x0100, 0x00)\n      dup2\n      sload\n      dup2\n      0xffffffffffffffffffffffffffffffffffffffff\n      mul\n      not\n      and\n      swap1\n      dup4\n      0xffffffffffffffffffffffffffffffffffffffff\n      and\n      mul\n      or\n      swap1\n      sstore\n      pop\n      pop\n      pop\n        /* \"ConcejoDeliberante/contracts/ActuacionBase.sol\":4241:4278  ActuacionEliminada(_id, _estadoNuevo) */\n      0x55f3b2b2bc9c07499976075b3a9a78344b888c51b194889c9214c6eba4bf0113\n        /* \"ConcejoDeliberante/contracts/ActuacionBase.sol\":4260:4263  _id */\n      dup3\n        /* \"ConcejoDeliberante/contracts/ActuacionBase.sol\":4265:4277  _estadoNuevo */\n      dup3\n        /* \"ConcejoDeliberante/contracts/ActuacionBase.sol\":4241:4278  ActuacionEliminada(_id, _estadoNuevo) */\n      mload(0x40)\n      tag_122\n      swap3\n      swap2\n      swap1\n      tag_123\n      jump\t// in\n    tag_122:\n      mload(0x40)\n      dup1\n      swap2\n      sub\n      swap1\n      log1\n        /* \"ConcejoDeliberante/contracts/ActuacionBase.sol\":3756:4285  function _eliminarActuacion (uint256 _id, uint8 _estadoNuevo) internal {... */\n      pop\n      pop\n      jump\t// out\n    tag_74:\n      mload(0x40)\n      dup1\n      0x80\n      add\n      0x40\n      mstore\n      dup1\n      0x00\n      dup2\n      mstore\n      0x20\n      add\n      0x00\n      dup2\n      mstore\n      0x20\n      add\n      iszero(iszero(0x00))\n      dup2\n      mstore\n      0x20\n      add\n      0x60\n      dup2\n      mstore\n      pop\n      swap1\n      jump\t// out\n        /* \"#utility.yul\":7:133   */\n    tag_124:\n        /* \"#utility.yul\":44:51   */\n      0x00\n        /* \"#utility.yul\":84:126   */\n      0xffffffffffffffffffffffffffffffffffffffff\n        /* \"#utility.yul\":77:82   */\n      dup3\n        /* \"#utility.yul\":73:127   */\n      and\n        /* \"#utility.yul\":62:127   */\n      swap1\n      pop\n        /* \"#utility.yul\":7:133   */\n      swap2\n      swap1\n      pop\n      jump\t// out\n        /* \"#utility.yul\":139:235   */\n    tag_125:\n        /* \"#utility.yul\":176:183   */\n      0x00\n        /* \"#utility.yul\":205:229   */\n      tag_179\n        /* \"#utility.yul\":223:228   */\n      dup3\n        /* \"#utility.yul\":205:229   */\n      tag_124\n      jump\t// in\n    tag_179:\n        /* \"#utility.yul\":194:229   */\n      swap1\n      pop\n        /* \"#utility.yul\":139:235   */\n      swap2\n      swap1\n      pop\n      jump\t// out\n        /* \"#utility.yul\":241:359   */\n    tag_126:\n        /* \"#utility.yul\":328:352   */\n      tag_181\n        /* \"#utility.yul\":346:351   */\n      dup2\n        /* \"#utility.yul\":328:352   */\n      tag_125\n      jump\t// in\n    tag_181:\n        /* \"#utility.yul\":323:326   */\n      dup3\n        /* \"#utility.yul\":316:353   */\n      mstore\n        /* \"#utility.yul\":241:359   */\n      pop\n      pop\n      jump\t// out\n        /* \"#utility.yul\":365:587   */\n    tag_14:\n        /* \"#utility.yul\":458:462   */\n      0x00\n        /* \"#utility.yul\":496:498   */\n      0x20\n        /* \"#utility.yul\":485:494   */\n      dup3\n        /* \"#utility.yul\":481:499   */\n      add\n        /* \"#utility.yul\":473:499   */\n      swap1\n      pop\n        /* \"#utility.yul\":509:580   */\n      tag_183\n        /* \"#utility.yul\":577:578   */\n      0x00\n        /* \"#utility.yul\":566:575   */\n      dup4\n        /* \"#utility.yul\":562:579   */\n      add\n        /* \"#utility.yul\":553:559   */\n      dup5\n        /* \"#utility.yul\":509:580   */\n      tag_126\n      jump\t// in\n    tag_183:\n        /* \"#utility.yul\":365:587   */\n      swap3\n      swap2\n      pop\n      pop\n      jump\t// out\n        /* \"#utility.yul\":674:791   */\n    tag_128:\n        /* \"#utility.yul\":783:784   */\n      0x00\n        /* \"#utility.yul\":780:781   */\n      0x00\n        /* \"#utility.yul\":773:785   */\n      revert\n        /* \"#utility.yul\":920:997   */\n    tag_130:\n        /* \"#utility.yul\":957:964   */\n      0x00\n        /* \"#utility.yul\":986:991   */\n      dup2\n        /* \"#utility.yul\":975:991   */\n      swap1\n      pop\n        /* \"#utility.yul\":920:997   */\n      swap2\n      swap1\n      pop\n      jump\t// out\n        /* \"#utility.yul\":1003:1125   */\n    tag_131:\n        /* \"#utility.yul\":1076:1100   */\n      tag_189\n        /* \"#utility.yul\":1094:1099   */\n      dup2\n        /* \"#utility.yul\":1076:1100   */\n      tag_130\n      jump\t// in\n    tag_189:\n        /* \"#utility.yul\":1069:1074   */\n      dup2\n        /* \"#utility.yul\":1066:1101   */\n      eq\n        /* \"#utility.yul\":1056:1119   */\n      tag_190\n      jumpi\n        /* \"#utility.yul\":1115:1116   */\n      0x00\n        /* \"#utility.yul\":1112:1113   */\n      0x00\n        /* \"#utility.yul\":1105:1117   */\n      revert\n        /* \"#utility.yul\":1056:1119   */\n    tag_190:\n        /* \"#utility.yul\":1003:1125   */\n      pop\n      jump\t// out\n        /* \"#utility.yul\":1131:1270   */\n    tag_132:\n        /* \"#utility.yul\":1177:1182   */\n      0x00\n        /* \"#utility.yul\":1215:1221   */\n      dup2\n        /* \"#utility.yul\":1202:1222   */\n      calldataload\n        /* \"#utility.yul\":1193:1222   */\n      swap1\n      pop\n        /* \"#utility.yul\":1231:1264   */\n      tag_192\n        /* \"#utility.yul\":1258:1263   */\n      dup2\n        /* \"#utility.yul\":1231:1264   */\n      tag_131\n      jump\t// in\n    tag_192:\n        /* \"#utility.yul\":1131:1270   */\n      swap3\n      swap2\n      pop\n      pop\n      jump\t// out\n        /* \"#utility.yul\":1276:1353   */\n    tag_133:\n        /* \"#utility.yul\":1313:1320   */\n      0x00\n        /* \"#utility.yul\":1342:1347   */\n      dup2\n        /* \"#utility.yul\":1331:1347   */\n      swap1\n      pop\n        /* \"#utility.yul\":1276:1353   */\n      swap2\n      swap1\n      pop\n      jump\t// out\n        /* \"#utility.yul\":1359:1481   */\n    tag_134:\n        /* \"#utility.yul\":1432:1456   */\n      tag_195\n        /* \"#utility.yul\":1450:1455   */\n      dup2\n        /* \"#utility.yul\":1432:1456   */\n      tag_133\n      jump\t// in\n    tag_195:\n        /* \"#utility.yul\":1425:1430   */\n      dup2\n        /* \"#utility.yul\":1422:1457   */\n      eq\n        /* \"#utility.yul\":1412:1475   */\n      tag_196\n      jumpi\n        /* \"#utility.yul\":1471:1472   */\n      0x00\n        /* \"#utility.yul\":1468:1469   */\n      0x00\n        /* \"#utility.yul\":1461:1473   */\n      revert\n        /* \"#utility.yul\":1412:1475   */\n    tag_196:\n        /* \"#utility.yul\":1359:1481   */\n      pop\n      jump\t// out\n        /* \"#utility.yul\":1487:1626   */\n    tag_135:\n        /* \"#utility.yul\":1533:1538   */\n      0x00\n        /* \"#utility.yul\":1571:1577   */\n      dup2\n        /* \"#utility.yul\":1558:1578   */\n      calldataload\n        /* \"#utility.yul\":1549:1578   */\n      swap1\n      pop\n        /* \"#utility.yul\":1587:1620   */\n      tag_198\n        /* \"#utility.yul\":1614:1619   */\n      dup2\n        /* \"#utility.yul\":1587:1620   */\n      tag_134\n      jump\t// in\n    tag_198:\n        /* \"#utility.yul\":1487:1626   */\n      swap3\n      swap2\n      pop\n      pop\n      jump\t// out\n        /* \"#utility.yul\":1632:1718   */\n    tag_136:\n        /* \"#utility.yul\":1667:1674   */\n      0x00\n        /* \"#utility.yul\":1707:1711   */\n      0xff\n        /* \"#utility.yul\":1700:1705   */\n      dup3\n        /* \"#utility.yul\":1696:1712   */\n      and\n        /* \"#utility.yul\":1685:1712   */\n      swap1\n      pop\n        /* \"#utility.yul\":1632:1718   */\n      swap2\n      swap1\n      pop\n      jump\t// out\n        /* \"#utility.yul\":1724:1842   */\n    tag_137:\n        /* \"#utility.yul\":1795:1817   */\n      tag_201\n        /* \"#utility.yul\":1811:1816   */\n      dup2\n        /* \"#utility.yul\":1795:1817   */\n      tag_136\n      jump\t// in\n    tag_201:\n        /* \"#utility.yul\":1788:1793   */\n      dup2\n        /* \"#utility.yul\":1785:1818   */\n      eq\n        /* \"#utility.yul\":1775:1836   */\n      tag_202\n      jumpi\n        /* \"#utility.yul\":1832:1833   */\n      0x00\n        /* \"#utility.yul\":1829:1830   */\n      0x00\n        /* \"#utility.yul\":1822:1834   */\n      revert\n        /* \"#utility.yul\":1775:1836   */\n    tag_202:\n        /* \"#utility.yul\":1724:1842   */\n      pop\n      jump\t// out\n        /* \"#utility.yul\":1848:1983   */\n    tag_138:\n        /* \"#utility.yul\":1892:1897   */\n      0x00\n        /* \"#utility.yul\":1930:1936   */\n      dup2\n        /* \"#utility.yul\":1917:1937   */\n      calldataload\n        /* \"#utility.yul\":1908:1937   */\n      swap1\n      pop\n        /* \"#utility.yul\":1946:1977   */\n      tag_204\n        /* \"#utility.yul\":1971:1976   */\n      dup2\n        /* \"#utility.yul\":1946:1977   */\n      tag_137\n      jump\t// in\n    tag_204:\n        /* \"#utility.yul\":1848:1983   */\n      swap3\n      swap2\n      pop\n      pop\n      jump\t// out\n        /* \"#utility.yul\":1989:3042   */\n    tag_17:\n        /* \"#utility.yul\":2091:2097   */\n      0x00\n        /* \"#utility.yul\":2099:2105   */\n      0x00\n        /* \"#utility.yul\":2107:2113   */\n      0x00\n        /* \"#utility.yul\":2115:2121   */\n      0x00\n        /* \"#utility.yul\":2123:2129   */\n      0x00\n        /* \"#utility.yul\":2131:2137   */\n      0x00\n        /* \"#utility.yul\":2180:2183   */\n      0xc0\n        /* \"#utility.yul\":2168:2177   */\n      dup8\n        /* \"#utility.yul\":2159:2166   */\n      dup10\n        /* \"#utility.yul\":2155:2178   */\n      sub\n        /* \"#utility.yul\":2151:2184   */\n      slt\n        /* \"#utility.yul\":2148:2268   */\n      iszero\n      tag_206\n      jumpi\n        /* \"#utility.yul\":2187:2266   */\n      tag_207\n      tag_128\n      jump\t// in\n    tag_207:\n        /* \"#utility.yul\":2148:2268   */\n    tag_206:\n        /* \"#utility.yul\":2307:2308   */\n      0x00\n        /* \"#utility.yul\":2332:2385   */\n      tag_208\n        /* \"#utility.yul\":2377:2384   */\n      dup10\n        /* \"#utility.yul\":2368:2374   */\n      dup3\n        /* \"#utility.yul\":2357:2366   */\n      dup11\n        /* \"#utility.yul\":2353:2375   */\n      add\n        /* \"#utility.yul\":2332:2385   */\n      tag_132\n      jump\t// in\n    tag_208:\n        /* \"#utility.yul\":2322:2385   */\n      swap7\n      pop\n        /* \"#utility.yul\":2278:2395   */\n      pop\n        /* \"#utility.yul\":2434:2436   */\n      0x20\n        /* \"#utility.yul\":2460:2513   */\n      tag_209\n        /* \"#utility.yul\":2505:2512   */\n      dup10\n        /* \"#utility.yul\":2496:2502   */\n      dup3\n        /* \"#utility.yul\":2485:2494   */\n      dup11\n        /* \"#utility.yul\":2481:2503   */\n      add\n        /* \"#utility.yul\":2460:2513   */\n      tag_132\n      jump\t// in\n    tag_209:\n        /* \"#utility.yul\":2450:2513   */\n      swap6\n      pop\n        /* \"#utility.yul\":2405:2523   */\n      pop\n        /* \"#utility.yul\":2562:2564   */\n      0x40\n        /* \"#utility.yul\":2588:2641   */\n      tag_210\n        /* \"#utility.yul\":2633:2640   */\n      dup10\n        /* \"#utility.yul\":2624:2630   */\n      dup3\n        /* \"#utility.yul\":2613:2622   */\n      dup11\n        /* \"#utility.yul\":2609:2631   */\n      add\n        /* \"#utility.yul\":2588:2641   */\n      tag_135\n      jump\t// in\n    tag_210:\n        /* \"#utility.yul\":2578:2641   */\n      swap5\n      pop\n        /* \"#utility.yul\":2533:2651   */\n      pop\n        /* \"#utility.yul\":2690:2692   */\n      0x60\n        /* \"#utility.yul\":2716:2769   */\n      tag_211\n        /* \"#utility.yul\":2761:2768   */\n      dup10\n        /* \"#utility.yul\":2752:2758   */\n      dup3\n        /* \"#utility.yul\":2741:2750   */\n      dup11\n        /* \"#utility.yul\":2737:2759   */\n      add\n        /* \"#utility.yul\":2716:2769   */\n      tag_132\n      jump\t// in\n    tag_211:\n        /* \"#utility.yul\":2706:2769   */\n      swap4\n      pop\n        /* \"#utility.yul\":2661:2779   */\n      pop\n        /* \"#utility.yul\":2818:2821   */\n      0x80\n        /* \"#utility.yul\":2845:2898   */\n      tag_212\n        /* \"#utility.yul\":2890:2897   */\n      dup10\n        /* \"#utility.yul\":2881:2887   */\n      dup3\n        /* \"#utility.yul\":2870:2879   */\n      dup11\n        /* \"#utility.yul\":2866:2888   */\n      add\n        /* \"#utility.yul\":2845:2898   */\n      tag_132\n      jump\t// in\n    tag_212:\n        /* \"#utility.yul\":2835:2898   */\n      swap3\n      pop\n        /* \"#utility.yul\":2789:2908   */\n      pop\n        /* \"#utility.yul\":2947:2950   */\n      0xa0\n        /* \"#utility.yul\":2974:3025   */\n      tag_213\n        /* \"#utility.yul\":3017:3024   */\n      dup10\n        /* \"#utility.yul\":3008:3014   */\n      dup3\n        /* \"#utility.yul\":2997:3006   */\n      dup11\n        /* \"#utility.yul\":2993:3015   */\n      add\n        /* \"#utility.yul\":2974:3025   */\n      tag_138\n      jump\t// in\n    tag_213:\n        /* \"#utility.yul\":2964:3025   */\n      swap2\n      pop\n        /* \"#utility.yul\":2918:3035   */\n      pop\n        /* \"#utility.yul\":1989:3042   */\n      swap3\n      swap6\n      pop\n      swap3\n      swap6\n      pop\n      swap3\n      swap6\n      jump\t// out\n        /* \"#utility.yul\":3048:3663   */\n    tag_22:\n        /* \"#utility.yul\":3123:3129   */\n      0x00\n        /* \"#utility.yul\":3131:3137   */\n      0x00\n        /* \"#utility.yul\":3139:3145   */\n      0x00\n        /* \"#utility.yul\":3188:3190   */\n      0x60\n        /* \"#utility.yul\":3176:3185   */\n      dup5\n        /* \"#utility.yul\":3167:3174   */\n      dup7\n        /* \"#utility.yul\":3163:3186   */\n      sub\n        /* \"#utility.yul\":3159:3191   */\n      slt\n        /* \"#utility.yul\":3156:3275   */\n      iszero\n      tag_215\n      jumpi\n        /* \"#utility.yul\":3194:3273   */\n      tag_216\n      tag_128\n      jump\t// in\n    tag_216:\n        /* \"#utility.yul\":3156:3275   */\n    tag_215:\n        /* \"#utility.yul\":3314:3315   */\n      0x00\n        /* \"#utility.yul\":3339:3392   */\n      tag_217\n        /* \"#utility.yul\":3384:3391   */\n      dup7\n        /* \"#utility.yul\":3375:3381   */\n      dup3\n        /* \"#utility.yul\":3364:3373   */\n      dup8\n        /* \"#utility.yul\":3360:3382   */\n      add\n        /* \"#utility.yul\":3339:3392   */\n      tag_132\n      jump\t// in\n    tag_217:\n        /* \"#utility.yul\":3329:3392   */\n      swap4\n      pop\n        /* \"#utility.yul\":3285:3402   */\n      pop\n        /* \"#utility.yul\":3441:3443   */\n      0x20\n        /* \"#utility.yul\":3467:3518   */\n      tag_218\n        /* \"#utility.yul\":3510:3517   */\n      dup7\n        /* \"#utility.yul\":3501:3507   */\n      dup3\n        /* \"#utility.yul\":3490:3499   */\n      dup8\n        /* \"#utility.yul\":3486:3508   */\n      add\n        /* \"#utility.yul\":3467:3518   */\n      tag_138\n      jump\t// in\n    tag_218:\n        /* \"#utility.yul\":3457:3518   */\n      swap3\n      pop\n        /* \"#utility.yul\":3412:3528   */\n      pop\n        /* \"#utility.yul\":3567:3569   */\n      0x40\n        /* \"#utility.yul\":3593:3646   */\n      tag_219\n        /* \"#utility.yul\":3638:3645   */\n      dup7\n        /* \"#utility.yul\":3629:3635   */\n      dup3\n        /* \"#utility.yul\":3618:3627   */\n      dup8\n        /* \"#utility.yul\":3614:3636   */\n      add\n        /* \"#utility.yul\":3593:3646   */\n      tag_135\n      jump\t// in\n    tag_219:\n        /* \"#utility.yul\":3583:3646   */\n      swap2\n      pop\n        /* \"#utility.yul\":3538:3656   */\n      pop\n        /* \"#utility.yul\":3048:3663   */\n      swap3\n      pop\n      swap3\n      pop\n      swap3\n      jump\t// out\n        /* \"#utility.yul\":3669:3759   */\n    tag_139:\n        /* \"#utility.yul\":3703:3710   */\n      0x00\n        /* \"#utility.yul\":3746:3751   */\n      dup2\n        /* \"#utility.yul\":3739:3752   */\n      iszero\n        /* \"#utility.yul\":3732:3753   */\n      iszero\n        /* \"#utility.yul\":3721:3753   */\n      swap1\n      pop\n        /* \"#utility.yul\":3669:3759   */\n      swap2\n      swap1\n      pop\n      jump\t// out\n        /* \"#utility.yul\":3765:3874   */\n    tag_140:\n        /* \"#utility.yul\":3846:3867   */\n      tag_222\n        /* \"#utility.yul\":3861:3866   */\n      dup2\n        /* \"#utility.yul\":3846:3867   */\n      tag_139\n      jump\t// in\n    tag_222:\n        /* \"#utility.yul\":3841:3844   */\n      dup3\n        /* \"#utility.yul\":3834:3868   */\n      mstore\n        /* \"#utility.yul\":3765:3874   */\n      pop\n      pop\n      jump\t// out\n        /* \"#utility.yul\":3880:4090   */\n    tag_25:\n        /* \"#utility.yul\":3967:3971   */\n      0x00\n        /* \"#utility.yul\":4005:4007   */\n      0x20\n        /* \"#utility.yul\":3994:4003   */\n      dup3\n        /* \"#utility.yul\":3990:4008   */\n      add\n        /* \"#utility.yul\":3982:4008   */\n      swap1\n      pop\n        /* \"#utility.yul\":4018:4083   */\n      tag_224\n        /* \"#utility.yul\":4080:4081   */\n      0x00\n        /* \"#utility.yul\":4069:4078   */\n      dup4\n        /* \"#utility.yul\":4065:4082   */\n      add\n        /* \"#utility.yul\":4056:4062   */\n      dup5\n        /* \"#utility.yul\":4018:4083   */\n      tag_140\n      jump\t// in\n    tag_224:\n        /* \"#utility.yul\":3880:4090   */\n      swap3\n      swap2\n      pop\n      pop\n      jump\t// out\n        /* \"#utility.yul\":4096:4214   */\n    tag_141:\n        /* \"#utility.yul\":4183:4207   */\n      tag_226\n        /* \"#utility.yul\":4201:4206   */\n      dup2\n        /* \"#utility.yul\":4183:4207   */\n      tag_130\n      jump\t// in\n    tag_226:\n        /* \"#utility.yul\":4178:4181   */\n      dup3\n        /* \"#utility.yul\":4171:4208   */\n      mstore\n        /* \"#utility.yul\":4096:4214   */\n      pop\n      pop\n      jump\t// out\n        /* \"#utility.yul\":4220:4442   */\n    tag_30:\n        /* \"#utility.yul\":4313:4317   */\n      0x00\n        /* \"#utility.yul\":4351:4353   */\n      0x20\n        /* \"#utility.yul\":4340:4349   */\n      dup3\n        /* \"#utility.yul\":4336:4354   */\n      add\n        /* \"#utility.yul\":4328:4354   */\n      swap1\n      pop\n        /* \"#utility.yul\":4364:4435   */\n      tag_228\n        /* \"#utility.yul\":4432:4433   */\n      0x00\n        /* \"#utility.yul\":4421:4430   */\n      dup4\n        /* \"#utility.yul\":4417:4434   */\n      add\n        /* \"#utility.yul\":4408:4414   */\n      dup5\n        /* \"#utility.yul\":4364:4435   */\n      tag_141\n      jump\t// in\n    tag_228:\n        /* \"#utility.yul\":4220:4442   */\n      swap3\n      swap2\n      pop\n      pop\n      jump\t// out\n        /* \"#utility.yul\":4448:4777   */\n    tag_34:\n        /* \"#utility.yul\":4507:4513   */\n      0x00\n        /* \"#utility.yul\":4556:4558   */\n      0x20\n        /* \"#utility.yul\":4544:4553   */\n      dup3\n        /* \"#utility.yul\":4535:4542   */\n      dup5\n        /* \"#utility.yul\":4531:4554   */\n      sub\n        /* \"#utility.yul\":4527:4559   */\n      slt\n        /* \"#utility.yul\":4524:4643   */\n      iszero\n      tag_230\n      jumpi\n        /* \"#utility.yul\":4562:4641   */\n      tag_231\n      tag_128\n      jump\t// in\n    tag_231:\n        /* \"#utility.yul\":4524:4643   */\n    tag_230:\n        /* \"#utility.yul\":4682:4683   */\n      0x00\n        /* \"#utility.yul\":4707:4760   */\n      tag_232\n        /* \"#utility.yul\":4752:4759   */\n      dup5\n        /* \"#utility.yul\":4743:4749   */\n      dup3\n        /* \"#utility.yul\":4732:4741   */\n      dup6\n        /* \"#utility.yul\":4728:4750   */\n      add\n        /* \"#utility.yul\":4707:4760   */\n      tag_132\n      jump\t// in\n    tag_232:\n        /* \"#utility.yul\":4697:4760   */\n      swap2\n      pop\n        /* \"#utility.yul\":4653:4770   */\n      pop\n        /* \"#utility.yul\":4448:4777   */\n      swap3\n      swap2\n      pop\n      pop\n      jump\t// out\n        /* \"#utility.yul\":4783:4891   */\n    tag_142:\n        /* \"#utility.yul\":4860:4884   */\n      tag_234\n        /* \"#utility.yul\":4878:4883   */\n      dup2\n        /* \"#utility.yul\":4860:4884   */\n      tag_130\n      jump\t// in\n    tag_234:\n        /* \"#utility.yul\":4855:4858   */\n      dup3\n        /* \"#utility.yul\":4848:4885   */\n      mstore\n        /* \"#utility.yul\":4783:4891   */\n      pop\n      pop\n      jump\t// out\n        /* \"#utility.yul\":4897:4996   */\n    tag_143:\n        /* \"#utility.yul\":4968:4989   */\n      tag_236\n        /* \"#utility.yul\":4983:4988   */\n      dup2\n        /* \"#utility.yul\":4968:4989   */\n      tag_139\n      jump\t// in\n    tag_236:\n        /* \"#utility.yul\":4963:4966   */\n      dup3\n        /* \"#utility.yul\":4956:4990   */\n      mstore\n        /* \"#utility.yul\":4897:4996   */\n      pop\n      pop\n      jump\t// out\n        /* \"#utility.yul\":5002:5138   */\n    tag_144:\n        /* \"#utility.yul\":5091:5097   */\n      0x00\n        /* \"#utility.yul\":5125:5130   */\n      dup2\n        /* \"#utility.yul\":5119:5131   */\n      mload\n        /* \"#utility.yul\":5109:5131   */\n      swap1\n      pop\n        /* \"#utility.yul\":5002:5138   */\n      swap2\n      swap1\n      pop\n      jump\t// out\n        /* \"#utility.yul\":5144:5340   */\n    tag_145:\n        /* \"#utility.yul\":5255:5266   */\n      0x00\n        /* \"#utility.yul\":5289:5295   */\n      dup3\n        /* \"#utility.yul\":5284:5287   */\n      dup3\n        /* \"#utility.yul\":5277:5296   */\n      mstore\n        /* \"#utility.yul\":5329:5333   */\n      0x20\n        /* \"#utility.yul\":5324:5327   */\n      dup3\n        /* \"#utility.yul\":5320:5334   */\n      add\n        /* \"#utility.yul\":5305:5334   */\n      swap1\n      pop\n        /* \"#utility.yul\":5144:5340   */\n      swap3\n      swap2\n      pop\n      pop\n      jump\t// out\n        /* \"#utility.yul\":5346:5500   */\n    tag_146:\n        /* \"#utility.yul\":5435:5439   */\n      0x00\n        /* \"#utility.yul\":5458:5461   */\n      dup2\n        /* \"#utility.yul\":5450:5461   */\n      swap1\n      pop\n        /* \"#utility.yul\":5488:5492   */\n      0x20\n        /* \"#utility.yul\":5483:5486   */\n      dup3\n        /* \"#utility.yul\":5479:5493   */\n      add\n        /* \"#utility.yul\":5471:5493   */\n      swap1\n      pop\n        /* \"#utility.yul\":5346:5500   */\n      swap2\n      swap1\n      pop\n      jump\t// out\n        /* \"#utility.yul\":5506:5608   */\n    tag_147:\n        /* \"#utility.yul\":5579:5601   */\n      tag_241\n        /* \"#utility.yul\":5595:5600   */\n      dup2\n        /* \"#utility.yul\":5579:5601   */\n      tag_136\n      jump\t// in\n    tag_241:\n        /* \"#utility.yul\":5574:5577   */\n      dup3\n        /* \"#utility.yul\":5567:5602   */\n      mstore\n        /* \"#utility.yul\":5506:5608   */\n      pop\n      pop\n      jump\t// out\n        /* \"#utility.yul\":5614:5722   */\n    tag_148:\n        /* \"#utility.yul\":5691:5715   */\n      tag_243\n        /* \"#utility.yul\":5709:5714   */\n      dup2\n        /* \"#utility.yul\":5691:5715   */\n      tag_133\n      jump\t// in\n    tag_243:\n        /* \"#utility.yul\":5686:5689   */\n      dup3\n        /* \"#utility.yul\":5679:5716   */\n      mstore\n        /* \"#utility.yul\":5614:5722   */\n      pop\n      pop\n      jump\t// out\n        /* \"#utility.yul\":5728:5836   */\n    tag_149:\n        /* \"#utility.yul\":5805:5829   */\n      tag_245\n        /* \"#utility.yul\":5823:5828   */\n      dup2\n        /* \"#utility.yul\":5805:5829   */\n      tag_125\n      jump\t// in\n    tag_245:\n        /* \"#utility.yul\":5800:5803   */\n      dup3\n        /* \"#utility.yul\":5793:5830   */\n      mstore\n        /* \"#utility.yul\":5728:5836   */\n      pop\n      pop\n      jump\t// out\n        /* \"#utility.yul\":5908:6759   */\n    tag_150:\n        /* \"#utility.yul\":6039:6043   */\n      0x80\n        /* \"#utility.yul\":6034:6037   */\n      dup3\n        /* \"#utility.yul\":6030:6044   */\n      add\n        /* \"#utility.yul\":6131:6135   */\n      0x00\n        /* \"#utility.yul\":6124:6129   */\n      dup3\n        /* \"#utility.yul\":6120:6136   */\n      add\n        /* \"#utility.yul\":6114:6137   */\n      mload\n        /* \"#utility.yul\":6150:6213   */\n      tag_247\n        /* \"#utility.yul\":6207:6211   */\n      0x00\n        /* \"#utility.yul\":6202:6205   */\n      dup6\n        /* \"#utility.yul\":6198:6212   */\n      add\n        /* \"#utility.yul\":6184:6196   */\n      dup3\n        /* \"#utility.yul\":6150:6213   */\n      tag_142\n      jump\t// in\n    tag_247:\n        /* \"#utility.yul\":6054:6223   */\n      pop\n        /* \"#utility.yul\":6307:6311   */\n      0x20\n        /* \"#utility.yul\":6300:6305   */\n      dup3\n        /* \"#utility.yul\":6296:6312   */\n      add\n        /* \"#utility.yul\":6290:6313   */\n      mload\n        /* \"#utility.yul\":6326:6385   */\n      tag_248\n        /* \"#utility.yul\":6379:6383   */\n      0x20\n        /* \"#utility.yul\":6374:6377   */\n      dup6\n        /* \"#utility.yul\":6370:6384   */\n      add\n        /* \"#utility.yul\":6356:6368   */\n      dup3\n        /* \"#utility.yul\":6326:6385   */\n      tag_147\n      jump\t// in\n    tag_248:\n        /* \"#utility.yul\":6233:6395   */\n      pop\n        /* \"#utility.yul\":6477:6481   */\n      0x40\n        /* \"#utility.yul\":6470:6475   */\n      dup3\n        /* \"#utility.yul\":6466:6482   */\n      add\n        /* \"#utility.yul\":6460:6483   */\n      mload\n        /* \"#utility.yul\":6496:6559   */\n      tag_249\n        /* \"#utility.yul\":6553:6557   */\n      0x40\n        /* \"#utility.yul\":6548:6551   */\n      dup6\n        /* \"#utility.yul\":6544:6558   */\n      add\n        /* \"#utility.yul\":6530:6542   */\n      dup3\n        /* \"#utility.yul\":6496:6559   */\n      tag_148\n      jump\t// in\n    tag_249:\n        /* \"#utility.yul\":6405:6569   */\n      pop\n        /* \"#utility.yul\":6660:6664   */\n      0x60\n        /* \"#utility.yul\":6653:6658   */\n      dup3\n        /* \"#utility.yul\":6649:6665   */\n      add\n        /* \"#utility.yul\":6643:6666   */\n      mload\n        /* \"#utility.yul\":6679:6742   */\n      tag_250\n        /* \"#utility.yul\":6736:6740   */\n      0x60\n        /* \"#utility.yul\":6731:6734   */\n      dup6\n        /* \"#utility.yul\":6727:6741   */\n      add\n        /* \"#utility.yul\":6713:6725   */\n      dup3\n        /* \"#utility.yul\":6679:6742   */\n      tag_149\n      jump\t// in\n    tag_250:\n        /* \"#utility.yul\":6579:6752   */\n      pop\n        /* \"#utility.yul\":6008:6759   */\n      pop\n        /* \"#utility.yul\":5908:6759   */\n      pop\n      pop\n      jump\t// out\n        /* \"#utility.yul\":6765:7032   */\n    tag_151:\n        /* \"#utility.yul\":6878:6888   */\n      0x00\n        /* \"#utility.yul\":6899:6989   */\n      tag_252\n        /* \"#utility.yul\":6985:6988   */\n      dup4\n        /* \"#utility.yul\":6977:6983   */\n      dup4\n        /* \"#utility.yul\":6899:6989   */\n      tag_150\n      jump\t// in\n    tag_252:\n        /* \"#utility.yul\":7021:7025   */\n      0x80\n        /* \"#utility.yul\":7016:7019   */\n      dup4\n        /* \"#utility.yul\":7012:7026   */\n      add\n        /* \"#utility.yul\":6998:7026   */\n      swap1\n      pop\n        /* \"#utility.yul\":6765:7032   */\n      swap3\n      swap2\n      pop\n      pop\n      jump\t// out\n        /* \"#utility.yul\":7038:7173   */\n    tag_152:\n        /* \"#utility.yul\":7130:7134   */\n      0x00\n        /* \"#utility.yul\":7162:7166   */\n      0x20\n        /* \"#utility.yul\":7157:7160   */\n      dup3\n        /* \"#utility.yul\":7153:7167   */\n      add\n        /* \"#utility.yul\":7145:7167   */\n      swap1\n      pop\n        /* \"#utility.yul\":7038:7173   */\n      swap2\n      swap1\n      pop\n      jump\t// out\n        /* \"#utility.yul\":7249:8137   */\n    tag_153:\n        /* \"#utility.yul\":7402:7405   */\n      0x00\n        /* \"#utility.yul\":7431:7507   */\n      tag_255\n        /* \"#utility.yul\":7501:7506   */\n      dup3\n        /* \"#utility.yul\":7431:7507   */\n      tag_144\n      jump\t// in\n    tag_255:\n        /* \"#utility.yul\":7523:7621   */\n      tag_256\n        /* \"#utility.yul\":7614:7620   */\n      dup2\n        /* \"#utility.yul\":7609:7612   */\n      dup6\n        /* \"#utility.yul\":7523:7621   */\n      tag_145\n      jump\t// in\n    tag_256:\n        /* \"#utility.yul\":7516:7621   */\n      swap4\n      pop\n        /* \"#utility.yul\":7645:7723   */\n      tag_257\n        /* \"#utility.yul\":7717:7722   */\n      dup4\n        /* \"#utility.yul\":7645:7723   */\n      tag_146\n      jump\t// in\n    tag_257:\n        /* \"#utility.yul\":7746:7753   */\n      dup1\n        /* \"#utility.yul\":7777:7778   */\n      0x00\n        /* \"#utility.yul\":7762:8112   */\n    tag_258:\n        /* \"#utility.yul\":7787:7793   */\n      dup4\n        /* \"#utility.yul\":7784:7785   */\n      dup2\n        /* \"#utility.yul\":7781:7794   */\n      lt\n        /* \"#utility.yul\":7762:8112   */\n      iszero\n      tag_260\n      jumpi\n        /* \"#utility.yul\":7863:7869   */\n      dup2\n        /* \"#utility.yul\":7857:7870   */\n      mload\n        /* \"#utility.yul\":7890:7997   */\n      tag_261\n        /* \"#utility.yul\":7993:7996   */\n      dup9\n        /* \"#utility.yul\":7978:7991   */\n      dup3\n        /* \"#utility.yul\":7890:7997   */\n      tag_151\n      jump\t// in\n    tag_261:\n        /* \"#utility.yul\":7883:7997   */\n      swap8\n      pop\n        /* \"#utility.yul\":8020:8102   */\n      tag_262\n        /* \"#utility.yul\":8095:8101   */\n      dup4\n        /* \"#utility.yul\":8020:8102   */\n      tag_152\n      jump\t// in\n    tag_262:\n        /* \"#utility.yul\":8010:8102   */\n      swap3\n      pop\n        /* \"#utility.yul\":7822:8112   */\n      pop\n        /* \"#utility.yul\":7809:7810   */\n      0x01\n        /* \"#utility.yul\":7806:7807   */\n      dup2\n        /* \"#utility.yul\":7802:7811   */\n      add\n        /* \"#utility.yul\":7797:7811   */\n      swap1\n      pop\n        /* \"#utility.yul\":7762:8112   */\n      jump(tag_258)\n    tag_260:\n        /* \"#utility.yul\":7766:7780   */\n      pop\n        /* \"#utility.yul\":8128:8131   */\n      dup6\n        /* \"#utility.yul\":8121:8131   */\n      swap4\n      pop\n        /* \"#utility.yul\":7407:8137   */\n      pop\n      pop\n      pop\n        /* \"#utility.yul\":7249:8137   */\n      swap3\n      swap2\n      pop\n      pop\n      jump\t// out\n        /* \"#utility.yul\":8215:9257   */\n    tag_154:\n        /* \"#utility.yul\":8334:8337   */\n      0x00\n        /* \"#utility.yul\":8370:8374   */\n      0x80\n        /* \"#utility.yul\":8365:8368   */\n      dup4\n        /* \"#utility.yul\":8361:8375   */\n      add\n        /* \"#utility.yul\":8466:8470   */\n      0x00\n        /* \"#utility.yul\":8459:8464   */\n      dup4\n        /* \"#utility.yul\":8455:8471   */\n      add\n        /* \"#utility.yul\":8449:8472   */\n      mload\n        /* \"#utility.yul\":8485:8548   */\n      tag_264\n        /* \"#utility.yul\":8542:8546   */\n      0x00\n        /* \"#utility.yul\":8537:8540   */\n      dup7\n        /* \"#utility.yul\":8533:8547   */\n      add\n        /* \"#utility.yul\":8519:8531   */\n      dup3\n        /* \"#utility.yul\":8485:8548   */\n      tag_142\n      jump\t// in\n    tag_264:\n        /* \"#utility.yul\":8385:8558   */\n      pop\n        /* \"#utility.yul\":8644:8648   */\n      0x20\n        /* \"#utility.yul\":8637:8642   */\n      dup4\n        /* \"#utility.yul\":8633:8649   */\n      add\n        /* \"#utility.yul\":8627:8650   */\n      mload\n        /* \"#utility.yul\":8663:8726   */\n      tag_265\n        /* \"#utility.yul\":8720:8724   */\n      0x20\n        /* \"#utility.yul\":8715:8718   */\n      dup7\n        /* \"#utility.yul\":8711:8725   */\n      add\n        /* \"#utility.yul\":8697:8709   */\n      dup3\n        /* \"#utility.yul\":8663:8726   */\n      tag_142\n      jump\t// in\n    tag_265:\n        /* \"#utility.yul\":8568:8736   */\n      pop\n        /* \"#utility.yul\":8820:8824   */\n      0x40\n        /* \"#utility.yul\":8813:8818   */\n      dup4\n        /* \"#utility.yul\":8809:8825   */\n      add\n        /* \"#utility.yul\":8803:8826   */\n      mload\n        /* \"#utility.yul\":8839:8896   */\n      tag_266\n        /* \"#utility.yul\":8890:8894   */\n      0x40\n        /* \"#utility.yul\":8885:8888   */\n      dup7\n        /* \"#utility.yul\":8881:8895   */\n      add\n        /* \"#utility.yul\":8867:8879   */\n      dup3\n        /* \"#utility.yul\":8839:8896   */\n      tag_143\n      jump\t// in\n    tag_266:\n        /* \"#utility.yul\":8746:8906   */\n      pop\n        /* \"#utility.yul\":8993:8997   */\n      0x60\n        /* \"#utility.yul\":8986:8991   */\n      dup4\n        /* \"#utility.yul\":8982:8998   */\n      add\n        /* \"#utility.yul\":8976:8999   */\n      mload\n        /* \"#utility.yul\":9046:9049   */\n      dup5\n        /* \"#utility.yul\":9040:9044   */\n      dup3\n        /* \"#utility.yul\":9036:9050   */\n      sub\n        /* \"#utility.yul\":9029:9033   */\n      0x60\n        /* \"#utility.yul\":9024:9027   */\n      dup7\n        /* \"#utility.yul\":9020:9034   */\n      add\n        /* \"#utility.yul\":9013:9051   */\n      mstore\n        /* \"#utility.yul\":9072:9219   */\n      tag_267\n        /* \"#utility.yul\":9214:9218   */\n      dup3\n        /* \"#utility.yul\":9200:9212   */\n      dup3\n        /* \"#utility.yul\":9072:9219   */\n      tag_153\n      jump\t// in\n    tag_267:\n        /* \"#utility.yul\":9064:9219   */\n      swap2\n      pop\n        /* \"#utility.yul\":8916:9230   */\n      pop\n        /* \"#utility.yul\":9247:9251   */\n      dup1\n        /* \"#utility.yul\":9240:9251   */\n      swap2\n      pop\n        /* \"#utility.yul\":8339:9257   */\n      pop\n        /* \"#utility.yul\":8215:9257   */\n      swap3\n      swap2\n      pop\n      pop\n      jump\t// out\n        /* \"#utility.yul\":9263:9636   */\n    tag_37:\n        /* \"#utility.yul\":9406:9410   */\n      0x00\n        /* \"#utility.yul\":9444:9446   */\n      0x20\n        /* \"#utility.yul\":9433:9442   */\n      dup3\n        /* \"#utility.yul\":9429:9447   */\n      add\n        /* \"#utility.yul\":9421:9447   */\n      swap1\n      pop\n        /* \"#utility.yul\":9493:9502   */\n      dup2\n        /* \"#utility.yul\":9487:9491   */\n      dup2\n        /* \"#utility.yul\":9483:9503   */\n      sub\n        /* \"#utility.yul\":9479:9480   */\n      0x00\n        /* \"#utility.yul\":9468:9477   */\n      dup4\n        /* \"#utility.yul\":9464:9481   */\n      add\n        /* \"#utility.yul\":9457:9504   */\n      mstore\n        /* \"#utility.yul\":9521:9629   */\n      tag_269\n        /* \"#utility.yul\":9624:9628   */\n      dup2\n        /* \"#utility.yul\":9615:9621   */\n      dup5\n        /* \"#utility.yul\":9521:9629   */\n      tag_154\n      jump\t// in\n    tag_269:\n        /* \"#utility.yul\":9513:9629   */\n      swap1\n      pop\n        /* \"#utility.yul\":9263:9636   */\n      swap3\n      swap2\n      pop\n      pop\n      jump\t// out\n        /* \"#utility.yul\":9642:9754   */\n    tag_155:\n        /* \"#utility.yul\":9725:9747   */\n      tag_271\n        /* \"#utility.yul\":9741:9746   */\n      dup2\n        /* \"#utility.yul\":9725:9747   */\n      tag_136\n      jump\t// in\n    tag_271:\n        /* \"#utility.yul\":9720:9723   */\n      dup3\n        /* \"#utility.yul\":9713:9748   */\n      mstore\n        /* \"#utility.yul\":9642:9754   */\n      pop\n      pop\n      jump\t// out\n        /* \"#utility.yul\":9760:9878   */\n    tag_156:\n        /* \"#utility.yul\":9847:9871   */\n      tag_273\n        /* \"#utility.yul\":9865:9870   */\n      dup2\n        /* \"#utility.yul\":9847:9871   */\n      tag_133\n      jump\t// in\n    tag_273:\n        /* \"#utility.yul\":9842:9845   */\n      dup3\n        /* \"#utility.yul\":9835:9872   */\n      mstore\n        /* \"#utility.yul\":9760:9878   */\n      pop\n      pop\n      jump\t// out\n        /* \"#utility.yul\":9884:10540   */\n    tag_43:\n        /* \"#utility.yul\":10085:10089   */\n      0x00\n        /* \"#utility.yul\":10123:10126   */\n      0xa0\n        /* \"#utility.yul\":10112:10121   */\n      dup3\n        /* \"#utility.yul\":10108:10127   */\n      add\n        /* \"#utility.yul\":10100:10127   */\n      swap1\n      pop\n        /* \"#utility.yul\":10137:10208   */\n      tag_275\n        /* \"#utility.yul\":10205:10206   */\n      0x00\n        /* \"#utility.yul\":10194:10203   */\n      dup4\n        /* \"#utility.yul\":10190:10207   */\n      add\n        /* \"#utility.yul\":10181:10187   */\n      dup9\n        /* \"#utility.yul\":10137:10208   */\n      tag_141\n      jump\t// in\n    tag_275:\n        /* \"#utility.yul\":10218:10290   */\n      tag_276\n        /* \"#utility.yul\":10286:10288   */\n      0x20\n        /* \"#utility.yul\":10275:10284   */\n      dup4\n        /* \"#utility.yul\":10271:10289   */\n      add\n        /* \"#utility.yul\":10262:10268   */\n      dup8\n        /* \"#utility.yul\":10218:10290   */\n      tag_141\n      jump\t// in\n    tag_276:\n        /* \"#utility.yul\":10300:10368   */\n      tag_277\n        /* \"#utility.yul\":10364:10366   */\n      0x40\n        /* \"#utility.yul\":10353:10362   */\n      dup4\n        /* \"#utility.yul\":10349:10367   */\n      add\n        /* \"#utility.yul\":10340:10346   */\n      dup7\n        /* \"#utility.yul\":10300:10368   */\n      tag_155\n      jump\t// in\n    tag_277:\n        /* \"#utility.yul\":10378:10450   */\n      tag_278\n        /* \"#utility.yul\":10446:10448   */\n      0x60\n        /* \"#utility.yul\":10435:10444   */\n      dup4\n        /* \"#utility.yul\":10431:10449   */\n      add\n        /* \"#utility.yul\":10422:10428   */\n      dup6\n        /* \"#utility.yul\":10378:10450   */\n      tag_141\n      jump\t// in\n    tag_278:\n        /* \"#utility.yul\":10460:10533   */\n      tag_279\n        /* \"#utility.yul\":10528:10531   */\n      0x80\n        /* \"#utility.yul\":10517:10526   */\n      dup4\n        /* \"#utility.yul\":10513:10532   */\n      add\n        /* \"#utility.yul\":10504:10510   */\n      dup5\n        /* \"#utility.yul\":10460:10533   */\n      tag_156\n      jump\t// in\n    tag_279:\n        /* \"#utility.yul\":9884:10540   */\n      swap7\n      swap6\n      pop\n      pop\n      pop\n      pop\n      pop\n      pop\n      jump\t// out\n        /* \"#utility.yul\":10546:11016   */\n    tag_47:\n        /* \"#utility.yul\":10612:10618   */\n      0x00\n        /* \"#utility.yul\":10620:10626   */\n      0x00\n        /* \"#utility.yul\":10669:10671   */\n      0x40\n        /* \"#utility.yul\":10657:10666   */\n      dup4\n        /* \"#utility.yul\":10648:10655   */\n      dup6\n        /* \"#utility.yul\":10644:10667   */\n      sub\n        /* \"#utility.yul\":10640:10672   */\n      slt\n        /* \"#utility.yul\":10637:10756   */\n      iszero\n      tag_281\n      jumpi\n        /* \"#utility.yul\":10675:10754   */\n      tag_282\n      tag_128\n      jump\t// in\n    tag_282:\n        /* \"#utility.yul\":10637:10756   */\n    tag_281:\n        /* \"#utility.yul\":10795:10796   */\n      0x00\n        /* \"#utility.yul\":10820:10873   */\n      tag_283\n        /* \"#utility.yul\":10865:10872   */\n      dup6\n        /* \"#utility.yul\":10856:10862   */\n      dup3\n        /* \"#utility.yul\":10845:10854   */\n      dup7\n        /* \"#utility.yul\":10841:10863   */\n      add\n        /* \"#utility.yul\":10820:10873   */\n      tag_132\n      jump\t// in\n    tag_283:\n        /* \"#utility.yul\":10810:10873   */\n      swap3\n      pop\n        /* \"#utility.yul\":10766:10883   */\n      pop\n        /* \"#utility.yul\":10922:10924   */\n      0x20\n        /* \"#utility.yul\":10948:10999   */\n      tag_284\n        /* \"#utility.yul\":10991:10998   */\n      dup6\n        /* \"#utility.yul\":10982:10988   */\n      dup3\n        /* \"#utility.yul\":10971:10980   */\n      dup7\n        /* \"#utility.yul\":10967:10989   */\n      add\n        /* \"#utility.yul\":10948:10999   */\n      tag_138\n      jump\t// in\n    tag_284:\n        /* \"#utility.yul\":10938:10999   */\n      swap2\n      pop\n        /* \"#utility.yul\":10893:11009   */\n      pop\n        /* \"#utility.yul\":10546:11016   */\n      swap3\n      pop\n      swap3\n      swap1\n      pop\n      jump\t// out\n        /* \"#utility.yul\":11022:11191   */\n    tag_157:\n        /* \"#utility.yul\":11106:11117   */\n      0x00\n        /* \"#utility.yul\":11140:11146   */\n      dup3\n        /* \"#utility.yul\":11135:11138   */\n      dup3\n        /* \"#utility.yul\":11128:11147   */\n      mstore\n        /* \"#utility.yul\":11180:11184   */\n      0x20\n        /* \"#utility.yul\":11175:11178   */\n      dup3\n        /* \"#utility.yul\":11171:11185   */\n      add\n        /* \"#utility.yul\":11156:11185   */\n      swap1\n      pop\n        /* \"#utility.yul\":11022:11191   */\n      swap3\n      swap2\n      pop\n      pop\n      jump\t// out\n        /* \"#utility.yul\":11197:11421   */\n    tag_158:\n        /* \"#utility.yul\":11337:11371   */\n      0x4e6f2073652068612070616761646f206c612074617269666120646520726567\n        /* \"#utility.yul\":11333:11334   */\n      0x00\n        /* \"#utility.yul\":11325:11331   */\n      dup3\n        /* \"#utility.yul\":11321:11335   */\n      add\n        /* \"#utility.yul\":11314:11372   */\n      mstore\n        /* \"#utility.yul\":11406:11413   */\n      0x697374726f000000000000000000000000000000000000000000000000000000\n        /* \"#utility.yul\":11401:11403   */\n      0x20\n        /* \"#utility.yul\":11393:11399   */\n      dup3\n        /* \"#utility.yul\":11389:11404   */\n      add\n        /* \"#utility.yul\":11382:11414   */\n      mstore\n        /* \"#utility.yul\":11197:11421   */\n      pop\n      jump\t// out\n        /* \"#utility.yul\":11427:11793   */\n    tag_159:\n        /* \"#utility.yul\":11569:11572   */\n      0x00\n        /* \"#utility.yul\":11590:11657   */\n      tag_288\n        /* \"#utility.yul\":11654:11656   */\n      0x25\n        /* \"#utility.yul\":11649:11652   */\n      dup4\n        /* \"#utility.yul\":11590:11657   */\n      tag_157\n      jump\t// in\n    tag_288:\n        /* \"#utility.yul\":11583:11657   */\n      swap2\n      pop\n        /* \"#utility.yul\":11666:11759   */\n      tag_289\n        /* \"#utility.yul\":11755:11758   */\n      dup3\n        /* \"#utility.yul\":11666:11759   */\n      tag_158\n      jump\t// in\n    tag_289:\n        /* \"#utility.yul\":11784:11786   */\n      0x40\n        /* \"#utility.yul\":11779:11782   */\n      dup3\n        /* \"#utility.yul\":11775:11787   */\n      add\n        /* \"#utility.yul\":11768:11787   */\n      swap1\n      pop\n        /* \"#utility.yul\":11427:11793   */\n      swap2\n      swap1\n      pop\n      jump\t// out\n        /* \"#utility.yul\":11799:12218   */\n    tag_52:\n        /* \"#utility.yul\":11965:11969   */\n      0x00\n        /* \"#utility.yul\":12003:12005   */\n      0x20\n        /* \"#utility.yul\":11992:12001   */\n      dup3\n        /* \"#utility.yul\":11988:12006   */\n      add\n        /* \"#utility.yul\":11980:12006   */\n      swap1\n      pop\n        /* \"#utility.yul\":12052:12061   */\n      dup2\n        /* \"#utility.yul\":12046:12050   */\n      dup2\n        /* \"#utility.yul\":12042:12062   */\n      sub\n        /* \"#utility.yul\":12038:12039   */\n      0x00\n        /* \"#utility.yul\":12027:12036   */\n      dup4\n        /* \"#utility.yul\":12023:12040   */\n      add\n        /* \"#utility.yul\":12016:12063   */\n      mstore\n        /* \"#utility.yul\":12080:12211   */\n      tag_291\n        /* \"#utility.yul\":12206:12210   */\n      dup2\n        /* \"#utility.yul\":12080:12211   */\n      tag_159\n      jump\t// in\n    tag_291:\n        /* \"#utility.yul\":12072:12211   */\n      swap1\n      pop\n        /* \"#utility.yul\":11799:12218   */\n      swap2\n      swap1\n      pop\n      jump\t// out\n        /* \"#utility.yul\":12224:12320   */\n    tag_160:\n        /* \"#utility.yul\":12258:12266   */\n      0x00\n        /* \"#utility.yul\":12307:12312   */\n      dup2\n        /* \"#utility.yul\":12302:12305   */\n      0xf8\n        /* \"#utility.yul\":12298:12313   */\n      shl\n        /* \"#utility.yul\":12277:12313   */\n      swap1\n      pop\n        /* \"#utility.yul\":12224:12320   */\n      swap2\n      swap1\n      pop\n      jump\t// out\n        /* \"#utility.yul\":12326:12419   */\n    tag_161:\n        /* \"#utility.yul\":12363:12370   */\n      0x00\n        /* \"#utility.yul\":12392:12413   */\n      tag_294\n        /* \"#utility.yul\":12407:12412   */\n      dup3\n        /* \"#utility.yul\":12392:12413   */\n      tag_160\n      jump\t// in\n    tag_294:\n        /* \"#utility.yul\":12381:12413   */\n      swap1\n      pop\n        /* \"#utility.yul\":12326:12419   */\n      swap2\n      swap1\n      pop\n      jump\t// out\n        /* \"#utility.yul\":12425:12574   */\n    tag_162:\n        /* \"#utility.yul\":12526:12567   */\n      tag_296\n        /* \"#utility.yul\":12544:12566   */\n      tag_297\n        /* \"#utility.yul\":12560:12565   */\n      dup3\n        /* \"#utility.yul\":12544:12566   */\n      tag_136\n      jump\t// in\n    tag_297:\n        /* \"#utility.yul\":12526:12567   */\n      tag_161\n      jump\t// in\n    tag_296:\n        /* \"#utility.yul\":12521:12524   */\n      dup3\n        /* \"#utility.yul\":12514:12568   */\n      mstore\n        /* \"#utility.yul\":12425:12574   */\n      pop\n      pop\n      jump\t// out\n        /* \"#utility.yul\":12580:12827   */\n    tag_54:\n        /* \"#utility.yul\":12688:12691   */\n      0x00\n        /* \"#utility.yul\":12703:12774   */\n      tag_299\n        /* \"#utility.yul\":12770:12773   */\n      dup3\n        /* \"#utility.yul\":12761:12767   */\n      dup5\n        /* \"#utility.yul\":12703:12774   */\n      tag_162\n      jump\t// in\n    tag_299:\n        /* \"#utility.yul\":12799:12800   */\n      0x01\n        /* \"#utility.yul\":12794:12797   */\n      dup3\n        /* \"#utility.yul\":12790:12801   */\n      add\n        /* \"#utility.yul\":12783:12801   */\n      swap2\n      pop\n        /* \"#utility.yul\":12818:12821   */\n      dup2\n        /* \"#utility.yul\":12811:12821   */\n      swap1\n      pop\n        /* \"#utility.yul\":12580:12827   */\n      swap3\n      swap2\n      pop\n      pop\n      jump\t// out\n        /* \"#utility.yul\":12833:13059   */\n    tag_163:\n        /* \"#utility.yul\":12973:13007   */\n      0x566967656e63696120696e76616c6964613a2075736520283029207061726120\n        /* \"#utility.yul\":12969:12970   */\n      0x00\n        /* \"#utility.yul\":12961:12967   */\n      dup3\n        /* \"#utility.yul\":12957:12971   */\n      add\n        /* \"#utility.yul\":12950:13008   */\n      mstore\n        /* \"#utility.yul\":13042:13051   */\n      0x566967656e746500000000000000000000000000000000000000000000000000\n        /* \"#utility.yul\":13037:13039   */\n      0x20\n        /* \"#utility.yul\":13029:13035   */\n      dup3\n        /* \"#utility.yul\":13025:13040   */\n      add\n        /* \"#utility.yul\":13018:13052   */\n      mstore\n        /* \"#utility.yul\":12833:13059   */\n      pop\n      jump\t// out\n        /* \"#utility.yul\":13065:13431   */\n    tag_164:\n        /* \"#utility.yul\":13207:13210   */\n      0x00\n        /* \"#utility.yul\":13228:13295   */\n      tag_302\n        /* \"#utility.yul\":13292:13294   */\n      0x27\n        /* \"#utility.yul\":13287:13290   */\n      dup4\n        /* \"#utility.yul\":13228:13295   */\n      tag_157\n      jump\t// in\n    tag_302:\n        /* \"#utility.yul\":13221:13295   */\n      swap2\n      pop\n        /* \"#utility.yul\":13304:13397   */\n      tag_303\n        /* \"#utility.yul\":13393:13396   */\n      dup3\n        /* \"#utility.yul\":13304:13397   */\n      tag_163\n      jump\t// in\n    tag_303:\n        /* \"#utility.yul\":13422:13424   */\n      0x40\n        /* \"#utility.yul\":13417:13420   */\n      dup3\n        /* \"#utility.yul\":13413:13425   */\n      add\n        /* \"#utility.yul\":13406:13425   */\n      swap1\n      pop\n        /* \"#utility.yul\":13065:13431   */\n      swap2\n      swap1\n      pop\n      jump\t// out\n        /* \"#utility.yul\":13437:13856   */\n    tag_58:\n        /* \"#utility.yul\":13603:13607   */\n      0x00\n        /* \"#utility.yul\":13641:13643   */\n      0x20\n        /* \"#utility.yul\":13630:13639   */\n      dup3\n        /* \"#utility.yul\":13626:13644   */\n      add\n        /* \"#utility.yul\":13618:13644   */\n      swap1\n      pop\n        /* \"#utility.yul\":13690:13699   */\n      dup2\n        /* \"#utility.yul\":13684:13688   */\n      dup2\n        /* \"#utility.yul\":13680:13700   */\n      sub\n        /* \"#utility.yul\":13676:13677   */\n      0x00\n        /* \"#utility.yul\":13665:13674   */\n      dup4\n        /* \"#utility.yul\":13661:13678   */\n      add\n        /* \"#utility.yul\":13654:13701   */\n      mstore\n        /* \"#utility.yul\":13718:13849   */\n      tag_305\n        /* \"#utility.yul\":13844:13848   */\n      dup2\n        /* \"#utility.yul\":13718:13849   */\n      tag_164\n      jump\t// in\n    tag_305:\n        /* \"#utility.yul\":13710:13849   */\n      swap1\n      pop\n        /* \"#utility.yul\":13437:13856   */\n      swap2\n      swap1\n      pop\n      jump\t// out\n        /* \"#utility.yul\":13862:14407   */\n    tag_62:\n        /* \"#utility.yul\":14035:14039   */\n      0x00\n        /* \"#utility.yul\":14073:14076   */\n      0x80\n        /* \"#utility.yul\":14062:14071   */\n      dup3\n        /* \"#utility.yul\":14058:14077   */\n      add\n        /* \"#utility.yul\":14050:14077   */\n      swap1\n      pop\n        /* \"#utility.yul\":14087:14158   */\n      tag_307\n        /* \"#utility.yul\":14155:14156   */\n      0x00\n        /* \"#utility.yul\":14144:14153   */\n      dup4\n        /* \"#utility.yul\":14140:14157   */\n      add\n        /* \"#utility.yul\":14131:14137   */\n      dup8\n        /* \"#utility.yul\":14087:14158   */\n      tag_141\n      jump\t// in\n    tag_307:\n        /* \"#utility.yul\":14168:14240   */\n      tag_308\n        /* \"#utility.yul\":14236:14238   */\n      0x20\n        /* \"#utility.yul\":14225:14234   */\n      dup4\n        /* \"#utility.yul\":14221:14239   */\n      add\n        /* \"#utility.yul\":14212:14218   */\n      dup7\n        /* \"#utility.yul\":14168:14240   */\n      tag_141\n      jump\t// in\n    tag_308:\n        /* \"#utility.yul\":14250:14318   */\n      tag_309\n        /* \"#utility.yul\":14314:14316   */\n      0x40\n        /* \"#utility.yul\":14303:14312   */\n      dup4\n        /* \"#utility.yul\":14299:14317   */\n      add\n        /* \"#utility.yul\":14290:14296   */\n      dup6\n        /* \"#utility.yul\":14250:14318   */\n      tag_155\n      jump\t// in\n    tag_309:\n        /* \"#utility.yul\":14328:14400   */\n      tag_310\n        /* \"#utility.yul\":14396:14398   */\n      0x60\n        /* \"#utility.yul\":14385:14394   */\n      dup4\n        /* \"#utility.yul\":14381:14399   */\n      add\n        /* \"#utility.yul\":14372:14378   */\n      dup5\n        /* \"#utility.yul\":14328:14400   */\n      tag_156\n      jump\t// in\n    tag_310:\n        /* \"#utility.yul\":13862:14407   */\n      swap6\n      swap5\n      pop\n      pop\n      pop\n      pop\n      pop\n      jump\t// out\n        /* \"#utility.yul\":14413:14643   */\n    tag_165:\n        /* \"#utility.yul\":14553:14587   */\n      0x566967656e63696120696e76616c6964613a2075736520283129207061726120\n        /* \"#utility.yul\":14549:14550   */\n      0x00\n        /* \"#utility.yul\":14541:14547   */\n      dup3\n        /* \"#utility.yul\":14537:14551   */\n      add\n        /* \"#utility.yul\":14530:14588   */\n      mstore\n        /* \"#utility.yul\":14622:14635   */\n      0x4d6f646966696361646120000000000000000000000000000000000000000000\n        /* \"#utility.yul\":14617:14619   */\n      0x20\n        /* \"#utility.yul\":14609:14615   */\n      dup3\n        /* \"#utility.yul\":14605:14620   */\n      add\n        /* \"#utility.yul\":14598:14636   */\n      mstore\n        /* \"#utility.yul\":14413:14643   */\n      pop\n      jump\t// out\n        /* \"#utility.yul\":14649:15015   */\n    tag_166:\n        /* \"#utility.yul\":14791:14794   */\n      0x00\n        /* \"#utility.yul\":14812:14879   */\n      tag_313\n        /* \"#utility.yul\":14876:14878   */\n      0x2b\n        /* \"#utility.yul\":14871:14874   */\n      dup4\n        /* \"#utility.yul\":14812:14879   */\n      tag_157\n      jump\t// in\n    tag_313:\n        /* \"#utility.yul\":14805:14879   */\n      swap2\n      pop\n        /* \"#utility.yul\":14888:14981   */\n      tag_314\n        /* \"#utility.yul\":14977:14980   */\n      dup3\n        /* \"#utility.yul\":14888:14981   */\n      tag_165\n      jump\t// in\n    tag_314:\n        /* \"#utility.yul\":15006:15008   */\n      0x40\n        /* \"#utility.yul\":15001:15004   */\n      dup3\n        /* \"#utility.yul\":14997:15009   */\n      add\n        /* \"#utility.yul\":14990:15009   */\n      swap1\n      pop\n        /* \"#utility.yul\":14649:15015   */\n      swap2\n      swap1\n      pop\n      jump\t// out\n        /* \"#utility.yul\":15021:15440   */\n    tag_68:\n        /* \"#utility.yul\":15187:15191   */\n      0x00\n        /* \"#utility.yul\":15225:15227   */\n      0x20\n        /* \"#utility.yul\":15214:15223   */\n      dup3\n        /* \"#utility.yul\":15210:15228   */\n      add\n        /* \"#utility.yul\":15202:15228   */\n      swap1\n      pop\n        /* \"#utility.yul\":15274:15283   */\n      dup2\n        /* \"#utility.yul\":15268:15272   */\n      dup2\n        /* \"#utility.yul\":15264:15284   */\n      sub\n        /* \"#utility.yul\":15260:15261   */\n      0x00\n        /* \"#utility.yul\":15249:15258   */\n      dup4\n        /* \"#utility.yul\":15245:15262   */\n      add\n        /* \"#utility.yul\":15238:15285   */\n      mstore\n        /* \"#utility.yul\":15302:15433   */\n      tag_316\n        /* \"#utility.yul\":15428:15432   */\n      dup2\n        /* \"#utility.yul\":15302:15433   */\n      tag_166\n      jump\t// in\n    tag_316:\n        /* \"#utility.yul\":15294:15433   */\n      swap1\n      pop\n        /* \"#utility.yul\":15021:15440   */\n      swap2\n      swap1\n      pop\n      jump\t// out\n        /* \"#utility.yul\":15446:15880   */\n    tag_72:\n        /* \"#utility.yul\":15591:15595   */\n      0x00\n        /* \"#utility.yul\":15629:15631   */\n      0x60\n        /* \"#utility.yul\":15618:15627   */\n      dup3\n        /* \"#utility.yul\":15614:15632   */\n      add\n        /* \"#utility.yul\":15606:15632   */\n      swap1\n      pop\n        /* \"#utility.yul\":15642:15713   */\n      tag_318\n        /* \"#utility.yul\":15710:15711   */\n      0x00\n        /* \"#utility.yul\":15699:15708   */\n      dup4\n        /* \"#utility.yul\":15695:15712   */\n      add\n        /* \"#utility.yul\":15686:15692   */\n      dup7\n        /* \"#utility.yul\":15642:15713   */\n      tag_141\n      jump\t// in\n    tag_318:\n        /* \"#utility.yul\":15723:15791   */\n      tag_319\n        /* \"#utility.yul\":15787:15789   */\n      0x20\n        /* \"#utility.yul\":15776:15785   */\n      dup4\n        /* \"#utility.yul\":15772:15790   */\n      add\n        /* \"#utility.yul\":15763:15769   */\n      dup6\n        /* \"#utility.yul\":15723:15791   */\n      tag_155\n      jump\t// in\n    tag_319:\n        /* \"#utility.yul\":15801:15873   */\n      tag_320\n        /* \"#utility.yul\":15869:15871   */\n      0x40\n        /* \"#utility.yul\":15858:15867   */\n      dup4\n        /* \"#utility.yul\":15854:15872   */\n      add\n        /* \"#utility.yul\":15845:15851   */\n      dup5\n        /* \"#utility.yul\":15801:15873   */\n      tag_156\n      jump\t// in\n    tag_320:\n        /* \"#utility.yul\":15446:15880   */\n      swap5\n      swap4\n      pop\n      pop\n      pop\n      pop\n      jump\t// out\n        /* \"#utility.yul\":15886:16058   */\n    tag_167:\n        /* \"#utility.yul\":16026:16050   */\n      0x4c6120616374756163696f6e206e6f2065786973746500000000000000000000\n        /* \"#utility.yul\":16022:16023   */\n      0x00\n        /* \"#utility.yul\":16014:16020   */\n      dup3\n        /* \"#utility.yul\":16010:16024   */\n      add\n        /* \"#utility.yul\":16003:16051   */\n      mstore\n        /* \"#utility.yul\":15886:16058   */\n      pop\n      jump\t// out\n        /* \"#utility.yul\":16064:16430   */\n    tag_168:\n        /* \"#utility.yul\":16206:16209   */\n      0x00\n        /* \"#utility.yul\":16227:16294   */\n      tag_323\n        /* \"#utility.yul\":16291:16293   */\n      0x16\n        /* \"#utility.yul\":16286:16289   */\n      dup4\n        /* \"#utility.yul\":16227:16294   */\n      tag_157\n      jump\t// in\n    tag_323:\n        /* \"#utility.yul\":16220:16294   */\n      swap2\n      pop\n        /* \"#utility.yul\":16303:16396   */\n      tag_324\n        /* \"#utility.yul\":16392:16395   */\n      dup3\n        /* \"#utility.yul\":16303:16396   */\n      tag_167\n      jump\t// in\n    tag_324:\n        /* \"#utility.yul\":16421:16423   */\n      0x20\n        /* \"#utility.yul\":16416:16419   */\n      dup3\n        /* \"#utility.yul\":16412:16424   */\n      add\n        /* \"#utility.yul\":16405:16424   */\n      swap1\n      pop\n        /* \"#utility.yul\":16064:16430   */\n      swap2\n      swap1\n      pop\n      jump\t// out\n        /* \"#utility.yul\":16436:16855   */\n    tag_78:\n        /* \"#utility.yul\":16602:16606   */\n      0x00\n        /* \"#utility.yul\":16640:16642   */\n      0x20\n        /* \"#utility.yul\":16629:16638   */\n      dup3\n        /* \"#utility.yul\":16625:16643   */\n      add\n        /* \"#utility.yul\":16617:16643   */\n      swap1\n      pop\n        /* \"#utility.yul\":16689:16698   */\n      dup2\n        /* \"#utility.yul\":16683:16687   */\n      dup2\n        /* \"#utility.yul\":16679:16699   */\n      sub\n        /* \"#utility.yul\":16675:16676   */\n      0x00\n        /* \"#utility.yul\":16664:16673   */\n      dup4\n        /* \"#utility.yul\":16660:16677   */\n      add\n        /* \"#utility.yul\":16653:16700   */\n      mstore\n        /* \"#utility.yul\":16717:16848   */\n      tag_326\n        /* \"#utility.yul\":16843:16847   */\n      dup2\n        /* \"#utility.yul\":16717:16848   */\n      tag_168\n      jump\t// in\n    tag_326:\n        /* \"#utility.yul\":16709:16848   */\n      swap1\n      pop\n        /* \"#utility.yul\":16436:16855   */\n      swap2\n      swap1\n      pop\n      jump\t// out\n        /* \"#utility.yul\":16861:17041   */\n    tag_169:\n        /* \"#utility.yul\":16909:16986   */\n      0x4e487b7100000000000000000000000000000000000000000000000000000000\n        /* \"#utility.yul\":16906:16907   */\n      0x00\n        /* \"#utility.yul\":16899:16987   */\n      mstore\n        /* \"#utility.yul\":17006:17010   */\n      0x11\n        /* \"#utility.yul\":17003:17004   */\n      0x04\n        /* \"#utility.yul\":16996:17011   */\n      mstore\n        /* \"#utility.yul\":17030:17034   */\n      0x24\n        /* \"#utility.yul\":17027:17028   */\n      0x00\n        /* \"#utility.yul\":17020:17035   */\n      revert\n        /* \"#utility.yul\":17047:17241   */\n    tag_85:\n        /* \"#utility.yul\":17087:17091   */\n      0x00\n        /* \"#utility.yul\":17107:17127   */\n      tag_329\n        /* \"#utility.yul\":17125:17126   */\n      dup3\n        /* \"#utility.yul\":17107:17127   */\n      tag_130\n      jump\t// in\n    tag_329:\n        /* \"#utility.yul\":17102:17127   */\n      swap2\n      pop\n        /* \"#utility.yul\":17141:17161   */\n      tag_330\n        /* \"#utility.yul\":17159:17160   */\n      dup4\n        /* \"#utility.yul\":17141:17161   */\n      tag_130\n      jump\t// in\n    tag_330:\n        /* \"#utility.yul\":17136:17161   */\n      swap3\n      pop\n        /* \"#utility.yul\":17185:17186   */\n      dup3\n        /* \"#utility.yul\":17182:17183   */\n      dup3\n        /* \"#utility.yul\":17178:17187   */\n      sub\n        /* \"#utility.yul\":17170:17187   */\n      swap1\n      pop\n        /* \"#utility.yul\":17209:17210   */\n      dup2\n        /* \"#utility.yul\":17203:17207   */\n      dup2\n        /* \"#utility.yul\":17200:17211   */\n      gt\n        /* \"#utility.yul\":17197:17234   */\n      iszero\n      tag_331\n      jumpi\n        /* \"#utility.yul\":17214:17232   */\n      tag_332\n      tag_169\n      jump\t// in\n    tag_332:\n        /* \"#utility.yul\":17197:17234   */\n    tag_331:\n        /* \"#utility.yul\":17047:17241   */\n      swap3\n      swap2\n      pop\n      pop\n      jump\t// out\n        /* \"#utility.yul\":17247:17427   */\n    tag_88:\n        /* \"#utility.yul\":17295:17372   */\n      0x4e487b7100000000000000000000000000000000000000000000000000000000\n        /* \"#utility.yul\":17292:17293   */\n      0x00\n        /* \"#utility.yul\":17285:17373   */\n      mstore\n        /* \"#utility.yul\":17392:17396   */\n      0x32\n        /* \"#utility.yul\":17389:17390   */\n      0x04\n        /* \"#utility.yul\":17382:17397   */\n      mstore\n        /* \"#utility.yul\":17416:17420   */\n      0x24\n        /* \"#utility.yul\":17413:17414   */\n      0x00\n        /* \"#utility.yul\":17406:17421   */\n      revert\n        /* \"#utility.yul\":17433:17660   */\n    tag_170:\n        /* \"#utility.yul\":17573:17607   */\n      0x566967656e63696120696e76616c6964613a2075736520283229207061726120\n        /* \"#utility.yul\":17569:17570   */\n      0x00\n        /* \"#utility.yul\":17561:17567   */\n      dup3\n        /* \"#utility.yul\":17557:17571   */\n      add\n        /* \"#utility.yul\":17550:17608   */\n      mstore\n        /* \"#utility.yul\":17642:17652   */\n      0x4465726f67616461000000000000000000000000000000000000000000000000\n        /* \"#utility.yul\":17637:17639   */\n      0x20\n        /* \"#utility.yul\":17629:17635   */\n      dup3\n        /* \"#utility.yul\":17625:17640   */\n      add\n        /* \"#utility.yul\":17618:17653   */\n      mstore\n        /* \"#utility.yul\":17433:17660   */\n      pop\n      jump\t// out\n        /* \"#utility.yul\":17666:18032   */\n    tag_171:\n        /* \"#utility.yul\":17808:17811   */\n      0x00\n        /* \"#utility.yul\":17829:17896   */\n      tag_336\n        /* \"#utility.yul\":17893:17895   */\n      0x28\n        /* \"#utility.yul\":17888:17891   */\n      dup4\n        /* \"#utility.yul\":17829:17896   */\n      tag_157\n      jump\t// in\n    tag_336:\n        /* \"#utility.yul\":17822:17896   */\n      swap2\n      pop\n        /* \"#utility.yul\":17905:17998   */\n      tag_337\n        /* \"#utility.yul\":17994:17997   */\n      dup3\n        /* \"#utility.yul\":17905:17998   */\n      tag_170\n      jump\t// in\n    tag_337:\n        /* \"#utility.yul\":18023:18025   */\n      0x40\n        /* \"#utility.yul\":18018:18021   */\n      dup3\n        /* \"#utility.yul\":18014:18026   */\n      add\n        /* \"#utility.yul\":18007:18026   */\n      swap1\n      pop\n        /* \"#utility.yul\":17666:18032   */\n      swap2\n      swap1\n      pop\n      jump\t// out\n        /* \"#utility.yul\":18038:18457   */\n    tag_97:\n        /* \"#utility.yul\":18204:18208   */\n      0x00\n        /* \"#utility.yul\":18242:18244   */\n      0x20\n        /* \"#utility.yul\":18231:18240   */\n      dup3\n        /* \"#utility.yul\":18227:18245   */\n      add\n        /* \"#utility.yul\":18219:18245   */\n      swap1\n      pop\n        /* \"#utility.yul\":18291:18300   */\n      dup2\n        /* \"#utility.yul\":18285:18289   */\n      dup2\n        /* \"#utility.yul\":18281:18301   */\n      sub\n        /* \"#utility.yul\":18277:18278   */\n      0x00\n        /* \"#utility.yul\":18266:18275   */\n      dup4\n        /* \"#utility.yul\":18262:18279   */\n      add\n        /* \"#utility.yul\":18255:18302   */\n      mstore\n        /* \"#utility.yul\":18319:18450   */\n      tag_339\n        /* \"#utility.yul\":18445:18449   */\n      dup2\n        /* \"#utility.yul\":18319:18450   */\n      tag_171\n      jump\t// in\n    tag_339:\n        /* \"#utility.yul\":18311:18450   */\n      swap1\n      pop\n        /* \"#utility.yul\":18038:18457   */\n      swap2\n      swap1\n      pop\n      jump\t// out\n        /* \"#utility.yul\":18463:18635   */\n    tag_172:\n        /* \"#utility.yul\":18603:18627   */\n      0x4c6120616374756163696f6e2079612065786973746500000000000000000000\n        /* \"#utility.yul\":18599:18600   */\n      0x00\n        /* \"#utility.yul\":18591:18597   */\n      dup3\n        /* \"#utility.yul\":18587:18601   */\n      add\n        /* \"#utility.yul\":18580:18628   */\n      mstore\n        /* \"#utility.yul\":18463:18635   */\n      pop\n      jump\t// out\n        /* \"#utility.yul\":18641:19007   */\n    tag_173:\n        /* \"#utility.yul\":18783:18786   */\n      0x00\n        /* \"#utility.yul\":18804:18871   */\n      tag_342\n        /* \"#utility.yul\":18868:18870   */\n      0x16\n        /* \"#utility.yul\":18863:18866   */\n      dup4\n        /* \"#utility.yul\":18804:18871   */\n      tag_157\n      jump\t// in\n    tag_342:\n        /* \"#utility.yul\":18797:18871   */\n      swap2\n      pop\n        /* \"#utility.yul\":18880:18973   */\n      tag_343\n        /* \"#utility.yul\":18969:18972   */\n      dup3\n        /* \"#utility.yul\":18880:18973   */\n      tag_172\n      jump\t// in\n    tag_343:\n        /* \"#utility.yul\":18998:19000   */\n      0x20\n        /* \"#utility.yul\":18993:18996   */\n      dup3\n        /* \"#utility.yul\":18989:19001   */\n      add\n        /* \"#utility.yul\":18982:19001   */\n      swap1\n      pop\n        /* \"#utility.yul\":18641:19007   */\n      swap2\n      swap1\n      pop\n      jump\t// out\n        /* \"#utility.yul\":19013:19432   */\n    tag_103:\n        /* \"#utility.yul\":19179:19183   */\n      0x00\n        /* \"#utility.yul\":19217:19219   */\n      0x20\n        /* \"#utility.yul\":19206:19215   */\n      dup3\n        /* \"#utility.yul\":19202:19220   */\n      add\n        /* \"#utility.yul\":19194:19220   */\n      swap1\n      pop\n        /* \"#utility.yul\":19266:19275   */\n      dup2\n        /* \"#utility.yul\":19260:19264   */\n      dup2\n        /* \"#utility.yul\":19256:19276   */\n      sub\n        /* \"#utility.yul\":19252:19253   */\n      0x00\n        /* \"#utility.yul\":19241:19250   */\n      dup4\n        /* \"#utility.yul\":19237:19254   */\n      add\n        /* \"#utility.yul\":19230:19277   */\n      mstore\n        /* \"#utility.yul\":19294:19425   */\n      tag_345\n        /* \"#utility.yul\":19420:19424   */\n      dup2\n        /* \"#utility.yul\":19294:19425   */\n      tag_173\n      jump\t// in\n    tag_345:\n        /* \"#utility.yul\":19286:19425   */\n      swap1\n      pop\n        /* \"#utility.yul\":19013:19432   */\n      swap2\n      swap1\n      pop\n      jump\t// out\n        /* \"#utility.yul\":19438:20094   */\n    tag_107:\n        /* \"#utility.yul\":19639:19643   */\n      0x00\n        /* \"#utility.yul\":19677:19680   */\n      0xa0\n        /* \"#utility.yul\":19666:19675   */\n      dup3\n        /* \"#utility.yul\":19662:19681   */\n      add\n        /* \"#utility.yul\":19654:19681   */\n      swap1\n      pop\n        /* \"#utility.yul\":19691:19762   */\n      tag_347\n        /* \"#utility.yul\":19759:19760   */\n      0x00\n        /* \"#utility.yul\":19748:19757   */\n      dup4\n        /* \"#utility.yul\":19744:19761   */\n      add\n        /* \"#utility.yul\":19735:19741   */\n      dup9\n        /* \"#utility.yul\":19691:19762   */\n      tag_141\n      jump\t// in\n    tag_347:\n        /* \"#utility.yul\":19772:19844   */\n      tag_348\n        /* \"#utility.yul\":19840:19842   */\n      0x20\n        /* \"#utility.yul\":19829:19838   */\n      dup4\n        /* \"#utility.yul\":19825:19843   */\n      add\n        /* \"#utility.yul\":19816:19822   */\n      dup8\n        /* \"#utility.yul\":19772:19844   */\n      tag_141\n      jump\t// in\n    tag_348:\n        /* \"#utility.yul\":19854:19926   */\n      tag_349\n        /* \"#utility.yul\":19922:19924   */\n      0x40\n        /* \"#utility.yul\":19911:19920   */\n      dup4\n        /* \"#utility.yul\":19907:19925   */\n      add\n        /* \"#utility.yul\":19898:19904   */\n      dup7\n        /* \"#utility.yul\":19854:19926   */\n      tag_141\n      jump\t// in\n    tag_349:\n        /* \"#utility.yul\":19936:20004   */\n      tag_350\n        /* \"#utility.yul\":20000:20002   */\n      0x60\n        /* \"#utility.yul\":19989:19998   */\n      dup4\n        /* \"#utility.yul\":19985:20003   */\n      add\n        /* \"#utility.yul\":19976:19982   */\n      dup6\n        /* \"#utility.yul\":19936:20004   */\n      tag_155\n      jump\t// in\n    tag_350:\n        /* \"#utility.yul\":20014:20087   */\n      tag_351\n        /* \"#utility.yul\":20082:20085   */\n      0x80\n        /* \"#utility.yul\":20071:20080   */\n      dup4\n        /* \"#utility.yul\":20067:20086   */\n      add\n        /* \"#utility.yul\":20058:20064   */\n      dup5\n        /* \"#utility.yul\":20014:20087   */\n      tag_156\n      jump\t// in\n    tag_351:\n        /* \"#utility.yul\":19438:20094   */\n      swap7\n      swap6\n      pop\n      pop\n      pop\n      pop\n      pop\n      pop\n      jump\t// out\n        /* \"#utility.yul\":20100:20270   */\n    tag_174:\n        /* \"#utility.yul\":20240:20262   */\n      0x4e6f20657320656c2070726f706965746172696f000000000000000000000000\n        /* \"#utility.yul\":20236:20237   */\n      0x00\n        /* \"#utility.yul\":20228:20234   */\n      dup3\n        /* \"#utility.yul\":20224:20238   */\n      add\n        /* \"#utility.yul\":20217:20263   */\n      mstore\n        /* \"#utility.yul\":20100:20270   */\n      pop\n      jump\t// out\n        /* \"#utility.yul\":20276:20642   */\n    tag_175:\n        /* \"#utility.yul\":20418:20421   */\n      0x00\n        /* \"#utility.yul\":20439:20506   */\n      tag_354\n        /* \"#utility.yul\":20503:20505   */\n      0x14\n        /* \"#utility.yul\":20498:20501   */\n      dup4\n        /* \"#utility.yul\":20439:20506   */\n      tag_157\n      jump\t// in\n    tag_354:\n        /* \"#utility.yul\":20432:20506   */\n      swap2\n      pop\n        /* \"#utility.yul\":20515:20608   */\n      tag_355\n        /* \"#utility.yul\":20604:20607   */\n      dup3\n        /* \"#utility.yul\":20515:20608   */\n      tag_174\n      jump\t// in\n    tag_355:\n        /* \"#utility.yul\":20633:20635   */\n      0x20\n        /* \"#utility.yul\":20628:20631   */\n      dup3\n        /* \"#utility.yul\":20624:20636   */\n      add\n        /* \"#utility.yul\":20617:20636   */\n      swap1\n      pop\n        /* \"#utility.yul\":20276:20642   */\n      swap2\n      swap1\n      pop\n      jump\t// out\n        /* \"#utility.yul\":20648:21067   */\n    tag_113:\n        /* \"#utility.yul\":20814:20818   */\n      0x00\n        /* \"#utility.yul\":20852:20854   */\n      0x20\n        /* \"#utility.yul\":20841:20850   */\n      dup3\n        /* \"#utility.yul\":20837:20855   */\n      add\n        /* \"#utility.yul\":20829:20855   */\n      swap1\n      pop\n        /* \"#utility.yul\":20901:20910   */\n      dup2\n        /* \"#utility.yul\":20895:20899   */\n      dup2\n        /* \"#utility.yul\":20891:20911   */\n      sub\n        /* \"#utility.yul\":20887:20888   */\n      0x00\n        /* \"#utility.yul\":20876:20885   */\n      dup4\n        /* \"#utility.yul\":20872:20889   */\n      add\n        /* \"#utility.yul\":20865:20912   */\n      mstore\n        /* \"#utility.yul\":20929:21060   */\n      tag_357\n        /* \"#utility.yul\":21055:21059   */\n      dup2\n        /* \"#utility.yul\":20929:21060   */\n      tag_175\n      jump\t// in\n    tag_357:\n        /* \"#utility.yul\":20921:21060   */\n      swap1\n      pop\n        /* \"#utility.yul\":20648:21067   */\n      swap2\n      swap1\n      pop\n      jump\t// out\n        /* \"#utility.yul\":21073:21397   */\n    tag_123:\n        /* \"#utility.yul\":21190:21194   */\n      0x00\n        /* \"#utility.yul\":21228:21230   */\n      0x40\n        /* \"#utility.yul\":21217:21226   */\n      dup3\n        /* \"#utility.yul\":21213:21231   */\n      add\n        /* \"#utility.yul\":21205:21231   */\n      swap1\n      pop\n        /* \"#utility.yul\":21241:21312   */\n      tag_359\n        /* \"#utility.yul\":21309:21310   */\n      0x00\n        /* \"#utility.yul\":21298:21307   */\n      dup4\n        /* \"#utility.yul\":21294:21311   */\n      add\n        /* \"#utility.yul\":21285:21291   */\n      dup6\n        /* \"#utility.yul\":21241:21312   */\n      tag_141\n      jump\t// in\n    tag_359:\n        /* \"#utility.yul\":21322:21390   */\n      tag_360\n        /* \"#utility.yul\":21386:21388   */\n      0x20\n        /* \"#utility.yul\":21375:21384   */\n      dup4\n        /* \"#utility.yul\":21371:21389   */\n      add\n        /* \"#utility.yul\":21362:21368   */\n      dup5\n        /* \"#utility.yul\":21322:21390   */\n      tag_155\n      jump\t// in\n    tag_360:\n        /* \"#utility.yul\":21073:21397   */\n      swap4\n      swap3\n      pop\n      pop\n      pop\n      jump\t// out\n\n    auxdata: 0xa264697066735822122002a9eed2368e22be25bde3cffbb0d9770da4a590d2aec1a03000e9fd852a152164736f6c63430008220033\n}\n",
				"bytecode": {
					"linkReferences": {},
					"object": "6080604052348015600e575f5ffd5b50335f5f6101000a81548173ffffffffffffffffffffffffffffffffffffffff021916908373ffffffffffffffffffffffffffffffffffffffff16021790555061178d8061005b5f395ff3fe60806040526004361061006f575f3560e01c806352b5241e1161004d57806352b5241e146100f55780638e8a58761461011f578063ad3b15ef1461015b578063c83e9d6d1461019b5761006f565b80633c4f81cd1461007357806347525ed61461009d5780634eba0ca0146100b9575b5f5ffd5b34801561007e575f5ffd5b506100876101c3565b6040516100949190610d81565b60405180910390f35b6100b760048036038101906100b29190610e3a565b6101e7565b005b3480156100c4575f5ffd5b506100df60048036038101906100da9190610ec3565b610324565b6040516100ec9190610f2d565b60405180910390f35b348015610100575f5ffd5b50610109610406565b6040516101169190610f55565b60405180910390f35b34801561012a575f5ffd5b5061014560048036038101906101409190610f6e565b61040c565b604051610152919061113f565b60405180910390f35b348015610166575f5ffd5b50610181600480360381019061017c9190610f6e565b6105a4565b60405161019295949392919061117d565b60405180910390f35b3480156101a6575f5ffd5b506101c160048036038101906101bc91906111ce565b610653565b005b5f5f9054906101000a900473ffffffffffffffffffffffffffffffffffffffff1681565b6101f434101561022c576040517f08c379a00000000000000000000000000000000000000000000000000000000081526004016102239061128c565b60405180910390fd5b5f60405160200161023d91906112de565b604051602081830303815290604052805190602001208160405160200161026491906112de565b60405160208183030381529060405280519060200120146102ba576040517f08c379a00000000000000000000000000000000000000000000000000000000081526004016102b190611368565b60405180910390fd5b6102c786868387876106f0565b8160035f8881526020019081526020015f205f01819055507f5694b19b2cfcf39a4309e7d5015b841327b2020ff7dfbe0c17328b4c90aed71e868383876040516103149493929190611386565b60405180910390a1505050505050565b5f600160405160200161033791906112de565b604051602081830303815290604052805190602001208360405160200161035e91906112de565b60405160208183030381529060405280519060200120146103b4576040517f08c379a00000000000000000000000000000000000000000000000000000000081526004016103ab90611439565b60405180910390fd5b6103bf8484846108dd565b507f6b61900003115b8294d08086dd6dcc4c444a62a018562b71ed4bc4a47be18fbe8484846040516103f393929190611457565b60405180910390a1600190509392505050565b6101f481565b610414610d1b565b60015f8381526020019081526020015f206002015f9054906101000a900460ff16610474576040517f08c379a000000000000000000000000000000000000000000000000000000000815260040161046b906114d6565b60405180910390fd5b60015f8381526020019081526020015f206040518060800160405290815f820154815260200160018201548152602001600282015f9054906101000a900460ff1615151515815260200160038201805480602002602001604051908101604052809291908181526020015f905b82821015610595578382905f5260205f2090600402016040518060800160405290815f8201548152602001600182015f9054906101000a900460ff1660ff1660ff16815260200160028201548152602001600382015f9054906101000a900473ffffffffffffffffffffffffffffffffffffffff1673ffffffffffffffffffffffffffffffffffffffff1673ffffffffffffffffffffffffffffffffffffffff1681525050815260200190600101906104e1565b50505050815250509050919050565b5f5f5f5f5f5f6105b38761040c565b90505f60035f8981526020019081526020015f209050815f01518260200151836060015160018560600151516105e99190611521565b815181106105fa576105f9611554565b5b602002602001015160200151835f0154856060015160018760600151516106219190611521565b8151811061063257610631611554565b5b60200260200101516040015196509650965096509650505091939590929450565b600260405160200161066591906112de565b604051602081830303815290604052805190602001208160405160200161068c91906112de565b60405160208183030381529060405280519060200120146106e2576040517f08c379a00000000000000000000000000000000000000000000000000000000081526004016106d9906115f1565b60405180910390fd5b6106ec8282610b00565b5050565b60015f8681526020019081526020015f206002015f9054906101000a900460ff1615610751576040517f08c379a000000000000000000000000000000000000000000000000000000000815260040161074890611659565b60405180910390fd5b5f60015f8781526020019081526020015f2090506001816002015f6101000a81548160ff02191690831515021790555084816001018190555081815f01819055508060030160405180608001604052804281526020018660ff1681526020018581526020013373ffffffffffffffffffffffffffffffffffffffff16815250908060018154018082558091505060019003905f5260205f2090600402015f909190919091505f820151815f01556020820151816001015f6101000a81548160ff021916908360ff160217905550604082015181600201556060820151816003015f6101000a81548173ffffffffffffffffffffffffffffffffffffffff021916908373ffffffffffffffffffffffffffffffffffffffff1602179055505050600286908060018154018082558091505060019003905f5260205f20015f90919091909150557f164383a2b97191661e35fd7054520c2abdf173025e32983b038ecb35a796cda786838787876040516108cd959493929190611677565b60405180910390a1505050505050565b5f60015f8581526020019081526020015f206002015f9054906101000a900460ff1661093e576040517f08c379a0000000000000000000000000000000000000000000000000000000008152600401610935906114d6565b60405180910390fd5b5f5f9054906101000a900473ffffffffffffffffffffffffffffffffffffffff1673ffffffffffffffffffffffffffffffffffffffff163373ffffffffffffffffffffffffffffffffffffffff16146109cc576040517f08c379a00000000000000000000000000000000000000000000000000000000081526004016109c390611712565b60405180910390fd5b60015f8581526020019081526020015f2060030160405180608001604052804281526020018560ff1681526020018481526020013373ffffffffffffffffffffffffffffffffffffffff16815250908060018154018082558091505060019003905f5260205f2090600402015f909190919091505f820151815f01556020820151816001015f6101000a81548160ff021916908360ff160217905550604082015181600201556060820151816003015f6101000a81548173ffffffffffffffffffffffffffffffffffffffff021916908373ffffffffffffffffffffffffffffffffffffffff16021790555050507f02fd7cca134bdc372692f9e8679a7046060ca6da0c386e7494b18b9c21b10652848484604051610aed93929190611457565b60405180910390a1600190509392505050565b60015f8381526020019081526020015f206002015f9054906101000a900460ff16610b60576040517f08c379a0000000000000000000000000000000000000000000000000000000008152600401610b57906114d6565b60405180910390fd5b5f5f9054906101000a900473ffffffffffffffffffffffffffffffffffffffff1673ffffffffffffffffffffffffffffffffffffffff163373ffffffffffffffffffffffffffffffffffffffff1614610bee576040517f08c379a0000000000000000000000000000000000000000000000000000000008152600401610be590611712565b60405180910390fd5b60015f8381526020019081526020015f2060030160405180608001604052804281526020018360ff1681526020015f5f1b81526020013373ffffffffffffffffffffffffffffffffffffffff16815250908060018154018082558091505060019003905f5260205f2090600402015f909190919091505f820151815f01556020820151816001015f6101000a81548160ff021916908360ff160217905550604082015181600201556060820151816003015f6101000a81548173ffffffffffffffffffffffffffffffffffffffff021916908373ffffffffffffffffffffffffffffffffffffffff16021790555050507f55f3b2b2bc9c07499976075b3a9a78344b888c51b194889c9214c6eba4bf01138282604051610d0f929190611730565b60405180910390a15050565b60405180608001604052805f81526020015f81526020015f15158152602001606081525090565b5f73ffffffffffffffffffffffffffffffffffffffff82169050919050565b5f610d6b82610d42565b9050919050565b610d7b81610d61565b82525050565b5f602082019050610d945f830184610d72565b92915050565b5f5ffd5b5f819050919050565b610db081610d9e565b8114610dba575f5ffd5b50565b5f81359050610dcb81610da7565b92915050565b5f819050919050565b610de381610dd1565b8114610ded575f5ffd5b50565b5f81359050610dfe81610dda565b92915050565b5f60ff82169050919050565b610e1981610e04565b8114610e23575f5ffd5b50565b5f81359050610e3481610e10565b92915050565b5f5f5f5f5f5f60c08789031215610e5457610e53610d9a565b5b5f610e6189828a01610dbd565b9650506020610e7289828a01610dbd565b9550506040610e8389828a01610df0565b9450506060610e9489828a01610dbd565b9350506080610ea589828a01610dbd565b92505060a0610eb689828a01610e26565b9150509295509295509295565b5f5f5f60608486031215610eda57610ed9610d9a565b5b5f610ee786828701610dbd565b9350506020610ef886828701610e26565b9250506040610f0986828701610df0565b9150509250925092565b5f8115159050919050565b610f2781610f13565b82525050565b5f602082019050610f405f830184610f1e565b92915050565b610f4f81610d9e565b82525050565b5f602082019050610f685f830184610f46565b92915050565b5f60208284031215610f8357610f82610d9a565b5b5f610f9084828501610dbd565b91505092915050565b610fa281610d9e565b82525050565b610fb181610f13565b82525050565b5f81519050919050565b5f82825260208201905092915050565b5f819050602082019050919050565b610fe981610e04565b82525050565b610ff881610dd1565b82525050565b61100781610d61565b82525050565b608082015f8201516110215f850182610f99565b5060208201516110346020850182610fe0565b5060408201516110476040850182610fef565b50606082015161105a6060850182610ffe565b50505050565b5f61106b838361100d565b60808301905092915050565b5f602082019050919050565b5f61108d82610fb7565b6110978185610fc1565b93506110a283610fd1565b805f5b838110156110d25781516110b98882611060565b97506110c483611077565b9250506001810190506110a5565b5085935050505092915050565b5f608083015f8301516110f45f860182610f99565b5060208301516111076020860182610f99565b50604083015161111a6040860182610fa8565b50606083015184820360608601526111328282611083565b9150508091505092915050565b5f6020820190508181035f83015261115781846110df565b905092915050565b61116881610e04565b82525050565b61117781610dd1565b82525050565b5f60a0820190506111905f830188610f46565b61119d6020830187610f46565b6111aa604083018661115f565b6111b76060830185610f46565b6111c4608083018461116e565b9695505050505050565b5f5f604083850312156111e4576111e3610d9a565b5b5f6111f185828601610dbd565b925050602061120285828601610e26565b9150509250929050565b5f82825260208201905092915050565b7f4e6f2073652068612070616761646f206c6120746172696661206465207265675f8201527f697374726f000000000000000000000000000000000000000000000000000000602082015250565b5f61127660258361120c565b91506112818261121c565b604082019050919050565b5f6020820190508181035f8301526112a38161126a565b9050919050565b5f8160f81b9050919050565b5f6112c0826112aa565b9050919050565b6112d86112d382610e04565b6112b6565b82525050565b5f6112e982846112c7565b60018201915081905092915050565b7f566967656e63696120696e76616c6964613a20757365202830292070617261205f8201527f566967656e746500000000000000000000000000000000000000000000000000602082015250565b5f61135260278361120c565b915061135d826112f8565b604082019050919050565b5f6020820190508181035f83015261137f81611346565b9050919050565b5f6080820190506113995f830187610f46565b6113a66020830186610f46565b6113b3604083018561115f565b6113c0606083018461116e565b95945050505050565b7f566967656e63696120696e76616c6964613a20757365202831292070617261205f8201527f4d6f646966696361646120000000000000000000000000000000000000000000602082015250565b5f611423602b8361120c565b915061142e826113c9565b604082019050919050565b5f6020820190508181035f83015261145081611417565b9050919050565b5f60608201905061146a5f830186610f46565b611477602083018561115f565b611484604083018461116e565b949350505050565b7f4c6120616374756163696f6e206e6f20657869737465000000000000000000005f82015250565b5f6114c060168361120c565b91506114cb8261148c565b602082019050919050565b5f6020820190508181035f8301526114ed816114b4565b9050919050565b7f4e487b71000000000000000000000000000000000000000000000000000000005f52601160045260245ffd5b5f61152b82610d9e565b915061153683610d9e565b925082820390508181111561154e5761154d6114f4565b5b92915050565b7f4e487b71000000000000000000000000000000000000000000000000000000005f52603260045260245ffd5b7f566967656e63696120696e76616c6964613a20757365202832292070617261205f8201527f4465726f67616461000000000000000000000000000000000000000000000000602082015250565b5f6115db60288361120c565b91506115e682611581565b604082019050919050565b5f6020820190508181035f830152611608816115cf565b9050919050565b7f4c6120616374756163696f6e20796120657869737465000000000000000000005f82015250565b5f61164360168361120c565b915061164e8261160f565b602082019050919050565b5f6020820190508181035f83015261167081611637565b9050919050565b5f60a08201905061168a5f830188610f46565b6116976020830187610f46565b6116a46040830186610f46565b6116b1606083018561115f565b6116be608083018461116e565b9695505050505050565b7f4e6f20657320656c2070726f706965746172696f0000000000000000000000005f82015250565b5f6116fc60148361120c565b9150611707826116c8565b602082019050919050565b5f6020820190508181035f830152611729816116f0565b9050919050565b5f6040820190506117435f830185610f46565b611750602083018461115f565b939250505056fea264697066735822122002a9eed2368e22be25bde3cffbb0d9770da4a590d2aec1a03000e9fd852a152164736f6c63430008220033",
					"opcodes": "PUSH1 0x80 PUSH1 0x40 MSTORE CALLVALUE DUP1 ISZERO PUSH1 0xE JUMPI PUSH0 PUSH0 REVERT JUMPDEST POP CALLER PUSH0 PUSH0 PUSH2 0x100 EXP DUP2 SLOAD DUP2 PUSH20 0xFFFFFFFFFFFFFFFFFFFFFFFFFFFFFFFFFFFFFFFF MUL NOT AND SWAP1 DUP4 PUSH20 0xFFFFFFFFFFFFFFFFFFFFFFFFFFFFFFFFFFFFFFFF AND MUL OR SWAP1 SSTORE POP PUSH2 0x178D DUP1 PUSH2 0x5B PUSH0 CODECOPY PUSH0 RETURN INVALID PUSH1 0x80 PUSH1 0x40 MSTORE PUSH1 0x4 CALLDATASIZE LT PUSH2 0x6F JUMPI PUSH0 CALLDATALOAD PUSH1 0xE0 SHR DUP1 PUSH4 0x52B5241E GT PUSH2 0x4D JUMPI DUP1 PUSH4 0x52B5241E EQ PUSH2 0xF5 JUMPI DUP1 PUSH4 0x8E8A5876 EQ PUSH2 0x11F JUMPI DUP1 PUSH4 0xAD3B15EF EQ PUSH2 0x15B JUMPI DUP1 PUSH4 0xC83E9D6D EQ PUSH2 0x19B JUMPI PUSH2 0x6F JUMP JUMPDEST DUP1 PUSH4 0x3C4F81CD EQ PUSH2 0x73 JUMPI DUP1 PUSH4 0x47525ED6 EQ PUSH2 0x9D JUMPI DUP1 PUSH4 0x4EBA0CA0 EQ PUSH2 0xB9 JUMPI JUMPDEST PUSH0 PUSH0 REVERT JUMPDEST CALLVALUE DUP1 ISZERO PUSH2 0x7E JUMPI PUSH0 PUSH0 REVERT JUMPDEST POP PUSH2 0x87 PUSH2 0x1C3 JUMP JUMPDEST PUSH1 0x40 MLOAD PUSH2 0x94 SWAP2 SWAP1 PUSH2 0xD81 JUMP JUMPDEST PUSH1 0x40 MLOAD DUP1 SWAP2 SUB SWAP1 RETURN JUMPDEST PUSH2 0xB7 PUSH1 0x4 DUP1 CALLDATASIZE SUB DUP2 ADD SWAP1 PUSH2 0xB2 SWAP2 SWAP1 PUSH2 0xE3A JUMP JUMPDEST PUSH2 0x1E7 JUMP JUMPDEST STOP JUMPDEST CALLVALUE DUP1 ISZERO PUSH2 0xC4 JUMPI PUSH0 PUSH0 REVERT JUMPDEST POP PUSH2 0xDF PUSH1 0x4 DUP1 CALLDATASIZE SUB DUP2 ADD SWAP1 PUSH2 0xDA SWAP2 SWAP1 PUSH2 0xEC3 JUMP JUMPDEST PUSH2 0x324 JUMP JUMPDEST PUSH1 0x40 MLOAD PUSH2 0xEC SWAP2 SWAP1 PUSH2 0xF2D JUMP JUMPDEST PUSH1 0x40 MLOAD DUP1 SWAP2 SUB SWAP1 RETURN JUMPDEST CALLVALUE DUP1 ISZERO PUSH2 0x100 JUMPI PUSH0 PUSH0 REVERT JUMPDEST POP PUSH2 0x109 PUSH2 0x406 JUMP JUMPDEST PUSH1 0x40 MLOAD PUSH2 0x116 SWAP2 SWAP1 PUSH2 0xF55 JUMP JUMPDEST PUSH1 0x40 MLOAD DUP1 SWAP2 SUB SWAP1 RETURN JUMPDEST CALLVALUE DUP1 ISZERO PUSH2 0x12A JUMPI PUSH0 PUSH0 REVERT JUMPDEST POP PUSH2 0x145 PUSH1 0x4 DUP1 CALLDATASIZE SUB DUP2 ADD SWAP1 PUSH2 0x140 SWAP2 SWAP1 PUSH2 0xF6E JUMP JUMPDEST PUSH2 0x40C JUMP JUMPDEST PUSH1 0x40 MLOAD PUSH2 0x152 SWAP2 SWAP1 PUSH2 0x113F JUMP JUMPDEST PUSH1 0x40 MLOAD DUP1 SWAP2 SUB SWAP1 RETURN JUMPDEST CALLVALUE DUP1 ISZERO PUSH2 0x166 JUMPI PUSH0 PUSH0 REVERT JUMPDEST POP PUSH2 0x181 PUSH1 0x4 DUP1 CALLDATASIZE SUB DUP2 ADD SWAP1 PUSH2 0x17C SWAP2 SWAP1 PUSH2 0xF6E JUMP JUMPDEST PUSH2 0x5A4 JUMP JUMPDEST PUSH1 0x40 MLOAD PUSH2 0x192 SWAP6 SWAP5 SWAP4 SWAP3 SWAP2 SWAP1 PUSH2 0x117D JUMP JUMPDEST PUSH1 0x40 MLOAD DUP1 SWAP2 SUB SWAP1 RETURN JUMPDEST CALLVALUE DUP1 ISZERO PUSH2 0x1A6 JUMPI PUSH0 PUSH0 REVERT JUMPDEST POP PUSH2 0x1C1 PUSH1 0x4 DUP1 CALLDATASIZE SUB DUP2 ADD SWAP1 PUSH2 0x1BC SWAP2 SWAP1 PUSH2 0x11CE JUMP JUMPDEST PUSH2 0x653 JUMP JUMPDEST STOP JUMPDEST PUSH0 PUSH0 SWAP1 SLOAD SWAP1 PUSH2 0x100 EXP SWAP1 DIV PUSH20 0xFFFFFFFFFFFFFFFFFFFFFFFFFFFFFFFFFFFFFFFF AND DUP2 JUMP JUMPDEST PUSH2 0x1F4 CALLVALUE LT ISZERO PUSH2 0x22C JUMPI PUSH1 0x40 MLOAD PUSH32 0x8C379A000000000000000000000000000000000000000000000000000000000 DUP2 MSTORE PUSH1 0x4 ADD PUSH2 0x223 SWAP1 PUSH2 0x128C JUMP JUMPDEST PUSH1 0x40 MLOAD DUP1 SWAP2 SUB SWAP1 REVERT JUMPDEST PUSH0 PUSH1 0x40 MLOAD PUSH1 0x20 ADD PUSH2 0x23D SWAP2 SWAP1 PUSH2 0x12DE JUMP JUMPDEST PUSH1 0x40 MLOAD PUSH1 0x20 DUP2 DUP4 SUB SUB DUP2 MSTORE SWAP1 PUSH1 0x40 MSTORE DUP1 MLOAD SWAP1 PUSH1 0x20 ADD KECCAK256 DUP2 PUSH1 0x40 MLOAD PUSH1 0x20 ADD PUSH2 0x264 SWAP2 SWAP1 PUSH2 0x12DE JUMP JUMPDEST PUSH1 0x40 MLOAD PUSH1 0x20 DUP2 DUP4 SUB SUB DUP2 MSTORE SWAP1 PUSH1 0x40 MSTORE DUP1 MLOAD SWAP1 PUSH1 0x20 ADD KECCAK256 EQ PUSH2 0x2BA JUMPI PUSH1 0x40 MLOAD PUSH32 0x8C379A000000000000000000000000000000000000000000000000000000000 DUP2 MSTORE PUSH1 0x4 ADD PUSH2 0x2B1 SWAP1 PUSH2 0x1368 JUMP JUMPDEST PUSH1 0x40 MLOAD DUP1 SWAP2 SUB SWAP1 REVERT JUMPDEST PUSH2 0x2C7 DUP7 DUP7 DUP4 DUP8 DUP8 PUSH2 0x6F0 JUMP JUMPDEST DUP2 PUSH1 0x3 PUSH0 DUP9 DUP2 MSTORE PUSH1 0x20 ADD SWAP1 DUP2 MSTORE PUSH1 0x20 ADD PUSH0 KECCAK256 PUSH0 ADD DUP2 SWAP1 SSTORE POP PUSH32 0x5694B19B2CFCF39A4309E7D5015B841327B2020FF7DFBE0C17328B4C90AED71E DUP7 DUP4 DUP4 DUP8 PUSH1 0x40 MLOAD PUSH2 0x314 SWAP5 SWAP4 SWAP3 SWAP2 SWAP1 PUSH2 0x1386 JUMP JUMPDEST PUSH1 0x40 MLOAD DUP1 SWAP2 SUB SWAP1 LOG1 POP POP POP POP POP POP JUMP JUMPDEST PUSH0 PUSH1 0x1 PUSH1 0x40 MLOAD PUSH1 0x20 ADD PUSH2 0x337 SWAP2 SWAP1 PUSH2 0x12DE JUMP JUMPDEST PUSH1 0x40 MLOAD PUSH1 0x20 DUP2 DUP4 SUB SUB DUP2 MSTORE SWAP1 PUSH1 0x40 MSTORE DUP1 MLOAD SWAP1 PUSH1 0x20 ADD KECCAK256 DUP4 PUSH1 0x40 MLOAD PUSH1 0x20 ADD PUSH2 0x35E SWAP2 SWAP1 PUSH2 0x12DE JUMP JUMPDEST PUSH1 0x40 MLOAD PUSH1 0x20 DUP2 DUP4 SUB SUB DUP2 MSTORE SWAP1 PUSH1 0x40 MSTORE DUP1 MLOAD SWAP1 PUSH1 0x20 ADD KECCAK256 EQ PUSH2 0x3B4 JUMPI PUSH1 0x40 MLOAD PUSH32 0x8C379A000000000000000000000000000000000000000000000000000000000 DUP2 MSTORE PUSH1 0x4 ADD PUSH2 0x3AB SWAP1 PUSH2 0x1439 JUMP JUMPDEST PUSH1 0x40 MLOAD DUP1 SWAP2 SUB SWAP1 REVERT JUMPDEST PUSH2 0x3BF DUP5 DUP5 DUP5 PUSH2 0x8DD JUMP JUMPDEST POP PUSH32 0x6B61900003115B8294D08086DD6DCC4C444A62A018562B71ED4BC4A47BE18FBE DUP5 DUP5 DUP5 PUSH1 0x40 MLOAD PUSH2 0x3F3 SWAP4 SWAP3 SWAP2 SWAP1 PUSH2 0x1457 JUMP JUMPDEST PUSH1 0x40 MLOAD DUP1 SWAP2 SUB SWAP1 LOG1 PUSH1 0x1 SWAP1 POP SWAP4 SWAP3 POP POP POP JUMP JUMPDEST PUSH2 0x1F4 DUP2 JUMP JUMPDEST PUSH2 0x414 PUSH2 0xD1B JUMP JUMPDEST PUSH1 0x1 PUSH0 DUP4 DUP2 MSTORE PUSH1 0x20 ADD SWAP1 DUP2 MSTORE PUSH1 0x20 ADD PUSH0 KECCAK256 PUSH1 0x2 ADD PUSH0 SWAP1 SLOAD SWAP1 PUSH2 0x100 EXP SWAP1 DIV PUSH1 0xFF AND PUSH2 0x474 JUMPI PUSH1 0x40 MLOAD PUSH32 0x8C379A000000000000000000000000000000000000000000000000000000000 DUP2 MSTORE PUSH1 0x4 ADD PUSH2 0x46B SWAP1 PUSH2 0x14D6 JUMP JUMPDEST PUSH1 0x40 MLOAD DUP1 SWAP2 SUB SWAP1 REVERT JUMPDEST PUSH1 0x1 PUSH0 DUP4 DUP2 MSTORE PUSH1 0x20 ADD SWAP1 DUP2 MSTORE PUSH1 0x20 ADD PUSH0 KECCAK256 PUSH1 0x40 MLOAD DUP1 PUSH1 0x80 ADD PUSH1 0x40 MSTORE SWAP1 DUP2 PUSH0 DUP3 ADD SLOAD DUP2 MSTORE PUSH1 0x20 ADD PUSH1 0x1 DUP3 ADD SLOAD DUP2 MSTORE PUSH1 0x20 ADD PUSH1 0x2 DUP3 ADD PUSH0 SWAP1 SLOAD SWAP1 PUSH2 0x100 EXP SWAP1 DIV PUSH1 0xFF AND ISZERO ISZERO ISZERO ISZERO DUP2 MSTORE PUSH1 0x20 ADD PUSH1 0x3 DUP3 ADD DUP1 SLOAD DUP1 PUSH1 0x20 MUL PUSH1 0x20 ADD PUSH1 0x40 MLOAD SWAP1 DUP2 ADD PUSH1 0x40 MSTORE DUP1 SWAP3 SWAP2 SWAP1 DUP2 DUP2 MSTORE PUSH1 0x20 ADD PUSH0 SWAP1 JUMPDEST DUP3 DUP3 LT ISZERO PUSH2 0x595 JUMPI DUP4 DUP3 SWAP1 PUSH0 MSTORE PUSH1 0x20 PUSH0 KECCAK256 SWAP1 PUSH1 0x4 MUL ADD PUSH1 0x40 MLOAD DUP1 PUSH1 0x80 ADD PUSH1 0x40 MSTORE SWAP1 DUP2 PUSH0 DUP3 ADD SLOAD DUP2 MSTORE PUSH1 0x20 ADD PUSH1 0x1 DUP3 ADD PUSH0 SWAP1 SLOAD SWAP1 PUSH2 0x100 EXP SWAP1 DIV PUSH1 0xFF AND PUSH1 0xFF AND PUSH1 0xFF AND DUP2 MSTORE PUSH1 0x20 ADD PUSH1 0x2 DUP3 ADD SLOAD DUP2 MSTORE PUSH1 0x20 ADD PUSH1 0x3 DUP3 ADD PUSH0 SWAP1 SLOAD SWAP1 PUSH2 0x100 EXP SWAP1 DIV PUSH20 0xFFFFFFFFFFFFFFFFFFFFFFFFFFFFFFFFFFFFFFFF AND PUSH20 0xFFFFFFFFFFFFFFFFFFFFFFFFFFFFFFFFFFFFFFFF AND PUSH20 0xFFFFFFFFFFFFFFFFFFFFFFFFFFFFFFFFFFFFFFFF AND DUP2 MSTORE POP POP DUP2 MSTORE PUSH1 0x20 ADD SWAP1 PUSH1 0x1 ADD SWAP1 PUSH2 0x4E1 JUMP JUMPDEST POP POP POP POP DUP2 MSTORE POP POP SWAP1 POP SWAP2 SWAP1 POP JUMP JUMPDEST PUSH0 PUSH0 PUSH0 PUSH0 PUSH0 PUSH0 PUSH2 0x5B3 DUP8 PUSH2 0x40C JUMP JUMPDEST SWAP1 POP PUSH0 PUSH1 0x3 PUSH0 DUP10 DUP2 MSTORE PUSH1 0x20 ADD SWAP1 DUP2 MSTORE PUSH1 0x20 ADD PUSH0 KECCAK256 SWAP1 POP DUP2 PUSH0 ADD MLOAD DUP3 PUSH1 0x20 ADD MLOAD DUP4 PUSH1 0x60 ADD MLOAD PUSH1 0x1 DUP6 PUSH1 0x60 ADD MLOAD MLOAD PUSH2 0x5E9 SWAP2 SWAP1 PUSH2 0x1521 JUMP JUMPDEST DUP2 MLOAD DUP2 LT PUSH2 0x5FA JUMPI PUSH2 0x5F9 PUSH2 0x1554 JUMP JUMPDEST JUMPDEST PUSH1 0x20 MUL PUSH1 0x20 ADD ADD MLOAD PUSH1 0x20 ADD MLOAD DUP4 PUSH0 ADD SLOAD DUP6 PUSH1 0x60 ADD MLOAD PUSH1 0x1 DUP8 PUSH1 0x60 ADD MLOAD MLOAD PUSH2 0x621 SWAP2 SWAP1 PUSH2 0x1521 JUMP JUMPDEST DUP2 MLOAD DUP2 LT PUSH2 0x632 JUMPI PUSH2 0x631 PUSH2 0x1554 JUMP JUMPDEST JUMPDEST PUSH1 0x20 MUL PUSH1 0x20 ADD ADD MLOAD PUSH1 0x40 ADD MLOAD SWAP7 POP SWAP7 POP SWAP7 POP SWAP7 POP SWAP7 POP POP POP SWAP2 SWAP4 SWAP6 SWAP1 SWAP3 SWAP5 POP JUMP JUMPDEST PUSH1 0x2 PUSH1 0x40 MLOAD PUSH1 0x20 ADD PUSH2 0x665 SWAP2 SWAP1 PUSH2 0x12DE JUMP JUMPDEST PUSH1 0x40 MLOAD PUSH1 0x20 DUP2 DUP4 SUB SUB DUP2 MSTORE SWAP1 PUSH1 0x40 MSTORE DUP1 MLOAD SWAP1 PUSH1 0x20 ADD KECCAK256 DUP2 PUSH1 0x40 MLOAD PUSH1 0x20 ADD PUSH2 0x68C SWAP2 SWAP1 PUSH2 0x12DE JUMP JUMPDEST PUSH1 0x40 MLOAD PUSH1 0x20 DUP2 DUP4 SUB SUB DUP2 MSTORE SWAP1 PUSH1 0x40 MSTORE DUP1 MLOAD SWAP1 PUSH1 0x20 ADD KECCAK256 EQ PUSH2 0x6E2 JUMPI PUSH1 0x40 MLOAD PUSH32 0x8C379A000000000000000000000000000000000000000000000000000000000 DUP2 MSTORE PUSH1 0x4 ADD PUSH2 0x6D9 SWAP1 PUSH2 0x15F1 JUMP JUMPDEST PUSH1 0x40 MLOAD DUP1 SWAP2 SUB SWAP1 REVERT JUMPDEST PUSH2 0x6EC DUP3 DUP3 PUSH2 0xB00 JUMP JUMPDEST POP POP JUMP JUMPDEST PUSH1 0x1 PUSH0 DUP7 DUP2 MSTORE PUSH1 0x20 ADD SWAP1 DUP2 MSTORE PUSH1 0x20 ADD PUSH0 KECCAK256 PUSH1 0x2 ADD PUSH0 SWAP1 SLOAD SWAP1 PUSH2 0x100 EXP SWAP1 DIV PUSH1 0xFF AND ISZERO PUSH2 0x751 JUMPI PUSH1 0x40 MLOAD PUSH32 0x8C379A000000000000000000000000000000000000000000000000000000000 DUP2 MSTORE PUSH1 0x4 ADD PUSH2 0x748 SWAP1 PUSH2 0x1659 JUMP JUMPDEST PUSH1 0x40 MLOAD DUP1 SWAP2 SUB SWAP1 REVERT JUMPDEST PUSH0 PUSH1 0x1 PUSH0 DUP8 DUP2 MSTORE PUSH1 0x20 ADD SWAP1 DUP2 MSTORE PUSH1 0x20 ADD PUSH0 KECCAK256 SWAP1 POP PUSH1 0x1 DUP2 PUSH1 0x2 ADD PUSH0 PUSH2 0x100 EXP DUP2 SLOAD DUP2 PUSH1 0xFF MUL NOT AND SWAP1 DUP4 ISZERO ISZERO MUL OR SWAP1 SSTORE POP DUP5 DUP2 PUSH1 0x1 ADD DUP2 SWAP1 SSTORE POP DUP2 DUP2 PUSH0 ADD DUP2 SWAP1 SSTORE POP DUP1 PUSH1 0x3 ADD PUSH1 0x40 MLOAD DUP1 PUSH1 0x80 ADD PUSH1 0x40 MSTORE DUP1 TIMESTAMP DUP2 MSTORE PUSH1 0x20 ADD DUP7 PUSH1 0xFF AND DUP2 MSTORE PUSH1 0x20 ADD DUP6 DUP2 MSTORE PUSH1 0x20 ADD CALLER PUSH20 0xFFFFFFFFFFFFFFFFFFFFFFFFFFFFFFFFFFFFFFFF AND DUP2 MSTORE POP SWAP1 DUP1 PUSH1 0x1 DUP2 SLOAD ADD DUP1 DUP3 SSTORE DUP1 SWAP2 POP POP PUSH1 0x1 SWAP1 SUB SWAP1 PUSH0 MSTORE PUSH1 0x20 PUSH0 KECCAK256 SWAP1 PUSH1 0x4 MUL ADD PUSH0 SWAP1 SWAP2 SWAP1 SWAP2 SWAP1 SWAP2 POP PUSH0 DUP3 ADD MLOAD DUP2 PUSH0 ADD SSTORE PUSH1 0x20 DUP3 ADD MLOAD DUP2 PUSH1 0x1 ADD PUSH0 PUSH2 0x100 EXP DUP2 SLOAD DUP2 PUSH1 0xFF MUL NOT AND SWAP1 DUP4 PUSH1 0xFF AND MUL OR SWAP1 SSTORE POP PUSH1 0x40 DUP3 ADD MLOAD DUP2 PUSH1 0x2 ADD SSTORE PUSH1 0x60 DUP3 ADD MLOAD DUP2 PUSH1 0x3 ADD PUSH0 PUSH2 0x100 EXP DUP2 SLOAD DUP2 PUSH20 0xFFFFFFFFFFFFFFFFFFFFFFFFFFFFFFFFFFFFFFFF MUL NOT AND SWAP1 DUP4 PUSH20 0xFFFFFFFFFFFFFFFFFFFFFFFFFFFFFFFFFFFFFFFF AND MUL OR SWAP1 SSTORE POP POP POP PUSH1 0x2 DUP7 SWAP1 DUP1 PUSH1 0x1 DUP2 SLOAD ADD DUP1 DUP3 SSTORE DUP1 SWAP2 POP POP PUSH1 0x1 SWAP1 SUB SWAP1 PUSH0 MSTORE PUSH1 0x20 PUSH0 KECCAK256 ADD PUSH0 SWAP1 SWAP2 SWAP1 SWAP2 SWAP1 SWAP2 POP SSTORE PUSH32 0x164383A2B97191661E35FD7054520C2ABDF173025E32983B038ECB35A796CDA7 DUP7 DUP4 DUP8 DUP8 DUP8 PUSH1 0x40 MLOAD PUSH2 0x8CD SWAP6 SWAP5 SWAP4 SWAP3 SWAP2 SWAP1 PUSH2 0x1677 JUMP JUMPDEST PUSH1 0x40 MLOAD DUP1 SWAP2 SUB SWAP1 LOG1 POP POP POP POP POP POP JUMP JUMPDEST PUSH0 PUSH1 0x1 PUSH0 DUP6 DUP2 MSTORE PUSH1 0x20 ADD SWAP1 DUP2 MSTORE PUSH1 0x20 ADD PUSH0 KECCAK256 PUSH1 0x2 ADD PUSH0 SWAP1 SLOAD SWAP1 PUSH2 0x100 EXP SWAP1 DIV PUSH1 0xFF AND PUSH2 0x93E JUMPI PUSH1 0x40 MLOAD PUSH32 0x8C379A000000000000000000000000000000000000000000000000000000000 DUP2 MSTORE PUSH1 0x4 ADD PUSH2 0x935 SWAP1 PUSH2 0x14D6 JUMP JUMPDEST PUSH1 0x40 MLOAD DUP1 SWAP2 SUB SWAP1 REVERT JUMPDEST PUSH0 PUSH0 SWAP1 SLOAD SWAP1 PUSH2 0x100 EXP SWAP1 DIV PUSH20 0xFFFFFFFFFFFFFFFFFFFFFFFFFFFFFFFFFFFFFFFF AND PUSH20 0xFFFFFFFFFFFFFFFFFFFFFFFFFFFFFFFFFFFFFFFF AND CALLER PUSH20 0xFFFFFFFFFFFFFFFFFFFFFFFFFFFFFFFFFFFFFFFF AND EQ PUSH2 0x9CC JUMPI PUSH1 0x40 MLOAD PUSH32 0x8C379A000000000000000000000000000000000000000000000000000000000 DUP2 MSTORE PUSH1 0x4 ADD PUSH2 0x9C3 SWAP1 PUSH2 0x1712 JUMP JUMPDEST PUSH1 0x40 MLOAD DUP1 SWAP2 SUB SWAP1 REVERT JUMPDEST PUSH1 0x1 PUSH0 DUP6 DUP2 MSTORE PUSH1 0x20 ADD SWAP1 DUP2 MSTORE PUSH1 0x20 ADD PUSH0 KECCAK256 PUSH1 0x3 ADD PUSH1 0x40 MLOAD DUP1 PUSH1 0x80 ADD PUSH1 0x40 MSTORE DUP1 TIMESTAMP DUP2 MSTORE PUSH1 0x20 ADD DUP6 PUSH1 0xFF AND DUP2 MSTORE PUSH1 0x20 ADD DUP5 DUP2 MSTORE PUSH1 0x20 ADD CALLER PUSH20 0xFFFFFFFFFFFFFFFFFFFFFFFFFFFFFFFFFFFFFFFF AND DUP2 MSTORE POP SWAP1 DUP1 PUSH1 0x1 DUP2 SLOAD ADD DUP1 DUP3 SSTORE DUP1 SWAP2 POP POP PUSH1 0x1 SWAP1 SUB SWAP1 PUSH0 MSTORE PUSH1 0x20 PUSH0 KECCAK256 SWAP1 PUSH1 0x4 MUL ADD PUSH0 SWAP1 SWAP2 SWAP1 SWAP2 SWAP1 SWAP2 POP PUSH0 DUP3 ADD MLOAD DUP2 PUSH0 ADD SSTORE PUSH1 0x20 DUP3 ADD MLOAD DUP2 PUSH1 0x1 ADD PUSH0 PUSH2 0x100 EXP DUP2 SLOAD DUP2 PUSH1 0xFF MUL NOT AND SWAP1 DUP4 PUSH1 0xFF AND MUL OR SWAP1 SSTORE POP PUSH1 0x40 DUP3 ADD MLOAD DUP2 PUSH1 0x2 ADD SSTORE PUSH1 0x60 DUP3 ADD MLOAD DUP2 PUSH1 0x3 ADD PUSH0 PUSH2 0x100 EXP DUP2 SLOAD DUP2 PUSH20 0xFFFFFFFFFFFFFFFFFFFFFFFFFFFFFFFFFFFFFFFF MUL NOT AND SWAP1 DUP4 PUSH20 0xFFFFFFFFFFFFFFFFFFFFFFFFFFFFFFFFFFFFFFFF AND MUL OR SWAP1 SSTORE POP POP POP PUSH32 0x2FD7CCA134BDC372692F9E8679A7046060CA6DA0C386E7494B18B9C21B10652 DUP5 DUP5 DUP5 PUSH1 0x40 MLOAD PUSH2 0xAED SWAP4 SWAP3 SWAP2 SWAP1 PUSH2 0x1457 JUMP JUMPDEST PUSH1 0x40 MLOAD DUP1 SWAP2 SUB SWAP1 LOG1 PUSH1 0x1 SWAP1 POP SWAP4 SWAP3 POP POP POP JUMP JUMPDEST PUSH1 0x1 PUSH0 DUP4 DUP2 MSTORE PUSH1 0x20 ADD SWAP1 DUP2 MSTORE PUSH1 0x20 ADD PUSH0 KECCAK256 PUSH1 0x2 ADD PUSH0 SWAP1 SLOAD SWAP1 PUSH2 0x100 EXP SWAP1 DIV PUSH1 0xFF AND PUSH2 0xB60 JUMPI PUSH1 0x40 MLOAD PUSH32 0x8C379A000000000000000000000000000000000000000000000000000000000 DUP2 MSTORE PUSH1 0x4 ADD PUSH2 0xB57 SWAP1 PUSH2 0x14D6 JUMP JUMPDEST PUSH1 0x40 MLOAD DUP1 SWAP2 SUB SWAP1 REVERT JUMPDEST PUSH0 PUSH0 SWAP1 SLOAD SWAP1 PUSH2 0x100 EXP SWAP1 DIV PUSH20 0xFFFFFFFFFFFFFFFFFFFFFFFFFFFFFFFFFFFFFFFF AND PUSH20 0xFFFFFFFFFFFFFFFFFFFFFFFFFFFFFFFFFFFFFFFF AND CALLER PUSH20 0xFFFFFFFFFFFFFFFFFFFFFFFFFFFFFFFFFFFFFFFF AND EQ PUSH2 0xBEE JUMPI PUSH1 0x40 MLOAD PUSH32 0x8C379A000000000000000000000000000000000000000000000000000000000 DUP2 MSTORE PUSH1 0x4 ADD PUSH2 0xBE5 SWAP1 PUSH2 0x1712 JUMP JUMPDEST PUSH1 0x40 MLOAD DUP1 SWAP2 SUB SWAP1 REVERT JUMPDEST PUSH1 0x1 PUSH0 DUP4 DUP2 MSTORE PUSH1 0x20 ADD SWAP1 DUP2 MSTORE PUSH1 0x20 ADD PUSH0 KECCAK256 PUSH1 0x3 ADD PUSH1 0x40 MLOAD DUP1 PUSH1 0x80 ADD PUSH1 0x40 MSTORE DUP1 TIMESTAMP DUP2 MSTORE PUSH1 0x20 ADD DUP4 PUSH1 0xFF AND DUP2 MSTORE PUSH1 0x20 ADD PUSH0 PUSH0 SHL DUP2 MSTORE PUSH1 0x20 ADD CALLER PUSH20 0xFFFFFFFFFFFFFFFFFFFFFFFFFFFFFFFFFFFFFFFF AND DUP2 MSTORE POP SWAP1 DUP1 PUSH1 0x1 DUP2 SLOAD ADD DUP1 DUP3 SSTORE DUP1 SWAP2 POP POP PUSH1 0x1 SWAP1 SUB SWAP1 PUSH0 MSTORE PUSH1 0x20 PUSH0 KECCAK256 SWAP1 PUSH1 0x4 MUL ADD PUSH0 SWAP1 SWAP2 SWAP1 SWAP2 SWAP1 SWAP2 POP PUSH0 DUP3 ADD MLOAD DUP2 PUSH0 ADD SSTORE PUSH1 0x20 DUP3 ADD MLOAD DUP2 PUSH1 0x1 ADD PUSH0 PUSH2 0x100 EXP DUP2 SLOAD DUP2 PUSH1 0xFF MUL NOT AND SWAP1 DUP4 PUSH1 0xFF AND MUL OR SWAP1 SSTORE POP PUSH1 0x40 DUP3 ADD MLOAD DUP2 PUSH1 0x2 ADD SSTORE PUSH1 0x60 DUP3 ADD MLOAD DUP2 PUSH1 0x3 ADD PUSH0 PUSH2 0x100 EXP DUP2 SLOAD DUP2 PUSH20 0xFFFFFFFFFFFFFFFFFFFFFFFFFFFFFFFFFFFFFFFF MUL NOT AND SWAP1 DUP4 PUSH20 0xFFFFFFFFFFFFFFFFFFFFFFFFFFFFFFFFFFFFFFFF AND MUL OR SWAP1 SSTORE POP POP POP PUSH32 0x55F3B2B2BC9C07499976075B3A9A78344B888C51B194889C9214C6EBA4BF0113 DUP3 DUP3 PUSH1 0x40 MLOAD PUSH2 0xD0F SWAP3 SWAP2 SWAP1 PUSH2 0x1730 JUMP JUMPDEST PUSH1 0x40 MLOAD DUP1 SWAP2 SUB SWAP1 LOG1 POP POP JUMP JUMPDEST PUSH1 0x40 MLOAD DUP1 PUSH1 0x80 ADD PUSH1 0x40 MSTORE DUP1 PUSH0 DUP2 MSTORE PUSH1 0x20 ADD PUSH0 DUP2 MSTORE PUSH1 0x20 ADD PUSH0 ISZERO ISZERO DUP2 MSTORE PUSH1 0x20 ADD PUSH1 0x60 DUP2 MSTORE POP SWAP1 JUMP JUMPDEST PUSH0 PUSH20 0xFFFFFFFFFFFFFFFFFFFFFFFFFFFFFFFFFFFFFFFF DUP3 AND SWAP1 POP SWAP2 SWAP1 POP JUMP JUMPDEST PUSH0 PUSH2 0xD6B DUP3 PUSH2 0xD42 JUMP JUMPDEST SWAP1 POP SWAP2 SWAP1 POP JUMP JUMPDEST PUSH2 0xD7B DUP2 PUSH2 0xD61 JUMP JUMPDEST DUP3 MSTORE POP POP JUMP JUMPDEST PUSH0 PUSH1 0x20 DUP3 ADD SWAP1 POP PUSH2 0xD94 PUSH0 DUP4 ADD DUP5 PUSH2 0xD72 JUMP JUMPDEST SWAP3 SWAP2 POP POP JUMP JUMPDEST PUSH0 PUSH0 REVERT JUMPDEST PUSH0 DUP2 SWAP1 POP SWAP2 SWAP1 POP JUMP JUMPDEST PUSH2 0xDB0 DUP2 PUSH2 0xD9E JUMP JUMPDEST DUP2 EQ PUSH2 0xDBA JUMPI PUSH0 PUSH0 REVERT JUMPDEST POP JUMP JUMPDEST PUSH0 DUP2 CALLDATALOAD SWAP1 POP PUSH2 0xDCB DUP2 PUSH2 0xDA7 JUMP JUMPDEST SWAP3 SWAP2 POP POP JUMP JUMPDEST PUSH0 DUP2 SWAP1 POP SWAP2 SWAP1 POP JUMP JUMPDEST PUSH2 0xDE3 DUP2 PUSH2 0xDD1 JUMP JUMPDEST DUP2 EQ PUSH2 0xDED JUMPI PUSH0 PUSH0 REVERT JUMPDEST POP JUMP JUMPDEST PUSH0 DUP2 CALLDATALOAD SWAP1 POP PUSH2 0xDFE DUP2 PUSH2 0xDDA JUMP JUMPDEST SWAP3 SWAP2 POP POP JUMP JUMPDEST PUSH0 PUSH1 0xFF DUP3 AND SWAP1 POP SWAP2 SWAP1 POP JUMP JUMPDEST PUSH2 0xE19 DUP2 PUSH2 0xE04 JUMP JUMPDEST DUP2 EQ PUSH2 0xE23 JUMPI PUSH0 PUSH0 REVERT JUMPDEST POP JUMP JUMPDEST PUSH0 DUP2 CALLDATALOAD SWAP1 POP PUSH2 0xE34 DUP2 PUSH2 0xE10 JUMP JUMPDEST SWAP3 SWAP2 POP POP JUMP JUMPDEST PUSH0 PUSH0 PUSH0 PUSH0 PUSH0 PUSH0 PUSH1 0xC0 DUP8 DUP10 SUB SLT ISZERO PUSH2 0xE54 JUMPI PUSH2 0xE53 PUSH2 0xD9A JUMP JUMPDEST JUMPDEST PUSH0 PUSH2 0xE61 DUP10 DUP3 DUP11 ADD PUSH2 0xDBD JUMP JUMPDEST SWAP7 POP POP PUSH1 0x20 PUSH2 0xE72 DUP10 DUP3 DUP11 ADD PUSH2 0xDBD JUMP JUMPDEST SWAP6 POP POP PUSH1 0x40 PUSH2 0xE83 DUP10 DUP3 DUP11 ADD PUSH2 0xDF0 JUMP JUMPDEST SWAP5 POP POP PUSH1 0x60 PUSH2 0xE94 DUP10 DUP3 DUP11 ADD PUSH2 0xDBD JUMP JUMPDEST SWAP4 POP POP PUSH1 0x80 PUSH2 0xEA5 DUP10 DUP3 DUP11 ADD PUSH2 0xDBD JUMP JUMPDEST SWAP3 POP POP PUSH1 0xA0 PUSH2 0xEB6 DUP10 DUP3 DUP11 ADD PUSH2 0xE26 JUMP JUMPDEST SWAP2 POP POP SWAP3 SWAP6 POP SWAP3 SWAP6 POP SWAP3 SWAP6 JUMP JUMPDEST PUSH0 PUSH0 PUSH0 PUSH1 0x60 DUP5 DUP7 SUB SLT ISZERO PUSH2 0xEDA JUMPI PUSH2 0xED9 PUSH2 0xD9A JUMP JUMPDEST JUMPDEST PUSH0 PUSH2 0xEE7 DUP7 DUP3 DUP8 ADD PUSH2 0xDBD JUMP JUMPDEST SWAP4 POP POP PUSH1 0x20 PUSH2 0xEF8 DUP7 DUP3 DUP8 ADD PUSH2 0xE26 JUMP JUMPDEST SWAP3 POP POP PUSH1 0x40 PUSH2 0xF09 DUP7 DUP3 DUP8 ADD PUSH2 0xDF0 JUMP JUMPDEST SWAP2 POP POP SWAP3 POP SWAP3 POP SWAP3 JUMP JUMPDEST PUSH0 DUP2 ISZERO ISZERO SWAP1 POP SWAP2 SWAP1 POP JUMP JUMPDEST PUSH2 0xF27 DUP2 PUSH2 0xF13 JUMP JUMPDEST DUP3 MSTORE POP POP JUMP JUMPDEST PUSH0 PUSH1 0x20 DUP3 ADD SWAP1 POP PUSH2 0xF40 PUSH0 DUP4 ADD DUP5 PUSH2 0xF1E JUMP JUMPDEST SWAP3 SWAP2 POP POP JUMP JUMPDEST PUSH2 0xF4F DUP2 PUSH2 0xD9E JUMP JUMPDEST DUP3 MSTORE POP POP JUMP JUMPDEST PUSH0 PUSH1 0x20 DUP3 ADD SWAP1 POP PUSH2 0xF68 PUSH0 DUP4 ADD DUP5 PUSH2 0xF46 JUMP JUMPDEST SWAP3 SWAP2 POP POP JUMP JUMPDEST PUSH0 PUSH1 0x20 DUP3 DUP5 SUB SLT ISZERO PUSH2 0xF83 JUMPI PUSH2 0xF82 PUSH2 0xD9A JUMP JUMPDEST JUMPDEST PUSH0 PUSH2 0xF90 DUP5 DUP3 DUP6 ADD PUSH2 0xDBD JUMP JUMPDEST SWAP2 POP POP SWAP3 SWAP2 POP POP JUMP JUMPDEST PUSH2 0xFA2 DUP2 PUSH2 0xD9E JUMP JUMPDEST DUP3 MSTORE POP POP JUMP JUMPDEST PUSH2 0xFB1 DUP2 PUSH2 0xF13 JUMP JUMPDEST DUP3 MSTORE POP POP JUMP JUMPDEST PUSH0 DUP2 MLOAD SWAP1 POP SWAP2 SWAP1 POP JUMP JUMPDEST PUSH0 DUP3 DUP3 MSTORE PUSH1 0x20 DUP3 ADD SWAP1 POP SWAP3 SWAP2 POP POP JUMP JUMPDEST PUSH0 DUP2 SWAP1 POP PUSH1 0x20 DUP3 ADD SWAP1 POP SWAP2 SWAP1 POP JUMP JUMPDEST PUSH2 0xFE9 DUP2 PUSH2 0xE04 JUMP JUMPDEST DUP3 MSTORE POP POP JUMP JUMPDEST PUSH2 0xFF8 DUP2 PUSH2 0xDD1 JUMP JUMPDEST DUP3 MSTORE POP POP JUMP JUMPDEST PUSH2 0x1007 DUP2 PUSH2 0xD61 JUMP JUMPDEST DUP3 MSTORE POP POP JUMP JUMPDEST PUSH1 0x80 DUP3 ADD PUSH0 DUP3 ADD MLOAD PUSH2 0x1021 PUSH0 DUP6 ADD DUP3 PUSH2 0xF99 JUMP JUMPDEST POP PUSH1 0x20 DUP3 ADD MLOAD PUSH2 0x1034 PUSH1 0x20 DUP6 ADD DUP3 PUSH2 0xFE0 JUMP JUMPDEST POP PUSH1 0x40 DUP3 ADD MLOAD PUSH2 0x1047 PUSH1 0x40 DUP6 ADD DUP3 PUSH2 0xFEF JUMP JUMPDEST POP PUSH1 0x60 DUP3 ADD MLOAD PUSH2 0x105A PUSH1 0x60 DUP6 ADD DUP3 PUSH2 0xFFE JUMP JUMPDEST POP POP POP POP JUMP JUMPDEST PUSH0 PUSH2 0x106B DUP4 DUP4 PUSH2 0x100D JUMP JUMPDEST PUSH1 0x80 DUP4 ADD SWAP1 POP SWAP3 SWAP2 POP POP JUMP JUMPDEST PUSH0 PUSH1 0x20 DUP3 ADD SWAP1 POP SWAP2 SWAP1 POP JUMP JUMPDEST PUSH0 PUSH2 0x108D DUP3 PUSH2 0xFB7 JUMP JUMPDEST PUSH2 0x1097 DUP2 DUP6 PUSH2 0xFC1 JUMP JUMPDEST SWAP4 POP PUSH2 0x10A2 DUP4 PUSH2 0xFD1 JUMP JUMPDEST DUP1 PUSH0 JUMPDEST DUP4 DUP2 LT ISZERO PUSH2 0x10D2 JUMPI DUP2 MLOAD PUSH2 0x10B9 DUP9 DUP3 PUSH2 0x1060 JUMP JUMPDEST SWAP8 POP PUSH2 0x10C4 DUP4 PUSH2 0x1077 JUMP JUMPDEST SWAP3 POP POP PUSH1 0x1 DUP2 ADD SWAP1 POP PUSH2 0x10A5 JUMP JUMPDEST POP DUP6 SWAP4 POP POP POP POP SWAP3 SWAP2 POP POP JUMP JUMPDEST PUSH0 PUSH1 0x80 DUP4 ADD PUSH0 DUP4 ADD MLOAD PUSH2 0x10F4 PUSH0 DUP7 ADD DUP3 PUSH2 0xF99 JUMP JUMPDEST POP PUSH1 0x20 DUP4 ADD MLOAD PUSH2 0x1107 PUSH1 0x20 DUP7 ADD DUP3 PUSH2 0xF99 JUMP JUMPDEST POP PUSH1 0x40 DUP4 ADD MLOAD PUSH2 0x111A PUSH1 0x40 DUP7 ADD DUP3 PUSH2 0xFA8 JUMP JUMPDEST POP PUSH1 0x60 DUP4 ADD MLOAD DUP5 DUP3 SUB PUSH1 0x60 DUP7 ADD MSTORE PUSH2 0x1132 DUP3 DUP3 PUSH2 0x1083 JUMP JUMPDEST SWAP2 POP POP DUP1 SWAP2 POP POP SWAP3 SWAP2 POP POP JUMP JUMPDEST PUSH0 PUSH1 0x20 DUP3 ADD SWAP1 POP DUP2 DUP2 SUB PUSH0 DUP4 ADD MSTORE PUSH2 0x1157 DUP2 DUP5 PUSH2 0x10DF JUMP JUMPDEST SWAP1 POP SWAP3 SWAP2 POP POP JUMP JUMPDEST PUSH2 0x1168 DUP2 PUSH2 0xE04 JUMP JUMPDEST DUP3 MSTORE POP POP JUMP JUMPDEST PUSH2 0x1177 DUP2 PUSH2 0xDD1 JUMP JUMPDEST DUP3 MSTORE POP POP JUMP JUMPDEST PUSH0 PUSH1 0xA0 DUP3 ADD SWAP1 POP PUSH2 0x1190 PUSH0 DUP4 ADD DUP9 PUSH2 0xF46 JUMP JUMPDEST PUSH2 0x119D PUSH1 0x20 DUP4 ADD DUP8 PUSH2 0xF46 JUMP JUMPDEST PUSH2 0x11AA PUSH1 0x40 DUP4 ADD DUP7 PUSH2 0x115F JUMP JUMPDEST PUSH2 0x11B7 PUSH1 0x60 DUP4 ADD DUP6 PUSH2 0xF46 JUMP JUMPDEST PUSH2 0x11C4 PUSH1 0x80 DUP4 ADD DUP5 PUSH2 0x116E JUMP JUMPDEST SWAP7 SWAP6 POP POP POP POP POP POP JUMP JUMPDEST PUSH0 PUSH0 PUSH1 0x40 DUP4 DUP6 SUB SLT ISZERO PUSH2 0x11E4 JUMPI PUSH2 0x11E3 PUSH2 0xD9A JUMP JUMPDEST JUMPDEST PUSH0 PUSH2 0x11F1 DUP6 DUP3 DUP7 ADD PUSH2 0xDBD JUMP JUMPDEST SWAP3 POP POP PUSH1 0x20 PUSH2 0x1202 DUP6 DUP3 DUP7 ADD PUSH2 0xE26 JUMP JUMPDEST SWAP2 POP POP SWAP3 POP SWAP3 SWAP1 POP JUMP JUMPDEST PUSH0 DUP3 DUP3 MSTORE PUSH1 0x20 DUP3 ADD SWAP1 POP SWAP3 SWAP2 POP POP JUMP JUMPDEST PUSH32 0x4E6F2073652068612070616761646F206C612074617269666120646520726567 PUSH0 DUP3 ADD MSTORE PUSH32 0x697374726F000000000000000000000000000000000000000000000000000000 PUSH1 0x20 DUP3 ADD MSTORE POP JUMP JUMPDEST PUSH0 PUSH2 0x1276 PUSH1 0x25 DUP4 PUSH2 0x120C JUMP JUMPDEST SWAP2 POP PUSH2 0x1281 DUP3 PUSH2 0x121C JUMP JUMPDEST PUSH1 0x40 DUP3 ADD SWAP1 POP SWAP2 SWAP1 POP JUMP JUMPDEST PUSH0 PUSH1 0x20 DUP3 ADD SWAP1 POP DUP2 DUP2 SUB PUSH0 DUP4 ADD MSTORE PUSH2 0x12A3 DUP2 PUSH2 0x126A JUMP JUMPDEST SWAP1 POP SWAP2 SWAP1 POP JUMP JUMPDEST PUSH0 DUP2 PUSH1 0xF8 SHL SWAP1 POP SWAP2 SWAP1 POP JUMP JUMPDEST PUSH0 PUSH2 0x12C0 DUP3 PUSH2 0x12AA JUMP JUMPDEST SWAP1 POP SWAP2 SWAP1 POP JUMP JUMPDEST PUSH2 0x12D8 PUSH2 0x12D3 DUP3 PUSH2 0xE04 JUMP JUMPDEST PUSH2 0x12B6 JUMP JUMPDEST DUP3 MSTORE POP POP JUMP JUMPDEST PUSH0 PUSH2 0x12E9 DUP3 DUP5 PUSH2 0x12C7 JUMP JUMPDEST PUSH1 0x1 DUP3 ADD SWAP2 POP DUP2 SWAP1 POP SWAP3 SWAP2 POP POP JUMP JUMPDEST PUSH32 0x566967656E63696120696E76616C6964613A2075736520283029207061726120 PUSH0 DUP3 ADD MSTORE PUSH32 0x566967656E746500000000000000000000000000000000000000000000000000 PUSH1 0x20 DUP3 ADD MSTORE POP JUMP JUMPDEST PUSH0 PUSH2 0x1352 PUSH1 0x27 DUP4 PUSH2 0x120C JUMP JUMPDEST SWAP2 POP PUSH2 0x135D DUP3 PUSH2 0x12F8 JUMP JUMPDEST PUSH1 0x40 DUP3 ADD SWAP1 POP SWAP2 SWAP1 POP JUMP JUMPDEST PUSH0 PUSH1 0x20 DUP3 ADD SWAP1 POP DUP2 DUP2 SUB PUSH0 DUP4 ADD MSTORE PUSH2 0x137F DUP2 PUSH2 0x1346 JUMP JUMPDEST SWAP1 POP SWAP2 SWAP1 POP JUMP JUMPDEST PUSH0 PUSH1 0x80 DUP3 ADD SWAP1 POP PUSH2 0x1399 PUSH0 DUP4 ADD DUP8 PUSH2 0xF46 JUMP JUMPDEST PUSH2 0x13A6 PUSH1 0x20 DUP4 ADD DUP7 PUSH2 0xF46 JUMP JUMPDEST PUSH2 0x13B3 PUSH1 0x40 DUP4 ADD DUP6 PUSH2 0x115F JUMP JUMPDEST PUSH2 0x13C0 PUSH1 0x60 DUP4 ADD DUP5 PUSH2 0x116E JUMP JUMPDEST SWAP6 SWAP5 POP POP POP POP POP JUMP JUMPDEST PUSH32 0x566967656E63696120696E76616C6964613A2075736520283129207061726120 PUSH0 DUP3 ADD MSTORE PUSH32 0x4D6F646966696361646120000000000000000000000000000000000000000000 PUSH1 0x20 DUP3 ADD MSTORE POP JUMP JUMPDEST PUSH0 PUSH2 0x1423 PUSH1 0x2B DUP4 PUSH2 0x120C JUMP JUMPDEST SWAP2 POP PUSH2 0x142E DUP3 PUSH2 0x13C9 JUMP JUMPDEST PUSH1 0x40 DUP3 ADD SWAP1 POP SWAP2 SWAP1 POP JUMP JUMPDEST PUSH0 PUSH1 0x20 DUP3 ADD SWAP1 POP DUP2 DUP2 SUB PUSH0 DUP4 ADD MSTORE PUSH2 0x1450 DUP2 PUSH2 0x1417 JUMP JUMPDEST SWAP1 POP SWAP2 SWAP1 POP JUMP JUMPDEST PUSH0 PUSH1 0x60 DUP3 ADD SWAP1 POP PUSH2 0x146A PUSH0 DUP4 ADD DUP7 PUSH2 0xF46 JUMP JUMPDEST PUSH2 0x1477 PUSH1 0x20 DUP4 ADD DUP6 PUSH2 0x115F JUMP JUMPDEST PUSH2 0x1484 PUSH1 0x40 DUP4 ADD DUP5 PUSH2 0x116E JUMP JUMPDEST SWAP5 SWAP4 POP POP POP POP JUMP JUMPDEST PUSH32 0x4C6120616374756163696F6E206E6F2065786973746500000000000000000000 PUSH0 DUP3 ADD MSTORE POP JUMP JUMPDEST PUSH0 PUSH2 0x14C0 PUSH1 0x16 DUP4 PUSH2 0x120C JUMP JUMPDEST SWAP2 POP PUSH2 0x14CB DUP3 PUSH2 0x148C JUMP JUMPDEST PUSH1 0x20 DUP3 ADD SWAP1 POP SWAP2 SWAP1 POP JUMP JUMPDEST PUSH0 PUSH1 0x20 DUP3 ADD SWAP1 POP DUP2 DUP2 SUB PUSH0 DUP4 ADD MSTORE PUSH2 0x14ED DUP2 PUSH2 0x14B4 JUMP JUMPDEST SWAP1 POP SWAP2 SWAP1 POP JUMP JUMPDEST PUSH32 0x4E487B7100000000000000000000000000000000000000000000000000000000 PUSH0 MSTORE PUSH1 0x11 PUSH1 0x4 MSTORE PUSH1 0x24 PUSH0 REVERT JUMPDEST PUSH0 PUSH2 0x152B DUP3 PUSH2 0xD9E JUMP JUMPDEST SWAP2 POP PUSH2 0x1536 DUP4 PUSH2 0xD9E JUMP JUMPDEST SWAP3 POP DUP3 DUP3 SUB SWAP1 POP DUP2 DUP2 GT ISZERO PUSH2 0x154E JUMPI PUSH2 0x154D PUSH2 0x14F4 JUMP JUMPDEST JUMPDEST SWAP3 SWAP2 POP POP JUMP JUMPDEST PUSH32 0x4E487B7100000000000000000000000000000000000000000000000000000000 PUSH0 MSTORE PUSH1 0x32 PUSH1 0x4 MSTORE PUSH1 0x24 PUSH0 REVERT JUMPDEST PUSH32 0x566967656E63696120696E76616C6964613A2075736520283229207061726120 PUSH0 DUP3 ADD MSTORE PUSH32 0x4465726F67616461000000000000000000000000000000000000000000000000 PUSH1 0x20 DUP3 ADD MSTORE POP JUMP JUMPDEST PUSH0 PUSH2 0x15DB PUSH1 0x28 DUP4 PUSH2 0x120C JUMP JUMPDEST SWAP2 POP PUSH2 0x15E6 DUP3 PUSH2 0x1581 JUMP JUMPDEST PUSH1 0x40 DUP3 ADD SWAP1 POP SWAP2 SWAP1 POP JUMP JUMPDEST PUSH0 PUSH1 0x20 DUP3 ADD SWAP1 POP DUP2 DUP2 SUB PUSH0 DUP4 ADD MSTORE PUSH2 0x1608 DUP2 PUSH2 0x15CF JUMP JUMPDEST SWAP1 POP SWAP2 SWAP1 POP JUMP JUMPDEST PUSH32 0x4C6120616374756163696F6E2079612065786973746500000000000000000000 PUSH0 DUP3 ADD MSTORE POP JUMP JUMPDEST PUSH0 PUSH2 0x1643 PUSH1 0x16 DUP4 PUSH2 0x120C JUMP JUMPDEST SWAP2 POP PUSH2 0x164E DUP3 PUSH2 0x160F JUMP JUMPDEST PUSH1 0x20 DUP3 ADD SWAP1 POP SWAP2 SWAP1 POP JUMP JUMPDEST PUSH0 PUSH1 0x20 DUP3 ADD SWAP1 POP DUP2 DUP2 SUB PUSH0 DUP4 ADD MSTORE PUSH2 0x1670 DUP2 PUSH2 0x1637 JUMP JUMPDEST SWAP1 POP SWAP2 SWAP1 POP JUMP JUMPDEST PUSH0 PUSH1 0xA0 DUP3 ADD SWAP1 POP PUSH2 0x168A PUSH0 DUP4 ADD DUP9 PUSH2 0xF46 JUMP JUMPDEST PUSH2 0x1697 PUSH1 0x20 DUP4 ADD DUP8 PUSH2 0xF46 JUMP JUMPDEST PUSH2 0x16A4 PUSH1 0x40 DUP4 ADD DUP7 PUSH2 0xF46 JUMP JUMPDEST PUSH2 0x16B1 PUSH1 0x60 DUP4 ADD DUP6 PUSH2 0x115F JUMP JUMPDEST PUSH2 0x16BE PUSH1 0x80 DUP4 ADD DUP5 PUSH2 0x116E JUMP JUMPDEST SWAP7 SWAP6 POP POP POP POP POP POP JUMP JUMPDEST PUSH32 0x4E6F20657320656C2070726F706965746172696F000000000000000000000000 PUSH0 DUP3 ADD MSTORE POP JUMP JUMPDEST PUSH0 PUSH2 0x16FC PUSH1 0x14 DUP4 PUSH2 0x120C JUMP JUMPDEST SWAP2 POP PUSH2 0x1707 DUP3 PUSH2 0x16C8 JUMP JUMPDEST PUSH1 0x20 DUP3 ADD SWAP1 POP SWAP2 SWAP1 POP JUMP JUMPDEST PUSH0 PUSH1 0x20 DUP3 ADD SWAP1 POP DUP2 DUP2 SUB PUSH0 DUP4 ADD MSTORE PUSH2 0x1729 DUP2 PUSH2 0x16F0 JUMP JUMPDEST SWAP1 POP SWAP2 SWAP1 POP JUMP JUMPDEST PUSH0 PUSH1 0x40 DUP3 ADD SWAP1 POP PUSH2 0x1743 PUSH0 DUP4 ADD DUP6 PUSH2 0xF46 JUMP JUMPDEST PUSH2 0x1750 PUSH1 0x20 DUP4 ADD DUP5 PUSH2 0x115F JUMP JUMPDEST SWAP4 SWAP3 POP POP POP JUMP INVALID LOG2 PUSH5 0x6970667358 0x22 SLT KECCAK256 MUL 0xA9 RETURNCONTRACT 0xD2 CALLDATASIZE DUP15 0x22 0xBE 0x25 0xBD CALLF 0xCFFB 0xB0 0xD9 PUSH24 0xDA4A590D2AEC1A03000E9FD852A152164736F6C63430008 0x22 STOP CALLER "
				},
				"gasEstimates": {
					"creation": {
						"codeDepositCost": "1205800",
						"executionCost": "25516",
						"totalCost": "1231316"
					},
					"external": {
						"COSTO()": "325",
						"_consultarActuacion(uint256)": "infinite",
						"agregarOrdenanza(uint256,uint256,bytes32,uint256,uint256,uint8)": "infinite",
						"consultarOrdenanza(uint256)": "infinite",
						"eliminar(uint256,uint8)": "infinite",
						"modificarVigencia(uint256,uint8,bytes32)": "infinite",
						"propietario()": "2508"
					}
				},
				"methodIdentifiers": {
					"COSTO()": "52b5241e",
					"_consultarActuacion(uint256)": "8e8a5876",
					"agregarOrdenanza(uint256,uint256,bytes32,uint256,uint256,uint8)": "47525ed6",
					"consultarOrdenanza(uint256)": "ad3b15ef",
					"eliminar(uint256,uint8)": "c83e9d6d",
					"modificarVigencia(uint256,uint8,bytes32)": "4eba0ca0",
					"propietario()": "3c4f81cd"
				}
			},
			"storageLayout": {
				"storage": [
					{
						"astId": 23,
						"contract": "ConcejoDeliberante/contracts/Ordenanza.sol:Ordenanza",
						"label": "propietario",
						"offset": 0,
						"slot": "0",
						"type": "t_address"
					},
					{
						"astId": 31,
						"contract": "ConcejoDeliberante/contracts/Ordenanza.sol:Ordenanza",
						"label": "actuaciones",
						"offset": 0,
						"slot": "1",
						"type": "t_mapping(t_uint256,t_struct(Actuacion)21_storage)"
					},
					{
						"astId": 34,
						"contract": "ConcejoDeliberante/contracts/Ordenanza.sol:Ordenanza",
						"label": "ids",
						"offset": 0,
						"slot": "2",
						"type": "t_array(t_uint256)dyn_storage"
					},
					{
						"astId": 279,
						"contract": "ConcejoDeliberante/contracts/Ordenanza.sol:Ordenanza",
						"label": "datosExtra",
						"offset": 0,
						"slot": "3",
						"type": "t_mapping(t_uint256,t_struct(DatosOrdenanza)274_storage)"
					}
				],
				"types": {
					"t_address": {
						"encoding": "inplace",
						"label": "address",
						"numberOfBytes": "20"
					},
					"t_array(t_struct(Cambio)10_storage)dyn_storage": {
						"base": "t_struct(Cambio)10_storage",
						"encoding": "dynamic_array",
						"label": "struct ActuacionBase.Cambio[]",
						"numberOfBytes": "32"
					},
					"t_array(t_uint256)dyn_storage": {
						"base": "t_uint256",
						"encoding": "dynamic_array",
						"label": "uint256[]",
						"numberOfBytes": "32"
					},
					"t_bool": {
						"encoding": "inplace",
						"label": "bool",
						"numberOfBytes": "1"
					},
					"t_bytes32": {
						"encoding": "inplace",
						"label": "bytes32",
						"numberOfBytes": "32"
					},
					"t_mapping(t_uint256,t_struct(Actuacion)21_storage)": {
						"encoding": "mapping",
						"key": "t_uint256",
						"label": "mapping(uint256 => struct ActuacionBase.Actuacion)",
						"numberOfBytes": "32",
						"value": "t_struct(Actuacion)21_storage"
					},
					"t_mapping(t_uint256,t_struct(DatosOrdenanza)274_storage)": {
						"encoding": "mapping",
						"key": "t_uint256",
						"label": "mapping(uint256 => struct Ordenanza.DatosOrdenanza)",
						"numberOfBytes": "32",
						"value": "t_struct(DatosOrdenanza)274_storage"
					},
					"t_struct(Actuacion)21_storage": {
						"encoding": "inplace",
						"label": "struct ActuacionBase.Actuacion",
						"members": [
							{
								"astId": 12,
								"contract": "ConcejoDeliberante/contracts/Ordenanza.sol:Ordenanza",
								"label": "fechaCreacion",
								"offset": 0,
								"slot": "0",
								"type": "t_uint256"
							},
							{
								"astId": 14,
								"contract": "ConcejoDeliberante/contracts/Ordenanza.sol:Ordenanza",
								"label": "dniAutor",
								"offset": 0,
								"slot": "1",
								"type": "t_uint256"
							},
							{
								"astId": 16,
								"contract": "ConcejoDeliberante/contracts/Ordenanza.sol:Ordenanza",
								"label": "existe",
								"offset": 0,
								"slot": "2",
								"type": "t_bool"
							},
							{
								"astId": 20,
								"contract": "ConcejoDeliberante/contracts/Ordenanza.sol:Ordenanza",
								"label": "historial",
								"offset": 0,
								"slot": "3",
								"type": "t_array(t_struct(Cambio)10_storage)dyn_storage"
							}
						],
						"numberOfBytes": "128"
					},
					"t_struct(Cambio)10_storage": {
						"encoding": "inplace",
						"label": "struct ActuacionBase.Cambio",
						"members": [
							{
								"astId": 3,
								"contract": "ConcejoDeliberante/contracts/Ordenanza.sol:Ordenanza",
								"label": "timestamp",
								"offset": 0,
								"slot": "0",
								"type": "t_uint256"
							},
							{
								"astId": 5,
								"contract": "ConcejoDeliberante/contracts/Ordenanza.sol:Ordenanza",
								"label": "estado",
								"offset": 0,
								"slot": "1",
								"type": "t_uint8"
							},
							{
								"astId": 7,
								"contract": "ConcejoDeliberante/contracts/Ordenanza.sol:Ordenanza",
								"label": "hash",
								"offset": 0,
								"slot": "2",
								"type": "t_bytes32"
							},
							{
								"astId": 9,
								"contract": "ConcejoDeliberante/contracts/Ordenanza.sol:Ordenanza",
								"label": "modificadoPor",
								"offset": 0,
								"slot": "3",
								"type": "t_address"
							}
						],
						"numberOfBytes": "128"
					},
					"t_struct(DatosOrdenanza)274_storage": {
						"encoding": "inplace",
						"label": "struct Ordenanza.DatosOrdenanza",
						"members": [
							{
								"astId": 273,
								"contract": "ConcejoDeliberante/contracts/Ordenanza.sol:Ordenanza",
								"label": "numOrdenanza",
								"offset": 0,
								"slot": "0",
								"type": "t_uint256"
							}
						],
						"numberOfBytes": "32"
					},
					"t_uint256": {
						"encoding": "inplace",
						"label": "uint256",
						"numberOfBytes": "32"
					},
					"t_uint8": {
						"encoding": "inplace",
						"label": "uint8",
						"numberOfBytes": "1"
					}
				}
			},
			"userdoc": {
				"kind": "user",
				"methods": {},
				"version": 1
			}
		}
	}
}