{
	"ConcejoDeliberante/contracts/Ordenanza.sol": {
		"Ordenanza": {
			"abi": [
				{
					"anonymous": false,
					"inputs": [
						{
							"indexed": false,
							"internalType": "uint256",
							"name": "id",
							"type": "uint256"
						},
						{
							"indexed": false,
							"internalType": "uint256",
							"name": "fechaCreacion",
							"type": "uint256"
						},
						{
							"indexed": false,
							"internalType": "uint256",
							"name": "dniAutor",
							"type": "uint256"
						},
						{
							"indexed": false,
							"internalType": "uint8",
							"name": "estado",
							"type": "uint8"
						},
						{
							"indexed": false,
							"internalType": "bytes32",
							"name": "hash",
							"type": "bytes32"
						}
					],
					"name": "ActuacionAgregada",
					"type": "event"
				},
				{
					"anonymous": false,
					"inputs": [
						{
							"indexed": false,
							"internalType": "uint256",
							"name": "id",
							"type": "uint256"
						},
						{
							"indexed": false,
							"internalType": "uint8",
							"name": "estado",
							"type": "uint8"
						}
					],
					"name": "ActuacionEliminada",
					"type": "event"
				},
				{
					"anonymous": false,
					"inputs": [
						{
							"indexed": false,
							"internalType": "uint256",
							"name": "id",
							"type": "uint256"
						},
						{
							"indexed": false,
							"internalType": "uint8",
							"name": "estado",
							"type": "uint8"
						},
						{
							"indexed": false,
							"internalType": "bytes32",
							"name": "hash",
							"type": "bytes32"
						}
					],
					"name": "ActuacionModificada",
					"type": "event"
				},
				{
					"anonymous": false,
					"inputs": [
						{
							"indexed": false,
							"internalType": "uint256",
							"name": "id",
							"type": "uint256"
						},
						{
							"indexed": false,
							"internalType": "uint256",
							"name": "numOrdenanza",
							"type": "uint256"
						},
						{
							"indexed": false,
							"internalType": "uint8",
							"name": "vigencia",
							"type": "uint8"
						},
						{
							"indexed": false,
							"internalType": "bytes32",
							"name": "hash",
							"type": "bytes32"
						}
					],
					"name": "OrdenanzaAgregada",
					"type": "event"
				},
				{
					"anonymous": false,
					"inputs": [
						{
							"indexed": false,
							"internalType": "uint256",
							"name": "id",
							"type": "uint256"
						},
						{
							"indexed": false,
							"internalType": "uint8",
							"name": "vigenciaNueva",
							"type": "uint8"
						},
						{
							"indexed": false,
							"internalType": "bytes32",
							"name": "hash",
							"type": "bytes32"
						}
					],
					"name": "VigenciaActualizada",
					"type": "event"
				},
				{
					"inputs": [],
					"name": "COSTO",
					"outputs": [
						{
							"internalType": "uint256",
							"name": "",
							"type": "uint256"
						}
					],
					"stateMutability": "view",
					"type": "function"
				},
				{
					"inputs": [
						{
							"internalType": "uint256",
							"name": "_id",
							"type": "uint256"
						},
						{
							"internalType": "uint256",
							"name": "_dniAutor",
							"type": "uint256"
						},
						{
							"internalType": "bytes32",
							"name": "_hash",
							"type": "bytes32"
						},
						{
							"internalType": "uint256",
							"name": "_fechaCreacion",
							"type": "uint256"
						},
						{
							"internalType": "uint256",
							"name": "_numOrdenanza",
							"type": "uint256"
						},
						{
							"internalType": "uint8",
							"name": "_vigencia",
							"type": "uint8"
						}
					],
					"name": "agregarOrdenanza",
					"outputs": [],
					"stateMutability": "payable",
					"type": "function"
				},
				{
					"inputs": [
						{
							"internalType": "uint256",
							"name": "_id",
							"type": "uint256"
						}
					],
					"name": "consultarHistorial",
					"outputs": [
						{
							"components": [
								{
									"internalType": "uint256",
									"name": "timestamp",
									"type": "uint256"
								},
								{
									"internalType": "uint8",
									"name": "estado",
									"type": "uint8"
								},
								{
									"internalType": "bytes32",
									"name": "hash",
									"type": "bytes32"
								},
								{
									"internalType": "address",
									"name": "modificadoPor",
									"type": "address"
								}
							],
							"internalType": "struct ActuacionBase.Cambio[]",
							"name": "",
							"type": "tuple[]"
						}
					],
					"stateMutability": "view",
					"type": "function"
				},
				{
					"inputs": [
						{
							"internalType": "uint256",
							"name": "_id",
							"type": "uint256"
						}
					],
					"name": "consultarOrdenanza",
					"outputs": [
						{
							"internalType": "uint256",
							"name": "fechaCreacion",
							"type": "uint256"
						},
						{
							"internalType": "uint256",
							"name": "dniAutor",
							"type": "uint256"
						},
						{
							"internalType": "uint8",
							"name": "vigencia",
							"type": "uint8"
						},
						{
							"internalType": "uint256",
							"name": "numOrdenanza",
							"type": "uint256"
						},
						{
							"internalType": "bytes32",
							"name": "hash",
							"type": "bytes32"
						}
					],
					"stateMutability": "view",
					"type": "function"
				},
				{
					"inputs": [
						{
							"internalType": "uint256",
							"name": "_id",
							"type": "uint256"
						},
						{
							"internalType": "uint8",
							"name": "_vigencia",
							"type": "uint8"
						}
					],
					"name": "eliminar",
					"outputs": [],
					"stateMutability": "nonpayable",
					"type": "function"
				},
				{
					"inputs": [
						{
							"internalType": "uint256",
							"name": "_id",
							"type": "uint256"
						},
						{
							"internalType": "uint8",
							"name": "_vigencia",
							"type": "uint8"
						},
						{
							"internalType": "bytes32",
							"name": "_hash",
							"type": "bytes32"
						}
					],
					"name": "modificarVigencia",
					"outputs": [
						{
							"internalType": "bool",
							"name": "success",
							"type": "bool"
						}
					],
					"stateMutability": "nonpayable",
					"type": "function"
				},
				{
					"inputs": [],
					"name": "propietario",
					"outputs": [
						{
							"internalType": "address",
							"name": "",
							"type": "address"
						}
					],
					"stateMutability": "view",
					"type": "function"
				}
			],
			"devdoc": {
				"kind": "dev",
				"methods": {},
				"version": 1
			},
			"evm": {
				"assembly": "    /* \"ConcejoDeliberante/contracts/Ordenanza.sol\":101:3419  contract Ordenanza is ActuacionBase{... */\n  mstore(0x40, 0x80)\n  callvalue\n  dup1\n  iszero\n  tag_1\n  jumpi\n  revert(0x00, 0x00)\ntag_1:\n  pop\n    /* \"ConcejoDeliberante/contracts/ActuacionBase.sol\":1114:1124  msg.sender */\n  caller\n    /* \"ConcejoDeliberante/contracts/ActuacionBase.sol\":1100:1111  propietario */\n  0x00\n  0x00\n    /* \"ConcejoDeliberante/contracts/ActuacionBase.sol\":1100:1124  propietario = msg.sender */\n  0x0100\n  exp\n  dup2\n  sload\n  dup2\n  0xffffffffffffffffffffffffffffffffffffffff\n  mul\n  not\n  and\n  swap1\n  dup4\n  0xffffffffffffffffffffffffffffffffffffffff\n  and\n  mul\n  or\n  swap1\n  sstore\n  pop\n    /* \"ConcejoDeliberante/contracts/Ordenanza.sol\":101:3419  contract Ordenanza is ActuacionBase{... */\n  dataSize(sub_0)\n  dup1\n  dataOffset(sub_0)\n  0x00\n  codecopy\n  0x00\n  return\nstop\n\nsub_0: assembly {\n        /* \"ConcejoDeliberante/contracts/Ordenanza.sol\":101:3419  contract Ordenanza is ActuacionBase{... */\n      mstore(0x40, 0x80)\n      jumpi(tag_1, lt(calldatasize, 0x04))\n      shr(0xe0, calldataload(0x00))\n      dup1\n      0x4eba0ca0\n      gt\n      tag_9\n      jumpi\n      dup1\n      0x4eba0ca0\n      eq\n      tag_5\n      jumpi\n      dup1\n      0x52b5241e\n      eq\n      tag_6\n      jumpi\n      dup1\n      0xad3b15ef\n      eq\n      tag_7\n      jumpi\n      dup1\n      0xc83e9d6d\n      eq\n      tag_8\n      jumpi\n      jump(tag_1)\n    tag_9:\n      dup1\n      0x1bc7509e\n      eq\n      tag_2\n      jumpi\n      dup1\n      0x3c4f81cd\n      eq\n      tag_3\n      jumpi\n      dup1\n      0x47525ed6\n      eq\n      tag_4\n      jumpi\n    tag_1:\n      revert(0x00, 0x00)\n        /* \"ConcejoDeliberante/contracts/ActuacionBase.sol\":4258:4443  function consultarHistorial(uint256 _id)... */\n    tag_2:\n      callvalue\n      dup1\n      iszero\n      tag_10\n      jumpi\n      revert(0x00, 0x00)\n    tag_10:\n      pop\n      tag_11\n      0x04\n      dup1\n      calldatasize\n      sub\n      dup2\n      add\n      swap1\n      tag_12\n      swap2\n      swap1\n      tag_13\n      jump\t// in\n    tag_12:\n      tag_14\n      jump\t// in\n    tag_11:\n      mload(0x40)\n      tag_15\n      swap2\n      swap1\n      tag_16\n      jump\t// in\n    tag_15:\n      mload(0x40)\n      dup1\n      swap2\n      sub\n      swap1\n      return\n        /* \"ConcejoDeliberante/contracts/ActuacionBase.sol\":484:510  address public propietario */\n    tag_3:\n      callvalue\n      dup1\n      iszero\n      tag_17\n      jumpi\n      revert(0x00, 0x00)\n    tag_17:\n      pop\n      tag_18\n      tag_19\n      jump\t// in\n    tag_18:\n      mload(0x40)\n      tag_20\n      swap2\n      swap1\n      tag_21\n      jump\t// in\n    tag_20:\n      mload(0x40)\n      dup1\n      swap2\n      sub\n      swap1\n      return\n        /* \"ConcejoDeliberante/contracts/Ordenanza.sol\":1009:1605  function agregarOrdenanza(  ... */\n    tag_4:\n      tag_22\n      0x04\n      dup1\n      calldatasize\n      sub\n      dup2\n      add\n      swap1\n      tag_23\n      swap2\n      swap1\n      tag_24\n      jump\t// in\n    tag_23:\n      tag_25\n      jump\t// in\n    tag_22:\n      stop\n        /* \"ConcejoDeliberante/contracts/Ordenanza.sol\":2679:3037  function modificarVigencia(... */\n    tag_5:\n      callvalue\n      dup1\n      iszero\n      tag_26\n      jumpi\n      revert(0x00, 0x00)\n    tag_26:\n      pop\n      tag_27\n      0x04\n      dup1\n      calldatasize\n      sub\n      dup2\n      add\n      swap1\n      tag_28\n      swap2\n      swap1\n      tag_29\n      jump\t// in\n    tag_28:\n      tag_30\n      jump\t// in\n    tag_27:\n      mload(0x40)\n      tag_31\n      swap2\n      swap1\n      tag_32\n      jump\t// in\n    tag_31:\n      mload(0x40)\n      dup1\n      swap2\n      sub\n      swap1\n      return\n        /* \"ConcejoDeliberante/contracts/ActuacionBase.sol\":557:592  uint256 public constant COSTO = 500 */\n    tag_6:\n      callvalue\n      dup1\n      iszero\n      tag_33\n      jumpi\n      revert(0x00, 0x00)\n    tag_33:\n      pop\n      tag_34\n      tag_35\n      jump\t// in\n    tag_34:\n      mload(0x40)\n      tag_36\n      swap2\n      swap1\n      tag_37\n      jump\t// in\n    tag_36:\n      mload(0x40)\n      dup1\n      swap2\n      sub\n      swap1\n      return\n        /* \"ConcejoDeliberante/contracts/Ordenanza.sol\":1673:2370  function consultarOrdenanza(uint256 _id)... */\n    tag_7:\n      callvalue\n      dup1\n      iszero\n      tag_38\n      jumpi\n      revert(0x00, 0x00)\n    tag_38:\n      pop\n      tag_39\n      0x04\n      dup1\n      calldatasize\n      sub\n      dup2\n      add\n      swap1\n      tag_40\n      swap2\n      swap1\n      tag_13\n      jump\t// in\n    tag_40:\n      tag_41\n      jump\t// in\n    tag_39:\n      mload(0x40)\n      tag_42\n      swap6\n      swap5\n      swap4\n      swap3\n      swap2\n      swap1\n      tag_43\n      jump\t// in\n    tag_42:\n      mload(0x40)\n      dup1\n      swap2\n      sub\n      swap1\n      return\n        /* \"ConcejoDeliberante/contracts/Ordenanza.sol\":3234:3417  function eliminar(uint256 _id, uint8 _vigencia) public {... */\n    tag_8:\n      callvalue\n      dup1\n      iszero\n      tag_44\n      jumpi\n      revert(0x00, 0x00)\n    tag_44:\n      pop\n      tag_45\n      0x04\n      dup1\n      calldatasize\n      sub\n      dup2\n      add\n      swap1\n      tag_46\n      swap2\n      swap1\n      tag_47\n      jump\t// in\n    tag_46:\n      tag_48\n      jump\t// in\n    tag_45:\n      stop\n        /* \"ConcejoDeliberante/contracts/ActuacionBase.sol\":4258:4443  function consultarHistorial(uint256 _id)... */\n    tag_14:\n        /* \"ConcejoDeliberante/contracts/ActuacionBase.sol\":4332:4347  Cambio[] memory */\n      0x60\n        /* \"ConcejoDeliberante/contracts/ActuacionBase.sol\":4363:4381  Actuacion memory a */\n      0x00\n        /* \"ConcejoDeliberante/contracts/ActuacionBase.sol\":4384:4408  _consultarActuacion(_id) */\n      tag_50\n        /* \"ConcejoDeliberante/contracts/ActuacionBase.sol\":4404:4407  _id */\n      dup4\n        /* \"ConcejoDeliberante/contracts/ActuacionBase.sol\":4384:4403  _consultarActuacion */\n      tag_51\n        /* \"ConcejoDeliberante/contracts/ActuacionBase.sol\":4384:4408  _consultarActuacion(_id) */\n      jump\t// in\n    tag_50:\n        /* \"ConcejoDeliberante/contracts/ActuacionBase.sol\":4363:4408  Actuacion memory a = _consultarActuacion(_id) */\n      swap1\n      pop\n        /* \"ConcejoDeliberante/contracts/ActuacionBase.sol\":4425:4426  a */\n      dup1\n        /* \"ConcejoDeliberante/contracts/ActuacionBase.sol\":4425:4436  a.historial */\n      0x60\n      add\n      mload\n        /* \"ConcejoDeliberante/contracts/ActuacionBase.sol\":4418:4436  return a.historial */\n      swap2\n      pop\n      pop\n        /* \"ConcejoDeliberante/contracts/ActuacionBase.sol\":4258:4443  function consultarHistorial(uint256 _id)... */\n      swap2\n      swap1\n      pop\n      jump\t// out\n        /* \"ConcejoDeliberante/contracts/ActuacionBase.sol\":484:510  address public propietario */\n    tag_19:\n      0x00\n      0x00\n      swap1\n      sload\n      swap1\n      0x0100\n      exp\n      swap1\n      div\n      0xffffffffffffffffffffffffffffffffffffffff\n      and\n      dup2\n      jump\t// out\n        /* \"ConcejoDeliberante/contracts/Ordenanza.sol\":1009:1605  function agregarOrdenanza(  ... */\n    tag_25:\n        /* \"ConcejoDeliberante/contracts/ActuacionBase.sol\":589:592  500 */\n      0x01f4\n        /* \"ConcejoDeliberante/contracts/Ordenanza.sol\":1237:1246  msg.value */\n      callvalue\n        /* \"ConcejoDeliberante/contracts/Ordenanza.sol\":1237:1255  msg.value >= COSTO */\n      lt\n      iszero\n        /* \"ConcejoDeliberante/contracts/Ordenanza.sol\":1229:1297  require(msg.value >= COSTO, \"No se ha pagado la tarifa de registro\") */\n      tag_53\n      jumpi\n      mload(0x40)\n      0x08c379a000000000000000000000000000000000000000000000000000000000\n      dup2\n      mstore\n      0x04\n      add\n      tag_54\n      swap1\n      tag_55\n      jump\t// in\n    tag_54:\n      mload(0x40)\n      dup1\n      swap2\n      sub\n      swap1\n      revert\n    tag_53:\n        /* \"ConcejoDeliberante/contracts/Ordenanza.sol\":1332:1333  0 */\n      0x00\n        /* \"ConcejoDeliberante/contracts/Ordenanza.sol\":1319:1328  _vigencia */\n      dup2\n        /* \"ConcejoDeliberante/contracts/Ordenanza.sol\":1319:1333  _vigencia == 0 */\n      0xff\n      and\n      eq\n        /* \"ConcejoDeliberante/contracts/Ordenanza.sol\":1311:1377  require(_vigencia == 0, \"Vigencia invalida: use (0) para Vigente\") */\n      tag_56\n      jumpi\n      mload(0x40)\n      0x08c379a000000000000000000000000000000000000000000000000000000000\n      dup2\n      mstore\n      0x04\n      add\n      tag_57\n      swap1\n      tag_58\n      jump\t// in\n    tag_57:\n      mload(0x40)\n      dup1\n      swap2\n      sub\n      swap1\n      revert\n    tag_56:\n        /* \"ConcejoDeliberante/contracts/Ordenanza.sol\":1391:1462  _inicializarActuacion(_id, _dniAutor, _vigencia, _hash, _fechaCreacion) */\n      tag_59\n        /* \"ConcejoDeliberante/contracts/Ordenanza.sol\":1413:1416  _id */\n      dup7\n        /* \"ConcejoDeliberante/contracts/Ordenanza.sol\":1418:1427  _dniAutor */\n      dup7\n        /* \"ConcejoDeliberante/contracts/Ordenanza.sol\":1429:1438  _vigencia */\n      dup4\n        /* \"ConcejoDeliberante/contracts/Ordenanza.sol\":1440:1445  _hash */\n      dup8\n        /* \"ConcejoDeliberante/contracts/Ordenanza.sol\":1447:1461  _fechaCreacion */\n      dup8\n        /* \"ConcejoDeliberante/contracts/Ordenanza.sol\":1391:1412  _inicializarActuacion */\n      tag_60\n        /* \"ConcejoDeliberante/contracts/Ordenanza.sol\":1391:1462  _inicializarActuacion(_id, _dniAutor, _vigencia, _hash, _fechaCreacion) */\n      jump\t// in\n    tag_59:\n        /* \"ConcejoDeliberante/contracts/Ordenanza.sol\":1507:1520  _numOrdenanza */\n      dup2\n        /* \"ConcejoDeliberante/contracts/Ordenanza.sol\":1476:1486  datosExtra */\n      0x03\n        /* \"ConcejoDeliberante/contracts/Ordenanza.sol\":1476:1491  datosExtra[_id] */\n      0x00\n        /* \"ConcejoDeliberante/contracts/Ordenanza.sol\":1487:1490  _id */\n      dup9\n        /* \"ConcejoDeliberante/contracts/Ordenanza.sol\":1476:1491  datosExtra[_id] */\n      dup2\n      mstore\n      0x20\n      add\n      swap1\n      dup2\n      mstore\n      0x20\n      add\n      0x00\n      keccak256\n        /* \"ConcejoDeliberante/contracts/Ordenanza.sol\":1476:1504  datosExtra[_id].numOrdenanza */\n      0x00\n      add\n        /* \"ConcejoDeliberante/contracts/Ordenanza.sol\":1476:1520  datosExtra[_id].numOrdenanza = _numOrdenanza */\n      dup2\n      swap1\n      sstore\n      pop\n        /* \"ConcejoDeliberante/contracts/Ordenanza.sol\":1539:1594  OrdenanzaAgregada(_id, _numOrdenanza, _vigencia, _hash) */\n      0x5694b19b2cfcf39a4309e7d5015b841327b2020ff7dfbe0c17328b4c90aed71e\n        /* \"ConcejoDeliberante/contracts/Ordenanza.sol\":1557:1560  _id */\n      dup7\n        /* \"ConcejoDeliberante/contracts/Ordenanza.sol\":1562:1575  _numOrdenanza */\n      dup4\n        /* \"ConcejoDeliberante/contracts/Ordenanza.sol\":1577:1586  _vigencia */\n      dup4\n        /* \"ConcejoDeliberante/contracts/Ordenanza.sol\":1588:1593  _hash */\n      dup8\n        /* \"ConcejoDeliberante/contracts/Ordenanza.sol\":1539:1594  OrdenanzaAgregada(_id, _numOrdenanza, _vigencia, _hash) */\n      mload(0x40)\n      tag_61\n      swap5\n      swap4\n      swap3\n      swap2\n      swap1\n      tag_62\n      jump\t// in\n    tag_61:\n      mload(0x40)\n      dup1\n      swap2\n      sub\n      swap1\n      log1\n        /* \"ConcejoDeliberante/contracts/Ordenanza.sol\":1009:1605  function agregarOrdenanza(  ... */\n      pop\n      pop\n      pop\n      pop\n      pop\n      pop\n      jump\t// out\n        /* \"ConcejoDeliberante/contracts/Ordenanza.sol\":2679:3037  function modificarVigencia(... */\n    tag_30:\n        /* \"ConcejoDeliberante/contracts/Ordenanza.sol\":2802:2814  bool success */\n      0x00\n        /* \"ConcejoDeliberante/contracts/Ordenanza.sol\":2851:2852  1 */\n      0x01\n        /* \"ConcejoDeliberante/contracts/Ordenanza.sol\":2838:2847  _vigencia */\n      dup4\n        /* \"ConcejoDeliberante/contracts/Ordenanza.sol\":2838:2852  _vigencia == 1 */\n      0xff\n      and\n      eq\n        /* \"ConcejoDeliberante/contracts/Ordenanza.sol\":2830:2900  require(_vigencia == 1, \"Vigencia invalida: use (1) para Modificada \") */\n      tag_64\n      jumpi\n      mload(0x40)\n      0x08c379a000000000000000000000000000000000000000000000000000000000\n      dup2\n      mstore\n      0x04\n      add\n      tag_65\n      swap1\n      tag_66\n      jump\t// in\n    tag_65:\n      mload(0x40)\n      dup1\n      swap2\n      sub\n      swap1\n      revert\n    tag_64:\n        /* \"ConcejoDeliberante/contracts/Ordenanza.sol\":2910:2952  _modificarActuacion(_id, _vigencia, _hash) */\n      tag_67\n        /* \"ConcejoDeliberante/contracts/Ordenanza.sol\":2930:2933  _id */\n      dup5\n        /* \"ConcejoDeliberante/contracts/Ordenanza.sol\":2935:2944  _vigencia */\n      dup5\n        /* \"ConcejoDeliberante/contracts/Ordenanza.sol\":2946:2951  _hash */\n      dup5\n        /* \"ConcejoDeliberante/contracts/Ordenanza.sol\":2910:2929  _modificarActuacion */\n      tag_68\n        /* \"ConcejoDeliberante/contracts/Ordenanza.sol\":2910:2952  _modificarActuacion(_id, _vigencia, _hash) */\n      jump\t// in\n    tag_67:\n      pop\n        /* \"ConcejoDeliberante/contracts/Ordenanza.sol\":2967:3009  VigenciaActualizada(_id, _vigencia, _hash) */\n      0x6b61900003115b8294d08086dd6dcc4c444a62a018562b71ed4bc4a47be18fbe\n        /* \"ConcejoDeliberante/contracts/Ordenanza.sol\":2987:2990  _id */\n      dup5\n        /* \"ConcejoDeliberante/contracts/Ordenanza.sol\":2992:3001  _vigencia */\n      dup5\n        /* \"ConcejoDeliberante/contracts/Ordenanza.sol\":3003:3008  _hash */\n      dup5\n        /* \"ConcejoDeliberante/contracts/Ordenanza.sol\":2967:3009  VigenciaActualizada(_id, _vigencia, _hash) */\n      mload(0x40)\n      tag_69\n      swap4\n      swap3\n      swap2\n      swap1\n      tag_70\n      jump\t// in\n    tag_69:\n      mload(0x40)\n      dup1\n      swap2\n      sub\n      swap1\n      log1\n        /* \"ConcejoDeliberante/contracts/Ordenanza.sol\":3026:3030  true */\n      0x01\n        /* \"ConcejoDeliberante/contracts/Ordenanza.sol\":3019:3030  return true */\n      swap1\n      pop\n        /* \"ConcejoDeliberante/contracts/Ordenanza.sol\":2679:3037  function modificarVigencia(... */\n      swap4\n      swap3\n      pop\n      pop\n      pop\n      jump\t// out\n        /* \"ConcejoDeliberante/contracts/ActuacionBase.sol\":557:592  uint256 public constant COSTO = 500 */\n    tag_35:\n        /* \"ConcejoDeliberante/contracts/ActuacionBase.sol\":589:592  500 */\n      0x01f4\n        /* \"ConcejoDeliberante/contracts/ActuacionBase.sol\":557:592  uint256 public constant COSTO = 500 */\n      dup2\n      jump\t// out\n        /* \"ConcejoDeliberante/contracts/Ordenanza.sol\":1673:2370  function consultarOrdenanza(uint256 _id)... */\n    tag_41:\n        /* \"ConcejoDeliberante/contracts/Ordenanza.sol\":1772:1794  uint256  fechaCreacion */\n      0x00\n        /* \"ConcejoDeliberante/contracts/Ordenanza.sol\":1840:1857  uint256  dniAutor */\n      0x00\n        /* \"ConcejoDeliberante/contracts/Ordenanza.sol\":1871:1887  uint8   vigencia */\n      0x00\n        /* \"ConcejoDeliberante/contracts/Ordenanza.sol\":1901:1922  uint256  numOrdenanza */\n      0x00\n        /* \"ConcejoDeliberante/contracts/Ordenanza.sol\":1936:1948  bytes32 hash */\n      0x00\n        /* \"ConcejoDeliberante/contracts/Ordenanza.sol\":1978:2018  ActuacionBase.Actuacion memory actuacion */\n      0x00\n        /* \"ConcejoDeliberante/contracts/Ordenanza.sol\":2021:2045  _consultarActuacion(_id) */\n      tag_72\n        /* \"ConcejoDeliberante/contracts/Ordenanza.sol\":2041:2044  _id */\n      dup8\n        /* \"ConcejoDeliberante/contracts/Ordenanza.sol\":2021:2040  _consultarActuacion */\n      tag_51\n        /* \"ConcejoDeliberante/contracts/Ordenanza.sol\":2021:2045  _consultarActuacion(_id) */\n      jump\t// in\n    tag_72:\n        /* \"ConcejoDeliberante/contracts/Ordenanza.sol\":1978:2045  ActuacionBase.Actuacion memory actuacion = _consultarActuacion(_id) */\n      swap1\n      pop\n        /* \"ConcejoDeliberante/contracts/Ordenanza.sol\":2055:2079  DatosOrdenanza storage o */\n      0x00\n        /* \"ConcejoDeliberante/contracts/Ordenanza.sol\":2082:2092  datosExtra */\n      0x03\n        /* \"ConcejoDeliberante/contracts/Ordenanza.sol\":2082:2097  datosExtra[_id] */\n      0x00\n        /* \"ConcejoDeliberante/contracts/Ordenanza.sol\":2093:2096  _id */\n      dup10\n        /* \"ConcejoDeliberante/contracts/Ordenanza.sol\":2082:2097  datosExtra[_id] */\n      dup2\n      mstore\n      0x20\n      add\n      swap1\n      dup2\n      mstore\n      0x20\n      add\n      0x00\n      keccak256\n        /* \"ConcejoDeliberante/contracts/Ordenanza.sol\":2055:2097  DatosOrdenanza storage o = datosExtra[_id] */\n      swap1\n      pop\n        /* \"ConcejoDeliberante/contracts/Ordenanza.sol\":2128:2137  actuacion */\n      dup2\n        /* \"ConcejoDeliberante/contracts/Ordenanza.sol\":2128:2151  actuacion.fechaCreacion */\n      0x00\n      add\n      mload\n        /* \"ConcejoDeliberante/contracts/Ordenanza.sol\":2165:2174  actuacion */\n      dup3\n        /* \"ConcejoDeliberante/contracts/Ordenanza.sol\":2165:2183  actuacion.dniAutor */\n      0x20\n      add\n      mload\n        /* \"ConcejoDeliberante/contracts/Ordenanza.sol\":2197:2206  actuacion */\n      dup4\n        /* \"ConcejoDeliberante/contracts/Ordenanza.sol\":2197:2216  actuacion.historial */\n      0x60\n      add\n      mload\n        /* \"ConcejoDeliberante/contracts/Ordenanza.sol\":2246:2247  1 */\n      0x01\n        /* \"ConcejoDeliberante/contracts/Ordenanza.sol\":2217:2226  actuacion */\n      dup6\n        /* \"ConcejoDeliberante/contracts/Ordenanza.sol\":2217:2236  actuacion.historial */\n      0x60\n      add\n      mload\n        /* \"ConcejoDeliberante/contracts/Ordenanza.sol\":2217:2243  actuacion.historial.length */\n      mload\n        /* \"ConcejoDeliberante/contracts/Ordenanza.sol\":2217:2247  actuacion.historial.length - 1 */\n      tag_73\n      swap2\n      swap1\n      tag_74\n      jump\t// in\n    tag_73:\n        /* \"ConcejoDeliberante/contracts/Ordenanza.sol\":2197:2248  actuacion.historial[actuacion.historial.length - 1] */\n      dup2\n      mload\n      dup2\n      lt\n      tag_75\n      jumpi\n      tag_76\n      tag_77\n      jump\t// in\n    tag_76:\n    tag_75:\n      0x20\n      mul\n      0x20\n      add\n      add\n      mload\n        /* \"ConcejoDeliberante/contracts/Ordenanza.sol\":2197:2255  actuacion.historial[actuacion.historial.length - 1].estado */\n      0x20\n      add\n      mload\n        /* \"ConcejoDeliberante/contracts/Ordenanza.sol\":2269:2270  o */\n      dup4\n        /* \"ConcejoDeliberante/contracts/Ordenanza.sol\":2269:2283  o.numOrdenanza */\n      0x00\n      add\n      sload\n        /* \"ConcejoDeliberante/contracts/Ordenanza.sol\":2297:2306  actuacion */\n      dup6\n        /* \"ConcejoDeliberante/contracts/Ordenanza.sol\":2297:2316  actuacion.historial */\n      0x60\n      add\n      mload\n        /* \"ConcejoDeliberante/contracts/Ordenanza.sol\":2346:2347  1 */\n      0x01\n        /* \"ConcejoDeliberante/contracts/Ordenanza.sol\":2317:2326  actuacion */\n      dup8\n        /* \"ConcejoDeliberante/contracts/Ordenanza.sol\":2317:2336  actuacion.historial */\n      0x60\n      add\n      mload\n        /* \"ConcejoDeliberante/contracts/Ordenanza.sol\":2317:2343  actuacion.historial.length */\n      mload\n        /* \"ConcejoDeliberante/contracts/Ordenanza.sol\":2317:2347  actuacion.historial.length - 1 */\n      tag_78\n      swap2\n      swap1\n      tag_74\n      jump\t// in\n    tag_78:\n        /* \"ConcejoDeliberante/contracts/Ordenanza.sol\":2297:2348  actuacion.historial[actuacion.historial.length - 1] */\n      dup2\n      mload\n      dup2\n      lt\n      tag_79\n      jumpi\n      tag_80\n      tag_77\n      jump\t// in\n    tag_80:\n    tag_79:\n      0x20\n      mul\n      0x20\n      add\n      add\n      mload\n        /* \"ConcejoDeliberante/contracts/Ordenanza.sol\":2297:2353  actuacion.historial[actuacion.historial.length - 1].hash */\n      0x40\n      add\n      mload\n        /* \"ConcejoDeliberante/contracts/Ordenanza.sol\":2107:2363  return (... */\n      swap7\n      pop\n      swap7\n      pop\n      swap7\n      pop\n      swap7\n      pop\n      swap7\n      pop\n      pop\n      pop\n        /* \"ConcejoDeliberante/contracts/Ordenanza.sol\":1673:2370  function consultarOrdenanza(uint256 _id)... */\n      swap2\n      swap4\n      swap6\n      swap1\n      swap3\n      swap5\n      pop\n      jump\t// out\n        /* \"ConcejoDeliberante/contracts/Ordenanza.sol\":3234:3417  function eliminar(uint256 _id, uint8 _vigencia) public {... */\n    tag_48:\n        /* \"ConcejoDeliberante/contracts/Ordenanza.sol\":3320:3321  2 */\n      0x02\n        /* \"ConcejoDeliberante/contracts/Ordenanza.sol\":3307:3316  _vigencia */\n      dup2\n        /* \"ConcejoDeliberante/contracts/Ordenanza.sol\":3307:3321  _vigencia == 2 */\n      0xff\n      and\n      eq\n        /* \"ConcejoDeliberante/contracts/Ordenanza.sol\":3299:3366  require(_vigencia == 2, \"Vigencia invalida: use (2) para Derogada\") */\n      tag_82\n      jumpi\n      mload(0x40)\n      0x08c379a000000000000000000000000000000000000000000000000000000000\n      dup2\n      mstore\n      0x04\n      add\n      tag_83\n      swap1\n      tag_84\n      jump\t// in\n    tag_83:\n      mload(0x40)\n      dup1\n      swap2\n      sub\n      swap1\n      revert\n    tag_82:\n        /* \"ConcejoDeliberante/contracts/Ordenanza.sol\":3376:3410  _eliminarActuacion(_id, _vigencia) */\n      tag_85\n        /* \"ConcejoDeliberante/contracts/Ordenanza.sol\":3395:3398  _id */\n      dup3\n        /* \"ConcejoDeliberante/contracts/Ordenanza.sol\":3400:3409  _vigencia */\n      dup3\n        /* \"ConcejoDeliberante/contracts/Ordenanza.sol\":3376:3394  _eliminarActuacion */\n      tag_86\n        /* \"ConcejoDeliberante/contracts/Ordenanza.sol\":3376:3410  _eliminarActuacion(_id, _vigencia) */\n      jump\t// in\n    tag_85:\n        /* \"ConcejoDeliberante/contracts/Ordenanza.sol\":3234:3417  function eliminar(uint256 _id, uint8 _vigencia) public {... */\n      pop\n      pop\n      jump\t// out\n        /* \"ConcejoDeliberante/contracts/ActuacionBase.sol\":2419:2632  function _consultarActuacion(uint256 _id)... */\n    tag_51:\n        /* \"ConcejoDeliberante/contracts/ActuacionBase.sol\":2500:2516  Actuacion memory */\n      tag_87\n      tag_88\n      jump\t// in\n    tag_87:\n        /* \"ConcejoDeliberante/contracts/ActuacionBase.sol\":2540:2551  actuaciones */\n      0x01\n        /* \"ConcejoDeliberante/contracts/ActuacionBase.sol\":2540:2556  actuaciones[_id] */\n      0x00\n        /* \"ConcejoDeliberante/contracts/ActuacionBase.sol\":2552:2555  _id */\n      dup4\n        /* \"ConcejoDeliberante/contracts/ActuacionBase.sol\":2540:2556  actuaciones[_id] */\n      dup2\n      mstore\n      0x20\n      add\n      swap1\n      dup2\n      mstore\n      0x20\n      add\n      0x00\n      keccak256\n        /* \"ConcejoDeliberante/contracts/ActuacionBase.sol\":2540:2563  actuaciones[_id].existe */\n      0x02\n      add\n      0x00\n      swap1\n      sload\n      swap1\n      0x0100\n      exp\n      swap1\n      div\n      0xff\n      and\n        /* \"ConcejoDeliberante/contracts/ActuacionBase.sol\":2532:2590  require(actuaciones[_id].existe, \"La actuacion no existe\") */\n      tag_90\n      jumpi\n      mload(0x40)\n      0x08c379a000000000000000000000000000000000000000000000000000000000\n      dup2\n      mstore\n      0x04\n      add\n      tag_91\n      swap1\n      tag_92\n      jump\t// in\n    tag_91:\n      mload(0x40)\n      dup1\n      swap2\n      sub\n      swap1\n      revert\n    tag_90:\n        /* \"ConcejoDeliberante/contracts/ActuacionBase.sol\":2607:2618  actuaciones */\n      0x01\n        /* \"ConcejoDeliberante/contracts/ActuacionBase.sol\":2607:2623  actuaciones[_id] */\n      0x00\n        /* \"ConcejoDeliberante/contracts/ActuacionBase.sol\":2619:2622  _id */\n      dup4\n        /* \"ConcejoDeliberante/contracts/ActuacionBase.sol\":2607:2623  actuaciones[_id] */\n      dup2\n      mstore\n      0x20\n      add\n      swap1\n      dup2\n      mstore\n      0x20\n      add\n      0x00\n      keccak256\n        /* \"ConcejoDeliberante/contracts/ActuacionBase.sol\":2600:2623  return actuaciones[_id] */\n      mload(0x40)\n      dup1\n      0x80\n      add\n      0x40\n      mstore\n      swap1\n      dup2\n      0x00\n      dup3\n      add\n      sload\n      dup2\n      mstore\n      0x20\n      add\n      0x01\n      dup3\n      add\n      sload\n      dup2\n      mstore\n      0x20\n      add\n      0x02\n      dup3\n      add\n      0x00\n      swap1\n      sload\n      swap1\n      0x0100\n      exp\n      swap1\n      div\n      0xff\n      and\n      iszero\n      iszero\n      iszero\n      iszero\n      dup2\n      mstore\n      0x20\n      add\n      0x03\n      dup3\n      add\n      dup1\n      sload\n      dup1\n      0x20\n      mul\n      0x20\n      add\n      mload(0x40)\n      swap1\n      dup2\n      add\n      0x40\n      mstore\n      dup1\n      swap3\n      swap2\n      swap1\n      dup2\n      dup2\n      mstore\n      0x20\n      add\n      0x00\n      swap1\n    tag_93:\n      dup3\n      dup3\n      lt\n      iszero\n      tag_94\n      jumpi\n      dup4\n      dup3\n      swap1\n      0x00\n      mstore\n      keccak256(0x00, 0x20)\n      swap1\n      0x04\n      mul\n      add\n      mload(0x40)\n      dup1\n      0x80\n      add\n      0x40\n      mstore\n      swap1\n      dup2\n      0x00\n      dup3\n      add\n      sload\n      dup2\n      mstore\n      0x20\n      add\n      0x01\n      dup3\n      add\n      0x00\n      swap1\n      sload\n      swap1\n      0x0100\n      exp\n      swap1\n      div\n      0xff\n      and\n      0xff\n      and\n      0xff\n      and\n      dup2\n      mstore\n      0x20\n      add\n      0x02\n      dup3\n      add\n      sload\n      dup2\n      mstore\n      0x20\n      add\n      0x03\n      dup3\n      add\n      0x00\n      swap1\n      sload\n      swap1\n      0x0100\n      exp\n      swap1\n      div\n      0xffffffffffffffffffffffffffffffffffffffff\n      and\n      0xffffffffffffffffffffffffffffffffffffffff\n      and\n      0xffffffffffffffffffffffffffffffffffffffff\n      and\n      dup2\n      mstore\n      pop\n      pop\n      dup2\n      mstore\n      0x20\n      add\n      swap1\n      0x01\n      add\n      swap1\n      jump(tag_93)\n    tag_94:\n      pop\n      pop\n      pop\n      pop\n      dup2\n      mstore\n      pop\n      pop\n      swap1\n      pop\n        /* \"ConcejoDeliberante/contracts/ActuacionBase.sol\":2419:2632  function _consultarActuacion(uint256 _id)... */\n      swap2\n      swap1\n      pop\n      jump\t// out\n        /* \"ConcejoDeliberante/contracts/ActuacionBase.sol\":1624:2351  function _inicializarActuacion(... */\n    tag_60:\n        /* \"ConcejoDeliberante/contracts/ActuacionBase.sol\":1824:1835  actuaciones */\n      0x01\n        /* \"ConcejoDeliberante/contracts/ActuacionBase.sol\":1824:1840  actuaciones[_id] */\n      0x00\n        /* \"ConcejoDeliberante/contracts/ActuacionBase.sol\":1836:1839  _id */\n      dup7\n        /* \"ConcejoDeliberante/contracts/ActuacionBase.sol\":1824:1840  actuaciones[_id] */\n      dup2\n      mstore\n      0x20\n      add\n      swap1\n      dup2\n      mstore\n      0x20\n      add\n      0x00\n      keccak256\n        /* \"ConcejoDeliberante/contracts/ActuacionBase.sol\":1824:1847  actuaciones[_id].existe */\n      0x02\n      add\n      0x00\n      swap1\n      sload\n      swap1\n      0x0100\n      exp\n      swap1\n      div\n      0xff\n      and\n        /* \"ConcejoDeliberante/contracts/ActuacionBase.sol\":1823:1847  !actuaciones[_id].existe */\n      iszero\n        /* \"ConcejoDeliberante/contracts/ActuacionBase.sol\":1815:1874  require(!actuaciones[_id].existe, \"La actuacion ya existe\") */\n      tag_97\n      jumpi\n      mload(0x40)\n      0x08c379a000000000000000000000000000000000000000000000000000000000\n      dup2\n      mstore\n      0x04\n      add\n      tag_98\n      swap1\n      tag_99\n      jump\t// in\n    tag_98:\n      mload(0x40)\n      dup1\n      swap2\n      sub\n      swap1\n      revert\n    tag_97:\n        /* \"ConcejoDeliberante/contracts/ActuacionBase.sol\":1893:1912  Actuacion storage a */\n      0x00\n        /* \"ConcejoDeliberante/contracts/ActuacionBase.sol\":1915:1926  actuaciones */\n      0x01\n        /* \"ConcejoDeliberante/contracts/ActuacionBase.sol\":1915:1931  actuaciones[_id] */\n      0x00\n        /* \"ConcejoDeliberante/contracts/ActuacionBase.sol\":1927:1930  _id */\n      dup8\n        /* \"ConcejoDeliberante/contracts/ActuacionBase.sol\":1915:1931  actuaciones[_id] */\n      dup2\n      mstore\n      0x20\n      add\n      swap1\n      dup2\n      mstore\n      0x20\n      add\n      0x00\n      keccak256\n        /* \"ConcejoDeliberante/contracts/ActuacionBase.sol\":1893:1931  Actuacion storage a = actuaciones[_id] */\n      swap1\n      pop\n        /* \"ConcejoDeliberante/contracts/ActuacionBase.sol\":1959:1963  true */\n      0x01\n        /* \"ConcejoDeliberante/contracts/ActuacionBase.sol\":1941:1942  a */\n      dup2\n        /* \"ConcejoDeliberante/contracts/ActuacionBase.sol\":1941:1949  a.existe */\n      0x02\n      add\n      0x00\n        /* \"ConcejoDeliberante/contracts/ActuacionBase.sol\":1941:1963  a.existe        = true */\n      0x0100\n      exp\n      dup2\n      sload\n      dup2\n      0xff\n      mul\n      not\n      and\n      swap1\n      dup4\n      iszero\n      iszero\n      mul\n      or\n      swap1\n      sstore\n      pop\n        /* \"ConcejoDeliberante/contracts/ActuacionBase.sol\":1991:2000  _dniAutor */\n      dup5\n        /* \"ConcejoDeliberante/contracts/ActuacionBase.sol\":1973:1974  a */\n      dup2\n        /* \"ConcejoDeliberante/contracts/ActuacionBase.sol\":1973:1983  a.dniAutor */\n      0x01\n      add\n        /* \"ConcejoDeliberante/contracts/ActuacionBase.sol\":1973:2000  a.dniAutor      = _dniAutor */\n      dup2\n      swap1\n      sstore\n      pop\n        /* \"ConcejoDeliberante/contracts/ActuacionBase.sol\":2028:2042  _fechaCreacion */\n      dup2\n        /* \"ConcejoDeliberante/contracts/ActuacionBase.sol\":2010:2011  a */\n      dup2\n        /* \"ConcejoDeliberante/contracts/ActuacionBase.sol\":2010:2025  a.fechaCreacion */\n      0x00\n      add\n        /* \"ConcejoDeliberante/contracts/ActuacionBase.sol\":2010:2042  a.fechaCreacion = _fechaCreacion */\n      dup2\n      swap1\n      sstore\n      pop\n        /* \"ConcejoDeliberante/contracts/ActuacionBase.sol\":2053:2054  a */\n      dup1\n        /* \"ConcejoDeliberante/contracts/ActuacionBase.sol\":2053:2064  a.historial */\n      0x03\n      add\n        /* \"ConcejoDeliberante/contracts/ActuacionBase.sol\":2070:2233  Cambio({... */\n      mload(0x40)\n      dup1\n      0x80\n      add\n      0x40\n      mstore\n      dup1\n        /* \"ConcejoDeliberante/contracts/ActuacionBase.sol\":2107:2122  block.timestamp */\n      timestamp\n        /* \"ConcejoDeliberante/contracts/ActuacionBase.sol\":2070:2233  Cambio({... */\n      dup2\n      mstore\n      0x20\n      add\n        /* \"ConcejoDeliberante/contracts/ActuacionBase.sol\":2210:2222  _estadoNuevo */\n      dup7\n        /* \"ConcejoDeliberante/contracts/ActuacionBase.sol\":2070:2233  Cambio({... */\n      0xff\n      and\n      dup2\n      mstore\n      0x20\n      add\n        /* \"ConcejoDeliberante/contracts/ActuacionBase.sol\":2183:2188  _hash */\n      dup6\n        /* \"ConcejoDeliberante/contracts/ActuacionBase.sol\":2070:2233  Cambio({... */\n      dup2\n      mstore\n      0x20\n      add\n        /* \"ConcejoDeliberante/contracts/ActuacionBase.sol\":2152:2162  msg.sender */\n      caller\n        /* \"ConcejoDeliberante/contracts/ActuacionBase.sol\":2070:2233  Cambio({... */\n      0xffffffffffffffffffffffffffffffffffffffff\n      and\n      dup2\n      mstore\n      pop\n        /* \"ConcejoDeliberante/contracts/ActuacionBase.sol\":2053:2234  a.historial.push(Cambio({... */\n      swap1\n      dup1\n      0x01\n      dup2\n      sload\n      add\n      dup1\n      dup3\n      sstore\n      dup1\n      swap2\n      pop\n      pop\n      0x01\n      swap1\n      sub\n      swap1\n      0x00\n      mstore\n      keccak256(0x00, 0x20)\n      swap1\n      0x04\n      mul\n      add\n      0x00\n      swap1\n      swap2\n      swap1\n      swap2\n      swap1\n      swap2\n      pop\n      0x00\n      dup3\n      add\n      mload\n      dup2\n      0x00\n      add\n      sstore\n      0x20\n      dup3\n      add\n      mload\n      dup2\n      0x01\n      add\n      exp(0x0100, 0x00)\n      dup2\n      sload\n      dup2\n      0xff\n      mul\n      not\n      and\n      swap1\n      dup4\n      0xff\n      and\n      mul\n      or\n      swap1\n      sstore\n      pop\n      0x40\n      dup3\n      add\n      mload\n      dup2\n      0x02\n      add\n      sstore\n      0x60\n      dup3\n      add\n      mload\n      dup2\n      0x03\n      add\n      exp(0x0100, 0x00)\n      dup2\n      sload\n      dup2\n      0xffffffffffffffffffffffffffffffffffffffff\n      mul\n      not\n      and\n      swap1\n      dup4\n      0xffffffffffffffffffffffffffffffffffffffff\n      and\n      mul\n      or\n      swap1\n      sstore\n      pop\n      pop\n      pop\n        /* \"ConcejoDeliberante/contracts/ActuacionBase.sol\":2245:2248  ids */\n      0x02\n        /* \"ConcejoDeliberante/contracts/ActuacionBase.sol\":2254:2257  _id */\n      dup7\n        /* \"ConcejoDeliberante/contracts/ActuacionBase.sol\":2245:2258  ids.push(_id) */\n      swap1\n      dup1\n      0x01\n      dup2\n      sload\n      add\n      dup1\n      dup3\n      sstore\n      dup1\n      swap2\n      pop\n      pop\n      0x01\n      swap1\n      sub\n      swap1\n      0x00\n      mstore\n      keccak256(0x00, 0x20)\n      add\n      0x00\n      swap1\n      swap2\n      swap1\n      swap2\n      swap1\n      swap2\n      pop\n      sstore\n        /* \"ConcejoDeliberante/contracts/ActuacionBase.sol\":2274:2344  ActuacionAgregada(_id, _fechaCreacion, _dniAutor, _estadoNuevo, _hash) */\n      0x164383a2b97191661e35fd7054520c2abdf173025e32983b038ecb35a796cda7\n        /* \"ConcejoDeliberante/contracts/ActuacionBase.sol\":2292:2295  _id */\n      dup7\n        /* \"ConcejoDeliberante/contracts/ActuacionBase.sol\":2297:2311  _fechaCreacion */\n      dup4\n        /* \"ConcejoDeliberante/contracts/ActuacionBase.sol\":2313:2322  _dniAutor */\n      dup8\n        /* \"ConcejoDeliberante/contracts/ActuacionBase.sol\":2324:2336  _estadoNuevo */\n      dup8\n        /* \"ConcejoDeliberante/contracts/ActuacionBase.sol\":2338:2343  _hash */\n      dup8\n        /* \"ConcejoDeliberante/contracts/ActuacionBase.sol\":2274:2344  ActuacionAgregada(_id, _fechaCreacion, _dniAutor, _estadoNuevo, _hash) */\n      mload(0x40)\n      tag_102\n      swap6\n      swap5\n      swap4\n      swap3\n      swap2\n      swap1\n      tag_103\n      jump\t// in\n    tag_102:\n      mload(0x40)\n      dup1\n      swap2\n      sub\n      swap1\n      log1\n        /* \"ConcejoDeliberante/contracts/ActuacionBase.sol\":1796:2351  {... */\n      pop\n        /* \"ConcejoDeliberante/contracts/ActuacionBase.sol\":1624:2351  function _inicializarActuacion(... */\n      pop\n      pop\n      pop\n      pop\n      pop\n      jump\t// out\n        /* \"ConcejoDeliberante/contracts/ActuacionBase.sol\":2941:3521  function _modificarActuacion(uint256 _id, uint8 _estadoNuevo, bytes32 _hashNuevo)... */\n    tag_68:\n        /* \"ConcejoDeliberante/contracts/ActuacionBase.sol\":3057:3069  bool success */\n      0x00\n        /* \"ConcejoDeliberante/contracts/ActuacionBase.sol\":3093:3104  actuaciones */\n      0x01\n        /* \"ConcejoDeliberante/contracts/ActuacionBase.sol\":3093:3109  actuaciones[_id] */\n      0x00\n        /* \"ConcejoDeliberante/contracts/ActuacionBase.sol\":3105:3108  _id */\n      dup6\n        /* \"ConcejoDeliberante/contracts/ActuacionBase.sol\":3093:3109  actuaciones[_id] */\n      dup2\n      mstore\n      0x20\n      add\n      swap1\n      dup2\n      mstore\n      0x20\n      add\n      0x00\n      keccak256\n        /* \"ConcejoDeliberante/contracts/ActuacionBase.sol\":3093:3116  actuaciones[_id].existe */\n      0x02\n      add\n      0x00\n      swap1\n      sload\n      swap1\n      0x0100\n      exp\n      swap1\n      div\n      0xff\n      and\n        /* \"ConcejoDeliberante/contracts/ActuacionBase.sol\":3085:3143  require(actuaciones[_id].existe, \"La actuacion no existe\") */\n      tag_105\n      jumpi\n      mload(0x40)\n      0x08c379a000000000000000000000000000000000000000000000000000000000\n      dup2\n      mstore\n      0x04\n      add\n      tag_106\n      swap1\n      tag_92\n      jump\t// in\n    tag_106:\n      mload(0x40)\n      dup1\n      swap2\n      sub\n      swap1\n      revert\n    tag_105:\n        /* \"ConcejoDeliberante/contracts/ActuacionBase.sol\":3175:3186  propietario */\n      0x00\n      0x00\n      swap1\n      sload\n      swap1\n      0x0100\n      exp\n      swap1\n      div\n      0xffffffffffffffffffffffffffffffffffffffff\n      and\n        /* \"ConcejoDeliberante/contracts/ActuacionBase.sol\":3161:3186  msg.sender == propietario */\n      0xffffffffffffffffffffffffffffffffffffffff\n      and\n        /* \"ConcejoDeliberante/contracts/ActuacionBase.sol\":3161:3171  msg.sender */\n      caller\n        /* \"ConcejoDeliberante/contracts/ActuacionBase.sol\":3161:3186  msg.sender == propietario */\n      0xffffffffffffffffffffffffffffffffffffffff\n      and\n      eq\n        /* \"ConcejoDeliberante/contracts/ActuacionBase.sol\":3153:3211  require(msg.sender == propietario, \"No es el propietario\") */\n      tag_107\n      jumpi\n      mload(0x40)\n      0x08c379a000000000000000000000000000000000000000000000000000000000\n      dup2\n      mstore\n      0x04\n      add\n      tag_108\n      swap1\n      tag_109\n      jump\t// in\n    tag_108:\n      mload(0x40)\n      dup1\n      swap2\n      sub\n      swap1\n      revert\n    tag_107:\n        /* \"ConcejoDeliberante/contracts/ActuacionBase.sol\":3222:3233  actuaciones */\n      0x01\n        /* \"ConcejoDeliberante/contracts/ActuacionBase.sol\":3222:3238  actuaciones[_id] */\n      0x00\n        /* \"ConcejoDeliberante/contracts/ActuacionBase.sol\":3234:3237  _id */\n      dup6\n        /* \"ConcejoDeliberante/contracts/ActuacionBase.sol\":3222:3238  actuaciones[_id] */\n      dup2\n      mstore\n      0x20\n      add\n      swap1\n      dup2\n      mstore\n      0x20\n      add\n      0x00\n      keccak256\n        /* \"ConcejoDeliberante/contracts/ActuacionBase.sol\":3222:3248  actuaciones[_id].historial */\n      0x03\n      add\n        /* \"ConcejoDeliberante/contracts/ActuacionBase.sol\":3254:3426  Cambio({... */\n      mload(0x40)\n      dup1\n      0x80\n      add\n      0x40\n      mstore\n      dup1\n        /* \"ConcejoDeliberante/contracts/ActuacionBase.sol\":3290:3305  block.timestamp */\n      timestamp\n        /* \"ConcejoDeliberante/contracts/ActuacionBase.sol\":3254:3426  Cambio({... */\n      dup2\n      mstore\n      0x20\n      add\n        /* \"ConcejoDeliberante/contracts/ActuacionBase.sol\":3403:3415  _estadoNuevo */\n      dup6\n        /* \"ConcejoDeliberante/contracts/ActuacionBase.sol\":3254:3426  Cambio({... */\n      0xff\n      and\n      dup2\n      mstore\n      0x20\n      add\n        /* \"ConcejoDeliberante/contracts/ActuacionBase.sol\":3364:3374  _hashNuevo */\n      dup5\n        /* \"ConcejoDeliberante/contracts/ActuacionBase.sol\":3254:3426  Cambio({... */\n      dup2\n      mstore\n      0x20\n      add\n        /* \"ConcejoDeliberante/contracts/ActuacionBase.sol\":3334:3344  msg.sender */\n      caller\n        /* \"ConcejoDeliberante/contracts/ActuacionBase.sol\":3254:3426  Cambio({... */\n      0xffffffffffffffffffffffffffffffffffffffff\n      and\n      dup2\n      mstore\n      pop\n        /* \"ConcejoDeliberante/contracts/ActuacionBase.sol\":3222:3427  actuaciones[_id].historial.push(Cambio({... */\n      swap1\n      dup1\n      0x01\n      dup2\n      sload\n      add\n      dup1\n      dup3\n      sstore\n      dup1\n      swap2\n      pop\n      pop\n      0x01\n      swap1\n      sub\n      swap1\n      0x00\n      mstore\n      keccak256(0x00, 0x20)\n      swap1\n      0x04\n      mul\n      add\n      0x00\n      swap1\n      swap2\n      swap1\n      swap2\n      swap1\n      swap2\n      pop\n      0x00\n      dup3\n      add\n      mload\n      dup2\n      0x00\n      add\n      sstore\n      0x20\n      dup3\n      add\n      mload\n      dup2\n      0x01\n      add\n      exp(0x0100, 0x00)\n      dup2\n      sload\n      dup2\n      0xff\n      mul\n      not\n      and\n      swap1\n      dup4\n      0xff\n      and\n      mul\n      or\n      swap1\n      sstore\n      pop\n      0x40\n      dup3\n      add\n      mload\n      dup2\n      0x02\n      add\n      sstore\n      0x60\n      dup3\n      add\n      mload\n      dup2\n      0x03\n      add\n      exp(0x0100, 0x00)\n      dup2\n      sload\n      dup2\n      0xffffffffffffffffffffffffffffffffffffffff\n      mul\n      not\n      and\n      swap1\n      dup4\n      0xffffffffffffffffffffffffffffffffffffffff\n      and\n      mul\n      or\n      swap1\n      sstore\n      pop\n      pop\n      pop\n        /* \"ConcejoDeliberante/contracts/ActuacionBase.sol\":3443:3493  ActuacionModificada(_id, _estadoNuevo, _hashNuevo) */\n      0x02fd7cca134bdc372692f9e8679a7046060ca6da0c386e7494b18b9c21b10652\n        /* \"ConcejoDeliberante/contracts/ActuacionBase.sol\":3463:3466  _id */\n      dup5\n        /* \"ConcejoDeliberante/contracts/ActuacionBase.sol\":3468:3480  _estadoNuevo */\n      dup5\n        /* \"ConcejoDeliberante/contracts/ActuacionBase.sol\":3482:3492  _hashNuevo */\n      dup5\n        /* \"ConcejoDeliberante/contracts/ActuacionBase.sol\":3443:3493  ActuacionModificada(_id, _estadoNuevo, _hashNuevo) */\n      mload(0x40)\n      tag_111\n      swap4\n      swap3\n      swap2\n      swap1\n      tag_70\n      jump\t// in\n    tag_111:\n      mload(0x40)\n      dup1\n      swap2\n      sub\n      swap1\n      log1\n        /* \"ConcejoDeliberante/contracts/ActuacionBase.sol\":3510:3514  true */\n      0x01\n        /* \"ConcejoDeliberante/contracts/ActuacionBase.sol\":3503:3514  return true */\n      swap1\n      pop\n        /* \"ConcejoDeliberante/contracts/ActuacionBase.sol\":2941:3521  function _modificarActuacion(uint256 _id, uint8 _estadoNuevo, bytes32 _hashNuevo)... */\n      swap4\n      swap3\n      pop\n      pop\n      pop\n      jump\t// out\n        /* \"ConcejoDeliberante/contracts/ActuacionBase.sol\":3723:4252  function _eliminarActuacion (uint256 _id, uint8 _estadoNuevo) internal {... */\n    tag_86:\n        /* \"ConcejoDeliberante/contracts/ActuacionBase.sol\":3812:3823  actuaciones */\n      0x01\n        /* \"ConcejoDeliberante/contracts/ActuacionBase.sol\":3812:3828  actuaciones[_id] */\n      0x00\n        /* \"ConcejoDeliberante/contracts/ActuacionBase.sol\":3824:3827  _id */\n      dup4\n        /* \"ConcejoDeliberante/contracts/ActuacionBase.sol\":3812:3828  actuaciones[_id] */\n      dup2\n      mstore\n      0x20\n      add\n      swap1\n      dup2\n      mstore\n      0x20\n      add\n      0x00\n      keccak256\n        /* \"ConcejoDeliberante/contracts/ActuacionBase.sol\":3812:3835  actuaciones[_id].existe */\n      0x02\n      add\n      0x00\n      swap1\n      sload\n      swap1\n      0x0100\n      exp\n      swap1\n      div\n      0xff\n      and\n        /* \"ConcejoDeliberante/contracts/ActuacionBase.sol\":3804:3862  require(actuaciones[_id].existe, \"La actuacion no existe\") */\n      tag_113\n      jumpi\n      mload(0x40)\n      0x08c379a000000000000000000000000000000000000000000000000000000000\n      dup2\n      mstore\n      0x04\n      add\n      tag_114\n      swap1\n      tag_92\n      jump\t// in\n    tag_114:\n      mload(0x40)\n      dup1\n      swap2\n      sub\n      swap1\n      revert\n    tag_113:\n        /* \"ConcejoDeliberante/contracts/ActuacionBase.sol\":3894:3905  propietario */\n      0x00\n      0x00\n      swap1\n      sload\n      swap1\n      0x0100\n      exp\n      swap1\n      div\n      0xffffffffffffffffffffffffffffffffffffffff\n      and\n        /* \"ConcejoDeliberante/contracts/ActuacionBase.sol\":3880:3905  msg.sender == propietario */\n      0xffffffffffffffffffffffffffffffffffffffff\n      and\n        /* \"ConcejoDeliberante/contracts/ActuacionBase.sol\":3880:3890  msg.sender */\n      caller\n        /* \"ConcejoDeliberante/contracts/ActuacionBase.sol\":3880:3905  msg.sender == propietario */\n      0xffffffffffffffffffffffffffffffffffffffff\n      and\n      eq\n        /* \"ConcejoDeliberante/contracts/ActuacionBase.sol\":3872:3930  require(msg.sender == propietario, \"No es el propietario\") */\n      tag_115\n      jumpi\n      mload(0x40)\n      0x08c379a000000000000000000000000000000000000000000000000000000000\n      dup2\n      mstore\n      0x04\n      add\n      tag_116\n      swap1\n      tag_109\n      jump\t// in\n    tag_116:\n      mload(0x40)\n      dup1\n      swap2\n      sub\n      swap1\n      revert\n    tag_115:\n        /* \"ConcejoDeliberante/contracts/ActuacionBase.sol\":3940:3951  actuaciones */\n      0x01\n        /* \"ConcejoDeliberante/contracts/ActuacionBase.sol\":3940:3956  actuaciones[_id] */\n      0x00\n        /* \"ConcejoDeliberante/contracts/ActuacionBase.sol\":3952:3955  _id */\n      dup4\n        /* \"ConcejoDeliberante/contracts/ActuacionBase.sol\":3940:3956  actuaciones[_id] */\n      dup2\n      mstore\n      0x20\n      add\n      swap1\n      dup2\n      mstore\n      0x20\n      add\n      0x00\n      keccak256\n        /* \"ConcejoDeliberante/contracts/ActuacionBase.sol\":3940:3966  actuaciones[_id].historial */\n      0x03\n      add\n        /* \"ConcejoDeliberante/contracts/ActuacionBase.sol\":3972:4191  Cambio({... */\n      mload(0x40)\n      dup1\n      0x80\n      add\n      0x40\n      mstore\n      dup1\n        /* \"ConcejoDeliberante/contracts/ActuacionBase.sol\":4008:4023  block.timestamp */\n      timestamp\n        /* \"ConcejoDeliberante/contracts/ActuacionBase.sol\":3972:4191  Cambio({... */\n      dup2\n      mstore\n      0x20\n      add\n        /* \"ConcejoDeliberante/contracts/ActuacionBase.sol\":4168:4180  _estadoNuevo */\n      dup4\n        /* \"ConcejoDeliberante/contracts/ActuacionBase.sol\":3972:4191  Cambio({... */\n      0xff\n      and\n      dup2\n      mstore\n      0x20\n      add\n        /* \"ConcejoDeliberante/contracts/ActuacionBase.sol\":4090:4091  0 */\n      0x00\n        /* \"ConcejoDeliberante/contracts/ActuacionBase.sol\":4082:4092  bytes32(0) */\n      0x00\n      shl\n        /* \"ConcejoDeliberante/contracts/ActuacionBase.sol\":3972:4191  Cambio({... */\n      dup2\n      mstore\n      0x20\n      add\n        /* \"ConcejoDeliberante/contracts/ActuacionBase.sol\":4052:4062  msg.sender */\n      caller\n        /* \"ConcejoDeliberante/contracts/ActuacionBase.sol\":3972:4191  Cambio({... */\n      0xffffffffffffffffffffffffffffffffffffffff\n      and\n      dup2\n      mstore\n      pop\n        /* \"ConcejoDeliberante/contracts/ActuacionBase.sol\":3940:4192  actuaciones[_id].historial.push(Cambio({... */\n      swap1\n      dup1\n      0x01\n      dup2\n      sload\n      add\n      dup1\n      dup3\n      sstore\n      dup1\n      swap2\n      pop\n      pop\n      0x01\n      swap1\n      sub\n      swap1\n      0x00\n      mstore\n      keccak256(0x00, 0x20)\n      swap1\n      0x04\n      mul\n      add\n      0x00\n      swap1\n      swap2\n      swap1\n      swap2\n      swap1\n      swap2\n      pop\n      0x00\n      dup3\n      add\n      mload\n      dup2\n      0x00\n      add\n      sstore\n      0x20\n      dup3\n      add\n      mload\n      dup2\n      0x01\n      add\n      exp(0x0100, 0x00)\n      dup2\n      sload\n      dup2\n      0xff\n      mul\n      not\n      and\n      swap1\n      dup4\n      0xff\n      and\n      mul\n      or\n      swap1\n      sstore\n      pop\n      0x40\n      dup3\n      add\n      mload\n      dup2\n      0x02\n      add\n      sstore\n      0x60\n      dup3\n      add\n      mload\n      dup2\n      0x03\n      add\n      exp(0x0100, 0x00)\n      dup2\n      sload\n      dup2\n      0xffffffffffffffffffffffffffffffffffffffff\n      mul\n      not\n      and\n      swap1\n      dup4\n      0xffffffffffffffffffffffffffffffffffffffff\n      and\n      mul\n      or\n      swap1\n      sstore\n      pop\n      pop\n      pop\n        /* \"ConcejoDeliberante/contracts/ActuacionBase.sol\":4208:4245  ActuacionEliminada(_id, _estadoNuevo) */\n      0x55f3b2b2bc9c07499976075b3a9a78344b888c51b194889c9214c6eba4bf0113\n        /* \"ConcejoDeliberante/contracts/ActuacionBase.sol\":4227:4230  _id */\n      dup3\n        /* \"ConcejoDeliberante/contracts/ActuacionBase.sol\":4232:4244  _estadoNuevo */\n      dup3\n        /* \"ConcejoDeliberante/contracts/ActuacionBase.sol\":4208:4245  ActuacionEliminada(_id, _estadoNuevo) */\n      mload(0x40)\n      tag_118\n      swap3\n      swap2\n      swap1\n      tag_119\n      jump\t// in\n    tag_118:\n      mload(0x40)\n      dup1\n      swap2\n      sub\n      swap1\n      log1\n        /* \"ConcejoDeliberante/contracts/ActuacionBase.sol\":3723:4252  function _eliminarActuacion (uint256 _id, uint8 _estadoNuevo) internal {... */\n      pop\n      pop\n      jump\t// out\n    tag_88:\n      mload(0x40)\n      dup1\n      0x80\n      add\n      0x40\n      mstore\n      dup1\n      0x00\n      dup2\n      mstore\n      0x20\n      add\n      0x00\n      dup2\n      mstore\n      0x20\n      add\n      iszero(iszero(0x00))\n      dup2\n      mstore\n      0x20\n      add\n      0x60\n      dup2\n      mstore\n      pop\n      swap1\n      jump\t// out\n        /* \"#utility.yul\":88:205   */\n    tag_121:\n        /* \"#utility.yul\":197:198   */\n      0x00\n        /* \"#utility.yul\":194:195   */\n      0x00\n        /* \"#utility.yul\":187:199   */\n      revert\n        /* \"#utility.yul\":334:411   */\n    tag_123:\n        /* \"#utility.yul\":371:378   */\n      0x00\n        /* \"#utility.yul\":400:405   */\n      dup2\n        /* \"#utility.yul\":389:405   */\n      swap1\n      pop\n        /* \"#utility.yul\":334:411   */\n      swap2\n      swap1\n      pop\n      jump\t// out\n        /* \"#utility.yul\":417:539   */\n    tag_124:\n        /* \"#utility.yul\":490:514   */\n      tag_173\n        /* \"#utility.yul\":508:513   */\n      dup2\n        /* \"#utility.yul\":490:514   */\n      tag_123\n      jump\t// in\n    tag_173:\n        /* \"#utility.yul\":483:488   */\n      dup2\n        /* \"#utility.yul\":480:515   */\n      eq\n        /* \"#utility.yul\":470:533   */\n      tag_174\n      jumpi\n        /* \"#utility.yul\":529:530   */\n      0x00\n        /* \"#utility.yul\":526:527   */\n      0x00\n        /* \"#utility.yul\":519:531   */\n      revert\n        /* \"#utility.yul\":470:533   */\n    tag_174:\n        /* \"#utility.yul\":417:539   */\n      pop\n      jump\t// out\n        /* \"#utility.yul\":545:684   */\n    tag_125:\n        /* \"#utility.yul\":591:596   */\n      0x00\n        /* \"#utility.yul\":629:635   */\n      dup2\n        /* \"#utility.yul\":616:636   */\n      calldataload\n        /* \"#utility.yul\":607:636   */\n      swap1\n      pop\n        /* \"#utility.yul\":645:678   */\n      tag_176\n        /* \"#utility.yul\":672:677   */\n      dup2\n        /* \"#utility.yul\":645:678   */\n      tag_124\n      jump\t// in\n    tag_176:\n        /* \"#utility.yul\":545:684   */\n      swap3\n      swap2\n      pop\n      pop\n      jump\t// out\n        /* \"#utility.yul\":690:1019   */\n    tag_13:\n        /* \"#utility.yul\":749:755   */\n      0x00\n        /* \"#utility.yul\":798:800   */\n      0x20\n        /* \"#utility.yul\":786:795   */\n      dup3\n        /* \"#utility.yul\":777:784   */\n      dup5\n        /* \"#utility.yul\":773:796   */\n      sub\n        /* \"#utility.yul\":769:801   */\n      slt\n        /* \"#utility.yul\":766:885   */\n      iszero\n      tag_178\n      jumpi\n        /* \"#utility.yul\":804:883   */\n      tag_179\n      tag_121\n      jump\t// in\n    tag_179:\n        /* \"#utility.yul\":766:885   */\n    tag_178:\n        /* \"#utility.yul\":924:925   */\n      0x00\n        /* \"#utility.yul\":949:1002   */\n      tag_180\n        /* \"#utility.yul\":994:1001   */\n      dup5\n        /* \"#utility.yul\":985:991   */\n      dup3\n        /* \"#utility.yul\":974:983   */\n      dup6\n        /* \"#utility.yul\":970:992   */\n      add\n        /* \"#utility.yul\":949:1002   */\n      tag_125\n      jump\t// in\n    tag_180:\n        /* \"#utility.yul\":939:1002   */\n      swap2\n      pop\n        /* \"#utility.yul\":895:1012   */\n      pop\n        /* \"#utility.yul\":690:1019   */\n      swap3\n      swap2\n      pop\n      pop\n      jump\t// out\n        /* \"#utility.yul\":1025:1161   */\n    tag_126:\n        /* \"#utility.yul\":1114:1120   */\n      0x00\n        /* \"#utility.yul\":1148:1153   */\n      dup2\n        /* \"#utility.yul\":1142:1154   */\n      mload\n        /* \"#utility.yul\":1132:1154   */\n      swap1\n      pop\n        /* \"#utility.yul\":1025:1161   */\n      swap2\n      swap1\n      pop\n      jump\t// out\n        /* \"#utility.yul\":1167:1373   */\n    tag_127:\n        /* \"#utility.yul\":1288:1299   */\n      0x00\n        /* \"#utility.yul\":1322:1328   */\n      dup3\n        /* \"#utility.yul\":1317:1320   */\n      dup3\n        /* \"#utility.yul\":1310:1329   */\n      mstore\n        /* \"#utility.yul\":1362:1366   */\n      0x20\n        /* \"#utility.yul\":1357:1360   */\n      dup3\n        /* \"#utility.yul\":1353:1367   */\n      add\n        /* \"#utility.yul\":1338:1367   */\n      swap1\n      pop\n        /* \"#utility.yul\":1167:1373   */\n      swap3\n      swap2\n      pop\n      pop\n      jump\t// out\n        /* \"#utility.yul\":1379:1533   */\n    tag_128:\n        /* \"#utility.yul\":1468:1472   */\n      0x00\n        /* \"#utility.yul\":1491:1494   */\n      dup2\n        /* \"#utility.yul\":1483:1494   */\n      swap1\n      pop\n        /* \"#utility.yul\":1521:1525   */\n      0x20\n        /* \"#utility.yul\":1516:1519   */\n      dup3\n        /* \"#utility.yul\":1512:1526   */\n      add\n        /* \"#utility.yul\":1504:1526   */\n      swap1\n      pop\n        /* \"#utility.yul\":1379:1533   */\n      swap2\n      swap1\n      pop\n      jump\t// out\n        /* \"#utility.yul\":1539:1647   */\n    tag_129:\n        /* \"#utility.yul\":1616:1640   */\n      tag_185\n        /* \"#utility.yul\":1634:1639   */\n      dup2\n        /* \"#utility.yul\":1616:1640   */\n      tag_123\n      jump\t// in\n    tag_185:\n        /* \"#utility.yul\":1611:1614   */\n      dup3\n        /* \"#utility.yul\":1604:1641   */\n      mstore\n        /* \"#utility.yul\":1539:1647   */\n      pop\n      pop\n      jump\t// out\n        /* \"#utility.yul\":1653:1739   */\n    tag_130:\n        /* \"#utility.yul\":1688:1695   */\n      0x00\n        /* \"#utility.yul\":1728:1732   */\n      0xff\n        /* \"#utility.yul\":1721:1726   */\n      dup3\n        /* \"#utility.yul\":1717:1733   */\n      and\n        /* \"#utility.yul\":1706:1733   */\n      swap1\n      pop\n        /* \"#utility.yul\":1653:1739   */\n      swap2\n      swap1\n      pop\n      jump\t// out\n        /* \"#utility.yul\":1745:1847   */\n    tag_131:\n        /* \"#utility.yul\":1818:1840   */\n      tag_188\n        /* \"#utility.yul\":1834:1839   */\n      dup2\n        /* \"#utility.yul\":1818:1840   */\n      tag_130\n      jump\t// in\n    tag_188:\n        /* \"#utility.yul\":1813:1816   */\n      dup3\n        /* \"#utility.yul\":1806:1841   */\n      mstore\n        /* \"#utility.yul\":1745:1847   */\n      pop\n      pop\n      jump\t// out\n        /* \"#utility.yul\":1853:1930   */\n    tag_132:\n        /* \"#utility.yul\":1890:1897   */\n      0x00\n        /* \"#utility.yul\":1919:1924   */\n      dup2\n        /* \"#utility.yul\":1908:1924   */\n      swap1\n      pop\n        /* \"#utility.yul\":1853:1930   */\n      swap2\n      swap1\n      pop\n      jump\t// out\n        /* \"#utility.yul\":1936:2044   */\n    tag_133:\n        /* \"#utility.yul\":2013:2037   */\n      tag_191\n        /* \"#utility.yul\":2031:2036   */\n      dup2\n        /* \"#utility.yul\":2013:2037   */\n      tag_132\n      jump\t// in\n    tag_191:\n        /* \"#utility.yul\":2008:2011   */\n      dup3\n        /* \"#utility.yul\":2001:2038   */\n      mstore\n        /* \"#utility.yul\":1936:2044   */\n      pop\n      pop\n      jump\t// out\n        /* \"#utility.yul\":2050:2176   */\n    tag_134:\n        /* \"#utility.yul\":2087:2094   */\n      0x00\n        /* \"#utility.yul\":2127:2169   */\n      0xffffffffffffffffffffffffffffffffffffffff\n        /* \"#utility.yul\":2120:2125   */\n      dup3\n        /* \"#utility.yul\":2116:2170   */\n      and\n        /* \"#utility.yul\":2105:2170   */\n      swap1\n      pop\n        /* \"#utility.yul\":2050:2176   */\n      swap2\n      swap1\n      pop\n      jump\t// out\n        /* \"#utility.yul\":2182:2278   */\n    tag_135:\n        /* \"#utility.yul\":2219:2226   */\n      0x00\n        /* \"#utility.yul\":2248:2272   */\n      tag_194\n        /* \"#utility.yul\":2266:2271   */\n      dup3\n        /* \"#utility.yul\":2248:2272   */\n      tag_134\n      jump\t// in\n    tag_194:\n        /* \"#utility.yul\":2237:2272   */\n      swap1\n      pop\n        /* \"#utility.yul\":2182:2278   */\n      swap2\n      swap1\n      pop\n      jump\t// out\n        /* \"#utility.yul\":2284:2392   */\n    tag_136:\n        /* \"#utility.yul\":2361:2385   */\n      tag_196\n        /* \"#utility.yul\":2379:2384   */\n      dup2\n        /* \"#utility.yul\":2361:2385   */\n      tag_135\n      jump\t// in\n    tag_196:\n        /* \"#utility.yul\":2356:2359   */\n      dup3\n        /* \"#utility.yul\":2349:2386   */\n      mstore\n        /* \"#utility.yul\":2284:2392   */\n      pop\n      pop\n      jump\t// out\n        /* \"#utility.yul\":2464:3315   */\n    tag_137:\n        /* \"#utility.yul\":2595:2599   */\n      0x80\n        /* \"#utility.yul\":2590:2593   */\n      dup3\n        /* \"#utility.yul\":2586:2600   */\n      add\n        /* \"#utility.yul\":2687:2691   */\n      0x00\n        /* \"#utility.yul\":2680:2685   */\n      dup3\n        /* \"#utility.yul\":2676:2692   */\n      add\n        /* \"#utility.yul\":2670:2693   */\n      mload\n        /* \"#utility.yul\":2706:2769   */\n      tag_198\n        /* \"#utility.yul\":2763:2767   */\n      0x00\n        /* \"#utility.yul\":2758:2761   */\n      dup6\n        /* \"#utility.yul\":2754:2768   */\n      add\n        /* \"#utility.yul\":2740:2752   */\n      dup3\n        /* \"#utility.yul\":2706:2769   */\n      tag_129\n      jump\t// in\n    tag_198:\n        /* \"#utility.yul\":2610:2779   */\n      pop\n        /* \"#utility.yul\":2863:2867   */\n      0x20\n        /* \"#utility.yul\":2856:2861   */\n      dup3\n        /* \"#utility.yul\":2852:2868   */\n      add\n        /* \"#utility.yul\":2846:2869   */\n      mload\n        /* \"#utility.yul\":2882:2941   */\n      tag_199\n        /* \"#utility.yul\":2935:2939   */\n      0x20\n        /* \"#utility.yul\":2930:2933   */\n      dup6\n        /* \"#utility.yul\":2926:2940   */\n      add\n        /* \"#utility.yul\":2912:2924   */\n      dup3\n        /* \"#utility.yul\":2882:2941   */\n      tag_131\n      jump\t// in\n    tag_199:\n        /* \"#utility.yul\":2789:2951   */\n      pop\n        /* \"#utility.yul\":3033:3037   */\n      0x40\n        /* \"#utility.yul\":3026:3031   */\n      dup3\n        /* \"#utility.yul\":3022:3038   */\n      add\n        /* \"#utility.yul\":3016:3039   */\n      mload\n        /* \"#utility.yul\":3052:3115   */\n      tag_200\n        /* \"#utility.yul\":3109:3113   */\n      0x40\n        /* \"#utility.yul\":3104:3107   */\n      dup6\n        /* \"#utility.yul\":3100:3114   */\n      add\n        /* \"#utility.yul\":3086:3098   */\n      dup3\n        /* \"#utility.yul\":3052:3115   */\n      tag_133\n      jump\t// in\n    tag_200:\n        /* \"#utility.yul\":2961:3125   */\n      pop\n        /* \"#utility.yul\":3216:3220   */\n      0x60\n        /* \"#utility.yul\":3209:3214   */\n      dup3\n        /* \"#utility.yul\":3205:3221   */\n      add\n        /* \"#utility.yul\":3199:3222   */\n      mload\n        /* \"#utility.yul\":3235:3298   */\n      tag_201\n        /* \"#utility.yul\":3292:3296   */\n      0x60\n        /* \"#utility.yul\":3287:3290   */\n      dup6\n        /* \"#utility.yul\":3283:3297   */\n      add\n        /* \"#utility.yul\":3269:3281   */\n      dup3\n        /* \"#utility.yul\":3235:3298   */\n      tag_136\n      jump\t// in\n    tag_201:\n        /* \"#utility.yul\":3135:3308   */\n      pop\n        /* \"#utility.yul\":2564:3315   */\n      pop\n        /* \"#utility.yul\":2464:3315   */\n      pop\n      pop\n      jump\t// out\n        /* \"#utility.yul\":3321:3588   */\n    tag_138:\n        /* \"#utility.yul\":3434:3444   */\n      0x00\n        /* \"#utility.yul\":3455:3545   */\n      tag_203\n        /* \"#utility.yul\":3541:3544   */\n      dup4\n        /* \"#utility.yul\":3533:3539   */\n      dup4\n        /* \"#utility.yul\":3455:3545   */\n      tag_137\n      jump\t// in\n    tag_203:\n        /* \"#utility.yul\":3577:3581   */\n      0x80\n        /* \"#utility.yul\":3572:3575   */\n      dup4\n        /* \"#utility.yul\":3568:3582   */\n      add\n        /* \"#utility.yul\":3554:3582   */\n      swap1\n      pop\n        /* \"#utility.yul\":3321:3588   */\n      swap3\n      swap2\n      pop\n      pop\n      jump\t// out\n        /* \"#utility.yul\":3594:3729   */\n    tag_139:\n        /* \"#utility.yul\":3686:3690   */\n      0x00\n        /* \"#utility.yul\":3718:3722   */\n      0x20\n        /* \"#utility.yul\":3713:3716   */\n      dup3\n        /* \"#utility.yul\":3709:3723   */\n      add\n        /* \"#utility.yul\":3701:3723   */\n      swap1\n      pop\n        /* \"#utility.yul\":3594:3729   */\n      swap2\n      swap1\n      pop\n      jump\t// out\n        /* \"#utility.yul\":3805:4713   */\n    tag_140:\n        /* \"#utility.yul\":3968:3971   */\n      0x00\n        /* \"#utility.yul\":3997:4073   */\n      tag_206\n        /* \"#utility.yul\":4067:4072   */\n      dup3\n        /* \"#utility.yul\":3997:4073   */\n      tag_126\n      jump\t// in\n    tag_206:\n        /* \"#utility.yul\":4089:4197   */\n      tag_207\n        /* \"#utility.yul\":4190:4196   */\n      dup2\n        /* \"#utility.yul\":4185:4188   */\n      dup6\n        /* \"#utility.yul\":4089:4197   */\n      tag_127\n      jump\t// in\n    tag_207:\n        /* \"#utility.yul\":4082:4197   */\n      swap4\n      pop\n        /* \"#utility.yul\":4221:4299   */\n      tag_208\n        /* \"#utility.yul\":4293:4298   */\n      dup4\n        /* \"#utility.yul\":4221:4299   */\n      tag_128\n      jump\t// in\n    tag_208:\n        /* \"#utility.yul\":4322:4329   */\n      dup1\n        /* \"#utility.yul\":4353:4354   */\n      0x00\n        /* \"#utility.yul\":4338:4688   */\n    tag_209:\n        /* \"#utility.yul\":4363:4369   */\n      dup4\n        /* \"#utility.yul\":4360:4361   */\n      dup2\n        /* \"#utility.yul\":4357:4370   */\n      lt\n        /* \"#utility.yul\":4338:4688   */\n      iszero\n      tag_211\n      jumpi\n        /* \"#utility.yul\":4439:4445   */\n      dup2\n        /* \"#utility.yul\":4433:4446   */\n      mload\n        /* \"#utility.yul\":4466:4573   */\n      tag_212\n        /* \"#utility.yul\":4569:4572   */\n      dup9\n        /* \"#utility.yul\":4554:4567   */\n      dup3\n        /* \"#utility.yul\":4466:4573   */\n      tag_138\n      jump\t// in\n    tag_212:\n        /* \"#utility.yul\":4459:4573   */\n      swap8\n      pop\n        /* \"#utility.yul\":4596:4678   */\n      tag_213\n        /* \"#utility.yul\":4671:4677   */\n      dup4\n        /* \"#utility.yul\":4596:4678   */\n      tag_139\n      jump\t// in\n    tag_213:\n        /* \"#utility.yul\":4586:4678   */\n      swap3\n      pop\n        /* \"#utility.yul\":4398:4688   */\n      pop\n        /* \"#utility.yul\":4385:4386   */\n      0x01\n        /* \"#utility.yul\":4382:4383   */\n      dup2\n        /* \"#utility.yul\":4378:4387   */\n      add\n        /* \"#utility.yul\":4373:4387   */\n      swap1\n      pop\n        /* \"#utility.yul\":4338:4688   */\n      jump(tag_209)\n    tag_211:\n        /* \"#utility.yul\":4342:4356   */\n      pop\n        /* \"#utility.yul\":4704:4707   */\n      dup6\n        /* \"#utility.yul\":4697:4707   */\n      swap4\n      pop\n        /* \"#utility.yul\":3973:4713   */\n      pop\n      pop\n      pop\n        /* \"#utility.yul\":3805:4713   */\n      swap3\n      swap2\n      pop\n      pop\n      jump\t// out\n        /* \"#utility.yul\":4719:5180   */\n    tag_16:\n        /* \"#utility.yul\":4906:4910   */\n      0x00\n        /* \"#utility.yul\":4944:4946   */\n      0x20\n        /* \"#utility.yul\":4933:4942   */\n      dup3\n        /* \"#utility.yul\":4929:4947   */\n      add\n        /* \"#utility.yul\":4921:4947   */\n      swap1\n      pop\n        /* \"#utility.yul\":4993:5002   */\n      dup2\n        /* \"#utility.yul\":4987:4991   */\n      dup2\n        /* \"#utility.yul\":4983:5003   */\n      sub\n        /* \"#utility.yul\":4979:4980   */\n      0x00\n        /* \"#utility.yul\":4968:4977   */\n      dup4\n        /* \"#utility.yul\":4964:4981   */\n      add\n        /* \"#utility.yul\":4957:5004   */\n      mstore\n        /* \"#utility.yul\":5021:5173   */\n      tag_215\n        /* \"#utility.yul\":5168:5172   */\n      dup2\n        /* \"#utility.yul\":5159:5165   */\n      dup5\n        /* \"#utility.yul\":5021:5173   */\n      tag_140\n      jump\t// in\n    tag_215:\n        /* \"#utility.yul\":5013:5173   */\n      swap1\n      pop\n        /* \"#utility.yul\":4719:5180   */\n      swap3\n      swap2\n      pop\n      pop\n      jump\t// out\n        /* \"#utility.yul\":5186:5304   */\n    tag_141:\n        /* \"#utility.yul\":5273:5297   */\n      tag_217\n        /* \"#utility.yul\":5291:5296   */\n      dup2\n        /* \"#utility.yul\":5273:5297   */\n      tag_135\n      jump\t// in\n    tag_217:\n        /* \"#utility.yul\":5268:5271   */\n      dup3\n        /* \"#utility.yul\":5261:5298   */\n      mstore\n        /* \"#utility.yul\":5186:5304   */\n      pop\n      pop\n      jump\t// out\n        /* \"#utility.yul\":5310:5532   */\n    tag_21:\n        /* \"#utility.yul\":5403:5407   */\n      0x00\n        /* \"#utility.yul\":5441:5443   */\n      0x20\n        /* \"#utility.yul\":5430:5439   */\n      dup3\n        /* \"#utility.yul\":5426:5444   */\n      add\n        /* \"#utility.yul\":5418:5444   */\n      swap1\n      pop\n        /* \"#utility.yul\":5454:5525   */\n      tag_219\n        /* \"#utility.yul\":5522:5523   */\n      0x00\n        /* \"#utility.yul\":5511:5520   */\n      dup4\n        /* \"#utility.yul\":5507:5524   */\n      add\n        /* \"#utility.yul\":5498:5504   */\n      dup5\n        /* \"#utility.yul\":5454:5525   */\n      tag_141\n      jump\t// in\n    tag_219:\n        /* \"#utility.yul\":5310:5532   */\n      swap3\n      swap2\n      pop\n      pop\n      jump\t// out\n        /* \"#utility.yul\":5538:5660   */\n    tag_142:\n        /* \"#utility.yul\":5611:5635   */\n      tag_221\n        /* \"#utility.yul\":5629:5634   */\n      dup2\n        /* \"#utility.yul\":5611:5635   */\n      tag_132\n      jump\t// in\n    tag_221:\n        /* \"#utility.yul\":5604:5609   */\n      dup2\n        /* \"#utility.yul\":5601:5636   */\n      eq\n        /* \"#utility.yul\":5591:5654   */\n      tag_222\n      jumpi\n        /* \"#utility.yul\":5650:5651   */\n      0x00\n        /* \"#utility.yul\":5647:5648   */\n      0x00\n        /* \"#utility.yul\":5640:5652   */\n      revert\n        /* \"#utility.yul\":5591:5654   */\n    tag_222:\n        /* \"#utility.yul\":5538:5660   */\n      pop\n      jump\t// out\n        /* \"#utility.yul\":5666:5805   */\n    tag_143:\n        /* \"#utility.yul\":5712:5717   */\n      0x00\n        /* \"#utility.yul\":5750:5756   */\n      dup2\n        /* \"#utility.yul\":5737:5757   */\n      calldataload\n        /* \"#utility.yul\":5728:5757   */\n      swap1\n      pop\n        /* \"#utility.yul\":5766:5799   */\n      tag_224\n        /* \"#utility.yul\":5793:5798   */\n      dup2\n        /* \"#utility.yul\":5766:5799   */\n      tag_142\n      jump\t// in\n    tag_224:\n        /* \"#utility.yul\":5666:5805   */\n      swap3\n      swap2\n      pop\n      pop\n      jump\t// out\n        /* \"#utility.yul\":5811:5929   */\n    tag_144:\n        /* \"#utility.yul\":5882:5904   */\n      tag_226\n        /* \"#utility.yul\":5898:5903   */\n      dup2\n        /* \"#utility.yul\":5882:5904   */\n      tag_130\n      jump\t// in\n    tag_226:\n        /* \"#utility.yul\":5875:5880   */\n      dup2\n        /* \"#utility.yul\":5872:5905   */\n      eq\n        /* \"#utility.yul\":5862:5923   */\n      tag_227\n      jumpi\n        /* \"#utility.yul\":5919:5920   */\n      0x00\n        /* \"#utility.yul\":5916:5917   */\n      0x00\n        /* \"#utility.yul\":5909:5921   */\n      revert\n        /* \"#utility.yul\":5862:5923   */\n    tag_227:\n        /* \"#utility.yul\":5811:5929   */\n      pop\n      jump\t// out\n        /* \"#utility.yul\":5935:6070   */\n    tag_145:\n        /* \"#utility.yul\":5979:5984   */\n      0x00\n        /* \"#utility.yul\":6017:6023   */\n      dup2\n        /* \"#utility.yul\":6004:6024   */\n      calldataload\n        /* \"#utility.yul\":5995:6024   */\n      swap1\n      pop\n        /* \"#utility.yul\":6033:6064   */\n      tag_229\n        /* \"#utility.yul\":6058:6063   */\n      dup2\n        /* \"#utility.yul\":6033:6064   */\n      tag_144\n      jump\t// in\n    tag_229:\n        /* \"#utility.yul\":5935:6070   */\n      swap3\n      swap2\n      pop\n      pop\n      jump\t// out\n        /* \"#utility.yul\":6076:7129   */\n    tag_24:\n        /* \"#utility.yul\":6178:6184   */\n      0x00\n        /* \"#utility.yul\":6186:6192   */\n      0x00\n        /* \"#utility.yul\":6194:6200   */\n      0x00\n        /* \"#utility.yul\":6202:6208   */\n      0x00\n        /* \"#utility.yul\":6210:6216   */\n      0x00\n        /* \"#utility.yul\":6218:6224   */\n      0x00\n        /* \"#utility.yul\":6267:6270   */\n      0xc0\n        /* \"#utility.yul\":6255:6264   */\n      dup8\n        /* \"#utility.yul\":6246:6253   */\n      dup10\n        /* \"#utility.yul\":6242:6265   */\n      sub\n        /* \"#utility.yul\":6238:6271   */\n      slt\n        /* \"#utility.yul\":6235:6355   */\n      iszero\n      tag_231\n      jumpi\n        /* \"#utility.yul\":6274:6353   */\n      tag_232\n      tag_121\n      jump\t// in\n    tag_232:\n        /* \"#utility.yul\":6235:6355   */\n    tag_231:\n        /* \"#utility.yul\":6394:6395   */\n      0x00\n        /* \"#utility.yul\":6419:6472   */\n      tag_233\n        /* \"#utility.yul\":6464:6471   */\n      dup10\n        /* \"#utility.yul\":6455:6461   */\n      dup3\n        /* \"#utility.yul\":6444:6453   */\n      dup11\n        /* \"#utility.yul\":6440:6462   */\n      add\n        /* \"#utility.yul\":6419:6472   */\n      tag_125\n      jump\t// in\n    tag_233:\n        /* \"#utility.yul\":6409:6472   */\n      swap7\n      pop\n        /* \"#utility.yul\":6365:6482   */\n      pop\n        /* \"#utility.yul\":6521:6523   */\n      0x20\n        /* \"#utility.yul\":6547:6600   */\n      tag_234\n        /* \"#utility.yul\":6592:6599   */\n      dup10\n        /* \"#utility.yul\":6583:6589   */\n      dup3\n        /* \"#utility.yul\":6572:6581   */\n      dup11\n        /* \"#utility.yul\":6568:6590   */\n      add\n        /* \"#utility.yul\":6547:6600   */\n      tag_125\n      jump\t// in\n    tag_234:\n        /* \"#utility.yul\":6537:6600   */\n      swap6\n      pop\n        /* \"#utility.yul\":6492:6610   */\n      pop\n        /* \"#utility.yul\":6649:6651   */\n      0x40\n        /* \"#utility.yul\":6675:6728   */\n      tag_235\n        /* \"#utility.yul\":6720:6727   */\n      dup10\n        /* \"#utility.yul\":6711:6717   */\n      dup3\n        /* \"#utility.yul\":6700:6709   */\n      dup11\n        /* \"#utility.yul\":6696:6718   */\n      add\n        /* \"#utility.yul\":6675:6728   */\n      tag_143\n      jump\t// in\n    tag_235:\n        /* \"#utility.yul\":6665:6728   */\n      swap5\n      pop\n        /* \"#utility.yul\":6620:6738   */\n      pop\n        /* \"#utility.yul\":6777:6779   */\n      0x60\n        /* \"#utility.yul\":6803:6856   */\n      tag_236\n        /* \"#utility.yul\":6848:6855   */\n      dup10\n        /* \"#utility.yul\":6839:6845   */\n      dup3\n        /* \"#utility.yul\":6828:6837   */\n      dup11\n        /* \"#utility.yul\":6824:6846   */\n      add\n        /* \"#utility.yul\":6803:6856   */\n      tag_125\n      jump\t// in\n    tag_236:\n        /* \"#utility.yul\":6793:6856   */\n      swap4\n      pop\n        /* \"#utility.yul\":6748:6866   */\n      pop\n        /* \"#utility.yul\":6905:6908   */\n      0x80\n        /* \"#utility.yul\":6932:6985   */\n      tag_237\n        /* \"#utility.yul\":6977:6984   */\n      dup10\n        /* \"#utility.yul\":6968:6974   */\n      dup3\n        /* \"#utility.yul\":6957:6966   */\n      dup11\n        /* \"#utility.yul\":6953:6975   */\n      add\n        /* \"#utility.yul\":6932:6985   */\n      tag_125\n      jump\t// in\n    tag_237:\n        /* \"#utility.yul\":6922:6985   */\n      swap3\n      pop\n        /* \"#utility.yul\":6876:6995   */\n      pop\n        /* \"#utility.yul\":7034:7037   */\n      0xa0\n        /* \"#utility.yul\":7061:7112   */\n      tag_238\n        /* \"#utility.yul\":7104:7111   */\n      dup10\n        /* \"#utility.yul\":7095:7101   */\n      dup3\n        /* \"#utility.yul\":7084:7093   */\n      dup11\n        /* \"#utility.yul\":7080:7102   */\n      add\n        /* \"#utility.yul\":7061:7112   */\n      tag_145\n      jump\t// in\n    tag_238:\n        /* \"#utility.yul\":7051:7112   */\n      swap2\n      pop\n        /* \"#utility.yul\":7005:7122   */\n      pop\n        /* \"#utility.yul\":6076:7129   */\n      swap3\n      swap6\n      pop\n      swap3\n      swap6\n      pop\n      swap3\n      swap6\n      jump\t// out\n        /* \"#utility.yul\":7135:7750   */\n    tag_29:\n        /* \"#utility.yul\":7210:7216   */\n      0x00\n        /* \"#utility.yul\":7218:7224   */\n      0x00\n        /* \"#utility.yul\":7226:7232   */\n      0x00\n        /* \"#utility.yul\":7275:7277   */\n      0x60\n        /* \"#utility.yul\":7263:7272   */\n      dup5\n        /* \"#utility.yul\":7254:7261   */\n      dup7\n        /* \"#utility.yul\":7250:7273   */\n      sub\n        /* \"#utility.yul\":7246:7278   */\n      slt\n        /* \"#utility.yul\":7243:7362   */\n      iszero\n      tag_240\n      jumpi\n        /* \"#utility.yul\":7281:7360   */\n      tag_241\n      tag_121\n      jump\t// in\n    tag_241:\n        /* \"#utility.yul\":7243:7362   */\n    tag_240:\n        /* \"#utility.yul\":7401:7402   */\n      0x00\n        /* \"#utility.yul\":7426:7479   */\n      tag_242\n        /* \"#utility.yul\":7471:7478   */\n      dup7\n        /* \"#utility.yul\":7462:7468   */\n      dup3\n        /* \"#utility.yul\":7451:7460   */\n      dup8\n        /* \"#utility.yul\":7447:7469   */\n      add\n        /* \"#utility.yul\":7426:7479   */\n      tag_125\n      jump\t// in\n    tag_242:\n        /* \"#utility.yul\":7416:7479   */\n      swap4\n      pop\n        /* \"#utility.yul\":7372:7489   */\n      pop\n        /* \"#utility.yul\":7528:7530   */\n      0x20\n        /* \"#utility.yul\":7554:7605   */\n      tag_243\n        /* \"#utility.yul\":7597:7604   */\n      dup7\n        /* \"#utility.yul\":7588:7594   */\n      dup3\n        /* \"#utility.yul\":7577:7586   */\n      dup8\n        /* \"#utility.yul\":7573:7595   */\n      add\n        /* \"#utility.yul\":7554:7605   */\n      tag_145\n      jump\t// in\n    tag_243:\n        /* \"#utility.yul\":7544:7605   */\n      swap3\n      pop\n        /* \"#utility.yul\":7499:7615   */\n      pop\n        /* \"#utility.yul\":7654:7656   */\n      0x40\n        /* \"#utility.yul\":7680:7733   */\n      tag_244\n        /* \"#utility.yul\":7725:7732   */\n      dup7\n        /* \"#utility.yul\":7716:7722   */\n      dup3\n        /* \"#utility.yul\":7705:7714   */\n      dup8\n        /* \"#utility.yul\":7701:7723   */\n      add\n        /* \"#utility.yul\":7680:7733   */\n      tag_143\n      jump\t// in\n    tag_244:\n        /* \"#utility.yul\":7670:7733   */\n      swap2\n      pop\n        /* \"#utility.yul\":7625:7743   */\n      pop\n        /* \"#utility.yul\":7135:7750   */\n      swap3\n      pop\n      swap3\n      pop\n      swap3\n      jump\t// out\n        /* \"#utility.yul\":7756:7846   */\n    tag_146:\n        /* \"#utility.yul\":7790:7797   */\n      0x00\n        /* \"#utility.yul\":7833:7838   */\n      dup2\n        /* \"#utility.yul\":7826:7839   */\n      iszero\n        /* \"#utility.yul\":7819:7840   */\n      iszero\n        /* \"#utility.yul\":7808:7840   */\n      swap1\n      pop\n        /* \"#utility.yul\":7756:7846   */\n      swap2\n      swap1\n      pop\n      jump\t// out\n        /* \"#utility.yul\":7852:7961   */\n    tag_147:\n        /* \"#utility.yul\":7933:7954   */\n      tag_247\n        /* \"#utility.yul\":7948:7953   */\n      dup2\n        /* \"#utility.yul\":7933:7954   */\n      tag_146\n      jump\t// in\n    tag_247:\n        /* \"#utility.yul\":7928:7931   */\n      dup3\n        /* \"#utility.yul\":7921:7955   */\n      mstore\n        /* \"#utility.yul\":7852:7961   */\n      pop\n      pop\n      jump\t// out\n        /* \"#utility.yul\":7967:8177   */\n    tag_32:\n        /* \"#utility.yul\":8054:8058   */\n      0x00\n        /* \"#utility.yul\":8092:8094   */\n      0x20\n        /* \"#utility.yul\":8081:8090   */\n      dup3\n        /* \"#utility.yul\":8077:8095   */\n      add\n        /* \"#utility.yul\":8069:8095   */\n      swap1\n      pop\n        /* \"#utility.yul\":8105:8170   */\n      tag_249\n        /* \"#utility.yul\":8167:8168   */\n      0x00\n        /* \"#utility.yul\":8156:8165   */\n      dup4\n        /* \"#utility.yul\":8152:8169   */\n      add\n        /* \"#utility.yul\":8143:8149   */\n      dup5\n        /* \"#utility.yul\":8105:8170   */\n      tag_147\n      jump\t// in\n    tag_249:\n        /* \"#utility.yul\":7967:8177   */\n      swap3\n      swap2\n      pop\n      pop\n      jump\t// out\n        /* \"#utility.yul\":8183:8301   */\n    tag_148:\n        /* \"#utility.yul\":8270:8294   */\n      tag_251\n        /* \"#utility.yul\":8288:8293   */\n      dup2\n        /* \"#utility.yul\":8270:8294   */\n      tag_123\n      jump\t// in\n    tag_251:\n        /* \"#utility.yul\":8265:8268   */\n      dup3\n        /* \"#utility.yul\":8258:8295   */\n      mstore\n        /* \"#utility.yul\":8183:8301   */\n      pop\n      pop\n      jump\t// out\n        /* \"#utility.yul\":8307:8529   */\n    tag_37:\n        /* \"#utility.yul\":8400:8404   */\n      0x00\n        /* \"#utility.yul\":8438:8440   */\n      0x20\n        /* \"#utility.yul\":8427:8436   */\n      dup3\n        /* \"#utility.yul\":8423:8441   */\n      add\n        /* \"#utility.yul\":8415:8441   */\n      swap1\n      pop\n        /* \"#utility.yul\":8451:8522   */\n      tag_253\n        /* \"#utility.yul\":8519:8520   */\n      0x00\n        /* \"#utility.yul\":8508:8517   */\n      dup4\n        /* \"#utility.yul\":8504:8521   */\n      add\n        /* \"#utility.yul\":8495:8501   */\n      dup5\n        /* \"#utility.yul\":8451:8522   */\n      tag_148\n      jump\t// in\n    tag_253:\n        /* \"#utility.yul\":8307:8529   */\n      swap3\n      swap2\n      pop\n      pop\n      jump\t// out\n        /* \"#utility.yul\":8535:8647   */\n    tag_149:\n        /* \"#utility.yul\":8618:8640   */\n      tag_255\n        /* \"#utility.yul\":8634:8639   */\n      dup2\n        /* \"#utility.yul\":8618:8640   */\n      tag_130\n      jump\t// in\n    tag_255:\n        /* \"#utility.yul\":8613:8616   */\n      dup3\n        /* \"#utility.yul\":8606:8641   */\n      mstore\n        /* \"#utility.yul\":8535:8647   */\n      pop\n      pop\n      jump\t// out\n        /* \"#utility.yul\":8653:8771   */\n    tag_150:\n        /* \"#utility.yul\":8740:8764   */\n      tag_257\n        /* \"#utility.yul\":8758:8763   */\n      dup2\n        /* \"#utility.yul\":8740:8764   */\n      tag_132\n      jump\t// in\n    tag_257:\n        /* \"#utility.yul\":8735:8738   */\n      dup3\n        /* \"#utility.yul\":8728:8765   */\n      mstore\n        /* \"#utility.yul\":8653:8771   */\n      pop\n      pop\n      jump\t// out\n        /* \"#utility.yul\":8777:9433   */\n    tag_43:\n        /* \"#utility.yul\":8978:8982   */\n      0x00\n        /* \"#utility.yul\":9016:9019   */\n      0xa0\n        /* \"#utility.yul\":9005:9014   */\n      dup3\n        /* \"#utility.yul\":9001:9020   */\n      add\n        /* \"#utility.yul\":8993:9020   */\n      swap1\n      pop\n        /* \"#utility.yul\":9030:9101   */\n      tag_259\n        /* \"#utility.yul\":9098:9099   */\n      0x00\n        /* \"#utility.yul\":9087:9096   */\n      dup4\n        /* \"#utility.yul\":9083:9100   */\n      add\n        /* \"#utility.yul\":9074:9080   */\n      dup9\n        /* \"#utility.yul\":9030:9101   */\n      tag_148\n      jump\t// in\n    tag_259:\n        /* \"#utility.yul\":9111:9183   */\n      tag_260\n        /* \"#utility.yul\":9179:9181   */\n      0x20\n        /* \"#utility.yul\":9168:9177   */\n      dup4\n        /* \"#utility.yul\":9164:9182   */\n      add\n        /* \"#utility.yul\":9155:9161   */\n      dup8\n        /* \"#utility.yul\":9111:9183   */\n      tag_148\n      jump\t// in\n    tag_260:\n        /* \"#utility.yul\":9193:9261   */\n      tag_261\n        /* \"#utility.yul\":9257:9259   */\n      0x40\n        /* \"#utility.yul\":9246:9255   */\n      dup4\n        /* \"#utility.yul\":9242:9260   */\n      add\n        /* \"#utility.yul\":9233:9239   */\n      dup7\n        /* \"#utility.yul\":9193:9261   */\n      tag_149\n      jump\t// in\n    tag_261:\n        /* \"#utility.yul\":9271:9343   */\n      tag_262\n        /* \"#utility.yul\":9339:9341   */\n      0x60\n        /* \"#utility.yul\":9328:9337   */\n      dup4\n        /* \"#utility.yul\":9324:9342   */\n      add\n        /* \"#utility.yul\":9315:9321   */\n      dup6\n        /* \"#utility.yul\":9271:9343   */\n      tag_148\n      jump\t// in\n    tag_262:\n        /* \"#utility.yul\":9353:9426   */\n      tag_263\n        /* \"#utility.yul\":9421:9424   */\n      0x80\n        /* \"#utility.yul\":9410:9419   */\n      dup4\n        /* \"#utility.yul\":9406:9425   */\n      add\n        /* \"#utility.yul\":9397:9403   */\n      dup5\n        /* \"#utility.yul\":9353:9426   */\n      tag_150\n      jump\t// in\n    tag_263:\n        /* \"#utility.yul\":8777:9433   */\n      swap7\n      swap6\n      pop\n      pop\n      pop\n      pop\n      pop\n      pop\n      jump\t// out\n        /* \"#utility.yul\":9439:9909   */\n    tag_47:\n        /* \"#utility.yul\":9505:9511   */\n      0x00\n        /* \"#utility.yul\":9513:9519   */\n      0x00\n        /* \"#utility.yul\":9562:9564   */\n      0x40\n        /* \"#utility.yul\":9550:9559   */\n      dup4\n        /* \"#utility.yul\":9541:9548   */\n      dup6\n        /* \"#utility.yul\":9537:9560   */\n      sub\n        /* \"#utility.yul\":9533:9565   */\n      slt\n        /* \"#utility.yul\":9530:9649   */\n      iszero\n      tag_265\n      jumpi\n        /* \"#utility.yul\":9568:9647   */\n      tag_266\n      tag_121\n      jump\t// in\n    tag_266:\n        /* \"#utility.yul\":9530:9649   */\n    tag_265:\n        /* \"#utility.yul\":9688:9689   */\n      0x00\n        /* \"#utility.yul\":9713:9766   */\n      tag_267\n        /* \"#utility.yul\":9758:9765   */\n      dup6\n        /* \"#utility.yul\":9749:9755   */\n      dup3\n        /* \"#utility.yul\":9738:9747   */\n      dup7\n        /* \"#utility.yul\":9734:9756   */\n      add\n        /* \"#utility.yul\":9713:9766   */\n      tag_125\n      jump\t// in\n    tag_267:\n        /* \"#utility.yul\":9703:9766   */\n      swap3\n      pop\n        /* \"#utility.yul\":9659:9776   */\n      pop\n        /* \"#utility.yul\":9815:9817   */\n      0x20\n        /* \"#utility.yul\":9841:9892   */\n      tag_268\n        /* \"#utility.yul\":9884:9891   */\n      dup6\n        /* \"#utility.yul\":9875:9881   */\n      dup3\n        /* \"#utility.yul\":9864:9873   */\n      dup7\n        /* \"#utility.yul\":9860:9882   */\n      add\n        /* \"#utility.yul\":9841:9892   */\n      tag_145\n      jump\t// in\n    tag_268:\n        /* \"#utility.yul\":9831:9892   */\n      swap2\n      pop\n        /* \"#utility.yul\":9786:9902   */\n      pop\n        /* \"#utility.yul\":9439:9909   */\n      swap3\n      pop\n      swap3\n      swap1\n      pop\n      jump\t// out\n        /* \"#utility.yul\":9915:10084   */\n    tag_151:\n        /* \"#utility.yul\":9999:10010   */\n      0x00\n        /* \"#utility.yul\":10033:10039   */\n      dup3\n        /* \"#utility.yul\":10028:10031   */\n      dup3\n        /* \"#utility.yul\":10021:10040   */\n      mstore\n        /* \"#utility.yul\":10073:10077   */\n      0x20\n        /* \"#utility.yul\":10068:10071   */\n      dup3\n        /* \"#utility.yul\":10064:10078   */\n      add\n        /* \"#utility.yul\":10049:10078   */\n      swap1\n      pop\n        /* \"#utility.yul\":9915:10084   */\n      swap3\n      swap2\n      pop\n      pop\n      jump\t// out\n        /* \"#utility.yul\":10090:10314   */\n    tag_152:\n        /* \"#utility.yul\":10230:10264   */\n      0x4e6f2073652068612070616761646f206c612074617269666120646520726567\n        /* \"#utility.yul\":10226:10227   */\n      0x00\n        /* \"#utility.yul\":10218:10224   */\n      dup3\n        /* \"#utility.yul\":10214:10228   */\n      add\n        /* \"#utility.yul\":10207:10265   */\n      mstore\n        /* \"#utility.yul\":10299:10306   */\n      0x697374726f000000000000000000000000000000000000000000000000000000\n        /* \"#utility.yul\":10294:10296   */\n      0x20\n        /* \"#utility.yul\":10286:10292   */\n      dup3\n        /* \"#utility.yul\":10282:10297   */\n      add\n        /* \"#utility.yul\":10275:10307   */\n      mstore\n        /* \"#utility.yul\":10090:10314   */\n      pop\n      jump\t// out\n        /* \"#utility.yul\":10320:10686   */\n    tag_153:\n        /* \"#utility.yul\":10462:10465   */\n      0x00\n        /* \"#utility.yul\":10483:10550   */\n      tag_272\n        /* \"#utility.yul\":10547:10549   */\n      0x25\n        /* \"#utility.yul\":10542:10545   */\n      dup4\n        /* \"#utility.yul\":10483:10550   */\n      tag_151\n      jump\t// in\n    tag_272:\n        /* \"#utility.yul\":10476:10550   */\n      swap2\n      pop\n        /* \"#utility.yul\":10559:10652   */\n      tag_273\n        /* \"#utility.yul\":10648:10651   */\n      dup3\n        /* \"#utility.yul\":10559:10652   */\n      tag_152\n      jump\t// in\n    tag_273:\n        /* \"#utility.yul\":10677:10679   */\n      0x40\n        /* \"#utility.yul\":10672:10675   */\n      dup3\n        /* \"#utility.yul\":10668:10680   */\n      add\n        /* \"#utility.yul\":10661:10680   */\n      swap1\n      pop\n        /* \"#utility.yul\":10320:10686   */\n      swap2\n      swap1\n      pop\n      jump\t// out\n        /* \"#utility.yul\":10692:11111   */\n    tag_55:\n        /* \"#utility.yul\":10858:10862   */\n      0x00\n        /* \"#utility.yul\":10896:10898   */\n      0x20\n        /* \"#utility.yul\":10885:10894   */\n      dup3\n        /* \"#utility.yul\":10881:10899   */\n      add\n        /* \"#utility.yul\":10873:10899   */\n      swap1\n      pop\n        /* \"#utility.yul\":10945:10954   */\n      dup2\n        /* \"#utility.yul\":10939:10943   */\n      dup2\n        /* \"#utility.yul\":10935:10955   */\n      sub\n        /* \"#utility.yul\":10931:10932   */\n      0x00\n        /* \"#utility.yul\":10920:10929   */\n      dup4\n        /* \"#utility.yul\":10916:10933   */\n      add\n        /* \"#utility.yul\":10909:10956   */\n      mstore\n        /* \"#utility.yul\":10973:11104   */\n      tag_275\n        /* \"#utility.yul\":11099:11103   */\n      dup2\n        /* \"#utility.yul\":10973:11104   */\n      tag_153\n      jump\t// in\n    tag_275:\n        /* \"#utility.yul\":10965:11104   */\n      swap1\n      pop\n        /* \"#utility.yul\":10692:11111   */\n      swap2\n      swap1\n      pop\n      jump\t// out\n        /* \"#utility.yul\":11117:11343   */\n    tag_154:\n        /* \"#utility.yul\":11257:11291   */\n      0x566967656e63696120696e76616c6964613a2075736520283029207061726120\n        /* \"#utility.yul\":11253:11254   */\n      0x00\n        /* \"#utility.yul\":11245:11251   */\n      dup3\n        /* \"#utility.yul\":11241:11255   */\n      add\n        /* \"#utility.yul\":11234:11292   */\n      mstore\n        /* \"#utility.yul\":11326:11335   */\n      0x566967656e746500000000000000000000000000000000000000000000000000\n        /* \"#utility.yul\":11321:11323   */\n      0x20\n        /* \"#utility.yul\":11313:11319   */\n      dup3\n        /* \"#utility.yul\":11309:11324   */\n      add\n        /* \"#utility.yul\":11302:11336   */\n      mstore\n        /* \"#utility.yul\":11117:11343   */\n      pop\n      jump\t// out\n        /* \"#utility.yul\":11349:11715   */\n    tag_155:\n        /* \"#utility.yul\":11491:11494   */\n      0x00\n        /* \"#utility.yul\":11512:11579   */\n      tag_278\n        /* \"#utility.yul\":11576:11578   */\n      0x27\n        /* \"#utility.yul\":11571:11574   */\n      dup4\n        /* \"#utility.yul\":11512:11579   */\n      tag_151\n      jump\t// in\n    tag_278:\n        /* \"#utility.yul\":11505:11579   */\n      swap2\n      pop\n        /* \"#utility.yul\":11588:11681   */\n      tag_279\n        /* \"#utility.yul\":11677:11680   */\n      dup3\n        /* \"#utility.yul\":11588:11681   */\n      tag_154\n      jump\t// in\n    tag_279:\n        /* \"#utility.yul\":11706:11708   */\n      0x40\n        /* \"#utility.yul\":11701:11704   */\n      dup3\n        /* \"#utility.yul\":11697:11709   */\n      add\n        /* \"#utility.yul\":11690:11709   */\n      swap1\n      pop\n        /* \"#utility.yul\":11349:11715   */\n      swap2\n      swap1\n      pop\n      jump\t// out\n        /* \"#utility.yul\":11721:12140   */\n    tag_58:\n        /* \"#utility.yul\":11887:11891   */\n      0x00\n        /* \"#utility.yul\":11925:11927   */\n      0x20\n        /* \"#utility.yul\":11914:11923   */\n      dup3\n        /* \"#utility.yul\":11910:11928   */\n      add\n        /* \"#utility.yul\":11902:11928   */\n      swap1\n      pop\n        /* \"#utility.yul\":11974:11983   */\n      dup2\n        /* \"#utility.yul\":11968:11972   */\n      dup2\n        /* \"#utility.yul\":11964:11984   */\n      sub\n        /* \"#utility.yul\":11960:11961   */\n      0x00\n        /* \"#utility.yul\":11949:11958   */\n      dup4\n        /* \"#utility.yul\":11945:11962   */\n      add\n        /* \"#utility.yul\":11938:11985   */\n      mstore\n        /* \"#utility.yul\":12002:12133   */\n      tag_281\n        /* \"#utility.yul\":12128:12132   */\n      dup2\n        /* \"#utility.yul\":12002:12133   */\n      tag_155\n      jump\t// in\n    tag_281:\n        /* \"#utility.yul\":11994:12133   */\n      swap1\n      pop\n        /* \"#utility.yul\":11721:12140   */\n      swap2\n      swap1\n      pop\n      jump\t// out\n        /* \"#utility.yul\":12146:12691   */\n    tag_62:\n        /* \"#utility.yul\":12319:12323   */\n      0x00\n        /* \"#utility.yul\":12357:12360   */\n      0x80\n        /* \"#utility.yul\":12346:12355   */\n      dup3\n        /* \"#utility.yul\":12342:12361   */\n      add\n        /* \"#utility.yul\":12334:12361   */\n      swap1\n      pop\n        /* \"#utility.yul\":12371:12442   */\n      tag_283\n        /* \"#utility.yul\":12439:12440   */\n      0x00\n        /* \"#utility.yul\":12428:12437   */\n      dup4\n        /* \"#utility.yul\":12424:12441   */\n      add\n        /* \"#utility.yul\":12415:12421   */\n      dup8\n        /* \"#utility.yul\":12371:12442   */\n      tag_148\n      jump\t// in\n    tag_283:\n        /* \"#utility.yul\":12452:12524   */\n      tag_284\n        /* \"#utility.yul\":12520:12522   */\n      0x20\n        /* \"#utility.yul\":12509:12518   */\n      dup4\n        /* \"#utility.yul\":12505:12523   */\n      add\n        /* \"#utility.yul\":12496:12502   */\n      dup7\n        /* \"#utility.yul\":12452:12524   */\n      tag_148\n      jump\t// in\n    tag_284:\n        /* \"#utility.yul\":12534:12602   */\n      tag_285\n        /* \"#utility.yul\":12598:12600   */\n      0x40\n        /* \"#utility.yul\":12587:12596   */\n      dup4\n        /* \"#utility.yul\":12583:12601   */\n      add\n        /* \"#utility.yul\":12574:12580   */\n      dup6\n        /* \"#utility.yul\":12534:12602   */\n      tag_149\n      jump\t// in\n    tag_285:\n        /* \"#utility.yul\":12612:12684   */\n      tag_286\n        /* \"#utility.yul\":12680:12682   */\n      0x60\n        /* \"#utility.yul\":12669:12678   */\n      dup4\n        /* \"#utility.yul\":12665:12683   */\n      add\n        /* \"#utility.yul\":12656:12662   */\n      dup5\n        /* \"#utility.yul\":12612:12684   */\n      tag_150\n      jump\t// in\n    tag_286:\n        /* \"#utility.yul\":12146:12691   */\n      swap6\n      swap5\n      pop\n      pop\n      pop\n      pop\n      pop\n      jump\t// out\n        /* \"#utility.yul\":12697:12927   */\n    tag_156:\n        /* \"#utility.yul\":12837:12871   */\n      0x566967656e63696120696e76616c6964613a2075736520283129207061726120\n        /* \"#utility.yul\":12833:12834   */\n      0x00\n        /* \"#utility.yul\":12825:12831   */\n      dup3\n        /* \"#utility.yul\":12821:12835   */\n      add\n        /* \"#utility.yul\":12814:12872   */\n      mstore\n        /* \"#utility.yul\":12906:12919   */\n      0x4d6f646966696361646120000000000000000000000000000000000000000000\n        /* \"#utility.yul\":12901:12903   */\n      0x20\n        /* \"#utility.yul\":12893:12899   */\n      dup3\n        /* \"#utility.yul\":12889:12904   */\n      add\n        /* \"#utility.yul\":12882:12920   */\n      mstore\n        /* \"#utility.yul\":12697:12927   */\n      pop\n      jump\t// out\n        /* \"#utility.yul\":12933:13299   */\n    tag_157:\n        /* \"#utility.yul\":13075:13078   */\n      0x00\n        /* \"#utility.yul\":13096:13163   */\n      tag_289\n        /* \"#utility.yul\":13160:13162   */\n      0x2b\n        /* \"#utility.yul\":13155:13158   */\n      dup4\n        /* \"#utility.yul\":13096:13163   */\n      tag_151\n      jump\t// in\n    tag_289:\n        /* \"#utility.yul\":13089:13163   */\n      swap2\n      pop\n        /* \"#utility.yul\":13172:13265   */\n      tag_290\n        /* \"#utility.yul\":13261:13264   */\n      dup3\n        /* \"#utility.yul\":13172:13265   */\n      tag_156\n      jump\t// in\n    tag_290:\n        /* \"#utility.yul\":13290:13292   */\n      0x40\n        /* \"#utility.yul\":13285:13288   */\n      dup3\n        /* \"#utility.yul\":13281:13293   */\n      add\n        /* \"#utility.yul\":13274:13293   */\n      swap1\n      pop\n        /* \"#utility.yul\":12933:13299   */\n      swap2\n      swap1\n      pop\n      jump\t// out\n        /* \"#utility.yul\":13305:13724   */\n    tag_66:\n        /* \"#utility.yul\":13471:13475   */\n      0x00\n        /* \"#utility.yul\":13509:13511   */\n      0x20\n        /* \"#utility.yul\":13498:13507   */\n      dup3\n        /* \"#utility.yul\":13494:13512   */\n      add\n        /* \"#utility.yul\":13486:13512   */\n      swap1\n      pop\n        /* \"#utility.yul\":13558:13567   */\n      dup2\n        /* \"#utility.yul\":13552:13556   */\n      dup2\n        /* \"#utility.yul\":13548:13568   */\n      sub\n        /* \"#utility.yul\":13544:13545   */\n      0x00\n        /* \"#utility.yul\":13533:13542   */\n      dup4\n        /* \"#utility.yul\":13529:13546   */\n      add\n        /* \"#utility.yul\":13522:13569   */\n      mstore\n        /* \"#utility.yul\":13586:13717   */\n      tag_292\n        /* \"#utility.yul\":13712:13716   */\n      dup2\n        /* \"#utility.yul\":13586:13717   */\n      tag_157\n      jump\t// in\n    tag_292:\n        /* \"#utility.yul\":13578:13717   */\n      swap1\n      pop\n        /* \"#utility.yul\":13305:13724   */\n      swap2\n      swap1\n      pop\n      jump\t// out\n        /* \"#utility.yul\":13730:14164   */\n    tag_70:\n        /* \"#utility.yul\":13875:13879   */\n      0x00\n        /* \"#utility.yul\":13913:13915   */\n      0x60\n        /* \"#utility.yul\":13902:13911   */\n      dup3\n        /* \"#utility.yul\":13898:13916   */\n      add\n        /* \"#utility.yul\":13890:13916   */\n      swap1\n      pop\n        /* \"#utility.yul\":13926:13997   */\n      tag_294\n        /* \"#utility.yul\":13994:13995   */\n      0x00\n        /* \"#utility.yul\":13983:13992   */\n      dup4\n        /* \"#utility.yul\":13979:13996   */\n      add\n        /* \"#utility.yul\":13970:13976   */\n      dup7\n        /* \"#utility.yul\":13926:13997   */\n      tag_148\n      jump\t// in\n    tag_294:\n        /* \"#utility.yul\":14007:14075   */\n      tag_295\n        /* \"#utility.yul\":14071:14073   */\n      0x20\n        /* \"#utility.yul\":14060:14069   */\n      dup4\n        /* \"#utility.yul\":14056:14074   */\n      add\n        /* \"#utility.yul\":14047:14053   */\n      dup6\n        /* \"#utility.yul\":14007:14075   */\n      tag_149\n      jump\t// in\n    tag_295:\n        /* \"#utility.yul\":14085:14157   */\n      tag_296\n        /* \"#utility.yul\":14153:14155   */\n      0x40\n        /* \"#utility.yul\":14142:14151   */\n      dup4\n        /* \"#utility.yul\":14138:14156   */\n      add\n        /* \"#utility.yul\":14129:14135   */\n      dup5\n        /* \"#utility.yul\":14085:14157   */\n      tag_150\n      jump\t// in\n    tag_296:\n        /* \"#utility.yul\":13730:14164   */\n      swap5\n      swap4\n      pop\n      pop\n      pop\n      pop\n      jump\t// out\n        /* \"#utility.yul\":14170:14350   */\n    tag_158:\n        /* \"#utility.yul\":14218:14295   */\n      0x4e487b7100000000000000000000000000000000000000000000000000000000\n        /* \"#utility.yul\":14215:14216   */\n      0x00\n        /* \"#utility.yul\":14208:14296   */\n      mstore\n        /* \"#utility.yul\":14315:14319   */\n      0x11\n        /* \"#utility.yul\":14312:14313   */\n      0x04\n        /* \"#utility.yul\":14305:14320   */\n      mstore\n        /* \"#utility.yul\":14339:14343   */\n      0x24\n        /* \"#utility.yul\":14336:14337   */\n      0x00\n        /* \"#utility.yul\":14329:14344   */\n      revert\n        /* \"#utility.yul\":14356:14550   */\n    tag_74:\n        /* \"#utility.yul\":14396:14400   */\n      0x00\n        /* \"#utility.yul\":14416:14436   */\n      tag_299\n        /* \"#utility.yul\":14434:14435   */\n      dup3\n        /* \"#utility.yul\":14416:14436   */\n      tag_123\n      jump\t// in\n    tag_299:\n        /* \"#utility.yul\":14411:14436   */\n      swap2\n      pop\n        /* \"#utility.yul\":14450:14470   */\n      tag_300\n        /* \"#utility.yul\":14468:14469   */\n      dup4\n        /* \"#utility.yul\":14450:14470   */\n      tag_123\n      jump\t// in\n    tag_300:\n        /* \"#utility.yul\":14445:14470   */\n      swap3\n      pop\n        /* \"#utility.yul\":14494:14495   */\n      dup3\n        /* \"#utility.yul\":14491:14492   */\n      dup3\n        /* \"#utility.yul\":14487:14496   */\n      sub\n        /* \"#utility.yul\":14479:14496   */\n      swap1\n      pop\n        /* \"#utility.yul\":14518:14519   */\n      dup2\n        /* \"#utility.yul\":14512:14516   */\n      dup2\n        /* \"#utility.yul\":14509:14520   */\n      gt\n        /* \"#utility.yul\":14506:14543   */\n      iszero\n      tag_301\n      jumpi\n        /* \"#utility.yul\":14523:14541   */\n      tag_302\n      tag_158\n      jump\t// in\n    tag_302:\n        /* \"#utility.yul\":14506:14543   */\n    tag_301:\n        /* \"#utility.yul\":14356:14550   */\n      swap3\n      swap2\n      pop\n      pop\n      jump\t// out\n        /* \"#utility.yul\":14556:14736   */\n    tag_77:\n        /* \"#utility.yul\":14604:14681   */\n      0x4e487b7100000000000000000000000000000000000000000000000000000000\n        /* \"#utility.yul\":14601:14602   */\n      0x00\n        /* \"#utility.yul\":14594:14682   */\n      mstore\n        /* \"#utility.yul\":14701:14705   */\n      0x32\n        /* \"#utility.yul\":14698:14699   */\n      0x04\n        /* \"#utility.yul\":14691:14706   */\n      mstore\n        /* \"#utility.yul\":14725:14729   */\n      0x24\n        /* \"#utility.yul\":14722:14723   */\n      0x00\n        /* \"#utility.yul\":14715:14730   */\n      revert\n        /* \"#utility.yul\":14742:14969   */\n    tag_159:\n        /* \"#utility.yul\":14882:14916   */\n      0x566967656e63696120696e76616c6964613a2075736520283229207061726120\n        /* \"#utility.yul\":14878:14879   */\n      0x00\n        /* \"#utility.yul\":14870:14876   */\n      dup3\n        /* \"#utility.yul\":14866:14880   */\n      add\n        /* \"#utility.yul\":14859:14917   */\n      mstore\n        /* \"#utility.yul\":14951:14961   */\n      0x4465726f67616461000000000000000000000000000000000000000000000000\n        /* \"#utility.yul\":14946:14948   */\n      0x20\n        /* \"#utility.yul\":14938:14944   */\n      dup3\n        /* \"#utility.yul\":14934:14949   */\n      add\n        /* \"#utility.yul\":14927:14962   */\n      mstore\n        /* \"#utility.yul\":14742:14969   */\n      pop\n      jump\t// out\n        /* \"#utility.yul\":14975:15341   */\n    tag_160:\n        /* \"#utility.yul\":15117:15120   */\n      0x00\n        /* \"#utility.yul\":15138:15205   */\n      tag_306\n        /* \"#utility.yul\":15202:15204   */\n      0x28\n        /* \"#utility.yul\":15197:15200   */\n      dup4\n        /* \"#utility.yul\":15138:15205   */\n      tag_151\n      jump\t// in\n    tag_306:\n        /* \"#utility.yul\":15131:15205   */\n      swap2\n      pop\n        /* \"#utility.yul\":15214:15307   */\n      tag_307\n        /* \"#utility.yul\":15303:15306   */\n      dup3\n        /* \"#utility.yul\":15214:15307   */\n      tag_159\n      jump\t// in\n    tag_307:\n        /* \"#utility.yul\":15332:15334   */\n      0x40\n        /* \"#utility.yul\":15327:15330   */\n      dup3\n        /* \"#utility.yul\":15323:15335   */\n      add\n        /* \"#utility.yul\":15316:15335   */\n      swap1\n      pop\n        /* \"#utility.yul\":14975:15341   */\n      swap2\n      swap1\n      pop\n      jump\t// out\n        /* \"#utility.yul\":15347:15766   */\n    tag_84:\n        /* \"#utility.yul\":15513:15517   */\n      0x00\n        /* \"#utility.yul\":15551:15553   */\n      0x20\n        /* \"#utility.yul\":15540:15549   */\n      dup3\n        /* \"#utility.yul\":15536:15554   */\n      add\n        /* \"#utility.yul\":15528:15554   */\n      swap1\n      pop\n        /* \"#utility.yul\":15600:15609   */\n      dup2\n        /* \"#utility.yul\":15594:15598   */\n      dup2\n        /* \"#utility.yul\":15590:15610   */\n      sub\n        /* \"#utility.yul\":15586:15587   */\n      0x00\n        /* \"#utility.yul\":15575:15584   */\n      dup4\n        /* \"#utility.yul\":15571:15588   */\n      add\n        /* \"#utility.yul\":15564:15611   */\n      mstore\n        /* \"#utility.yul\":15628:15759   */\n      tag_309\n        /* \"#utility.yul\":15754:15758   */\n      dup2\n        /* \"#utility.yul\":15628:15759   */\n      tag_160\n      jump\t// in\n    tag_309:\n        /* \"#utility.yul\":15620:15759   */\n      swap1\n      pop\n        /* \"#utility.yul\":15347:15766   */\n      swap2\n      swap1\n      pop\n      jump\t// out\n        /* \"#utility.yul\":15772:15944   */\n    tag_161:\n        /* \"#utility.yul\":15912:15936   */\n      0x4c6120616374756163696f6e206e6f2065786973746500000000000000000000\n        /* \"#utility.yul\":15908:15909   */\n      0x00\n        /* \"#utility.yul\":15900:15906   */\n      dup3\n        /* \"#utility.yul\":15896:15910   */\n      add\n        /* \"#utility.yul\":15889:15937   */\n      mstore\n        /* \"#utility.yul\":15772:15944   */\n      pop\n      jump\t// out\n        /* \"#utility.yul\":15950:16316   */\n    tag_162:\n        /* \"#utility.yul\":16092:16095   */\n      0x00\n        /* \"#utility.yul\":16113:16180   */\n      tag_312\n        /* \"#utility.yul\":16177:16179   */\n      0x16\n        /* \"#utility.yul\":16172:16175   */\n      dup4\n        /* \"#utility.yul\":16113:16180   */\n      tag_151\n      jump\t// in\n    tag_312:\n        /* \"#utility.yul\":16106:16180   */\n      swap2\n      pop\n        /* \"#utility.yul\":16189:16282   */\n      tag_313\n        /* \"#utility.yul\":16278:16281   */\n      dup3\n        /* \"#utility.yul\":16189:16282   */\n      tag_161\n      jump\t// in\n    tag_313:\n        /* \"#utility.yul\":16307:16309   */\n      0x20\n        /* \"#utility.yul\":16302:16305   */\n      dup3\n        /* \"#utility.yul\":16298:16310   */\n      add\n        /* \"#utility.yul\":16291:16310   */\n      swap1\n      pop\n        /* \"#utility.yul\":15950:16316   */\n      swap2\n      swap1\n      pop\n      jump\t// out\n        /* \"#utility.yul\":16322:16741   */\n    tag_92:\n        /* \"#utility.yul\":16488:16492   */\n      0x00\n        /* \"#utility.yul\":16526:16528   */\n      0x20\n        /* \"#utility.yul\":16515:16524   */\n      dup3\n        /* \"#utility.yul\":16511:16529   */\n      add\n        /* \"#utility.yul\":16503:16529   */\n      swap1\n      pop\n        /* \"#utility.yul\":16575:16584   */\n      dup2\n        /* \"#utility.yul\":16569:16573   */\n      dup2\n        /* \"#utility.yul\":16565:16585   */\n      sub\n        /* \"#utility.yul\":16561:16562   */\n      0x00\n        /* \"#utility.yul\":16550:16559   */\n      dup4\n        /* \"#utility.yul\":16546:16563   */\n      add\n        /* \"#utility.yul\":16539:16586   */\n      mstore\n        /* \"#utility.yul\":16603:16734   */\n      tag_315\n        /* \"#utility.yul\":16729:16733   */\n      dup2\n        /* \"#utility.yul\":16603:16734   */\n      tag_162\n      jump\t// in\n    tag_315:\n        /* \"#utility.yul\":16595:16734   */\n      swap1\n      pop\n        /* \"#utility.yul\":16322:16741   */\n      swap2\n      swap1\n      pop\n      jump\t// out\n        /* \"#utility.yul\":16747:16919   */\n    tag_163:\n        /* \"#utility.yul\":16887:16911   */\n      0x4c6120616374756163696f6e2079612065786973746500000000000000000000\n        /* \"#utility.yul\":16883:16884   */\n      0x00\n        /* \"#utility.yul\":16875:16881   */\n      dup3\n        /* \"#utility.yul\":16871:16885   */\n      add\n        /* \"#utility.yul\":16864:16912   */\n      mstore\n        /* \"#utility.yul\":16747:16919   */\n      pop\n      jump\t// out\n        /* \"#utility.yul\":16925:17291   */\n    tag_164:\n        /* \"#utility.yul\":17067:17070   */\n      0x00\n        /* \"#utility.yul\":17088:17155   */\n      tag_318\n        /* \"#utility.yul\":17152:17154   */\n      0x16\n        /* \"#utility.yul\":17147:17150   */\n      dup4\n        /* \"#utility.yul\":17088:17155   */\n      tag_151\n      jump\t// in\n    tag_318:\n        /* \"#utility.yul\":17081:17155   */\n      swap2\n      pop\n        /* \"#utility.yul\":17164:17257   */\n      tag_319\n        /* \"#utility.yul\":17253:17256   */\n      dup3\n        /* \"#utility.yul\":17164:17257   */\n      tag_163\n      jump\t// in\n    tag_319:\n        /* \"#utility.yul\":17282:17284   */\n      0x20\n        /* \"#utility.yul\":17277:17280   */\n      dup3\n        /* \"#utility.yul\":17273:17285   */\n      add\n        /* \"#utility.yul\":17266:17285   */\n      swap1\n      pop\n        /* \"#utility.yul\":16925:17291   */\n      swap2\n      swap1\n      pop\n      jump\t// out\n        /* \"#utility.yul\":17297:17716   */\n    tag_99:\n        /* \"#utility.yul\":17463:17467   */\n      0x00\n        /* \"#utility.yul\":17501:17503   */\n      0x20\n        /* \"#utility.yul\":17490:17499   */\n      dup3\n        /* \"#utility.yul\":17486:17504   */\n      add\n        /* \"#utility.yul\":17478:17504   */\n      swap1\n      pop\n        /* \"#utility.yul\":17550:17559   */\n      dup2\n        /* \"#utility.yul\":17544:17548   */\n      dup2\n        /* \"#utility.yul\":17540:17560   */\n      sub\n        /* \"#utility.yul\":17536:17537   */\n      0x00\n        /* \"#utility.yul\":17525:17534   */\n      dup4\n        /* \"#utility.yul\":17521:17538   */\n      add\n        /* \"#utility.yul\":17514:17561   */\n      mstore\n        /* \"#utility.yul\":17578:17709   */\n      tag_321\n        /* \"#utility.yul\":17704:17708   */\n      dup2\n        /* \"#utility.yul\":17578:17709   */\n      tag_164\n      jump\t// in\n    tag_321:\n        /* \"#utility.yul\":17570:17709   */\n      swap1\n      pop\n        /* \"#utility.yul\":17297:17716   */\n      swap2\n      swap1\n      pop\n      jump\t// out\n        /* \"#utility.yul\":17722:18378   */\n    tag_103:\n        /* \"#utility.yul\":17923:17927   */\n      0x00\n        /* \"#utility.yul\":17961:17964   */\n      0xa0\n        /* \"#utility.yul\":17950:17959   */\n      dup3\n        /* \"#utility.yul\":17946:17965   */\n      add\n        /* \"#utility.yul\":17938:17965   */\n      swap1\n      pop\n        /* \"#utility.yul\":17975:18046   */\n      tag_323\n        /* \"#utility.yul\":18043:18044   */\n      0x00\n        /* \"#utility.yul\":18032:18041   */\n      dup4\n        /* \"#utility.yul\":18028:18045   */\n      add\n        /* \"#utility.yul\":18019:18025   */\n      dup9\n        /* \"#utility.yul\":17975:18046   */\n      tag_148\n      jump\t// in\n    tag_323:\n        /* \"#utility.yul\":18056:18128   */\n      tag_324\n        /* \"#utility.yul\":18124:18126   */\n      0x20\n        /* \"#utility.yul\":18113:18122   */\n      dup4\n        /* \"#utility.yul\":18109:18127   */\n      add\n        /* \"#utility.yul\":18100:18106   */\n      dup8\n        /* \"#utility.yul\":18056:18128   */\n      tag_148\n      jump\t// in\n    tag_324:\n        /* \"#utility.yul\":18138:18210   */\n      tag_325\n        /* \"#utility.yul\":18206:18208   */\n      0x40\n        /* \"#utility.yul\":18195:18204   */\n      dup4\n        /* \"#utility.yul\":18191:18209   */\n      add\n        /* \"#utility.yul\":18182:18188   */\n      dup7\n        /* \"#utility.yul\":18138:18210   */\n      tag_148\n      jump\t// in\n    tag_325:\n        /* \"#utility.yul\":18220:18288   */\n      tag_326\n        /* \"#utility.yul\":18284:18286   */\n      0x60\n        /* \"#utility.yul\":18273:18282   */\n      dup4\n        /* \"#utility.yul\":18269:18287   */\n      add\n        /* \"#utility.yul\":18260:18266   */\n      dup6\n        /* \"#utility.yul\":18220:18288   */\n      tag_149\n      jump\t// in\n    tag_326:\n        /* \"#utility.yul\":18298:18371   */\n      tag_327\n        /* \"#utility.yul\":18366:18369   */\n      0x80\n        /* \"#utility.yul\":18355:18364   */\n      dup4\n        /* \"#utility.yul\":18351:18370   */\n      add\n        /* \"#utility.yul\":18342:18348   */\n      dup5\n        /* \"#utility.yul\":18298:18371   */\n      tag_150\n      jump\t// in\n    tag_327:\n        /* \"#utility.yul\":17722:18378   */\n      swap7\n      swap6\n      pop\n      pop\n      pop\n      pop\n      pop\n      pop\n      jump\t// out\n        /* \"#utility.yul\":18384:18554   */\n    tag_165:\n        /* \"#utility.yul\":18524:18546   */\n      0x4e6f20657320656c2070726f706965746172696f000000000000000000000000\n        /* \"#utility.yul\":18520:18521   */\n      0x00\n        /* \"#utility.yul\":18512:18518   */\n      dup3\n        /* \"#utility.yul\":18508:18522   */\n      add\n        /* \"#utility.yul\":18501:18547   */\n      mstore\n        /* \"#utility.yul\":18384:18554   */\n      pop\n      jump\t// out\n        /* \"#utility.yul\":18560:18926   */\n    tag_166:\n        /* \"#utility.yul\":18702:18705   */\n      0x00\n        /* \"#utility.yul\":18723:18790   */\n      tag_330\n        /* \"#utility.yul\":18787:18789   */\n      0x14\n        /* \"#utility.yul\":18782:18785   */\n      dup4\n        /* \"#utility.yul\":18723:18790   */\n      tag_151\n      jump\t// in\n    tag_330:\n        /* \"#utility.yul\":18716:18790   */\n      swap2\n      pop\n        /* \"#utility.yul\":18799:18892   */\n      tag_331\n        /* \"#utility.yul\":18888:18891   */\n      dup3\n        /* \"#utility.yul\":18799:18892   */\n      tag_165\n      jump\t// in\n    tag_331:\n        /* \"#utility.yul\":18917:18919   */\n      0x20\n        /* \"#utility.yul\":18912:18915   */\n      dup3\n        /* \"#utility.yul\":18908:18920   */\n      add\n        /* \"#utility.yul\":18901:18920   */\n      swap1\n      pop\n        /* \"#utility.yul\":18560:18926   */\n      swap2\n      swap1\n      pop\n      jump\t// out\n        /* \"#utility.yul\":18932:19351   */\n    tag_109:\n        /* \"#utility.yul\":19098:19102   */\n      0x00\n        /* \"#utility.yul\":19136:19138   */\n      0x20\n        /* \"#utility.yul\":19125:19134   */\n      dup3\n        /* \"#utility.yul\":19121:19139   */\n      add\n        /* \"#utility.yul\":19113:19139   */\n      swap1\n      pop\n        /* \"#utility.yul\":19185:19194   */\n      dup2\n        /* \"#utility.yul\":19179:19183   */\n      dup2\n        /* \"#utility.yul\":19175:19195   */\n      sub\n        /* \"#utility.yul\":19171:19172   */\n      0x00\n        /* \"#utility.yul\":19160:19169   */\n      dup4\n        /* \"#utility.yul\":19156:19173   */\n      add\n        /* \"#utility.yul\":19149:19196   */\n      mstore\n        /* \"#utility.yul\":19213:19344   */\n      tag_333\n        /* \"#utility.yul\":19339:19343   */\n      dup2\n        /* \"#utility.yul\":19213:19344   */\n      tag_166\n      jump\t// in\n    tag_333:\n        /* \"#utility.yul\":19205:19344   */\n      swap1\n      pop\n        /* \"#utility.yul\":18932:19351   */\n      swap2\n      swap1\n      pop\n      jump\t// out\n        /* \"#utility.yul\":19357:19681   */\n    tag_119:\n        /* \"#utility.yul\":19474:19478   */\n      0x00\n        /* \"#utility.yul\":19512:19514   */\n      0x40\n        /* \"#utility.yul\":19501:19510   */\n      dup3\n        /* \"#utility.yul\":19497:19515   */\n      add\n        /* \"#utility.yul\":19489:19515   */\n      swap1\n      pop\n        /* \"#utility.yul\":19525:19596   */\n      tag_335\n        /* \"#utility.yul\":19593:19594   */\n      0x00\n        /* \"#utility.yul\":19582:19591   */\n      dup4\n        /* \"#utility.yul\":19578:19595   */\n      add\n        /* \"#utility.yul\":19569:19575   */\n      dup6\n        /* \"#utility.yul\":19525:19596   */\n      tag_148\n      jump\t// in\n    tag_335:\n        /* \"#utility.yul\":19606:19674   */\n      tag_336\n        /* \"#utility.yul\":19670:19672   */\n      0x20\n        /* \"#utility.yul\":19659:19668   */\n      dup4\n        /* \"#utility.yul\":19655:19673   */\n      add\n        /* \"#utility.yul\":19646:19652   */\n      dup5\n        /* \"#utility.yul\":19606:19674   */\n      tag_149\n      jump\t// in\n    tag_336:\n        /* \"#utility.yul\":19357:19681   */\n      swap4\n      swap3\n      pop\n      pop\n      pop\n      jump\t// out\n\n    auxdata: 0xa2646970667358221220c2baa1656008eaac4b6af7c643bb68b48bc2b502b4044c53f0f945a04863a40564736f6c63430008220033\n}\n",
				"bytecode": {
					"linkReferences": {},
					"object": "6080604052348015600e575f5ffd5b50335f5f6101000a81548173ffffffffffffffffffffffffffffffffffffffff021916908373ffffffffffffffffffffffffffffffffffffffff1602179055506116108061005b5f395ff3fe60806040526004361061006f575f3560e01c80634eba0ca01161004d5780634eba0ca0146100f557806352b5241e14610131578063ad3b15ef1461015b578063c83e9d6d1461019b5761006f565b80631bc7509e146100735780633c4f81cd146100af57806347525ed6146100d9575b5f5ffd5b34801561007e575f5ffd5b5061009960048036038101906100949190610cb9565b6101c3565b6040516100a69190610e60565b60405180910390f35b3480156100ba575f5ffd5b506100c36101de565b6040516100d09190610e8f565b60405180910390f35b6100f360048036038101906100ee9190610efc565b610202565b005b348015610100575f5ffd5b5061011b60048036038101906101169190610f85565b6102f6565b6040516101289190610fef565b60405180910390f35b34801561013c575f5ffd5b5061014561038f565b6040516101529190611017565b60405180910390f35b348015610166575f5ffd5b50610181600480360381019061017c9190610cb9565b610395565b60405161019295949392919061104e565b60405180910390f35b3480156101a6575f5ffd5b506101c160048036038101906101bc919061109f565b610444565b005b60605f6101cf83610498565b90508060600151915050919050565b5f5f9054906101000a900473ffffffffffffffffffffffffffffffffffffffff1681565b6101f4341015610247576040517f08c379a000000000000000000000000000000000000000000000000000000000815260040161023e9061115d565b60405180910390fd5b5f8160ff161461028c576040517f08c379a0000000000000000000000000000000000000000000000000000000008152600401610283906111eb565b60405180910390fd5b6102998686838787610630565b8160035f8881526020019081526020015f205f01819055507f5694b19b2cfcf39a4309e7d5015b841327b2020ff7dfbe0c17328b4c90aed71e868383876040516102e69493929190611209565b60405180910390a1505050505050565b5f60018360ff161461033d576040517f08c379a0000000000000000000000000000000000000000000000000000000008152600401610334906112bc565b60405180910390fd5b61034884848461081d565b507f6b61900003115b8294d08086dd6dcc4c444a62a018562b71ed4bc4a47be18fbe84848460405161037c939291906112da565b60405180910390a1600190509392505050565b6101f481565b5f5f5f5f5f5f6103a487610498565b90505f60035f8981526020019081526020015f209050815f01518260200151836060015160018560600151516103da919061133c565b815181106103eb576103ea61136f565b5b602002602001015160200151835f015485606001516001876060015151610412919061133c565b815181106104235761042261136f565b5b60200260200101516040015196509650965096509650505091939590929450565b60028160ff161461048a576040517f08c379a00000000000000000000000000000000000000000000000000000000081526004016104819061140c565b60405180910390fd5b6104948282610a40565b5050565b6104a0610c5b565b60015f8381526020019081526020015f206002015f9054906101000a900460ff16610500576040517f08c379a00000000000000000000000000000000000000000000000000000000081526004016104f790611474565b60405180910390fd5b60015f8381526020019081526020015f206040518060800160405290815f820154815260200160018201548152602001600282015f9054906101000a900460ff1615151515815260200160038201805480602002602001604051908101604052809291908181526020015f905b82821015610621578382905f5260205f2090600402016040518060800160405290815f8201548152602001600182015f9054906101000a900460ff1660ff1660ff16815260200160028201548152602001600382015f9054906101000a900473ffffffffffffffffffffffffffffffffffffffff1673ffffffffffffffffffffffffffffffffffffffff1673ffffffffffffffffffffffffffffffffffffffff16815250508152602001906001019061056d565b50505050815250509050919050565b60015f8681526020019081526020015f206002015f9054906101000a900460ff1615610691576040517f08c379a0000000000000000000000000000000000000000000000000000000008152600401610688906114dc565b60405180910390fd5b5f60015f8781526020019081526020015f2090506001816002015f6101000a81548160ff02191690831515021790555084816001018190555081815f01819055508060030160405180608001604052804281526020018660ff1681526020018581526020013373ffffffffffffffffffffffffffffffffffffffff16815250908060018154018082558091505060019003905f5260205f2090600402015f909190919091505f820151815f01556020820151816001015f6101000a81548160ff021916908360ff160217905550604082015181600201556060820151816003015f6101000a81548173ffffffffffffffffffffffffffffffffffffffff021916908373ffffffffffffffffffffffffffffffffffffffff1602179055505050600286908060018154018082558091505060019003905f5260205f20015f90919091909150557f164383a2b97191661e35fd7054520c2abdf173025e32983b038ecb35a796cda7868387878760405161080d9594939291906114fa565b60405180910390a1505050505050565b5f60015f8581526020019081526020015f206002015f9054906101000a900460ff1661087e576040517f08c379a000000000000000000000000000000000000000000000000000000000815260040161087590611474565b60405180910390fd5b5f5f9054906101000a900473ffffffffffffffffffffffffffffffffffffffff1673ffffffffffffffffffffffffffffffffffffffff163373ffffffffffffffffffffffffffffffffffffffff161461090c576040517f08c379a000000000000000000000000000000000000000000000000000000000815260040161090390611595565b60405180910390fd5b60015f8581526020019081526020015f2060030160405180608001604052804281526020018560ff1681526020018481526020013373ffffffffffffffffffffffffffffffffffffffff16815250908060018154018082558091505060019003905f5260205f2090600402015f909190919091505f820151815f01556020820151816001015f6101000a81548160ff021916908360ff160217905550604082015181600201556060820151816003015f6101000a81548173ffffffffffffffffffffffffffffffffffffffff021916908373ffffffffffffffffffffffffffffffffffffffff16021790555050507f02fd7cca134bdc372692f9e8679a7046060ca6da0c386e7494b18b9c21b10652848484604051610a2d939291906112da565b60405180910390a1600190509392505050565b60015f8381526020019081526020015f206002015f9054906101000a900460ff16610aa0576040517f08c379a0000000000000000000000000000000000000000000000000000000008152600401610a9790611474565b60405180910390fd5b5f5f9054906101000a900473ffffffffffffffffffffffffffffffffffffffff1673ffffffffffffffffffffffffffffffffffffffff163373ffffffffffffffffffffffffffffffffffffffff1614610b2e576040517f08c379a0000000000000000000000000000000000000000000000000000000008152600401610b2590611595565b60405180910390fd5b60015f8381526020019081526020015f2060030160405180608001604052804281526020018360ff1681526020015f5f1b81526020013373ffffffffffffffffffffffffffffffffffffffff16815250908060018154018082558091505060019003905f5260205f2090600402015f909190919091505f820151815f01556020820151816001015f6101000a81548160ff021916908360ff160217905550604082015181600201556060820151816003015f6101000a81548173ffffffffffffffffffffffffffffffffffffffff021916908373ffffffffffffffffffffffffffffffffffffffff16021790555050507f55f3b2b2bc9c07499976075b3a9a78344b888c51b194889c9214c6eba4bf01138282604051610c4f9291906115b3565b60405180910390a15050565b60405180608001604052805f81526020015f81526020015f15158152602001606081525090565b5f5ffd5b5f819050919050565b610c9881610c86565b8114610ca2575f5ffd5b50565b5f81359050610cb381610c8f565b92915050565b5f60208284031215610cce57610ccd610c82565b5b5f610cdb84828501610ca5565b91505092915050565b5f81519050919050565b5f82825260208201905092915050565b5f819050602082019050919050565b610d1681610c86565b82525050565b5f60ff82169050919050565b610d3181610d1c565b82525050565b5f819050919050565b610d4981610d37565b82525050565b5f73ffffffffffffffffffffffffffffffffffffffff82169050919050565b5f610d7882610d4f565b9050919050565b610d8881610d6e565b82525050565b608082015f820151610da25f850182610d0d565b506020820151610db56020850182610d28565b506040820151610dc86040850182610d40565b506060820151610ddb6060850182610d7f565b50505050565b5f610dec8383610d8e565b60808301905092915050565b5f602082019050919050565b5f610e0e82610ce4565b610e188185610cee565b9350610e2383610cfe565b805f5b83811015610e53578151610e3a8882610de1565b9750610e4583610df8565b925050600181019050610e26565b5085935050505092915050565b5f6020820190508181035f830152610e788184610e04565b905092915050565b610e8981610d6e565b82525050565b5f602082019050610ea25f830184610e80565b92915050565b610eb181610d37565b8114610ebb575f5ffd5b50565b5f81359050610ecc81610ea8565b92915050565b610edb81610d1c565b8114610ee5575f5ffd5b50565b5f81359050610ef681610ed2565b92915050565b5f5f5f5f5f5f60c08789031215610f1657610f15610c82565b5b5f610f2389828a01610ca5565b9650506020610f3489828a01610ca5565b9550506040610f4589828a01610ebe565b9450506060610f5689828a01610ca5565b9350506080610f6789828a01610ca5565b92505060a0610f7889828a01610ee8565b9150509295509295509295565b5f5f5f60608486031215610f9c57610f9b610c82565b5b5f610fa986828701610ca5565b9350506020610fba86828701610ee8565b9250506040610fcb86828701610ebe565b9150509250925092565b5f8115159050919050565b610fe981610fd5565b82525050565b5f6020820190506110025f830184610fe0565b92915050565b61101181610c86565b82525050565b5f60208201905061102a5f830184611008565b92915050565b61103981610d1c565b82525050565b61104881610d37565b82525050565b5f60a0820190506110615f830188611008565b61106e6020830187611008565b61107b6040830186611030565b6110886060830185611008565b611095608083018461103f565b9695505050505050565b5f5f604083850312156110b5576110b4610c82565b5b5f6110c285828601610ca5565b92505060206110d385828601610ee8565b9150509250929050565b5f82825260208201905092915050565b7f4e6f2073652068612070616761646f206c6120746172696661206465207265675f8201527f697374726f000000000000000000000000000000000000000000000000000000602082015250565b5f6111476025836110dd565b9150611152826110ed565b604082019050919050565b5f6020820190508181035f8301526111748161113b565b9050919050565b7f566967656e63696120696e76616c6964613a20757365202830292070617261205f8201527f566967656e746500000000000000000000000000000000000000000000000000602082015250565b5f6111d56027836110dd565b91506111e08261117b565b604082019050919050565b5f6020820190508181035f830152611202816111c9565b9050919050565b5f60808201905061121c5f830187611008565b6112296020830186611008565b6112366040830185611030565b611243606083018461103f565b95945050505050565b7f566967656e63696120696e76616c6964613a20757365202831292070617261205f8201527f4d6f646966696361646120000000000000000000000000000000000000000000602082015250565b5f6112a6602b836110dd565b91506112b18261124c565b604082019050919050565b5f6020820190508181035f8301526112d38161129a565b9050919050565b5f6060820190506112ed5f830186611008565b6112fa6020830185611030565b611307604083018461103f565b949350505050565b7f4e487b71000000000000000000000000000000000000000000000000000000005f52601160045260245ffd5b5f61134682610c86565b915061135183610c86565b92508282039050818111156113695761136861130f565b5b92915050565b7f4e487b71000000000000000000000000000000000000000000000000000000005f52603260045260245ffd5b7f566967656e63696120696e76616c6964613a20757365202832292070617261205f8201527f4465726f67616461000000000000000000000000000000000000000000000000602082015250565b5f6113f66028836110dd565b91506114018261139c565b604082019050919050565b5f6020820190508181035f830152611423816113ea565b9050919050565b7f4c6120616374756163696f6e206e6f20657869737465000000000000000000005f82015250565b5f61145e6016836110dd565b91506114698261142a565b602082019050919050565b5f6020820190508181035f83015261148b81611452565b9050919050565b7f4c6120616374756163696f6e20796120657869737465000000000000000000005f82015250565b5f6114c66016836110dd565b91506114d182611492565b602082019050919050565b5f6020820190508181035f8301526114f3816114ba565b9050919050565b5f60a08201905061150d5f830188611008565b61151a6020830187611008565b6115276040830186611008565b6115346060830185611030565b611541608083018461103f565b9695505050505050565b7f4e6f20657320656c2070726f706965746172696f0000000000000000000000005f82015250565b5f61157f6014836110dd565b915061158a8261154b565b602082019050919050565b5f6020820190508181035f8301526115ac81611573565b9050919050565b5f6040820190506115c65f830185611008565b6115d36020830184611030565b939250505056fea2646970667358221220c2baa1656008eaac4b6af7c643bb68b48bc2b502b4044c53f0f945a04863a40564736f6c63430008220033",
					"opcodes": "PUSH1 0x80 PUSH1 0x40 MSTORE CALLVALUE DUP1 ISZERO PUSH1 0xE JUMPI PUSH0 PUSH0 REVERT JUMPDEST POP CALLER PUSH0 PUSH0 PUSH2 0x100 EXP DUP2 SLOAD DUP2 PUSH20 0xFFFFFFFFFFFFFFFFFFFFFFFFFFFFFFFFFFFFFFFF MUL NOT AND SWAP1 DUP4 PUSH20 0xFFFFFFFFFFFFFFFFFFFFFFFFFFFFFFFFFFFFFFFF AND MUL OR SWAP1 SSTORE POP PUSH2 0x1610 DUP1 PUSH2 0x5B PUSH0 CODECOPY PUSH0 RETURN INVALID PUSH1 0x80 PUSH1 0x40 MSTORE PUSH1 0x4 CALLDATASIZE LT PUSH2 0x6F JUMPI PUSH0 CALLDATALOAD PUSH1 0xE0 SHR DUP1 PUSH4 0x4EBA0CA0 GT PUSH2 0x4D JUMPI DUP1 PUSH4 0x4EBA0CA0 EQ PUSH2 0xF5 JUMPI DUP1 PUSH4 0x52B5241E EQ PUSH2 0x131 JUMPI DUP1 PUSH4 0xAD3B15EF EQ PUSH2 0x15B JUMPI DUP1 PUSH4 0xC83E9D6D EQ PUSH2 0x19B JUMPI PUSH2 0x6F JUMP JUMPDEST DUP1 PUSH4 0x1BC7509E EQ PUSH2 0x73 JUMPI DUP1 PUSH4 0x3C4F81CD EQ PUSH2 0xAF JUMPI DUP1 PUSH4 0x47525ED6 EQ PUSH2 0xD9 JUMPI JUMPDEST PUSH0 PUSH0 REVERT JUMPDEST CALLVALUE DUP1 ISZERO PUSH2 0x7E JUMPI PUSH0 PUSH0 REVERT JUMPDEST POP PUSH2 0x99 PUSH1 0x4 DUP1 CALLDATASIZE SUB DUP2 ADD SWAP1 PUSH2 0x94 SWAP2 SWAP1 PUSH2 0xCB9 JUMP JUMPDEST PUSH2 0x1C3 JUMP JUMPDEST PUSH1 0x40 MLOAD PUSH2 0xA6 SWAP2 SWAP1 PUSH2 0xE60 JUMP JUMPDEST PUSH1 0x40 MLOAD DUP1 SWAP2 SUB SWAP1 RETURN JUMPDEST CALLVALUE DUP1 ISZERO PUSH2 0xBA JUMPI PUSH0 PUSH0 REVERT JUMPDEST POP PUSH2 0xC3 PUSH2 0x1DE JUMP JUMPDEST PUSH1 0x40 MLOAD PUSH2 0xD0 SWAP2 SWAP1 PUSH2 0xE8F JUMP JUMPDEST PUSH1 0x40 MLOAD DUP1 SWAP2 SUB SWAP1 RETURN JUMPDEST PUSH2 0xF3 PUSH1 0x4 DUP1 CALLDATASIZE SUB DUP2 ADD SWAP1 PUSH2 0xEE SWAP2 SWAP1 PUSH2 0xEFC JUMP JUMPDEST PUSH2 0x202 JUMP JUMPDEST STOP JUMPDEST CALLVALUE DUP1 ISZERO PUSH2 0x100 JUMPI PUSH0 PUSH0 REVERT JUMPDEST POP PUSH2 0x11B PUSH1 0x4 DUP1 CALLDATASIZE SUB DUP2 ADD SWAP1 PUSH2 0x116 SWAP2 SWAP1 PUSH2 0xF85 JUMP JUMPDEST PUSH2 0x2F6 JUMP JUMPDEST PUSH1 0x40 MLOAD PUSH2 0x128 SWAP2 SWAP1 PUSH2 0xFEF JUMP JUMPDEST PUSH1 0x40 MLOAD DUP1 SWAP2 SUB SWAP1 RETURN JUMPDEST CALLVALUE DUP1 ISZERO PUSH2 0x13C JUMPI PUSH0 PUSH0 REVERT JUMPDEST POP PUSH2 0x145 PUSH2 0x38F JUMP JUMPDEST PUSH1 0x40 MLOAD PUSH2 0x152 SWAP2 SWAP1 PUSH2 0x1017 JUMP JUMPDEST PUSH1 0x40 MLOAD DUP1 SWAP2 SUB SWAP1 RETURN JUMPDEST CALLVALUE DUP1 ISZERO PUSH2 0x166 JUMPI PUSH0 PUSH0 REVERT JUMPDEST POP PUSH2 0x181 PUSH1 0x4 DUP1 CALLDATASIZE SUB DUP2 ADD SWAP1 PUSH2 0x17C SWAP2 SWAP1 PUSH2 0xCB9 JUMP JUMPDEST PUSH2 0x395 JUMP JUMPDEST PUSH1 0x40 MLOAD PUSH2 0x192 SWAP6 SWAP5 SWAP4 SWAP3 SWAP2 SWAP1 PUSH2 0x104E JUMP JUMPDEST PUSH1 0x40 MLOAD DUP1 SWAP2 SUB SWAP1 RETURN JUMPDEST CALLVALUE DUP1 ISZERO PUSH2 0x1A6 JUMPI PUSH0 PUSH0 REVERT JUMPDEST POP PUSH2 0x1C1 PUSH1 0x4 DUP1 CALLDATASIZE SUB DUP2 ADD SWAP1 PUSH2 0x1BC SWAP2 SWAP1 PUSH2 0x109F JUMP JUMPDEST PUSH2 0x444 JUMP JUMPDEST STOP JUMPDEST PUSH1 0x60 PUSH0 PUSH2 0x1CF DUP4 PUSH2 0x498 JUMP JUMPDEST SWAP1 POP DUP1 PUSH1 0x60 ADD MLOAD SWAP2 POP POP SWAP2 SWAP1 POP JUMP JUMPDEST PUSH0 PUSH0 SWAP1 SLOAD SWAP1 PUSH2 0x100 EXP SWAP1 DIV PUSH20 0xFFFFFFFFFFFFFFFFFFFFFFFFFFFFFFFFFFFFFFFF AND DUP2 JUMP JUMPDEST PUSH2 0x1F4 CALLVALUE LT ISZERO PUSH2 0x247 JUMPI PUSH1 0x40 MLOAD PUSH32 0x8C379A000000000000000000000000000000000000000000000000000000000 DUP2 MSTORE PUSH1 0x4 ADD PUSH2 0x23E SWAP1 PUSH2 0x115D JUMP JUMPDEST PUSH1 0x40 MLOAD DUP1 SWAP2 SUB SWAP1 REVERT JUMPDEST PUSH0 DUP2 PUSH1 0xFF AND EQ PUSH2 0x28C JUMPI PUSH1 0x40 MLOAD PUSH32 0x8C379A000000000000000000000000000000000000000000000000000000000 DUP2 MSTORE PUSH1 0x4 ADD PUSH2 0x283 SWAP1 PUSH2 0x11EB JUMP JUMPDEST PUSH1 0x40 MLOAD DUP1 SWAP2 SUB SWAP1 REVERT JUMPDEST PUSH2 0x299 DUP7 DUP7 DUP4 DUP8 DUP8 PUSH2 0x630 JUMP JUMPDEST DUP2 PUSH1 0x3 PUSH0 DUP9 DUP2 MSTORE PUSH1 0x20 ADD SWAP1 DUP2 MSTORE PUSH1 0x20 ADD PUSH0 KECCAK256 PUSH0 ADD DUP2 SWAP1 SSTORE POP PUSH32 0x5694B19B2CFCF39A4309E7D5015B841327B2020FF7DFBE0C17328B4C90AED71E DUP7 DUP4 DUP4 DUP8 PUSH1 0x40 MLOAD PUSH2 0x2E6 SWAP5 SWAP4 SWAP3 SWAP2 SWAP1 PUSH2 0x1209 JUMP JUMPDEST PUSH1 0x40 MLOAD DUP1 SWAP2 SUB SWAP1 LOG1 POP POP POP POP POP POP JUMP JUMPDEST PUSH0 PUSH1 0x1 DUP4 PUSH1 0xFF AND EQ PUSH2 0x33D JUMPI PUSH1 0x40 MLOAD PUSH32 0x8C379A000000000000000000000000000000000000000000000000000000000 DUP2 MSTORE PUSH1 0x4 ADD PUSH2 0x334 SWAP1 PUSH2 0x12BC JUMP JUMPDEST PUSH1 0x40 MLOAD DUP1 SWAP2 SUB SWAP1 REVERT JUMPDEST PUSH2 0x348 DUP5 DUP5 DUP5 PUSH2 0x81D JUMP JUMPDEST POP PUSH32 0x6B61900003115B8294D08086DD6DCC4C444A62A018562B71ED4BC4A47BE18FBE DUP5 DUP5 DUP5 PUSH1 0x40 MLOAD PUSH2 0x37C SWAP4 SWAP3 SWAP2 SWAP1 PUSH2 0x12DA JUMP JUMPDEST PUSH1 0x40 MLOAD DUP1 SWAP2 SUB SWAP1 LOG1 PUSH1 0x1 SWAP1 POP SWAP4 SWAP3 POP POP POP JUMP JUMPDEST PUSH2 0x1F4 DUP2 JUMP JUMPDEST PUSH0 PUSH0 PUSH0 PUSH0 PUSH0 PUSH0 PUSH2 0x3A4 DUP8 PUSH2 0x498 JUMP JUMPDEST SWAP1 POP PUSH0 PUSH1 0x3 PUSH0 DUP10 DUP2 MSTORE PUSH1 0x20 ADD SWAP1 DUP2 MSTORE PUSH1 0x20 ADD PUSH0 KECCAK256 SWAP1 POP DUP2 PUSH0 ADD MLOAD DUP3 PUSH1 0x20 ADD MLOAD DUP4 PUSH1 0x60 ADD MLOAD PUSH1 0x1 DUP6 PUSH1 0x60 ADD MLOAD MLOAD PUSH2 0x3DA SWAP2 SWAP1 PUSH2 0x133C JUMP JUMPDEST DUP2 MLOAD DUP2 LT PUSH2 0x3EB JUMPI PUSH2 0x3EA PUSH2 0x136F JUMP JUMPDEST JUMPDEST PUSH1 0x20 MUL PUSH1 0x20 ADD ADD MLOAD PUSH1 0x20 ADD MLOAD DUP4 PUSH0 ADD SLOAD DUP6 PUSH1 0x60 ADD MLOAD PUSH1 0x1 DUP8 PUSH1 0x60 ADD MLOAD MLOAD PUSH2 0x412 SWAP2 SWAP1 PUSH2 0x133C JUMP JUMPDEST DUP2 MLOAD DUP2 LT PUSH2 0x423 JUMPI PUSH2 0x422 PUSH2 0x136F JUMP JUMPDEST JUMPDEST PUSH1 0x20 MUL PUSH1 0x20 ADD ADD MLOAD PUSH1 0x40 ADD MLOAD SWAP7 POP SWAP7 POP SWAP7 POP SWAP7 POP SWAP7 POP POP POP SWAP2 SWAP4 SWAP6 SWAP1 SWAP3 SWAP5 POP JUMP JUMPDEST PUSH1 0x2 DUP2 PUSH1 0xFF AND EQ PUSH2 0x48A JUMPI PUSH1 0x40 MLOAD PUSH32 0x8C379A000000000000000000000000000000000000000000000000000000000 DUP2 MSTORE PUSH1 0x4 ADD PUSH2 0x481 SWAP1 PUSH2 0x140C JUMP JUMPDEST PUSH1 0x40 MLOAD DUP1 SWAP2 SUB SWAP1 REVERT JUMPDEST PUSH2 0x494 DUP3 DUP3 PUSH2 0xA40 JUMP JUMPDEST POP POP JUMP JUMPDEST PUSH2 0x4A0 PUSH2 0xC5B JUMP JUMPDEST PUSH1 0x1 PUSH0 DUP4 DUP2 MSTORE PUSH1 0x20 ADD SWAP1 DUP2 MSTORE PUSH1 0x20 ADD PUSH0 KECCAK256 PUSH1 0x2 ADD PUSH0 SWAP1 SLOAD SWAP1 PUSH2 0x100 EXP SWAP1 DIV PUSH1 0xFF AND PUSH2 0x500 JUMPI PUSH1 0x40 MLOAD PUSH32 0x8C379A000000000000000000000000000000000000000000000000000000000 DUP2 MSTORE PUSH1 0x4 ADD PUSH2 0x4F7 SWAP1 PUSH2 0x1474 JUMP JUMPDEST PUSH1 0x40 MLOAD DUP1 SWAP2 SUB SWAP1 REVERT JUMPDEST PUSH1 0x1 PUSH0 DUP4 DUP2 MSTORE PUSH1 0x20 ADD SWAP1 DUP2 MSTORE PUSH1 0x20 ADD PUSH0 KECCAK256 PUSH1 0x40 MLOAD DUP1 PUSH1 0x80 ADD PUSH1 0x40 MSTORE SWAP1 DUP2 PUSH0 DUP3 ADD SLOAD DUP2 MSTORE PUSH1 0x20 ADD PUSH1 0x1 DUP3 ADD SLOAD DUP2 MSTORE PUSH1 0x20 ADD PUSH1 0x2 DUP3 ADD PUSH0 SWAP1 SLOAD SWAP1 PUSH2 0x100 EXP SWAP1 DIV PUSH1 0xFF AND ISZERO ISZERO ISZERO ISZERO DUP2 MSTORE PUSH1 0x20 ADD PUSH1 0x3 DUP3 ADD DUP1 SLOAD DUP1 PUSH1 0x20 MUL PUSH1 0x20 ADD PUSH1 0x40 MLOAD SWAP1 DUP2 ADD PUSH1 0x40 MSTORE DUP1 SWAP3 SWAP2 SWAP1 DUP2 DUP2 MSTORE PUSH1 0x20 ADD PUSH0 SWAP1 JUMPDEST DUP3 DUP3 LT ISZERO PUSH2 0x621 JUMPI DUP4 DUP3 SWAP1 PUSH0 MSTORE PUSH1 0x20 PUSH0 KECCAK256 SWAP1 PUSH1 0x4 MUL ADD PUSH1 0x40 MLOAD DUP1 PUSH1 0x80 ADD PUSH1 0x40 MSTORE SWAP1 DUP2 PUSH0 DUP3 ADD SLOAD DUP2 MSTORE PUSH1 0x20 ADD PUSH1 0x1 DUP3 ADD PUSH0 SWAP1 SLOAD SWAP1 PUSH2 0x100 EXP SWAP1 DIV PUSH1 0xFF AND PUSH1 0xFF AND PUSH1 0xFF AND DUP2 MSTORE PUSH1 0x20 ADD PUSH1 0x2 DUP3 ADD SLOAD DUP2 MSTORE PUSH1 0x20 ADD PUSH1 0x3 DUP3 ADD PUSH0 SWAP1 SLOAD SWAP1 PUSH2 0x100 EXP SWAP1 DIV PUSH20 0xFFFFFFFFFFFFFFFFFFFFFFFFFFFFFFFFFFFFFFFF AND PUSH20 0xFFFFFFFFFFFFFFFFFFFFFFFFFFFFFFFFFFFFFFFF AND PUSH20 0xFFFFFFFFFFFFFFFFFFFFFFFFFFFFFFFFFFFFFFFF AND DUP2 MSTORE POP POP DUP2 MSTORE PUSH1 0x20 ADD SWAP1 PUSH1 0x1 ADD SWAP1 PUSH2 0x56D JUMP JUMPDEST POP POP POP POP DUP2 MSTORE POP POP SWAP1 POP SWAP2 SWAP1 POP JUMP JUMPDEST PUSH1 0x1 PUSH0 DUP7 DUP2 MSTORE PUSH1 0x20 ADD SWAP1 DUP2 MSTORE PUSH1 0x20 ADD PUSH0 KECCAK256 PUSH1 0x2 ADD PUSH0 SWAP1 SLOAD SWAP1 PUSH2 0x100 EXP SWAP1 DIV PUSH1 0xFF AND ISZERO PUSH2 0x691 JUMPI PUSH1 0x40 MLOAD PUSH32 0x8C379A000000000000000000000000000000000000000000000000000000000 DUP2 MSTORE PUSH1 0x4 ADD PUSH2 0x688 SWAP1 PUSH2 0x14DC JUMP JUMPDEST PUSH1 0x40 MLOAD DUP1 SWAP2 SUB SWAP1 REVERT JUMPDEST PUSH0 PUSH1 0x1 PUSH0 DUP8 DUP2 MSTORE PUSH1 0x20 ADD SWAP1 DUP2 MSTORE PUSH1 0x20 ADD PUSH0 KECCAK256 SWAP1 POP PUSH1 0x1 DUP2 PUSH1 0x2 ADD PUSH0 PUSH2 0x100 EXP DUP2 SLOAD DUP2 PUSH1 0xFF MUL NOT AND SWAP1 DUP4 ISZERO ISZERO MUL OR SWAP1 SSTORE POP DUP5 DUP2 PUSH1 0x1 ADD DUP2 SWAP1 SSTORE POP DUP2 DUP2 PUSH0 ADD DUP2 SWAP1 SSTORE POP DUP1 PUSH1 0x3 ADD PUSH1 0x40 MLOAD DUP1 PUSH1 0x80 ADD PUSH1 0x40 MSTORE DUP1 TIMESTAMP DUP2 MSTORE PUSH1 0x20 ADD DUP7 PUSH1 0xFF AND DUP2 MSTORE PUSH1 0x20 ADD DUP6 DUP2 MSTORE PUSH1 0x20 ADD CALLER PUSH20 0xFFFFFFFFFFFFFFFFFFFFFFFFFFFFFFFFFFFFFFFF AND DUP2 MSTORE POP SWAP1 DUP1 PUSH1 0x1 DUP2 SLOAD ADD DUP1 DUP3 SSTORE DUP1 SWAP2 POP POP PUSH1 0x1 SWAP1 SUB SWAP1 PUSH0 MSTORE PUSH1 0x20 PUSH0 KECCAK256 SWAP1 PUSH1 0x4 MUL ADD PUSH0 SWAP1 SWAP2 SWAP1 SWAP2 SWAP1 SWAP2 POP PUSH0 DUP3 ADD MLOAD DUP2 PUSH0 ADD SSTORE PUSH1 0x20 DUP3 ADD MLOAD DUP2 PUSH1 0x1 ADD PUSH0 PUSH2 0x100 EXP DUP2 SLOAD DUP2 PUSH1 0xFF MUL NOT AND SWAP1 DUP4 PUSH1 0xFF AND MUL OR SWAP1 SSTORE POP PUSH1 0x40 DUP3 ADD MLOAD DUP2 PUSH1 0x2 ADD SSTORE PUSH1 0x60 DUP3 ADD MLOAD DUP2 PUSH1 0x3 ADD PUSH0 PUSH2 0x100 EXP DUP2 SLOAD DUP2 PUSH20 0xFFFFFFFFFFFFFFFFFFFFFFFFFFFFFFFFFFFFFFFF MUL NOT AND SWAP1 DUP4 PUSH20 0xFFFFFFFFFFFFFFFFFFFFFFFFFFFFFFFFFFFFFFFF AND MUL OR SWAP1 SSTORE POP POP POP PUSH1 0x2 DUP7 SWAP1 DUP1 PUSH1 0x1 DUP2 SLOAD ADD DUP1 DUP3 SSTORE DUP1 SWAP2 POP POP PUSH1 0x1 SWAP1 SUB SWAP1 PUSH0 MSTORE PUSH1 0x20 PUSH0 KECCAK256 ADD PUSH0 SWAP1 SWAP2 SWAP1 SWAP2 SWAP1 SWAP2 POP SSTORE PUSH32 0x164383A2B97191661E35FD7054520C2ABDF173025E32983B038ECB35A796CDA7 DUP7 DUP4 DUP8 DUP8 DUP8 PUSH1 0x40 MLOAD PUSH2 0x80D SWAP6 SWAP5 SWAP4 SWAP3 SWAP2 SWAP1 PUSH2 0x14FA JUMP JUMPDEST PUSH1 0x40 MLOAD DUP1 SWAP2 SUB SWAP1 LOG1 POP POP POP POP POP POP JUMP JUMPDEST PUSH0 PUSH1 0x1 PUSH0 DUP6 DUP2 MSTORE PUSH1 0x20 ADD SWAP1 DUP2 MSTORE PUSH1 0x20 ADD PUSH0 KECCAK256 PUSH1 0x2 ADD PUSH0 SWAP1 SLOAD SWAP1 PUSH2 0x100 EXP SWAP1 DIV PUSH1 0xFF AND PUSH2 0x87E JUMPI PUSH1 0x40 MLOAD PUSH32 0x8C379A000000000000000000000000000000000000000000000000000000000 DUP2 MSTORE PUSH1 0x4 ADD PUSH2 0x875 SWAP1 PUSH2 0x1474 JUMP JUMPDEST PUSH1 0x40 MLOAD DUP1 SWAP2 SUB SWAP1 REVERT JUMPDEST PUSH0 PUSH0 SWAP1 SLOAD SWAP1 PUSH2 0x100 EXP SWAP1 DIV PUSH20 0xFFFFFFFFFFFFFFFFFFFFFFFFFFFFFFFFFFFFFFFF AND PUSH20 0xFFFFFFFFFFFFFFFFFFFFFFFFFFFFFFFFFFFFFFFF AND CALLER PUSH20 0xFFFFFFFFFFFFFFFFFFFFFFFFFFFFFFFFFFFFFFFF AND EQ PUSH2 0x90C JUMPI PUSH1 0x40 MLOAD PUSH32 0x8C379A000000000000000000000000000000000000000000000000000000000 DUP2 MSTORE PUSH1 0x4 ADD PUSH2 0x903 SWAP1 PUSH2 0x1595 JUMP JUMPDEST PUSH1 0x40 MLOAD DUP1 SWAP2 SUB SWAP1 REVERT JUMPDEST PUSH1 0x1 PUSH0 DUP6 DUP2 MSTORE PUSH1 0x20 ADD SWAP1 DUP2 MSTORE PUSH1 0x20 ADD PUSH0 KECCAK256 PUSH1 0x3 ADD PUSH1 0x40 MLOAD DUP1 PUSH1 0x80 ADD PUSH1 0x40 MSTORE DUP1 TIMESTAMP DUP2 MSTORE PUSH1 0x20 ADD DUP6 PUSH1 0xFF AND DUP2 MSTORE PUSH1 0x20 ADD DUP5 DUP2 MSTORE PUSH1 0x20 ADD CALLER PUSH20 0xFFFFFFFFFFFFFFFFFFFFFFFFFFFFFFFFFFFFFFFF AND DUP2 MSTORE POP SWAP1 DUP1 PUSH1 0x1 DUP2 SLOAD ADD DUP1 DUP3 SSTORE DUP1 SWAP2 POP POP PUSH1 0x1 SWAP1 SUB SWAP1 PUSH0 MSTORE PUSH1 0x20 PUSH0 KECCAK256 SWAP1 PUSH1 0x4 MUL ADD PUSH0 SWAP1 SWAP2 SWAP1 SWAP2 SWAP1 SWAP2 POP PUSH0 DUP3 ADD MLOAD DUP2 PUSH0 ADD SSTORE PUSH1 0x20 DUP3 ADD MLOAD DUP2 PUSH1 0x1 ADD PUSH0 PUSH2 0x100 EXP DUP2 SLOAD DUP2 PUSH1 0xFF MUL NOT AND SWAP1 DUP4 PUSH1 0xFF AND MUL OR SWAP1 SSTORE POP PUSH1 0x40 DUP3 ADD MLOAD DUP2 PUSH1 0x2 ADD SSTORE PUSH1 0x60 DUP3 ADD MLOAD DUP2 PUSH1 0x3 ADD PUSH0 PUSH2 0x100 EXP DUP2 SLOAD DUP2 PUSH20 0xFFFFFFFFFFFFFFFFFFFFFFFFFFFFFFFFFFFFFFFF MUL NOT AND SWAP1 DUP4 PUSH20 0xFFFFFFFFFFFFFFFFFFFFFFFFFFFFFFFFFFFFFFFF AND MUL OR SWAP1 SSTORE POP POP POP PUSH32 0x2FD7CCA134BDC372692F9E8679A7046060CA6DA0C386E7494B18B9C21B10652 DUP5 DUP5 DUP5 PUSH1 0x40 MLOAD PUSH2 0xA2D SWAP4 SWAP3 SWAP2 SWAP1 PUSH2 0x12DA JUMP JUMPDEST PUSH1 0x40 MLOAD DUP1 SWAP2 SUB SWAP1 LOG1 PUSH1 0x1 SWAP1 POP SWAP4 SWAP3 POP POP POP JUMP JUMPDEST PUSH1 0x1 PUSH0 DUP4 DUP2 MSTORE PUSH1 0x20 ADD SWAP1 DUP2 MSTORE PUSH1 0x20 ADD PUSH0 KECCAK256 PUSH1 0x2 ADD PUSH0 SWAP1 SLOAD SWAP1 PUSH2 0x100 EXP SWAP1 DIV PUSH1 0xFF AND PUSH2 0xAA0 JUMPI PUSH1 0x40 MLOAD PUSH32 0x8C379A000000000000000000000000000000000000000000000000000000000 DUP2 MSTORE PUSH1 0x4 ADD PUSH2 0xA97 SWAP1 PUSH2 0x1474 JUMP JUMPDEST PUSH1 0x40 MLOAD DUP1 SWAP2 SUB SWAP1 REVERT JUMPDEST PUSH0 PUSH0 SWAP1 SLOAD SWAP1 PUSH2 0x100 EXP SWAP1 DIV PUSH20 0xFFFFFFFFFFFFFFFFFFFFFFFFFFFFFFFFFFFFFFFF AND PUSH20 0xFFFFFFFFFFFFFFFFFFFFFFFFFFFFFFFFFFFFFFFF AND CALLER PUSH20 0xFFFFFFFFFFFFFFFFFFFFFFFFFFFFFFFFFFFFFFFF AND EQ PUSH2 0xB2E JUMPI PUSH1 0x40 MLOAD PUSH32 0x8C379A000000000000000000000000000000000000000000000000000000000 DUP2 MSTORE PUSH1 0x4 ADD PUSH2 0xB25 SWAP1 PUSH2 0x1595 JUMP JUMPDEST PUSH1 0x40 MLOAD DUP1 SWAP2 SUB SWAP1 REVERT JUMPDEST PUSH1 0x1 PUSH0 DUP4 DUP2 MSTORE PUSH1 0x20 ADD SWAP1 DUP2 MSTORE PUSH1 0x20 ADD PUSH0 KECCAK256 PUSH1 0x3 ADD PUSH1 0x40 MLOAD DUP1 PUSH1 0x80 ADD PUSH1 0x40 MSTORE DUP1 TIMESTAMP DUP2 MSTORE PUSH1 0x20 ADD DUP4 PUSH1 0xFF AND DUP2 MSTORE PUSH1 0x20 ADD PUSH0 PUSH0 SHL DUP2 MSTORE PUSH1 0x20 ADD CALLER PUSH20 0xFFFFFFFFFFFFFFFFFFFFFFFFFFFFFFFFFFFFFFFF AND DUP2 MSTORE POP SWAP1 DUP1 PUSH1 0x1 DUP2 SLOAD ADD DUP1 DUP3 SSTORE DUP1 SWAP2 POP POP PUSH1 0x1 SWAP1 SUB SWAP1 PUSH0 MSTORE PUSH1 0x20 PUSH0 KECCAK256 SWAP1 PUSH1 0x4 MUL ADD PUSH0 SWAP1 SWAP2 SWAP1 SWAP2 SWAP1 SWAP2 POP PUSH0 DUP3 ADD MLOAD DUP2 PUSH0 ADD SSTORE PUSH1 0x20 DUP3 ADD MLOAD DUP2 PUSH1 0x1 ADD PUSH0 PUSH2 0x100 EXP DUP2 SLOAD DUP2 PUSH1 0xFF MUL NOT AND SWAP1 DUP4 PUSH1 0xFF AND MUL OR SWAP1 SSTORE POP PUSH1 0x40 DUP3 ADD MLOAD DUP2 PUSH1 0x2 ADD SSTORE PUSH1 0x60 DUP3 ADD MLOAD DUP2 PUSH1 0x3 ADD PUSH0 PUSH2 0x100 EXP DUP2 SLOAD DUP2 PUSH20 0xFFFFFFFFFFFFFFFFFFFFFFFFFFFFFFFFFFFFFFFF MUL NOT AND SWAP1 DUP4 PUSH20 0xFFFFFFFFFFFFFFFFFFFFFFFFFFFFFFFFFFFFFFFF AND MUL OR SWAP1 SSTORE POP POP POP PUSH32 0x55F3B2B2BC9C07499976075B3A9A78344B888C51B194889C9214C6EBA4BF0113 DUP3 DUP3 PUSH1 0x40 MLOAD PUSH2 0xC4F SWAP3 SWAP2 SWAP1 PUSH2 0x15B3 JUMP JUMPDEST PUSH1 0x40 MLOAD DUP1 SWAP2 SUB SWAP1 LOG1 POP POP JUMP JUMPDEST PUSH1 0x40 MLOAD DUP1 PUSH1 0x80 ADD PUSH1 0x40 MSTORE DUP1 PUSH0 DUP2 MSTORE PUSH1 0x20 ADD PUSH0 DUP2 MSTORE PUSH1 0x20 ADD PUSH0 ISZERO ISZERO DUP2 MSTORE PUSH1 0x20 ADD PUSH1 0x60 DUP2 MSTORE POP SWAP1 JUMP JUMPDEST PUSH0 PUSH0 REVERT JUMPDEST PUSH0 DUP2 SWAP1 POP SWAP2 SWAP1 POP JUMP JUMPDEST PUSH2 0xC98 DUP2 PUSH2 0xC86 JUMP JUMPDEST DUP2 EQ PUSH2 0xCA2 JUMPI PUSH0 PUSH0 REVERT JUMPDEST POP JUMP JUMPDEST PUSH0 DUP2 CALLDATALOAD SWAP1 POP PUSH2 0xCB3 DUP2 PUSH2 0xC8F JUMP JUMPDEST SWAP3 SWAP2 POP POP JUMP JUMPDEST PUSH0 PUSH1 0x20 DUP3 DUP5 SUB SLT ISZERO PUSH2 0xCCE JUMPI PUSH2 0xCCD PUSH2 0xC82 JUMP JUMPDEST JUMPDEST PUSH0 PUSH2 0xCDB DUP5 DUP3 DUP6 ADD PUSH2 0xCA5 JUMP JUMPDEST SWAP2 POP POP SWAP3 SWAP2 POP POP JUMP JUMPDEST PUSH0 DUP2 MLOAD SWAP1 POP SWAP2 SWAP1 POP JUMP JUMPDEST PUSH0 DUP3 DUP3 MSTORE PUSH1 0x20 DUP3 ADD SWAP1 POP SWAP3 SWAP2 POP POP JUMP JUMPDEST PUSH0 DUP2 SWAP1 POP PUSH1 0x20 DUP3 ADD SWAP1 POP SWAP2 SWAP1 POP JUMP JUMPDEST PUSH2 0xD16 DUP2 PUSH2 0xC86 JUMP JUMPDEST DUP3 MSTORE POP POP JUMP JUMPDEST PUSH0 PUSH1 0xFF DUP3 AND SWAP1 POP SWAP2 SWAP1 POP JUMP JUMPDEST PUSH2 0xD31 DUP2 PUSH2 0xD1C JUMP JUMPDEST DUP3 MSTORE POP POP JUMP JUMPDEST PUSH0 DUP2 SWAP1 POP SWAP2 SWAP1 POP JUMP JUMPDEST PUSH2 0xD49 DUP2 PUSH2 0xD37 JUMP JUMPDEST DUP3 MSTORE POP POP JUMP JUMPDEST PUSH0 PUSH20 0xFFFFFFFFFFFFFFFFFFFFFFFFFFFFFFFFFFFFFFFF DUP3 AND SWAP1 POP SWAP2 SWAP1 POP JUMP JUMPDEST PUSH0 PUSH2 0xD78 DUP3 PUSH2 0xD4F JUMP JUMPDEST SWAP1 POP SWAP2 SWAP1 POP JUMP JUMPDEST PUSH2 0xD88 DUP2 PUSH2 0xD6E JUMP JUMPDEST DUP3 MSTORE POP POP JUMP JUMPDEST PUSH1 0x80 DUP3 ADD PUSH0 DUP3 ADD MLOAD PUSH2 0xDA2 PUSH0 DUP6 ADD DUP3 PUSH2 0xD0D JUMP JUMPDEST POP PUSH1 0x20 DUP3 ADD MLOAD PUSH2 0xDB5 PUSH1 0x20 DUP6 ADD DUP3 PUSH2 0xD28 JUMP JUMPDEST POP PUSH1 0x40 DUP3 ADD MLOAD PUSH2 0xDC8 PUSH1 0x40 DUP6 ADD DUP3 PUSH2 0xD40 JUMP JUMPDEST POP PUSH1 0x60 DUP3 ADD MLOAD PUSH2 0xDDB PUSH1 0x60 DUP6 ADD DUP3 PUSH2 0xD7F JUMP JUMPDEST POP POP POP POP JUMP JUMPDEST PUSH0 PUSH2 0xDEC DUP4 DUP4 PUSH2 0xD8E JUMP JUMPDEST PUSH1 0x80 DUP4 ADD SWAP1 POP SWAP3 SWAP2 POP POP JUMP JUMPDEST PUSH0 PUSH1 0x20 DUP3 ADD SWAP1 POP SWAP2 SWAP1 POP JUMP JUMPDEST PUSH0 PUSH2 0xE0E DUP3 PUSH2 0xCE4 JUMP JUMPDEST PUSH2 0xE18 DUP2 DUP6 PUSH2 0xCEE JUMP JUMPDEST SWAP4 POP PUSH2 0xE23 DUP4 PUSH2 0xCFE JUMP JUMPDEST DUP1 PUSH0 JUMPDEST DUP4 DUP2 LT ISZERO PUSH2 0xE53 JUMPI DUP2 MLOAD PUSH2 0xE3A DUP9 DUP3 PUSH2 0xDE1 JUMP JUMPDEST SWAP8 POP PUSH2 0xE45 DUP4 PUSH2 0xDF8 JUMP JUMPDEST SWAP3 POP POP PUSH1 0x1 DUP2 ADD SWAP1 POP PUSH2 0xE26 JUMP JUMPDEST POP DUP6 SWAP4 POP POP POP POP SWAP3 SWAP2 POP POP JUMP JUMPDEST PUSH0 PUSH1 0x20 DUP3 ADD SWAP1 POP DUP2 DUP2 SUB PUSH0 DUP4 ADD MSTORE PUSH2 0xE78 DUP2 DUP5 PUSH2 0xE04 JUMP JUMPDEST SWAP1 POP SWAP3 SWAP2 POP POP JUMP JUMPDEST PUSH2 0xE89 DUP2 PUSH2 0xD6E JUMP JUMPDEST DUP3 MSTORE POP POP JUMP JUMPDEST PUSH0 PUSH1 0x20 DUP3 ADD SWAP1 POP PUSH2 0xEA2 PUSH0 DUP4 ADD DUP5 PUSH2 0xE80 JUMP JUMPDEST SWAP3 SWAP2 POP POP JUMP JUMPDEST PUSH2 0xEB1 DUP2 PUSH2 0xD37 JUMP JUMPDEST DUP2 EQ PUSH2 0xEBB JUMPI PUSH0 PUSH0 REVERT JUMPDEST POP JUMP JUMPDEST PUSH0 DUP2 CALLDATALOAD SWAP1 POP PUSH2 0xECC DUP2 PUSH2 0xEA8 JUMP JUMPDEST SWAP3 SWAP2 POP POP JUMP JUMPDEST PUSH2 0xEDB DUP2 PUSH2 0xD1C JUMP JUMPDEST DUP2 EQ PUSH2 0xEE5 JUMPI PUSH0 PUSH0 REVERT JUMPDEST POP JUMP JUMPDEST PUSH0 DUP2 CALLDATALOAD SWAP1 POP PUSH2 0xEF6 DUP2 PUSH2 0xED2 JUMP JUMPDEST SWAP3 SWAP2 POP POP JUMP JUMPDEST PUSH0 PUSH0 PUSH0 PUSH0 PUSH0 PUSH0 PUSH1 0xC0 DUP8 DUP10 SUB SLT ISZERO PUSH2 0xF16 JUMPI PUSH2 0xF15 PUSH2 0xC82 JUMP JUMPDEST JUMPDEST PUSH0 PUSH2 0xF23 DUP10 DUP3 DUP11 ADD PUSH2 0xCA5 JUMP JUMPDEST SWAP7 POP POP PUSH1 0x20 PUSH2 0xF34 DUP10 DUP3 DUP11 ADD PUSH2 0xCA5 JUMP JUMPDEST SWAP6 POP POP PUSH1 0x40 PUSH2 0xF45 DUP10 DUP3 DUP11 ADD PUSH2 0xEBE JUMP JUMPDEST SWAP5 POP POP PUSH1 0x60 PUSH2 0xF56 DUP10 DUP3 DUP11 ADD PUSH2 0xCA5 JUMP JUMPDEST SWAP4 POP POP PUSH1 0x80 PUSH2 0xF67 DUP10 DUP3 DUP11 ADD PUSH2 0xCA5 JUMP JUMPDEST SWAP3 POP POP PUSH1 0xA0 PUSH2 0xF78 DUP10 DUP3 DUP11 ADD PUSH2 0xEE8 JUMP JUMPDEST SWAP2 POP POP SWAP3 SWAP6 POP SWAP3 SWAP6 POP SWAP3 SWAP6 JUMP JUMPDEST PUSH0 PUSH0 PUSH0 PUSH1 0x60 DUP5 DUP7 SUB SLT ISZERO PUSH2 0xF9C JUMPI PUSH2 0xF9B PUSH2 0xC82 JUMP JUMPDEST JUMPDEST PUSH0 PUSH2 0xFA9 DUP7 DUP3 DUP8 ADD PUSH2 0xCA5 JUMP JUMPDEST SWAP4 POP POP PUSH1 0x20 PUSH2 0xFBA DUP7 DUP3 DUP8 ADD PUSH2 0xEE8 JUMP JUMPDEST SWAP3 POP POP PUSH1 0x40 PUSH2 0xFCB DUP7 DUP3 DUP8 ADD PUSH2 0xEBE JUMP JUMPDEST SWAP2 POP POP SWAP3 POP SWAP3 POP SWAP3 JUMP JUMPDEST PUSH0 DUP2 ISZERO ISZERO SWAP1 POP SWAP2 SWAP1 POP JUMP JUMPDEST PUSH2 0xFE9 DUP2 PUSH2 0xFD5 JUMP JUMPDEST DUP3 MSTORE POP POP JUMP JUMPDEST PUSH0 PUSH1 0x20 DUP3 ADD SWAP1 POP PUSH2 0x1002 PUSH0 DUP4 ADD DUP5 PUSH2 0xFE0 JUMP JUMPDEST SWAP3 SWAP2 POP POP JUMP JUMPDEST PUSH2 0x1011 DUP2 PUSH2 0xC86 JUMP JUMPDEST DUP3 MSTORE POP POP JUMP JUMPDEST PUSH0 PUSH1 0x20 DUP3 ADD SWAP1 POP PUSH2 0x102A PUSH0 DUP4 ADD DUP5 PUSH2 0x1008 JUMP JUMPDEST SWAP3 SWAP2 POP POP JUMP JUMPDEST PUSH2 0x1039 DUP2 PUSH2 0xD1C JUMP JUMPDEST DUP3 MSTORE POP POP JUMP JUMPDEST PUSH2 0x1048 DUP2 PUSH2 0xD37 JUMP JUMPDEST DUP3 MSTORE POP POP JUMP JUMPDEST PUSH0 PUSH1 0xA0 DUP3 ADD SWAP1 POP PUSH2 0x1061 PUSH0 DUP4 ADD DUP9 PUSH2 0x1008 JUMP JUMPDEST PUSH2 0x106E PUSH1 0x20 DUP4 ADD DUP8 PUSH2 0x1008 JUMP JUMPDEST PUSH2 0x107B PUSH1 0x40 DUP4 ADD DUP7 PUSH2 0x1030 JUMP JUMPDEST PUSH2 0x1088 PUSH1 0x60 DUP4 ADD DUP6 PUSH2 0x1008 JUMP JUMPDEST PUSH2 0x1095 PUSH1 0x80 DUP4 ADD DUP5 PUSH2 0x103F JUMP JUMPDEST SWAP7 SWAP6 POP POP POP POP POP POP JUMP JUMPDEST PUSH0 PUSH0 PUSH1 0x40 DUP4 DUP6 SUB SLT ISZERO PUSH2 0x10B5 JUMPI PUSH2 0x10B4 PUSH2 0xC82 JUMP JUMPDEST JUMPDEST PUSH0 PUSH2 0x10C2 DUP6 DUP3 DUP7 ADD PUSH2 0xCA5 JUMP JUMPDEST SWAP3 POP POP PUSH1 0x20 PUSH2 0x10D3 DUP6 DUP3 DUP7 ADD PUSH2 0xEE8 JUMP JUMPDEST SWAP2 POP POP SWAP3 POP SWAP3 SWAP1 POP JUMP JUMPDEST PUSH0 DUP3 DUP3 MSTORE PUSH1 0x20 DUP3 ADD SWAP1 POP SWAP3 SWAP2 POP POP JUMP JUMPDEST PUSH32 0x4E6F2073652068612070616761646F206C612074617269666120646520726567 PUSH0 DUP3 ADD MSTORE PUSH32 0x697374726F000000000000000000000000000000000000000000000000000000 PUSH1 0x20 DUP3 ADD MSTORE POP JUMP JUMPDEST PUSH0 PUSH2 0x1147 PUSH1 0x25 DUP4 PUSH2 0x10DD JUMP JUMPDEST SWAP2 POP PUSH2 0x1152 DUP3 PUSH2 0x10ED JUMP JUMPDEST PUSH1 0x40 DUP3 ADD SWAP1 POP SWAP2 SWAP1 POP JUMP JUMPDEST PUSH0 PUSH1 0x20 DUP3 ADD SWAP1 POP DUP2 DUP2 SUB PUSH0 DUP4 ADD MSTORE PUSH2 0x1174 DUP2 PUSH2 0x113B JUMP JUMPDEST SWAP1 POP SWAP2 SWAP1 POP JUMP JUMPDEST PUSH32 0x566967656E63696120696E76616C6964613A2075736520283029207061726120 PUSH0 DUP3 ADD MSTORE PUSH32 0x566967656E746500000000000000000000000000000000000000000000000000 PUSH1 0x20 DUP3 ADD MSTORE POP JUMP JUMPDEST PUSH0 PUSH2 0x11D5 PUSH1 0x27 DUP4 PUSH2 0x10DD JUMP JUMPDEST SWAP2 POP PUSH2 0x11E0 DUP3 PUSH2 0x117B JUMP JUMPDEST PUSH1 0x40 DUP3 ADD SWAP1 POP SWAP2 SWAP1 POP JUMP JUMPDEST PUSH0 PUSH1 0x20 DUP3 ADD SWAP1 POP DUP2 DUP2 SUB PUSH0 DUP4 ADD MSTORE PUSH2 0x1202 DUP2 PUSH2 0x11C9 JUMP JUMPDEST SWAP1 POP SWAP2 SWAP1 POP JUMP JUMPDEST PUSH0 PUSH1 0x80 DUP3 ADD SWAP1 POP PUSH2 0x121C PUSH0 DUP4 ADD DUP8 PUSH2 0x1008 JUMP JUMPDEST PUSH2 0x1229 PUSH1 0x20 DUP4 ADD DUP7 PUSH2 0x1008 JUMP JUMPDEST PUSH2 0x1236 PUSH1 0x40 DUP4 ADD DUP6 PUSH2 0x1030 JUMP JUMPDEST PUSH2 0x1243 PUSH1 0x60 DUP4 ADD DUP5 PUSH2 0x103F JUMP JUMPDEST SWAP6 SWAP5 POP POP POP POP POP JUMP JUMPDEST PUSH32 0x566967656E63696120696E76616C6964613A2075736520283129207061726120 PUSH0 DUP3 ADD MSTORE PUSH32 0x4D6F646966696361646120000000000000000000000000000000000000000000 PUSH1 0x20 DUP3 ADD MSTORE POP JUMP JUMPDEST PUSH0 PUSH2 0x12A6 PUSH1 0x2B DUP4 PUSH2 0x10DD JUMP JUMPDEST SWAP2 POP PUSH2 0x12B1 DUP3 PUSH2 0x124C JUMP JUMPDEST PUSH1 0x40 DUP3 ADD SWAP1 POP SWAP2 SWAP1 POP JUMP JUMPDEST PUSH0 PUSH1 0x20 DUP3 ADD SWAP1 POP DUP2 DUP2 SUB PUSH0 DUP4 ADD MSTORE PUSH2 0x12D3 DUP2 PUSH2 0x129A JUMP JUMPDEST SWAP1 POP SWAP2 SWAP1 POP JUMP JUMPDEST PUSH0 PUSH1 0x60 DUP3 ADD SWAP1 POP PUSH2 0x12ED PUSH0 DUP4 ADD DUP7 PUSH2 0x1008 JUMP JUMPDEST PUSH2 0x12FA PUSH1 0x20 DUP4 ADD DUP6 PUSH2 0x1030 JUMP JUMPDEST PUSH2 0x1307 PUSH1 0x40 DUP4 ADD DUP5 PUSH2 0x103F JUMP JUMPDEST SWAP5 SWAP4 POP POP POP POP JUMP JUMPDEST PUSH32 0x4E487B7100000000000000000000000000000000000000000000000000000000 PUSH0 MSTORE PUSH1 0x11 PUSH1 0x4 MSTORE PUSH1 0x24 PUSH0 REVERT JUMPDEST PUSH0 PUSH2 0x1346 DUP3 PUSH2 0xC86 JUMP JUMPDEST SWAP2 POP PUSH2 0x1351 DUP4 PUSH2 0xC86 JUMP JUMPDEST SWAP3 POP DUP3 DUP3 SUB SWAP1 POP DUP2 DUP2 GT ISZERO PUSH2 0x1369 JUMPI PUSH2 0x1368 PUSH2 0x130F JUMP JUMPDEST JUMPDEST SWAP3 SWAP2 POP POP JUMP JUMPDEST PUSH32 0x4E487B7100000000000000000000000000000000000000000000000000000000 PUSH0 MSTORE PUSH1 0x32 PUSH1 0x4 MSTORE PUSH1 0x24 PUSH0 REVERT JUMPDEST PUSH32 0x566967656E63696120696E76616C6964613A2075736520283229207061726120 PUSH0 DUP3 ADD MSTORE PUSH32 0x4465726F67616461000000000000000000000000000000000000000000000000 PUSH1 0x20 DUP3 ADD MSTORE POP JUMP JUMPDEST PUSH0 PUSH2 0x13F6 PUSH1 0x28 DUP4 PUSH2 0x10DD JUMP JUMPDEST SWAP2 POP PUSH2 0x1401 DUP3 PUSH2 0x139C JUMP JUMPDEST PUSH1 0x40 DUP3 ADD SWAP1 POP SWAP2 SWAP1 POP JUMP JUMPDEST PUSH0 PUSH1 0x20 DUP3 ADD SWAP1 POP DUP2 DUP2 SUB PUSH0 DUP4 ADD MSTORE PUSH2 0x1423 DUP2 PUSH2 0x13EA JUMP JUMPDEST SWAP1 POP SWAP2 SWAP1 POP JUMP JUMPDEST PUSH32 0x4C6120616374756163696F6E206E6F2065786973746500000000000000000000 PUSH0 DUP3 ADD MSTORE POP JUMP JUMPDEST PUSH0 PUSH2 0x145E PUSH1 0x16 DUP4 PUSH2 0x10DD JUMP JUMPDEST SWAP2 POP PUSH2 0x1469 DUP3 PUSH2 0x142A JUMP JUMPDEST PUSH1 0x20 DUP3 ADD SWAP1 POP SWAP2 SWAP1 POP JUMP JUMPDEST PUSH0 PUSH1 0x20 DUP3 ADD SWAP1 POP DUP2 DUP2 SUB PUSH0 DUP4 ADD MSTORE PUSH2 0x148B DUP2 PUSH2 0x1452 JUMP JUMPDEST SWAP1 POP SWAP2 SWAP1 POP JUMP JUMPDEST PUSH32 0x4C6120616374756163696F6E2079612065786973746500000000000000000000 PUSH0 DUP3 ADD MSTORE POP JUMP JUMPDEST PUSH0 PUSH2 0x14C6 PUSH1 0x16 DUP4 PUSH2 0x10DD JUMP JUMPDEST SWAP2 POP PUSH2 0x14D1 DUP3 PUSH2 0x1492 JUMP JUMPDEST PUSH1 0x20 DUP3 ADD SWAP1 POP SWAP2 SWAP1 POP JUMP JUMPDEST PUSH0 PUSH1 0x20 DUP3 ADD SWAP1 POP DUP2 DUP2 SUB PUSH0 DUP4 ADD MSTORE PUSH2 0x14F3 DUP2 PUSH2 0x14BA JUMP JUMPDEST SWAP1 POP SWAP2 SWAP1 POP JUMP JUMPDEST PUSH0 PUSH1 0xA0 DUP3 ADD SWAP1 POP PUSH2 0x150D PUSH0 DUP4 ADD DUP9 PUSH2 0x1008 JUMP JUMPDEST PUSH2 0x151A PUSH1 0x20 DUP4 ADD DUP8 PUSH2 0x1008 JUMP JUMPDEST PUSH2 0x1527 PUSH1 0x40 DUP4 ADD DUP7 PUSH2 0x1008 JUMP JUMPDEST PUSH2 0x1534 PUSH1 0x60 DUP4 ADD DUP6 PUSH2 0x1030 JUMP JUMPDEST PUSH2 0x1541 PUSH1 0x80 DUP4 ADD DUP5 PUSH2 0x103F JUMP JUMPDEST SWAP7 SWAP6 POP POP POP POP POP POP JUMP JUMPDEST PUSH32 0x4E6F20657320656C2070726F706965746172696F000000000000000000000000 PUSH0 DUP3 ADD MSTORE POP JUMP JUMPDEST PUSH0 PUSH2 0x157F PUSH1 0x14 DUP4 PUSH2 0x10DD JUMP JUMPDEST SWAP2 POP PUSH2 0x158A DUP3 PUSH2 0x154B JUMP JUMPDEST PUSH1 0x20 DUP3 ADD SWAP1 POP SWAP2 SWAP1 POP JUMP JUMPDEST PUSH0 PUSH1 0x20 DUP3 ADD SWAP1 POP DUP2 DUP2 SUB PUSH0 DUP4 ADD MSTORE PUSH2 0x15AC DUP2 PUSH2 0x1573 JUMP JUMPDEST SWAP1 POP SWAP2 SWAP1 POP JUMP JUMPDEST PUSH0 PUSH1 0x40 DUP3 ADD SWAP1 POP PUSH2 0x15C6 PUSH0 DUP4 ADD DUP6 PUSH2 0x1008 JUMP JUMPDEST PUSH2 0x15D3 PUSH1 0x20 DUP4 ADD DUP5 PUSH2 0x1030 JUMP JUMPDEST SWAP4 SWAP3 POP POP POP JUMP INVALID LOG2 PUSH5 0x6970667358 0x22 SLT KECCAK256 0xC2 0xBA LOG1 PUSH6 0x6008EAAC4B6A 0xF7 0xC6 NUMBER 0xBB PUSH9 0xB48BC2B502B4044C53 CREATE EXTDELEGATECALL GASLIMIT LOG0 BASEFEE PUSH4 0xA4056473 PUSH16 0x6C634300082200330000000000000000 "
				},
				"gasEstimates": {
					"creation": {
						"codeDepositCost": "1129600",
						"executionCost": "25436",
						"totalCost": "1155036"
					},
					"external": {
						"COSTO()": "347",
						"agregarOrdenanza(uint256,uint256,bytes32,uint256,uint256,uint8)": "infinite",
						"consultarHistorial(uint256)": "infinite",
						"consultarOrdenanza(uint256)": "infinite",
						"eliminar(uint256,uint8)": "infinite",
						"modificarVigencia(uint256,uint8,bytes32)": "infinite",
						"propietario()": "2530"
					}
				},
				"methodIdentifiers": {
					"COSTO()": "52b5241e",
					"agregarOrdenanza(uint256,uint256,bytes32,uint256,uint256,uint8)": "47525ed6",
					"consultarHistorial(uint256)": "1bc7509e",
					"consultarOrdenanza(uint256)": "ad3b15ef",
					"eliminar(uint256,uint8)": "c83e9d6d",
					"modificarVigencia(uint256,uint8,bytes32)": "4eba0ca0",
					"propietario()": "3c4f81cd"
				}
			},
			"storageLayout": {
				"storage": [
					{
						"astId": 23,
						"contract": "ConcejoDeliberante/contracts/Ordenanza.sol:Ordenanza",
						"label": "propietario",
						"offset": 0,
						"slot": "0",
						"type": "t_address"
					},
					{
						"astId": 31,
						"contract": "ConcejoDeliberante/contracts/Ordenanza.sol:Ordenanza",
						"label": "actuaciones",
						"offset": 0,
						"slot": "1",
						"type": "t_mapping(t_uint256,t_struct(Actuacion)21_storage)"
					},
					{
						"astId": 34,
						"contract": "ConcejoDeliberante/contracts/Ordenanza.sol:Ordenanza",
						"label": "ids",
						"offset": 0,
						"slot": "2",
						"type": "t_array(t_uint256)dyn_storage"
					},
					{
						"astId": 299,
						"contract": "ConcejoDeliberante/contracts/Ordenanza.sol:Ordenanza",
						"label": "datosExtra",
						"offset": 0,
						"slot": "3",
						"type": "t_mapping(t_uint256,t_struct(DatosOrdenanza)294_storage)"
					}
				],
				"types": {
					"t_address": {
						"encoding": "inplace",
						"label": "address",
						"numberOfBytes": "20"
					},
					"t_array(t_struct(Cambio)10_storage)dyn_storage": {
						"base": "t_struct(Cambio)10_storage",
						"encoding": "dynamic_array",
						"label": "struct ActuacionBase.Cambio[]",
						"numberOfBytes": "32"
					},
					"t_array(t_uint256)dyn_storage": {
						"base": "t_uint256",
						"encoding": "dynamic_array",
						"label": "uint256[]",
						"numberOfBytes": "32"
					},
					"t_bool": {
						"encoding": "inplace",
						"label": "bool",
						"numberOfBytes": "1"
					},
					"t_bytes32": {
						"encoding": "inplace",
						"label": "bytes32",
						"numberOfBytes": "32"
					},
					"t_mapping(t_uint256,t_struct(Actuacion)21_storage)": {
						"encoding": "mapping",
						"key": "t_uint256",
						"label": "mapping(uint256 => struct ActuacionBase.Actuacion)",
						"numberOfBytes": "32",
						"value": "t_struct(Actuacion)21_storage"
					},
					"t_mapping(t_uint256,t_struct(DatosOrdenanza)294_storage)": {
						"encoding": "mapping",
						"key": "t_uint256",
						"label": "mapping(uint256 => struct Ordenanza.DatosOrdenanza)",
						"numberOfBytes": "32",
						"value": "t_struct(DatosOrdenanza)294_storage"
					},
					"t_struct(Actuacion)21_storage": {
						"encoding": "inplace",
						"label": "struct ActuacionBase.Actuacion",
						"members": [
							{
								"astId": 12,
								"contract": "ConcejoDeliberante/contracts/Ordenanza.sol:Ordenanza",
								"label": "fechaCreacion",
								"offset": 0,
								"slot": "0",
								"type": "t_uint256"
							},
							{
								"astId": 14,
								"contract": "ConcejoDeliberante/contracts/Ordenanza.sol:Ordenanza",
								"label": "dniAutor",
								"offset": 0,
								"slot": "1",
								"type": "t_uint256"
							},
							{
								"astId": 16,
								"contract": "ConcejoDeliberante/contracts/Ordenanza.sol:Ordenanza",
								"label": "existe",
								"offset": 0,
								"slot": "2",
								"type": "t_bool"
							},
							{
								"astId": 20,
								"contract": "ConcejoDeliberante/contracts/Ordenanza.sol:Ordenanza",
								"label": "historial",
								"offset": 0,
								"slot": "3",
								"type": "t_array(t_struct(Cambio)10_storage)dyn_storage"
							}
						],
						"numberOfBytes": "128"
					},
					"t_struct(Cambio)10_storage": {
						"encoding": "inplace",
						"label": "struct ActuacionBase.Cambio",
						"members": [
							{
								"astId": 3,
								"contract": "ConcejoDeliberante/contracts/Ordenanza.sol:Ordenanza",
								"label": "timestamp",
								"offset": 0,
								"slot": "0",
								"type": "t_uint256"
							},
							{
								"astId": 5,
								"contract": "ConcejoDeliberante/contracts/Ordenanza.sol:Ordenanza",
								"label": "estado",
								"offset": 0,
								"slot": "1",
								"type": "t_uint8"
							},
							{
								"astId": 7,
								"contract": "ConcejoDeliberante/contracts/Ordenanza.sol:Ordenanza",
								"label": "hash",
								"offset": 0,
								"slot": "2",
								"type": "t_bytes32"
							},
							{
								"astId": 9,
								"contract": "ConcejoDeliberante/contracts/Ordenanza.sol:Ordenanza",
								"label": "modificadoPor",
								"offset": 0,
								"slot": "3",
								"type": "t_address"
							}
						],
						"numberOfBytes": "128"
					},
					"t_struct(DatosOrdenanza)294_storage": {
						"encoding": "inplace",
						"label": "struct Ordenanza.DatosOrdenanza",
						"members": [
							{
								"astId": 293,
								"contract": "ConcejoDeliberante/contracts/Ordenanza.sol:Ordenanza",
								"label": "numOrdenanza",
								"offset": 0,
								"slot": "0",
								"type": "t_uint256"
							}
						],
						"numberOfBytes": "32"
					},
					"t_uint256": {
						"encoding": "inplace",
						"label": "uint256",
						"numberOfBytes": "32"
					},
					"t_uint8": {
						"encoding": "inplace",
						"label": "uint8",
						"numberOfBytes": "1"
					}
				}
			},
			"userdoc": {
				"kind": "user",
				"methods": {},
				"version": 1
			}
		}
	}
}