{
	"ConcejoDeliberante/contracts/ProyectoOrdenanza.sol": {
		"ProyectoOrdenza": {
			"abi": [
				{
					"anonymous": false,
					"inputs": [
						{
							"indexed": false,
							"internalType": "uint256",
							"name": "id",
							"type": "uint256"
						},
						{
							"indexed": false,
							"internalType": "uint256",
							"name": "fechaCreacion",
							"type": "uint256"
						},
						{
							"indexed": false,
							"internalType": "uint256",
							"name": "dniAutor",
							"type": "uint256"
						},
						{
							"indexed": false,
							"internalType": "uint8",
							"name": "estado",
							"type": "uint8"
						},
						{
							"indexed": false,
							"internalType": "bytes32",
							"name": "hash",
							"type": "bytes32"
						}
					],
					"name": "ActuacionAgregada",
					"type": "event"
				},
				{
					"anonymous": false,
					"inputs": [
						{
							"indexed": false,
							"internalType": "uint256",
							"name": "id",
							"type": "uint256"
						},
						{
							"indexed": false,
							"internalType": "uint8",
							"name": "estado",
							"type": "uint8"
						}
					],
					"name": "ActuacionEliminada",
					"type": "event"
				},
				{
					"anonymous": false,
					"inputs": [
						{
							"indexed": false,
							"internalType": "uint256",
							"name": "id",
							"type": "uint256"
						},
						{
							"indexed": false,
							"internalType": "uint8",
							"name": "estado",
							"type": "uint8"
						},
						{
							"indexed": false,
							"internalType": "bytes32",
							"name": "hash",
							"type": "bytes32"
						}
					],
					"name": "ActuacionModificada",
					"type": "event"
				},
				{
					"anonymous": false,
					"inputs": [
						{
							"indexed": false,
							"internalType": "uint256",
							"name": "id",
							"type": "uint256"
						},
						{
							"indexed": false,
							"internalType": "uint256",
							"name": "numExpediente",
							"type": "uint256"
						},
						{
							"indexed": false,
							"internalType": "uint8",
							"name": "resultado",
							"type": "uint8"
						},
						{
							"indexed": false,
							"internalType": "bytes32",
							"name": "hash",
							"type": "bytes32"
						}
					],
					"name": "OrdenanzaAgregada",
					"type": "event"
				},
				{
					"anonymous": false,
					"inputs": [
						{
							"indexed": false,
							"internalType": "uint256",
							"name": "id",
							"type": "uint256"
						},
						{
							"indexed": false,
							"internalType": "uint8",
							"name": "resultadoNueva",
							"type": "uint8"
						},
						{
							"indexed": false,
							"internalType": "bytes32",
							"name": "hash",
							"type": "bytes32"
						}
					],
					"name": "ResultadoActualizado",
					"type": "event"
				},
				{
					"inputs": [],
					"name": "COSTO",
					"outputs": [
						{
							"internalType": "uint256",
							"name": "",
							"type": "uint256"
						}
					],
					"stateMutability": "view",
					"type": "function"
				},
				{
					"inputs": [
						{
							"internalType": "uint256",
							"name": "_id",
							"type": "uint256"
						}
					],
					"name": "_consultarActuacion",
					"outputs": [
						{
							"components": [
								{
									"internalType": "uint256",
									"name": "fechaCreacion",
									"type": "uint256"
								},
								{
									"internalType": "uint256",
									"name": "dniAutor",
									"type": "uint256"
								},
								{
									"internalType": "bool",
									"name": "existe",
									"type": "bool"
								},
								{
									"components": [
										{
											"internalType": "uint256",
											"name": "timestamp",
											"type": "uint256"
										},
										{
											"internalType": "uint8",
											"name": "estado",
											"type": "uint8"
										},
										{
											"internalType": "bytes32",
											"name": "hash",
											"type": "bytes32"
										},
										{
											"internalType": "address",
											"name": "modificadoPor",
											"type": "address"
										}
									],
									"internalType": "struct ActuacionBase.Cambio[]",
									"name": "historial",
									"type": "tuple[]"
								}
							],
							"internalType": "struct ActuacionBase.Actuacion",
							"name": "",
							"type": "tuple"
						}
					],
					"stateMutability": "view",
					"type": "function"
				},
				{
					"inputs": [
						{
							"internalType": "uint256",
							"name": "_id",
							"type": "uint256"
						},
						{
							"internalType": "uint8",
							"name": "_estadoNuevo",
							"type": "uint8"
						}
					],
					"name": "_eliminarActuacion",
					"outputs": [],
					"stateMutability": "nonpayable",
					"type": "function"
				},
				{
					"inputs": [
						{
							"internalType": "uint256",
							"name": "_id",
							"type": "uint256"
						},
						{
							"internalType": "uint256",
							"name": "_dniAutor",
							"type": "uint256"
						},
						{
							"internalType": "uint8",
							"name": "_estadoNuevo",
							"type": "uint8"
						},
						{
							"internalType": "bytes32",
							"name": "_hash",
							"type": "bytes32"
						},
						{
							"internalType": "uint256",
							"name": "_fechaCreacion",
							"type": "uint256"
						}
					],
					"name": "_inicializarActuacion",
					"outputs": [],
					"stateMutability": "payable",
					"type": "function"
				},
				{
					"inputs": [
						{
							"internalType": "uint256",
							"name": "_id",
							"type": "uint256"
						},
						{
							"internalType": "uint8",
							"name": "_estadoNuevo",
							"type": "uint8"
						},
						{
							"internalType": "bytes32",
							"name": "_hashNuevo",
							"type": "bytes32"
						}
					],
					"name": "_modificarActuacion",
					"outputs": [
						{
							"internalType": "bool",
							"name": "success",
							"type": "bool"
						}
					],
					"stateMutability": "nonpayable",
					"type": "function"
				},
				{
					"inputs": [
						{
							"internalType": "uint256",
							"name": "_id",
							"type": "uint256"
						},
						{
							"internalType": "uint256",
							"name": "_dniAutor",
							"type": "uint256"
						},
						{
							"internalType": "bytes32",
							"name": "_hash",
							"type": "bytes32"
						},
						{
							"internalType": "uint256",
							"name": "_fechaCreacion",
							"type": "uint256"
						},
						{
							"internalType": "uint256",
							"name": "_numExpediente",
							"type": "uint256"
						},
						{
							"internalType": "uint8",
							"name": "_resultado",
							"type": "uint8"
						}
					],
					"name": "agregarProyectoOrdenanza",
					"outputs": [],
					"stateMutability": "payable",
					"type": "function"
				},
				{
					"inputs": [
						{
							"internalType": "uint256",
							"name": "_id",
							"type": "uint256"
						}
					],
					"name": "consultarProyectoOrdenanza",
					"outputs": [
						{
							"internalType": "uint256",
							"name": "fechaCreacion",
							"type": "uint256"
						},
						{
							"internalType": "uint256",
							"name": "dniAutor",
							"type": "uint256"
						},
						{
							"internalType": "uint8",
							"name": "resultado",
							"type": "uint8"
						},
						{
							"internalType": "uint256",
							"name": "numExpediente",
							"type": "uint256"
						},
						{
							"internalType": "bytes32",
							"name": "hash",
							"type": "bytes32"
						}
					],
					"stateMutability": "view",
					"type": "function"
				},
				{
					"inputs": [
						{
							"internalType": "uint256",
							"name": "_id",
							"type": "uint256"
						},
						{
							"internalType": "uint8",
							"name": "_resultado",
							"type": "uint8"
						}
					],
					"name": "eliminar",
					"outputs": [],
					"stateMutability": "nonpayable",
					"type": "function"
				},
				{
					"inputs": [
						{
							"internalType": "uint256",
							"name": "_id",
							"type": "uint256"
						},
						{
							"internalType": "uint8",
							"name": "_resultado",
							"type": "uint8"
						},
						{
							"internalType": "bytes32",
							"name": "_hash",
							"type": "bytes32"
						}
					],
					"name": "modificarResultado",
					"outputs": [
						{
							"internalType": "bool",
							"name": "success",
							"type": "bool"
						}
					],
					"stateMutability": "nonpayable",
					"type": "function"
				},
				{
					"inputs": [],
					"name": "propietario",
					"outputs": [
						{
							"internalType": "address",
							"name": "",
							"type": "address"
						}
					],
					"stateMutability": "view",
					"type": "function"
				}
			],
			"devdoc": {
				"kind": "dev",
				"methods": {},
				"version": 1
			},
			"evm": {
				"assembly": "    /* \"ConcejoDeliberante/contracts/ProyectoOrdenanza.sol\":101:4338  contract ProyectoOrdenza is ActuacionBase{... */\n  mstore(0x40, 0x80)\n  callvalue\n  dup1\n  iszero\n  tag_1\n  jumpi\n  revert(0x00, 0x00)\ntag_1:\n  pop\n    /* \"ConcejoDeliberante/contracts/ActuacionBase.sol\":1106:1116  msg.sender */\n  caller\n    /* \"ConcejoDeliberante/contracts/ActuacionBase.sol\":1092:1103  propietario */\n  0x00\n  0x00\n    /* \"ConcejoDeliberante/contracts/ActuacionBase.sol\":1092:1116  propietario = msg.sender */\n  0x0100\n  exp\n  dup2\n  sload\n  dup2\n  0xffffffffffffffffffffffffffffffffffffffff\n  mul\n  not\n  and\n  swap1\n  dup4\n  0xffffffffffffffffffffffffffffffffffffffff\n  and\n  mul\n  or\n  swap1\n  sstore\n  pop\n    /* \"ConcejoDeliberante/contracts/ProyectoOrdenanza.sol\":101:4338  contract ProyectoOrdenza is ActuacionBase{... */\n  dataSize(sub_0)\n  dup1\n  dataOffset(sub_0)\n  0x00\n  codecopy\n  0x00\n  return\nstop\n\nsub_0: assembly {\n        /* \"ConcejoDeliberante/contracts/ProyectoOrdenanza.sol\":101:4338  contract ProyectoOrdenza is ActuacionBase{... */\n      mstore(0x40, 0x80)\n      jumpi(tag_1, lt(calldatasize, 0x04))\n      shr(0xe0, calldataload(0x00))\n      dup1\n      0xc0b330b6\n      gt\n      tag_12\n      jumpi\n      dup1\n      0xc0b330b6\n      eq\n      tag_7\n      jumpi\n      dup1\n      0xc631ba01\n      eq\n      tag_8\n      jumpi\n      dup1\n      0xc83e9d6d\n      eq\n      tag_9\n      jumpi\n      dup1\n      0xd986a2a3\n      eq\n      tag_10\n      jumpi\n      dup1\n      0xf904dd5b\n      eq\n      tag_11\n      jumpi\n      jump(tag_1)\n    tag_12:\n      dup1\n      0x3c4f81cd\n      eq\n      tag_2\n      jumpi\n      dup1\n      0x3cbdc2d3\n      eq\n      tag_3\n      jumpi\n      dup1\n      0x52b5241e\n      eq\n      tag_4\n      jumpi\n      dup1\n      0x8e8a5876\n      eq\n      tag_5\n      jumpi\n      dup1\n      0x906a11df\n      eq\n      tag_6\n      jumpi\n    tag_1:\n      revert(0x00, 0x00)\n        /* \"ConcejoDeliberante/contracts/ActuacionBase.sol\":475:501  address public propietario */\n    tag_2:\n      callvalue\n      dup1\n      iszero\n      tag_13\n      jumpi\n      revert(0x00, 0x00)\n    tag_13:\n      pop\n      tag_14\n      tag_15\n      jump\t// in\n    tag_14:\n      mload(0x40)\n      tag_16\n      swap2\n      swap1\n      tag_17\n      jump\t// in\n    tag_16:\n      mload(0x40)\n      dup1\n      swap2\n      sub\n      swap1\n      return\n        /* \"ConcejoDeliberante/contracts/ProyectoOrdenanza.sol\":2936:3625  function modificarResultado(... */\n    tag_3:\n      callvalue\n      dup1\n      iszero\n      tag_18\n      jumpi\n      revert(0x00, 0x00)\n    tag_18:\n      pop\n      tag_19\n      0x04\n      dup1\n      calldatasize\n      sub\n      dup2\n      add\n      swap1\n      tag_20\n      swap2\n      swap1\n      tag_21\n      jump\t// in\n    tag_20:\n      tag_22\n      jump\t// in\n    tag_19:\n      mload(0x40)\n      tag_23\n      swap2\n      swap1\n      tag_24\n      jump\t// in\n    tag_23:\n      mload(0x40)\n      dup1\n      swap2\n      sub\n      swap1\n      return\n        /* \"ConcejoDeliberante/contracts/ActuacionBase.sol\":548:583  uint256 public constant COSTO = 500 */\n    tag_4:\n      callvalue\n      dup1\n      iszero\n      tag_25\n      jumpi\n      revert(0x00, 0x00)\n    tag_25:\n      pop\n      tag_26\n      tag_27\n      jump\t// in\n    tag_26:\n      mload(0x40)\n      tag_28\n      swap2\n      swap1\n      tag_29\n      jump\t// in\n    tag_28:\n      mload(0x40)\n      dup1\n      swap2\n      sub\n      swap1\n      return\n        /* \"ConcejoDeliberante/contracts/ActuacionBase.sol\":2492:2745  function _consultarActuacion(uint256 _id)... */\n    tag_5:\n      callvalue\n      dup1\n      iszero\n      tag_30\n      jumpi\n      revert(0x00, 0x00)\n    tag_30:\n      pop\n      tag_31\n      0x04\n      dup1\n      calldatasize\n      sub\n      dup2\n      add\n      swap1\n      tag_32\n      swap2\n      swap1\n      tag_33\n      jump\t// in\n    tag_32:\n      tag_34\n      jump\t// in\n    tag_31:\n      mload(0x40)\n      tag_35\n      swap2\n      swap1\n      tag_36\n      jump\t// in\n    tag_35:\n      mload(0x40)\n      dup1\n      swap2\n      sub\n      swap1\n      return\n        /* \"ConcejoDeliberante/contracts/ActuacionBase.sol\":1616:2424  function _inicializarActuacion(... */\n    tag_6:\n      tag_37\n      0x04\n      dup1\n      calldatasize\n      sub\n      dup2\n      add\n      swap1\n      tag_38\n      swap2\n      swap1\n      tag_39\n      jump\t// in\n    tag_38:\n      tag_40\n      jump\t// in\n    tag_37:\n      stop\n        /* \"ConcejoDeliberante/contracts/ProyectoOrdenanza.sol\":1911:2627  function consultarProyectoOrdenanza(uint256 _id)... */\n    tag_7:\n      callvalue\n      dup1\n      iszero\n      tag_41\n      jumpi\n      revert(0x00, 0x00)\n    tag_41:\n      pop\n      tag_42\n      0x04\n      dup1\n      calldatasize\n      sub\n      dup2\n      add\n      swap1\n      tag_43\n      swap2\n      swap1\n      tag_33\n      jump\t// in\n    tag_43:\n      tag_44\n      jump\t// in\n    tag_42:\n      mload(0x40)\n      tag_45\n      swap6\n      swap5\n      swap4\n      swap3\n      swap2\n      swap1\n      tag_46\n      jump\t// in\n    tag_45:\n      mload(0x40)\n      dup1\n      swap2\n      sub\n      swap1\n      return\n        /* \"ConcejoDeliberante/contracts/ProyectoOrdenanza.sol\":1036:1843  function agregarProyectoOrdenanza(  ... */\n    tag_8:\n      tag_47\n      0x04\n      dup1\n      calldatasize\n      sub\n      dup2\n      add\n      swap1\n      tag_48\n      swap2\n      swap1\n      tag_49\n      jump\t// in\n    tag_48:\n      tag_50\n      jump\t// in\n    tag_47:\n      stop\n        /* \"ConcejoDeliberante/contracts/ProyectoOrdenanza.sol\":3822:4336  function eliminar(uint256 _id, uint8 _resultado) public {... */\n    tag_9:\n      callvalue\n      dup1\n      iszero\n      tag_51\n      jumpi\n      revert(0x00, 0x00)\n    tag_51:\n      pop\n      tag_52\n      0x04\n      dup1\n      calldatasize\n      sub\n      dup2\n      add\n      swap1\n      tag_53\n      swap2\n      swap1\n      tag_54\n      jump\t// in\n    tag_53:\n      tag_55\n      jump\t// in\n    tag_52:\n      stop\n        /* \"ConcejoDeliberante/contracts/ActuacionBase.sol\":3834:4361  function _eliminarActuacion (uint256 _id, uint8 _estadoNuevo) public {... */\n    tag_10:\n      callvalue\n      dup1\n      iszero\n      tag_56\n      jumpi\n      revert(0x00, 0x00)\n    tag_56:\n      pop\n      tag_57\n      0x04\n      dup1\n      calldatasize\n      sub\n      dup2\n      add\n      swap1\n      tag_58\n      swap2\n      swap1\n      tag_54\n      jump\t// in\n    tag_58:\n      tag_59\n      jump\t// in\n    tag_57:\n      stop\n        /* \"ConcejoDeliberante/contracts/ActuacionBase.sol\":3054:3632  function _modificarActuacion(uint256 _id, uint8 _estadoNuevo, bytes32 _hashNuevo)... */\n    tag_11:\n      callvalue\n      dup1\n      iszero\n      tag_60\n      jumpi\n      revert(0x00, 0x00)\n    tag_60:\n      pop\n      tag_61\n      0x04\n      dup1\n      calldatasize\n      sub\n      dup2\n      add\n      swap1\n      tag_62\n      swap2\n      swap1\n      tag_21\n      jump\t// in\n    tag_62:\n      tag_63\n      jump\t// in\n    tag_61:\n      mload(0x40)\n      tag_64\n      swap2\n      swap1\n      tag_24\n      jump\t// in\n    tag_64:\n      mload(0x40)\n      dup1\n      swap2\n      sub\n      swap1\n      return\n        /* \"ConcejoDeliberante/contracts/ActuacionBase.sol\":475:501  address public propietario */\n    tag_15:\n      0x00\n      0x00\n      swap1\n      sload\n      swap1\n      0x0100\n      exp\n      swap1\n      div\n      0xffffffffffffffffffffffffffffffffffffffff\n      and\n      dup2\n      jump\t// out\n        /* \"ConcejoDeliberante/contracts/ProyectoOrdenanza.sol\":2936:3625  function modificarResultado(... */\n    tag_22:\n        /* \"ConcejoDeliberante/contracts/ProyectoOrdenanza.sol\":3061:3073  bool success */\n      0x00\n        /* \"ConcejoDeliberante/contracts/ProyectoOrdenanza.sol\":3173:3174  0 */\n      0x00\n        /* \"ConcejoDeliberante/contracts/ProyectoOrdenanza.sol\":3150:3176  abi.encodePacked(uint8(0)) */\n      add(0x20, mload(0x40))\n      tag_66\n      swap2\n      swap1\n      tag_67\n      jump\t// in\n    tag_66:\n      mload(0x40)\n      0x20\n      dup2\n      dup4\n      sub\n      sub\n      dup2\n      mstore\n      swap1\n      0x40\n      mstore\n        /* \"ConcejoDeliberante/contracts/ProyectoOrdenanza.sol\":3140:3177  keccak256(abi.encodePacked(uint8(0))) */\n      dup1\n      mload\n      swap1\n      0x20\n      add\n      keccak256\n        /* \"ConcejoDeliberante/contracts/ProyectoOrdenanza.sol\":3124:3134  _resultado */\n      dup4\n        /* \"ConcejoDeliberante/contracts/ProyectoOrdenanza.sol\":3107:3135  abi.encodePacked(_resultado) */\n      add(0x20, mload(0x40))\n      tag_68\n      swap2\n      swap1\n      tag_67\n      jump\t// in\n    tag_68:\n      mload(0x40)\n      0x20\n      dup2\n      dup4\n      sub\n      sub\n      dup2\n      mstore\n      swap1\n      0x40\n      mstore\n        /* \"ConcejoDeliberante/contracts/ProyectoOrdenanza.sol\":3097:3136  keccak256(abi.encodePacked(_resultado)) */\n      dup1\n      mload\n      swap1\n      0x20\n      add\n      keccak256\n        /* \"ConcejoDeliberante/contracts/ProyectoOrdenanza.sol\":3097:3177  keccak256(abi.encodePacked(_resultado)) == keccak256(abi.encodePacked(uint8(0))) */\n      eq\n        /* \"ConcejoDeliberante/contracts/ProyectoOrdenanza.sol\":3097:3277  keccak256(abi.encodePacked(_resultado)) == keccak256(abi.encodePacked(uint8(0))) ||... */\n      dup1\n      tag_69\n      jumpi\n      pop\n        /* \"ConcejoDeliberante/contracts/ProyectoOrdenanza.sol\":3273:3274  1 */\n      0x01\n        /* \"ConcejoDeliberante/contracts/ProyectoOrdenanza.sol\":3250:3276  abi.encodePacked(uint8(1)) */\n      add(0x20, mload(0x40))\n      tag_70\n      swap2\n      swap1\n      tag_67\n      jump\t// in\n    tag_70:\n      mload(0x40)\n      0x20\n      dup2\n      dup4\n      sub\n      sub\n      dup2\n      mstore\n      swap1\n      0x40\n      mstore\n        /* \"ConcejoDeliberante/contracts/ProyectoOrdenanza.sol\":3240:3277  keccak256(abi.encodePacked(uint8(1))) */\n      dup1\n      mload\n      swap1\n      0x20\n      add\n      keccak256\n        /* \"ConcejoDeliberante/contracts/ProyectoOrdenanza.sol\":3224:3234  _resultado */\n      dup4\n        /* \"ConcejoDeliberante/contracts/ProyectoOrdenanza.sol\":3207:3235  abi.encodePacked(_resultado) */\n      add(0x20, mload(0x40))\n      tag_71\n      swap2\n      swap1\n      tag_67\n      jump\t// in\n    tag_71:\n      mload(0x40)\n      0x20\n      dup2\n      dup4\n      sub\n      sub\n      dup2\n      mstore\n      swap1\n      0x40\n      mstore\n        /* \"ConcejoDeliberante/contracts/ProyectoOrdenanza.sol\":3197:3236  keccak256(abi.encodePacked(_resultado)) */\n      dup1\n      mload\n      swap1\n      0x20\n      add\n      keccak256\n        /* \"ConcejoDeliberante/contracts/ProyectoOrdenanza.sol\":3197:3277  keccak256(abi.encodePacked(_resultado)) == keccak256(abi.encodePacked(uint8(1))) */\n      eq\n        /* \"ConcejoDeliberante/contracts/ProyectoOrdenanza.sol\":3097:3277  keccak256(abi.encodePacked(_resultado)) == keccak256(abi.encodePacked(uint8(0))) ||... */\n    tag_69:\n        /* \"ConcejoDeliberante/contracts/ProyectoOrdenanza.sol\":3097:3377  keccak256(abi.encodePacked(_resultado)) == keccak256(abi.encodePacked(uint8(0))) ||... */\n      dup1\n      tag_72\n      jumpi\n      pop\n        /* \"ConcejoDeliberante/contracts/ProyectoOrdenanza.sol\":3373:3374  2 */\n      0x02\n        /* \"ConcejoDeliberante/contracts/ProyectoOrdenanza.sol\":3350:3376  abi.encodePacked(uint8(2)) */\n      add(0x20, mload(0x40))\n      tag_73\n      swap2\n      swap1\n      tag_67\n      jump\t// in\n    tag_73:\n      mload(0x40)\n      0x20\n      dup2\n      dup4\n      sub\n      sub\n      dup2\n      mstore\n      swap1\n      0x40\n      mstore\n        /* \"ConcejoDeliberante/contracts/ProyectoOrdenanza.sol\":3340:3377  keccak256(abi.encodePacked(uint8(2))) */\n      dup1\n      mload\n      swap1\n      0x20\n      add\n      keccak256\n        /* \"ConcejoDeliberante/contracts/ProyectoOrdenanza.sol\":3324:3334  _resultado */\n      dup4\n        /* \"ConcejoDeliberante/contracts/ProyectoOrdenanza.sol\":3307:3335  abi.encodePacked(_resultado) */\n      add(0x20, mload(0x40))\n      tag_74\n      swap2\n      swap1\n      tag_67\n      jump\t// in\n    tag_74:\n      mload(0x40)\n      0x20\n      dup2\n      dup4\n      sub\n      sub\n      dup2\n      mstore\n      swap1\n      0x40\n      mstore\n        /* \"ConcejoDeliberante/contracts/ProyectoOrdenanza.sol\":3297:3336  keccak256(abi.encodePacked(_resultado)) */\n      dup1\n      mload\n      swap1\n      0x20\n      add\n      keccak256\n        /* \"ConcejoDeliberante/contracts/ProyectoOrdenanza.sol\":3297:3377  keccak256(abi.encodePacked(_resultado)) == keccak256(abi.encodePacked(uint8(2))) */\n      eq\n        /* \"ConcejoDeliberante/contracts/ProyectoOrdenanza.sol\":3097:3377  keccak256(abi.encodePacked(_resultado)) == keccak256(abi.encodePacked(uint8(0))) ||... */\n    tag_72:\n        /* \"ConcejoDeliberante/contracts/ProyectoOrdenanza.sol\":3089:3485  require(keccak256(abi.encodePacked(_resultado)) == keccak256(abi.encodePacked(uint8(0))) ||... */\n      tag_75\n      jumpi\n      mload(0x40)\n      0x08c379a000000000000000000000000000000000000000000000000000000000\n      dup2\n      mstore\n      0x04\n      add\n      tag_76\n      swap1\n      tag_77\n      jump\t// in\n    tag_76:\n      mload(0x40)\n      dup1\n      swap2\n      sub\n      swap1\n      revert\n    tag_75:\n        /* \"ConcejoDeliberante/contracts/ProyectoOrdenanza.sol\":3495:3538  _modificarActuacion(_id, _resultado, _hash) */\n      tag_78\n        /* \"ConcejoDeliberante/contracts/ProyectoOrdenanza.sol\":3515:3518  _id */\n      dup5\n        /* \"ConcejoDeliberante/contracts/ProyectoOrdenanza.sol\":3520:3530  _resultado */\n      dup5\n        /* \"ConcejoDeliberante/contracts/ProyectoOrdenanza.sol\":3532:3537  _hash */\n      dup5\n        /* \"ConcejoDeliberante/contracts/ProyectoOrdenanza.sol\":3495:3514  _modificarActuacion */\n      tag_63\n        /* \"ConcejoDeliberante/contracts/ProyectoOrdenanza.sol\":3495:3538  _modificarActuacion(_id, _resultado, _hash) */\n      jump\t// in\n    tag_78:\n      pop\n        /* \"ConcejoDeliberante/contracts/ProyectoOrdenanza.sol\":3553:3597  ResultadoActualizado(_id, _resultado, _hash) */\n      0x10f5ebedf0718619b5b15d769c3cccf914eaf6c44b2b6e71ff939545cc737bbe\n        /* \"ConcejoDeliberante/contracts/ProyectoOrdenanza.sol\":3574:3577  _id */\n      dup5\n        /* \"ConcejoDeliberante/contracts/ProyectoOrdenanza.sol\":3579:3589  _resultado */\n      dup5\n        /* \"ConcejoDeliberante/contracts/ProyectoOrdenanza.sol\":3591:3596  _hash */\n      dup5\n        /* \"ConcejoDeliberante/contracts/ProyectoOrdenanza.sol\":3553:3597  ResultadoActualizado(_id, _resultado, _hash) */\n      mload(0x40)\n      tag_79\n      swap4\n      swap3\n      swap2\n      swap1\n      tag_80\n      jump\t// in\n    tag_79:\n      mload(0x40)\n      dup1\n      swap2\n      sub\n      swap1\n      log1\n        /* \"ConcejoDeliberante/contracts/ProyectoOrdenanza.sol\":3614:3618  true */\n      0x01\n        /* \"ConcejoDeliberante/contracts/ProyectoOrdenanza.sol\":3607:3618  return true */\n      swap1\n      pop\n        /* \"ConcejoDeliberante/contracts/ProyectoOrdenanza.sol\":2936:3625  function modificarResultado(... */\n      swap4\n      swap3\n      pop\n      pop\n      pop\n      jump\t// out\n        /* \"ConcejoDeliberante/contracts/ActuacionBase.sol\":548:583  uint256 public constant COSTO = 500 */\n    tag_27:\n        /* \"ConcejoDeliberante/contracts/ActuacionBase.sol\":580:583  500 */\n      0x01f4\n        /* \"ConcejoDeliberante/contracts/ActuacionBase.sol\":548:583  uint256 public constant COSTO = 500 */\n      dup2\n      jump\t// out\n        /* \"ConcejoDeliberante/contracts/ActuacionBase.sol\":2492:2745  function _consultarActuacion(uint256 _id)... */\n    tag_34:\n        /* \"ConcejoDeliberante/contracts/ActuacionBase.sol\":2579:2595  Actuacion memory */\n      tag_81\n      tag_82\n      jump\t// in\n    tag_81:\n        /* \"ConcejoDeliberante/contracts/ActuacionBase.sol\":2619:2630  actuaciones */\n      0x01\n        /* \"ConcejoDeliberante/contracts/ActuacionBase.sol\":2619:2635  actuaciones[_id] */\n      0x00\n        /* \"ConcejoDeliberante/contracts/ActuacionBase.sol\":2631:2634  _id */\n      dup4\n        /* \"ConcejoDeliberante/contracts/ActuacionBase.sol\":2619:2635  actuaciones[_id] */\n      dup2\n      mstore\n      0x20\n      add\n      swap1\n      dup2\n      mstore\n      0x20\n      add\n      0x00\n      keccak256\n        /* \"ConcejoDeliberante/contracts/ActuacionBase.sol\":2619:2642  actuaciones[_id].existe */\n      0x02\n      add\n      0x00\n      swap1\n      sload\n      swap1\n      0x0100\n      exp\n      swap1\n      div\n      0xff\n      and\n        /* \"ConcejoDeliberante/contracts/ActuacionBase.sol\":2611:2669  require(actuaciones[_id].existe, \"La actuacion no existe\") */\n      tag_84\n      jumpi\n      mload(0x40)\n      0x08c379a000000000000000000000000000000000000000000000000000000000\n      dup2\n      mstore\n      0x04\n      add\n      tag_85\n      swap1\n      tag_86\n      jump\t// in\n    tag_85:\n      mload(0x40)\n      dup1\n      swap2\n      sub\n      swap1\n      revert\n    tag_84:\n        /* \"ConcejoDeliberante/contracts/ActuacionBase.sol\":2686:2697  actuaciones */\n      0x01\n        /* \"ConcejoDeliberante/contracts/ActuacionBase.sol\":2686:2702  actuaciones[_id] */\n      0x00\n        /* \"ConcejoDeliberante/contracts/ActuacionBase.sol\":2698:2701  _id */\n      dup4\n        /* \"ConcejoDeliberante/contracts/ActuacionBase.sol\":2686:2702  actuaciones[_id] */\n      dup2\n      mstore\n      0x20\n      add\n      swap1\n      dup2\n      mstore\n      0x20\n      add\n      0x00\n      keccak256\n        /* \"ConcejoDeliberante/contracts/ActuacionBase.sol\":2679:2702  return actuaciones[_id] */\n      mload(0x40)\n      dup1\n      0x80\n      add\n      0x40\n      mstore\n      swap1\n      dup2\n      0x00\n      dup3\n      add\n      sload\n      dup2\n      mstore\n      0x20\n      add\n      0x01\n      dup3\n      add\n      sload\n      dup2\n      mstore\n      0x20\n      add\n      0x02\n      dup3\n      add\n      0x00\n      swap1\n      sload\n      swap1\n      0x0100\n      exp\n      swap1\n      div\n      0xff\n      and\n      iszero\n      iszero\n      iszero\n      iszero\n      dup2\n      mstore\n      0x20\n      add\n      0x03\n      dup3\n      add\n      dup1\n      sload\n      dup1\n      0x20\n      mul\n      0x20\n      add\n      mload(0x40)\n      swap1\n      dup2\n      add\n      0x40\n      mstore\n      dup1\n      swap3\n      swap2\n      swap1\n      dup2\n      dup2\n      mstore\n      0x20\n      add\n      0x00\n      swap1\n    tag_87:\n      dup3\n      dup3\n      lt\n      iszero\n      tag_88\n      jumpi\n      dup4\n      dup3\n      swap1\n      0x00\n      mstore\n      keccak256(0x00, 0x20)\n      swap1\n      0x04\n      mul\n      add\n      mload(0x40)\n      dup1\n      0x80\n      add\n      0x40\n      mstore\n      swap1\n      dup2\n      0x00\n      dup3\n      add\n      sload\n      dup2\n      mstore\n      0x20\n      add\n      0x01\n      dup3\n      add\n      0x00\n      swap1\n      sload\n      swap1\n      0x0100\n      exp\n      swap1\n      div\n      0xff\n      and\n      0xff\n      and\n      0xff\n      and\n      dup2\n      mstore\n      0x20\n      add\n      0x02\n      dup3\n      add\n      sload\n      dup2\n      mstore\n      0x20\n      add\n      0x03\n      dup3\n      add\n      0x00\n      swap1\n      sload\n      swap1\n      0x0100\n      exp\n      swap1\n      div\n      0xffffffffffffffffffffffffffffffffffffffff\n      and\n      0xffffffffffffffffffffffffffffffffffffffff\n      and\n      0xffffffffffffffffffffffffffffffffffffffff\n      and\n      dup2\n      mstore\n      pop\n      pop\n      dup2\n      mstore\n      0x20\n      add\n      swap1\n      0x01\n      add\n      swap1\n      jump(tag_87)\n    tag_88:\n      pop\n      pop\n      pop\n      pop\n      dup2\n      mstore\n      pop\n      pop\n      swap1\n      pop\n        /* \"ConcejoDeliberante/contracts/ActuacionBase.sol\":2492:2745  function _consultarActuacion(uint256 _id)... */\n      swap2\n      swap1\n      pop\n      jump\t// out\n        /* \"ConcejoDeliberante/contracts/ActuacionBase.sol\":1616:2424  function _inicializarActuacion(... */\n    tag_40:\n        /* \"ConcejoDeliberante/contracts/ActuacionBase.sol\":1821:1832  actuaciones */\n      0x01\n        /* \"ConcejoDeliberante/contracts/ActuacionBase.sol\":1821:1837  actuaciones[_id] */\n      0x00\n        /* \"ConcejoDeliberante/contracts/ActuacionBase.sol\":1833:1836  _id */\n      dup7\n        /* \"ConcejoDeliberante/contracts/ActuacionBase.sol\":1821:1837  actuaciones[_id] */\n      dup2\n      mstore\n      0x20\n      add\n      swap1\n      dup2\n      mstore\n      0x20\n      add\n      0x00\n      keccak256\n        /* \"ConcejoDeliberante/contracts/ActuacionBase.sol\":1821:1844  actuaciones[_id].existe */\n      0x02\n      add\n      0x00\n      swap1\n      sload\n      swap1\n      0x0100\n      exp\n      swap1\n      div\n      0xff\n      and\n        /* \"ConcejoDeliberante/contracts/ActuacionBase.sol\":1820:1844  !actuaciones[_id].existe */\n      iszero\n        /* \"ConcejoDeliberante/contracts/ActuacionBase.sol\":1812:1871  require(!actuaciones[_id].existe, \"La actuacion ya existe\") */\n      tag_91\n      jumpi\n      mload(0x40)\n      0x08c379a000000000000000000000000000000000000000000000000000000000\n      dup2\n      mstore\n      0x04\n      add\n      tag_92\n      swap1\n      tag_93\n      jump\t// in\n    tag_92:\n      mload(0x40)\n      dup1\n      swap2\n      sub\n      swap1\n      revert\n    tag_91:\n        /* \"ConcejoDeliberante/contracts/ActuacionBase.sol\":1902:1905  500 */\n      0x01f4\n        /* \"ConcejoDeliberante/contracts/ActuacionBase.sol\":1889:1898  msg.value */\n      callvalue\n        /* \"ConcejoDeliberante/contracts/ActuacionBase.sol\":1889:1905  msg.value >= 500 */\n      lt\n      iszero\n        /* \"ConcejoDeliberante/contracts/ActuacionBase.sol\":1881:1947  require(msg.value >= 500, \"No se ha pagado la tarifa de registro\") */\n      tag_94\n      jumpi\n      mload(0x40)\n      0x08c379a000000000000000000000000000000000000000000000000000000000\n      dup2\n      mstore\n      0x04\n      add\n      tag_95\n      swap1\n      tag_96\n      jump\t// in\n    tag_95:\n      mload(0x40)\n      dup1\n      swap2\n      sub\n      swap1\n      revert\n    tag_94:\n        /* \"ConcejoDeliberante/contracts/ActuacionBase.sol\":1966:1985  Actuacion storage a */\n      0x00\n        /* \"ConcejoDeliberante/contracts/ActuacionBase.sol\":1988:1999  actuaciones */\n      0x01\n        /* \"ConcejoDeliberante/contracts/ActuacionBase.sol\":1988:2004  actuaciones[_id] */\n      0x00\n        /* \"ConcejoDeliberante/contracts/ActuacionBase.sol\":2000:2003  _id */\n      dup8\n        /* \"ConcejoDeliberante/contracts/ActuacionBase.sol\":1988:2004  actuaciones[_id] */\n      dup2\n      mstore\n      0x20\n      add\n      swap1\n      dup2\n      mstore\n      0x20\n      add\n      0x00\n      keccak256\n        /* \"ConcejoDeliberante/contracts/ActuacionBase.sol\":1966:2004  Actuacion storage a = actuaciones[_id] */\n      swap1\n      pop\n        /* \"ConcejoDeliberante/contracts/ActuacionBase.sol\":2032:2036  true */\n      0x01\n        /* \"ConcejoDeliberante/contracts/ActuacionBase.sol\":2014:2015  a */\n      dup2\n        /* \"ConcejoDeliberante/contracts/ActuacionBase.sol\":2014:2022  a.existe */\n      0x02\n      add\n      0x00\n        /* \"ConcejoDeliberante/contracts/ActuacionBase.sol\":2014:2036  a.existe        = true */\n      0x0100\n      exp\n      dup2\n      sload\n      dup2\n      0xff\n      mul\n      not\n      and\n      swap1\n      dup4\n      iszero\n      iszero\n      mul\n      or\n      swap1\n      sstore\n      pop\n        /* \"ConcejoDeliberante/contracts/ActuacionBase.sol\":2064:2073  _dniAutor */\n      dup5\n        /* \"ConcejoDeliberante/contracts/ActuacionBase.sol\":2046:2047  a */\n      dup2\n        /* \"ConcejoDeliberante/contracts/ActuacionBase.sol\":2046:2056  a.dniAutor */\n      0x01\n      add\n        /* \"ConcejoDeliberante/contracts/ActuacionBase.sol\":2046:2073  a.dniAutor      = _dniAutor */\n      dup2\n      swap1\n      sstore\n      pop\n        /* \"ConcejoDeliberante/contracts/ActuacionBase.sol\":2101:2115  _fechaCreacion */\n      dup2\n        /* \"ConcejoDeliberante/contracts/ActuacionBase.sol\":2083:2084  a */\n      dup2\n        /* \"ConcejoDeliberante/contracts/ActuacionBase.sol\":2083:2098  a.fechaCreacion */\n      0x00\n      add\n        /* \"ConcejoDeliberante/contracts/ActuacionBase.sol\":2083:2115  a.fechaCreacion = _fechaCreacion */\n      dup2\n      swap1\n      sstore\n      pop\n        /* \"ConcejoDeliberante/contracts/ActuacionBase.sol\":2126:2127  a */\n      dup1\n        /* \"ConcejoDeliberante/contracts/ActuacionBase.sol\":2126:2137  a.historial */\n      0x03\n      add\n        /* \"ConcejoDeliberante/contracts/ActuacionBase.sol\":2143:2306  Cambio({... */\n      mload(0x40)\n      dup1\n      0x80\n      add\n      0x40\n      mstore\n      dup1\n        /* \"ConcejoDeliberante/contracts/ActuacionBase.sol\":2180:2195  block.timestamp */\n      timestamp\n        /* \"ConcejoDeliberante/contracts/ActuacionBase.sol\":2143:2306  Cambio({... */\n      dup2\n      mstore\n      0x20\n      add\n        /* \"ConcejoDeliberante/contracts/ActuacionBase.sol\":2283:2295  _estadoNuevo */\n      dup7\n        /* \"ConcejoDeliberante/contracts/ActuacionBase.sol\":2143:2306  Cambio({... */\n      0xff\n      and\n      dup2\n      mstore\n      0x20\n      add\n        /* \"ConcejoDeliberante/contracts/ActuacionBase.sol\":2256:2261  _hash */\n      dup6\n        /* \"ConcejoDeliberante/contracts/ActuacionBase.sol\":2143:2306  Cambio({... */\n      dup2\n      mstore\n      0x20\n      add\n        /* \"ConcejoDeliberante/contracts/ActuacionBase.sol\":2225:2235  msg.sender */\n      caller\n        /* \"ConcejoDeliberante/contracts/ActuacionBase.sol\":2143:2306  Cambio({... */\n      0xffffffffffffffffffffffffffffffffffffffff\n      and\n      dup2\n      mstore\n      pop\n        /* \"ConcejoDeliberante/contracts/ActuacionBase.sol\":2126:2307  a.historial.push(Cambio({... */\n      swap1\n      dup1\n      0x01\n      dup2\n      sload\n      add\n      dup1\n      dup3\n      sstore\n      dup1\n      swap2\n      pop\n      pop\n      0x01\n      swap1\n      sub\n      swap1\n      0x00\n      mstore\n      keccak256(0x00, 0x20)\n      swap1\n      0x04\n      mul\n      add\n      0x00\n      swap1\n      swap2\n      swap1\n      swap2\n      swap1\n      swap2\n      pop\n      0x00\n      dup3\n      add\n      mload\n      dup2\n      0x00\n      add\n      sstore\n      0x20\n      dup3\n      add\n      mload\n      dup2\n      0x01\n      add\n      exp(0x0100, 0x00)\n      dup2\n      sload\n      dup2\n      0xff\n      mul\n      not\n      and\n      swap1\n      dup4\n      0xff\n      and\n      mul\n      or\n      swap1\n      sstore\n      pop\n      0x40\n      dup3\n      add\n      mload\n      dup2\n      0x02\n      add\n      sstore\n      0x60\n      dup3\n      add\n      mload\n      dup2\n      0x03\n      add\n      exp(0x0100, 0x00)\n      dup2\n      sload\n      dup2\n      0xffffffffffffffffffffffffffffffffffffffff\n      mul\n      not\n      and\n      swap1\n      dup4\n      0xffffffffffffffffffffffffffffffffffffffff\n      and\n      mul\n      or\n      swap1\n      sstore\n      pop\n      pop\n      pop\n        /* \"ConcejoDeliberante/contracts/ActuacionBase.sol\":2318:2321  ids */\n      0x02\n        /* \"ConcejoDeliberante/contracts/ActuacionBase.sol\":2327:2330  _id */\n      dup7\n        /* \"ConcejoDeliberante/contracts/ActuacionBase.sol\":2318:2331  ids.push(_id) */\n      swap1\n      dup1\n      0x01\n      dup2\n      sload\n      add\n      dup1\n      dup3\n      sstore\n      dup1\n      swap2\n      pop\n      pop\n      0x01\n      swap1\n      sub\n      swap1\n      0x00\n      mstore\n      keccak256(0x00, 0x20)\n      add\n      0x00\n      swap1\n      swap2\n      swap1\n      swap2\n      swap1\n      swap2\n      pop\n      sstore\n        /* \"ConcejoDeliberante/contracts/ActuacionBase.sol\":2347:2417  ActuacionAgregada(_id, _fechaCreacion, _dniAutor, _estadoNuevo, _hash) */\n      0x164383a2b97191661e35fd7054520c2abdf173025e32983b038ecb35a796cda7\n        /* \"ConcejoDeliberante/contracts/ActuacionBase.sol\":2365:2368  _id */\n      dup7\n        /* \"ConcejoDeliberante/contracts/ActuacionBase.sol\":2370:2384  _fechaCreacion */\n      dup4\n        /* \"ConcejoDeliberante/contracts/ActuacionBase.sol\":2386:2395  _dniAutor */\n      dup8\n        /* \"ConcejoDeliberante/contracts/ActuacionBase.sol\":2397:2409  _estadoNuevo */\n      dup8\n        /* \"ConcejoDeliberante/contracts/ActuacionBase.sol\":2411:2416  _hash */\n      dup8\n        /* \"ConcejoDeliberante/contracts/ActuacionBase.sol\":2347:2417  ActuacionAgregada(_id, _fechaCreacion, _dniAutor, _estadoNuevo, _hash) */\n      mload(0x40)\n      tag_99\n      swap6\n      swap5\n      swap4\n      swap3\n      swap2\n      swap1\n      tag_100\n      jump\t// in\n    tag_99:\n      mload(0x40)\n      dup1\n      swap2\n      sub\n      swap1\n      log1\n        /* \"ConcejoDeliberante/contracts/ActuacionBase.sol\":1793:2424  {... */\n      pop\n        /* \"ConcejoDeliberante/contracts/ActuacionBase.sol\":1616:2424  function _inicializarActuacion(... */\n      pop\n      pop\n      pop\n      pop\n      pop\n      jump\t// out\n        /* \"ConcejoDeliberante/contracts/ProyectoOrdenanza.sol\":1911:2627  function consultarProyectoOrdenanza(uint256 _id)... */\n    tag_44:\n        /* \"ConcejoDeliberante/contracts/ProyectoOrdenanza.sol\":2018:2040  uint256  fechaCreacion */\n      0x00\n        /* \"ConcejoDeliberante/contracts/ProyectoOrdenanza.sol\":2086:2103  uint256  dniAutor */\n      0x00\n        /* \"ConcejoDeliberante/contracts/ProyectoOrdenanza.sol\":2117:2134  uint8   resultado */\n      0x00\n        /* \"ConcejoDeliberante/contracts/ProyectoOrdenanza.sol\":2148:2170  uint256  numExpediente */\n      0x00\n        /* \"ConcejoDeliberante/contracts/ProyectoOrdenanza.sol\":2184:2196  bytes32 hash */\n      0x00\n        /* \"ConcejoDeliberante/contracts/ProyectoOrdenanza.sol\":2226:2266  ActuacionBase.Actuacion memory actuacion */\n      0x00\n        /* \"ConcejoDeliberante/contracts/ProyectoOrdenanza.sol\":2269:2293  _consultarActuacion(_id) */\n      tag_102\n        /* \"ConcejoDeliberante/contracts/ProyectoOrdenanza.sol\":2289:2292  _id */\n      dup8\n        /* \"ConcejoDeliberante/contracts/ProyectoOrdenanza.sol\":2269:2288  _consultarActuacion */\n      tag_34\n        /* \"ConcejoDeliberante/contracts/ProyectoOrdenanza.sol\":2269:2293  _consultarActuacion(_id) */\n      jump\t// in\n    tag_102:\n        /* \"ConcejoDeliberante/contracts/ProyectoOrdenanza.sol\":2226:2293  ActuacionBase.Actuacion memory actuacion = _consultarActuacion(_id) */\n      swap1\n      pop\n        /* \"ConcejoDeliberante/contracts/ProyectoOrdenanza.sol\":2303:2335  DatosProyectoOrdenanza storage o */\n      0x00\n        /* \"ConcejoDeliberante/contracts/ProyectoOrdenanza.sol\":2338:2348  datosExtra */\n      0x03\n        /* \"ConcejoDeliberante/contracts/ProyectoOrdenanza.sol\":2338:2353  datosExtra[_id] */\n      0x00\n        /* \"ConcejoDeliberante/contracts/ProyectoOrdenanza.sol\":2349:2352  _id */\n      dup10\n        /* \"ConcejoDeliberante/contracts/ProyectoOrdenanza.sol\":2338:2353  datosExtra[_id] */\n      dup2\n      mstore\n      0x20\n      add\n      swap1\n      dup2\n      mstore\n      0x20\n      add\n      0x00\n      keccak256\n        /* \"ConcejoDeliberante/contracts/ProyectoOrdenanza.sol\":2303:2353  DatosProyectoOrdenanza storage o = datosExtra[_id] */\n      swap1\n      pop\n        /* \"ConcejoDeliberante/contracts/ProyectoOrdenanza.sol\":2384:2393  actuacion */\n      dup2\n        /* \"ConcejoDeliberante/contracts/ProyectoOrdenanza.sol\":2384:2407  actuacion.fechaCreacion */\n      0x00\n      add\n      mload\n        /* \"ConcejoDeliberante/contracts/ProyectoOrdenanza.sol\":2421:2430  actuacion */\n      dup3\n        /* \"ConcejoDeliberante/contracts/ProyectoOrdenanza.sol\":2421:2439  actuacion.dniAutor */\n      0x20\n      add\n      mload\n        /* \"ConcejoDeliberante/contracts/ProyectoOrdenanza.sol\":2453:2462  actuacion */\n      dup4\n        /* \"ConcejoDeliberante/contracts/ProyectoOrdenanza.sol\":2453:2472  actuacion.historial */\n      0x60\n      add\n      mload\n        /* \"ConcejoDeliberante/contracts/ProyectoOrdenanza.sol\":2502:2503  1 */\n      0x01\n        /* \"ConcejoDeliberante/contracts/ProyectoOrdenanza.sol\":2473:2482  actuacion */\n      dup6\n        /* \"ConcejoDeliberante/contracts/ProyectoOrdenanza.sol\":2473:2492  actuacion.historial */\n      0x60\n      add\n      mload\n        /* \"ConcejoDeliberante/contracts/ProyectoOrdenanza.sol\":2473:2499  actuacion.historial.length */\n      mload\n        /* \"ConcejoDeliberante/contracts/ProyectoOrdenanza.sol\":2473:2503  actuacion.historial.length - 1 */\n      tag_103\n      swap2\n      swap1\n      tag_104\n      jump\t// in\n    tag_103:\n        /* \"ConcejoDeliberante/contracts/ProyectoOrdenanza.sol\":2453:2504  actuacion.historial[actuacion.historial.length - 1] */\n      dup2\n      mload\n      dup2\n      lt\n      tag_105\n      jumpi\n      tag_106\n      tag_107\n      jump\t// in\n    tag_106:\n    tag_105:\n      0x20\n      mul\n      0x20\n      add\n      add\n      mload\n        /* \"ConcejoDeliberante/contracts/ProyectoOrdenanza.sol\":2453:2511  actuacion.historial[actuacion.historial.length - 1].estado */\n      0x20\n      add\n      mload\n        /* \"ConcejoDeliberante/contracts/ProyectoOrdenanza.sol\":2525:2526  o */\n      dup4\n        /* \"ConcejoDeliberante/contracts/ProyectoOrdenanza.sol\":2525:2540  o.numExpediente */\n      0x00\n      add\n      sload\n        /* \"ConcejoDeliberante/contracts/ProyectoOrdenanza.sol\":2554:2563  actuacion */\n      dup6\n        /* \"ConcejoDeliberante/contracts/ProyectoOrdenanza.sol\":2554:2573  actuacion.historial */\n      0x60\n      add\n      mload\n        /* \"ConcejoDeliberante/contracts/ProyectoOrdenanza.sol\":2603:2604  1 */\n      0x01\n        /* \"ConcejoDeliberante/contracts/ProyectoOrdenanza.sol\":2574:2583  actuacion */\n      dup8\n        /* \"ConcejoDeliberante/contracts/ProyectoOrdenanza.sol\":2574:2593  actuacion.historial */\n      0x60\n      add\n      mload\n        /* \"ConcejoDeliberante/contracts/ProyectoOrdenanza.sol\":2574:2600  actuacion.historial.length */\n      mload\n        /* \"ConcejoDeliberante/contracts/ProyectoOrdenanza.sol\":2574:2604  actuacion.historial.length - 1 */\n      tag_108\n      swap2\n      swap1\n      tag_104\n      jump\t// in\n    tag_108:\n        /* \"ConcejoDeliberante/contracts/ProyectoOrdenanza.sol\":2554:2605  actuacion.historial[actuacion.historial.length - 1] */\n      dup2\n      mload\n      dup2\n      lt\n      tag_109\n      jumpi\n      tag_110\n      tag_107\n      jump\t// in\n    tag_110:\n    tag_109:\n      0x20\n      mul\n      0x20\n      add\n      add\n      mload\n        /* \"ConcejoDeliberante/contracts/ProyectoOrdenanza.sol\":2554:2610  actuacion.historial[actuacion.historial.length - 1].hash */\n      0x40\n      add\n      mload\n        /* \"ConcejoDeliberante/contracts/ProyectoOrdenanza.sol\":2363:2620  return (... */\n      swap7\n      pop\n      swap7\n      pop\n      swap7\n      pop\n      swap7\n      pop\n      swap7\n      pop\n      pop\n      pop\n        /* \"ConcejoDeliberante/contracts/ProyectoOrdenanza.sol\":1911:2627  function consultarProyectoOrdenanza(uint256 _id)... */\n      swap2\n      swap4\n      swap6\n      swap1\n      swap3\n      swap5\n      pop\n      jump\t// out\n        /* \"ConcejoDeliberante/contracts/ProyectoOrdenanza.sol\":1036:1843  function agregarProyectoOrdenanza(  ... */\n    tag_50:\n        /* \"ConcejoDeliberante/contracts/ProyectoOrdenanza.sol\":1350:1351  0 */\n      0x00\n        /* \"ConcejoDeliberante/contracts/ProyectoOrdenanza.sol\":1327:1353  abi.encodePacked(uint8(0)) */\n      add(0x20, mload(0x40))\n      tag_112\n      swap2\n      swap1\n      tag_67\n      jump\t// in\n    tag_112:\n      mload(0x40)\n      0x20\n      dup2\n      dup4\n      sub\n      sub\n      dup2\n      mstore\n      swap1\n      0x40\n      mstore\n        /* \"ConcejoDeliberante/contracts/ProyectoOrdenanza.sol\":1317:1354  keccak256(abi.encodePacked(uint8(0))) */\n      dup1\n      mload\n      swap1\n      0x20\n      add\n      keccak256\n        /* \"ConcejoDeliberante/contracts/ProyectoOrdenanza.sol\":1301:1311  _resultado */\n      dup2\n        /* \"ConcejoDeliberante/contracts/ProyectoOrdenanza.sol\":1284:1312  abi.encodePacked(_resultado) */\n      add(0x20, mload(0x40))\n      tag_113\n      swap2\n      swap1\n      tag_67\n      jump\t// in\n    tag_113:\n      mload(0x40)\n      0x20\n      dup2\n      dup4\n      sub\n      sub\n      dup2\n      mstore\n      swap1\n      0x40\n      mstore\n        /* \"ConcejoDeliberante/contracts/ProyectoOrdenanza.sol\":1274:1313  keccak256(abi.encodePacked(_resultado)) */\n      dup1\n      mload\n      swap1\n      0x20\n      add\n      keccak256\n        /* \"ConcejoDeliberante/contracts/ProyectoOrdenanza.sol\":1274:1354  keccak256(abi.encodePacked(_resultado)) == keccak256(abi.encodePacked(uint8(0))) */\n      eq\n        /* \"ConcejoDeliberante/contracts/ProyectoOrdenanza.sol\":1274:1454  keccak256(abi.encodePacked(_resultado)) == keccak256(abi.encodePacked(uint8(0))) ||... */\n      dup1\n      tag_114\n      jumpi\n      pop\n        /* \"ConcejoDeliberante/contracts/ProyectoOrdenanza.sol\":1450:1451  1 */\n      0x01\n        /* \"ConcejoDeliberante/contracts/ProyectoOrdenanza.sol\":1427:1453  abi.encodePacked(uint8(1)) */\n      add(0x20, mload(0x40))\n      tag_115\n      swap2\n      swap1\n      tag_67\n      jump\t// in\n    tag_115:\n      mload(0x40)\n      0x20\n      dup2\n      dup4\n      sub\n      sub\n      dup2\n      mstore\n      swap1\n      0x40\n      mstore\n        /* \"ConcejoDeliberante/contracts/ProyectoOrdenanza.sol\":1417:1454  keccak256(abi.encodePacked(uint8(1))) */\n      dup1\n      mload\n      swap1\n      0x20\n      add\n      keccak256\n        /* \"ConcejoDeliberante/contracts/ProyectoOrdenanza.sol\":1401:1411  _resultado */\n      dup2\n        /* \"ConcejoDeliberante/contracts/ProyectoOrdenanza.sol\":1384:1412  abi.encodePacked(_resultado) */\n      add(0x20, mload(0x40))\n      tag_116\n      swap2\n      swap1\n      tag_67\n      jump\t// in\n    tag_116:\n      mload(0x40)\n      0x20\n      dup2\n      dup4\n      sub\n      sub\n      dup2\n      mstore\n      swap1\n      0x40\n      mstore\n        /* \"ConcejoDeliberante/contracts/ProyectoOrdenanza.sol\":1374:1413  keccak256(abi.encodePacked(_resultado)) */\n      dup1\n      mload\n      swap1\n      0x20\n      add\n      keccak256\n        /* \"ConcejoDeliberante/contracts/ProyectoOrdenanza.sol\":1374:1454  keccak256(abi.encodePacked(_resultado)) == keccak256(abi.encodePacked(uint8(1))) */\n      eq\n        /* \"ConcejoDeliberante/contracts/ProyectoOrdenanza.sol\":1274:1454  keccak256(abi.encodePacked(_resultado)) == keccak256(abi.encodePacked(uint8(0))) ||... */\n    tag_114:\n        /* \"ConcejoDeliberante/contracts/ProyectoOrdenanza.sol\":1274:1554  keccak256(abi.encodePacked(_resultado)) == keccak256(abi.encodePacked(uint8(0))) ||... */\n      dup1\n      tag_117\n      jumpi\n      pop\n        /* \"ConcejoDeliberante/contracts/ProyectoOrdenanza.sol\":1550:1551  2 */\n      0x02\n        /* \"ConcejoDeliberante/contracts/ProyectoOrdenanza.sol\":1527:1553  abi.encodePacked(uint8(2)) */\n      add(0x20, mload(0x40))\n      tag_118\n      swap2\n      swap1\n      tag_67\n      jump\t// in\n    tag_118:\n      mload(0x40)\n      0x20\n      dup2\n      dup4\n      sub\n      sub\n      dup2\n      mstore\n      swap1\n      0x40\n      mstore\n        /* \"ConcejoDeliberante/contracts/ProyectoOrdenanza.sol\":1517:1554  keccak256(abi.encodePacked(uint8(2))) */\n      dup1\n      mload\n      swap1\n      0x20\n      add\n      keccak256\n        /* \"ConcejoDeliberante/contracts/ProyectoOrdenanza.sol\":1501:1511  _resultado */\n      dup2\n        /* \"ConcejoDeliberante/contracts/ProyectoOrdenanza.sol\":1484:1512  abi.encodePacked(_resultado) */\n      add(0x20, mload(0x40))\n      tag_119\n      swap2\n      swap1\n      tag_67\n      jump\t// in\n    tag_119:\n      mload(0x40)\n      0x20\n      dup2\n      dup4\n      sub\n      sub\n      dup2\n      mstore\n      swap1\n      0x40\n      mstore\n        /* \"ConcejoDeliberante/contracts/ProyectoOrdenanza.sol\":1474:1513  keccak256(abi.encodePacked(_resultado)) */\n      dup1\n      mload\n      swap1\n      0x20\n      add\n      keccak256\n        /* \"ConcejoDeliberante/contracts/ProyectoOrdenanza.sol\":1474:1554  keccak256(abi.encodePacked(_resultado)) == keccak256(abi.encodePacked(uint8(2))) */\n      eq\n        /* \"ConcejoDeliberante/contracts/ProyectoOrdenanza.sol\":1274:1554  keccak256(abi.encodePacked(_resultado)) == keccak256(abi.encodePacked(uint8(0))) ||... */\n    tag_117:\n        /* \"ConcejoDeliberante/contracts/ProyectoOrdenanza.sol\":1266:1670  require(keccak256(abi.encodePacked(_resultado)) == keccak256(abi.encodePacked(uint8(0))) ||... */\n      tag_120\n      jumpi\n      mload(0x40)\n      0x08c379a000000000000000000000000000000000000000000000000000000000\n      dup2\n      mstore\n      0x04\n      add\n      tag_121\n      swap1\n      tag_77\n      jump\t// in\n    tag_121:\n      mload(0x40)\n      dup1\n      swap2\n      sub\n      swap1\n      revert\n    tag_120:\n        /* \"ConcejoDeliberante/contracts/ProyectoOrdenanza.sol\":1684:1756  _inicializarActuacion(_id, _dniAutor, _resultado, _hash, _fechaCreacion) */\n      tag_122\n        /* \"ConcejoDeliberante/contracts/ProyectoOrdenanza.sol\":1706:1709  _id */\n      dup7\n        /* \"ConcejoDeliberante/contracts/ProyectoOrdenanza.sol\":1711:1720  _dniAutor */\n      dup7\n        /* \"ConcejoDeliberante/contracts/ProyectoOrdenanza.sol\":1722:1732  _resultado */\n      dup4\n        /* \"ConcejoDeliberante/contracts/ProyectoOrdenanza.sol\":1734:1739  _hash */\n      dup8\n        /* \"ConcejoDeliberante/contracts/ProyectoOrdenanza.sol\":1741:1755  _fechaCreacion */\n      dup8\n        /* \"ConcejoDeliberante/contracts/ProyectoOrdenanza.sol\":1684:1705  _inicializarActuacion */\n      tag_40\n        /* \"ConcejoDeliberante/contracts/ProyectoOrdenanza.sol\":1684:1756  _inicializarActuacion(_id, _dniAutor, _resultado, _hash, _fechaCreacion) */\n      jump\t// in\n    tag_122:\n        /* \"ConcejoDeliberante/contracts/ProyectoOrdenanza.sol\":1775:1832  OrdenanzaAgregada(_id, _numExpediente, _resultado, _hash) */\n      0x5694b19b2cfcf39a4309e7d5015b841327b2020ff7dfbe0c17328b4c90aed71e\n        /* \"ConcejoDeliberante/contracts/ProyectoOrdenanza.sol\":1793:1796  _id */\n      dup7\n        /* \"ConcejoDeliberante/contracts/ProyectoOrdenanza.sol\":1798:1812  _numExpediente */\n      dup4\n        /* \"ConcejoDeliberante/contracts/ProyectoOrdenanza.sol\":1814:1824  _resultado */\n      dup4\n        /* \"ConcejoDeliberante/contracts/ProyectoOrdenanza.sol\":1826:1831  _hash */\n      dup8\n        /* \"ConcejoDeliberante/contracts/ProyectoOrdenanza.sol\":1775:1832  OrdenanzaAgregada(_id, _numExpediente, _resultado, _hash) */\n      mload(0x40)\n      tag_123\n      swap5\n      swap4\n      swap3\n      swap2\n      swap1\n      tag_124\n      jump\t// in\n    tag_123:\n      mload(0x40)\n      dup1\n      swap2\n      sub\n      swap1\n      log1\n        /* \"ConcejoDeliberante/contracts/ProyectoOrdenanza.sol\":1036:1843  function agregarProyectoOrdenanza(  ... */\n      pop\n      pop\n      pop\n      pop\n      pop\n      pop\n      jump\t// out\n        /* \"ConcejoDeliberante/contracts/ProyectoOrdenanza.sol\":3822:4336  function eliminar(uint256 _id, uint8 _resultado) public {... */\n    tag_55:\n        /* \"ConcejoDeliberante/contracts/ProyectoOrdenanza.sol\":3972:3973  0 */\n      0x00\n        /* \"ConcejoDeliberante/contracts/ProyectoOrdenanza.sol\":3949:3975  abi.encodePacked(uint8(0)) */\n      add(0x20, mload(0x40))\n      tag_126\n      swap2\n      swap1\n      tag_67\n      jump\t// in\n    tag_126:\n      mload(0x40)\n      0x20\n      dup2\n      dup4\n      sub\n      sub\n      dup2\n      mstore\n      swap1\n      0x40\n      mstore\n        /* \"ConcejoDeliberante/contracts/ProyectoOrdenanza.sol\":3939:3976  keccak256(abi.encodePacked(uint8(0))) */\n      dup1\n      mload\n      swap1\n      0x20\n      add\n      keccak256\n        /* \"ConcejoDeliberante/contracts/ProyectoOrdenanza.sol\":3923:3933  _resultado */\n      dup2\n        /* \"ConcejoDeliberante/contracts/ProyectoOrdenanza.sol\":3906:3934  abi.encodePacked(_resultado) */\n      add(0x20, mload(0x40))\n      tag_127\n      swap2\n      swap1\n      tag_67\n      jump\t// in\n    tag_127:\n      mload(0x40)\n      0x20\n      dup2\n      dup4\n      sub\n      sub\n      dup2\n      mstore\n      swap1\n      0x40\n      mstore\n        /* \"ConcejoDeliberante/contracts/ProyectoOrdenanza.sol\":3896:3935  keccak256(abi.encodePacked(_resultado)) */\n      dup1\n      mload\n      swap1\n      0x20\n      add\n      keccak256\n        /* \"ConcejoDeliberante/contracts/ProyectoOrdenanza.sol\":3896:3976  keccak256(abi.encodePacked(_resultado)) == keccak256(abi.encodePacked(uint8(0))) */\n      eq\n        /* \"ConcejoDeliberante/contracts/ProyectoOrdenanza.sol\":3896:4076  keccak256(abi.encodePacked(_resultado)) == keccak256(abi.encodePacked(uint8(0))) ||... */\n      dup1\n      tag_128\n      jumpi\n      pop\n        /* \"ConcejoDeliberante/contracts/ProyectoOrdenanza.sol\":4072:4073  1 */\n      0x01\n        /* \"ConcejoDeliberante/contracts/ProyectoOrdenanza.sol\":4049:4075  abi.encodePacked(uint8(1)) */\n      add(0x20, mload(0x40))\n      tag_129\n      swap2\n      swap1\n      tag_67\n      jump\t// in\n    tag_129:\n      mload(0x40)\n      0x20\n      dup2\n      dup4\n      sub\n      sub\n      dup2\n      mstore\n      swap1\n      0x40\n      mstore\n        /* \"ConcejoDeliberante/contracts/ProyectoOrdenanza.sol\":4039:4076  keccak256(abi.encodePacked(uint8(1))) */\n      dup1\n      mload\n      swap1\n      0x20\n      add\n      keccak256\n        /* \"ConcejoDeliberante/contracts/ProyectoOrdenanza.sol\":4023:4033  _resultado */\n      dup2\n        /* \"ConcejoDeliberante/contracts/ProyectoOrdenanza.sol\":4006:4034  abi.encodePacked(_resultado) */\n      add(0x20, mload(0x40))\n      tag_130\n      swap2\n      swap1\n      tag_67\n      jump\t// in\n    tag_130:\n      mload(0x40)\n      0x20\n      dup2\n      dup4\n      sub\n      sub\n      dup2\n      mstore\n      swap1\n      0x40\n      mstore\n        /* \"ConcejoDeliberante/contracts/ProyectoOrdenanza.sol\":3996:4035  keccak256(abi.encodePacked(_resultado)) */\n      dup1\n      mload\n      swap1\n      0x20\n      add\n      keccak256\n        /* \"ConcejoDeliberante/contracts/ProyectoOrdenanza.sol\":3996:4076  keccak256(abi.encodePacked(_resultado)) == keccak256(abi.encodePacked(uint8(1))) */\n      eq\n        /* \"ConcejoDeliberante/contracts/ProyectoOrdenanza.sol\":3896:4076  keccak256(abi.encodePacked(_resultado)) == keccak256(abi.encodePacked(uint8(0))) ||... */\n    tag_128:\n        /* \"ConcejoDeliberante/contracts/ProyectoOrdenanza.sol\":3896:4176  keccak256(abi.encodePacked(_resultado)) == keccak256(abi.encodePacked(uint8(0))) ||... */\n      dup1\n      tag_131\n      jumpi\n      pop\n        /* \"ConcejoDeliberante/contracts/ProyectoOrdenanza.sol\":4172:4173  2 */\n      0x02\n        /* \"ConcejoDeliberante/contracts/ProyectoOrdenanza.sol\":4149:4175  abi.encodePacked(uint8(2)) */\n      add(0x20, mload(0x40))\n      tag_132\n      swap2\n      swap1\n      tag_67\n      jump\t// in\n    tag_132:\n      mload(0x40)\n      0x20\n      dup2\n      dup4\n      sub\n      sub\n      dup2\n      mstore\n      swap1\n      0x40\n      mstore\n        /* \"ConcejoDeliberante/contracts/ProyectoOrdenanza.sol\":4139:4176  keccak256(abi.encodePacked(uint8(2))) */\n      dup1\n      mload\n      swap1\n      0x20\n      add\n      keccak256\n        /* \"ConcejoDeliberante/contracts/ProyectoOrdenanza.sol\":4123:4133  _resultado */\n      dup2\n        /* \"ConcejoDeliberante/contracts/ProyectoOrdenanza.sol\":4106:4134  abi.encodePacked(_resultado) */\n      add(0x20, mload(0x40))\n      tag_133\n      swap2\n      swap1\n      tag_67\n      jump\t// in\n    tag_133:\n      mload(0x40)\n      0x20\n      dup2\n      dup4\n      sub\n      sub\n      dup2\n      mstore\n      swap1\n      0x40\n      mstore\n        /* \"ConcejoDeliberante/contracts/ProyectoOrdenanza.sol\":4096:4135  keccak256(abi.encodePacked(_resultado)) */\n      dup1\n      mload\n      swap1\n      0x20\n      add\n      keccak256\n        /* \"ConcejoDeliberante/contracts/ProyectoOrdenanza.sol\":4096:4176  keccak256(abi.encodePacked(_resultado)) == keccak256(abi.encodePacked(uint8(2))) */\n      eq\n        /* \"ConcejoDeliberante/contracts/ProyectoOrdenanza.sol\":3896:4176  keccak256(abi.encodePacked(_resultado)) == keccak256(abi.encodePacked(uint8(0))) ||... */\n    tag_131:\n        /* \"ConcejoDeliberante/contracts/ProyectoOrdenanza.sol\":3888:4284  require(keccak256(abi.encodePacked(_resultado)) == keccak256(abi.encodePacked(uint8(0))) ||... */\n      tag_134\n      jumpi\n      mload(0x40)\n      0x08c379a000000000000000000000000000000000000000000000000000000000\n      dup2\n      mstore\n      0x04\n      add\n      tag_135\n      swap1\n      tag_77\n      jump\t// in\n    tag_135:\n      mload(0x40)\n      dup1\n      swap2\n      sub\n      swap1\n      revert\n    tag_134:\n        /* \"ConcejoDeliberante/contracts/ProyectoOrdenanza.sol\":4294:4329  _eliminarActuacion(_id, _resultado) */\n      tag_136\n        /* \"ConcejoDeliberante/contracts/ProyectoOrdenanza.sol\":4313:4316  _id */\n      dup3\n        /* \"ConcejoDeliberante/contracts/ProyectoOrdenanza.sol\":4318:4328  _resultado */\n      dup3\n        /* \"ConcejoDeliberante/contracts/ProyectoOrdenanza.sol\":4294:4312  _eliminarActuacion */\n      tag_59\n        /* \"ConcejoDeliberante/contracts/ProyectoOrdenanza.sol\":4294:4329  _eliminarActuacion(_id, _resultado) */\n      jump\t// in\n    tag_136:\n        /* \"ConcejoDeliberante/contracts/ProyectoOrdenanza.sol\":3822:4336  function eliminar(uint256 _id, uint8 _resultado) public {... */\n      pop\n      pop\n      jump\t// out\n        /* \"ConcejoDeliberante/contracts/ActuacionBase.sol\":3834:4361  function _eliminarActuacion (uint256 _id, uint8 _estadoNuevo) public {... */\n    tag_59:\n        /* \"ConcejoDeliberante/contracts/ActuacionBase.sol\":3921:3932  actuaciones */\n      0x01\n        /* \"ConcejoDeliberante/contracts/ActuacionBase.sol\":3921:3937  actuaciones[_id] */\n      0x00\n        /* \"ConcejoDeliberante/contracts/ActuacionBase.sol\":3933:3936  _id */\n      dup4\n        /* \"ConcejoDeliberante/contracts/ActuacionBase.sol\":3921:3937  actuaciones[_id] */\n      dup2\n      mstore\n      0x20\n      add\n      swap1\n      dup2\n      mstore\n      0x20\n      add\n      0x00\n      keccak256\n        /* \"ConcejoDeliberante/contracts/ActuacionBase.sol\":3921:3944  actuaciones[_id].existe */\n      0x02\n      add\n      0x00\n      swap1\n      sload\n      swap1\n      0x0100\n      exp\n      swap1\n      div\n      0xff\n      and\n        /* \"ConcejoDeliberante/contracts/ActuacionBase.sol\":3913:3971  require(actuaciones[_id].existe, \"La actuacion no existe\") */\n      tag_138\n      jumpi\n      mload(0x40)\n      0x08c379a000000000000000000000000000000000000000000000000000000000\n      dup2\n      mstore\n      0x04\n      add\n      tag_139\n      swap1\n      tag_86\n      jump\t// in\n    tag_139:\n      mload(0x40)\n      dup1\n      swap2\n      sub\n      swap1\n      revert\n    tag_138:\n        /* \"ConcejoDeliberante/contracts/ActuacionBase.sol\":4003:4014  propietario */\n      0x00\n      0x00\n      swap1\n      sload\n      swap1\n      0x0100\n      exp\n      swap1\n      div\n      0xffffffffffffffffffffffffffffffffffffffff\n      and\n        /* \"ConcejoDeliberante/contracts/ActuacionBase.sol\":3989:4014  msg.sender == propietario */\n      0xffffffffffffffffffffffffffffffffffffffff\n      and\n        /* \"ConcejoDeliberante/contracts/ActuacionBase.sol\":3989:3999  msg.sender */\n      caller\n        /* \"ConcejoDeliberante/contracts/ActuacionBase.sol\":3989:4014  msg.sender == propietario */\n      0xffffffffffffffffffffffffffffffffffffffff\n      and\n      eq\n        /* \"ConcejoDeliberante/contracts/ActuacionBase.sol\":3981:4039  require(msg.sender == propietario, \"No es el propietario\") */\n      tag_140\n      jumpi\n      mload(0x40)\n      0x08c379a000000000000000000000000000000000000000000000000000000000\n      dup2\n      mstore\n      0x04\n      add\n      tag_141\n      swap1\n      tag_142\n      jump\t// in\n    tag_141:\n      mload(0x40)\n      dup1\n      swap2\n      sub\n      swap1\n      revert\n    tag_140:\n        /* \"ConcejoDeliberante/contracts/ActuacionBase.sol\":4049:4060  actuaciones */\n      0x01\n        /* \"ConcejoDeliberante/contracts/ActuacionBase.sol\":4049:4065  actuaciones[_id] */\n      0x00\n        /* \"ConcejoDeliberante/contracts/ActuacionBase.sol\":4061:4064  _id */\n      dup4\n        /* \"ConcejoDeliberante/contracts/ActuacionBase.sol\":4049:4065  actuaciones[_id] */\n      dup2\n      mstore\n      0x20\n      add\n      swap1\n      dup2\n      mstore\n      0x20\n      add\n      0x00\n      keccak256\n        /* \"ConcejoDeliberante/contracts/ActuacionBase.sol\":4049:4075  actuaciones[_id].historial */\n      0x03\n      add\n        /* \"ConcejoDeliberante/contracts/ActuacionBase.sol\":4081:4300  Cambio({... */\n      mload(0x40)\n      dup1\n      0x80\n      add\n      0x40\n      mstore\n      dup1\n        /* \"ConcejoDeliberante/contracts/ActuacionBase.sol\":4117:4132  block.timestamp */\n      timestamp\n        /* \"ConcejoDeliberante/contracts/ActuacionBase.sol\":4081:4300  Cambio({... */\n      dup2\n      mstore\n      0x20\n      add\n        /* \"ConcejoDeliberante/contracts/ActuacionBase.sol\":4277:4289  _estadoNuevo */\n      dup4\n        /* \"ConcejoDeliberante/contracts/ActuacionBase.sol\":4081:4300  Cambio({... */\n      0xff\n      and\n      dup2\n      mstore\n      0x20\n      add\n        /* \"ConcejoDeliberante/contracts/ActuacionBase.sol\":4199:4200  0 */\n      0x00\n        /* \"ConcejoDeliberante/contracts/ActuacionBase.sol\":4191:4201  bytes32(0) */\n      0x00\n      shl\n        /* \"ConcejoDeliberante/contracts/ActuacionBase.sol\":4081:4300  Cambio({... */\n      dup2\n      mstore\n      0x20\n      add\n        /* \"ConcejoDeliberante/contracts/ActuacionBase.sol\":4161:4171  msg.sender */\n      caller\n        /* \"ConcejoDeliberante/contracts/ActuacionBase.sol\":4081:4300  Cambio({... */\n      0xffffffffffffffffffffffffffffffffffffffff\n      and\n      dup2\n      mstore\n      pop\n        /* \"ConcejoDeliberante/contracts/ActuacionBase.sol\":4049:4301  actuaciones[_id].historial.push(Cambio({... */\n      swap1\n      dup1\n      0x01\n      dup2\n      sload\n      add\n      dup1\n      dup3\n      sstore\n      dup1\n      swap2\n      pop\n      pop\n      0x01\n      swap1\n      sub\n      swap1\n      0x00\n      mstore\n      keccak256(0x00, 0x20)\n      swap1\n      0x04\n      mul\n      add\n      0x00\n      swap1\n      swap2\n      swap1\n      swap2\n      swap1\n      swap2\n      pop\n      0x00\n      dup3\n      add\n      mload\n      dup2\n      0x00\n      add\n      sstore\n      0x20\n      dup3\n      add\n      mload\n      dup2\n      0x01\n      add\n      exp(0x0100, 0x00)\n      dup2\n      sload\n      dup2\n      0xff\n      mul\n      not\n      and\n      swap1\n      dup4\n      0xff\n      and\n      mul\n      or\n      swap1\n      sstore\n      pop\n      0x40\n      dup3\n      add\n      mload\n      dup2\n      0x02\n      add\n      sstore\n      0x60\n      dup3\n      add\n      mload\n      dup2\n      0x03\n      add\n      exp(0x0100, 0x00)\n      dup2\n      sload\n      dup2\n      0xffffffffffffffffffffffffffffffffffffffff\n      mul\n      not\n      and\n      swap1\n      dup4\n      0xffffffffffffffffffffffffffffffffffffffff\n      and\n      mul\n      or\n      swap1\n      sstore\n      pop\n      pop\n      pop\n        /* \"ConcejoDeliberante/contracts/ActuacionBase.sol\":4317:4354  ActuacionEliminada(_id, _estadoNuevo) */\n      0x55f3b2b2bc9c07499976075b3a9a78344b888c51b194889c9214c6eba4bf0113\n        /* \"ConcejoDeliberante/contracts/ActuacionBase.sol\":4336:4339  _id */\n      dup3\n        /* \"ConcejoDeliberante/contracts/ActuacionBase.sol\":4341:4353  _estadoNuevo */\n      dup3\n        /* \"ConcejoDeliberante/contracts/ActuacionBase.sol\":4317:4354  ActuacionEliminada(_id, _estadoNuevo) */\n      mload(0x40)\n      tag_144\n      swap3\n      swap2\n      swap1\n      tag_145\n      jump\t// in\n    tag_144:\n      mload(0x40)\n      dup1\n      swap2\n      sub\n      swap1\n      log1\n        /* \"ConcejoDeliberante/contracts/ActuacionBase.sol\":3834:4361  function _eliminarActuacion (uint256 _id, uint8 _estadoNuevo) public {... */\n      pop\n      pop\n      jump\t// out\n        /* \"ConcejoDeliberante/contracts/ActuacionBase.sol\":3054:3632  function _modificarActuacion(uint256 _id, uint8 _estadoNuevo, bytes32 _hashNuevo)... */\n    tag_63:\n        /* \"ConcejoDeliberante/contracts/ActuacionBase.sol\":3168:3180  bool success */\n      0x00\n        /* \"ConcejoDeliberante/contracts/ActuacionBase.sol\":3204:3215  actuaciones */\n      0x01\n        /* \"ConcejoDeliberante/contracts/ActuacionBase.sol\":3204:3220  actuaciones[_id] */\n      0x00\n        /* \"ConcejoDeliberante/contracts/ActuacionBase.sol\":3216:3219  _id */\n      dup6\n        /* \"ConcejoDeliberante/contracts/ActuacionBase.sol\":3204:3220  actuaciones[_id] */\n      dup2\n      mstore\n      0x20\n      add\n      swap1\n      dup2\n      mstore\n      0x20\n      add\n      0x00\n      keccak256\n        /* \"ConcejoDeliberante/contracts/ActuacionBase.sol\":3204:3227  actuaciones[_id].existe */\n      0x02\n      add\n      0x00\n      swap1\n      sload\n      swap1\n      0x0100\n      exp\n      swap1\n      div\n      0xff\n      and\n        /* \"ConcejoDeliberante/contracts/ActuacionBase.sol\":3196:3254  require(actuaciones[_id].existe, \"La actuacion no existe\") */\n      tag_147\n      jumpi\n      mload(0x40)\n      0x08c379a000000000000000000000000000000000000000000000000000000000\n      dup2\n      mstore\n      0x04\n      add\n      tag_148\n      swap1\n      tag_86\n      jump\t// in\n    tag_148:\n      mload(0x40)\n      dup1\n      swap2\n      sub\n      swap1\n      revert\n    tag_147:\n        /* \"ConcejoDeliberante/contracts/ActuacionBase.sol\":3286:3297  propietario */\n      0x00\n      0x00\n      swap1\n      sload\n      swap1\n      0x0100\n      exp\n      swap1\n      div\n      0xffffffffffffffffffffffffffffffffffffffff\n      and\n        /* \"ConcejoDeliberante/contracts/ActuacionBase.sol\":3272:3297  msg.sender == propietario */\n      0xffffffffffffffffffffffffffffffffffffffff\n      and\n        /* \"ConcejoDeliberante/contracts/ActuacionBase.sol\":3272:3282  msg.sender */\n      caller\n        /* \"ConcejoDeliberante/contracts/ActuacionBase.sol\":3272:3297  msg.sender == propietario */\n      0xffffffffffffffffffffffffffffffffffffffff\n      and\n      eq\n        /* \"ConcejoDeliberante/contracts/ActuacionBase.sol\":3264:3322  require(msg.sender == propietario, \"No es el propietario\") */\n      tag_149\n      jumpi\n      mload(0x40)\n      0x08c379a000000000000000000000000000000000000000000000000000000000\n      dup2\n      mstore\n      0x04\n      add\n      tag_150\n      swap1\n      tag_142\n      jump\t// in\n    tag_150:\n      mload(0x40)\n      dup1\n      swap2\n      sub\n      swap1\n      revert\n    tag_149:\n        /* \"ConcejoDeliberante/contracts/ActuacionBase.sol\":3333:3344  actuaciones */\n      0x01\n        /* \"ConcejoDeliberante/contracts/ActuacionBase.sol\":3333:3349  actuaciones[_id] */\n      0x00\n        /* \"ConcejoDeliberante/contracts/ActuacionBase.sol\":3345:3348  _id */\n      dup6\n        /* \"ConcejoDeliberante/contracts/ActuacionBase.sol\":3333:3349  actuaciones[_id] */\n      dup2\n      mstore\n      0x20\n      add\n      swap1\n      dup2\n      mstore\n      0x20\n      add\n      0x00\n      keccak256\n        /* \"ConcejoDeliberante/contracts/ActuacionBase.sol\":3333:3359  actuaciones[_id].historial */\n      0x03\n      add\n        /* \"ConcejoDeliberante/contracts/ActuacionBase.sol\":3365:3537  Cambio({... */\n      mload(0x40)\n      dup1\n      0x80\n      add\n      0x40\n      mstore\n      dup1\n        /* \"ConcejoDeliberante/contracts/ActuacionBase.sol\":3401:3416  block.timestamp */\n      timestamp\n        /* \"ConcejoDeliberante/contracts/ActuacionBase.sol\":3365:3537  Cambio({... */\n      dup2\n      mstore\n      0x20\n      add\n        /* \"ConcejoDeliberante/contracts/ActuacionBase.sol\":3514:3526  _estadoNuevo */\n      dup6\n        /* \"ConcejoDeliberante/contracts/ActuacionBase.sol\":3365:3537  Cambio({... */\n      0xff\n      and\n      dup2\n      mstore\n      0x20\n      add\n        /* \"ConcejoDeliberante/contracts/ActuacionBase.sol\":3475:3485  _hashNuevo */\n      dup5\n        /* \"ConcejoDeliberante/contracts/ActuacionBase.sol\":3365:3537  Cambio({... */\n      dup2\n      mstore\n      0x20\n      add\n        /* \"ConcejoDeliberante/contracts/ActuacionBase.sol\":3445:3455  msg.sender */\n      caller\n        /* \"ConcejoDeliberante/contracts/ActuacionBase.sol\":3365:3537  Cambio({... */\n      0xffffffffffffffffffffffffffffffffffffffff\n      and\n      dup2\n      mstore\n      pop\n        /* \"ConcejoDeliberante/contracts/ActuacionBase.sol\":3333:3538  actuaciones[_id].historial.push(Cambio({... */\n      swap1\n      dup1\n      0x01\n      dup2\n      sload\n      add\n      dup1\n      dup3\n      sstore\n      dup1\n      swap2\n      pop\n      pop\n      0x01\n      swap1\n      sub\n      swap1\n      0x00\n      mstore\n      keccak256(0x00, 0x20)\n      swap1\n      0x04\n      mul\n      add\n      0x00\n      swap1\n      swap2\n      swap1\n      swap2\n      swap1\n      swap2\n      pop\n      0x00\n      dup3\n      add\n      mload\n      dup2\n      0x00\n      add\n      sstore\n      0x20\n      dup3\n      add\n      mload\n      dup2\n      0x01\n      add\n      exp(0x0100, 0x00)\n      dup2\n      sload\n      dup2\n      0xff\n      mul\n      not\n      and\n      swap1\n      dup4\n      0xff\n      and\n      mul\n      or\n      swap1\n      sstore\n      pop\n      0x40\n      dup3\n      add\n      mload\n      dup2\n      0x02\n      add\n      sstore\n      0x60\n      dup3\n      add\n      mload\n      dup2\n      0x03\n      add\n      exp(0x0100, 0x00)\n      dup2\n      sload\n      dup2\n      0xffffffffffffffffffffffffffffffffffffffff\n      mul\n      not\n      and\n      swap1\n      dup4\n      0xffffffffffffffffffffffffffffffffffffffff\n      and\n      mul\n      or\n      swap1\n      sstore\n      pop\n      pop\n      pop\n        /* \"ConcejoDeliberante/contracts/ActuacionBase.sol\":3554:3604  ActuacionModificada(_id, _estadoNuevo, _hashNuevo) */\n      0x02fd7cca134bdc372692f9e8679a7046060ca6da0c386e7494b18b9c21b10652\n        /* \"ConcejoDeliberante/contracts/ActuacionBase.sol\":3574:3577  _id */\n      dup5\n        /* \"ConcejoDeliberante/contracts/ActuacionBase.sol\":3579:3591  _estadoNuevo */\n      dup5\n        /* \"ConcejoDeliberante/contracts/ActuacionBase.sol\":3593:3603  _hashNuevo */\n      dup5\n        /* \"ConcejoDeliberante/contracts/ActuacionBase.sol\":3554:3604  ActuacionModificada(_id, _estadoNuevo, _hashNuevo) */\n      mload(0x40)\n      tag_152\n      swap4\n      swap3\n      swap2\n      swap1\n      tag_80\n      jump\t// in\n    tag_152:\n      mload(0x40)\n      dup1\n      swap2\n      sub\n      swap1\n      log1\n        /* \"ConcejoDeliberante/contracts/ActuacionBase.sol\":3621:3625  true */\n      0x01\n        /* \"ConcejoDeliberante/contracts/ActuacionBase.sol\":3614:3625  return true */\n      swap1\n      pop\n        /* \"ConcejoDeliberante/contracts/ActuacionBase.sol\":3054:3632  function _modificarActuacion(uint256 _id, uint8 _estadoNuevo, bytes32 _hashNuevo)... */\n      swap4\n      swap3\n      pop\n      pop\n      pop\n      jump\t// out\n    tag_82:\n      mload(0x40)\n      dup1\n      0x80\n      add\n      0x40\n      mstore\n      dup1\n      0x00\n      dup2\n      mstore\n      0x20\n      add\n      0x00\n      dup2\n      mstore\n      0x20\n      add\n      iszero(iszero(0x00))\n      dup2\n      mstore\n      0x20\n      add\n      0x60\n      dup2\n      mstore\n      pop\n      swap1\n      jump\t// out\n        /* \"#utility.yul\":7:133   */\n    tag_153:\n        /* \"#utility.yul\":44:51   */\n      0x00\n        /* \"#utility.yul\":84:126   */\n      0xffffffffffffffffffffffffffffffffffffffff\n        /* \"#utility.yul\":77:82   */\n      dup3\n        /* \"#utility.yul\":73:127   */\n      and\n        /* \"#utility.yul\":62:127   */\n      swap1\n      pop\n        /* \"#utility.yul\":7:133   */\n      swap2\n      swap1\n      pop\n      jump\t// out\n        /* \"#utility.yul\":139:235   */\n    tag_154:\n        /* \"#utility.yul\":176:183   */\n      0x00\n        /* \"#utility.yul\":205:229   */\n      tag_204\n        /* \"#utility.yul\":223:228   */\n      dup3\n        /* \"#utility.yul\":205:229   */\n      tag_153\n      jump\t// in\n    tag_204:\n        /* \"#utility.yul\":194:229   */\n      swap1\n      pop\n        /* \"#utility.yul\":139:235   */\n      swap2\n      swap1\n      pop\n      jump\t// out\n        /* \"#utility.yul\":241:359   */\n    tag_155:\n        /* \"#utility.yul\":328:352   */\n      tag_206\n        /* \"#utility.yul\":346:351   */\n      dup2\n        /* \"#utility.yul\":328:352   */\n      tag_154\n      jump\t// in\n    tag_206:\n        /* \"#utility.yul\":323:326   */\n      dup3\n        /* \"#utility.yul\":316:353   */\n      mstore\n        /* \"#utility.yul\":241:359   */\n      pop\n      pop\n      jump\t// out\n        /* \"#utility.yul\":365:587   */\n    tag_17:\n        /* \"#utility.yul\":458:462   */\n      0x00\n        /* \"#utility.yul\":496:498   */\n      0x20\n        /* \"#utility.yul\":485:494   */\n      dup3\n        /* \"#utility.yul\":481:499   */\n      add\n        /* \"#utility.yul\":473:499   */\n      swap1\n      pop\n        /* \"#utility.yul\":509:580   */\n      tag_208\n        /* \"#utility.yul\":577:578   */\n      0x00\n        /* \"#utility.yul\":566:575   */\n      dup4\n        /* \"#utility.yul\":562:579   */\n      add\n        /* \"#utility.yul\":553:559   */\n      dup5\n        /* \"#utility.yul\":509:580   */\n      tag_155\n      jump\t// in\n    tag_208:\n        /* \"#utility.yul\":365:587   */\n      swap3\n      swap2\n      pop\n      pop\n      jump\t// out\n        /* \"#utility.yul\":674:791   */\n    tag_157:\n        /* \"#utility.yul\":783:784   */\n      0x00\n        /* \"#utility.yul\":780:781   */\n      0x00\n        /* \"#utility.yul\":773:785   */\n      revert\n        /* \"#utility.yul\":920:997   */\n    tag_159:\n        /* \"#utility.yul\":957:964   */\n      0x00\n        /* \"#utility.yul\":986:991   */\n      dup2\n        /* \"#utility.yul\":975:991   */\n      swap1\n      pop\n        /* \"#utility.yul\":920:997   */\n      swap2\n      swap1\n      pop\n      jump\t// out\n        /* \"#utility.yul\":1003:1125   */\n    tag_160:\n        /* \"#utility.yul\":1076:1100   */\n      tag_214\n        /* \"#utility.yul\":1094:1099   */\n      dup2\n        /* \"#utility.yul\":1076:1100   */\n      tag_159\n      jump\t// in\n    tag_214:\n        /* \"#utility.yul\":1069:1074   */\n      dup2\n        /* \"#utility.yul\":1066:1101   */\n      eq\n        /* \"#utility.yul\":1056:1119   */\n      tag_215\n      jumpi\n        /* \"#utility.yul\":1115:1116   */\n      0x00\n        /* \"#utility.yul\":1112:1113   */\n      0x00\n        /* \"#utility.yul\":1105:1117   */\n      revert\n        /* \"#utility.yul\":1056:1119   */\n    tag_215:\n        /* \"#utility.yul\":1003:1125   */\n      pop\n      jump\t// out\n        /* \"#utility.yul\":1131:1270   */\n    tag_161:\n        /* \"#utility.yul\":1177:1182   */\n      0x00\n        /* \"#utility.yul\":1215:1221   */\n      dup2\n        /* \"#utility.yul\":1202:1222   */\n      calldataload\n        /* \"#utility.yul\":1193:1222   */\n      swap1\n      pop\n        /* \"#utility.yul\":1231:1264   */\n      tag_217\n        /* \"#utility.yul\":1258:1263   */\n      dup2\n        /* \"#utility.yul\":1231:1264   */\n      tag_160\n      jump\t// in\n    tag_217:\n        /* \"#utility.yul\":1131:1270   */\n      swap3\n      swap2\n      pop\n      pop\n      jump\t// out\n        /* \"#utility.yul\":1276:1362   */\n    tag_162:\n        /* \"#utility.yul\":1311:1318   */\n      0x00\n        /* \"#utility.yul\":1351:1355   */\n      0xff\n        /* \"#utility.yul\":1344:1349   */\n      dup3\n        /* \"#utility.yul\":1340:1356   */\n      and\n        /* \"#utility.yul\":1329:1356   */\n      swap1\n      pop\n        /* \"#utility.yul\":1276:1362   */\n      swap2\n      swap1\n      pop\n      jump\t// out\n        /* \"#utility.yul\":1368:1486   */\n    tag_163:\n        /* \"#utility.yul\":1439:1461   */\n      tag_220\n        /* \"#utility.yul\":1455:1460   */\n      dup2\n        /* \"#utility.yul\":1439:1461   */\n      tag_162\n      jump\t// in\n    tag_220:\n        /* \"#utility.yul\":1432:1437   */\n      dup2\n        /* \"#utility.yul\":1429:1462   */\n      eq\n        /* \"#utility.yul\":1419:1480   */\n      tag_221\n      jumpi\n        /* \"#utility.yul\":1476:1477   */\n      0x00\n        /* \"#utility.yul\":1473:1474   */\n      0x00\n        /* \"#utility.yul\":1466:1478   */\n      revert\n        /* \"#utility.yul\":1419:1480   */\n    tag_221:\n        /* \"#utility.yul\":1368:1486   */\n      pop\n      jump\t// out\n        /* \"#utility.yul\":1492:1627   */\n    tag_164:\n        /* \"#utility.yul\":1536:1541   */\n      0x00\n        /* \"#utility.yul\":1574:1580   */\n      dup2\n        /* \"#utility.yul\":1561:1581   */\n      calldataload\n        /* \"#utility.yul\":1552:1581   */\n      swap1\n      pop\n        /* \"#utility.yul\":1590:1621   */\n      tag_223\n        /* \"#utility.yul\":1615:1620   */\n      dup2\n        /* \"#utility.yul\":1590:1621   */\n      tag_163\n      jump\t// in\n    tag_223:\n        /* \"#utility.yul\":1492:1627   */\n      swap3\n      swap2\n      pop\n      pop\n      jump\t// out\n        /* \"#utility.yul\":1633:1710   */\n    tag_165:\n        /* \"#utility.yul\":1670:1677   */\n      0x00\n        /* \"#utility.yul\":1699:1704   */\n      dup2\n        /* \"#utility.yul\":1688:1704   */\n      swap1\n      pop\n        /* \"#utility.yul\":1633:1710   */\n      swap2\n      swap1\n      pop\n      jump\t// out\n        /* \"#utility.yul\":1716:1838   */\n    tag_166:\n        /* \"#utility.yul\":1789:1813   */\n      tag_226\n        /* \"#utility.yul\":1807:1812   */\n      dup2\n        /* \"#utility.yul\":1789:1813   */\n      tag_165\n      jump\t// in\n    tag_226:\n        /* \"#utility.yul\":1782:1787   */\n      dup2\n        /* \"#utility.yul\":1779:1814   */\n      eq\n        /* \"#utility.yul\":1769:1832   */\n      tag_227\n      jumpi\n        /* \"#utility.yul\":1828:1829   */\n      0x00\n        /* \"#utility.yul\":1825:1826   */\n      0x00\n        /* \"#utility.yul\":1818:1830   */\n      revert\n        /* \"#utility.yul\":1769:1832   */\n    tag_227:\n        /* \"#utility.yul\":1716:1838   */\n      pop\n      jump\t// out\n        /* \"#utility.yul\":1844:1983   */\n    tag_167:\n        /* \"#utility.yul\":1890:1895   */\n      0x00\n        /* \"#utility.yul\":1928:1934   */\n      dup2\n        /* \"#utility.yul\":1915:1935   */\n      calldataload\n        /* \"#utility.yul\":1906:1935   */\n      swap1\n      pop\n        /* \"#utility.yul\":1944:1977   */\n      tag_229\n        /* \"#utility.yul\":1971:1976   */\n      dup2\n        /* \"#utility.yul\":1944:1977   */\n      tag_166\n      jump\t// in\n    tag_229:\n        /* \"#utility.yul\":1844:1983   */\n      swap3\n      swap2\n      pop\n      pop\n      jump\t// out\n        /* \"#utility.yul\":1989:2604   */\n    tag_21:\n        /* \"#utility.yul\":2064:2070   */\n      0x00\n        /* \"#utility.yul\":2072:2078   */\n      0x00\n        /* \"#utility.yul\":2080:2086   */\n      0x00\n        /* \"#utility.yul\":2129:2131   */\n      0x60\n        /* \"#utility.yul\":2117:2126   */\n      dup5\n        /* \"#utility.yul\":2108:2115   */\n      dup7\n        /* \"#utility.yul\":2104:2127   */\n      sub\n        /* \"#utility.yul\":2100:2132   */\n      slt\n        /* \"#utility.yul\":2097:2216   */\n      iszero\n      tag_231\n      jumpi\n        /* \"#utility.yul\":2135:2214   */\n      tag_232\n      tag_157\n      jump\t// in\n    tag_232:\n        /* \"#utility.yul\":2097:2216   */\n    tag_231:\n        /* \"#utility.yul\":2255:2256   */\n      0x00\n        /* \"#utility.yul\":2280:2333   */\n      tag_233\n        /* \"#utility.yul\":2325:2332   */\n      dup7\n        /* \"#utility.yul\":2316:2322   */\n      dup3\n        /* \"#utility.yul\":2305:2314   */\n      dup8\n        /* \"#utility.yul\":2301:2323   */\n      add\n        /* \"#utility.yul\":2280:2333   */\n      tag_161\n      jump\t// in\n    tag_233:\n        /* \"#utility.yul\":2270:2333   */\n      swap4\n      pop\n        /* \"#utility.yul\":2226:2343   */\n      pop\n        /* \"#utility.yul\":2382:2384   */\n      0x20\n        /* \"#utility.yul\":2408:2459   */\n      tag_234\n        /* \"#utility.yul\":2451:2458   */\n      dup7\n        /* \"#utility.yul\":2442:2448   */\n      dup3\n        /* \"#utility.yul\":2431:2440   */\n      dup8\n        /* \"#utility.yul\":2427:2449   */\n      add\n        /* \"#utility.yul\":2408:2459   */\n      tag_164\n      jump\t// in\n    tag_234:\n        /* \"#utility.yul\":2398:2459   */\n      swap3\n      pop\n        /* \"#utility.yul\":2353:2469   */\n      pop\n        /* \"#utility.yul\":2508:2510   */\n      0x40\n        /* \"#utility.yul\":2534:2587   */\n      tag_235\n        /* \"#utility.yul\":2579:2586   */\n      dup7\n        /* \"#utility.yul\":2570:2576   */\n      dup3\n        /* \"#utility.yul\":2559:2568   */\n      dup8\n        /* \"#utility.yul\":2555:2577   */\n      add\n        /* \"#utility.yul\":2534:2587   */\n      tag_167\n      jump\t// in\n    tag_235:\n        /* \"#utility.yul\":2524:2587   */\n      swap2\n      pop\n        /* \"#utility.yul\":2479:2597   */\n      pop\n        /* \"#utility.yul\":1989:2604   */\n      swap3\n      pop\n      swap3\n      pop\n      swap3\n      jump\t// out\n        /* \"#utility.yul\":2610:2700   */\n    tag_168:\n        /* \"#utility.yul\":2644:2651   */\n      0x00\n        /* \"#utility.yul\":2687:2692   */\n      dup2\n        /* \"#utility.yul\":2680:2693   */\n      iszero\n        /* \"#utility.yul\":2673:2694   */\n      iszero\n        /* \"#utility.yul\":2662:2694   */\n      swap1\n      pop\n        /* \"#utility.yul\":2610:2700   */\n      swap2\n      swap1\n      pop\n      jump\t// out\n        /* \"#utility.yul\":2706:2815   */\n    tag_169:\n        /* \"#utility.yul\":2787:2808   */\n      tag_238\n        /* \"#utility.yul\":2802:2807   */\n      dup2\n        /* \"#utility.yul\":2787:2808   */\n      tag_168\n      jump\t// in\n    tag_238:\n        /* \"#utility.yul\":2782:2785   */\n      dup3\n        /* \"#utility.yul\":2775:2809   */\n      mstore\n        /* \"#utility.yul\":2706:2815   */\n      pop\n      pop\n      jump\t// out\n        /* \"#utility.yul\":2821:3031   */\n    tag_24:\n        /* \"#utility.yul\":2908:2912   */\n      0x00\n        /* \"#utility.yul\":2946:2948   */\n      0x20\n        /* \"#utility.yul\":2935:2944   */\n      dup3\n        /* \"#utility.yul\":2931:2949   */\n      add\n        /* \"#utility.yul\":2923:2949   */\n      swap1\n      pop\n        /* \"#utility.yul\":2959:3024   */\n      tag_240\n        /* \"#utility.yul\":3021:3022   */\n      0x00\n        /* \"#utility.yul\":3010:3019   */\n      dup4\n        /* \"#utility.yul\":3006:3023   */\n      add\n        /* \"#utility.yul\":2997:3003   */\n      dup5\n        /* \"#utility.yul\":2959:3024   */\n      tag_169\n      jump\t// in\n    tag_240:\n        /* \"#utility.yul\":2821:3031   */\n      swap3\n      swap2\n      pop\n      pop\n      jump\t// out\n        /* \"#utility.yul\":3037:3155   */\n    tag_170:\n        /* \"#utility.yul\":3124:3148   */\n      tag_242\n        /* \"#utility.yul\":3142:3147   */\n      dup2\n        /* \"#utility.yul\":3124:3148   */\n      tag_159\n      jump\t// in\n    tag_242:\n        /* \"#utility.yul\":3119:3122   */\n      dup3\n        /* \"#utility.yul\":3112:3149   */\n      mstore\n        /* \"#utility.yul\":3037:3155   */\n      pop\n      pop\n      jump\t// out\n        /* \"#utility.yul\":3161:3383   */\n    tag_29:\n        /* \"#utility.yul\":3254:3258   */\n      0x00\n        /* \"#utility.yul\":3292:3294   */\n      0x20\n        /* \"#utility.yul\":3281:3290   */\n      dup3\n        /* \"#utility.yul\":3277:3295   */\n      add\n        /* \"#utility.yul\":3269:3295   */\n      swap1\n      pop\n        /* \"#utility.yul\":3305:3376   */\n      tag_244\n        /* \"#utility.yul\":3373:3374   */\n      0x00\n        /* \"#utility.yul\":3362:3371   */\n      dup4\n        /* \"#utility.yul\":3358:3375   */\n      add\n        /* \"#utility.yul\":3349:3355   */\n      dup5\n        /* \"#utility.yul\":3305:3376   */\n      tag_170\n      jump\t// in\n    tag_244:\n        /* \"#utility.yul\":3161:3383   */\n      swap3\n      swap2\n      pop\n      pop\n      jump\t// out\n        /* \"#utility.yul\":3389:3718   */\n    tag_33:\n        /* \"#utility.yul\":3448:3454   */\n      0x00\n        /* \"#utility.yul\":3497:3499   */\n      0x20\n        /* \"#utility.yul\":3485:3494   */\n      dup3\n        /* \"#utility.yul\":3476:3483   */\n      dup5\n        /* \"#utility.yul\":3472:3495   */\n      sub\n        /* \"#utility.yul\":3468:3500   */\n      slt\n        /* \"#utility.yul\":3465:3584   */\n      iszero\n      tag_246\n      jumpi\n        /* \"#utility.yul\":3503:3582   */\n      tag_247\n      tag_157\n      jump\t// in\n    tag_247:\n        /* \"#utility.yul\":3465:3584   */\n    tag_246:\n        /* \"#utility.yul\":3623:3624   */\n      0x00\n        /* \"#utility.yul\":3648:3701   */\n      tag_248\n        /* \"#utility.yul\":3693:3700   */\n      dup5\n        /* \"#utility.yul\":3684:3690   */\n      dup3\n        /* \"#utility.yul\":3673:3682   */\n      dup6\n        /* \"#utility.yul\":3669:3691   */\n      add\n        /* \"#utility.yul\":3648:3701   */\n      tag_161\n      jump\t// in\n    tag_248:\n        /* \"#utility.yul\":3638:3701   */\n      swap2\n      pop\n        /* \"#utility.yul\":3594:3711   */\n      pop\n        /* \"#utility.yul\":3389:3718   */\n      swap3\n      swap2\n      pop\n      pop\n      jump\t// out\n        /* \"#utility.yul\":3724:3832   */\n    tag_171:\n        /* \"#utility.yul\":3801:3825   */\n      tag_250\n        /* \"#utility.yul\":3819:3824   */\n      dup2\n        /* \"#utility.yul\":3801:3825   */\n      tag_159\n      jump\t// in\n    tag_250:\n        /* \"#utility.yul\":3796:3799   */\n      dup3\n        /* \"#utility.yul\":3789:3826   */\n      mstore\n        /* \"#utility.yul\":3724:3832   */\n      pop\n      pop\n      jump\t// out\n        /* \"#utility.yul\":3838:3937   */\n    tag_172:\n        /* \"#utility.yul\":3909:3930   */\n      tag_252\n        /* \"#utility.yul\":3924:3929   */\n      dup2\n        /* \"#utility.yul\":3909:3930   */\n      tag_168\n      jump\t// in\n    tag_252:\n        /* \"#utility.yul\":3904:3907   */\n      dup3\n        /* \"#utility.yul\":3897:3931   */\n      mstore\n        /* \"#utility.yul\":3838:3937   */\n      pop\n      pop\n      jump\t// out\n        /* \"#utility.yul\":3943:4079   */\n    tag_173:\n        /* \"#utility.yul\":4032:4038   */\n      0x00\n        /* \"#utility.yul\":4066:4071   */\n      dup2\n        /* \"#utility.yul\":4060:4072   */\n      mload\n        /* \"#utility.yul\":4050:4072   */\n      swap1\n      pop\n        /* \"#utility.yul\":3943:4079   */\n      swap2\n      swap1\n      pop\n      jump\t// out\n        /* \"#utility.yul\":4085:4281   */\n    tag_174:\n        /* \"#utility.yul\":4196:4207   */\n      0x00\n        /* \"#utility.yul\":4230:4236   */\n      dup3\n        /* \"#utility.yul\":4225:4228   */\n      dup3\n        /* \"#utility.yul\":4218:4237   */\n      mstore\n        /* \"#utility.yul\":4270:4274   */\n      0x20\n        /* \"#utility.yul\":4265:4268   */\n      dup3\n        /* \"#utility.yul\":4261:4275   */\n      add\n        /* \"#utility.yul\":4246:4275   */\n      swap1\n      pop\n        /* \"#utility.yul\":4085:4281   */\n      swap3\n      swap2\n      pop\n      pop\n      jump\t// out\n        /* \"#utility.yul\":4287:4441   */\n    tag_175:\n        /* \"#utility.yul\":4376:4380   */\n      0x00\n        /* \"#utility.yul\":4399:4402   */\n      dup2\n        /* \"#utility.yul\":4391:4402   */\n      swap1\n      pop\n        /* \"#utility.yul\":4429:4433   */\n      0x20\n        /* \"#utility.yul\":4424:4427   */\n      dup3\n        /* \"#utility.yul\":4420:4434   */\n      add\n        /* \"#utility.yul\":4412:4434   */\n      swap1\n      pop\n        /* \"#utility.yul\":4287:4441   */\n      swap2\n      swap1\n      pop\n      jump\t// out\n        /* \"#utility.yul\":4447:4549   */\n    tag_176:\n        /* \"#utility.yul\":4520:4542   */\n      tag_257\n        /* \"#utility.yul\":4536:4541   */\n      dup2\n        /* \"#utility.yul\":4520:4542   */\n      tag_162\n      jump\t// in\n    tag_257:\n        /* \"#utility.yul\":4515:4518   */\n      dup3\n        /* \"#utility.yul\":4508:4543   */\n      mstore\n        /* \"#utility.yul\":4447:4549   */\n      pop\n      pop\n      jump\t// out\n        /* \"#utility.yul\":4555:4663   */\n    tag_177:\n        /* \"#utility.yul\":4632:4656   */\n      tag_259\n        /* \"#utility.yul\":4650:4655   */\n      dup2\n        /* \"#utility.yul\":4632:4656   */\n      tag_165\n      jump\t// in\n    tag_259:\n        /* \"#utility.yul\":4627:4630   */\n      dup3\n        /* \"#utility.yul\":4620:4657   */\n      mstore\n        /* \"#utility.yul\":4555:4663   */\n      pop\n      pop\n      jump\t// out\n        /* \"#utility.yul\":4669:4777   */\n    tag_178:\n        /* \"#utility.yul\":4746:4770   */\n      tag_261\n        /* \"#utility.yul\":4764:4769   */\n      dup2\n        /* \"#utility.yul\":4746:4770   */\n      tag_154\n      jump\t// in\n    tag_261:\n        /* \"#utility.yul\":4741:4744   */\n      dup3\n        /* \"#utility.yul\":4734:4771   */\n      mstore\n        /* \"#utility.yul\":4669:4777   */\n      pop\n      pop\n      jump\t// out\n        /* \"#utility.yul\":4849:5700   */\n    tag_179:\n        /* \"#utility.yul\":4980:4984   */\n      0x80\n        /* \"#utility.yul\":4975:4978   */\n      dup3\n        /* \"#utility.yul\":4971:4985   */\n      add\n        /* \"#utility.yul\":5072:5076   */\n      0x00\n        /* \"#utility.yul\":5065:5070   */\n      dup3\n        /* \"#utility.yul\":5061:5077   */\n      add\n        /* \"#utility.yul\":5055:5078   */\n      mload\n        /* \"#utility.yul\":5091:5154   */\n      tag_263\n        /* \"#utility.yul\":5148:5152   */\n      0x00\n        /* \"#utility.yul\":5143:5146   */\n      dup6\n        /* \"#utility.yul\":5139:5153   */\n      add\n        /* \"#utility.yul\":5125:5137   */\n      dup3\n        /* \"#utility.yul\":5091:5154   */\n      tag_171\n      jump\t// in\n    tag_263:\n        /* \"#utility.yul\":4995:5164   */\n      pop\n        /* \"#utility.yul\":5248:5252   */\n      0x20\n        /* \"#utility.yul\":5241:5246   */\n      dup3\n        /* \"#utility.yul\":5237:5253   */\n      add\n        /* \"#utility.yul\":5231:5254   */\n      mload\n        /* \"#utility.yul\":5267:5326   */\n      tag_264\n        /* \"#utility.yul\":5320:5324   */\n      0x20\n        /* \"#utility.yul\":5315:5318   */\n      dup6\n        /* \"#utility.yul\":5311:5325   */\n      add\n        /* \"#utility.yul\":5297:5309   */\n      dup3\n        /* \"#utility.yul\":5267:5326   */\n      tag_176\n      jump\t// in\n    tag_264:\n        /* \"#utility.yul\":5174:5336   */\n      pop\n        /* \"#utility.yul\":5418:5422   */\n      0x40\n        /* \"#utility.yul\":5411:5416   */\n      dup3\n        /* \"#utility.yul\":5407:5423   */\n      add\n        /* \"#utility.yul\":5401:5424   */\n      mload\n        /* \"#utility.yul\":5437:5500   */\n      tag_265\n        /* \"#utility.yul\":5494:5498   */\n      0x40\n        /* \"#utility.yul\":5489:5492   */\n      dup6\n        /* \"#utility.yul\":5485:5499   */\n      add\n        /* \"#utility.yul\":5471:5483   */\n      dup3\n        /* \"#utility.yul\":5437:5500   */\n      tag_177\n      jump\t// in\n    tag_265:\n        /* \"#utility.yul\":5346:5510   */\n      pop\n        /* \"#utility.yul\":5601:5605   */\n      0x60\n        /* \"#utility.yul\":5594:5599   */\n      dup3\n        /* \"#utility.yul\":5590:5606   */\n      add\n        /* \"#utility.yul\":5584:5607   */\n      mload\n        /* \"#utility.yul\":5620:5683   */\n      tag_266\n        /* \"#utility.yul\":5677:5681   */\n      0x60\n        /* \"#utility.yul\":5672:5675   */\n      dup6\n        /* \"#utility.yul\":5668:5682   */\n      add\n        /* \"#utility.yul\":5654:5666   */\n      dup3\n        /* \"#utility.yul\":5620:5683   */\n      tag_178\n      jump\t// in\n    tag_266:\n        /* \"#utility.yul\":5520:5693   */\n      pop\n        /* \"#utility.yul\":4949:5700   */\n      pop\n        /* \"#utility.yul\":4849:5700   */\n      pop\n      pop\n      jump\t// out\n        /* \"#utility.yul\":5706:5973   */\n    tag_180:\n        /* \"#utility.yul\":5819:5829   */\n      0x00\n        /* \"#utility.yul\":5840:5930   */\n      tag_268\n        /* \"#utility.yul\":5926:5929   */\n      dup4\n        /* \"#utility.yul\":5918:5924   */\n      dup4\n        /* \"#utility.yul\":5840:5930   */\n      tag_179\n      jump\t// in\n    tag_268:\n        /* \"#utility.yul\":5962:5966   */\n      0x80\n        /* \"#utility.yul\":5957:5960   */\n      dup4\n        /* \"#utility.yul\":5953:5967   */\n      add\n        /* \"#utility.yul\":5939:5967   */\n      swap1\n      pop\n        /* \"#utility.yul\":5706:5973   */\n      swap3\n      swap2\n      pop\n      pop\n      jump\t// out\n        /* \"#utility.yul\":5979:6114   */\n    tag_181:\n        /* \"#utility.yul\":6071:6075   */\n      0x00\n        /* \"#utility.yul\":6103:6107   */\n      0x20\n        /* \"#utility.yul\":6098:6101   */\n      dup3\n        /* \"#utility.yul\":6094:6108   */\n      add\n        /* \"#utility.yul\":6086:6108   */\n      swap1\n      pop\n        /* \"#utility.yul\":5979:6114   */\n      swap2\n      swap1\n      pop\n      jump\t// out\n        /* \"#utility.yul\":6190:7078   */\n    tag_182:\n        /* \"#utility.yul\":6343:6346   */\n      0x00\n        /* \"#utility.yul\":6372:6448   */\n      tag_271\n        /* \"#utility.yul\":6442:6447   */\n      dup3\n        /* \"#utility.yul\":6372:6448   */\n      tag_173\n      jump\t// in\n    tag_271:\n        /* \"#utility.yul\":6464:6562   */\n      tag_272\n        /* \"#utility.yul\":6555:6561   */\n      dup2\n        /* \"#utility.yul\":6550:6553   */\n      dup6\n        /* \"#utility.yul\":6464:6562   */\n      tag_174\n      jump\t// in\n    tag_272:\n        /* \"#utility.yul\":6457:6562   */\n      swap4\n      pop\n        /* \"#utility.yul\":6586:6664   */\n      tag_273\n        /* \"#utility.yul\":6658:6663   */\n      dup4\n        /* \"#utility.yul\":6586:6664   */\n      tag_175\n      jump\t// in\n    tag_273:\n        /* \"#utility.yul\":6687:6694   */\n      dup1\n        /* \"#utility.yul\":6718:6719   */\n      0x00\n        /* \"#utility.yul\":6703:7053   */\n    tag_274:\n        /* \"#utility.yul\":6728:6734   */\n      dup4\n        /* \"#utility.yul\":6725:6726   */\n      dup2\n        /* \"#utility.yul\":6722:6735   */\n      lt\n        /* \"#utility.yul\":6703:7053   */\n      iszero\n      tag_276\n      jumpi\n        /* \"#utility.yul\":6804:6810   */\n      dup2\n        /* \"#utility.yul\":6798:6811   */\n      mload\n        /* \"#utility.yul\":6831:6938   */\n      tag_277\n        /* \"#utility.yul\":6934:6937   */\n      dup9\n        /* \"#utility.yul\":6919:6932   */\n      dup3\n        /* \"#utility.yul\":6831:6938   */\n      tag_180\n      jump\t// in\n    tag_277:\n        /* \"#utility.yul\":6824:6938   */\n      swap8\n      pop\n        /* \"#utility.yul\":6961:7043   */\n      tag_278\n        /* \"#utility.yul\":7036:7042   */\n      dup4\n        /* \"#utility.yul\":6961:7043   */\n      tag_181\n      jump\t// in\n    tag_278:\n        /* \"#utility.yul\":6951:7043   */\n      swap3\n      pop\n        /* \"#utility.yul\":6763:7053   */\n      pop\n        /* \"#utility.yul\":6750:6751   */\n      0x01\n        /* \"#utility.yul\":6747:6748   */\n      dup2\n        /* \"#utility.yul\":6743:6752   */\n      add\n        /* \"#utility.yul\":6738:6752   */\n      swap1\n      pop\n        /* \"#utility.yul\":6703:7053   */\n      jump(tag_274)\n    tag_276:\n        /* \"#utility.yul\":6707:6721   */\n      pop\n        /* \"#utility.yul\":7069:7072   */\n      dup6\n        /* \"#utility.yul\":7062:7072   */\n      swap4\n      pop\n        /* \"#utility.yul\":6348:7078   */\n      pop\n      pop\n      pop\n        /* \"#utility.yul\":6190:7078   */\n      swap3\n      swap2\n      pop\n      pop\n      jump\t// out\n        /* \"#utility.yul\":7156:8198   */\n    tag_183:\n        /* \"#utility.yul\":7275:7278   */\n      0x00\n        /* \"#utility.yul\":7311:7315   */\n      0x80\n        /* \"#utility.yul\":7306:7309   */\n      dup4\n        /* \"#utility.yul\":7302:7316   */\n      add\n        /* \"#utility.yul\":7407:7411   */\n      0x00\n        /* \"#utility.yul\":7400:7405   */\n      dup4\n        /* \"#utility.yul\":7396:7412   */\n      add\n        /* \"#utility.yul\":7390:7413   */\n      mload\n        /* \"#utility.yul\":7426:7489   */\n      tag_280\n        /* \"#utility.yul\":7483:7487   */\n      0x00\n        /* \"#utility.yul\":7478:7481   */\n      dup7\n        /* \"#utility.yul\":7474:7488   */\n      add\n        /* \"#utility.yul\":7460:7472   */\n      dup3\n        /* \"#utility.yul\":7426:7489   */\n      tag_171\n      jump\t// in\n    tag_280:\n        /* \"#utility.yul\":7326:7499   */\n      pop\n        /* \"#utility.yul\":7585:7589   */\n      0x20\n        /* \"#utility.yul\":7578:7583   */\n      dup4\n        /* \"#utility.yul\":7574:7590   */\n      add\n        /* \"#utility.yul\":7568:7591   */\n      mload\n        /* \"#utility.yul\":7604:7667   */\n      tag_281\n        /* \"#utility.yul\":7661:7665   */\n      0x20\n        /* \"#utility.yul\":7656:7659   */\n      dup7\n        /* \"#utility.yul\":7652:7666   */\n      add\n        /* \"#utility.yul\":7638:7650   */\n      dup3\n        /* \"#utility.yul\":7604:7667   */\n      tag_171\n      jump\t// in\n    tag_281:\n        /* \"#utility.yul\":7509:7677   */\n      pop\n        /* \"#utility.yul\":7761:7765   */\n      0x40\n        /* \"#utility.yul\":7754:7759   */\n      dup4\n        /* \"#utility.yul\":7750:7766   */\n      add\n        /* \"#utility.yul\":7744:7767   */\n      mload\n        /* \"#utility.yul\":7780:7837   */\n      tag_282\n        /* \"#utility.yul\":7831:7835   */\n      0x40\n        /* \"#utility.yul\":7826:7829   */\n      dup7\n        /* \"#utility.yul\":7822:7836   */\n      add\n        /* \"#utility.yul\":7808:7820   */\n      dup3\n        /* \"#utility.yul\":7780:7837   */\n      tag_172\n      jump\t// in\n    tag_282:\n        /* \"#utility.yul\":7687:7847   */\n      pop\n        /* \"#utility.yul\":7934:7938   */\n      0x60\n        /* \"#utility.yul\":7927:7932   */\n      dup4\n        /* \"#utility.yul\":7923:7939   */\n      add\n        /* \"#utility.yul\":7917:7940   */\n      mload\n        /* \"#utility.yul\":7987:7990   */\n      dup5\n        /* \"#utility.yul\":7981:7985   */\n      dup3\n        /* \"#utility.yul\":7977:7991   */\n      sub\n        /* \"#utility.yul\":7970:7974   */\n      0x60\n        /* \"#utility.yul\":7965:7968   */\n      dup7\n        /* \"#utility.yul\":7961:7975   */\n      add\n        /* \"#utility.yul\":7954:7992   */\n      mstore\n        /* \"#utility.yul\":8013:8160   */\n      tag_283\n        /* \"#utility.yul\":8155:8159   */\n      dup3\n        /* \"#utility.yul\":8141:8153   */\n      dup3\n        /* \"#utility.yul\":8013:8160   */\n      tag_182\n      jump\t// in\n    tag_283:\n        /* \"#utility.yul\":8005:8160   */\n      swap2\n      pop\n        /* \"#utility.yul\":7857:8171   */\n      pop\n        /* \"#utility.yul\":8188:8192   */\n      dup1\n        /* \"#utility.yul\":8181:8192   */\n      swap2\n      pop\n        /* \"#utility.yul\":7280:8198   */\n      pop\n        /* \"#utility.yul\":7156:8198   */\n      swap3\n      swap2\n      pop\n      pop\n      jump\t// out\n        /* \"#utility.yul\":8204:8577   */\n    tag_36:\n        /* \"#utility.yul\":8347:8351   */\n      0x00\n        /* \"#utility.yul\":8385:8387   */\n      0x20\n        /* \"#utility.yul\":8374:8383   */\n      dup3\n        /* \"#utility.yul\":8370:8388   */\n      add\n        /* \"#utility.yul\":8362:8388   */\n      swap1\n      pop\n        /* \"#utility.yul\":8434:8443   */\n      dup2\n        /* \"#utility.yul\":8428:8432   */\n      dup2\n        /* \"#utility.yul\":8424:8444   */\n      sub\n        /* \"#utility.yul\":8420:8421   */\n      0x00\n        /* \"#utility.yul\":8409:8418   */\n      dup4\n        /* \"#utility.yul\":8405:8422   */\n      add\n        /* \"#utility.yul\":8398:8445   */\n      mstore\n        /* \"#utility.yul\":8462:8570   */\n      tag_285\n        /* \"#utility.yul\":8565:8569   */\n      dup2\n        /* \"#utility.yul\":8556:8562   */\n      dup5\n        /* \"#utility.yul\":8462:8570   */\n      tag_183\n      jump\t// in\n    tag_285:\n        /* \"#utility.yul\":8454:8570   */\n      swap1\n      pop\n        /* \"#utility.yul\":8204:8577   */\n      swap3\n      swap2\n      pop\n      pop\n      jump\t// out\n        /* \"#utility.yul\":8583:9490   */\n    tag_39:\n        /* \"#utility.yul\":8676:8682   */\n      0x00\n        /* \"#utility.yul\":8684:8690   */\n      0x00\n        /* \"#utility.yul\":8692:8698   */\n      0x00\n        /* \"#utility.yul\":8700:8706   */\n      0x00\n        /* \"#utility.yul\":8708:8714   */\n      0x00\n        /* \"#utility.yul\":8757:8760   */\n      0xa0\n        /* \"#utility.yul\":8745:8754   */\n      dup7\n        /* \"#utility.yul\":8736:8743   */\n      dup9\n        /* \"#utility.yul\":8732:8755   */\n      sub\n        /* \"#utility.yul\":8728:8761   */\n      slt\n        /* \"#utility.yul\":8725:8845   */\n      iszero\n      tag_287\n      jumpi\n        /* \"#utility.yul\":8764:8843   */\n      tag_288\n      tag_157\n      jump\t// in\n    tag_288:\n        /* \"#utility.yul\":8725:8845   */\n    tag_287:\n        /* \"#utility.yul\":8884:8885   */\n      0x00\n        /* \"#utility.yul\":8909:8962   */\n      tag_289\n        /* \"#utility.yul\":8954:8961   */\n      dup9\n        /* \"#utility.yul\":8945:8951   */\n      dup3\n        /* \"#utility.yul\":8934:8943   */\n      dup10\n        /* \"#utility.yul\":8930:8952   */\n      add\n        /* \"#utility.yul\":8909:8962   */\n      tag_161\n      jump\t// in\n    tag_289:\n        /* \"#utility.yul\":8899:8962   */\n      swap6\n      pop\n        /* \"#utility.yul\":8855:8972   */\n      pop\n        /* \"#utility.yul\":9011:9013   */\n      0x20\n        /* \"#utility.yul\":9037:9090   */\n      tag_290\n        /* \"#utility.yul\":9082:9089   */\n      dup9\n        /* \"#utility.yul\":9073:9079   */\n      dup3\n        /* \"#utility.yul\":9062:9071   */\n      dup10\n        /* \"#utility.yul\":9058:9080   */\n      add\n        /* \"#utility.yul\":9037:9090   */\n      tag_161\n      jump\t// in\n    tag_290:\n        /* \"#utility.yul\":9027:9090   */\n      swap5\n      pop\n        /* \"#utility.yul\":8982:9100   */\n      pop\n        /* \"#utility.yul\":9139:9141   */\n      0x40\n        /* \"#utility.yul\":9165:9216   */\n      tag_291\n        /* \"#utility.yul\":9208:9215   */\n      dup9\n        /* \"#utility.yul\":9199:9205   */\n      dup3\n        /* \"#utility.yul\":9188:9197   */\n      dup10\n        /* \"#utility.yul\":9184:9206   */\n      add\n        /* \"#utility.yul\":9165:9216   */\n      tag_164\n      jump\t// in\n    tag_291:\n        /* \"#utility.yul\":9155:9216   */\n      swap4\n      pop\n        /* \"#utility.yul\":9110:9226   */\n      pop\n        /* \"#utility.yul\":9265:9267   */\n      0x60\n        /* \"#utility.yul\":9291:9344   */\n      tag_292\n        /* \"#utility.yul\":9336:9343   */\n      dup9\n        /* \"#utility.yul\":9327:9333   */\n      dup3\n        /* \"#utility.yul\":9316:9325   */\n      dup10\n        /* \"#utility.yul\":9312:9334   */\n      add\n        /* \"#utility.yul\":9291:9344   */\n      tag_167\n      jump\t// in\n    tag_292:\n        /* \"#utility.yul\":9281:9344   */\n      swap3\n      pop\n        /* \"#utility.yul\":9236:9354   */\n      pop\n        /* \"#utility.yul\":9393:9396   */\n      0x80\n        /* \"#utility.yul\":9420:9473   */\n      tag_293\n        /* \"#utility.yul\":9465:9472   */\n      dup9\n        /* \"#utility.yul\":9456:9462   */\n      dup3\n        /* \"#utility.yul\":9445:9454   */\n      dup10\n        /* \"#utility.yul\":9441:9463   */\n      add\n        /* \"#utility.yul\":9420:9473   */\n      tag_161\n      jump\t// in\n    tag_293:\n        /* \"#utility.yul\":9410:9473   */\n      swap2\n      pop\n        /* \"#utility.yul\":9364:9483   */\n      pop\n        /* \"#utility.yul\":8583:9490   */\n      swap3\n      swap6\n      pop\n      swap3\n      swap6\n      swap1\n      swap4\n      pop\n      jump\t// out\n        /* \"#utility.yul\":9496:9608   */\n    tag_184:\n        /* \"#utility.yul\":9579:9601   */\n      tag_295\n        /* \"#utility.yul\":9595:9600   */\n      dup2\n        /* \"#utility.yul\":9579:9601   */\n      tag_162\n      jump\t// in\n    tag_295:\n        /* \"#utility.yul\":9574:9577   */\n      dup3\n        /* \"#utility.yul\":9567:9602   */\n      mstore\n        /* \"#utility.yul\":9496:9608   */\n      pop\n      pop\n      jump\t// out\n        /* \"#utility.yul\":9614:9732   */\n    tag_185:\n        /* \"#utility.yul\":9701:9725   */\n      tag_297\n        /* \"#utility.yul\":9719:9724   */\n      dup2\n        /* \"#utility.yul\":9701:9725   */\n      tag_165\n      jump\t// in\n    tag_297:\n        /* \"#utility.yul\":9696:9699   */\n      dup3\n        /* \"#utility.yul\":9689:9726   */\n      mstore\n        /* \"#utility.yul\":9614:9732   */\n      pop\n      pop\n      jump\t// out\n        /* \"#utility.yul\":9738:10394   */\n    tag_46:\n        /* \"#utility.yul\":9939:9943   */\n      0x00\n        /* \"#utility.yul\":9977:9980   */\n      0xa0\n        /* \"#utility.yul\":9966:9975   */\n      dup3\n        /* \"#utility.yul\":9962:9981   */\n      add\n        /* \"#utility.yul\":9954:9981   */\n      swap1\n      pop\n        /* \"#utility.yul\":9991:10062   */\n      tag_299\n        /* \"#utility.yul\":10059:10060   */\n      0x00\n        /* \"#utility.yul\":10048:10057   */\n      dup4\n        /* \"#utility.yul\":10044:10061   */\n      add\n        /* \"#utility.yul\":10035:10041   */\n      dup9\n        /* \"#utility.yul\":9991:10062   */\n      tag_170\n      jump\t// in\n    tag_299:\n        /* \"#utility.yul\":10072:10144   */\n      tag_300\n        /* \"#utility.yul\":10140:10142   */\n      0x20\n        /* \"#utility.yul\":10129:10138   */\n      dup4\n        /* \"#utility.yul\":10125:10143   */\n      add\n        /* \"#utility.yul\":10116:10122   */\n      dup8\n        /* \"#utility.yul\":10072:10144   */\n      tag_170\n      jump\t// in\n    tag_300:\n        /* \"#utility.yul\":10154:10222   */\n      tag_301\n        /* \"#utility.yul\":10218:10220   */\n      0x40\n        /* \"#utility.yul\":10207:10216   */\n      dup4\n        /* \"#utility.yul\":10203:10221   */\n      add\n        /* \"#utility.yul\":10194:10200   */\n      dup7\n        /* \"#utility.yul\":10154:10222   */\n      tag_184\n      jump\t// in\n    tag_301:\n        /* \"#utility.yul\":10232:10304   */\n      tag_302\n        /* \"#utility.yul\":10300:10302   */\n      0x60\n        /* \"#utility.yul\":10289:10298   */\n      dup4\n        /* \"#utility.yul\":10285:10303   */\n      add\n        /* \"#utility.yul\":10276:10282   */\n      dup6\n        /* \"#utility.yul\":10232:10304   */\n      tag_170\n      jump\t// in\n    tag_302:\n        /* \"#utility.yul\":10314:10387   */\n      tag_303\n        /* \"#utility.yul\":10382:10385   */\n      0x80\n        /* \"#utility.yul\":10371:10380   */\n      dup4\n        /* \"#utility.yul\":10367:10386   */\n      add\n        /* \"#utility.yul\":10358:10364   */\n      dup5\n        /* \"#utility.yul\":10314:10387   */\n      tag_185\n      jump\t// in\n    tag_303:\n        /* \"#utility.yul\":9738:10394   */\n      swap7\n      swap6\n      pop\n      pop\n      pop\n      pop\n      pop\n      pop\n      jump\t// out\n        /* \"#utility.yul\":10400:11453   */\n    tag_49:\n        /* \"#utility.yul\":10502:10508   */\n      0x00\n        /* \"#utility.yul\":10510:10516   */\n      0x00\n        /* \"#utility.yul\":10518:10524   */\n      0x00\n        /* \"#utility.yul\":10526:10532   */\n      0x00\n        /* \"#utility.yul\":10534:10540   */\n      0x00\n        /* \"#utility.yul\":10542:10548   */\n      0x00\n        /* \"#utility.yul\":10591:10594   */\n      0xc0\n        /* \"#utility.yul\":10579:10588   */\n      dup8\n        /* \"#utility.yul\":10570:10577   */\n      dup10\n        /* \"#utility.yul\":10566:10589   */\n      sub\n        /* \"#utility.yul\":10562:10595   */\n      slt\n        /* \"#utility.yul\":10559:10679   */\n      iszero\n      tag_305\n      jumpi\n        /* \"#utility.yul\":10598:10677   */\n      tag_306\n      tag_157\n      jump\t// in\n    tag_306:\n        /* \"#utility.yul\":10559:10679   */\n    tag_305:\n        /* \"#utility.yul\":10718:10719   */\n      0x00\n        /* \"#utility.yul\":10743:10796   */\n      tag_307\n        /* \"#utility.yul\":10788:10795   */\n      dup10\n        /* \"#utility.yul\":10779:10785   */\n      dup3\n        /* \"#utility.yul\":10768:10777   */\n      dup11\n        /* \"#utility.yul\":10764:10786   */\n      add\n        /* \"#utility.yul\":10743:10796   */\n      tag_161\n      jump\t// in\n    tag_307:\n        /* \"#utility.yul\":10733:10796   */\n      swap7\n      pop\n        /* \"#utility.yul\":10689:10806   */\n      pop\n        /* \"#utility.yul\":10845:10847   */\n      0x20\n        /* \"#utility.yul\":10871:10924   */\n      tag_308\n        /* \"#utility.yul\":10916:10923   */\n      dup10\n        /* \"#utility.yul\":10907:10913   */\n      dup3\n        /* \"#utility.yul\":10896:10905   */\n      dup11\n        /* \"#utility.yul\":10892:10914   */\n      add\n        /* \"#utility.yul\":10871:10924   */\n      tag_161\n      jump\t// in\n    tag_308:\n        /* \"#utility.yul\":10861:10924   */\n      swap6\n      pop\n        /* \"#utility.yul\":10816:10934   */\n      pop\n        /* \"#utility.yul\":10973:10975   */\n      0x40\n        /* \"#utility.yul\":10999:11052   */\n      tag_309\n        /* \"#utility.yul\":11044:11051   */\n      dup10\n        /* \"#utility.yul\":11035:11041   */\n      dup3\n        /* \"#utility.yul\":11024:11033   */\n      dup11\n        /* \"#utility.yul\":11020:11042   */\n      add\n        /* \"#utility.yul\":10999:11052   */\n      tag_167\n      jump\t// in\n    tag_309:\n        /* \"#utility.yul\":10989:11052   */\n      swap5\n      pop\n        /* \"#utility.yul\":10944:11062   */\n      pop\n        /* \"#utility.yul\":11101:11103   */\n      0x60\n        /* \"#utility.yul\":11127:11180   */\n      tag_310\n        /* \"#utility.yul\":11172:11179   */\n      dup10\n        /* \"#utility.yul\":11163:11169   */\n      dup3\n        /* \"#utility.yul\":11152:11161   */\n      dup11\n        /* \"#utility.yul\":11148:11170   */\n      add\n        /* \"#utility.yul\":11127:11180   */\n      tag_161\n      jump\t// in\n    tag_310:\n        /* \"#utility.yul\":11117:11180   */\n      swap4\n      pop\n        /* \"#utility.yul\":11072:11190   */\n      pop\n        /* \"#utility.yul\":11229:11232   */\n      0x80\n        /* \"#utility.yul\":11256:11309   */\n      tag_311\n        /* \"#utility.yul\":11301:11308   */\n      dup10\n        /* \"#utility.yul\":11292:11298   */\n      dup3\n        /* \"#utility.yul\":11281:11290   */\n      dup11\n        /* \"#utility.yul\":11277:11299   */\n      add\n        /* \"#utility.yul\":11256:11309   */\n      tag_161\n      jump\t// in\n    tag_311:\n        /* \"#utility.yul\":11246:11309   */\n      swap3\n      pop\n        /* \"#utility.yul\":11200:11319   */\n      pop\n        /* \"#utility.yul\":11358:11361   */\n      0xa0\n        /* \"#utility.yul\":11385:11436   */\n      tag_312\n        /* \"#utility.yul\":11428:11435   */\n      dup10\n        /* \"#utility.yul\":11419:11425   */\n      dup3\n        /* \"#utility.yul\":11408:11417   */\n      dup11\n        /* \"#utility.yul\":11404:11426   */\n      add\n        /* \"#utility.yul\":11385:11436   */\n      tag_164\n      jump\t// in\n    tag_312:\n        /* \"#utility.yul\":11375:11436   */\n      swap2\n      pop\n        /* \"#utility.yul\":11329:11446   */\n      pop\n        /* \"#utility.yul\":10400:11453   */\n      swap3\n      swap6\n      pop\n      swap3\n      swap6\n      pop\n      swap3\n      swap6\n      jump\t// out\n        /* \"#utility.yul\":11459:11929   */\n    tag_54:\n        /* \"#utility.yul\":11525:11531   */\n      0x00\n        /* \"#utility.yul\":11533:11539   */\n      0x00\n        /* \"#utility.yul\":11582:11584   */\n      0x40\n        /* \"#utility.yul\":11570:11579   */\n      dup4\n        /* \"#utility.yul\":11561:11568   */\n      dup6\n        /* \"#utility.yul\":11557:11580   */\n      sub\n        /* \"#utility.yul\":11553:11585   */\n      slt\n        /* \"#utility.yul\":11550:11669   */\n      iszero\n      tag_314\n      jumpi\n        /* \"#utility.yul\":11588:11667   */\n      tag_315\n      tag_157\n      jump\t// in\n    tag_315:\n        /* \"#utility.yul\":11550:11669   */\n    tag_314:\n        /* \"#utility.yul\":11708:11709   */\n      0x00\n        /* \"#utility.yul\":11733:11786   */\n      tag_316\n        /* \"#utility.yul\":11778:11785   */\n      dup6\n        /* \"#utility.yul\":11769:11775   */\n      dup3\n        /* \"#utility.yul\":11758:11767   */\n      dup7\n        /* \"#utility.yul\":11754:11776   */\n      add\n        /* \"#utility.yul\":11733:11786   */\n      tag_161\n      jump\t// in\n    tag_316:\n        /* \"#utility.yul\":11723:11786   */\n      swap3\n      pop\n        /* \"#utility.yul\":11679:11796   */\n      pop\n        /* \"#utility.yul\":11835:11837   */\n      0x20\n        /* \"#utility.yul\":11861:11912   */\n      tag_317\n        /* \"#utility.yul\":11904:11911   */\n      dup6\n        /* \"#utility.yul\":11895:11901   */\n      dup3\n        /* \"#utility.yul\":11884:11893   */\n      dup7\n        /* \"#utility.yul\":11880:11902   */\n      add\n        /* \"#utility.yul\":11861:11912   */\n      tag_164\n      jump\t// in\n    tag_317:\n        /* \"#utility.yul\":11851:11912   */\n      swap2\n      pop\n        /* \"#utility.yul\":11806:11922   */\n      pop\n        /* \"#utility.yul\":11459:11929   */\n      swap3\n      pop\n      swap3\n      swap1\n      pop\n      jump\t// out\n        /* \"#utility.yul\":11935:12031   */\n    tag_186:\n        /* \"#utility.yul\":11969:11977   */\n      0x00\n        /* \"#utility.yul\":12018:12023   */\n      dup2\n        /* \"#utility.yul\":12013:12016   */\n      0xf8\n        /* \"#utility.yul\":12009:12024   */\n      shl\n        /* \"#utility.yul\":11988:12024   */\n      swap1\n      pop\n        /* \"#utility.yul\":11935:12031   */\n      swap2\n      swap1\n      pop\n      jump\t// out\n        /* \"#utility.yul\":12037:12130   */\n    tag_187:\n        /* \"#utility.yul\":12074:12081   */\n      0x00\n        /* \"#utility.yul\":12103:12124   */\n      tag_320\n        /* \"#utility.yul\":12118:12123   */\n      dup3\n        /* \"#utility.yul\":12103:12124   */\n      tag_186\n      jump\t// in\n    tag_320:\n        /* \"#utility.yul\":12092:12124   */\n      swap1\n      pop\n        /* \"#utility.yul\":12037:12130   */\n      swap2\n      swap1\n      pop\n      jump\t// out\n        /* \"#utility.yul\":12136:12285   */\n    tag_188:\n        /* \"#utility.yul\":12237:12278   */\n      tag_322\n        /* \"#utility.yul\":12255:12277   */\n      tag_323\n        /* \"#utility.yul\":12271:12276   */\n      dup3\n        /* \"#utility.yul\":12255:12277   */\n      tag_162\n      jump\t// in\n    tag_323:\n        /* \"#utility.yul\":12237:12278   */\n      tag_187\n      jump\t// in\n    tag_322:\n        /* \"#utility.yul\":12232:12235   */\n      dup3\n        /* \"#utility.yul\":12225:12279   */\n      mstore\n        /* \"#utility.yul\":12136:12285   */\n      pop\n      pop\n      jump\t// out\n        /* \"#utility.yul\":12291:12538   */\n    tag_67:\n        /* \"#utility.yul\":12399:12402   */\n      0x00\n        /* \"#utility.yul\":12414:12485   */\n      tag_325\n        /* \"#utility.yul\":12481:12484   */\n      dup3\n        /* \"#utility.yul\":12472:12478   */\n      dup5\n        /* \"#utility.yul\":12414:12485   */\n      tag_188\n      jump\t// in\n    tag_325:\n        /* \"#utility.yul\":12510:12511   */\n      0x01\n        /* \"#utility.yul\":12505:12508   */\n      dup3\n        /* \"#utility.yul\":12501:12512   */\n      add\n        /* \"#utility.yul\":12494:12512   */\n      swap2\n      pop\n        /* \"#utility.yul\":12529:12532   */\n      dup2\n        /* \"#utility.yul\":12522:12532   */\n      swap1\n      pop\n        /* \"#utility.yul\":12291:12538   */\n      swap3\n      swap2\n      pop\n      pop\n      jump\t// out\n        /* \"#utility.yul\":12544:12713   */\n    tag_189:\n        /* \"#utility.yul\":12628:12639   */\n      0x00\n        /* \"#utility.yul\":12662:12668   */\n      dup3\n        /* \"#utility.yul\":12657:12660   */\n      dup3\n        /* \"#utility.yul\":12650:12669   */\n      mstore\n        /* \"#utility.yul\":12702:12706   */\n      0x20\n        /* \"#utility.yul\":12697:12700   */\n      dup3\n        /* \"#utility.yul\":12693:12707   */\n      add\n        /* \"#utility.yul\":12678:12707   */\n      swap1\n      pop\n        /* \"#utility.yul\":12544:12713   */\n      swap3\n      swap2\n      pop\n      pop\n      jump\t// out\n        /* \"#utility.yul\":12719:13025   */\n    tag_190:\n        /* \"#utility.yul\":12859:12893   */\n      0x726573756c7461646f20696e76616c6964613a20757365202830292070617261\n        /* \"#utility.yul\":12855:12856   */\n      0x00\n        /* \"#utility.yul\":12847:12853   */\n      dup3\n        /* \"#utility.yul\":12843:12857   */\n      add\n        /* \"#utility.yul\":12836:12894   */\n      mstore\n        /* \"#utility.yul\":12928:12962   */\n      0x204170726f626164612c20283129207061726120417263686976616461206f20\n        /* \"#utility.yul\":12923:12925   */\n      0x20\n        /* \"#utility.yul\":12915:12921   */\n      dup3\n        /* \"#utility.yul\":12911:12926   */\n      add\n        /* \"#utility.yul\":12904:12963   */\n      mstore\n        /* \"#utility.yul\":12997:13017   */\n      0x28322920706172612052656368617a6164610000000000000000000000000000\n        /* \"#utility.yul\":12992:12994   */\n      0x40\n        /* \"#utility.yul\":12984:12990   */\n      dup3\n        /* \"#utility.yul\":12980:12995   */\n      add\n        /* \"#utility.yul\":12973:13018   */\n      mstore\n        /* \"#utility.yul\":12719:13025   */\n      pop\n      jump\t// out\n        /* \"#utility.yul\":13031:13397   */\n    tag_191:\n        /* \"#utility.yul\":13173:13176   */\n      0x00\n        /* \"#utility.yul\":13194:13261   */\n      tag_329\n        /* \"#utility.yul\":13258:13260   */\n      0x52\n        /* \"#utility.yul\":13253:13256   */\n      dup4\n        /* \"#utility.yul\":13194:13261   */\n      tag_189\n      jump\t// in\n    tag_329:\n        /* \"#utility.yul\":13187:13261   */\n      swap2\n      pop\n        /* \"#utility.yul\":13270:13363   */\n      tag_330\n        /* \"#utility.yul\":13359:13362   */\n      dup3\n        /* \"#utility.yul\":13270:13363   */\n      tag_190\n      jump\t// in\n    tag_330:\n        /* \"#utility.yul\":13388:13390   */\n      0x60\n        /* \"#utility.yul\":13383:13386   */\n      dup3\n        /* \"#utility.yul\":13379:13391   */\n      add\n        /* \"#utility.yul\":13372:13391   */\n      swap1\n      pop\n        /* \"#utility.yul\":13031:13397   */\n      swap2\n      swap1\n      pop\n      jump\t// out\n        /* \"#utility.yul\":13403:13822   */\n    tag_77:\n        /* \"#utility.yul\":13569:13573   */\n      0x00\n        /* \"#utility.yul\":13607:13609   */\n      0x20\n        /* \"#utility.yul\":13596:13605   */\n      dup3\n        /* \"#utility.yul\":13592:13610   */\n      add\n        /* \"#utility.yul\":13584:13610   */\n      swap1\n      pop\n        /* \"#utility.yul\":13656:13665   */\n      dup2\n        /* \"#utility.yul\":13650:13654   */\n      dup2\n        /* \"#utility.yul\":13646:13666   */\n      sub\n        /* \"#utility.yul\":13642:13643   */\n      0x00\n        /* \"#utility.yul\":13631:13640   */\n      dup4\n        /* \"#utility.yul\":13627:13644   */\n      add\n        /* \"#utility.yul\":13620:13667   */\n      mstore\n        /* \"#utility.yul\":13684:13815   */\n      tag_332\n        /* \"#utility.yul\":13810:13814   */\n      dup2\n        /* \"#utility.yul\":13684:13815   */\n      tag_191\n      jump\t// in\n    tag_332:\n        /* \"#utility.yul\":13676:13815   */\n      swap1\n      pop\n        /* \"#utility.yul\":13403:13822   */\n      swap2\n      swap1\n      pop\n      jump\t// out\n        /* \"#utility.yul\":13828:14262   */\n    tag_80:\n        /* \"#utility.yul\":13973:13977   */\n      0x00\n        /* \"#utility.yul\":14011:14013   */\n      0x60\n        /* \"#utility.yul\":14000:14009   */\n      dup3\n        /* \"#utility.yul\":13996:14014   */\n      add\n        /* \"#utility.yul\":13988:14014   */\n      swap1\n      pop\n        /* \"#utility.yul\":14024:14095   */\n      tag_334\n        /* \"#utility.yul\":14092:14093   */\n      0x00\n        /* \"#utility.yul\":14081:14090   */\n      dup4\n        /* \"#utility.yul\":14077:14094   */\n      add\n        /* \"#utility.yul\":14068:14074   */\n      dup7\n        /* \"#utility.yul\":14024:14095   */\n      tag_170\n      jump\t// in\n    tag_334:\n        /* \"#utility.yul\":14105:14173   */\n      tag_335\n        /* \"#utility.yul\":14169:14171   */\n      0x20\n        /* \"#utility.yul\":14158:14167   */\n      dup4\n        /* \"#utility.yul\":14154:14172   */\n      add\n        /* \"#utility.yul\":14145:14151   */\n      dup6\n        /* \"#utility.yul\":14105:14173   */\n      tag_184\n      jump\t// in\n    tag_335:\n        /* \"#utility.yul\":14183:14255   */\n      tag_336\n        /* \"#utility.yul\":14251:14253   */\n      0x40\n        /* \"#utility.yul\":14240:14249   */\n      dup4\n        /* \"#utility.yul\":14236:14254   */\n      add\n        /* \"#utility.yul\":14227:14233   */\n      dup5\n        /* \"#utility.yul\":14183:14255   */\n      tag_185\n      jump\t// in\n    tag_336:\n        /* \"#utility.yul\":13828:14262   */\n      swap5\n      swap4\n      pop\n      pop\n      pop\n      pop\n      jump\t// out\n        /* \"#utility.yul\":14268:14440   */\n    tag_192:\n        /* \"#utility.yul\":14408:14432   */\n      0x4c6120616374756163696f6e206e6f2065786973746500000000000000000000\n        /* \"#utility.yul\":14404:14405   */\n      0x00\n        /* \"#utility.yul\":14396:14402   */\n      dup3\n        /* \"#utility.yul\":14392:14406   */\n      add\n        /* \"#utility.yul\":14385:14433   */\n      mstore\n        /* \"#utility.yul\":14268:14440   */\n      pop\n      jump\t// out\n        /* \"#utility.yul\":14446:14812   */\n    tag_193:\n        /* \"#utility.yul\":14588:14591   */\n      0x00\n        /* \"#utility.yul\":14609:14676   */\n      tag_339\n        /* \"#utility.yul\":14673:14675   */\n      0x16\n        /* \"#utility.yul\":14668:14671   */\n      dup4\n        /* \"#utility.yul\":14609:14676   */\n      tag_189\n      jump\t// in\n    tag_339:\n        /* \"#utility.yul\":14602:14676   */\n      swap2\n      pop\n        /* \"#utility.yul\":14685:14778   */\n      tag_340\n        /* \"#utility.yul\":14774:14777   */\n      dup3\n        /* \"#utility.yul\":14685:14778   */\n      tag_192\n      jump\t// in\n    tag_340:\n        /* \"#utility.yul\":14803:14805   */\n      0x20\n        /* \"#utility.yul\":14798:14801   */\n      dup3\n        /* \"#utility.yul\":14794:14806   */\n      add\n        /* \"#utility.yul\":14787:14806   */\n      swap1\n      pop\n        /* \"#utility.yul\":14446:14812   */\n      swap2\n      swap1\n      pop\n      jump\t// out\n        /* \"#utility.yul\":14818:15237   */\n    tag_86:\n        /* \"#utility.yul\":14984:14988   */\n      0x00\n        /* \"#utility.yul\":15022:15024   */\n      0x20\n        /* \"#utility.yul\":15011:15020   */\n      dup3\n        /* \"#utility.yul\":15007:15025   */\n      add\n        /* \"#utility.yul\":14999:15025   */\n      swap1\n      pop\n        /* \"#utility.yul\":15071:15080   */\n      dup2\n        /* \"#utility.yul\":15065:15069   */\n      dup2\n        /* \"#utility.yul\":15061:15081   */\n      sub\n        /* \"#utility.yul\":15057:15058   */\n      0x00\n        /* \"#utility.yul\":15046:15055   */\n      dup4\n        /* \"#utility.yul\":15042:15059   */\n      add\n        /* \"#utility.yul\":15035:15082   */\n      mstore\n        /* \"#utility.yul\":15099:15230   */\n      tag_342\n        /* \"#utility.yul\":15225:15229   */\n      dup2\n        /* \"#utility.yul\":15099:15230   */\n      tag_193\n      jump\t// in\n    tag_342:\n        /* \"#utility.yul\":15091:15230   */\n      swap1\n      pop\n        /* \"#utility.yul\":14818:15237   */\n      swap2\n      swap1\n      pop\n      jump\t// out\n        /* \"#utility.yul\":15243:15415   */\n    tag_194:\n        /* \"#utility.yul\":15383:15407   */\n      0x4c6120616374756163696f6e2079612065786973746500000000000000000000\n        /* \"#utility.yul\":15379:15380   */\n      0x00\n        /* \"#utility.yul\":15371:15377   */\n      dup3\n        /* \"#utility.yul\":15367:15381   */\n      add\n        /* \"#utility.yul\":15360:15408   */\n      mstore\n        /* \"#utility.yul\":15243:15415   */\n      pop\n      jump\t// out\n        /* \"#utility.yul\":15421:15787   */\n    tag_195:\n        /* \"#utility.yul\":15563:15566   */\n      0x00\n        /* \"#utility.yul\":15584:15651   */\n      tag_345\n        /* \"#utility.yul\":15648:15650   */\n      0x16\n        /* \"#utility.yul\":15643:15646   */\n      dup4\n        /* \"#utility.yul\":15584:15651   */\n      tag_189\n      jump\t// in\n    tag_345:\n        /* \"#utility.yul\":15577:15651   */\n      swap2\n      pop\n        /* \"#utility.yul\":15660:15753   */\n      tag_346\n        /* \"#utility.yul\":15749:15752   */\n      dup3\n        /* \"#utility.yul\":15660:15753   */\n      tag_194\n      jump\t// in\n    tag_346:\n        /* \"#utility.yul\":15778:15780   */\n      0x20\n        /* \"#utility.yul\":15773:15776   */\n      dup3\n        /* \"#utility.yul\":15769:15781   */\n      add\n        /* \"#utility.yul\":15762:15781   */\n      swap1\n      pop\n        /* \"#utility.yul\":15421:15787   */\n      swap2\n      swap1\n      pop\n      jump\t// out\n        /* \"#utility.yul\":15793:16212   */\n    tag_93:\n        /* \"#utility.yul\":15959:15963   */\n      0x00\n        /* \"#utility.yul\":15997:15999   */\n      0x20\n        /* \"#utility.yul\":15986:15995   */\n      dup3\n        /* \"#utility.yul\":15982:16000   */\n      add\n        /* \"#utility.yul\":15974:16000   */\n      swap1\n      pop\n        /* \"#utility.yul\":16046:16055   */\n      dup2\n        /* \"#utility.yul\":16040:16044   */\n      dup2\n        /* \"#utility.yul\":16036:16056   */\n      sub\n        /* \"#utility.yul\":16032:16033   */\n      0x00\n        /* \"#utility.yul\":16021:16030   */\n      dup4\n        /* \"#utility.yul\":16017:16034   */\n      add\n        /* \"#utility.yul\":16010:16057   */\n      mstore\n        /* \"#utility.yul\":16074:16205   */\n      tag_348\n        /* \"#utility.yul\":16200:16204   */\n      dup2\n        /* \"#utility.yul\":16074:16205   */\n      tag_195\n      jump\t// in\n    tag_348:\n        /* \"#utility.yul\":16066:16205   */\n      swap1\n      pop\n        /* \"#utility.yul\":15793:16212   */\n      swap2\n      swap1\n      pop\n      jump\t// out\n        /* \"#utility.yul\":16218:16442   */\n    tag_196:\n        /* \"#utility.yul\":16358:16392   */\n      0x4e6f2073652068612070616761646f206c612074617269666120646520726567\n        /* \"#utility.yul\":16354:16355   */\n      0x00\n        /* \"#utility.yul\":16346:16352   */\n      dup3\n        /* \"#utility.yul\":16342:16356   */\n      add\n        /* \"#utility.yul\":16335:16393   */\n      mstore\n        /* \"#utility.yul\":16427:16434   */\n      0x697374726f000000000000000000000000000000000000000000000000000000\n        /* \"#utility.yul\":16422:16424   */\n      0x20\n        /* \"#utility.yul\":16414:16420   */\n      dup3\n        /* \"#utility.yul\":16410:16425   */\n      add\n        /* \"#utility.yul\":16403:16435   */\n      mstore\n        /* \"#utility.yul\":16218:16442   */\n      pop\n      jump\t// out\n        /* \"#utility.yul\":16448:16814   */\n    tag_197:\n        /* \"#utility.yul\":16590:16593   */\n      0x00\n        /* \"#utility.yul\":16611:16678   */\n      tag_351\n        /* \"#utility.yul\":16675:16677   */\n      0x25\n        /* \"#utility.yul\":16670:16673   */\n      dup4\n        /* \"#utility.yul\":16611:16678   */\n      tag_189\n      jump\t// in\n    tag_351:\n        /* \"#utility.yul\":16604:16678   */\n      swap2\n      pop\n        /* \"#utility.yul\":16687:16780   */\n      tag_352\n        /* \"#utility.yul\":16776:16779   */\n      dup3\n        /* \"#utility.yul\":16687:16780   */\n      tag_196\n      jump\t// in\n    tag_352:\n        /* \"#utility.yul\":16805:16807   */\n      0x40\n        /* \"#utility.yul\":16800:16803   */\n      dup3\n        /* \"#utility.yul\":16796:16808   */\n      add\n        /* \"#utility.yul\":16789:16808   */\n      swap1\n      pop\n        /* \"#utility.yul\":16448:16814   */\n      swap2\n      swap1\n      pop\n      jump\t// out\n        /* \"#utility.yul\":16820:17239   */\n    tag_96:\n        /* \"#utility.yul\":16986:16990   */\n      0x00\n        /* \"#utility.yul\":17024:17026   */\n      0x20\n        /* \"#utility.yul\":17013:17022   */\n      dup3\n        /* \"#utility.yul\":17009:17027   */\n      add\n        /* \"#utility.yul\":17001:17027   */\n      swap1\n      pop\n        /* \"#utility.yul\":17073:17082   */\n      dup2\n        /* \"#utility.yul\":17067:17071   */\n      dup2\n        /* \"#utility.yul\":17063:17083   */\n      sub\n        /* \"#utility.yul\":17059:17060   */\n      0x00\n        /* \"#utility.yul\":17048:17057   */\n      dup4\n        /* \"#utility.yul\":17044:17061   */\n      add\n        /* \"#utility.yul\":17037:17084   */\n      mstore\n        /* \"#utility.yul\":17101:17232   */\n      tag_354\n        /* \"#utility.yul\":17227:17231   */\n      dup2\n        /* \"#utility.yul\":17101:17232   */\n      tag_197\n      jump\t// in\n    tag_354:\n        /* \"#utility.yul\":17093:17232   */\n      swap1\n      pop\n        /* \"#utility.yul\":16820:17239   */\n      swap2\n      swap1\n      pop\n      jump\t// out\n        /* \"#utility.yul\":17245:17901   */\n    tag_100:\n        /* \"#utility.yul\":17446:17450   */\n      0x00\n        /* \"#utility.yul\":17484:17487   */\n      0xa0\n        /* \"#utility.yul\":17473:17482   */\n      dup3\n        /* \"#utility.yul\":17469:17488   */\n      add\n        /* \"#utility.yul\":17461:17488   */\n      swap1\n      pop\n        /* \"#utility.yul\":17498:17569   */\n      tag_356\n        /* \"#utility.yul\":17566:17567   */\n      0x00\n        /* \"#utility.yul\":17555:17564   */\n      dup4\n        /* \"#utility.yul\":17551:17568   */\n      add\n        /* \"#utility.yul\":17542:17548   */\n      dup9\n        /* \"#utility.yul\":17498:17569   */\n      tag_170\n      jump\t// in\n    tag_356:\n        /* \"#utility.yul\":17579:17651   */\n      tag_357\n        /* \"#utility.yul\":17647:17649   */\n      0x20\n        /* \"#utility.yul\":17636:17645   */\n      dup4\n        /* \"#utility.yul\":17632:17650   */\n      add\n        /* \"#utility.yul\":17623:17629   */\n      dup8\n        /* \"#utility.yul\":17579:17651   */\n      tag_170\n      jump\t// in\n    tag_357:\n        /* \"#utility.yul\":17661:17733   */\n      tag_358\n        /* \"#utility.yul\":17729:17731   */\n      0x40\n        /* \"#utility.yul\":17718:17727   */\n      dup4\n        /* \"#utility.yul\":17714:17732   */\n      add\n        /* \"#utility.yul\":17705:17711   */\n      dup7\n        /* \"#utility.yul\":17661:17733   */\n      tag_170\n      jump\t// in\n    tag_358:\n        /* \"#utility.yul\":17743:17811   */\n      tag_359\n        /* \"#utility.yul\":17807:17809   */\n      0x60\n        /* \"#utility.yul\":17796:17805   */\n      dup4\n        /* \"#utility.yul\":17792:17810   */\n      add\n        /* \"#utility.yul\":17783:17789   */\n      dup6\n        /* \"#utility.yul\":17743:17811   */\n      tag_184\n      jump\t// in\n    tag_359:\n        /* \"#utility.yul\":17821:17894   */\n      tag_360\n        /* \"#utility.yul\":17889:17892   */\n      0x80\n        /* \"#utility.yul\":17878:17887   */\n      dup4\n        /* \"#utility.yul\":17874:17893   */\n      add\n        /* \"#utility.yul\":17865:17871   */\n      dup5\n        /* \"#utility.yul\":17821:17894   */\n      tag_185\n      jump\t// in\n    tag_360:\n        /* \"#utility.yul\":17245:17901   */\n      swap7\n      swap6\n      pop\n      pop\n      pop\n      pop\n      pop\n      pop\n      jump\t// out\n        /* \"#utility.yul\":17907:18087   */\n    tag_198:\n        /* \"#utility.yul\":17955:18032   */\n      0x4e487b7100000000000000000000000000000000000000000000000000000000\n        /* \"#utility.yul\":17952:17953   */\n      0x00\n        /* \"#utility.yul\":17945:18033   */\n      mstore\n        /* \"#utility.yul\":18052:18056   */\n      0x11\n        /* \"#utility.yul\":18049:18050   */\n      0x04\n        /* \"#utility.yul\":18042:18057   */\n      mstore\n        /* \"#utility.yul\":18076:18080   */\n      0x24\n        /* \"#utility.yul\":18073:18074   */\n      0x00\n        /* \"#utility.yul\":18066:18081   */\n      revert\n        /* \"#utility.yul\":18093:18287   */\n    tag_104:\n        /* \"#utility.yul\":18133:18137   */\n      0x00\n        /* \"#utility.yul\":18153:18173   */\n      tag_363\n        /* \"#utility.yul\":18171:18172   */\n      dup3\n        /* \"#utility.yul\":18153:18173   */\n      tag_159\n      jump\t// in\n    tag_363:\n        /* \"#utility.yul\":18148:18173   */\n      swap2\n      pop\n        /* \"#utility.yul\":18187:18207   */\n      tag_364\n        /* \"#utility.yul\":18205:18206   */\n      dup4\n        /* \"#utility.yul\":18187:18207   */\n      tag_159\n      jump\t// in\n    tag_364:\n        /* \"#utility.yul\":18182:18207   */\n      swap3\n      pop\n        /* \"#utility.yul\":18231:18232   */\n      dup3\n        /* \"#utility.yul\":18228:18229   */\n      dup3\n        /* \"#utility.yul\":18224:18233   */\n      sub\n        /* \"#utility.yul\":18216:18233   */\n      swap1\n      pop\n        /* \"#utility.yul\":18255:18256   */\n      dup2\n        /* \"#utility.yul\":18249:18253   */\n      dup2\n        /* \"#utility.yul\":18246:18257   */\n      gt\n        /* \"#utility.yul\":18243:18280   */\n      iszero\n      tag_365\n      jumpi\n        /* \"#utility.yul\":18260:18278   */\n      tag_366\n      tag_198\n      jump\t// in\n    tag_366:\n        /* \"#utility.yul\":18243:18280   */\n    tag_365:\n        /* \"#utility.yul\":18093:18287   */\n      swap3\n      swap2\n      pop\n      pop\n      jump\t// out\n        /* \"#utility.yul\":18293:18473   */\n    tag_107:\n        /* \"#utility.yul\":18341:18418   */\n      0x4e487b7100000000000000000000000000000000000000000000000000000000\n        /* \"#utility.yul\":18338:18339   */\n      0x00\n        /* \"#utility.yul\":18331:18419   */\n      mstore\n        /* \"#utility.yul\":18438:18442   */\n      0x32\n        /* \"#utility.yul\":18435:18436   */\n      0x04\n        /* \"#utility.yul\":18428:18443   */\n      mstore\n        /* \"#utility.yul\":18462:18466   */\n      0x24\n        /* \"#utility.yul\":18459:18460   */\n      0x00\n        /* \"#utility.yul\":18452:18467   */\n      revert\n        /* \"#utility.yul\":18479:19024   */\n    tag_124:\n        /* \"#utility.yul\":18652:18656   */\n      0x00\n        /* \"#utility.yul\":18690:18693   */\n      0x80\n        /* \"#utility.yul\":18679:18688   */\n      dup3\n        /* \"#utility.yul\":18675:18694   */\n      add\n        /* \"#utility.yul\":18667:18694   */\n      swap1\n      pop\n        /* \"#utility.yul\":18704:18775   */\n      tag_369\n        /* \"#utility.yul\":18772:18773   */\n      0x00\n        /* \"#utility.yul\":18761:18770   */\n      dup4\n        /* \"#utility.yul\":18757:18774   */\n      add\n        /* \"#utility.yul\":18748:18754   */\n      dup8\n        /* \"#utility.yul\":18704:18775   */\n      tag_170\n      jump\t// in\n    tag_369:\n        /* \"#utility.yul\":18785:18857   */\n      tag_370\n        /* \"#utility.yul\":18853:18855   */\n      0x20\n        /* \"#utility.yul\":18842:18851   */\n      dup4\n        /* \"#utility.yul\":18838:18856   */\n      add\n        /* \"#utility.yul\":18829:18835   */\n      dup7\n        /* \"#utility.yul\":18785:18857   */\n      tag_170\n      jump\t// in\n    tag_370:\n        /* \"#utility.yul\":18867:18935   */\n      tag_371\n        /* \"#utility.yul\":18931:18933   */\n      0x40\n        /* \"#utility.yul\":18920:18929   */\n      dup4\n        /* \"#utility.yul\":18916:18934   */\n      add\n        /* \"#utility.yul\":18907:18913   */\n      dup6\n        /* \"#utility.yul\":18867:18935   */\n      tag_184\n      jump\t// in\n    tag_371:\n        /* \"#utility.yul\":18945:19017   */\n      tag_372\n        /* \"#utility.yul\":19013:19015   */\n      0x60\n        /* \"#utility.yul\":19002:19011   */\n      dup4\n        /* \"#utility.yul\":18998:19016   */\n      add\n        /* \"#utility.yul\":18989:18995   */\n      dup5\n        /* \"#utility.yul\":18945:19017   */\n      tag_185\n      jump\t// in\n    tag_372:\n        /* \"#utility.yul\":18479:19024   */\n      swap6\n      swap5\n      pop\n      pop\n      pop\n      pop\n      pop\n      jump\t// out\n        /* \"#utility.yul\":19030:19200   */\n    tag_199:\n        /* \"#utility.yul\":19170:19192   */\n      0x4e6f20657320656c2070726f706965746172696f000000000000000000000000\n        /* \"#utility.yul\":19166:19167   */\n      0x00\n        /* \"#utility.yul\":19158:19164   */\n      dup3\n        /* \"#utility.yul\":19154:19168   */\n      add\n        /* \"#utility.yul\":19147:19193   */\n      mstore\n        /* \"#utility.yul\":19030:19200   */\n      pop\n      jump\t// out\n        /* \"#utility.yul\":19206:19572   */\n    tag_200:\n        /* \"#utility.yul\":19348:19351   */\n      0x00\n        /* \"#utility.yul\":19369:19436   */\n      tag_375\n        /* \"#utility.yul\":19433:19435   */\n      0x14\n        /* \"#utility.yul\":19428:19431   */\n      dup4\n        /* \"#utility.yul\":19369:19436   */\n      tag_189\n      jump\t// in\n    tag_375:\n        /* \"#utility.yul\":19362:19436   */\n      swap2\n      pop\n        /* \"#utility.yul\":19445:19538   */\n      tag_376\n        /* \"#utility.yul\":19534:19537   */\n      dup3\n        /* \"#utility.yul\":19445:19538   */\n      tag_199\n      jump\t// in\n    tag_376:\n        /* \"#utility.yul\":19563:19565   */\n      0x20\n        /* \"#utility.yul\":19558:19561   */\n      dup3\n        /* \"#utility.yul\":19554:19566   */\n      add\n        /* \"#utility.yul\":19547:19566   */\n      swap1\n      pop\n        /* \"#utility.yul\":19206:19572   */\n      swap2\n      swap1\n      pop\n      jump\t// out\n        /* \"#utility.yul\":19578:19997   */\n    tag_142:\n        /* \"#utility.yul\":19744:19748   */\n      0x00\n        /* \"#utility.yul\":19782:19784   */\n      0x20\n        /* \"#utility.yul\":19771:19780   */\n      dup3\n        /* \"#utility.yul\":19767:19785   */\n      add\n        /* \"#utility.yul\":19759:19785   */\n      swap1\n      pop\n        /* \"#utility.yul\":19831:19840   */\n      dup2\n        /* \"#utility.yul\":19825:19829   */\n      dup2\n        /* \"#utility.yul\":19821:19841   */\n      sub\n        /* \"#utility.yul\":19817:19818   */\n      0x00\n        /* \"#utility.yul\":19806:19815   */\n      dup4\n        /* \"#utility.yul\":19802:19819   */\n      add\n        /* \"#utility.yul\":19795:19842   */\n      mstore\n        /* \"#utility.yul\":19859:19990   */\n      tag_378\n        /* \"#utility.yul\":19985:19989   */\n      dup2\n        /* \"#utility.yul\":19859:19990   */\n      tag_200\n      jump\t// in\n    tag_378:\n        /* \"#utility.yul\":19851:19990   */\n      swap1\n      pop\n        /* \"#utility.yul\":19578:19997   */\n      swap2\n      swap1\n      pop\n      jump\t// out\n        /* \"#utility.yul\":20003:20327   */\n    tag_145:\n        /* \"#utility.yul\":20120:20124   */\n      0x00\n        /* \"#utility.yul\":20158:20160   */\n      0x40\n        /* \"#utility.yul\":20147:20156   */\n      dup3\n        /* \"#utility.yul\":20143:20161   */\n      add\n        /* \"#utility.yul\":20135:20161   */\n      swap1\n      pop\n        /* \"#utility.yul\":20171:20242   */\n      tag_380\n        /* \"#utility.yul\":20239:20240   */\n      0x00\n        /* \"#utility.yul\":20228:20237   */\n      dup4\n        /* \"#utility.yul\":20224:20241   */\n      add\n        /* \"#utility.yul\":20215:20221   */\n      dup6\n        /* \"#utility.yul\":20171:20242   */\n      tag_170\n      jump\t// in\n    tag_380:\n        /* \"#utility.yul\":20252:20320   */\n      tag_381\n        /* \"#utility.yul\":20316:20318   */\n      0x20\n        /* \"#utility.yul\":20305:20314   */\n      dup4\n        /* \"#utility.yul\":20301:20319   */\n      add\n        /* \"#utility.yul\":20292:20298   */\n      dup5\n        /* \"#utility.yul\":20252:20320   */\n      tag_184\n      jump\t// in\n    tag_381:\n        /* \"#utility.yul\":20003:20327   */\n      swap4\n      swap3\n      pop\n      pop\n      pop\n      jump\t// out\n\n    auxdata: 0xa26469706673582212209f70e516bac7de3727adee6e24d015ae9306b8e6e6d0cd563813d66f81ad183464736f6c63430008220033\n}\n",
				"bytecode": {
					"linkReferences": {},
					"object": "6080604052348015600e575f5ffd5b50335f5f6101000a81548173ffffffffffffffffffffffffffffffffffffffff021916908373ffffffffffffffffffffffffffffffffffffffff16021790555061199f8061005b5f395ff3fe608060405260043610610090575f3560e01c8063c0b330b611610058578063c0b330b61461017c578063c631ba01146101bc578063c83e9d6d146101d8578063d986a2a314610200578063f904dd5b1461022857610090565b80633c4f81cd146100945780633cbdc2d3146100be57806352b5241e146100fa5780638e8a587614610124578063906a11df14610160575b5f5ffd5b34801561009f575f5ffd5b506100a8610264565b6040516100b59190611012565b60405180910390f35b3480156100c9575f5ffd5b506100e460048036038101906100df91906110cb565b610288565b6040516100f19190611135565b60405180910390f35b348015610105575f5ffd5b5061010e610417565b60405161011b919061115d565b60405180910390f35b34801561012f575f5ffd5b5061014a60048036038101906101459190611176565b61041d565b6040516101579190611347565b60405180910390f35b61017a60048036038101906101759190611367565b6105b5565b005b348015610187575f5ffd5b506101a2600480360381019061019d9190611176565b6107e7565b6040516101b39594939291906113fc565b60405180910390f35b6101d660048036038101906101d1919061144d565b610896565b005b3480156101e3575f5ffd5b506101fe60048036038101906101f991906114d6565b610a24565b005b34801561020b575f5ffd5b50610226600480360381019061022191906114d6565b610b6e565b005b348015610233575f5ffd5b5061024e600480360381019061024991906110cb565b610d89565b60405161025b9190611135565b60405180910390f35b5f5f9054906101000a900473ffffffffffffffffffffffffffffffffffffffff1681565b5f5f60405160200161029a9190611548565b60405160208183030381529060405280519060200120836040516020016102c19190611548565b60405160208183030381529060405280519060200120148061032f575060016040516020016102f09190611548565b60405160208183030381529060405280519060200120836040516020016103179190611548565b60405160208183030381529060405280519060200120145b80610386575060026040516020016103479190611548565b604051602081830303815290604052805190602001208360405160200161036e9190611548565b60405160208183030381529060405280519060200120145b6103c5576040517f08c379a00000000000000000000000000000000000000000000000000000000081526004016103bc90611608565b60405180910390fd5b6103d0848484610d89565b507f10f5ebedf0718619b5b15d769c3cccf914eaf6c44b2b6e71ff939545cc737bbe84848460405161040493929190611626565b60405180910390a1600190509392505050565b6101f481565b610425610fac565b60015f8381526020019081526020015f206002015f9054906101000a900460ff16610485576040517f08c379a000000000000000000000000000000000000000000000000000000000815260040161047c906116a5565b60405180910390fd5b60015f8381526020019081526020015f206040518060800160405290815f820154815260200160018201548152602001600282015f9054906101000a900460ff1615151515815260200160038201805480602002602001604051908101604052809291908181526020015f905b828210156105a6578382905f5260205f2090600402016040518060800160405290815f8201548152602001600182015f9054906101000a900460ff1660ff1660ff16815260200160028201548152602001600382015f9054906101000a900473ffffffffffffffffffffffffffffffffffffffff1673ffffffffffffffffffffffffffffffffffffffff1673ffffffffffffffffffffffffffffffffffffffff1681525050815260200190600101906104f2565b50505050815250509050919050565b60015f8681526020019081526020015f206002015f9054906101000a900460ff1615610616576040517f08c379a000000000000000000000000000000000000000000000000000000000815260040161060d9061170d565b60405180910390fd5b6101f434101561065b576040517f08c379a00000000000000000000000000000000000000000000000000000000081526004016106529061179b565b60405180910390fd5b5f60015f8781526020019081526020015f2090506001816002015f6101000a81548160ff02191690831515021790555084816001018190555081815f01819055508060030160405180608001604052804281526020018660ff1681526020018581526020013373ffffffffffffffffffffffffffffffffffffffff16815250908060018154018082558091505060019003905f5260205f2090600402015f909190919091505f820151815f01556020820151816001015f6101000a81548160ff021916908360ff160217905550604082015181600201556060820151816003015f6101000a81548173ffffffffffffffffffffffffffffffffffffffff021916908373ffffffffffffffffffffffffffffffffffffffff1602179055505050600286908060018154018082558091505060019003905f5260205f20015f90919091909150557f164383a2b97191661e35fd7054520c2abdf173025e32983b038ecb35a796cda786838787876040516107d79594939291906117b9565b60405180910390a1505050505050565b5f5f5f5f5f5f6107f68761041d565b90505f60035f8981526020019081526020015f209050815f015182602001518360600151600185606001515161082c9190611837565b8151811061083d5761083c61186a565b5b602002602001015160200151835f0154856060015160018760600151516108649190611837565b815181106108755761087461186a565b5b60200260200101516040015196509650965096509650505091939590929450565b5f6040516020016108a79190611548565b60405160208183030381529060405280519060200120816040516020016108ce9190611548565b60405160208183030381529060405280519060200120148061093c575060016040516020016108fd9190611548565b60405160208183030381529060405280519060200120816040516020016109249190611548565b60405160208183030381529060405280519060200120145b80610993575060026040516020016109549190611548565b604051602081830303815290604052805190602001208160405160200161097b9190611548565b60405160208183030381529060405280519060200120145b6109d2576040517f08c379a00000000000000000000000000000000000000000000000000000000081526004016109c990611608565b60405180910390fd5b6109df86868387876105b5565b7f5694b19b2cfcf39a4309e7d5015b841327b2020ff7dfbe0c17328b4c90aed71e86838387604051610a149493929190611897565b60405180910390a1505050505050565b5f604051602001610a359190611548565b6040516020818303038152906040528051906020012081604051602001610a5c9190611548565b604051602081830303815290604052805190602001201480610aca57506001604051602001610a8b9190611548565b6040516020818303038152906040528051906020012081604051602001610ab29190611548565b60405160208183030381529060405280519060200120145b80610b2157506002604051602001610ae29190611548565b6040516020818303038152906040528051906020012081604051602001610b099190611548565b60405160208183030381529060405280519060200120145b610b60576040517f08c379a0000000000000000000000000000000000000000000000000000000008152600401610b5790611608565b60405180910390fd5b610b6a8282610b6e565b5050565b60015f8381526020019081526020015f206002015f9054906101000a900460ff16610bce576040517f08c379a0000000000000000000000000000000000000000000000000000000008152600401610bc5906116a5565b60405180910390fd5b5f5f9054906101000a900473ffffffffffffffffffffffffffffffffffffffff1673ffffffffffffffffffffffffffffffffffffffff163373ffffffffffffffffffffffffffffffffffffffff1614610c5c576040517f08c379a0000000000000000000000000000000000000000000000000000000008152600401610c5390611924565b60405180910390fd5b60015f8381526020019081526020015f2060030160405180608001604052804281526020018360ff1681526020015f5f1b81526020013373ffffffffffffffffffffffffffffffffffffffff16815250908060018154018082558091505060019003905f5260205f2090600402015f909190919091505f820151815f01556020820151816001015f6101000a81548160ff021916908360ff160217905550604082015181600201556060820151816003015f6101000a81548173ffffffffffffffffffffffffffffffffffffffff021916908373ffffffffffffffffffffffffffffffffffffffff16021790555050507f55f3b2b2bc9c07499976075b3a9a78344b888c51b194889c9214c6eba4bf01138282604051610d7d929190611942565b60405180910390a15050565b5f60015f8581526020019081526020015f206002015f9054906101000a900460ff16610dea576040517f08c379a0000000000000000000000000000000000000000000000000000000008152600401610de1906116a5565b60405180910390fd5b5f5f9054906101000a900473ffffffffffffffffffffffffffffffffffffffff1673ffffffffffffffffffffffffffffffffffffffff163373ffffffffffffffffffffffffffffffffffffffff1614610e78576040517f08c379a0000000000000000000000000000000000000000000000000000000008152600401610e6f90611924565b60405180910390fd5b60015f8581526020019081526020015f2060030160405180608001604052804281526020018560ff1681526020018481526020013373ffffffffffffffffffffffffffffffffffffffff16815250908060018154018082558091505060019003905f5260205f2090600402015f909190919091505f820151815f01556020820151816001015f6101000a81548160ff021916908360ff160217905550604082015181600201556060820151816003015f6101000a81548173ffffffffffffffffffffffffffffffffffffffff021916908373ffffffffffffffffffffffffffffffffffffffff16021790555050507f02fd7cca134bdc372692f9e8679a7046060ca6da0c386e7494b18b9c21b10652848484604051610f9993929190611626565b60405180910390a1600190509392505050565b60405180608001604052805f81526020015f81526020015f15158152602001606081525090565b5f73ffffffffffffffffffffffffffffffffffffffff82169050919050565b5f610ffc82610fd3565b9050919050565b61100c81610ff2565b82525050565b5f6020820190506110255f830184611003565b92915050565b5f5ffd5b5f819050919050565b6110418161102f565b811461104b575f5ffd5b50565b5f8135905061105c81611038565b92915050565b5f60ff82169050919050565b61107781611062565b8114611081575f5ffd5b50565b5f813590506110928161106e565b92915050565b5f819050919050565b6110aa81611098565b81146110b4575f5ffd5b50565b5f813590506110c5816110a1565b92915050565b5f5f5f606084860312156110e2576110e161102b565b5b5f6110ef8682870161104e565b935050602061110086828701611084565b9250506040611111868287016110b7565b9150509250925092565b5f8115159050919050565b61112f8161111b565b82525050565b5f6020820190506111485f830184611126565b92915050565b6111578161102f565b82525050565b5f6020820190506111705f83018461114e565b92915050565b5f6020828403121561118b5761118a61102b565b5b5f6111988482850161104e565b91505092915050565b6111aa8161102f565b82525050565b6111b98161111b565b82525050565b5f81519050919050565b5f82825260208201905092915050565b5f819050602082019050919050565b6111f181611062565b82525050565b61120081611098565b82525050565b61120f81610ff2565b82525050565b608082015f8201516112295f8501826111a1565b50602082015161123c60208501826111e8565b50604082015161124f60408501826111f7565b5060608201516112626060850182611206565b50505050565b5f6112738383611215565b60808301905092915050565b5f602082019050919050565b5f611295826111bf565b61129f81856111c9565b93506112aa836111d9565b805f5b838110156112da5781516112c18882611268565b97506112cc8361127f565b9250506001810190506112ad565b5085935050505092915050565b5f608083015f8301516112fc5f8601826111a1565b50602083015161130f60208601826111a1565b50604083015161132260408601826111b0565b506060830151848203606086015261133a828261128b565b9150508091505092915050565b5f6020820190508181035f83015261135f81846112e7565b905092915050565b5f5f5f5f5f60a086880312156113805761137f61102b565b5b5f61138d8882890161104e565b955050602061139e8882890161104e565b94505060406113af88828901611084565b93505060606113c0888289016110b7565b92505060806113d18882890161104e565b9150509295509295909350565b6113e781611062565b82525050565b6113f681611098565b82525050565b5f60a08201905061140f5f83018861114e565b61141c602083018761114e565b61142960408301866113de565b611436606083018561114e565b61144360808301846113ed565b9695505050505050565b5f5f5f5f5f5f60c087890312156114675761146661102b565b5b5f61147489828a0161104e565b965050602061148589828a0161104e565b955050604061149689828a016110b7565b94505060606114a789828a0161104e565b93505060806114b889828a0161104e565b92505060a06114c989828a01611084565b9150509295509295509295565b5f5f604083850312156114ec576114eb61102b565b5b5f6114f98582860161104e565b925050602061150a85828601611084565b9150509250929050565b5f8160f81b9050919050565b5f61152a82611514565b9050919050565b61154261153d82611062565b611520565b82525050565b5f6115538284611531565b60018201915081905092915050565b5f82825260208201905092915050565b7f726573756c7461646f20696e76616c6964613a207573652028302920706172615f8201527f204170726f626164612c20283129207061726120417263686976616461206f2060208201527f28322920706172612052656368617a6164610000000000000000000000000000604082015250565b5f6115f2605283611562565b91506115fd82611572565b606082019050919050565b5f6020820190508181035f83015261161f816115e6565b9050919050565b5f6060820190506116395f83018661114e565b61164660208301856113de565b61165360408301846113ed565b949350505050565b7f4c6120616374756163696f6e206e6f20657869737465000000000000000000005f82015250565b5f61168f601683611562565b915061169a8261165b565b602082019050919050565b5f6020820190508181035f8301526116bc81611683565b9050919050565b7f4c6120616374756163696f6e20796120657869737465000000000000000000005f82015250565b5f6116f7601683611562565b9150611702826116c3565b602082019050919050565b5f6020820190508181035f830152611724816116eb565b9050919050565b7f4e6f2073652068612070616761646f206c6120746172696661206465207265675f8201527f697374726f000000000000000000000000000000000000000000000000000000602082015250565b5f611785602583611562565b91506117908261172b565b604082019050919050565b5f6020820190508181035f8301526117b281611779565b9050919050565b5f60a0820190506117cc5f83018861114e565b6117d9602083018761114e565b6117e6604083018661114e565b6117f360608301856113de565b61180060808301846113ed565b9695505050505050565b7f4e487b71000000000000000000000000000000000000000000000000000000005f52601160045260245ffd5b5f6118418261102f565b915061184c8361102f565b92508282039050818111156118645761186361180a565b5b92915050565b7f4e487b71000000000000000000000000000000000000000000000000000000005f52603260045260245ffd5b5f6080820190506118aa5f83018761114e565b6118b7602083018661114e565b6118c460408301856113de565b6118d160608301846113ed565b95945050505050565b7f4e6f20657320656c2070726f706965746172696f0000000000000000000000005f82015250565b5f61190e601483611562565b9150611919826118da565b602082019050919050565b5f6020820190508181035f83015261193b81611902565b9050919050565b5f6040820190506119555f83018561114e565b61196260208301846113de565b939250505056fea26469706673582212209f70e516bac7de3727adee6e24d015ae9306b8e6e6d0cd563813d66f81ad183464736f6c63430008220033",
					"opcodes": "PUSH1 0x80 PUSH1 0x40 MSTORE CALLVALUE DUP1 ISZERO PUSH1 0xE JUMPI PUSH0 PUSH0 REVERT JUMPDEST POP CALLER PUSH0 PUSH0 PUSH2 0x100 EXP DUP2 SLOAD DUP2 PUSH20 0xFFFFFFFFFFFFFFFFFFFFFFFFFFFFFFFFFFFFFFFF MUL NOT AND SWAP1 DUP4 PUSH20 0xFFFFFFFFFFFFFFFFFFFFFFFFFFFFFFFFFFFFFFFF AND MUL OR SWAP1 SSTORE POP PUSH2 0x199F DUP1 PUSH2 0x5B PUSH0 CODECOPY PUSH0 RETURN INVALID PUSH1 0x80 PUSH1 0x40 MSTORE PUSH1 0x4 CALLDATASIZE LT PUSH2 0x90 JUMPI PUSH0 CALLDATALOAD PUSH1 0xE0 SHR DUP1 PUSH4 0xC0B330B6 GT PUSH2 0x58 JUMPI DUP1 PUSH4 0xC0B330B6 EQ PUSH2 0x17C JUMPI DUP1 PUSH4 0xC631BA01 EQ PUSH2 0x1BC JUMPI DUP1 PUSH4 0xC83E9D6D EQ PUSH2 0x1D8 JUMPI DUP1 PUSH4 0xD986A2A3 EQ PUSH2 0x200 JUMPI DUP1 PUSH4 0xF904DD5B EQ PUSH2 0x228 JUMPI PUSH2 0x90 JUMP JUMPDEST DUP1 PUSH4 0x3C4F81CD EQ PUSH2 0x94 JUMPI DUP1 PUSH4 0x3CBDC2D3 EQ PUSH2 0xBE JUMPI DUP1 PUSH4 0x52B5241E EQ PUSH2 0xFA JUMPI DUP1 PUSH4 0x8E8A5876 EQ PUSH2 0x124 JUMPI DUP1 PUSH4 0x906A11DF EQ PUSH2 0x160 JUMPI JUMPDEST PUSH0 PUSH0 REVERT JUMPDEST CALLVALUE DUP1 ISZERO PUSH2 0x9F JUMPI PUSH0 PUSH0 REVERT JUMPDEST POP PUSH2 0xA8 PUSH2 0x264 JUMP JUMPDEST PUSH1 0x40 MLOAD PUSH2 0xB5 SWAP2 SWAP1 PUSH2 0x1012 JUMP JUMPDEST PUSH1 0x40 MLOAD DUP1 SWAP2 SUB SWAP1 RETURN JUMPDEST CALLVALUE DUP1 ISZERO PUSH2 0xC9 JUMPI PUSH0 PUSH0 REVERT JUMPDEST POP PUSH2 0xE4 PUSH1 0x4 DUP1 CALLDATASIZE SUB DUP2 ADD SWAP1 PUSH2 0xDF SWAP2 SWAP1 PUSH2 0x10CB JUMP JUMPDEST PUSH2 0x288 JUMP JUMPDEST PUSH1 0x40 MLOAD PUSH2 0xF1 SWAP2 SWAP1 PUSH2 0x1135 JUMP JUMPDEST PUSH1 0x40 MLOAD DUP1 SWAP2 SUB SWAP1 RETURN JUMPDEST CALLVALUE DUP1 ISZERO PUSH2 0x105 JUMPI PUSH0 PUSH0 REVERT JUMPDEST POP PUSH2 0x10E PUSH2 0x417 JUMP JUMPDEST PUSH1 0x40 MLOAD PUSH2 0x11B SWAP2 SWAP1 PUSH2 0x115D JUMP JUMPDEST PUSH1 0x40 MLOAD DUP1 SWAP2 SUB SWAP1 RETURN JUMPDEST CALLVALUE DUP1 ISZERO PUSH2 0x12F JUMPI PUSH0 PUSH0 REVERT JUMPDEST POP PUSH2 0x14A PUSH1 0x4 DUP1 CALLDATASIZE SUB DUP2 ADD SWAP1 PUSH2 0x145 SWAP2 SWAP1 PUSH2 0x1176 JUMP JUMPDEST PUSH2 0x41D JUMP JUMPDEST PUSH1 0x40 MLOAD PUSH2 0x157 SWAP2 SWAP1 PUSH2 0x1347 JUMP JUMPDEST PUSH1 0x40 MLOAD DUP1 SWAP2 SUB SWAP1 RETURN JUMPDEST PUSH2 0x17A PUSH1 0x4 DUP1 CALLDATASIZE SUB DUP2 ADD SWAP1 PUSH2 0x175 SWAP2 SWAP1 PUSH2 0x1367 JUMP JUMPDEST PUSH2 0x5B5 JUMP JUMPDEST STOP JUMPDEST CALLVALUE DUP1 ISZERO PUSH2 0x187 JUMPI PUSH0 PUSH0 REVERT JUMPDEST POP PUSH2 0x1A2 PUSH1 0x4 DUP1 CALLDATASIZE SUB DUP2 ADD SWAP1 PUSH2 0x19D SWAP2 SWAP1 PUSH2 0x1176 JUMP JUMPDEST PUSH2 0x7E7 JUMP JUMPDEST PUSH1 0x40 MLOAD PUSH2 0x1B3 SWAP6 SWAP5 SWAP4 SWAP3 SWAP2 SWAP1 PUSH2 0x13FC JUMP JUMPDEST PUSH1 0x40 MLOAD DUP1 SWAP2 SUB SWAP1 RETURN JUMPDEST PUSH2 0x1D6 PUSH1 0x4 DUP1 CALLDATASIZE SUB DUP2 ADD SWAP1 PUSH2 0x1D1 SWAP2 SWAP1 PUSH2 0x144D JUMP JUMPDEST PUSH2 0x896 JUMP JUMPDEST STOP JUMPDEST CALLVALUE DUP1 ISZERO PUSH2 0x1E3 JUMPI PUSH0 PUSH0 REVERT JUMPDEST POP PUSH2 0x1FE PUSH1 0x4 DUP1 CALLDATASIZE SUB DUP2 ADD SWAP1 PUSH2 0x1F9 SWAP2 SWAP1 PUSH2 0x14D6 JUMP JUMPDEST PUSH2 0xA24 JUMP JUMPDEST STOP JUMPDEST CALLVALUE DUP1 ISZERO PUSH2 0x20B JUMPI PUSH0 PUSH0 REVERT JUMPDEST POP PUSH2 0x226 PUSH1 0x4 DUP1 CALLDATASIZE SUB DUP2 ADD SWAP1 PUSH2 0x221 SWAP2 SWAP1 PUSH2 0x14D6 JUMP JUMPDEST PUSH2 0xB6E JUMP JUMPDEST STOP JUMPDEST CALLVALUE DUP1 ISZERO PUSH2 0x233 JUMPI PUSH0 PUSH0 REVERT JUMPDEST POP PUSH2 0x24E PUSH1 0x4 DUP1 CALLDATASIZE SUB DUP2 ADD SWAP1 PUSH2 0x249 SWAP2 SWAP1 PUSH2 0x10CB JUMP JUMPDEST PUSH2 0xD89 JUMP JUMPDEST PUSH1 0x40 MLOAD PUSH2 0x25B SWAP2 SWAP1 PUSH2 0x1135 JUMP JUMPDEST PUSH1 0x40 MLOAD DUP1 SWAP2 SUB SWAP1 RETURN JUMPDEST PUSH0 PUSH0 SWAP1 SLOAD SWAP1 PUSH2 0x100 EXP SWAP1 DIV PUSH20 0xFFFFFFFFFFFFFFFFFFFFFFFFFFFFFFFFFFFFFFFF AND DUP2 JUMP JUMPDEST PUSH0 PUSH0 PUSH1 0x40 MLOAD PUSH1 0x20 ADD PUSH2 0x29A SWAP2 SWAP1 PUSH2 0x1548 JUMP JUMPDEST PUSH1 0x40 MLOAD PUSH1 0x20 DUP2 DUP4 SUB SUB DUP2 MSTORE SWAP1 PUSH1 0x40 MSTORE DUP1 MLOAD SWAP1 PUSH1 0x20 ADD KECCAK256 DUP4 PUSH1 0x40 MLOAD PUSH1 0x20 ADD PUSH2 0x2C1 SWAP2 SWAP1 PUSH2 0x1548 JUMP JUMPDEST PUSH1 0x40 MLOAD PUSH1 0x20 DUP2 DUP4 SUB SUB DUP2 MSTORE SWAP1 PUSH1 0x40 MSTORE DUP1 MLOAD SWAP1 PUSH1 0x20 ADD KECCAK256 EQ DUP1 PUSH2 0x32F JUMPI POP PUSH1 0x1 PUSH1 0x40 MLOAD PUSH1 0x20 ADD PUSH2 0x2F0 SWAP2 SWAP1 PUSH2 0x1548 JUMP JUMPDEST PUSH1 0x40 MLOAD PUSH1 0x20 DUP2 DUP4 SUB SUB DUP2 MSTORE SWAP1 PUSH1 0x40 MSTORE DUP1 MLOAD SWAP1 PUSH1 0x20 ADD KECCAK256 DUP4 PUSH1 0x40 MLOAD PUSH1 0x20 ADD PUSH2 0x317 SWAP2 SWAP1 PUSH2 0x1548 JUMP JUMPDEST PUSH1 0x40 MLOAD PUSH1 0x20 DUP2 DUP4 SUB SUB DUP2 MSTORE SWAP1 PUSH1 0x40 MSTORE DUP1 MLOAD SWAP1 PUSH1 0x20 ADD KECCAK256 EQ JUMPDEST DUP1 PUSH2 0x386 JUMPI POP PUSH1 0x2 PUSH1 0x40 MLOAD PUSH1 0x20 ADD PUSH2 0x347 SWAP2 SWAP1 PUSH2 0x1548 JUMP JUMPDEST PUSH1 0x40 MLOAD PUSH1 0x20 DUP2 DUP4 SUB SUB DUP2 MSTORE SWAP1 PUSH1 0x40 MSTORE DUP1 MLOAD SWAP1 PUSH1 0x20 ADD KECCAK256 DUP4 PUSH1 0x40 MLOAD PUSH1 0x20 ADD PUSH2 0x36E SWAP2 SWAP1 PUSH2 0x1548 JUMP JUMPDEST PUSH1 0x40 MLOAD PUSH1 0x20 DUP2 DUP4 SUB SUB DUP2 MSTORE SWAP1 PUSH1 0x40 MSTORE DUP1 MLOAD SWAP1 PUSH1 0x20 ADD KECCAK256 EQ JUMPDEST PUSH2 0x3C5 JUMPI PUSH1 0x40 MLOAD PUSH32 0x8C379A000000000000000000000000000000000000000000000000000000000 DUP2 MSTORE PUSH1 0x4 ADD PUSH2 0x3BC SWAP1 PUSH2 0x1608 JUMP JUMPDEST PUSH1 0x40 MLOAD DUP1 SWAP2 SUB SWAP1 REVERT JUMPDEST PUSH2 0x3D0 DUP5 DUP5 DUP5 PUSH2 0xD89 JUMP JUMPDEST POP PUSH32 0x10F5EBEDF0718619B5B15D769C3CCCF914EAF6C44B2B6E71FF939545CC737BBE DUP5 DUP5 DUP5 PUSH1 0x40 MLOAD PUSH2 0x404 SWAP4 SWAP3 SWAP2 SWAP1 PUSH2 0x1626 JUMP JUMPDEST PUSH1 0x40 MLOAD DUP1 SWAP2 SUB SWAP1 LOG1 PUSH1 0x1 SWAP1 POP SWAP4 SWAP3 POP POP POP JUMP JUMPDEST PUSH2 0x1F4 DUP2 JUMP JUMPDEST PUSH2 0x425 PUSH2 0xFAC JUMP JUMPDEST PUSH1 0x1 PUSH0 DUP4 DUP2 MSTORE PUSH1 0x20 ADD SWAP1 DUP2 MSTORE PUSH1 0x20 ADD PUSH0 KECCAK256 PUSH1 0x2 ADD PUSH0 SWAP1 SLOAD SWAP1 PUSH2 0x100 EXP SWAP1 DIV PUSH1 0xFF AND PUSH2 0x485 JUMPI PUSH1 0x40 MLOAD PUSH32 0x8C379A000000000000000000000000000000000000000000000000000000000 DUP2 MSTORE PUSH1 0x4 ADD PUSH2 0x47C SWAP1 PUSH2 0x16A5 JUMP JUMPDEST PUSH1 0x40 MLOAD DUP1 SWAP2 SUB SWAP1 REVERT JUMPDEST PUSH1 0x1 PUSH0 DUP4 DUP2 MSTORE PUSH1 0x20 ADD SWAP1 DUP2 MSTORE PUSH1 0x20 ADD PUSH0 KECCAK256 PUSH1 0x40 MLOAD DUP1 PUSH1 0x80 ADD PUSH1 0x40 MSTORE SWAP1 DUP2 PUSH0 DUP3 ADD SLOAD DUP2 MSTORE PUSH1 0x20 ADD PUSH1 0x1 DUP3 ADD SLOAD DUP2 MSTORE PUSH1 0x20 ADD PUSH1 0x2 DUP3 ADD PUSH0 SWAP1 SLOAD SWAP1 PUSH2 0x100 EXP SWAP1 DIV PUSH1 0xFF AND ISZERO ISZERO ISZERO ISZERO DUP2 MSTORE PUSH1 0x20 ADD PUSH1 0x3 DUP3 ADD DUP1 SLOAD DUP1 PUSH1 0x20 MUL PUSH1 0x20 ADD PUSH1 0x40 MLOAD SWAP1 DUP2 ADD PUSH1 0x40 MSTORE DUP1 SWAP3 SWAP2 SWAP1 DUP2 DUP2 MSTORE PUSH1 0x20 ADD PUSH0 SWAP1 JUMPDEST DUP3 DUP3 LT ISZERO PUSH2 0x5A6 JUMPI DUP4 DUP3 SWAP1 PUSH0 MSTORE PUSH1 0x20 PUSH0 KECCAK256 SWAP1 PUSH1 0x4 MUL ADD PUSH1 0x40 MLOAD DUP1 PUSH1 0x80 ADD PUSH1 0x40 MSTORE SWAP1 DUP2 PUSH0 DUP3 ADD SLOAD DUP2 MSTORE PUSH1 0x20 ADD PUSH1 0x1 DUP3 ADD PUSH0 SWAP1 SLOAD SWAP1 PUSH2 0x100 EXP SWAP1 DIV PUSH1 0xFF AND PUSH1 0xFF AND PUSH1 0xFF AND DUP2 MSTORE PUSH1 0x20 ADD PUSH1 0x2 DUP3 ADD SLOAD DUP2 MSTORE PUSH1 0x20 ADD PUSH1 0x3 DUP3 ADD PUSH0 SWAP1 SLOAD SWAP1 PUSH2 0x100 EXP SWAP1 DIV PUSH20 0xFFFFFFFFFFFFFFFFFFFFFFFFFFFFFFFFFFFFFFFF AND PUSH20 0xFFFFFFFFFFFFFFFFFFFFFFFFFFFFFFFFFFFFFFFF AND PUSH20 0xFFFFFFFFFFFFFFFFFFFFFFFFFFFFFFFFFFFFFFFF AND DUP2 MSTORE POP POP DUP2 MSTORE PUSH1 0x20 ADD SWAP1 PUSH1 0x1 ADD SWAP1 PUSH2 0x4F2 JUMP JUMPDEST POP POP POP POP DUP2 MSTORE POP POP SWAP1 POP SWAP2 SWAP1 POP JUMP JUMPDEST PUSH1 0x1 PUSH0 DUP7 DUP2 MSTORE PUSH1 0x20 ADD SWAP1 DUP2 MSTORE PUSH1 0x20 ADD PUSH0 KECCAK256 PUSH1 0x2 ADD PUSH0 SWAP1 SLOAD SWAP1 PUSH2 0x100 EXP SWAP1 DIV PUSH1 0xFF AND ISZERO PUSH2 0x616 JUMPI PUSH1 0x40 MLOAD PUSH32 0x8C379A000000000000000000000000000000000000000000000000000000000 DUP2 MSTORE PUSH1 0x4 ADD PUSH2 0x60D SWAP1 PUSH2 0x170D JUMP JUMPDEST PUSH1 0x40 MLOAD DUP1 SWAP2 SUB SWAP1 REVERT JUMPDEST PUSH2 0x1F4 CALLVALUE LT ISZERO PUSH2 0x65B JUMPI PUSH1 0x40 MLOAD PUSH32 0x8C379A000000000000000000000000000000000000000000000000000000000 DUP2 MSTORE PUSH1 0x4 ADD PUSH2 0x652 SWAP1 PUSH2 0x179B JUMP JUMPDEST PUSH1 0x40 MLOAD DUP1 SWAP2 SUB SWAP1 REVERT JUMPDEST PUSH0 PUSH1 0x1 PUSH0 DUP8 DUP2 MSTORE PUSH1 0x20 ADD SWAP1 DUP2 MSTORE PUSH1 0x20 ADD PUSH0 KECCAK256 SWAP1 POP PUSH1 0x1 DUP2 PUSH1 0x2 ADD PUSH0 PUSH2 0x100 EXP DUP2 SLOAD DUP2 PUSH1 0xFF MUL NOT AND SWAP1 DUP4 ISZERO ISZERO MUL OR SWAP1 SSTORE POP DUP5 DUP2 PUSH1 0x1 ADD DUP2 SWAP1 SSTORE POP DUP2 DUP2 PUSH0 ADD DUP2 SWAP1 SSTORE POP DUP1 PUSH1 0x3 ADD PUSH1 0x40 MLOAD DUP1 PUSH1 0x80 ADD PUSH1 0x40 MSTORE DUP1 TIMESTAMP DUP2 MSTORE PUSH1 0x20 ADD DUP7 PUSH1 0xFF AND DUP2 MSTORE PUSH1 0x20 ADD DUP6 DUP2 MSTORE PUSH1 0x20 ADD CALLER PUSH20 0xFFFFFFFFFFFFFFFFFFFFFFFFFFFFFFFFFFFFFFFF AND DUP2 MSTORE POP SWAP1 DUP1 PUSH1 0x1 DUP2 SLOAD ADD DUP1 DUP3 SSTORE DUP1 SWAP2 POP POP PUSH1 0x1 SWAP1 SUB SWAP1 PUSH0 MSTORE PUSH1 0x20 PUSH0 KECCAK256 SWAP1 PUSH1 0x4 MUL ADD PUSH0 SWAP1 SWAP2 SWAP1 SWAP2 SWAP1 SWAP2 POP PUSH0 DUP3 ADD MLOAD DUP2 PUSH0 ADD SSTORE PUSH1 0x20 DUP3 ADD MLOAD DUP2 PUSH1 0x1 ADD PUSH0 PUSH2 0x100 EXP DUP2 SLOAD DUP2 PUSH1 0xFF MUL NOT AND SWAP1 DUP4 PUSH1 0xFF AND MUL OR SWAP1 SSTORE POP PUSH1 0x40 DUP3 ADD MLOAD DUP2 PUSH1 0x2 ADD SSTORE PUSH1 0x60 DUP3 ADD MLOAD DUP2 PUSH1 0x3 ADD PUSH0 PUSH2 0x100 EXP DUP2 SLOAD DUP2 PUSH20 0xFFFFFFFFFFFFFFFFFFFFFFFFFFFFFFFFFFFFFFFF MUL NOT AND SWAP1 DUP4 PUSH20 0xFFFFFFFFFFFFFFFFFFFFFFFFFFFFFFFFFFFFFFFF AND MUL OR SWAP1 SSTORE POP POP POP PUSH1 0x2 DUP7 SWAP1 DUP1 PUSH1 0x1 DUP2 SLOAD ADD DUP1 DUP3 SSTORE DUP1 SWAP2 POP POP PUSH1 0x1 SWAP1 SUB SWAP1 PUSH0 MSTORE PUSH1 0x20 PUSH0 KECCAK256 ADD PUSH0 SWAP1 SWAP2 SWAP1 SWAP2 SWAP1 SWAP2 POP SSTORE PUSH32 0x164383A2B97191661E35FD7054520C2ABDF173025E32983B038ECB35A796CDA7 DUP7 DUP4 DUP8 DUP8 DUP8 PUSH1 0x40 MLOAD PUSH2 0x7D7 SWAP6 SWAP5 SWAP4 SWAP3 SWAP2 SWAP1 PUSH2 0x17B9 JUMP JUMPDEST PUSH1 0x40 MLOAD DUP1 SWAP2 SUB SWAP1 LOG1 POP POP POP POP POP POP JUMP JUMPDEST PUSH0 PUSH0 PUSH0 PUSH0 PUSH0 PUSH0 PUSH2 0x7F6 DUP8 PUSH2 0x41D JUMP JUMPDEST SWAP1 POP PUSH0 PUSH1 0x3 PUSH0 DUP10 DUP2 MSTORE PUSH1 0x20 ADD SWAP1 DUP2 MSTORE PUSH1 0x20 ADD PUSH0 KECCAK256 SWAP1 POP DUP2 PUSH0 ADD MLOAD DUP3 PUSH1 0x20 ADD MLOAD DUP4 PUSH1 0x60 ADD MLOAD PUSH1 0x1 DUP6 PUSH1 0x60 ADD MLOAD MLOAD PUSH2 0x82C SWAP2 SWAP1 PUSH2 0x1837 JUMP JUMPDEST DUP2 MLOAD DUP2 LT PUSH2 0x83D JUMPI PUSH2 0x83C PUSH2 0x186A JUMP JUMPDEST JUMPDEST PUSH1 0x20 MUL PUSH1 0x20 ADD ADD MLOAD PUSH1 0x20 ADD MLOAD DUP4 PUSH0 ADD SLOAD DUP6 PUSH1 0x60 ADD MLOAD PUSH1 0x1 DUP8 PUSH1 0x60 ADD MLOAD MLOAD PUSH2 0x864 SWAP2 SWAP1 PUSH2 0x1837 JUMP JUMPDEST DUP2 MLOAD DUP2 LT PUSH2 0x875 JUMPI PUSH2 0x874 PUSH2 0x186A JUMP JUMPDEST JUMPDEST PUSH1 0x20 MUL PUSH1 0x20 ADD ADD MLOAD PUSH1 0x40 ADD MLOAD SWAP7 POP SWAP7 POP SWAP7 POP SWAP7 POP SWAP7 POP POP POP SWAP2 SWAP4 SWAP6 SWAP1 SWAP3 SWAP5 POP JUMP JUMPDEST PUSH0 PUSH1 0x40 MLOAD PUSH1 0x20 ADD PUSH2 0x8A7 SWAP2 SWAP1 PUSH2 0x1548 JUMP JUMPDEST PUSH1 0x40 MLOAD PUSH1 0x20 DUP2 DUP4 SUB SUB DUP2 MSTORE SWAP1 PUSH1 0x40 MSTORE DUP1 MLOAD SWAP1 PUSH1 0x20 ADD KECCAK256 DUP2 PUSH1 0x40 MLOAD PUSH1 0x20 ADD PUSH2 0x8CE SWAP2 SWAP1 PUSH2 0x1548 JUMP JUMPDEST PUSH1 0x40 MLOAD PUSH1 0x20 DUP2 DUP4 SUB SUB DUP2 MSTORE SWAP1 PUSH1 0x40 MSTORE DUP1 MLOAD SWAP1 PUSH1 0x20 ADD KECCAK256 EQ DUP1 PUSH2 0x93C JUMPI POP PUSH1 0x1 PUSH1 0x40 MLOAD PUSH1 0x20 ADD PUSH2 0x8FD SWAP2 SWAP1 PUSH2 0x1548 JUMP JUMPDEST PUSH1 0x40 MLOAD PUSH1 0x20 DUP2 DUP4 SUB SUB DUP2 MSTORE SWAP1 PUSH1 0x40 MSTORE DUP1 MLOAD SWAP1 PUSH1 0x20 ADD KECCAK256 DUP2 PUSH1 0x40 MLOAD PUSH1 0x20 ADD PUSH2 0x924 SWAP2 SWAP1 PUSH2 0x1548 JUMP JUMPDEST PUSH1 0x40 MLOAD PUSH1 0x20 DUP2 DUP4 SUB SUB DUP2 MSTORE SWAP1 PUSH1 0x40 MSTORE DUP1 MLOAD SWAP1 PUSH1 0x20 ADD KECCAK256 EQ JUMPDEST DUP1 PUSH2 0x993 JUMPI POP PUSH1 0x2 PUSH1 0x40 MLOAD PUSH1 0x20 ADD PUSH2 0x954 SWAP2 SWAP1 PUSH2 0x1548 JUMP JUMPDEST PUSH1 0x40 MLOAD PUSH1 0x20 DUP2 DUP4 SUB SUB DUP2 MSTORE SWAP1 PUSH1 0x40 MSTORE DUP1 MLOAD SWAP1 PUSH1 0x20 ADD KECCAK256 DUP2 PUSH1 0x40 MLOAD PUSH1 0x20 ADD PUSH2 0x97B SWAP2 SWAP1 PUSH2 0x1548 JUMP JUMPDEST PUSH1 0x40 MLOAD PUSH1 0x20 DUP2 DUP4 SUB SUB DUP2 MSTORE SWAP1 PUSH1 0x40 MSTORE DUP1 MLOAD SWAP1 PUSH1 0x20 ADD KECCAK256 EQ JUMPDEST PUSH2 0x9D2 JUMPI PUSH1 0x40 MLOAD PUSH32 0x8C379A000000000000000000000000000000000000000000000000000000000 DUP2 MSTORE PUSH1 0x4 ADD PUSH2 0x9C9 SWAP1 PUSH2 0x1608 JUMP JUMPDEST PUSH1 0x40 MLOAD DUP1 SWAP2 SUB SWAP1 REVERT JUMPDEST PUSH2 0x9DF DUP7 DUP7 DUP4 DUP8 DUP8 PUSH2 0x5B5 JUMP JUMPDEST PUSH32 0x5694B19B2CFCF39A4309E7D5015B841327B2020FF7DFBE0C17328B4C90AED71E DUP7 DUP4 DUP4 DUP8 PUSH1 0x40 MLOAD PUSH2 0xA14 SWAP5 SWAP4 SWAP3 SWAP2 SWAP1 PUSH2 0x1897 JUMP JUMPDEST PUSH1 0x40 MLOAD DUP1 SWAP2 SUB SWAP1 LOG1 POP POP POP POP POP POP JUMP JUMPDEST PUSH0 PUSH1 0x40 MLOAD PUSH1 0x20 ADD PUSH2 0xA35 SWAP2 SWAP1 PUSH2 0x1548 JUMP JUMPDEST PUSH1 0x40 MLOAD PUSH1 0x20 DUP2 DUP4 SUB SUB DUP2 MSTORE SWAP1 PUSH1 0x40 MSTORE DUP1 MLOAD SWAP1 PUSH1 0x20 ADD KECCAK256 DUP2 PUSH1 0x40 MLOAD PUSH1 0x20 ADD PUSH2 0xA5C SWAP2 SWAP1 PUSH2 0x1548 JUMP JUMPDEST PUSH1 0x40 MLOAD PUSH1 0x20 DUP2 DUP4 SUB SUB DUP2 MSTORE SWAP1 PUSH1 0x40 MSTORE DUP1 MLOAD SWAP1 PUSH1 0x20 ADD KECCAK256 EQ DUP1 PUSH2 0xACA JUMPI POP PUSH1 0x1 PUSH1 0x40 MLOAD PUSH1 0x20 ADD PUSH2 0xA8B SWAP2 SWAP1 PUSH2 0x1548 JUMP JUMPDEST PUSH1 0x40 MLOAD PUSH1 0x20 DUP2 DUP4 SUB SUB DUP2 MSTORE SWAP1 PUSH1 0x40 MSTORE DUP1 MLOAD SWAP1 PUSH1 0x20 ADD KECCAK256 DUP2 PUSH1 0x40 MLOAD PUSH1 0x20 ADD PUSH2 0xAB2 SWAP2 SWAP1 PUSH2 0x1548 JUMP JUMPDEST PUSH1 0x40 MLOAD PUSH1 0x20 DUP2 DUP4 SUB SUB DUP2 MSTORE SWAP1 PUSH1 0x40 MSTORE DUP1 MLOAD SWAP1 PUSH1 0x20 ADD KECCAK256 EQ JUMPDEST DUP1 PUSH2 0xB21 JUMPI POP PUSH1 0x2 PUSH1 0x40 MLOAD PUSH1 0x20 ADD PUSH2 0xAE2 SWAP2 SWAP1 PUSH2 0x1548 JUMP JUMPDEST PUSH1 0x40 MLOAD PUSH1 0x20 DUP2 DUP4 SUB SUB DUP2 MSTORE SWAP1 PUSH1 0x40 MSTORE DUP1 MLOAD SWAP1 PUSH1 0x20 ADD KECCAK256 DUP2 PUSH1 0x40 MLOAD PUSH1 0x20 ADD PUSH2 0xB09 SWAP2 SWAP1 PUSH2 0x1548 JUMP JUMPDEST PUSH1 0x40 MLOAD PUSH1 0x20 DUP2 DUP4 SUB SUB DUP2 MSTORE SWAP1 PUSH1 0x40 MSTORE DUP1 MLOAD SWAP1 PUSH1 0x20 ADD KECCAK256 EQ JUMPDEST PUSH2 0xB60 JUMPI PUSH1 0x40 MLOAD PUSH32 0x8C379A000000000000000000000000000000000000000000000000000000000 DUP2 MSTORE PUSH1 0x4 ADD PUSH2 0xB57 SWAP1 PUSH2 0x1608 JUMP JUMPDEST PUSH1 0x40 MLOAD DUP1 SWAP2 SUB SWAP1 REVERT JUMPDEST PUSH2 0xB6A DUP3 DUP3 PUSH2 0xB6E JUMP JUMPDEST POP POP JUMP JUMPDEST PUSH1 0x1 PUSH0 DUP4 DUP2 MSTORE PUSH1 0x20 ADD SWAP1 DUP2 MSTORE PUSH1 0x20 ADD PUSH0 KECCAK256 PUSH1 0x2 ADD PUSH0 SWAP1 SLOAD SWAP1 PUSH2 0x100 EXP SWAP1 DIV PUSH1 0xFF AND PUSH2 0xBCE JUMPI PUSH1 0x40 MLOAD PUSH32 0x8C379A000000000000000000000000000000000000000000000000000000000 DUP2 MSTORE PUSH1 0x4 ADD PUSH2 0xBC5 SWAP1 PUSH2 0x16A5 JUMP JUMPDEST PUSH1 0x40 MLOAD DUP1 SWAP2 SUB SWAP1 REVERT JUMPDEST PUSH0 PUSH0 SWAP1 SLOAD SWAP1 PUSH2 0x100 EXP SWAP1 DIV PUSH20 0xFFFFFFFFFFFFFFFFFFFFFFFFFFFFFFFFFFFFFFFF AND PUSH20 0xFFFFFFFFFFFFFFFFFFFFFFFFFFFFFFFFFFFFFFFF AND CALLER PUSH20 0xFFFFFFFFFFFFFFFFFFFFFFFFFFFFFFFFFFFFFFFF AND EQ PUSH2 0xC5C JUMPI PUSH1 0x40 MLOAD PUSH32 0x8C379A000000000000000000000000000000000000000000000000000000000 DUP2 MSTORE PUSH1 0x4 ADD PUSH2 0xC53 SWAP1 PUSH2 0x1924 JUMP JUMPDEST PUSH1 0x40 MLOAD DUP1 SWAP2 SUB SWAP1 REVERT JUMPDEST PUSH1 0x1 PUSH0 DUP4 DUP2 MSTORE PUSH1 0x20 ADD SWAP1 DUP2 MSTORE PUSH1 0x20 ADD PUSH0 KECCAK256 PUSH1 0x3 ADD PUSH1 0x40 MLOAD DUP1 PUSH1 0x80 ADD PUSH1 0x40 MSTORE DUP1 TIMESTAMP DUP2 MSTORE PUSH1 0x20 ADD DUP4 PUSH1 0xFF AND DUP2 MSTORE PUSH1 0x20 ADD PUSH0 PUSH0 SHL DUP2 MSTORE PUSH1 0x20 ADD CALLER PUSH20 0xFFFFFFFFFFFFFFFFFFFFFFFFFFFFFFFFFFFFFFFF AND DUP2 MSTORE POP SWAP1 DUP1 PUSH1 0x1 DUP2 SLOAD ADD DUP1 DUP3 SSTORE DUP1 SWAP2 POP POP PUSH1 0x1 SWAP1 SUB SWAP1 PUSH0 MSTORE PUSH1 0x20 PUSH0 KECCAK256 SWAP1 PUSH1 0x4 MUL ADD PUSH0 SWAP1 SWAP2 SWAP1 SWAP2 SWAP1 SWAP2 POP PUSH0 DUP3 ADD MLOAD DUP2 PUSH0 ADD SSTORE PUSH1 0x20 DUP3 ADD MLOAD DUP2 PUSH1 0x1 ADD PUSH0 PUSH2 0x100 EXP DUP2 SLOAD DUP2 PUSH1 0xFF MUL NOT AND SWAP1 DUP4 PUSH1 0xFF AND MUL OR SWAP1 SSTORE POP PUSH1 0x40 DUP3 ADD MLOAD DUP2 PUSH1 0x2 ADD SSTORE PUSH1 0x60 DUP3 ADD MLOAD DUP2 PUSH1 0x3 ADD PUSH0 PUSH2 0x100 EXP DUP2 SLOAD DUP2 PUSH20 0xFFFFFFFFFFFFFFFFFFFFFFFFFFFFFFFFFFFFFFFF MUL NOT AND SWAP1 DUP4 PUSH20 0xFFFFFFFFFFFFFFFFFFFFFFFFFFFFFFFFFFFFFFFF AND MUL OR SWAP1 SSTORE POP POP POP PUSH32 0x55F3B2B2BC9C07499976075B3A9A78344B888C51B194889C9214C6EBA4BF0113 DUP3 DUP3 PUSH1 0x40 MLOAD PUSH2 0xD7D SWAP3 SWAP2 SWAP1 PUSH2 0x1942 JUMP JUMPDEST PUSH1 0x40 MLOAD DUP1 SWAP2 SUB SWAP1 LOG1 POP POP JUMP JUMPDEST PUSH0 PUSH1 0x1 PUSH0 DUP6 DUP2 MSTORE PUSH1 0x20 ADD SWAP1 DUP2 MSTORE PUSH1 0x20 ADD PUSH0 KECCAK256 PUSH1 0x2 ADD PUSH0 SWAP1 SLOAD SWAP1 PUSH2 0x100 EXP SWAP1 DIV PUSH1 0xFF AND PUSH2 0xDEA JUMPI PUSH1 0x40 MLOAD PUSH32 0x8C379A000000000000000000000000000000000000000000000000000000000 DUP2 MSTORE PUSH1 0x4 ADD PUSH2 0xDE1 SWAP1 PUSH2 0x16A5 JUMP JUMPDEST PUSH1 0x40 MLOAD DUP1 SWAP2 SUB SWAP1 REVERT JUMPDEST PUSH0 PUSH0 SWAP1 SLOAD SWAP1 PUSH2 0x100 EXP SWAP1 DIV PUSH20 0xFFFFFFFFFFFFFFFFFFFFFFFFFFFFFFFFFFFFFFFF AND PUSH20 0xFFFFFFFFFFFFFFFFFFFFFFFFFFFFFFFFFFFFFFFF AND CALLER PUSH20 0xFFFFFFFFFFFFFFFFFFFFFFFFFFFFFFFFFFFFFFFF AND EQ PUSH2 0xE78 JUMPI PUSH1 0x40 MLOAD PUSH32 0x8C379A000000000000000000000000000000000000000000000000000000000 DUP2 MSTORE PUSH1 0x4 ADD PUSH2 0xE6F SWAP1 PUSH2 0x1924 JUMP JUMPDEST PUSH1 0x40 MLOAD DUP1 SWAP2 SUB SWAP1 REVERT JUMPDEST PUSH1 0x1 PUSH0 DUP6 DUP2 MSTORE PUSH1 0x20 ADD SWAP1 DUP2 MSTORE PUSH1 0x20 ADD PUSH0 KECCAK256 PUSH1 0x3 ADD PUSH1 0x40 MLOAD DUP1 PUSH1 0x80 ADD PUSH1 0x40 MSTORE DUP1 TIMESTAMP DUP2 MSTORE PUSH1 0x20 ADD DUP6 PUSH1 0xFF AND DUP2 MSTORE PUSH1 0x20 ADD DUP5 DUP2 MSTORE PUSH1 0x20 ADD CALLER PUSH20 0xFFFFFFFFFFFFFFFFFFFFFFFFFFFFFFFFFFFFFFFF AND DUP2 MSTORE POP SWAP1 DUP1 PUSH1 0x1 DUP2 SLOAD ADD DUP1 DUP3 SSTORE DUP1 SWAP2 POP POP PUSH1 0x1 SWAP1 SUB SWAP1 PUSH0 MSTORE PUSH1 0x20 PUSH0 KECCAK256 SWAP1 PUSH1 0x4 MUL ADD PUSH0 SWAP1 SWAP2 SWAP1 SWAP2 SWAP1 SWAP2 POP PUSH0 DUP3 ADD MLOAD DUP2 PUSH0 ADD SSTORE PUSH1 0x20 DUP3 ADD MLOAD DUP2 PUSH1 0x1 ADD PUSH0 PUSH2 0x100 EXP DUP2 SLOAD DUP2 PUSH1 0xFF MUL NOT AND SWAP1 DUP4 PUSH1 0xFF AND MUL OR SWAP1 SSTORE POP PUSH1 0x40 DUP3 ADD MLOAD DUP2 PUSH1 0x2 ADD SSTORE PUSH1 0x60 DUP3 ADD MLOAD DUP2 PUSH1 0x3 ADD PUSH0 PUSH2 0x100 EXP DUP2 SLOAD DUP2 PUSH20 0xFFFFFFFFFFFFFFFFFFFFFFFFFFFFFFFFFFFFFFFF MUL NOT AND SWAP1 DUP4 PUSH20 0xFFFFFFFFFFFFFFFFFFFFFFFFFFFFFFFFFFFFFFFF AND MUL OR SWAP1 SSTORE POP POP POP PUSH32 0x2FD7CCA134BDC372692F9E8679A7046060CA6DA0C386E7494B18B9C21B10652 DUP5 DUP5 DUP5 PUSH1 0x40 MLOAD PUSH2 0xF99 SWAP4 SWAP3 SWAP2 SWAP1 PUSH2 0x1626 JUMP JUMPDEST PUSH1 0x40 MLOAD DUP1 SWAP2 SUB SWAP1 LOG1 PUSH1 0x1 SWAP1 POP SWAP4 SWAP3 POP POP POP JUMP JUMPDEST PUSH1 0x40 MLOAD DUP1 PUSH1 0x80 ADD PUSH1 0x40 MSTORE DUP1 PUSH0 DUP2 MSTORE PUSH1 0x20 ADD PUSH0 DUP2 MSTORE PUSH1 0x20 ADD PUSH0 ISZERO ISZERO DUP2 MSTORE PUSH1 0x20 ADD PUSH1 0x60 DUP2 MSTORE POP SWAP1 JUMP JUMPDEST PUSH0 PUSH20 0xFFFFFFFFFFFFFFFFFFFFFFFFFFFFFFFFFFFFFFFF DUP3 AND SWAP1 POP SWAP2 SWAP1 POP JUMP JUMPDEST PUSH0 PUSH2 0xFFC DUP3 PUSH2 0xFD3 JUMP JUMPDEST SWAP1 POP SWAP2 SWAP1 POP JUMP JUMPDEST PUSH2 0x100C DUP2 PUSH2 0xFF2 JUMP JUMPDEST DUP3 MSTORE POP POP JUMP JUMPDEST PUSH0 PUSH1 0x20 DUP3 ADD SWAP1 POP PUSH2 0x1025 PUSH0 DUP4 ADD DUP5 PUSH2 0x1003 JUMP JUMPDEST SWAP3 SWAP2 POP POP JUMP JUMPDEST PUSH0 PUSH0 REVERT JUMPDEST PUSH0 DUP2 SWAP1 POP SWAP2 SWAP1 POP JUMP JUMPDEST PUSH2 0x1041 DUP2 PUSH2 0x102F JUMP JUMPDEST DUP2 EQ PUSH2 0x104B JUMPI PUSH0 PUSH0 REVERT JUMPDEST POP JUMP JUMPDEST PUSH0 DUP2 CALLDATALOAD SWAP1 POP PUSH2 0x105C DUP2 PUSH2 0x1038 JUMP JUMPDEST SWAP3 SWAP2 POP POP JUMP JUMPDEST PUSH0 PUSH1 0xFF DUP3 AND SWAP1 POP SWAP2 SWAP1 POP JUMP JUMPDEST PUSH2 0x1077 DUP2 PUSH2 0x1062 JUMP JUMPDEST DUP2 EQ PUSH2 0x1081 JUMPI PUSH0 PUSH0 REVERT JUMPDEST POP JUMP JUMPDEST PUSH0 DUP2 CALLDATALOAD SWAP1 POP PUSH2 0x1092 DUP2 PUSH2 0x106E JUMP JUMPDEST SWAP3 SWAP2 POP POP JUMP JUMPDEST PUSH0 DUP2 SWAP1 POP SWAP2 SWAP1 POP JUMP JUMPDEST PUSH2 0x10AA DUP2 PUSH2 0x1098 JUMP JUMPDEST DUP2 EQ PUSH2 0x10B4 JUMPI PUSH0 PUSH0 REVERT JUMPDEST POP JUMP JUMPDEST PUSH0 DUP2 CALLDATALOAD SWAP1 POP PUSH2 0x10C5 DUP2 PUSH2 0x10A1 JUMP JUMPDEST SWAP3 SWAP2 POP POP JUMP JUMPDEST PUSH0 PUSH0 PUSH0 PUSH1 0x60 DUP5 DUP7 SUB SLT ISZERO PUSH2 0x10E2 JUMPI PUSH2 0x10E1 PUSH2 0x102B JUMP JUMPDEST JUMPDEST PUSH0 PUSH2 0x10EF DUP7 DUP3 DUP8 ADD PUSH2 0x104E JUMP JUMPDEST SWAP4 POP POP PUSH1 0x20 PUSH2 0x1100 DUP7 DUP3 DUP8 ADD PUSH2 0x1084 JUMP JUMPDEST SWAP3 POP POP PUSH1 0x40 PUSH2 0x1111 DUP7 DUP3 DUP8 ADD PUSH2 0x10B7 JUMP JUMPDEST SWAP2 POP POP SWAP3 POP SWAP3 POP SWAP3 JUMP JUMPDEST PUSH0 DUP2 ISZERO ISZERO SWAP1 POP SWAP2 SWAP1 POP JUMP JUMPDEST PUSH2 0x112F DUP2 PUSH2 0x111B JUMP JUMPDEST DUP3 MSTORE POP POP JUMP JUMPDEST PUSH0 PUSH1 0x20 DUP3 ADD SWAP1 POP PUSH2 0x1148 PUSH0 DUP4 ADD DUP5 PUSH2 0x1126 JUMP JUMPDEST SWAP3 SWAP2 POP POP JUMP JUMPDEST PUSH2 0x1157 DUP2 PUSH2 0x102F JUMP JUMPDEST DUP3 MSTORE POP POP JUMP JUMPDEST PUSH0 PUSH1 0x20 DUP3 ADD SWAP1 POP PUSH2 0x1170 PUSH0 DUP4 ADD DUP5 PUSH2 0x114E JUMP JUMPDEST SWAP3 SWAP2 POP POP JUMP JUMPDEST PUSH0 PUSH1 0x20 DUP3 DUP5 SUB SLT ISZERO PUSH2 0x118B JUMPI PUSH2 0x118A PUSH2 0x102B JUMP JUMPDEST JUMPDEST PUSH0 PUSH2 0x1198 DUP5 DUP3 DUP6 ADD PUSH2 0x104E JUMP JUMPDEST SWAP2 POP POP SWAP3 SWAP2 POP POP JUMP JUMPDEST PUSH2 0x11AA DUP2 PUSH2 0x102F JUMP JUMPDEST DUP3 MSTORE POP POP JUMP JUMPDEST PUSH2 0x11B9 DUP2 PUSH2 0x111B JUMP JUMPDEST DUP3 MSTORE POP POP JUMP JUMPDEST PUSH0 DUP2 MLOAD SWAP1 POP SWAP2 SWAP1 POP JUMP JUMPDEST PUSH0 DUP3 DUP3 MSTORE PUSH1 0x20 DUP3 ADD SWAP1 POP SWAP3 SWAP2 POP POP JUMP JUMPDEST PUSH0 DUP2 SWAP1 POP PUSH1 0x20 DUP3 ADD SWAP1 POP SWAP2 SWAP1 POP JUMP JUMPDEST PUSH2 0x11F1 DUP2 PUSH2 0x1062 JUMP JUMPDEST DUP3 MSTORE POP POP JUMP JUMPDEST PUSH2 0x1200 DUP2 PUSH2 0x1098 JUMP JUMPDEST DUP3 MSTORE POP POP JUMP JUMPDEST PUSH2 0x120F DUP2 PUSH2 0xFF2 JUMP JUMPDEST DUP3 MSTORE POP POP JUMP JUMPDEST PUSH1 0x80 DUP3 ADD PUSH0 DUP3 ADD MLOAD PUSH2 0x1229 PUSH0 DUP6 ADD DUP3 PUSH2 0x11A1 JUMP JUMPDEST POP PUSH1 0x20 DUP3 ADD MLOAD PUSH2 0x123C PUSH1 0x20 DUP6 ADD DUP3 PUSH2 0x11E8 JUMP JUMPDEST POP PUSH1 0x40 DUP3 ADD MLOAD PUSH2 0x124F PUSH1 0x40 DUP6 ADD DUP3 PUSH2 0x11F7 JUMP JUMPDEST POP PUSH1 0x60 DUP3 ADD MLOAD PUSH2 0x1262 PUSH1 0x60 DUP6 ADD DUP3 PUSH2 0x1206 JUMP JUMPDEST POP POP POP POP JUMP JUMPDEST PUSH0 PUSH2 0x1273 DUP4 DUP4 PUSH2 0x1215 JUMP JUMPDEST PUSH1 0x80 DUP4 ADD SWAP1 POP SWAP3 SWAP2 POP POP JUMP JUMPDEST PUSH0 PUSH1 0x20 DUP3 ADD SWAP1 POP SWAP2 SWAP1 POP JUMP JUMPDEST PUSH0 PUSH2 0x1295 DUP3 PUSH2 0x11BF JUMP JUMPDEST PUSH2 0x129F DUP2 DUP6 PUSH2 0x11C9 JUMP JUMPDEST SWAP4 POP PUSH2 0x12AA DUP4 PUSH2 0x11D9 JUMP JUMPDEST DUP1 PUSH0 JUMPDEST DUP4 DUP2 LT ISZERO PUSH2 0x12DA JUMPI DUP2 MLOAD PUSH2 0x12C1 DUP9 DUP3 PUSH2 0x1268 JUMP JUMPDEST SWAP8 POP PUSH2 0x12CC DUP4 PUSH2 0x127F JUMP JUMPDEST SWAP3 POP POP PUSH1 0x1 DUP2 ADD SWAP1 POP PUSH2 0x12AD JUMP JUMPDEST POP DUP6 SWAP4 POP POP POP POP SWAP3 SWAP2 POP POP JUMP JUMPDEST PUSH0 PUSH1 0x80 DUP4 ADD PUSH0 DUP4 ADD MLOAD PUSH2 0x12FC PUSH0 DUP7 ADD DUP3 PUSH2 0x11A1 JUMP JUMPDEST POP PUSH1 0x20 DUP4 ADD MLOAD PUSH2 0x130F PUSH1 0x20 DUP7 ADD DUP3 PUSH2 0x11A1 JUMP JUMPDEST POP PUSH1 0x40 DUP4 ADD MLOAD PUSH2 0x1322 PUSH1 0x40 DUP7 ADD DUP3 PUSH2 0x11B0 JUMP JUMPDEST POP PUSH1 0x60 DUP4 ADD MLOAD DUP5 DUP3 SUB PUSH1 0x60 DUP7 ADD MSTORE PUSH2 0x133A DUP3 DUP3 PUSH2 0x128B JUMP JUMPDEST SWAP2 POP POP DUP1 SWAP2 POP POP SWAP3 SWAP2 POP POP JUMP JUMPDEST PUSH0 PUSH1 0x20 DUP3 ADD SWAP1 POP DUP2 DUP2 SUB PUSH0 DUP4 ADD MSTORE PUSH2 0x135F DUP2 DUP5 PUSH2 0x12E7 JUMP JUMPDEST SWAP1 POP SWAP3 SWAP2 POP POP JUMP JUMPDEST PUSH0 PUSH0 PUSH0 PUSH0 PUSH0 PUSH1 0xA0 DUP7 DUP9 SUB SLT ISZERO PUSH2 0x1380 JUMPI PUSH2 0x137F PUSH2 0x102B JUMP JUMPDEST JUMPDEST PUSH0 PUSH2 0x138D DUP9 DUP3 DUP10 ADD PUSH2 0x104E JUMP JUMPDEST SWAP6 POP POP PUSH1 0x20 PUSH2 0x139E DUP9 DUP3 DUP10 ADD PUSH2 0x104E JUMP JUMPDEST SWAP5 POP POP PUSH1 0x40 PUSH2 0x13AF DUP9 DUP3 DUP10 ADD PUSH2 0x1084 JUMP JUMPDEST SWAP4 POP POP PUSH1 0x60 PUSH2 0x13C0 DUP9 DUP3 DUP10 ADD PUSH2 0x10B7 JUMP JUMPDEST SWAP3 POP POP PUSH1 0x80 PUSH2 0x13D1 DUP9 DUP3 DUP10 ADD PUSH2 0x104E JUMP JUMPDEST SWAP2 POP POP SWAP3 SWAP6 POP SWAP3 SWAP6 SWAP1 SWAP4 POP JUMP JUMPDEST PUSH2 0x13E7 DUP2 PUSH2 0x1062 JUMP JUMPDEST DUP3 MSTORE POP POP JUMP JUMPDEST PUSH2 0x13F6 DUP2 PUSH2 0x1098 JUMP JUMPDEST DUP3 MSTORE POP POP JUMP JUMPDEST PUSH0 PUSH1 0xA0 DUP3 ADD SWAP1 POP PUSH2 0x140F PUSH0 DUP4 ADD DUP9 PUSH2 0x114E JUMP JUMPDEST PUSH2 0x141C PUSH1 0x20 DUP4 ADD DUP8 PUSH2 0x114E JUMP JUMPDEST PUSH2 0x1429 PUSH1 0x40 DUP4 ADD DUP7 PUSH2 0x13DE JUMP JUMPDEST PUSH2 0x1436 PUSH1 0x60 DUP4 ADD DUP6 PUSH2 0x114E JUMP JUMPDEST PUSH2 0x1443 PUSH1 0x80 DUP4 ADD DUP5 PUSH2 0x13ED JUMP JUMPDEST SWAP7 SWAP6 POP POP POP POP POP POP JUMP JUMPDEST PUSH0 PUSH0 PUSH0 PUSH0 PUSH0 PUSH0 PUSH1 0xC0 DUP8 DUP10 SUB SLT ISZERO PUSH2 0x1467 JUMPI PUSH2 0x1466 PUSH2 0x102B JUMP JUMPDEST JUMPDEST PUSH0 PUSH2 0x1474 DUP10 DUP3 DUP11 ADD PUSH2 0x104E JUMP JUMPDEST SWAP7 POP POP PUSH1 0x20 PUSH2 0x1485 DUP10 DUP3 DUP11 ADD PUSH2 0x104E JUMP JUMPDEST SWAP6 POP POP PUSH1 0x40 PUSH2 0x1496 DUP10 DUP3 DUP11 ADD PUSH2 0x10B7 JUMP JUMPDEST SWAP5 POP POP PUSH1 0x60 PUSH2 0x14A7 DUP10 DUP3 DUP11 ADD PUSH2 0x104E JUMP JUMPDEST SWAP4 POP POP PUSH1 0x80 PUSH2 0x14B8 DUP10 DUP3 DUP11 ADD PUSH2 0x104E JUMP JUMPDEST SWAP3 POP POP PUSH1 0xA0 PUSH2 0x14C9 DUP10 DUP3 DUP11 ADD PUSH2 0x1084 JUMP JUMPDEST SWAP2 POP POP SWAP3 SWAP6 POP SWAP3 SWAP6 POP SWAP3 SWAP6 JUMP JUMPDEST PUSH0 PUSH0 PUSH1 0x40 DUP4 DUP6 SUB SLT ISZERO PUSH2 0x14EC JUMPI PUSH2 0x14EB PUSH2 0x102B JUMP JUMPDEST JUMPDEST PUSH0 PUSH2 0x14F9 DUP6 DUP3 DUP7 ADD PUSH2 0x104E JUMP JUMPDEST SWAP3 POP POP PUSH1 0x20 PUSH2 0x150A DUP6 DUP3 DUP7 ADD PUSH2 0x1084 JUMP JUMPDEST SWAP2 POP POP SWAP3 POP SWAP3 SWAP1 POP JUMP JUMPDEST PUSH0 DUP2 PUSH1 0xF8 SHL SWAP1 POP SWAP2 SWAP1 POP JUMP JUMPDEST PUSH0 PUSH2 0x152A DUP3 PUSH2 0x1514 JUMP JUMPDEST SWAP1 POP SWAP2 SWAP1 POP JUMP JUMPDEST PUSH2 0x1542 PUSH2 0x153D DUP3 PUSH2 0x1062 JUMP JUMPDEST PUSH2 0x1520 JUMP JUMPDEST DUP3 MSTORE POP POP JUMP JUMPDEST PUSH0 PUSH2 0x1553 DUP3 DUP5 PUSH2 0x1531 JUMP JUMPDEST PUSH1 0x1 DUP3 ADD SWAP2 POP DUP2 SWAP1 POP SWAP3 SWAP2 POP POP JUMP JUMPDEST PUSH0 DUP3 DUP3 MSTORE PUSH1 0x20 DUP3 ADD SWAP1 POP SWAP3 SWAP2 POP POP JUMP JUMPDEST PUSH32 0x726573756C7461646F20696E76616C6964613A20757365202830292070617261 PUSH0 DUP3 ADD MSTORE PUSH32 0x204170726F626164612C20283129207061726120417263686976616461206F20 PUSH1 0x20 DUP3 ADD MSTORE PUSH32 0x28322920706172612052656368617A6164610000000000000000000000000000 PUSH1 0x40 DUP3 ADD MSTORE POP JUMP JUMPDEST PUSH0 PUSH2 0x15F2 PUSH1 0x52 DUP4 PUSH2 0x1562 JUMP JUMPDEST SWAP2 POP PUSH2 0x15FD DUP3 PUSH2 0x1572 JUMP JUMPDEST PUSH1 0x60 DUP3 ADD SWAP1 POP SWAP2 SWAP1 POP JUMP JUMPDEST PUSH0 PUSH1 0x20 DUP3 ADD SWAP1 POP DUP2 DUP2 SUB PUSH0 DUP4 ADD MSTORE PUSH2 0x161F DUP2 PUSH2 0x15E6 JUMP JUMPDEST SWAP1 POP SWAP2 SWAP1 POP JUMP JUMPDEST PUSH0 PUSH1 0x60 DUP3 ADD SWAP1 POP PUSH2 0x1639 PUSH0 DUP4 ADD DUP7 PUSH2 0x114E JUMP JUMPDEST PUSH2 0x1646 PUSH1 0x20 DUP4 ADD DUP6 PUSH2 0x13DE JUMP JUMPDEST PUSH2 0x1653 PUSH1 0x40 DUP4 ADD DUP5 PUSH2 0x13ED JUMP JUMPDEST SWAP5 SWAP4 POP POP POP POP JUMP JUMPDEST PUSH32 0x4C6120616374756163696F6E206E6F2065786973746500000000000000000000 PUSH0 DUP3 ADD MSTORE POP JUMP JUMPDEST PUSH0 PUSH2 0x168F PUSH1 0x16 DUP4 PUSH2 0x1562 JUMP JUMPDEST SWAP2 POP PUSH2 0x169A DUP3 PUSH2 0x165B JUMP JUMPDEST PUSH1 0x20 DUP3 ADD SWAP1 POP SWAP2 SWAP1 POP JUMP JUMPDEST PUSH0 PUSH1 0x20 DUP3 ADD SWAP1 POP DUP2 DUP2 SUB PUSH0 DUP4 ADD MSTORE PUSH2 0x16BC DUP2 PUSH2 0x1683 JUMP JUMPDEST SWAP1 POP SWAP2 SWAP1 POP JUMP JUMPDEST PUSH32 0x4C6120616374756163696F6E2079612065786973746500000000000000000000 PUSH0 DUP3 ADD MSTORE POP JUMP JUMPDEST PUSH0 PUSH2 0x16F7 PUSH1 0x16 DUP4 PUSH2 0x1562 JUMP JUMPDEST SWAP2 POP PUSH2 0x1702 DUP3 PUSH2 0x16C3 JUMP JUMPDEST PUSH1 0x20 DUP3 ADD SWAP1 POP SWAP2 SWAP1 POP JUMP JUMPDEST PUSH0 PUSH1 0x20 DUP3 ADD SWAP1 POP DUP2 DUP2 SUB PUSH0 DUP4 ADD MSTORE PUSH2 0x1724 DUP2 PUSH2 0x16EB JUMP JUMPDEST SWAP1 POP SWAP2 SWAP1 POP JUMP JUMPDEST PUSH32 0x4E6F2073652068612070616761646F206C612074617269666120646520726567 PUSH0 DUP3 ADD MSTORE PUSH32 0x697374726F000000000000000000000000000000000000000000000000000000 PUSH1 0x20 DUP3 ADD MSTORE POP JUMP JUMPDEST PUSH0 PUSH2 0x1785 PUSH1 0x25 DUP4 PUSH2 0x1562 JUMP JUMPDEST SWAP2 POP PUSH2 0x1790 DUP3 PUSH2 0x172B JUMP JUMPDEST PUSH1 0x40 DUP3 ADD SWAP1 POP SWAP2 SWAP1 POP JUMP JUMPDEST PUSH0 PUSH1 0x20 DUP3 ADD SWAP1 POP DUP2 DUP2 SUB PUSH0 DUP4 ADD MSTORE PUSH2 0x17B2 DUP2 PUSH2 0x1779 JUMP JUMPDEST SWAP1 POP SWAP2 SWAP1 POP JUMP JUMPDEST PUSH0 PUSH1 0xA0 DUP3 ADD SWAP1 POP PUSH2 0x17CC PUSH0 DUP4 ADD DUP9 PUSH2 0x114E JUMP JUMPDEST PUSH2 0x17D9 PUSH1 0x20 DUP4 ADD DUP8 PUSH2 0x114E JUMP JUMPDEST PUSH2 0x17E6 PUSH1 0x40 DUP4 ADD DUP7 PUSH2 0x114E JUMP JUMPDEST PUSH2 0x17F3 PUSH1 0x60 DUP4 ADD DUP6 PUSH2 0x13DE JUMP JUMPDEST PUSH2 0x1800 PUSH1 0x80 DUP4 ADD DUP5 PUSH2 0x13ED JUMP JUMPDEST SWAP7 SWAP6 POP POP POP POP POP POP JUMP JUMPDEST PUSH32 0x4E487B7100000000000000000000000000000000000000000000000000000000 PUSH0 MSTORE PUSH1 0x11 PUSH1 0x4 MSTORE PUSH1 0x24 PUSH0 REVERT JUMPDEST PUSH0 PUSH2 0x1841 DUP3 PUSH2 0x102F JUMP JUMPDEST SWAP2 POP PUSH2 0x184C DUP4 PUSH2 0x102F JUMP JUMPDEST SWAP3 POP DUP3 DUP3 SUB SWAP1 POP DUP2 DUP2 GT ISZERO PUSH2 0x1864 JUMPI PUSH2 0x1863 PUSH2 0x180A JUMP JUMPDEST JUMPDEST SWAP3 SWAP2 POP POP JUMP JUMPDEST PUSH32 0x4E487B7100000000000000000000000000000000000000000000000000000000 PUSH0 MSTORE PUSH1 0x32 PUSH1 0x4 MSTORE PUSH1 0x24 PUSH0 REVERT JUMPDEST PUSH0 PUSH1 0x80 DUP3 ADD SWAP1 POP PUSH2 0x18AA PUSH0 DUP4 ADD DUP8 PUSH2 0x114E JUMP JUMPDEST PUSH2 0x18B7 PUSH1 0x20 DUP4 ADD DUP7 PUSH2 0x114E JUMP JUMPDEST PUSH2 0x18C4 PUSH1 0x40 DUP4 ADD DUP6 PUSH2 0x13DE JUMP JUMPDEST PUSH2 0x18D1 PUSH1 0x60 DUP4 ADD DUP5 PUSH2 0x13ED JUMP JUMPDEST SWAP6 SWAP5 POP POP POP POP POP JUMP JUMPDEST PUSH32 0x4E6F20657320656C2070726F706965746172696F000000000000000000000000 PUSH0 DUP3 ADD MSTORE POP JUMP JUMPDEST PUSH0 PUSH2 0x190E PUSH1 0x14 DUP4 PUSH2 0x1562 JUMP JUMPDEST SWAP2 POP PUSH2 0x1919 DUP3 PUSH2 0x18DA JUMP JUMPDEST PUSH1 0x20 DUP3 ADD SWAP1 POP SWAP2 SWAP1 POP JUMP JUMPDEST PUSH0 PUSH1 0x20 DUP3 ADD SWAP1 POP DUP2 DUP2 SUB PUSH0 DUP4 ADD MSTORE PUSH2 0x193B DUP2 PUSH2 0x1902 JUMP JUMPDEST SWAP1 POP SWAP2 SWAP1 POP JUMP JUMPDEST PUSH0 PUSH1 0x40 DUP3 ADD SWAP1 POP PUSH2 0x1955 PUSH0 DUP4 ADD DUP6 PUSH2 0x114E JUMP JUMPDEST PUSH2 0x1962 PUSH1 0x20 DUP4 ADD DUP5 PUSH2 0x13DE JUMP JUMPDEST SWAP4 SWAP3 POP POP POP JUMP INVALID LOG2 PUSH5 0x6970667358 0x22 SLT KECCAK256 SWAP16 PUSH17 0xE516BAC7DE3727ADEE6E24D015AE9306B8 DUPN 0xE6 0xD0 0xCD JUMP CODESIZE SGT 0xD6 PUSH16 0x81AD183464736F6C6343000822003300 "
				},
				"gasEstimates": {
					"creation": {
						"codeDepositCost": "1311800",
						"executionCost": "25625",
						"totalCost": "1337425"
					},
					"external": {
						"COSTO()": "370",
						"_consultarActuacion(uint256)": "infinite",
						"_eliminarActuacion(uint256,uint8)": "infinite",
						"_inicializarActuacion(uint256,uint256,uint8,bytes32,uint256)": "infinite",
						"_modificarActuacion(uint256,uint8,bytes32)": "infinite",
						"agregarProyectoOrdenanza(uint256,uint256,bytes32,uint256,uint256,uint8)": "infinite",
						"consultarProyectoOrdenanza(uint256)": "infinite",
						"eliminar(uint256,uint8)": "infinite",
						"modificarResultado(uint256,uint8,bytes32)": "infinite",
						"propietario()": "2508"
					}
				},
				"methodIdentifiers": {
					"COSTO()": "52b5241e",
					"_consultarActuacion(uint256)": "8e8a5876",
					"_eliminarActuacion(uint256,uint8)": "d986a2a3",
					"_inicializarActuacion(uint256,uint256,uint8,bytes32,uint256)": "906a11df",
					"_modificarActuacion(uint256,uint8,bytes32)": "f904dd5b",
					"agregarProyectoOrdenanza(uint256,uint256,bytes32,uint256,uint256,uint8)": "c631ba01",
					"consultarProyectoOrdenanza(uint256)": "c0b330b6",
					"eliminar(uint256,uint8)": "c83e9d6d",
					"modificarResultado(uint256,uint8,bytes32)": "3cbdc2d3",
					"propietario()": "3c4f81cd"
				}
			},
			"storageLayout": {
				"storage": [
					{
						"astId": 23,
						"contract": "ConcejoDeliberante/contracts/ProyectoOrdenanza.sol:ProyectoOrdenza",
						"label": "propietario",
						"offset": 0,
						"slot": "0",
						"type": "t_address"
					},
					{
						"astId": 31,
						"contract": "ConcejoDeliberante/contracts/ProyectoOrdenanza.sol:ProyectoOrdenza",
						"label": "actuaciones",
						"offset": 0,
						"slot": "1",
						"type": "t_mapping(t_uint256,t_struct(Actuacion)21_storage)"
					},
					{
						"astId": 34,
						"contract": "ConcejoDeliberante/contracts/ProyectoOrdenanza.sol:ProyectoOrdenza",
						"label": "ids",
						"offset": 0,
						"slot": "2",
						"type": "t_array(t_uint256)dyn_storage"
					},
					{
						"astId": 287,
						"contract": "ConcejoDeliberante/contracts/ProyectoOrdenanza.sol:ProyectoOrdenza",
						"label": "datosExtra",
						"offset": 0,
						"slot": "3",
						"type": "t_mapping(t_uint256,t_struct(DatosProyectoOrdenanza)282_storage)"
					}
				],
				"types": {
					"t_address": {
						"encoding": "inplace",
						"label": "address",
						"numberOfBytes": "20"
					},
					"t_array(t_struct(Cambio)10_storage)dyn_storage": {
						"base": "t_struct(Cambio)10_storage",
						"encoding": "dynamic_array",
						"label": "struct ActuacionBase.Cambio[]",
						"numberOfBytes": "32"
					},
					"t_array(t_uint256)dyn_storage": {
						"base": "t_uint256",
						"encoding": "dynamic_array",
						"label": "uint256[]",
						"numberOfBytes": "32"
					},
					"t_bool": {
						"encoding": "inplace",
						"label": "bool",
						"numberOfBytes": "1"
					},
					"t_bytes32": {
						"encoding": "inplace",
						"label": "bytes32",
						"numberOfBytes": "32"
					},
					"t_mapping(t_uint256,t_struct(Actuacion)21_storage)": {
						"encoding": "mapping",
						"key": "t_uint256",
						"label": "mapping(uint256 => struct ActuacionBase.Actuacion)",
						"numberOfBytes": "32",
						"value": "t_struct(Actuacion)21_storage"
					},
					"t_mapping(t_uint256,t_struct(DatosProyectoOrdenanza)282_storage)": {
						"encoding": "mapping",
						"key": "t_uint256",
						"label": "mapping(uint256 => struct ProyectoOrdenza.DatosProyectoOrdenanza)",
						"numberOfBytes": "32",
						"value": "t_struct(DatosProyectoOrdenanza)282_storage"
					},
					"t_struct(Actuacion)21_storage": {
						"encoding": "inplace",
						"label": "struct ActuacionBase.Actuacion",
						"members": [
							{
								"astId": 12,
								"contract": "ConcejoDeliberante/contracts/ProyectoOrdenanza.sol:ProyectoOrdenza",
								"label": "fechaCreacion",
								"offset": 0,
								"slot": "0",
								"type": "t_uint256"
							},
							{
								"astId": 14,
								"contract": "ConcejoDeliberante/contracts/ProyectoOrdenanza.sol:ProyectoOrdenza",
								"label": "dniAutor",
								"offset": 0,
								"slot": "1",
								"type": "t_uint256"
							},
							{
								"astId": 16,
								"contract": "ConcejoDeliberante/contracts/ProyectoOrdenanza.sol:ProyectoOrdenza",
								"label": "existe",
								"offset": 0,
								"slot": "2",
								"type": "t_bool"
							},
							{
								"astId": 20,
								"contract": "ConcejoDeliberante/contracts/ProyectoOrdenanza.sol:ProyectoOrdenza",
								"label": "historial",
								"offset": 0,
								"slot": "3",
								"type": "t_array(t_struct(Cambio)10_storage)dyn_storage"
							}
						],
						"numberOfBytes": "128"
					},
					"t_struct(Cambio)10_storage": {
						"encoding": "inplace",
						"label": "struct ActuacionBase.Cambio",
						"members": [
							{
								"astId": 3,
								"contract": "ConcejoDeliberante/contracts/ProyectoOrdenanza.sol:ProyectoOrdenza",
								"label": "timestamp",
								"offset": 0,
								"slot": "0",
								"type": "t_uint256"
							},
							{
								"astId": 5,
								"contract": "ConcejoDeliberante/contracts/ProyectoOrdenanza.sol:ProyectoOrdenza",
								"label": "estado",
								"offset": 0,
								"slot": "1",
								"type": "t_uint8"
							},
							{
								"astId": 7,
								"contract": "ConcejoDeliberante/contracts/ProyectoOrdenanza.sol:ProyectoOrdenza",
								"label": "hash",
								"offset": 0,
								"slot": "2",
								"type": "t_bytes32"
							},
							{
								"astId": 9,
								"contract": "ConcejoDeliberante/contracts/ProyectoOrdenanza.sol:ProyectoOrdenza",
								"label": "modificadoPor",
								"offset": 0,
								"slot": "3",
								"type": "t_address"
							}
						],
						"numberOfBytes": "128"
					},
					"t_struct(DatosProyectoOrdenanza)282_storage": {
						"encoding": "inplace",
						"label": "struct ProyectoOrdenza.DatosProyectoOrdenanza",
						"members": [
							{
								"astId": 281,
								"contract": "ConcejoDeliberante/contracts/ProyectoOrdenanza.sol:ProyectoOrdenza",
								"label": "numExpediente",
								"offset": 0,
								"slot": "0",
								"type": "t_uint256"
							}
						],
						"numberOfBytes": "32"
					},
					"t_uint256": {
						"encoding": "inplace",
						"label": "uint256",
						"numberOfBytes": "32"
					},
					"t_uint8": {
						"encoding": "inplace",
						"label": "uint8",
						"numberOfBytes": "1"
					}
				}
			},
			"userdoc": {
				"kind": "user",
				"methods": {},
				"version": 1
			}
		}
	}
}