{
	"ConcejoDeliberante/contracts/Declaracion.sol": {
		"Declaracion": {
			"abi": [
				{
					"anonymous": false,
					"inputs": [
						{
							"indexed": false,
							"internalType": "uint256",
							"name": "id",
							"type": "uint256"
						},
						{
							"indexed": false,
							"internalType": "uint256",
							"name": "fechaCreacion",
							"type": "uint256"
						},
						{
							"indexed": false,
							"internalType": "uint256",
							"name": "dniAutor",
							"type": "uint256"
						},
						{
							"indexed": false,
							"internalType": "uint8",
							"name": "estado",
							"type": "uint8"
						},
						{
							"indexed": false,
							"internalType": "bytes32",
							"name": "hash",
							"type": "bytes32"
						}
					],
					"name": "ActuacionAgregada",
					"type": "event"
				},
				{
					"anonymous": false,
					"inputs": [
						{
							"indexed": false,
							"internalType": "uint256",
							"name": "id",
							"type": "uint256"
						},
						{
							"indexed": false,
							"internalType": "uint8",
							"name": "estado",
							"type": "uint8"
						}
					],
					"name": "ActuacionEliminada",
					"type": "event"
				},
				{
					"anonymous": false,
					"inputs": [
						{
							"indexed": false,
							"internalType": "uint256",
							"name": "id",
							"type": "uint256"
						},
						{
							"indexed": false,
							"internalType": "uint8",
							"name": "estado",
							"type": "uint8"
						},
						{
							"indexed": false,
							"internalType": "bytes32",
							"name": "hash",
							"type": "bytes32"
						}
					],
					"name": "ActuacionModificada",
					"type": "event"
				},
				{
					"anonymous": false,
					"inputs": [
						{
							"indexed": false,
							"internalType": "uint256",
							"name": "id",
							"type": "uint256"
						},
						{
							"indexed": false,
							"internalType": "uint256",
							"name": "numDeclaracion",
							"type": "uint256"
						},
						{
							"indexed": false,
							"internalType": "uint8",
							"name": "categoria",
							"type": "uint8"
						},
						{
							"indexed": false,
							"internalType": "bytes32",
							"name": "institucionBen",
							"type": "bytes32"
						},
						{
							"indexed": false,
							"internalType": "uint8",
							"name": "estado",
							"type": "uint8"
						},
						{
							"indexed": false,
							"internalType": "bytes32",
							"name": "hash",
							"type": "bytes32"
						}
					],
					"name": "DeclaracionAgregada",
					"type": "event"
				},
				{
					"anonymous": false,
					"inputs": [
						{
							"indexed": false,
							"internalType": "uint256",
							"name": "id",
							"type": "uint256"
						},
						{
							"indexed": false,
							"internalType": "uint8",
							"name": "estadoNuevo",
							"type": "uint8"
						},
						{
							"indexed": false,
							"internalType": "bytes32",
							"name": "hash",
							"type": "bytes32"
						}
					],
					"name": "DeclaracionModificada",
					"type": "event"
				},
				{
					"inputs": [],
					"name": "COSTO",
					"outputs": [
						{
							"internalType": "uint256",
							"name": "",
							"type": "uint256"
						}
					],
					"stateMutability": "view",
					"type": "function"
				},
				{
					"inputs": [
						{
							"internalType": "uint256",
							"name": "_id",
							"type": "uint256"
						}
					],
					"name": "_consultarActuacion",
					"outputs": [
						{
							"components": [
								{
									"internalType": "uint256",
									"name": "fechaCreacion",
									"type": "uint256"
								},
								{
									"internalType": "uint256",
									"name": "dniAutor",
									"type": "uint256"
								},
								{
									"internalType": "bool",
									"name": "existe",
									"type": "bool"
								},
								{
									"components": [
										{
											"internalType": "uint256",
											"name": "timestamp",
											"type": "uint256"
										},
										{
											"internalType": "uint8",
											"name": "estado",
											"type": "uint8"
										},
										{
											"internalType": "bytes32",
											"name": "hash",
											"type": "bytes32"
										},
										{
											"internalType": "address",
											"name": "modificadoPor",
											"type": "address"
										}
									],
									"internalType": "struct ActuacionBase.Cambio[]",
									"name": "historial",
									"type": "tuple[]"
								}
							],
							"internalType": "struct ActuacionBase.Actuacion",
							"name": "",
							"type": "tuple"
						}
					],
					"stateMutability": "view",
					"type": "function"
				},
				{
					"inputs": [
						{
							"internalType": "uint256",
							"name": "_id",
							"type": "uint256"
						},
						{
							"internalType": "uint256",
							"name": "_dniAutor",
							"type": "uint256"
						},
						{
							"internalType": "bytes32",
							"name": "_hash",
							"type": "bytes32"
						},
						{
							"internalType": "uint256",
							"name": "_fechaCreacion",
							"type": "uint256"
						},
						{
							"internalType": "uint8",
							"name": "_categoria",
							"type": "uint8"
						},
						{
							"internalType": "bytes32",
							"name": "_institucionBen",
							"type": "bytes32"
						},
						{
							"internalType": "uint8",
							"name": "_estado",
							"type": "uint8"
						}
					],
					"name": "agregarDeclaracion",
					"outputs": [],
					"stateMutability": "payable",
					"type": "function"
				},
				{
					"inputs": [
						{
							"internalType": "uint256",
							"name": "_id",
							"type": "uint256"
						}
					],
					"name": "consultarDeclaracion",
					"outputs": [
						{
							"internalType": "uint256",
							"name": "fechaCreacion",
							"type": "uint256"
						},
						{
							"internalType": "uint256",
							"name": "dniAutor",
							"type": "uint256"
						},
						{
							"internalType": "uint8",
							"name": "estado",
							"type": "uint8"
						},
						{
							"internalType": "uint8",
							"name": "categoria",
							"type": "uint8"
						},
						{
							"internalType": "bytes32",
							"name": "institucionBen",
							"type": "bytes32"
						},
						{
							"internalType": "bytes32",
							"name": "hash",
							"type": "bytes32"
						}
					],
					"stateMutability": "view",
					"type": "function"
				},
				{
					"inputs": [
						{
							"internalType": "uint256",
							"name": "_id",
							"type": "uint256"
						},
						{
							"internalType": "uint8",
							"name": "_estado",
							"type": "uint8"
						}
					],
					"name": "eliminarDeclaracion",
					"outputs": [],
					"stateMutability": "nonpayable",
					"type": "function"
				},
				{
					"inputs": [
						{
							"internalType": "uint256",
							"name": "_id",
							"type": "uint256"
						},
						{
							"internalType": "uint8",
							"name": "_estadoNuevo",
							"type": "uint8"
						},
						{
							"internalType": "bytes32",
							"name": "_hash",
							"type": "bytes32"
						}
					],
					"name": "modificarDeclaracion",
					"outputs": [
						{
							"internalType": "bool",
							"name": "success",
							"type": "bool"
						}
					],
					"stateMutability": "nonpayable",
					"type": "function"
				},
				{
					"inputs": [],
					"name": "propietario",
					"outputs": [
						{
							"internalType": "address",
							"name": "",
							"type": "address"
						}
					],
					"stateMutability": "view",
					"type": "function"
				}
			],
			"devdoc": {
				"kind": "dev",
				"methods": {},
				"version": 1
			},
			"evm": {
				"assembly": "    /* \"ConcejoDeliberante/contracts/Declaracion.sol\":107:3910  contract Declaracion is ActuacionBase {... */\n  mstore(0x40, 0x80)\n  callvalue\n  dup1\n  iszero\n  tag_1\n  jumpi\n  revert(0x00, 0x00)\ntag_1:\n  pop\n    /* \"ConcejoDeliberante/contracts/ActuacionBase.sol\":1115:1125  msg.sender */\n  caller\n    /* \"ConcejoDeliberante/contracts/ActuacionBase.sol\":1101:1112  propietario */\n  0x00\n  0x00\n    /* \"ConcejoDeliberante/contracts/ActuacionBase.sol\":1101:1125  propietario = msg.sender */\n  0x0100\n  exp\n  dup2\n  sload\n  dup2\n  0xffffffffffffffffffffffffffffffffffffffff\n  mul\n  not\n  and\n  swap1\n  dup4\n  0xffffffffffffffffffffffffffffffffffffffff\n  and\n  mul\n  or\n  swap1\n  sstore\n  pop\n    /* \"ConcejoDeliberante/contracts/Declaracion.sol\":107:3910  contract Declaracion is ActuacionBase {... */\n  dataSize(sub_0)\n  dup1\n  dataOffset(sub_0)\n  0x00\n  codecopy\n  0x00\n  return\nstop\n\nsub_0: assembly {\n        /* \"ConcejoDeliberante/contracts/Declaracion.sol\":107:3910  contract Declaracion is ActuacionBase {... */\n      mstore(0x40, 0x80)\n      jumpi(tag_1, lt(calldatasize, 0x04))\n      shr(0xe0, calldataload(0x00))\n      dup1\n      0x6dd7044e\n      gt\n      tag_9\n      jumpi\n      dup1\n      0x6dd7044e\n      eq\n      tag_5\n      jumpi\n      dup1\n      0x8e8a5876\n      eq\n      tag_6\n      jumpi\n      dup1\n      0xd301e11d\n      eq\n      tag_7\n      jumpi\n      dup1\n      0xffb6ecdc\n      eq\n      tag_8\n      jumpi\n      jump(tag_1)\n    tag_9:\n      dup1\n      0x3c4f81cd\n      eq\n      tag_2\n      jumpi\n      dup1\n      0x4cdba193\n      eq\n      tag_3\n      jumpi\n      dup1\n      0x52b5241e\n      eq\n      tag_4\n      jumpi\n    tag_1:\n      revert(0x00, 0x00)\n        /* \"ConcejoDeliberante/contracts/ActuacionBase.sol\":484:510  address public propietario */\n    tag_2:\n      callvalue\n      dup1\n      iszero\n      tag_10\n      jumpi\n      revert(0x00, 0x00)\n    tag_10:\n      pop\n      tag_11\n      tag_12\n      jump\t// in\n    tag_11:\n      mload(0x40)\n      tag_13\n      swap2\n      swap1\n      tag_14\n      jump\t// in\n    tag_13:\n      mload(0x40)\n      dup1\n      swap2\n      sub\n      swap1\n      return\n        /* \"ConcejoDeliberante/contracts/Declaracion.sol\":3144:3516  function modificarDeclaracion(... */\n    tag_3:\n      callvalue\n      dup1\n      iszero\n      tag_15\n      jumpi\n      revert(0x00, 0x00)\n    tag_15:\n      pop\n      tag_16\n      0x04\n      dup1\n      calldatasize\n      sub\n      dup2\n      add\n      swap1\n      tag_17\n      swap2\n      swap1\n      tag_18\n      jump\t// in\n    tag_17:\n      tag_19\n      jump\t// in\n    tag_16:\n      mload(0x40)\n      tag_20\n      swap2\n      swap1\n      tag_21\n      jump\t// in\n    tag_20:\n      mload(0x40)\n      dup1\n      swap2\n      sub\n      swap1\n      return\n        /* \"ConcejoDeliberante/contracts/ActuacionBase.sol\":557:592  uint256 public constant COSTO = 500 */\n    tag_4:\n      callvalue\n      dup1\n      iszero\n      tag_22\n      jumpi\n      revert(0x00, 0x00)\n    tag_22:\n      pop\n      tag_23\n      tag_24\n      jump\t// in\n    tag_23:\n      mload(0x40)\n      tag_25\n      swap2\n      swap1\n      tag_26\n      jump\t// in\n    tag_25:\n      mload(0x40)\n      dup1\n      swap2\n      sub\n      swap1\n      return\n        /* \"ConcejoDeliberante/contracts/Declaracion.sol\":1173:2018  function agregarDeclaracion(... */\n    tag_5:\n      tag_27\n      0x04\n      dup1\n      calldatasize\n      sub\n      dup2\n      add\n      swap1\n      tag_28\n      swap2\n      swap1\n      tag_29\n      jump\t// in\n    tag_28:\n      tag_30\n      jump\t// in\n    tag_27:\n      stop\n        /* \"ConcejoDeliberante/contracts/ActuacionBase.sol\":2420:2665  function _consultarActuacion(uint256 _id)... */\n    tag_6:\n      callvalue\n      dup1\n      iszero\n      tag_31\n      jumpi\n      revert(0x00, 0x00)\n    tag_31:\n      pop\n      tag_32\n      0x04\n      dup1\n      calldatasize\n      sub\n      dup2\n      add\n      swap1\n      tag_33\n      swap2\n      swap1\n      tag_34\n      jump\t// in\n    tag_33:\n      tag_35\n      jump\t// in\n    tag_32:\n      mload(0x40)\n      tag_36\n      swap2\n      swap1\n      tag_37\n      jump\t// in\n    tag_36:\n      mload(0x40)\n      dup1\n      swap2\n      sub\n      swap1\n      return\n        /* \"ConcejoDeliberante/contracts/Declaracion.sol\":2090:2833  function consultarDeclaracion(uint256 _id)... */\n    tag_7:\n      callvalue\n      dup1\n      iszero\n      tag_38\n      jumpi\n      revert(0x00, 0x00)\n    tag_38:\n      pop\n      tag_39\n      0x04\n      dup1\n      calldatasize\n      sub\n      dup2\n      add\n      swap1\n      tag_40\n      swap2\n      swap1\n      tag_34\n      jump\t// in\n    tag_40:\n      tag_41\n      jump\t// in\n    tag_39:\n      mload(0x40)\n      tag_42\n      swap7\n      swap6\n      swap5\n      swap4\n      swap3\n      swap2\n      swap1\n      tag_43\n      jump\t// in\n    tag_42:\n      mload(0x40)\n      dup1\n      swap2\n      sub\n      swap1\n      return\n        /* \"ConcejoDeliberante/contracts/Declaracion.sol\":3720:3907  function eliminarDeclaracion(uint256 _id, uint8 _estado) public {... */\n    tag_8:\n      callvalue\n      dup1\n      iszero\n      tag_44\n      jumpi\n      revert(0x00, 0x00)\n    tag_44:\n      pop\n      tag_45\n      0x04\n      dup1\n      calldatasize\n      sub\n      dup2\n      add\n      swap1\n      tag_46\n      swap2\n      swap1\n      tag_47\n      jump\t// in\n    tag_46:\n      tag_48\n      jump\t// in\n    tag_45:\n      stop\n        /* \"ConcejoDeliberante/contracts/ActuacionBase.sol\":484:510  address public propietario */\n    tag_12:\n      0x00\n      0x00\n      swap1\n      sload\n      swap1\n      0x0100\n      exp\n      swap1\n      div\n      0xffffffffffffffffffffffffffffffffffffffff\n      and\n      dup2\n      jump\t// out\n        /* \"ConcejoDeliberante/contracts/Declaracion.sol\":3144:3516  function modificarDeclaracion(... */\n    tag_19:\n        /* \"ConcejoDeliberante/contracts/Declaracion.sol\":3274:3286  bool success */\n      0x00\n        /* \"ConcejoDeliberante/contracts/Declaracion.sol\":3323:3324  1 */\n      0x01\n        /* \"ConcejoDeliberante/contracts/Declaracion.sol\":3307:3319  _estadoNuevo */\n      dup4\n        /* \"ConcejoDeliberante/contracts/Declaracion.sol\":3307:3324  _estadoNuevo == 1 */\n      0xff\n      and\n      eq\n        /* \"ConcejoDeliberante/contracts/Declaracion.sol\":3299:3367  require(_estadoNuevo == 1, \"Estado invalido: use 1 para Modificada\") */\n      tag_50\n      jumpi\n      mload(0x40)\n      0x08c379a000000000000000000000000000000000000000000000000000000000\n      dup2\n      mstore\n      0x04\n      add\n      tag_51\n      swap1\n      tag_52\n      jump\t// in\n    tag_51:\n      mload(0x40)\n      dup1\n      swap2\n      sub\n      swap1\n      revert\n    tag_50:\n        /* \"ConcejoDeliberante/contracts/Declaracion.sol\":3378:3423  _modificarActuacion(_id, _estadoNuevo, _hash) */\n      tag_53\n        /* \"ConcejoDeliberante/contracts/Declaracion.sol\":3398:3401  _id */\n      dup5\n        /* \"ConcejoDeliberante/contracts/Declaracion.sol\":3403:3415  _estadoNuevo */\n      dup5\n        /* \"ConcejoDeliberante/contracts/Declaracion.sol\":3417:3422  _hash */\n      dup5\n        /* \"ConcejoDeliberante/contracts/Declaracion.sol\":3378:3397  _modificarActuacion */\n      tag_54\n        /* \"ConcejoDeliberante/contracts/Declaracion.sol\":3378:3423  _modificarActuacion(_id, _estadoNuevo, _hash) */\n      jump\t// in\n    tag_53:\n      pop\n        /* \"ConcejoDeliberante/contracts/Declaracion.sol\":3439:3486  DeclaracionModificada(_id, _estadoNuevo, _hash) */\n      0xf1cbbbd659d417a3e64f12428284640f56e8816a61beb5c745057dce5c3fb25b\n        /* \"ConcejoDeliberante/contracts/Declaracion.sol\":3461:3464  _id */\n      dup5\n        /* \"ConcejoDeliberante/contracts/Declaracion.sol\":3466:3478  _estadoNuevo */\n      dup5\n        /* \"ConcejoDeliberante/contracts/Declaracion.sol\":3480:3485  _hash */\n      dup5\n        /* \"ConcejoDeliberante/contracts/Declaracion.sol\":3439:3486  DeclaracionModificada(_id, _estadoNuevo, _hash) */\n      mload(0x40)\n      tag_55\n      swap4\n      swap3\n      swap2\n      swap1\n      tag_56\n      jump\t// in\n    tag_55:\n      mload(0x40)\n      dup1\n      swap2\n      sub\n      swap1\n      log1\n        /* \"ConcejoDeliberante/contracts/Declaracion.sol\":3504:3508  true */\n      0x01\n        /* \"ConcejoDeliberante/contracts/Declaracion.sol\":3497:3508  return true */\n      swap1\n      pop\n        /* \"ConcejoDeliberante/contracts/Declaracion.sol\":3144:3516  function modificarDeclaracion(... */\n      swap4\n      swap3\n      pop\n      pop\n      pop\n      jump\t// out\n        /* \"ConcejoDeliberante/contracts/ActuacionBase.sol\":557:592  uint256 public constant COSTO = 500 */\n    tag_24:\n        /* \"ConcejoDeliberante/contracts/ActuacionBase.sol\":589:592  500 */\n      0x01f4\n        /* \"ConcejoDeliberante/contracts/ActuacionBase.sol\":557:592  uint256 public constant COSTO = 500 */\n      dup2\n      jump\t// out\n        /* \"ConcejoDeliberante/contracts/Declaracion.sol\":1173:2018  function agregarDeclaracion(... */\n    tag_30:\n        /* \"ConcejoDeliberante/contracts/Declaracion.sol\":1463:1466  500 */\n      0x01f4\n        /* \"ConcejoDeliberante/contracts/Declaracion.sol\":1450:1459  msg.value */\n      callvalue\n        /* \"ConcejoDeliberante/contracts/Declaracion.sol\":1450:1466  msg.value >= 500 */\n      lt\n      iszero\n        /* \"ConcejoDeliberante/contracts/Declaracion.sol\":1442:1508  require(msg.value >= 500, \"No se ha pagado la tarifa de registro\") */\n      tag_58\n      jumpi\n      mload(0x40)\n      0x08c379a000000000000000000000000000000000000000000000000000000000\n      dup2\n      mstore\n      0x04\n      add\n      tag_59\n      swap1\n      tag_60\n      jump\t// in\n    tag_59:\n      mload(0x40)\n      dup1\n      swap2\n      sub\n      swap1\n      revert\n    tag_58:\n        /* \"ConcejoDeliberante/contracts/Declaracion.sol\":1541:1542  3 */\n      0x03\n        /* \"ConcejoDeliberante/contracts/Declaracion.sol\":1527:1537  _categoria */\n      dup4\n        /* \"ConcejoDeliberante/contracts/Declaracion.sol\":1527:1542  _categoria <= 3 */\n      0xff\n      and\n      gt\n      iszero\n        /* \"ConcejoDeliberante/contracts/Declaracion.sol\":1519:1610  require(_categoria <= 3, \"Categoria invalida: 0=Cultural 1=Educativa 2=Deportiva 3=Social\") */\n      tag_61\n      jumpi\n      mload(0x40)\n      0x08c379a000000000000000000000000000000000000000000000000000000000\n      dup2\n      mstore\n      0x04\n      add\n      tag_62\n      swap1\n      tag_63\n      jump\t// in\n    tag_62:\n      mload(0x40)\n      dup1\n      swap2\n      sub\n      swap1\n      revert\n    tag_61:\n        /* \"ConcejoDeliberante/contracts/Declaracion.sol\":1640:1641  0 */\n      0x00\n        /* \"ConcejoDeliberante/contracts/Declaracion.sol\":1629:1636  _estado */\n      dup2\n        /* \"ConcejoDeliberante/contracts/Declaracion.sol\":1629:1641  _estado == 0 */\n      0xff\n      and\n      eq\n        /* \"ConcejoDeliberante/contracts/Declaracion.sol\":1621:1689  require(_estado == 0, \"Estado inicial invalido: use 0 para Vigente\") */\n      tag_64\n      jumpi\n      mload(0x40)\n      0x08c379a000000000000000000000000000000000000000000000000000000000\n      dup2\n      mstore\n      0x04\n      add\n      tag_65\n      swap1\n      tag_66\n      jump\t// in\n    tag_65:\n      mload(0x40)\n      dup1\n      swap2\n      sub\n      swap1\n      revert\n    tag_64:\n        /* \"ConcejoDeliberante/contracts/Declaracion.sol\":1702:1771  _inicializarActuacion(_id, _dniAutor, _estado, _hash, _fechaCreacion) */\n      tag_67\n        /* \"ConcejoDeliberante/contracts/Declaracion.sol\":1724:1727  _id */\n      dup8\n        /* \"ConcejoDeliberante/contracts/Declaracion.sol\":1729:1738  _dniAutor */\n      dup8\n        /* \"ConcejoDeliberante/contracts/Declaracion.sol\":1740:1747  _estado */\n      dup4\n        /* \"ConcejoDeliberante/contracts/Declaracion.sol\":1749:1754  _hash */\n      dup9\n        /* \"ConcejoDeliberante/contracts/Declaracion.sol\":1756:1770  _fechaCreacion */\n      dup9\n        /* \"ConcejoDeliberante/contracts/Declaracion.sol\":1702:1723  _inicializarActuacion */\n      tag_68\n        /* \"ConcejoDeliberante/contracts/Declaracion.sol\":1702:1771  _inicializarActuacion(_id, _dniAutor, _estado, _hash, _fechaCreacion) */\n      jump\t// in\n    tag_67:\n        /* \"ConcejoDeliberante/contracts/Declaracion.sol\":1802:1918  DatosDeclaracion({... */\n      mload(0x40)\n      dup1\n      0x40\n      add\n      0x40\n      mstore\n      dup1\n        /* \"ConcejoDeliberante/contracts/Declaracion.sol\":1850:1860  _categoria */\n      dup5\n        /* \"ConcejoDeliberante/contracts/Declaracion.sol\":1802:1918  DatosDeclaracion({... */\n      0xff\n      and\n      dup2\n      mstore\n      0x20\n      add\n        /* \"ConcejoDeliberante/contracts/Declaracion.sol\":1891:1906  _institucionBen */\n      dup4\n        /* \"ConcejoDeliberante/contracts/Declaracion.sol\":1802:1918  DatosDeclaracion({... */\n      dup2\n      mstore\n      pop\n        /* \"ConcejoDeliberante/contracts/Declaracion.sol\":1784:1794  datosExtra */\n      0x03\n        /* \"ConcejoDeliberante/contracts/Declaracion.sol\":1784:1799  datosExtra[_id] */\n      0x00\n        /* \"ConcejoDeliberante/contracts/Declaracion.sol\":1795:1798  _id */\n      dup10\n        /* \"ConcejoDeliberante/contracts/Declaracion.sol\":1784:1799  datosExtra[_id] */\n      dup2\n      mstore\n      0x20\n      add\n      swap1\n      dup2\n      mstore\n      0x20\n      add\n      0x00\n      keccak256\n        /* \"ConcejoDeliberante/contracts/Declaracion.sol\":1784:1918  datosExtra[_id] = DatosDeclaracion({... */\n      0x00\n      dup3\n      add\n      mload\n      dup2\n      0x00\n      add\n      exp(0x0100, 0x00)\n      dup2\n      sload\n      dup2\n      0xff\n      mul\n      not\n      and\n      swap1\n      dup4\n      0xff\n      and\n      mul\n      or\n      swap1\n      sstore\n      pop\n      0x20\n      dup3\n      add\n      mload\n      dup2\n      0x01\n      add\n      sstore\n      swap1\n      pop\n      pop\n        /* \"ConcejoDeliberante/contracts/Declaracion.sol\":1936:2010  DeclaracionAgregada(_id, _id, _categoria, _institucionBen, _estado, _hash) */\n      0xfed5b38ebba8c206df4b17453afe7b2837bdc8a8ff866b4ae24e2c2c3bff6404\n        /* \"ConcejoDeliberante/contracts/Declaracion.sol\":1956:1959  _id */\n      dup8\n        /* \"ConcejoDeliberante/contracts/Declaracion.sol\":1961:1964  _id */\n      dup9\n        /* \"ConcejoDeliberante/contracts/Declaracion.sol\":1966:1976  _categoria */\n      dup6\n        /* \"ConcejoDeliberante/contracts/Declaracion.sol\":1978:1993  _institucionBen */\n      dup6\n        /* \"ConcejoDeliberante/contracts/Declaracion.sol\":1995:2002  _estado */\n      dup6\n        /* \"ConcejoDeliberante/contracts/Declaracion.sol\":2004:2009  _hash */\n      dup11\n        /* \"ConcejoDeliberante/contracts/Declaracion.sol\":1936:2010  DeclaracionAgregada(_id, _id, _categoria, _institucionBen, _estado, _hash) */\n      mload(0x40)\n      tag_69\n      swap7\n      swap6\n      swap5\n      swap4\n      swap3\n      swap2\n      swap1\n      tag_70\n      jump\t// in\n    tag_69:\n      mload(0x40)\n      dup1\n      swap2\n      sub\n      swap1\n      log1\n        /* \"ConcejoDeliberante/contracts/Declaracion.sol\":1173:2018  function agregarDeclaracion(... */\n      pop\n      pop\n      pop\n      pop\n      pop\n      pop\n      pop\n      jump\t// out\n        /* \"ConcejoDeliberante/contracts/ActuacionBase.sol\":2420:2665  function _consultarActuacion(uint256 _id)... */\n    tag_35:\n        /* \"ConcejoDeliberante/contracts/ActuacionBase.sol\":2499:2515  Actuacion memory */\n      tag_71\n      tag_72\n      jump\t// in\n    tag_71:\n        /* \"ConcejoDeliberante/contracts/ActuacionBase.sol\":2539:2550  actuaciones */\n      0x01\n        /* \"ConcejoDeliberante/contracts/ActuacionBase.sol\":2539:2555  actuaciones[_id] */\n      0x00\n        /* \"ConcejoDeliberante/contracts/ActuacionBase.sol\":2551:2554  _id */\n      dup4\n        /* \"ConcejoDeliberante/contracts/ActuacionBase.sol\":2539:2555  actuaciones[_id] */\n      dup2\n      mstore\n      0x20\n      add\n      swap1\n      dup2\n      mstore\n      0x20\n      add\n      0x00\n      keccak256\n        /* \"ConcejoDeliberante/contracts/ActuacionBase.sol\":2539:2562  actuaciones[_id].existe */\n      0x02\n      add\n      0x00\n      swap1\n      sload\n      swap1\n      0x0100\n      exp\n      swap1\n      div\n      0xff\n      and\n        /* \"ConcejoDeliberante/contracts/ActuacionBase.sol\":2531:2589  require(actuaciones[_id].existe, \"La actuacion no existe\") */\n      tag_74\n      jumpi\n      mload(0x40)\n      0x08c379a000000000000000000000000000000000000000000000000000000000\n      dup2\n      mstore\n      0x04\n      add\n      tag_75\n      swap1\n      tag_76\n      jump\t// in\n    tag_75:\n      mload(0x40)\n      dup1\n      swap2\n      sub\n      swap1\n      revert\n    tag_74:\n        /* \"ConcejoDeliberante/contracts/ActuacionBase.sol\":2606:2617  actuaciones */\n      0x01\n        /* \"ConcejoDeliberante/contracts/ActuacionBase.sol\":2606:2622  actuaciones[_id] */\n      0x00\n        /* \"ConcejoDeliberante/contracts/ActuacionBase.sol\":2618:2621  _id */\n      dup4\n        /* \"ConcejoDeliberante/contracts/ActuacionBase.sol\":2606:2622  actuaciones[_id] */\n      dup2\n      mstore\n      0x20\n      add\n      swap1\n      dup2\n      mstore\n      0x20\n      add\n      0x00\n      keccak256\n        /* \"ConcejoDeliberante/contracts/ActuacionBase.sol\":2599:2622  return actuaciones[_id] */\n      mload(0x40)\n      dup1\n      0x80\n      add\n      0x40\n      mstore\n      swap1\n      dup2\n      0x00\n      dup3\n      add\n      sload\n      dup2\n      mstore\n      0x20\n      add\n      0x01\n      dup3\n      add\n      sload\n      dup2\n      mstore\n      0x20\n      add\n      0x02\n      dup3\n      add\n      0x00\n      swap1\n      sload\n      swap1\n      0x0100\n      exp\n      swap1\n      div\n      0xff\n      and\n      iszero\n      iszero\n      iszero\n      iszero\n      dup2\n      mstore\n      0x20\n      add\n      0x03\n      dup3\n      add\n      dup1\n      sload\n      dup1\n      0x20\n      mul\n      0x20\n      add\n      mload(0x40)\n      swap1\n      dup2\n      add\n      0x40\n      mstore\n      dup1\n      swap3\n      swap2\n      swap1\n      dup2\n      dup2\n      mstore\n      0x20\n      add\n      0x00\n      swap1\n    tag_77:\n      dup3\n      dup3\n      lt\n      iszero\n      tag_78\n      jumpi\n      dup4\n      dup3\n      swap1\n      0x00\n      mstore\n      keccak256(0x00, 0x20)\n      swap1\n      0x04\n      mul\n      add\n      mload(0x40)\n      dup1\n      0x80\n      add\n      0x40\n      mstore\n      swap1\n      dup2\n      0x00\n      dup3\n      add\n      sload\n      dup2\n      mstore\n      0x20\n      add\n      0x01\n      dup3\n      add\n      0x00\n      swap1\n      sload\n      swap1\n      0x0100\n      exp\n      swap1\n      div\n      0xff\n      and\n      0xff\n      and\n      0xff\n      and\n      dup2\n      mstore\n      0x20\n      add\n      0x02\n      dup3\n      add\n      sload\n      dup2\n      mstore\n      0x20\n      add\n      0x03\n      dup3\n      add\n      0x00\n      swap1\n      sload\n      swap1\n      0x0100\n      exp\n      swap1\n      div\n      0xffffffffffffffffffffffffffffffffffffffff\n      and\n      0xffffffffffffffffffffffffffffffffffffffff\n      and\n      0xffffffffffffffffffffffffffffffffffffffff\n      and\n      dup2\n      mstore\n      pop\n      pop\n      dup2\n      mstore\n      0x20\n      add\n      swap1\n      0x01\n      add\n      swap1\n      jump(tag_77)\n    tag_78:\n      pop\n      pop\n      pop\n      pop\n      dup2\n      mstore\n      pop\n      pop\n      swap1\n      pop\n        /* \"ConcejoDeliberante/contracts/ActuacionBase.sol\":2420:2665  function _consultarActuacion(uint256 _id)... */\n      swap2\n      swap1\n      pop\n      jump\t// out\n        /* \"ConcejoDeliberante/contracts/Declaracion.sol\":2090:2833  function consultarDeclaracion(uint256 _id)... */\n    tag_41:\n        /* \"ConcejoDeliberante/contracts/Declaracion.sol\":2195:2216  uint256 fechaCreacion */\n      0x00\n        /* \"ConcejoDeliberante/contracts/Declaracion.sol\":2231:2247  uint256 dniAutor */\n      0x00\n        /* \"ConcejoDeliberante/contracts/Declaracion.sol\":2262:2276  uint8   estado */\n      0x00\n        /* \"ConcejoDeliberante/contracts/Declaracion.sol\":2291:2308  uint8   categoria */\n      0x00\n        /* \"ConcejoDeliberante/contracts/Declaracion.sol\":2323:2345  bytes32 institucionBen */\n      0x00\n        /* \"ConcejoDeliberante/contracts/Declaracion.sol\":2360:2372  bytes32 hash */\n      0x00\n        /* \"ConcejoDeliberante/contracts/Declaracion.sol\":2400:2440  ActuacionBase.Actuacion memory actuacion */\n      0x00\n        /* \"ConcejoDeliberante/contracts/Declaracion.sol\":2443:2467  _consultarActuacion(_id) */\n      tag_81\n        /* \"ConcejoDeliberante/contracts/Declaracion.sol\":2463:2466  _id */\n      dup9\n        /* \"ConcejoDeliberante/contracts/Declaracion.sol\":2443:2462  _consultarActuacion */\n      tag_35\n        /* \"ConcejoDeliberante/contracts/Declaracion.sol\":2443:2467  _consultarActuacion(_id) */\n      jump\t// in\n    tag_81:\n        /* \"ConcejoDeliberante/contracts/Declaracion.sol\":2400:2467  ActuacionBase.Actuacion memory actuacion = _consultarActuacion(_id) */\n      swap1\n      pop\n        /* \"ConcejoDeliberante/contracts/Declaracion.sol\":2478:2504  DatosDeclaracion storage d */\n      0x00\n        /* \"ConcejoDeliberante/contracts/Declaracion.sol\":2507:2517  datosExtra */\n      0x03\n        /* \"ConcejoDeliberante/contracts/Declaracion.sol\":2507:2522  datosExtra[_id] */\n      0x00\n        /* \"ConcejoDeliberante/contracts/Declaracion.sol\":2518:2521  _id */\n      dup11\n        /* \"ConcejoDeliberante/contracts/Declaracion.sol\":2507:2522  datosExtra[_id] */\n      dup2\n      mstore\n      0x20\n      add\n      swap1\n      dup2\n      mstore\n      0x20\n      add\n      0x00\n      keccak256\n        /* \"ConcejoDeliberante/contracts/Declaracion.sol\":2478:2522  DatosDeclaracion storage d = datosExtra[_id] */\n      swap1\n      pop\n        /* \"ConcejoDeliberante/contracts/Declaracion.sol\":2557:2566  actuacion */\n      dup2\n        /* \"ConcejoDeliberante/contracts/Declaracion.sol\":2557:2580  actuacion.fechaCreacion */\n      0x00\n      add\n      mload\n        /* \"ConcejoDeliberante/contracts/Declaracion.sol\":2595:2604  actuacion */\n      dup3\n        /* \"ConcejoDeliberante/contracts/Declaracion.sol\":2595:2613  actuacion.dniAutor */\n      0x20\n      add\n      mload\n        /* \"ConcejoDeliberante/contracts/Declaracion.sol\":2628:2637  actuacion */\n      dup4\n        /* \"ConcejoDeliberante/contracts/Declaracion.sol\":2628:2647  actuacion.historial */\n      0x60\n      add\n      mload\n        /* \"ConcejoDeliberante/contracts/Declaracion.sol\":2677:2678  1 */\n      0x01\n        /* \"ConcejoDeliberante/contracts/Declaracion.sol\":2648:2657  actuacion */\n      dup6\n        /* \"ConcejoDeliberante/contracts/Declaracion.sol\":2648:2667  actuacion.historial */\n      0x60\n      add\n      mload\n        /* \"ConcejoDeliberante/contracts/Declaracion.sol\":2648:2674  actuacion.historial.length */\n      mload\n        /* \"ConcejoDeliberante/contracts/Declaracion.sol\":2648:2678  actuacion.historial.length - 1 */\n      tag_82\n      swap2\n      swap1\n      tag_83\n      jump\t// in\n    tag_82:\n        /* \"ConcejoDeliberante/contracts/Declaracion.sol\":2628:2679  actuacion.historial[actuacion.historial.length - 1] */\n      dup2\n      mload\n      dup2\n      lt\n      tag_84\n      jumpi\n      tag_85\n      tag_86\n      jump\t// in\n    tag_85:\n    tag_84:\n      0x20\n      mul\n      0x20\n      add\n      add\n      mload\n        /* \"ConcejoDeliberante/contracts/Declaracion.sol\":2628:2686  actuacion.historial[actuacion.historial.length - 1].estado */\n      0x20\n      add\n      mload\n        /* \"ConcejoDeliberante/contracts/Declaracion.sol\":2701:2702  d */\n      dup4\n        /* \"ConcejoDeliberante/contracts/Declaracion.sol\":2701:2712  d.categoria */\n      0x00\n      add\n      0x00\n      swap1\n      sload\n      swap1\n      0x0100\n      exp\n      swap1\n      div\n      0xff\n      and\n        /* \"ConcejoDeliberante/contracts/Declaracion.sol\":2727:2728  d */\n      dup5\n        /* \"ConcejoDeliberante/contracts/Declaracion.sol\":2727:2743  d.institucionBen */\n      0x01\n      add\n      sload\n        /* \"ConcejoDeliberante/contracts/Declaracion.sol\":2758:2767  actuacion */\n      dup7\n        /* \"ConcejoDeliberante/contracts/Declaracion.sol\":2758:2777  actuacion.historial */\n      0x60\n      add\n      mload\n        /* \"ConcejoDeliberante/contracts/Declaracion.sol\":2807:2808  1 */\n      0x01\n        /* \"ConcejoDeliberante/contracts/Declaracion.sol\":2778:2787  actuacion */\n      dup9\n        /* \"ConcejoDeliberante/contracts/Declaracion.sol\":2778:2797  actuacion.historial */\n      0x60\n      add\n      mload\n        /* \"ConcejoDeliberante/contracts/Declaracion.sol\":2778:2804  actuacion.historial.length */\n      mload\n        /* \"ConcejoDeliberante/contracts/Declaracion.sol\":2778:2808  actuacion.historial.length - 1 */\n      tag_87\n      swap2\n      swap1\n      tag_83\n      jump\t// in\n    tag_87:\n        /* \"ConcejoDeliberante/contracts/Declaracion.sol\":2758:2809  actuacion.historial[actuacion.historial.length - 1] */\n      dup2\n      mload\n      dup2\n      lt\n      tag_88\n      jumpi\n      tag_89\n      tag_86\n      jump\t// in\n    tag_89:\n    tag_88:\n      0x20\n      mul\n      0x20\n      add\n      add\n      mload\n        /* \"ConcejoDeliberante/contracts/Declaracion.sol\":2758:2814  actuacion.historial[actuacion.historial.length - 1].hash */\n      0x40\n      add\n      mload\n        /* \"ConcejoDeliberante/contracts/Declaracion.sol\":2535:2825  return (... */\n      swap8\n      pop\n      swap8\n      pop\n      swap8\n      pop\n      swap8\n      pop\n      swap8\n      pop\n      swap8\n      pop\n      pop\n      pop\n        /* \"ConcejoDeliberante/contracts/Declaracion.sol\":2090:2833  function consultarDeclaracion(uint256 _id)... */\n      swap2\n      swap4\n      swap6\n      pop\n      swap2\n      swap4\n      swap6\n      jump\t// out\n        /* \"ConcejoDeliberante/contracts/Declaracion.sol\":3720:3907  function eliminarDeclaracion(uint256 _id, uint8 _estado) public {... */\n    tag_48:\n        /* \"ConcejoDeliberante/contracts/Declaracion.sol\":3814:3815  2 */\n      0x02\n        /* \"ConcejoDeliberante/contracts/Declaracion.sol\":3803:3810  _estado */\n      dup2\n        /* \"ConcejoDeliberante/contracts/Declaracion.sol\":3803:3815  _estado == 2 */\n      0xff\n      and\n      eq\n        /* \"ConcejoDeliberante/contracts/Declaracion.sol\":3795:3856  require(_estado == 2, \"Estado invalido: use 2 para Derogada\") */\n      tag_91\n      jumpi\n      mload(0x40)\n      0x08c379a000000000000000000000000000000000000000000000000000000000\n      dup2\n      mstore\n      0x04\n      add\n      tag_92\n      swap1\n      tag_93\n      jump\t// in\n    tag_92:\n      mload(0x40)\n      dup1\n      swap2\n      sub\n      swap1\n      revert\n    tag_91:\n        /* \"ConcejoDeliberante/contracts/Declaracion.sol\":3867:3899  _eliminarActuacion(_id, _estado) */\n      tag_94\n        /* \"ConcejoDeliberante/contracts/Declaracion.sol\":3886:3889  _id */\n      dup3\n        /* \"ConcejoDeliberante/contracts/Declaracion.sol\":3891:3898  _estado */\n      dup3\n        /* \"ConcejoDeliberante/contracts/Declaracion.sol\":3867:3885  _eliminarActuacion */\n      tag_95\n        /* \"ConcejoDeliberante/contracts/Declaracion.sol\":3867:3899  _eliminarActuacion(_id, _estado) */\n      jump\t// in\n    tag_94:\n        /* \"ConcejoDeliberante/contracts/Declaracion.sol\":3720:3907  function eliminarDeclaracion(uint256 _id, uint8 _estado) public {... */\n      pop\n      pop\n      jump\t// out\n        /* \"ConcejoDeliberante/contracts/ActuacionBase.sol\":2974:3554  function _modificarActuacion(uint256 _id, uint8 _estadoNuevo, bytes32 _hashNuevo)... */\n    tag_54:\n        /* \"ConcejoDeliberante/contracts/ActuacionBase.sol\":3090:3102  bool success */\n      0x00\n        /* \"ConcejoDeliberante/contracts/ActuacionBase.sol\":3126:3137  actuaciones */\n      0x01\n        /* \"ConcejoDeliberante/contracts/ActuacionBase.sol\":3126:3142  actuaciones[_id] */\n      0x00\n        /* \"ConcejoDeliberante/contracts/ActuacionBase.sol\":3138:3141  _id */\n      dup6\n        /* \"ConcejoDeliberante/contracts/ActuacionBase.sol\":3126:3142  actuaciones[_id] */\n      dup2\n      mstore\n      0x20\n      add\n      swap1\n      dup2\n      mstore\n      0x20\n      add\n      0x00\n      keccak256\n        /* \"ConcejoDeliberante/contracts/ActuacionBase.sol\":3126:3149  actuaciones[_id].existe */\n      0x02\n      add\n      0x00\n      swap1\n      sload\n      swap1\n      0x0100\n      exp\n      swap1\n      div\n      0xff\n      and\n        /* \"ConcejoDeliberante/contracts/ActuacionBase.sol\":3118:3176  require(actuaciones[_id].existe, \"La actuacion no existe\") */\n      tag_97\n      jumpi\n      mload(0x40)\n      0x08c379a000000000000000000000000000000000000000000000000000000000\n      dup2\n      mstore\n      0x04\n      add\n      tag_98\n      swap1\n      tag_76\n      jump\t// in\n    tag_98:\n      mload(0x40)\n      dup1\n      swap2\n      sub\n      swap1\n      revert\n    tag_97:\n        /* \"ConcejoDeliberante/contracts/ActuacionBase.sol\":3208:3219  propietario */\n      0x00\n      0x00\n      swap1\n      sload\n      swap1\n      0x0100\n      exp\n      swap1\n      div\n      0xffffffffffffffffffffffffffffffffffffffff\n      and\n        /* \"ConcejoDeliberante/contracts/ActuacionBase.sol\":3194:3219  msg.sender == propietario */\n      0xffffffffffffffffffffffffffffffffffffffff\n      and\n        /* \"ConcejoDeliberante/contracts/ActuacionBase.sol\":3194:3204  msg.sender */\n      caller\n        /* \"ConcejoDeliberante/contracts/ActuacionBase.sol\":3194:3219  msg.sender == propietario */\n      0xffffffffffffffffffffffffffffffffffffffff\n      and\n      eq\n        /* \"ConcejoDeliberante/contracts/ActuacionBase.sol\":3186:3244  require(msg.sender == propietario, \"No es el propietario\") */\n      tag_99\n      jumpi\n      mload(0x40)\n      0x08c379a000000000000000000000000000000000000000000000000000000000\n      dup2\n      mstore\n      0x04\n      add\n      tag_100\n      swap1\n      tag_101\n      jump\t// in\n    tag_100:\n      mload(0x40)\n      dup1\n      swap2\n      sub\n      swap1\n      revert\n    tag_99:\n        /* \"ConcejoDeliberante/contracts/ActuacionBase.sol\":3255:3266  actuaciones */\n      0x01\n        /* \"ConcejoDeliberante/contracts/ActuacionBase.sol\":3255:3271  actuaciones[_id] */\n      0x00\n        /* \"ConcejoDeliberante/contracts/ActuacionBase.sol\":3267:3270  _id */\n      dup6\n        /* \"ConcejoDeliberante/contracts/ActuacionBase.sol\":3255:3271  actuaciones[_id] */\n      dup2\n      mstore\n      0x20\n      add\n      swap1\n      dup2\n      mstore\n      0x20\n      add\n      0x00\n      keccak256\n        /* \"ConcejoDeliberante/contracts/ActuacionBase.sol\":3255:3281  actuaciones[_id].historial */\n      0x03\n      add\n        /* \"ConcejoDeliberante/contracts/ActuacionBase.sol\":3287:3459  Cambio({... */\n      mload(0x40)\n      dup1\n      0x80\n      add\n      0x40\n      mstore\n      dup1\n        /* \"ConcejoDeliberante/contracts/ActuacionBase.sol\":3323:3338  block.timestamp */\n      timestamp\n        /* \"ConcejoDeliberante/contracts/ActuacionBase.sol\":3287:3459  Cambio({... */\n      dup2\n      mstore\n      0x20\n      add\n        /* \"ConcejoDeliberante/contracts/ActuacionBase.sol\":3436:3448  _estadoNuevo */\n      dup6\n        /* \"ConcejoDeliberante/contracts/ActuacionBase.sol\":3287:3459  Cambio({... */\n      0xff\n      and\n      dup2\n      mstore\n      0x20\n      add\n        /* \"ConcejoDeliberante/contracts/ActuacionBase.sol\":3397:3407  _hashNuevo */\n      dup5\n        /* \"ConcejoDeliberante/contracts/ActuacionBase.sol\":3287:3459  Cambio({... */\n      dup2\n      mstore\n      0x20\n      add\n        /* \"ConcejoDeliberante/contracts/ActuacionBase.sol\":3367:3377  msg.sender */\n      caller\n        /* \"ConcejoDeliberante/contracts/ActuacionBase.sol\":3287:3459  Cambio({... */\n      0xffffffffffffffffffffffffffffffffffffffff\n      and\n      dup2\n      mstore\n      pop\n        /* \"ConcejoDeliberante/contracts/ActuacionBase.sol\":3255:3460  actuaciones[_id].historial.push(Cambio({... */\n      swap1\n      dup1\n      0x01\n      dup2\n      sload\n      add\n      dup1\n      dup3\n      sstore\n      dup1\n      swap2\n      pop\n      pop\n      0x01\n      swap1\n      sub\n      swap1\n      0x00\n      mstore\n      keccak256(0x00, 0x20)\n      swap1\n      0x04\n      mul\n      add\n      0x00\n      swap1\n      swap2\n      swap1\n      swap2\n      swap1\n      swap2\n      pop\n      0x00\n      dup3\n      add\n      mload\n      dup2\n      0x00\n      add\n      sstore\n      0x20\n      dup3\n      add\n      mload\n      dup2\n      0x01\n      add\n      exp(0x0100, 0x00)\n      dup2\n      sload\n      dup2\n      0xff\n      mul\n      not\n      and\n      swap1\n      dup4\n      0xff\n      and\n      mul\n      or\n      swap1\n      sstore\n      pop\n      0x40\n      dup3\n      add\n      mload\n      dup2\n      0x02\n      add\n      sstore\n      0x60\n      dup3\n      add\n      mload\n      dup2\n      0x03\n      add\n      exp(0x0100, 0x00)\n      dup2\n      sload\n      dup2\n      0xffffffffffffffffffffffffffffffffffffffff\n      mul\n      not\n      and\n      swap1\n      dup4\n      0xffffffffffffffffffffffffffffffffffffffff\n      and\n      mul\n      or\n      swap1\n      sstore\n      pop\n      pop\n      pop\n        /* \"ConcejoDeliberante/contracts/ActuacionBase.sol\":3476:3526  ActuacionModificada(_id, _estadoNuevo, _hashNuevo) */\n      0x02fd7cca134bdc372692f9e8679a7046060ca6da0c386e7494b18b9c21b10652\n        /* \"ConcejoDeliberante/contracts/ActuacionBase.sol\":3496:3499  _id */\n      dup5\n        /* \"ConcejoDeliberante/contracts/ActuacionBase.sol\":3501:3513  _estadoNuevo */\n      dup5\n        /* \"ConcejoDeliberante/contracts/ActuacionBase.sol\":3515:3525  _hashNuevo */\n      dup5\n        /* \"ConcejoDeliberante/contracts/ActuacionBase.sol\":3476:3526  ActuacionModificada(_id, _estadoNuevo, _hashNuevo) */\n      mload(0x40)\n      tag_103\n      swap4\n      swap3\n      swap2\n      swap1\n      tag_56\n      jump\t// in\n    tag_103:\n      mload(0x40)\n      dup1\n      swap2\n      sub\n      swap1\n      log1\n        /* \"ConcejoDeliberante/contracts/ActuacionBase.sol\":3543:3547  true */\n      0x01\n        /* \"ConcejoDeliberante/contracts/ActuacionBase.sol\":3536:3547  return true */\n      swap1\n      pop\n        /* \"ConcejoDeliberante/contracts/ActuacionBase.sol\":2974:3554  function _modificarActuacion(uint256 _id, uint8 _estadoNuevo, bytes32 _hashNuevo)... */\n      swap4\n      swap3\n      pop\n      pop\n      pop\n      jump\t// out\n        /* \"ConcejoDeliberante/contracts/ActuacionBase.sol\":1625:2352  function _inicializarActuacion(... */\n    tag_68:\n        /* \"ConcejoDeliberante/contracts/ActuacionBase.sol\":1825:1836  actuaciones */\n      0x01\n        /* \"ConcejoDeliberante/contracts/ActuacionBase.sol\":1825:1841  actuaciones[_id] */\n      0x00\n        /* \"ConcejoDeliberante/contracts/ActuacionBase.sol\":1837:1840  _id */\n      dup7\n        /* \"ConcejoDeliberante/contracts/ActuacionBase.sol\":1825:1841  actuaciones[_id] */\n      dup2\n      mstore\n      0x20\n      add\n      swap1\n      dup2\n      mstore\n      0x20\n      add\n      0x00\n      keccak256\n        /* \"ConcejoDeliberante/contracts/ActuacionBase.sol\":1825:1848  actuaciones[_id].existe */\n      0x02\n      add\n      0x00\n      swap1\n      sload\n      swap1\n      0x0100\n      exp\n      swap1\n      div\n      0xff\n      and\n        /* \"ConcejoDeliberante/contracts/ActuacionBase.sol\":1824:1848  !actuaciones[_id].existe */\n      iszero\n        /* \"ConcejoDeliberante/contracts/ActuacionBase.sol\":1816:1875  require(!actuaciones[_id].existe, \"La actuacion ya existe\") */\n      tag_105\n      jumpi\n      mload(0x40)\n      0x08c379a000000000000000000000000000000000000000000000000000000000\n      dup2\n      mstore\n      0x04\n      add\n      tag_106\n      swap1\n      tag_107\n      jump\t// in\n    tag_106:\n      mload(0x40)\n      dup1\n      swap2\n      sub\n      swap1\n      revert\n    tag_105:\n        /* \"ConcejoDeliberante/contracts/ActuacionBase.sol\":1894:1913  Actuacion storage a */\n      0x00\n        /* \"ConcejoDeliberante/contracts/ActuacionBase.sol\":1916:1927  actuaciones */\n      0x01\n        /* \"ConcejoDeliberante/contracts/ActuacionBase.sol\":1916:1932  actuaciones[_id] */\n      0x00\n        /* \"ConcejoDeliberante/contracts/ActuacionBase.sol\":1928:1931  _id */\n      dup8\n        /* \"ConcejoDeliberante/contracts/ActuacionBase.sol\":1916:1932  actuaciones[_id] */\n      dup2\n      mstore\n      0x20\n      add\n      swap1\n      dup2\n      mstore\n      0x20\n      add\n      0x00\n      keccak256\n        /* \"ConcejoDeliberante/contracts/ActuacionBase.sol\":1894:1932  Actuacion storage a = actuaciones[_id] */\n      swap1\n      pop\n        /* \"ConcejoDeliberante/contracts/ActuacionBase.sol\":1960:1964  true */\n      0x01\n        /* \"ConcejoDeliberante/contracts/ActuacionBase.sol\":1942:1943  a */\n      dup2\n        /* \"ConcejoDeliberante/contracts/ActuacionBase.sol\":1942:1950  a.existe */\n      0x02\n      add\n      0x00\n        /* \"ConcejoDeliberante/contracts/ActuacionBase.sol\":1942:1964  a.existe        = true */\n      0x0100\n      exp\n      dup2\n      sload\n      dup2\n      0xff\n      mul\n      not\n      and\n      swap1\n      dup4\n      iszero\n      iszero\n      mul\n      or\n      swap1\n      sstore\n      pop\n        /* \"ConcejoDeliberante/contracts/ActuacionBase.sol\":1992:2001  _dniAutor */\n      dup5\n        /* \"ConcejoDeliberante/contracts/ActuacionBase.sol\":1974:1975  a */\n      dup2\n        /* \"ConcejoDeliberante/contracts/ActuacionBase.sol\":1974:1984  a.dniAutor */\n      0x01\n      add\n        /* \"ConcejoDeliberante/contracts/ActuacionBase.sol\":1974:2001  a.dniAutor      = _dniAutor */\n      dup2\n      swap1\n      sstore\n      pop\n        /* \"ConcejoDeliberante/contracts/ActuacionBase.sol\":2029:2043  _fechaCreacion */\n      dup2\n        /* \"ConcejoDeliberante/contracts/ActuacionBase.sol\":2011:2012  a */\n      dup2\n        /* \"ConcejoDeliberante/contracts/ActuacionBase.sol\":2011:2026  a.fechaCreacion */\n      0x00\n      add\n        /* \"ConcejoDeliberante/contracts/ActuacionBase.sol\":2011:2043  a.fechaCreacion = _fechaCreacion */\n      dup2\n      swap1\n      sstore\n      pop\n        /* \"ConcejoDeliberante/contracts/ActuacionBase.sol\":2054:2055  a */\n      dup1\n        /* \"ConcejoDeliberante/contracts/ActuacionBase.sol\":2054:2065  a.historial */\n      0x03\n      add\n        /* \"ConcejoDeliberante/contracts/ActuacionBase.sol\":2071:2234  Cambio({... */\n      mload(0x40)\n      dup1\n      0x80\n      add\n      0x40\n      mstore\n      dup1\n        /* \"ConcejoDeliberante/contracts/ActuacionBase.sol\":2108:2123  block.timestamp */\n      timestamp\n        /* \"ConcejoDeliberante/contracts/ActuacionBase.sol\":2071:2234  Cambio({... */\n      dup2\n      mstore\n      0x20\n      add\n        /* \"ConcejoDeliberante/contracts/ActuacionBase.sol\":2211:2223  _estadoNuevo */\n      dup7\n        /* \"ConcejoDeliberante/contracts/ActuacionBase.sol\":2071:2234  Cambio({... */\n      0xff\n      and\n      dup2\n      mstore\n      0x20\n      add\n        /* \"ConcejoDeliberante/contracts/ActuacionBase.sol\":2184:2189  _hash */\n      dup6\n        /* \"ConcejoDeliberante/contracts/ActuacionBase.sol\":2071:2234  Cambio({... */\n      dup2\n      mstore\n      0x20\n      add\n        /* \"ConcejoDeliberante/contracts/ActuacionBase.sol\":2153:2163  msg.sender */\n      caller\n        /* \"ConcejoDeliberante/contracts/ActuacionBase.sol\":2071:2234  Cambio({... */\n      0xffffffffffffffffffffffffffffffffffffffff\n      and\n      dup2\n      mstore\n      pop\n        /* \"ConcejoDeliberante/contracts/ActuacionBase.sol\":2054:2235  a.historial.push(Cambio({... */\n      swap1\n      dup1\n      0x01\n      dup2\n      sload\n      add\n      dup1\n      dup3\n      sstore\n      dup1\n      swap2\n      pop\n      pop\n      0x01\n      swap1\n      sub\n      swap1\n      0x00\n      mstore\n      keccak256(0x00, 0x20)\n      swap1\n      0x04\n      mul\n      add\n      0x00\n      swap1\n      swap2\n      swap1\n      swap2\n      swap1\n      swap2\n      pop\n      0x00\n      dup3\n      add\n      mload\n      dup2\n      0x00\n      add\n      sstore\n      0x20\n      dup3\n      add\n      mload\n      dup2\n      0x01\n      add\n      exp(0x0100, 0x00)\n      dup2\n      sload\n      dup2\n      0xff\n      mul\n      not\n      and\n      swap1\n      dup4\n      0xff\n      and\n      mul\n      or\n      swap1\n      sstore\n      pop\n      0x40\n      dup3\n      add\n      mload\n      dup2\n      0x02\n      add\n      sstore\n      0x60\n      dup3\n      add\n      mload\n      dup2\n      0x03\n      add\n      exp(0x0100, 0x00)\n      dup2\n      sload\n      dup2\n      0xffffffffffffffffffffffffffffffffffffffff\n      mul\n      not\n      and\n      swap1\n      dup4\n      0xffffffffffffffffffffffffffffffffffffffff\n      and\n      mul\n      or\n      swap1\n      sstore\n      pop\n      pop\n      pop\n        /* \"ConcejoDeliberante/contracts/ActuacionBase.sol\":2246:2249  ids */\n      0x02\n        /* \"ConcejoDeliberante/contracts/ActuacionBase.sol\":2255:2258  _id */\n      dup7\n        /* \"ConcejoDeliberante/contracts/ActuacionBase.sol\":2246:2259  ids.push(_id) */\n      swap1\n      dup1\n      0x01\n      dup2\n      sload\n      add\n      dup1\n      dup3\n      sstore\n      dup1\n      swap2\n      pop\n      pop\n      0x01\n      swap1\n      sub\n      swap1\n      0x00\n      mstore\n      keccak256(0x00, 0x20)\n      add\n      0x00\n      swap1\n      swap2\n      swap1\n      swap2\n      swap1\n      swap2\n      pop\n      sstore\n        /* \"ConcejoDeliberante/contracts/ActuacionBase.sol\":2275:2345  ActuacionAgregada(_id, _fechaCreacion, _dniAutor, _estadoNuevo, _hash) */\n      0x164383a2b97191661e35fd7054520c2abdf173025e32983b038ecb35a796cda7\n        /* \"ConcejoDeliberante/contracts/ActuacionBase.sol\":2293:2296  _id */\n      dup7\n        /* \"ConcejoDeliberante/contracts/ActuacionBase.sol\":2298:2312  _fechaCreacion */\n      dup4\n        /* \"ConcejoDeliberante/contracts/ActuacionBase.sol\":2314:2323  _dniAutor */\n      dup8\n        /* \"ConcejoDeliberante/contracts/ActuacionBase.sol\":2325:2337  _estadoNuevo */\n      dup8\n        /* \"ConcejoDeliberante/contracts/ActuacionBase.sol\":2339:2344  _hash */\n      dup8\n        /* \"ConcejoDeliberante/contracts/ActuacionBase.sol\":2275:2345  ActuacionAgregada(_id, _fechaCreacion, _dniAutor, _estadoNuevo, _hash) */\n      mload(0x40)\n      tag_110\n      swap6\n      swap5\n      swap4\n      swap3\n      swap2\n      swap1\n      tag_111\n      jump\t// in\n    tag_110:\n      mload(0x40)\n      dup1\n      swap2\n      sub\n      swap1\n      log1\n        /* \"ConcejoDeliberante/contracts/ActuacionBase.sol\":1797:2352  {... */\n      pop\n        /* \"ConcejoDeliberante/contracts/ActuacionBase.sol\":1625:2352  function _inicializarActuacion(... */\n      pop\n      pop\n      pop\n      pop\n      pop\n      jump\t// out\n        /* \"ConcejoDeliberante/contracts/ActuacionBase.sol\":3756:4285  function _eliminarActuacion (uint256 _id, uint8 _estadoNuevo) internal {... */\n    tag_95:\n        /* \"ConcejoDeliberante/contracts/ActuacionBase.sol\":3845:3856  actuaciones */\n      0x01\n        /* \"ConcejoDeliberante/contracts/ActuacionBase.sol\":3845:3861  actuaciones[_id] */\n      0x00\n        /* \"ConcejoDeliberante/contracts/ActuacionBase.sol\":3857:3860  _id */\n      dup4\n        /* \"ConcejoDeliberante/contracts/ActuacionBase.sol\":3845:3861  actuaciones[_id] */\n      dup2\n      mstore\n      0x20\n      add\n      swap1\n      dup2\n      mstore\n      0x20\n      add\n      0x00\n      keccak256\n        /* \"ConcejoDeliberante/contracts/ActuacionBase.sol\":3845:3868  actuaciones[_id].existe */\n      0x02\n      add\n      0x00\n      swap1\n      sload\n      swap1\n      0x0100\n      exp\n      swap1\n      div\n      0xff\n      and\n        /* \"ConcejoDeliberante/contracts/ActuacionBase.sol\":3837:3895  require(actuaciones[_id].existe, \"La actuacion no existe\") */\n      tag_113\n      jumpi\n      mload(0x40)\n      0x08c379a000000000000000000000000000000000000000000000000000000000\n      dup2\n      mstore\n      0x04\n      add\n      tag_114\n      swap1\n      tag_76\n      jump\t// in\n    tag_114:\n      mload(0x40)\n      dup1\n      swap2\n      sub\n      swap1\n      revert\n    tag_113:\n        /* \"ConcejoDeliberante/contracts/ActuacionBase.sol\":3927:3938  propietario */\n      0x00\n      0x00\n      swap1\n      sload\n      swap1\n      0x0100\n      exp\n      swap1\n      div\n      0xffffffffffffffffffffffffffffffffffffffff\n      and\n        /* \"ConcejoDeliberante/contracts/ActuacionBase.sol\":3913:3938  msg.sender == propietario */\n      0xffffffffffffffffffffffffffffffffffffffff\n      and\n        /* \"ConcejoDeliberante/contracts/ActuacionBase.sol\":3913:3923  msg.sender */\n      caller\n        /* \"ConcejoDeliberante/contracts/ActuacionBase.sol\":3913:3938  msg.sender == propietario */\n      0xffffffffffffffffffffffffffffffffffffffff\n      and\n      eq\n        /* \"ConcejoDeliberante/contracts/ActuacionBase.sol\":3905:3963  require(msg.sender == propietario, \"No es el propietario\") */\n      tag_115\n      jumpi\n      mload(0x40)\n      0x08c379a000000000000000000000000000000000000000000000000000000000\n      dup2\n      mstore\n      0x04\n      add\n      tag_116\n      swap1\n      tag_101\n      jump\t// in\n    tag_116:\n      mload(0x40)\n      dup1\n      swap2\n      sub\n      swap1\n      revert\n    tag_115:\n        /* \"ConcejoDeliberante/contracts/ActuacionBase.sol\":3973:3984  actuaciones */\n      0x01\n        /* \"ConcejoDeliberante/contracts/ActuacionBase.sol\":3973:3989  actuaciones[_id] */\n      0x00\n        /* \"ConcejoDeliberante/contracts/ActuacionBase.sol\":3985:3988  _id */\n      dup4\n        /* \"ConcejoDeliberante/contracts/ActuacionBase.sol\":3973:3989  actuaciones[_id] */\n      dup2\n      mstore\n      0x20\n      add\n      swap1\n      dup2\n      mstore\n      0x20\n      add\n      0x00\n      keccak256\n        /* \"ConcejoDeliberante/contracts/ActuacionBase.sol\":3973:3999  actuaciones[_id].historial */\n      0x03\n      add\n        /* \"ConcejoDeliberante/contracts/ActuacionBase.sol\":4005:4224  Cambio({... */\n      mload(0x40)\n      dup1\n      0x80\n      add\n      0x40\n      mstore\n      dup1\n        /* \"ConcejoDeliberante/contracts/ActuacionBase.sol\":4041:4056  block.timestamp */\n      timestamp\n        /* \"ConcejoDeliberante/contracts/ActuacionBase.sol\":4005:4224  Cambio({... */\n      dup2\n      mstore\n      0x20\n      add\n        /* \"ConcejoDeliberante/contracts/ActuacionBase.sol\":4201:4213  _estadoNuevo */\n      dup4\n        /* \"ConcejoDeliberante/contracts/ActuacionBase.sol\":4005:4224  Cambio({... */\n      0xff\n      and\n      dup2\n      mstore\n      0x20\n      add\n        /* \"ConcejoDeliberante/contracts/ActuacionBase.sol\":4123:4124  0 */\n      0x00\n        /* \"ConcejoDeliberante/contracts/ActuacionBase.sol\":4115:4125  bytes32(0) */\n      0x00\n      shl\n        /* \"ConcejoDeliberante/contracts/ActuacionBase.sol\":4005:4224  Cambio({... */\n      dup2\n      mstore\n      0x20\n      add\n        /* \"ConcejoDeliberante/contracts/ActuacionBase.sol\":4085:4095  msg.sender */\n      caller\n        /* \"ConcejoDeliberante/contracts/ActuacionBase.sol\":4005:4224  Cambio({... */\n      0xffffffffffffffffffffffffffffffffffffffff\n      and\n      dup2\n      mstore\n      pop\n        /* \"ConcejoDeliberante/contracts/ActuacionBase.sol\":3973:4225  actuaciones[_id].historial.push(Cambio({... */\n      swap1\n      dup1\n      0x01\n      dup2\n      sload\n      add\n      dup1\n      dup3\n      sstore\n      dup1\n      swap2\n      pop\n      pop\n      0x01\n      swap1\n      sub\n      swap1\n      0x00\n      mstore\n      keccak256(0x00, 0x20)\n      swap1\n      0x04\n      mul\n      add\n      0x00\n      swap1\n      swap2\n      swap1\n      swap2\n      swap1\n      swap2\n      pop\n      0x00\n      dup3\n      add\n      mload\n      dup2\n      0x00\n      add\n      sstore\n      0x20\n      dup3\n      add\n      mload\n      dup2\n      0x01\n      add\n      exp(0x0100, 0x00)\n      dup2\n      sload\n      dup2\n      0xff\n      mul\n      not\n      and\n      swap1\n      dup4\n      0xff\n      and\n      mul\n      or\n      swap1\n      sstore\n      pop\n      0x40\n      dup3\n      add\n      mload\n      dup2\n      0x02\n      add\n      sstore\n      0x60\n      dup3\n      add\n      mload\n      dup2\n      0x03\n      add\n      exp(0x0100, 0x00)\n      dup2\n      sload\n      dup2\n      0xffffffffffffffffffffffffffffffffffffffff\n      mul\n      not\n      and\n      swap1\n      dup4\n      0xffffffffffffffffffffffffffffffffffffffff\n      and\n      mul\n      or\n      swap1\n      sstore\n      pop\n      pop\n      pop\n        /* \"ConcejoDeliberante/contracts/ActuacionBase.sol\":4241:4278  ActuacionEliminada(_id, _estadoNuevo) */\n      0x55f3b2b2bc9c07499976075b3a9a78344b888c51b194889c9214c6eba4bf0113\n        /* \"ConcejoDeliberante/contracts/ActuacionBase.sol\":4260:4263  _id */\n      dup3\n        /* \"ConcejoDeliberante/contracts/ActuacionBase.sol\":4265:4277  _estadoNuevo */\n      dup3\n        /* \"ConcejoDeliberante/contracts/ActuacionBase.sol\":4241:4278  ActuacionEliminada(_id, _estadoNuevo) */\n      mload(0x40)\n      tag_118\n      swap3\n      swap2\n      swap1\n      tag_119\n      jump\t// in\n    tag_118:\n      mload(0x40)\n      dup1\n      swap2\n      sub\n      swap1\n      log1\n        /* \"ConcejoDeliberante/contracts/ActuacionBase.sol\":3756:4285  function _eliminarActuacion (uint256 _id, uint8 _estadoNuevo) internal {... */\n      pop\n      pop\n      jump\t// out\n    tag_72:\n      mload(0x40)\n      dup1\n      0x80\n      add\n      0x40\n      mstore\n      dup1\n      0x00\n      dup2\n      mstore\n      0x20\n      add\n      0x00\n      dup2\n      mstore\n      0x20\n      add\n      iszero(iszero(0x00))\n      dup2\n      mstore\n      0x20\n      add\n      0x60\n      dup2\n      mstore\n      pop\n      swap1\n      jump\t// out\n        /* \"#utility.yul\":7:133   */\n    tag_120:\n        /* \"#utility.yul\":44:51   */\n      0x00\n        /* \"#utility.yul\":84:126   */\n      0xffffffffffffffffffffffffffffffffffffffff\n        /* \"#utility.yul\":77:82   */\n      dup3\n        /* \"#utility.yul\":73:127   */\n      and\n        /* \"#utility.yul\":62:127   */\n      swap1\n      pop\n        /* \"#utility.yul\":7:133   */\n      swap2\n      swap1\n      pop\n      jump\t// out\n        /* \"#utility.yul\":139:235   */\n    tag_121:\n        /* \"#utility.yul\":176:183   */\n      0x00\n        /* \"#utility.yul\":205:229   */\n      tag_174\n        /* \"#utility.yul\":223:228   */\n      dup3\n        /* \"#utility.yul\":205:229   */\n      tag_120\n      jump\t// in\n    tag_174:\n        /* \"#utility.yul\":194:229   */\n      swap1\n      pop\n        /* \"#utility.yul\":139:235   */\n      swap2\n      swap1\n      pop\n      jump\t// out\n        /* \"#utility.yul\":241:359   */\n    tag_122:\n        /* \"#utility.yul\":328:352   */\n      tag_176\n        /* \"#utility.yul\":346:351   */\n      dup2\n        /* \"#utility.yul\":328:352   */\n      tag_121\n      jump\t// in\n    tag_176:\n        /* \"#utility.yul\":323:326   */\n      dup3\n        /* \"#utility.yul\":316:353   */\n      mstore\n        /* \"#utility.yul\":241:359   */\n      pop\n      pop\n      jump\t// out\n        /* \"#utility.yul\":365:587   */\n    tag_14:\n        /* \"#utility.yul\":458:462   */\n      0x00\n        /* \"#utility.yul\":496:498   */\n      0x20\n        /* \"#utility.yul\":485:494   */\n      dup3\n        /* \"#utility.yul\":481:499   */\n      add\n        /* \"#utility.yul\":473:499   */\n      swap1\n      pop\n        /* \"#utility.yul\":509:580   */\n      tag_178\n        /* \"#utility.yul\":577:578   */\n      0x00\n        /* \"#utility.yul\":566:575   */\n      dup4\n        /* \"#utility.yul\":562:579   */\n      add\n        /* \"#utility.yul\":553:559   */\n      dup5\n        /* \"#utility.yul\":509:580   */\n      tag_122\n      jump\t// in\n    tag_178:\n        /* \"#utility.yul\":365:587   */\n      swap3\n      swap2\n      pop\n      pop\n      jump\t// out\n        /* \"#utility.yul\":674:791   */\n    tag_124:\n        /* \"#utility.yul\":783:784   */\n      0x00\n        /* \"#utility.yul\":780:781   */\n      0x00\n        /* \"#utility.yul\":773:785   */\n      revert\n        /* \"#utility.yul\":920:997   */\n    tag_126:\n        /* \"#utility.yul\":957:964   */\n      0x00\n        /* \"#utility.yul\":986:991   */\n      dup2\n        /* \"#utility.yul\":975:991   */\n      swap1\n      pop\n        /* \"#utility.yul\":920:997   */\n      swap2\n      swap1\n      pop\n      jump\t// out\n        /* \"#utility.yul\":1003:1125   */\n    tag_127:\n        /* \"#utility.yul\":1076:1100   */\n      tag_184\n        /* \"#utility.yul\":1094:1099   */\n      dup2\n        /* \"#utility.yul\":1076:1100   */\n      tag_126\n      jump\t// in\n    tag_184:\n        /* \"#utility.yul\":1069:1074   */\n      dup2\n        /* \"#utility.yul\":1066:1101   */\n      eq\n        /* \"#utility.yul\":1056:1119   */\n      tag_185\n      jumpi\n        /* \"#utility.yul\":1115:1116   */\n      0x00\n        /* \"#utility.yul\":1112:1113   */\n      0x00\n        /* \"#utility.yul\":1105:1117   */\n      revert\n        /* \"#utility.yul\":1056:1119   */\n    tag_185:\n        /* \"#utility.yul\":1003:1125   */\n      pop\n      jump\t// out\n        /* \"#utility.yul\":1131:1270   */\n    tag_128:\n        /* \"#utility.yul\":1177:1182   */\n      0x00\n        /* \"#utility.yul\":1215:1221   */\n      dup2\n        /* \"#utility.yul\":1202:1222   */\n      calldataload\n        /* \"#utility.yul\":1193:1222   */\n      swap1\n      pop\n        /* \"#utility.yul\":1231:1264   */\n      tag_187\n        /* \"#utility.yul\":1258:1263   */\n      dup2\n        /* \"#utility.yul\":1231:1264   */\n      tag_127\n      jump\t// in\n    tag_187:\n        /* \"#utility.yul\":1131:1270   */\n      swap3\n      swap2\n      pop\n      pop\n      jump\t// out\n        /* \"#utility.yul\":1276:1362   */\n    tag_129:\n        /* \"#utility.yul\":1311:1318   */\n      0x00\n        /* \"#utility.yul\":1351:1355   */\n      0xff\n        /* \"#utility.yul\":1344:1349   */\n      dup3\n        /* \"#utility.yul\":1340:1356   */\n      and\n        /* \"#utility.yul\":1329:1356   */\n      swap1\n      pop\n        /* \"#utility.yul\":1276:1362   */\n      swap2\n      swap1\n      pop\n      jump\t// out\n        /* \"#utility.yul\":1368:1486   */\n    tag_130:\n        /* \"#utility.yul\":1439:1461   */\n      tag_190\n        /* \"#utility.yul\":1455:1460   */\n      dup2\n        /* \"#utility.yul\":1439:1461   */\n      tag_129\n      jump\t// in\n    tag_190:\n        /* \"#utility.yul\":1432:1437   */\n      dup2\n        /* \"#utility.yul\":1429:1462   */\n      eq\n        /* \"#utility.yul\":1419:1480   */\n      tag_191\n      jumpi\n        /* \"#utility.yul\":1476:1477   */\n      0x00\n        /* \"#utility.yul\":1473:1474   */\n      0x00\n        /* \"#utility.yul\":1466:1478   */\n      revert\n        /* \"#utility.yul\":1419:1480   */\n    tag_191:\n        /* \"#utility.yul\":1368:1486   */\n      pop\n      jump\t// out\n        /* \"#utility.yul\":1492:1627   */\n    tag_131:\n        /* \"#utility.yul\":1536:1541   */\n      0x00\n        /* \"#utility.yul\":1574:1580   */\n      dup2\n        /* \"#utility.yul\":1561:1581   */\n      calldataload\n        /* \"#utility.yul\":1552:1581   */\n      swap1\n      pop\n        /* \"#utility.yul\":1590:1621   */\n      tag_193\n        /* \"#utility.yul\":1615:1620   */\n      dup2\n        /* \"#utility.yul\":1590:1621   */\n      tag_130\n      jump\t// in\n    tag_193:\n        /* \"#utility.yul\":1492:1627   */\n      swap3\n      swap2\n      pop\n      pop\n      jump\t// out\n        /* \"#utility.yul\":1633:1710   */\n    tag_132:\n        /* \"#utility.yul\":1670:1677   */\n      0x00\n        /* \"#utility.yul\":1699:1704   */\n      dup2\n        /* \"#utility.yul\":1688:1704   */\n      swap1\n      pop\n        /* \"#utility.yul\":1633:1710   */\n      swap2\n      swap1\n      pop\n      jump\t// out\n        /* \"#utility.yul\":1716:1838   */\n    tag_133:\n        /* \"#utility.yul\":1789:1813   */\n      tag_196\n        /* \"#utility.yul\":1807:1812   */\n      dup2\n        /* \"#utility.yul\":1789:1813   */\n      tag_132\n      jump\t// in\n    tag_196:\n        /* \"#utility.yul\":1782:1787   */\n      dup2\n        /* \"#utility.yul\":1779:1814   */\n      eq\n        /* \"#utility.yul\":1769:1832   */\n      tag_197\n      jumpi\n        /* \"#utility.yul\":1828:1829   */\n      0x00\n        /* \"#utility.yul\":1825:1826   */\n      0x00\n        /* \"#utility.yul\":1818:1830   */\n      revert\n        /* \"#utility.yul\":1769:1832   */\n    tag_197:\n        /* \"#utility.yul\":1716:1838   */\n      pop\n      jump\t// out\n        /* \"#utility.yul\":1844:1983   */\n    tag_134:\n        /* \"#utility.yul\":1890:1895   */\n      0x00\n        /* \"#utility.yul\":1928:1934   */\n      dup2\n        /* \"#utility.yul\":1915:1935   */\n      calldataload\n        /* \"#utility.yul\":1906:1935   */\n      swap1\n      pop\n        /* \"#utility.yul\":1944:1977   */\n      tag_199\n        /* \"#utility.yul\":1971:1976   */\n      dup2\n        /* \"#utility.yul\":1944:1977   */\n      tag_133\n      jump\t// in\n    tag_199:\n        /* \"#utility.yul\":1844:1983   */\n      swap3\n      swap2\n      pop\n      pop\n      jump\t// out\n        /* \"#utility.yul\":1989:2604   */\n    tag_18:\n        /* \"#utility.yul\":2064:2070   */\n      0x00\n        /* \"#utility.yul\":2072:2078   */\n      0x00\n        /* \"#utility.yul\":2080:2086   */\n      0x00\n        /* \"#utility.yul\":2129:2131   */\n      0x60\n        /* \"#utility.yul\":2117:2126   */\n      dup5\n        /* \"#utility.yul\":2108:2115   */\n      dup7\n        /* \"#utility.yul\":2104:2127   */\n      sub\n        /* \"#utility.yul\":2100:2132   */\n      slt\n        /* \"#utility.yul\":2097:2216   */\n      iszero\n      tag_201\n      jumpi\n        /* \"#utility.yul\":2135:2214   */\n      tag_202\n      tag_124\n      jump\t// in\n    tag_202:\n        /* \"#utility.yul\":2097:2216   */\n    tag_201:\n        /* \"#utility.yul\":2255:2256   */\n      0x00\n        /* \"#utility.yul\":2280:2333   */\n      tag_203\n        /* \"#utility.yul\":2325:2332   */\n      dup7\n        /* \"#utility.yul\":2316:2322   */\n      dup3\n        /* \"#utility.yul\":2305:2314   */\n      dup8\n        /* \"#utility.yul\":2301:2323   */\n      add\n        /* \"#utility.yul\":2280:2333   */\n      tag_128\n      jump\t// in\n    tag_203:\n        /* \"#utility.yul\":2270:2333   */\n      swap4\n      pop\n        /* \"#utility.yul\":2226:2343   */\n      pop\n        /* \"#utility.yul\":2382:2384   */\n      0x20\n        /* \"#utility.yul\":2408:2459   */\n      tag_204\n        /* \"#utility.yul\":2451:2458   */\n      dup7\n        /* \"#utility.yul\":2442:2448   */\n      dup3\n        /* \"#utility.yul\":2431:2440   */\n      dup8\n        /* \"#utility.yul\":2427:2449   */\n      add\n        /* \"#utility.yul\":2408:2459   */\n      tag_131\n      jump\t// in\n    tag_204:\n        /* \"#utility.yul\":2398:2459   */\n      swap3\n      pop\n        /* \"#utility.yul\":2353:2469   */\n      pop\n        /* \"#utility.yul\":2508:2510   */\n      0x40\n        /* \"#utility.yul\":2534:2587   */\n      tag_205\n        /* \"#utility.yul\":2579:2586   */\n      dup7\n        /* \"#utility.yul\":2570:2576   */\n      dup3\n        /* \"#utility.yul\":2559:2568   */\n      dup8\n        /* \"#utility.yul\":2555:2577   */\n      add\n        /* \"#utility.yul\":2534:2587   */\n      tag_134\n      jump\t// in\n    tag_205:\n        /* \"#utility.yul\":2524:2587   */\n      swap2\n      pop\n        /* \"#utility.yul\":2479:2597   */\n      pop\n        /* \"#utility.yul\":1989:2604   */\n      swap3\n      pop\n      swap3\n      pop\n      swap3\n      jump\t// out\n        /* \"#utility.yul\":2610:2700   */\n    tag_135:\n        /* \"#utility.yul\":2644:2651   */\n      0x00\n        /* \"#utility.yul\":2687:2692   */\n      dup2\n        /* \"#utility.yul\":2680:2693   */\n      iszero\n        /* \"#utility.yul\":2673:2694   */\n      iszero\n        /* \"#utility.yul\":2662:2694   */\n      swap1\n      pop\n        /* \"#utility.yul\":2610:2700   */\n      swap2\n      swap1\n      pop\n      jump\t// out\n        /* \"#utility.yul\":2706:2815   */\n    tag_136:\n        /* \"#utility.yul\":2787:2808   */\n      tag_208\n        /* \"#utility.yul\":2802:2807   */\n      dup2\n        /* \"#utility.yul\":2787:2808   */\n      tag_135\n      jump\t// in\n    tag_208:\n        /* \"#utility.yul\":2782:2785   */\n      dup3\n        /* \"#utility.yul\":2775:2809   */\n      mstore\n        /* \"#utility.yul\":2706:2815   */\n      pop\n      pop\n      jump\t// out\n        /* \"#utility.yul\":2821:3031   */\n    tag_21:\n        /* \"#utility.yul\":2908:2912   */\n      0x00\n        /* \"#utility.yul\":2946:2948   */\n      0x20\n        /* \"#utility.yul\":2935:2944   */\n      dup3\n        /* \"#utility.yul\":2931:2949   */\n      add\n        /* \"#utility.yul\":2923:2949   */\n      swap1\n      pop\n        /* \"#utility.yul\":2959:3024   */\n      tag_210\n        /* \"#utility.yul\":3021:3022   */\n      0x00\n        /* \"#utility.yul\":3010:3019   */\n      dup4\n        /* \"#utility.yul\":3006:3023   */\n      add\n        /* \"#utility.yul\":2997:3003   */\n      dup5\n        /* \"#utility.yul\":2959:3024   */\n      tag_136\n      jump\t// in\n    tag_210:\n        /* \"#utility.yul\":2821:3031   */\n      swap3\n      swap2\n      pop\n      pop\n      jump\t// out\n        /* \"#utility.yul\":3037:3155   */\n    tag_137:\n        /* \"#utility.yul\":3124:3148   */\n      tag_212\n        /* \"#utility.yul\":3142:3147   */\n      dup2\n        /* \"#utility.yul\":3124:3148   */\n      tag_126\n      jump\t// in\n    tag_212:\n        /* \"#utility.yul\":3119:3122   */\n      dup3\n        /* \"#utility.yul\":3112:3149   */\n      mstore\n        /* \"#utility.yul\":3037:3155   */\n      pop\n      pop\n      jump\t// out\n        /* \"#utility.yul\":3161:3383   */\n    tag_26:\n        /* \"#utility.yul\":3254:3258   */\n      0x00\n        /* \"#utility.yul\":3292:3294   */\n      0x20\n        /* \"#utility.yul\":3281:3290   */\n      dup3\n        /* \"#utility.yul\":3277:3295   */\n      add\n        /* \"#utility.yul\":3269:3295   */\n      swap1\n      pop\n        /* \"#utility.yul\":3305:3376   */\n      tag_214\n        /* \"#utility.yul\":3373:3374   */\n      0x00\n        /* \"#utility.yul\":3362:3371   */\n      dup4\n        /* \"#utility.yul\":3358:3375   */\n      add\n        /* \"#utility.yul\":3349:3355   */\n      dup5\n        /* \"#utility.yul\":3305:3376   */\n      tag_137\n      jump\t// in\n    tag_214:\n        /* \"#utility.yul\":3161:3383   */\n      swap3\n      swap2\n      pop\n      pop\n      jump\t// out\n        /* \"#utility.yul\":3389:4584   */\n    tag_29:\n        /* \"#utility.yul\":3498:3504   */\n      0x00\n        /* \"#utility.yul\":3506:3512   */\n      0x00\n        /* \"#utility.yul\":3514:3520   */\n      0x00\n        /* \"#utility.yul\":3522:3528   */\n      0x00\n        /* \"#utility.yul\":3530:3536   */\n      0x00\n        /* \"#utility.yul\":3538:3544   */\n      0x00\n        /* \"#utility.yul\":3546:3552   */\n      0x00\n        /* \"#utility.yul\":3595:3598   */\n      0xe0\n        /* \"#utility.yul\":3583:3592   */\n      dup9\n        /* \"#utility.yul\":3574:3581   */\n      dup11\n        /* \"#utility.yul\":3570:3593   */\n      sub\n        /* \"#utility.yul\":3566:3599   */\n      slt\n        /* \"#utility.yul\":3563:3683   */\n      iszero\n      tag_216\n      jumpi\n        /* \"#utility.yul\":3602:3681   */\n      tag_217\n      tag_124\n      jump\t// in\n    tag_217:\n        /* \"#utility.yul\":3563:3683   */\n    tag_216:\n        /* \"#utility.yul\":3722:3723   */\n      0x00\n        /* \"#utility.yul\":3747:3800   */\n      tag_218\n        /* \"#utility.yul\":3792:3799   */\n      dup11\n        /* \"#utility.yul\":3783:3789   */\n      dup3\n        /* \"#utility.yul\":3772:3781   */\n      dup12\n        /* \"#utility.yul\":3768:3790   */\n      add\n        /* \"#utility.yul\":3747:3800   */\n      tag_128\n      jump\t// in\n    tag_218:\n        /* \"#utility.yul\":3737:3800   */\n      swap8\n      pop\n        /* \"#utility.yul\":3693:3810   */\n      pop\n        /* \"#utility.yul\":3849:3851   */\n      0x20\n        /* \"#utility.yul\":3875:3928   */\n      tag_219\n        /* \"#utility.yul\":3920:3927   */\n      dup11\n        /* \"#utility.yul\":3911:3917   */\n      dup3\n        /* \"#utility.yul\":3900:3909   */\n      dup12\n        /* \"#utility.yul\":3896:3918   */\n      add\n        /* \"#utility.yul\":3875:3928   */\n      tag_128\n      jump\t// in\n    tag_219:\n        /* \"#utility.yul\":3865:3928   */\n      swap7\n      pop\n        /* \"#utility.yul\":3820:3938   */\n      pop\n        /* \"#utility.yul\":3977:3979   */\n      0x40\n        /* \"#utility.yul\":4003:4056   */\n      tag_220\n        /* \"#utility.yul\":4048:4055   */\n      dup11\n        /* \"#utility.yul\":4039:4045   */\n      dup3\n        /* \"#utility.yul\":4028:4037   */\n      dup12\n        /* \"#utility.yul\":4024:4046   */\n      add\n        /* \"#utility.yul\":4003:4056   */\n      tag_134\n      jump\t// in\n    tag_220:\n        /* \"#utility.yul\":3993:4056   */\n      swap6\n      pop\n        /* \"#utility.yul\":3948:4066   */\n      pop\n        /* \"#utility.yul\":4105:4107   */\n      0x60\n        /* \"#utility.yul\":4131:4184   */\n      tag_221\n        /* \"#utility.yul\":4176:4183   */\n      dup11\n        /* \"#utility.yul\":4167:4173   */\n      dup3\n        /* \"#utility.yul\":4156:4165   */\n      dup12\n        /* \"#utility.yul\":4152:4174   */\n      add\n        /* \"#utility.yul\":4131:4184   */\n      tag_128\n      jump\t// in\n    tag_221:\n        /* \"#utility.yul\":4121:4184   */\n      swap5\n      pop\n        /* \"#utility.yul\":4076:4194   */\n      pop\n        /* \"#utility.yul\":4233:4236   */\n      0x80\n        /* \"#utility.yul\":4260:4311   */\n      tag_222\n        /* \"#utility.yul\":4303:4310   */\n      dup11\n        /* \"#utility.yul\":4294:4300   */\n      dup3\n        /* \"#utility.yul\":4283:4292   */\n      dup12\n        /* \"#utility.yul\":4279:4301   */\n      add\n        /* \"#utility.yul\":4260:4311   */\n      tag_131\n      jump\t// in\n    tag_222:\n        /* \"#utility.yul\":4250:4311   */\n      swap4\n      pop\n        /* \"#utility.yul\":4204:4321   */\n      pop\n        /* \"#utility.yul\":4360:4363   */\n      0xa0\n        /* \"#utility.yul\":4387:4440   */\n      tag_223\n        /* \"#utility.yul\":4432:4439   */\n      dup11\n        /* \"#utility.yul\":4423:4429   */\n      dup3\n        /* \"#utility.yul\":4412:4421   */\n      dup12\n        /* \"#utility.yul\":4408:4430   */\n      add\n        /* \"#utility.yul\":4387:4440   */\n      tag_134\n      jump\t// in\n    tag_223:\n        /* \"#utility.yul\":4377:4440   */\n      swap3\n      pop\n        /* \"#utility.yul\":4331:4450   */\n      pop\n        /* \"#utility.yul\":4489:4492   */\n      0xc0\n        /* \"#utility.yul\":4516:4567   */\n      tag_224\n        /* \"#utility.yul\":4559:4566   */\n      dup11\n        /* \"#utility.yul\":4550:4556   */\n      dup3\n        /* \"#utility.yul\":4539:4548   */\n      dup12\n        /* \"#utility.yul\":4535:4557   */\n      add\n        /* \"#utility.yul\":4516:4567   */\n      tag_131\n      jump\t// in\n    tag_224:\n        /* \"#utility.yul\":4506:4567   */\n      swap2\n      pop\n        /* \"#utility.yul\":4460:4577   */\n      pop\n        /* \"#utility.yul\":3389:4584   */\n      swap3\n      swap6\n      swap9\n      swap2\n      swap5\n      swap8\n      pop\n      swap3\n      swap6\n      pop\n      jump\t// out\n        /* \"#utility.yul\":4590:4919   */\n    tag_34:\n        /* \"#utility.yul\":4649:4655   */\n      0x00\n        /* \"#utility.yul\":4698:4700   */\n      0x20\n        /* \"#utility.yul\":4686:4695   */\n      dup3\n        /* \"#utility.yul\":4677:4684   */\n      dup5\n        /* \"#utility.yul\":4673:4696   */\n      sub\n        /* \"#utility.yul\":4669:4701   */\n      slt\n        /* \"#utility.yul\":4666:4785   */\n      iszero\n      tag_226\n      jumpi\n        /* \"#utility.yul\":4704:4783   */\n      tag_227\n      tag_124\n      jump\t// in\n    tag_227:\n        /* \"#utility.yul\":4666:4785   */\n    tag_226:\n        /* \"#utility.yul\":4824:4825   */\n      0x00\n        /* \"#utility.yul\":4849:4902   */\n      tag_228\n        /* \"#utility.yul\":4894:4901   */\n      dup5\n        /* \"#utility.yul\":4885:4891   */\n      dup3\n        /* \"#utility.yul\":4874:4883   */\n      dup6\n        /* \"#utility.yul\":4870:4892   */\n      add\n        /* \"#utility.yul\":4849:4902   */\n      tag_128\n      jump\t// in\n    tag_228:\n        /* \"#utility.yul\":4839:4902   */\n      swap2\n      pop\n        /* \"#utility.yul\":4795:4912   */\n      pop\n        /* \"#utility.yul\":4590:4919   */\n      swap3\n      swap2\n      pop\n      pop\n      jump\t// out\n        /* \"#utility.yul\":4925:5033   */\n    tag_138:\n        /* \"#utility.yul\":5002:5026   */\n      tag_230\n        /* \"#utility.yul\":5020:5025   */\n      dup2\n        /* \"#utility.yul\":5002:5026   */\n      tag_126\n      jump\t// in\n    tag_230:\n        /* \"#utility.yul\":4997:5000   */\n      dup3\n        /* \"#utility.yul\":4990:5027   */\n      mstore\n        /* \"#utility.yul\":4925:5033   */\n      pop\n      pop\n      jump\t// out\n        /* \"#utility.yul\":5039:5138   */\n    tag_139:\n        /* \"#utility.yul\":5110:5131   */\n      tag_232\n        /* \"#utility.yul\":5125:5130   */\n      dup2\n        /* \"#utility.yul\":5110:5131   */\n      tag_135\n      jump\t// in\n    tag_232:\n        /* \"#utility.yul\":5105:5108   */\n      dup3\n        /* \"#utility.yul\":5098:5132   */\n      mstore\n        /* \"#utility.yul\":5039:5138   */\n      pop\n      pop\n      jump\t// out\n        /* \"#utility.yul\":5144:5280   */\n    tag_140:\n        /* \"#utility.yul\":5233:5239   */\n      0x00\n        /* \"#utility.yul\":5267:5272   */\n      dup2\n        /* \"#utility.yul\":5261:5273   */\n      mload\n        /* \"#utility.yul\":5251:5273   */\n      swap1\n      pop\n        /* \"#utility.yul\":5144:5280   */\n      swap2\n      swap1\n      pop\n      jump\t// out\n        /* \"#utility.yul\":5286:5482   */\n    tag_141:\n        /* \"#utility.yul\":5397:5408   */\n      0x00\n        /* \"#utility.yul\":5431:5437   */\n      dup3\n        /* \"#utility.yul\":5426:5429   */\n      dup3\n        /* \"#utility.yul\":5419:5438   */\n      mstore\n        /* \"#utility.yul\":5471:5475   */\n      0x20\n        /* \"#utility.yul\":5466:5469   */\n      dup3\n        /* \"#utility.yul\":5462:5476   */\n      add\n        /* \"#utility.yul\":5447:5476   */\n      swap1\n      pop\n        /* \"#utility.yul\":5286:5482   */\n      swap3\n      swap2\n      pop\n      pop\n      jump\t// out\n        /* \"#utility.yul\":5488:5642   */\n    tag_142:\n        /* \"#utility.yul\":5577:5581   */\n      0x00\n        /* \"#utility.yul\":5600:5603   */\n      dup2\n        /* \"#utility.yul\":5592:5603   */\n      swap1\n      pop\n        /* \"#utility.yul\":5630:5634   */\n      0x20\n        /* \"#utility.yul\":5625:5628   */\n      dup3\n        /* \"#utility.yul\":5621:5635   */\n      add\n        /* \"#utility.yul\":5613:5635   */\n      swap1\n      pop\n        /* \"#utility.yul\":5488:5642   */\n      swap2\n      swap1\n      pop\n      jump\t// out\n        /* \"#utility.yul\":5648:5750   */\n    tag_143:\n        /* \"#utility.yul\":5721:5743   */\n      tag_237\n        /* \"#utility.yul\":5737:5742   */\n      dup2\n        /* \"#utility.yul\":5721:5743   */\n      tag_129\n      jump\t// in\n    tag_237:\n        /* \"#utility.yul\":5716:5719   */\n      dup3\n        /* \"#utility.yul\":5709:5744   */\n      mstore\n        /* \"#utility.yul\":5648:5750   */\n      pop\n      pop\n      jump\t// out\n        /* \"#utility.yul\":5756:5864   */\n    tag_144:\n        /* \"#utility.yul\":5833:5857   */\n      tag_239\n        /* \"#utility.yul\":5851:5856   */\n      dup2\n        /* \"#utility.yul\":5833:5857   */\n      tag_132\n      jump\t// in\n    tag_239:\n        /* \"#utility.yul\":5828:5831   */\n      dup3\n        /* \"#utility.yul\":5821:5858   */\n      mstore\n        /* \"#utility.yul\":5756:5864   */\n      pop\n      pop\n      jump\t// out\n        /* \"#utility.yul\":5870:5978   */\n    tag_145:\n        /* \"#utility.yul\":5947:5971   */\n      tag_241\n        /* \"#utility.yul\":5965:5970   */\n      dup2\n        /* \"#utility.yul\":5947:5971   */\n      tag_121\n      jump\t// in\n    tag_241:\n        /* \"#utility.yul\":5942:5945   */\n      dup3\n        /* \"#utility.yul\":5935:5972   */\n      mstore\n        /* \"#utility.yul\":5870:5978   */\n      pop\n      pop\n      jump\t// out\n        /* \"#utility.yul\":6050:6901   */\n    tag_146:\n        /* \"#utility.yul\":6181:6185   */\n      0x80\n        /* \"#utility.yul\":6176:6179   */\n      dup3\n        /* \"#utility.yul\":6172:6186   */\n      add\n        /* \"#utility.yul\":6273:6277   */\n      0x00\n        /* \"#utility.yul\":6266:6271   */\n      dup3\n        /* \"#utility.yul\":6262:6278   */\n      add\n        /* \"#utility.yul\":6256:6279   */\n      mload\n        /* \"#utility.yul\":6292:6355   */\n      tag_243\n        /* \"#utility.yul\":6349:6353   */\n      0x00\n        /* \"#utility.yul\":6344:6347   */\n      dup6\n        /* \"#utility.yul\":6340:6354   */\n      add\n        /* \"#utility.yul\":6326:6338   */\n      dup3\n        /* \"#utility.yul\":6292:6355   */\n      tag_138\n      jump\t// in\n    tag_243:\n        /* \"#utility.yul\":6196:6365   */\n      pop\n        /* \"#utility.yul\":6449:6453   */\n      0x20\n        /* \"#utility.yul\":6442:6447   */\n      dup3\n        /* \"#utility.yul\":6438:6454   */\n      add\n        /* \"#utility.yul\":6432:6455   */\n      mload\n        /* \"#utility.yul\":6468:6527   */\n      tag_244\n        /* \"#utility.yul\":6521:6525   */\n      0x20\n        /* \"#utility.yul\":6516:6519   */\n      dup6\n        /* \"#utility.yul\":6512:6526   */\n      add\n        /* \"#utility.yul\":6498:6510   */\n      dup3\n        /* \"#utility.yul\":6468:6527   */\n      tag_143\n      jump\t// in\n    tag_244:\n        /* \"#utility.yul\":6375:6537   */\n      pop\n        /* \"#utility.yul\":6619:6623   */\n      0x40\n        /* \"#utility.yul\":6612:6617   */\n      dup3\n        /* \"#utility.yul\":6608:6624   */\n      add\n        /* \"#utility.yul\":6602:6625   */\n      mload\n        /* \"#utility.yul\":6638:6701   */\n      tag_245\n        /* \"#utility.yul\":6695:6699   */\n      0x40\n        /* \"#utility.yul\":6690:6693   */\n      dup6\n        /* \"#utility.yul\":6686:6700   */\n      add\n        /* \"#utility.yul\":6672:6684   */\n      dup3\n        /* \"#utility.yul\":6638:6701   */\n      tag_144\n      jump\t// in\n    tag_245:\n        /* \"#utility.yul\":6547:6711   */\n      pop\n        /* \"#utility.yul\":6802:6806   */\n      0x60\n        /* \"#utility.yul\":6795:6800   */\n      dup3\n        /* \"#utility.yul\":6791:6807   */\n      add\n        /* \"#utility.yul\":6785:6808   */\n      mload\n        /* \"#utility.yul\":6821:6884   */\n      tag_246\n        /* \"#utility.yul\":6878:6882   */\n      0x60\n        /* \"#utility.yul\":6873:6876   */\n      dup6\n        /* \"#utility.yul\":6869:6883   */\n      add\n        /* \"#utility.yul\":6855:6867   */\n      dup3\n        /* \"#utility.yul\":6821:6884   */\n      tag_145\n      jump\t// in\n    tag_246:\n        /* \"#utility.yul\":6721:6894   */\n      pop\n        /* \"#utility.yul\":6150:6901   */\n      pop\n        /* \"#utility.yul\":6050:6901   */\n      pop\n      pop\n      jump\t// out\n        /* \"#utility.yul\":6907:7174   */\n    tag_147:\n        /* \"#utility.yul\":7020:7030   */\n      0x00\n        /* \"#utility.yul\":7041:7131   */\n      tag_248\n        /* \"#utility.yul\":7127:7130   */\n      dup4\n        /* \"#utility.yul\":7119:7125   */\n      dup4\n        /* \"#utility.yul\":7041:7131   */\n      tag_146\n      jump\t// in\n    tag_248:\n        /* \"#utility.yul\":7163:7167   */\n      0x80\n        /* \"#utility.yul\":7158:7161   */\n      dup4\n        /* \"#utility.yul\":7154:7168   */\n      add\n        /* \"#utility.yul\":7140:7168   */\n      swap1\n      pop\n        /* \"#utility.yul\":6907:7174   */\n      swap3\n      swap2\n      pop\n      pop\n      jump\t// out\n        /* \"#utility.yul\":7180:7315   */\n    tag_148:\n        /* \"#utility.yul\":7272:7276   */\n      0x00\n        /* \"#utility.yul\":7304:7308   */\n      0x20\n        /* \"#utility.yul\":7299:7302   */\n      dup3\n        /* \"#utility.yul\":7295:7309   */\n      add\n        /* \"#utility.yul\":7287:7309   */\n      swap1\n      pop\n        /* \"#utility.yul\":7180:7315   */\n      swap2\n      swap1\n      pop\n      jump\t// out\n        /* \"#utility.yul\":7391:8279   */\n    tag_149:\n        /* \"#utility.yul\":7544:7547   */\n      0x00\n        /* \"#utility.yul\":7573:7649   */\n      tag_251\n        /* \"#utility.yul\":7643:7648   */\n      dup3\n        /* \"#utility.yul\":7573:7649   */\n      tag_140\n      jump\t// in\n    tag_251:\n        /* \"#utility.yul\":7665:7763   */\n      tag_252\n        /* \"#utility.yul\":7756:7762   */\n      dup2\n        /* \"#utility.yul\":7751:7754   */\n      dup6\n        /* \"#utility.yul\":7665:7763   */\n      tag_141\n      jump\t// in\n    tag_252:\n        /* \"#utility.yul\":7658:7763   */\n      swap4\n      pop\n        /* \"#utility.yul\":7787:7865   */\n      tag_253\n        /* \"#utility.yul\":7859:7864   */\n      dup4\n        /* \"#utility.yul\":7787:7865   */\n      tag_142\n      jump\t// in\n    tag_253:\n        /* \"#utility.yul\":7888:7895   */\n      dup1\n        /* \"#utility.yul\":7919:7920   */\n      0x00\n        /* \"#utility.yul\":7904:8254   */\n    tag_254:\n        /* \"#utility.yul\":7929:7935   */\n      dup4\n        /* \"#utility.yul\":7926:7927   */\n      dup2\n        /* \"#utility.yul\":7923:7936   */\n      lt\n        /* \"#utility.yul\":7904:8254   */\n      iszero\n      tag_256\n      jumpi\n        /* \"#utility.yul\":8005:8011   */\n      dup2\n        /* \"#utility.yul\":7999:8012   */\n      mload\n        /* \"#utility.yul\":8032:8139   */\n      tag_257\n        /* \"#utility.yul\":8135:8138   */\n      dup9\n        /* \"#utility.yul\":8120:8133   */\n      dup3\n        /* \"#utility.yul\":8032:8139   */\n      tag_147\n      jump\t// in\n    tag_257:\n        /* \"#utility.yul\":8025:8139   */\n      swap8\n      pop\n        /* \"#utility.yul\":8162:8244   */\n      tag_258\n        /* \"#utility.yul\":8237:8243   */\n      dup4\n        /* \"#utility.yul\":8162:8244   */\n      tag_148\n      jump\t// in\n    tag_258:\n        /* \"#utility.yul\":8152:8244   */\n      swap3\n      pop\n        /* \"#utility.yul\":7964:8254   */\n      pop\n        /* \"#utility.yul\":7951:7952   */\n      0x01\n        /* \"#utility.yul\":7948:7949   */\n      dup2\n        /* \"#utility.yul\":7944:7953   */\n      add\n        /* \"#utility.yul\":7939:7953   */\n      swap1\n      pop\n        /* \"#utility.yul\":7904:8254   */\n      jump(tag_254)\n    tag_256:\n        /* \"#utility.yul\":7908:7922   */\n      pop\n        /* \"#utility.yul\":8270:8273   */\n      dup6\n        /* \"#utility.yul\":8263:8273   */\n      swap4\n      pop\n        /* \"#utility.yul\":7549:8279   */\n      pop\n      pop\n      pop\n        /* \"#utility.yul\":7391:8279   */\n      swap3\n      swap2\n      pop\n      pop\n      jump\t// out\n        /* \"#utility.yul\":8357:9399   */\n    tag_150:\n        /* \"#utility.yul\":8476:8479   */\n      0x00\n        /* \"#utility.yul\":8512:8516   */\n      0x80\n        /* \"#utility.yul\":8507:8510   */\n      dup4\n        /* \"#utility.yul\":8503:8517   */\n      add\n        /* \"#utility.yul\":8608:8612   */\n      0x00\n        /* \"#utility.yul\":8601:8606   */\n      dup4\n        /* \"#utility.yul\":8597:8613   */\n      add\n        /* \"#utility.yul\":8591:8614   */\n      mload\n        /* \"#utility.yul\":8627:8690   */\n      tag_260\n        /* \"#utility.yul\":8684:8688   */\n      0x00\n        /* \"#utility.yul\":8679:8682   */\n      dup7\n        /* \"#utility.yul\":8675:8689   */\n      add\n        /* \"#utility.yul\":8661:8673   */\n      dup3\n        /* \"#utility.yul\":8627:8690   */\n      tag_138\n      jump\t// in\n    tag_260:\n        /* \"#utility.yul\":8527:8700   */\n      pop\n        /* \"#utility.yul\":8786:8790   */\n      0x20\n        /* \"#utility.yul\":8779:8784   */\n      dup4\n        /* \"#utility.yul\":8775:8791   */\n      add\n        /* \"#utility.yul\":8769:8792   */\n      mload\n        /* \"#utility.yul\":8805:8868   */\n      tag_261\n        /* \"#utility.yul\":8862:8866   */\n      0x20\n        /* \"#utility.yul\":8857:8860   */\n      dup7\n        /* \"#utility.yul\":8853:8867   */\n      add\n        /* \"#utility.yul\":8839:8851   */\n      dup3\n        /* \"#utility.yul\":8805:8868   */\n      tag_138\n      jump\t// in\n    tag_261:\n        /* \"#utility.yul\":8710:8878   */\n      pop\n        /* \"#utility.yul\":8962:8966   */\n      0x40\n        /* \"#utility.yul\":8955:8960   */\n      dup4\n        /* \"#utility.yul\":8951:8967   */\n      add\n        /* \"#utility.yul\":8945:8968   */\n      mload\n        /* \"#utility.yul\":8981:9038   */\n      tag_262\n        /* \"#utility.yul\":9032:9036   */\n      0x40\n        /* \"#utility.yul\":9027:9030   */\n      dup7\n        /* \"#utility.yul\":9023:9037   */\n      add\n        /* \"#utility.yul\":9009:9021   */\n      dup3\n        /* \"#utility.yul\":8981:9038   */\n      tag_139\n      jump\t// in\n    tag_262:\n        /* \"#utility.yul\":8888:9048   */\n      pop\n        /* \"#utility.yul\":9135:9139   */\n      0x60\n        /* \"#utility.yul\":9128:9133   */\n      dup4\n        /* \"#utility.yul\":9124:9140   */\n      add\n        /* \"#utility.yul\":9118:9141   */\n      mload\n        /* \"#utility.yul\":9188:9191   */\n      dup5\n        /* \"#utility.yul\":9182:9186   */\n      dup3\n        /* \"#utility.yul\":9178:9192   */\n      sub\n        /* \"#utility.yul\":9171:9175   */\n      0x60\n        /* \"#utility.yul\":9166:9169   */\n      dup7\n        /* \"#utility.yul\":9162:9176   */\n      add\n        /* \"#utility.yul\":9155:9193   */\n      mstore\n        /* \"#utility.yul\":9214:9361   */\n      tag_263\n        /* \"#utility.yul\":9356:9360   */\n      dup3\n        /* \"#utility.yul\":9342:9354   */\n      dup3\n        /* \"#utility.yul\":9214:9361   */\n      tag_149\n      jump\t// in\n    tag_263:\n        /* \"#utility.yul\":9206:9361   */\n      swap2\n      pop\n        /* \"#utility.yul\":9058:9372   */\n      pop\n        /* \"#utility.yul\":9389:9393   */\n      dup1\n        /* \"#utility.yul\":9382:9393   */\n      swap2\n      pop\n        /* \"#utility.yul\":8481:9399   */\n      pop\n        /* \"#utility.yul\":8357:9399   */\n      swap3\n      swap2\n      pop\n      pop\n      jump\t// out\n        /* \"#utility.yul\":9405:9778   */\n    tag_37:\n        /* \"#utility.yul\":9548:9552   */\n      0x00\n        /* \"#utility.yul\":9586:9588   */\n      0x20\n        /* \"#utility.yul\":9575:9584   */\n      dup3\n        /* \"#utility.yul\":9571:9589   */\n      add\n        /* \"#utility.yul\":9563:9589   */\n      swap1\n      pop\n        /* \"#utility.yul\":9635:9644   */\n      dup2\n        /* \"#utility.yul\":9629:9633   */\n      dup2\n        /* \"#utility.yul\":9625:9645   */\n      sub\n        /* \"#utility.yul\":9621:9622   */\n      0x00\n        /* \"#utility.yul\":9610:9619   */\n      dup4\n        /* \"#utility.yul\":9606:9623   */\n      add\n        /* \"#utility.yul\":9599:9646   */\n      mstore\n        /* \"#utility.yul\":9663:9771   */\n      tag_265\n        /* \"#utility.yul\":9766:9770   */\n      dup2\n        /* \"#utility.yul\":9757:9763   */\n      dup5\n        /* \"#utility.yul\":9663:9771   */\n      tag_150\n      jump\t// in\n    tag_265:\n        /* \"#utility.yul\":9655:9771   */\n      swap1\n      pop\n        /* \"#utility.yul\":9405:9778   */\n      swap3\n      swap2\n      pop\n      pop\n      jump\t// out\n        /* \"#utility.yul\":9784:9896   */\n    tag_151:\n        /* \"#utility.yul\":9867:9889   */\n      tag_267\n        /* \"#utility.yul\":9883:9888   */\n      dup2\n        /* \"#utility.yul\":9867:9889   */\n      tag_129\n      jump\t// in\n    tag_267:\n        /* \"#utility.yul\":9862:9865   */\n      dup3\n        /* \"#utility.yul\":9855:9890   */\n      mstore\n        /* \"#utility.yul\":9784:9896   */\n      pop\n      pop\n      jump\t// out\n        /* \"#utility.yul\":9902:10020   */\n    tag_152:\n        /* \"#utility.yul\":9989:10013   */\n      tag_269\n        /* \"#utility.yul\":10007:10012   */\n      dup2\n        /* \"#utility.yul\":9989:10013   */\n      tag_132\n      jump\t// in\n    tag_269:\n        /* \"#utility.yul\":9984:9987   */\n      dup3\n        /* \"#utility.yul\":9977:10014   */\n      mstore\n        /* \"#utility.yul\":9902:10020   */\n      pop\n      pop\n      jump\t// out\n        /* \"#utility.yul\":10026:10785   */\n    tag_43:\n        /* \"#utility.yul\":10251:10255   */\n      0x00\n        /* \"#utility.yul\":10289:10292   */\n      0xc0\n        /* \"#utility.yul\":10278:10287   */\n      dup3\n        /* \"#utility.yul\":10274:10293   */\n      add\n        /* \"#utility.yul\":10266:10293   */\n      swap1\n      pop\n        /* \"#utility.yul\":10303:10374   */\n      tag_271\n        /* \"#utility.yul\":10371:10372   */\n      0x00\n        /* \"#utility.yul\":10360:10369   */\n      dup4\n        /* \"#utility.yul\":10356:10373   */\n      add\n        /* \"#utility.yul\":10347:10353   */\n      dup10\n        /* \"#utility.yul\":10303:10374   */\n      tag_137\n      jump\t// in\n    tag_271:\n        /* \"#utility.yul\":10384:10456   */\n      tag_272\n        /* \"#utility.yul\":10452:10454   */\n      0x20\n        /* \"#utility.yul\":10441:10450   */\n      dup4\n        /* \"#utility.yul\":10437:10455   */\n      add\n        /* \"#utility.yul\":10428:10434   */\n      dup9\n        /* \"#utility.yul\":10384:10456   */\n      tag_137\n      jump\t// in\n    tag_272:\n        /* \"#utility.yul\":10466:10534   */\n      tag_273\n        /* \"#utility.yul\":10530:10532   */\n      0x40\n        /* \"#utility.yul\":10519:10528   */\n      dup4\n        /* \"#utility.yul\":10515:10533   */\n      add\n        /* \"#utility.yul\":10506:10512   */\n      dup8\n        /* \"#utility.yul\":10466:10534   */\n      tag_151\n      jump\t// in\n    tag_273:\n        /* \"#utility.yul\":10544:10612   */\n      tag_274\n        /* \"#utility.yul\":10608:10610   */\n      0x60\n        /* \"#utility.yul\":10597:10606   */\n      dup4\n        /* \"#utility.yul\":10593:10611   */\n      add\n        /* \"#utility.yul\":10584:10590   */\n      dup7\n        /* \"#utility.yul\":10544:10612   */\n      tag_151\n      jump\t// in\n    tag_274:\n        /* \"#utility.yul\":10622:10695   */\n      tag_275\n        /* \"#utility.yul\":10690:10693   */\n      0x80\n        /* \"#utility.yul\":10679:10688   */\n      dup4\n        /* \"#utility.yul\":10675:10694   */\n      add\n        /* \"#utility.yul\":10666:10672   */\n      dup6\n        /* \"#utility.yul\":10622:10695   */\n      tag_152\n      jump\t// in\n    tag_275:\n        /* \"#utility.yul\":10705:10778   */\n      tag_276\n        /* \"#utility.yul\":10773:10776   */\n      0xa0\n        /* \"#utility.yul\":10762:10771   */\n      dup4\n        /* \"#utility.yul\":10758:10777   */\n      add\n        /* \"#utility.yul\":10749:10755   */\n      dup5\n        /* \"#utility.yul\":10705:10778   */\n      tag_152\n      jump\t// in\n    tag_276:\n        /* \"#utility.yul\":10026:10785   */\n      swap8\n      swap7\n      pop\n      pop\n      pop\n      pop\n      pop\n      pop\n      pop\n      jump\t// out\n        /* \"#utility.yul\":10791:11261   */\n    tag_47:\n        /* \"#utility.yul\":10857:10863   */\n      0x00\n        /* \"#utility.yul\":10865:10871   */\n      0x00\n        /* \"#utility.yul\":10914:10916   */\n      0x40\n        /* \"#utility.yul\":10902:10911   */\n      dup4\n        /* \"#utility.yul\":10893:10900   */\n      dup6\n        /* \"#utility.yul\":10889:10912   */\n      sub\n        /* \"#utility.yul\":10885:10917   */\n      slt\n        /* \"#utility.yul\":10882:11001   */\n      iszero\n      tag_278\n      jumpi\n        /* \"#utility.yul\":10920:10999   */\n      tag_279\n      tag_124\n      jump\t// in\n    tag_279:\n        /* \"#utility.yul\":10882:11001   */\n    tag_278:\n        /* \"#utility.yul\":11040:11041   */\n      0x00\n        /* \"#utility.yul\":11065:11118   */\n      tag_280\n        /* \"#utility.yul\":11110:11117   */\n      dup6\n        /* \"#utility.yul\":11101:11107   */\n      dup3\n        /* \"#utility.yul\":11090:11099   */\n      dup7\n        /* \"#utility.yul\":11086:11108   */\n      add\n        /* \"#utility.yul\":11065:11118   */\n      tag_128\n      jump\t// in\n    tag_280:\n        /* \"#utility.yul\":11055:11118   */\n      swap3\n      pop\n        /* \"#utility.yul\":11011:11128   */\n      pop\n        /* \"#utility.yul\":11167:11169   */\n      0x20\n        /* \"#utility.yul\":11193:11244   */\n      tag_281\n        /* \"#utility.yul\":11236:11243   */\n      dup6\n        /* \"#utility.yul\":11227:11233   */\n      dup3\n        /* \"#utility.yul\":11216:11225   */\n      dup7\n        /* \"#utility.yul\":11212:11234   */\n      add\n        /* \"#utility.yul\":11193:11244   */\n      tag_131\n      jump\t// in\n    tag_281:\n        /* \"#utility.yul\":11183:11244   */\n      swap2\n      pop\n        /* \"#utility.yul\":11138:11254   */\n      pop\n        /* \"#utility.yul\":10791:11261   */\n      swap3\n      pop\n      swap3\n      swap1\n      pop\n      jump\t// out\n        /* \"#utility.yul\":11267:11436   */\n    tag_153:\n        /* \"#utility.yul\":11351:11362   */\n      0x00\n        /* \"#utility.yul\":11385:11391   */\n      dup3\n        /* \"#utility.yul\":11380:11383   */\n      dup3\n        /* \"#utility.yul\":11373:11392   */\n      mstore\n        /* \"#utility.yul\":11425:11429   */\n      0x20\n        /* \"#utility.yul\":11420:11423   */\n      dup3\n        /* \"#utility.yul\":11416:11430   */\n      add\n        /* \"#utility.yul\":11401:11430   */\n      swap1\n      pop\n        /* \"#utility.yul\":11267:11436   */\n      swap3\n      swap2\n      pop\n      pop\n      jump\t// out\n        /* \"#utility.yul\":11442:11667   */\n    tag_154:\n        /* \"#utility.yul\":11582:11616   */\n      0x45737461646f20696e76616c69646f3a2075736520312070617261204d6f6469\n        /* \"#utility.yul\":11578:11579   */\n      0x00\n        /* \"#utility.yul\":11570:11576   */\n      dup3\n        /* \"#utility.yul\":11566:11580   */\n      add\n        /* \"#utility.yul\":11559:11617   */\n      mstore\n        /* \"#utility.yul\":11651:11659   */\n      0x6669636164610000000000000000000000000000000000000000000000000000\n        /* \"#utility.yul\":11646:11648   */\n      0x20\n        /* \"#utility.yul\":11638:11644   */\n      dup3\n        /* \"#utility.yul\":11634:11649   */\n      add\n        /* \"#utility.yul\":11627:11660   */\n      mstore\n        /* \"#utility.yul\":11442:11667   */\n      pop\n      jump\t// out\n        /* \"#utility.yul\":11673:12039   */\n    tag_155:\n        /* \"#utility.yul\":11815:11818   */\n      0x00\n        /* \"#utility.yul\":11836:11903   */\n      tag_285\n        /* \"#utility.yul\":11900:11902   */\n      0x26\n        /* \"#utility.yul\":11895:11898   */\n      dup4\n        /* \"#utility.yul\":11836:11903   */\n      tag_153\n      jump\t// in\n    tag_285:\n        /* \"#utility.yul\":11829:11903   */\n      swap2\n      pop\n        /* \"#utility.yul\":11912:12005   */\n      tag_286\n        /* \"#utility.yul\":12001:12004   */\n      dup3\n        /* \"#utility.yul\":11912:12005   */\n      tag_154\n      jump\t// in\n    tag_286:\n        /* \"#utility.yul\":12030:12032   */\n      0x40\n        /* \"#utility.yul\":12025:12028   */\n      dup3\n        /* \"#utility.yul\":12021:12033   */\n      add\n        /* \"#utility.yul\":12014:12033   */\n      swap1\n      pop\n        /* \"#utility.yul\":11673:12039   */\n      swap2\n      swap1\n      pop\n      jump\t// out\n        /* \"#utility.yul\":12045:12464   */\n    tag_52:\n        /* \"#utility.yul\":12211:12215   */\n      0x00\n        /* \"#utility.yul\":12249:12251   */\n      0x20\n        /* \"#utility.yul\":12238:12247   */\n      dup3\n        /* \"#utility.yul\":12234:12252   */\n      add\n        /* \"#utility.yul\":12226:12252   */\n      swap1\n      pop\n        /* \"#utility.yul\":12298:12307   */\n      dup2\n        /* \"#utility.yul\":12292:12296   */\n      dup2\n        /* \"#utility.yul\":12288:12308   */\n      sub\n        /* \"#utility.yul\":12284:12285   */\n      0x00\n        /* \"#utility.yul\":12273:12282   */\n      dup4\n        /* \"#utility.yul\":12269:12286   */\n      add\n        /* \"#utility.yul\":12262:12309   */\n      mstore\n        /* \"#utility.yul\":12326:12457   */\n      tag_288\n        /* \"#utility.yul\":12452:12456   */\n      dup2\n        /* \"#utility.yul\":12326:12457   */\n      tag_155\n      jump\t// in\n    tag_288:\n        /* \"#utility.yul\":12318:12457   */\n      swap1\n      pop\n        /* \"#utility.yul\":12045:12464   */\n      swap2\n      swap1\n      pop\n      jump\t// out\n        /* \"#utility.yul\":12470:12904   */\n    tag_56:\n        /* \"#utility.yul\":12615:12619   */\n      0x00\n        /* \"#utility.yul\":12653:12655   */\n      0x60\n        /* \"#utility.yul\":12642:12651   */\n      dup3\n        /* \"#utility.yul\":12638:12656   */\n      add\n        /* \"#utility.yul\":12630:12656   */\n      swap1\n      pop\n        /* \"#utility.yul\":12666:12737   */\n      tag_290\n        /* \"#utility.yul\":12734:12735   */\n      0x00\n        /* \"#utility.yul\":12723:12732   */\n      dup4\n        /* \"#utility.yul\":12719:12736   */\n      add\n        /* \"#utility.yul\":12710:12716   */\n      dup7\n        /* \"#utility.yul\":12666:12737   */\n      tag_137\n      jump\t// in\n    tag_290:\n        /* \"#utility.yul\":12747:12815   */\n      tag_291\n        /* \"#utility.yul\":12811:12813   */\n      0x20\n        /* \"#utility.yul\":12800:12809   */\n      dup4\n        /* \"#utility.yul\":12796:12814   */\n      add\n        /* \"#utility.yul\":12787:12793   */\n      dup6\n        /* \"#utility.yul\":12747:12815   */\n      tag_151\n      jump\t// in\n    tag_291:\n        /* \"#utility.yul\":12825:12897   */\n      tag_292\n        /* \"#utility.yul\":12893:12895   */\n      0x40\n        /* \"#utility.yul\":12882:12891   */\n      dup4\n        /* \"#utility.yul\":12878:12896   */\n      add\n        /* \"#utility.yul\":12869:12875   */\n      dup5\n        /* \"#utility.yul\":12825:12897   */\n      tag_152\n      jump\t// in\n    tag_292:\n        /* \"#utility.yul\":12470:12904   */\n      swap5\n      swap4\n      pop\n      pop\n      pop\n      pop\n      jump\t// out\n        /* \"#utility.yul\":12910:13134   */\n    tag_156:\n        /* \"#utility.yul\":13050:13084   */\n      0x4e6f2073652068612070616761646f206c612074617269666120646520726567\n        /* \"#utility.yul\":13046:13047   */\n      0x00\n        /* \"#utility.yul\":13038:13044   */\n      dup3\n        /* \"#utility.yul\":13034:13048   */\n      add\n        /* \"#utility.yul\":13027:13085   */\n      mstore\n        /* \"#utility.yul\":13119:13126   */\n      0x697374726f000000000000000000000000000000000000000000000000000000\n        /* \"#utility.yul\":13114:13116   */\n      0x20\n        /* \"#utility.yul\":13106:13112   */\n      dup3\n        /* \"#utility.yul\":13102:13117   */\n      add\n        /* \"#utility.yul\":13095:13127   */\n      mstore\n        /* \"#utility.yul\":12910:13134   */\n      pop\n      jump\t// out\n        /* \"#utility.yul\":13140:13506   */\n    tag_157:\n        /* \"#utility.yul\":13282:13285   */\n      0x00\n        /* \"#utility.yul\":13303:13370   */\n      tag_295\n        /* \"#utility.yul\":13367:13369   */\n      0x25\n        /* \"#utility.yul\":13362:13365   */\n      dup4\n        /* \"#utility.yul\":13303:13370   */\n      tag_153\n      jump\t// in\n    tag_295:\n        /* \"#utility.yul\":13296:13370   */\n      swap2\n      pop\n        /* \"#utility.yul\":13379:13472   */\n      tag_296\n        /* \"#utility.yul\":13468:13471   */\n      dup3\n        /* \"#utility.yul\":13379:13472   */\n      tag_156\n      jump\t// in\n    tag_296:\n        /* \"#utility.yul\":13497:13499   */\n      0x40\n        /* \"#utility.yul\":13492:13495   */\n      dup3\n        /* \"#utility.yul\":13488:13500   */\n      add\n        /* \"#utility.yul\":13481:13500   */\n      swap1\n      pop\n        /* \"#utility.yul\":13140:13506   */\n      swap2\n      swap1\n      pop\n      jump\t// out\n        /* \"#utility.yul\":13512:13931   */\n    tag_60:\n        /* \"#utility.yul\":13678:13682   */\n      0x00\n        /* \"#utility.yul\":13716:13718   */\n      0x20\n        /* \"#utility.yul\":13705:13714   */\n      dup3\n        /* \"#utility.yul\":13701:13719   */\n      add\n        /* \"#utility.yul\":13693:13719   */\n      swap1\n      pop\n        /* \"#utility.yul\":13765:13774   */\n      dup2\n        /* \"#utility.yul\":13759:13763   */\n      dup2\n        /* \"#utility.yul\":13755:13775   */\n      sub\n        /* \"#utility.yul\":13751:13752   */\n      0x00\n        /* \"#utility.yul\":13740:13749   */\n      dup4\n        /* \"#utility.yul\":13736:13753   */\n      add\n        /* \"#utility.yul\":13729:13776   */\n      mstore\n        /* \"#utility.yul\":13793:13924   */\n      tag_298\n        /* \"#utility.yul\":13919:13923   */\n      dup2\n        /* \"#utility.yul\":13793:13924   */\n      tag_157\n      jump\t// in\n    tag_298:\n        /* \"#utility.yul\":13785:13924   */\n      swap1\n      pop\n        /* \"#utility.yul\":13512:13931   */\n      swap2\n      swap1\n      pop\n      jump\t// out\n        /* \"#utility.yul\":13937:14187   */\n    tag_158:\n        /* \"#utility.yul\":14077:14111   */\n      0x43617465676f72696120696e76616c6964613a20303d43756c747572616c2031\n        /* \"#utility.yul\":14073:14074   */\n      0x00\n        /* \"#utility.yul\":14065:14071   */\n      dup3\n        /* \"#utility.yul\":14061:14075   */\n      add\n        /* \"#utility.yul\":14054:14112   */\n      mstore\n        /* \"#utility.yul\":14146:14179   */\n      0x3d45647563617469766120323d4465706f727469766120333d536f6369616c00\n        /* \"#utility.yul\":14141:14143   */\n      0x20\n        /* \"#utility.yul\":14133:14139   */\n      dup3\n        /* \"#utility.yul\":14129:14144   */\n      add\n        /* \"#utility.yul\":14122:14180   */\n      mstore\n        /* \"#utility.yul\":13937:14187   */\n      pop\n      jump\t// out\n        /* \"#utility.yul\":14193:14559   */\n    tag_159:\n        /* \"#utility.yul\":14335:14338   */\n      0x00\n        /* \"#utility.yul\":14356:14423   */\n      tag_301\n        /* \"#utility.yul\":14420:14422   */\n      0x3f\n        /* \"#utility.yul\":14415:14418   */\n      dup4\n        /* \"#utility.yul\":14356:14423   */\n      tag_153\n      jump\t// in\n    tag_301:\n        /* \"#utility.yul\":14349:14423   */\n      swap2\n      pop\n        /* \"#utility.yul\":14432:14525   */\n      tag_302\n        /* \"#utility.yul\":14521:14524   */\n      dup3\n        /* \"#utility.yul\":14432:14525   */\n      tag_158\n      jump\t// in\n    tag_302:\n        /* \"#utility.yul\":14550:14552   */\n      0x40\n        /* \"#utility.yul\":14545:14548   */\n      dup3\n        /* \"#utility.yul\":14541:14553   */\n      add\n        /* \"#utility.yul\":14534:14553   */\n      swap1\n      pop\n        /* \"#utility.yul\":14193:14559   */\n      swap2\n      swap1\n      pop\n      jump\t// out\n        /* \"#utility.yul\":14565:14984   */\n    tag_63:\n        /* \"#utility.yul\":14731:14735   */\n      0x00\n        /* \"#utility.yul\":14769:14771   */\n      0x20\n        /* \"#utility.yul\":14758:14767   */\n      dup3\n        /* \"#utility.yul\":14754:14772   */\n      add\n        /* \"#utility.yul\":14746:14772   */\n      swap1\n      pop\n        /* \"#utility.yul\":14818:14827   */\n      dup2\n        /* \"#utility.yul\":14812:14816   */\n      dup2\n        /* \"#utility.yul\":14808:14828   */\n      sub\n        /* \"#utility.yul\":14804:14805   */\n      0x00\n        /* \"#utility.yul\":14793:14802   */\n      dup4\n        /* \"#utility.yul\":14789:14806   */\n      add\n        /* \"#utility.yul\":14782:14829   */\n      mstore\n        /* \"#utility.yul\":14846:14977   */\n      tag_304\n        /* \"#utility.yul\":14972:14976   */\n      dup2\n        /* \"#utility.yul\":14846:14977   */\n      tag_159\n      jump\t// in\n    tag_304:\n        /* \"#utility.yul\":14838:14977   */\n      swap1\n      pop\n        /* \"#utility.yul\":14565:14984   */\n      swap2\n      swap1\n      pop\n      jump\t// out\n        /* \"#utility.yul\":14990:15220   */\n    tag_160:\n        /* \"#utility.yul\":15130:15164   */\n      0x45737461646f20696e696369616c20696e76616c69646f3a2075736520302070\n        /* \"#utility.yul\":15126:15127   */\n      0x00\n        /* \"#utility.yul\":15118:15124   */\n      dup3\n        /* \"#utility.yul\":15114:15128   */\n      add\n        /* \"#utility.yul\":15107:15165   */\n      mstore\n        /* \"#utility.yul\":15199:15212   */\n      0x61726120566967656e7465000000000000000000000000000000000000000000\n        /* \"#utility.yul\":15194:15196   */\n      0x20\n        /* \"#utility.yul\":15186:15192   */\n      dup3\n        /* \"#utility.yul\":15182:15197   */\n      add\n        /* \"#utility.yul\":15175:15213   */\n      mstore\n        /* \"#utility.yul\":14990:15220   */\n      pop\n      jump\t// out\n        /* \"#utility.yul\":15226:15592   */\n    tag_161:\n        /* \"#utility.yul\":15368:15371   */\n      0x00\n        /* \"#utility.yul\":15389:15456   */\n      tag_307\n        /* \"#utility.yul\":15453:15455   */\n      0x2b\n        /* \"#utility.yul\":15448:15451   */\n      dup4\n        /* \"#utility.yul\":15389:15456   */\n      tag_153\n      jump\t// in\n    tag_307:\n        /* \"#utility.yul\":15382:15456   */\n      swap2\n      pop\n        /* \"#utility.yul\":15465:15558   */\n      tag_308\n        /* \"#utility.yul\":15554:15557   */\n      dup3\n        /* \"#utility.yul\":15465:15558   */\n      tag_160\n      jump\t// in\n    tag_308:\n        /* \"#utility.yul\":15583:15585   */\n      0x40\n        /* \"#utility.yul\":15578:15581   */\n      dup3\n        /* \"#utility.yul\":15574:15586   */\n      add\n        /* \"#utility.yul\":15567:15586   */\n      swap1\n      pop\n        /* \"#utility.yul\":15226:15592   */\n      swap2\n      swap1\n      pop\n      jump\t// out\n        /* \"#utility.yul\":15598:16017   */\n    tag_66:\n        /* \"#utility.yul\":15764:15768   */\n      0x00\n        /* \"#utility.yul\":15802:15804   */\n      0x20\n        /* \"#utility.yul\":15791:15800   */\n      dup3\n        /* \"#utility.yul\":15787:15805   */\n      add\n        /* \"#utility.yul\":15779:15805   */\n      swap1\n      pop\n        /* \"#utility.yul\":15851:15860   */\n      dup2\n        /* \"#utility.yul\":15845:15849   */\n      dup2\n        /* \"#utility.yul\":15841:15861   */\n      sub\n        /* \"#utility.yul\":15837:15838   */\n      0x00\n        /* \"#utility.yul\":15826:15835   */\n      dup4\n        /* \"#utility.yul\":15822:15839   */\n      add\n        /* \"#utility.yul\":15815:15862   */\n      mstore\n        /* \"#utility.yul\":15879:16010   */\n      tag_310\n        /* \"#utility.yul\":16005:16009   */\n      dup2\n        /* \"#utility.yul\":15879:16010   */\n      tag_161\n      jump\t// in\n    tag_310:\n        /* \"#utility.yul\":15871:16010   */\n      swap1\n      pop\n        /* \"#utility.yul\":15598:16017   */\n      swap2\n      swap1\n      pop\n      jump\t// out\n        /* \"#utility.yul\":16023:16782   */\n    tag_70:\n        /* \"#utility.yul\":16248:16252   */\n      0x00\n        /* \"#utility.yul\":16286:16289   */\n      0xc0\n        /* \"#utility.yul\":16275:16284   */\n      dup3\n        /* \"#utility.yul\":16271:16290   */\n      add\n        /* \"#utility.yul\":16263:16290   */\n      swap1\n      pop\n        /* \"#utility.yul\":16300:16371   */\n      tag_312\n        /* \"#utility.yul\":16368:16369   */\n      0x00\n        /* \"#utility.yul\":16357:16366   */\n      dup4\n        /* \"#utility.yul\":16353:16370   */\n      add\n        /* \"#utility.yul\":16344:16350   */\n      dup10\n        /* \"#utility.yul\":16300:16371   */\n      tag_137\n      jump\t// in\n    tag_312:\n        /* \"#utility.yul\":16381:16453   */\n      tag_313\n        /* \"#utility.yul\":16449:16451   */\n      0x20\n        /* \"#utility.yul\":16438:16447   */\n      dup4\n        /* \"#utility.yul\":16434:16452   */\n      add\n        /* \"#utility.yul\":16425:16431   */\n      dup9\n        /* \"#utility.yul\":16381:16453   */\n      tag_137\n      jump\t// in\n    tag_313:\n        /* \"#utility.yul\":16463:16531   */\n      tag_314\n        /* \"#utility.yul\":16527:16529   */\n      0x40\n        /* \"#utility.yul\":16516:16525   */\n      dup4\n        /* \"#utility.yul\":16512:16530   */\n      add\n        /* \"#utility.yul\":16503:16509   */\n      dup8\n        /* \"#utility.yul\":16463:16531   */\n      tag_151\n      jump\t// in\n    tag_314:\n        /* \"#utility.yul\":16541:16613   */\n      tag_315\n        /* \"#utility.yul\":16609:16611   */\n      0x60\n        /* \"#utility.yul\":16598:16607   */\n      dup4\n        /* \"#utility.yul\":16594:16612   */\n      add\n        /* \"#utility.yul\":16585:16591   */\n      dup7\n        /* \"#utility.yul\":16541:16613   */\n      tag_152\n      jump\t// in\n    tag_315:\n        /* \"#utility.yul\":16623:16692   */\n      tag_316\n        /* \"#utility.yul\":16687:16690   */\n      0x80\n        /* \"#utility.yul\":16676:16685   */\n      dup4\n        /* \"#utility.yul\":16672:16691   */\n      add\n        /* \"#utility.yul\":16663:16669   */\n      dup6\n        /* \"#utility.yul\":16623:16692   */\n      tag_151\n      jump\t// in\n    tag_316:\n        /* \"#utility.yul\":16702:16775   */\n      tag_317\n        /* \"#utility.yul\":16770:16773   */\n      0xa0\n        /* \"#utility.yul\":16759:16768   */\n      dup4\n        /* \"#utility.yul\":16755:16774   */\n      add\n        /* \"#utility.yul\":16746:16752   */\n      dup5\n        /* \"#utility.yul\":16702:16775   */\n      tag_152\n      jump\t// in\n    tag_317:\n        /* \"#utility.yul\":16023:16782   */\n      swap8\n      swap7\n      pop\n      pop\n      pop\n      pop\n      pop\n      pop\n      pop\n      jump\t// out\n        /* \"#utility.yul\":16788:16960   */\n    tag_162:\n        /* \"#utility.yul\":16928:16952   */\n      0x4c6120616374756163696f6e206e6f2065786973746500000000000000000000\n        /* \"#utility.yul\":16924:16925   */\n      0x00\n        /* \"#utility.yul\":16916:16922   */\n      dup3\n        /* \"#utility.yul\":16912:16926   */\n      add\n        /* \"#utility.yul\":16905:16953   */\n      mstore\n        /* \"#utility.yul\":16788:16960   */\n      pop\n      jump\t// out\n        /* \"#utility.yul\":16966:17332   */\n    tag_163:\n        /* \"#utility.yul\":17108:17111   */\n      0x00\n        /* \"#utility.yul\":17129:17196   */\n      tag_320\n        /* \"#utility.yul\":17193:17195   */\n      0x16\n        /* \"#utility.yul\":17188:17191   */\n      dup4\n        /* \"#utility.yul\":17129:17196   */\n      tag_153\n      jump\t// in\n    tag_320:\n        /* \"#utility.yul\":17122:17196   */\n      swap2\n      pop\n        /* \"#utility.yul\":17205:17298   */\n      tag_321\n        /* \"#utility.yul\":17294:17297   */\n      dup3\n        /* \"#utility.yul\":17205:17298   */\n      tag_162\n      jump\t// in\n    tag_321:\n        /* \"#utility.yul\":17323:17325   */\n      0x20\n        /* \"#utility.yul\":17318:17321   */\n      dup3\n        /* \"#utility.yul\":17314:17326   */\n      add\n        /* \"#utility.yul\":17307:17326   */\n      swap1\n      pop\n        /* \"#utility.yul\":16966:17332   */\n      swap2\n      swap1\n      pop\n      jump\t// out\n        /* \"#utility.yul\":17338:17757   */\n    tag_76:\n        /* \"#utility.yul\":17504:17508   */\n      0x00\n        /* \"#utility.yul\":17542:17544   */\n      0x20\n        /* \"#utility.yul\":17531:17540   */\n      dup3\n        /* \"#utility.yul\":17527:17545   */\n      add\n        /* \"#utility.yul\":17519:17545   */\n      swap1\n      pop\n        /* \"#utility.yul\":17591:17600   */\n      dup2\n        /* \"#utility.yul\":17585:17589   */\n      dup2\n        /* \"#utility.yul\":17581:17601   */\n      sub\n        /* \"#utility.yul\":17577:17578   */\n      0x00\n        /* \"#utility.yul\":17566:17575   */\n      dup4\n        /* \"#utility.yul\":17562:17579   */\n      add\n        /* \"#utility.yul\":17555:17602   */\n      mstore\n        /* \"#utility.yul\":17619:17750   */\n      tag_323\n        /* \"#utility.yul\":17745:17749   */\n      dup2\n        /* \"#utility.yul\":17619:17750   */\n      tag_163\n      jump\t// in\n    tag_323:\n        /* \"#utility.yul\":17611:17750   */\n      swap1\n      pop\n        /* \"#utility.yul\":17338:17757   */\n      swap2\n      swap1\n      pop\n      jump\t// out\n        /* \"#utility.yul\":17763:17943   */\n    tag_164:\n        /* \"#utility.yul\":17811:17888   */\n      0x4e487b7100000000000000000000000000000000000000000000000000000000\n        /* \"#utility.yul\":17808:17809   */\n      0x00\n        /* \"#utility.yul\":17801:17889   */\n      mstore\n        /* \"#utility.yul\":17908:17912   */\n      0x11\n        /* \"#utility.yul\":17905:17906   */\n      0x04\n        /* \"#utility.yul\":17898:17913   */\n      mstore\n        /* \"#utility.yul\":17932:17936   */\n      0x24\n        /* \"#utility.yul\":17929:17930   */\n      0x00\n        /* \"#utility.yul\":17922:17937   */\n      revert\n        /* \"#utility.yul\":17949:18143   */\n    tag_83:\n        /* \"#utility.yul\":17989:17993   */\n      0x00\n        /* \"#utility.yul\":18009:18029   */\n      tag_326\n        /* \"#utility.yul\":18027:18028   */\n      dup3\n        /* \"#utility.yul\":18009:18029   */\n      tag_126\n      jump\t// in\n    tag_326:\n        /* \"#utility.yul\":18004:18029   */\n      swap2\n      pop\n        /* \"#utility.yul\":18043:18063   */\n      tag_327\n        /* \"#utility.yul\":18061:18062   */\n      dup4\n        /* \"#utility.yul\":18043:18063   */\n      tag_126\n      jump\t// in\n    tag_327:\n        /* \"#utility.yul\":18038:18063   */\n      swap3\n      pop\n        /* \"#utility.yul\":18087:18088   */\n      dup3\n        /* \"#utility.yul\":18084:18085   */\n      dup3\n        /* \"#utility.yul\":18080:18089   */\n      sub\n        /* \"#utility.yul\":18072:18089   */\n      swap1\n      pop\n        /* \"#utility.yul\":18111:18112   */\n      dup2\n        /* \"#utility.yul\":18105:18109   */\n      dup2\n        /* \"#utility.yul\":18102:18113   */\n      gt\n        /* \"#utility.yul\":18099:18136   */\n      iszero\n      tag_328\n      jumpi\n        /* \"#utility.yul\":18116:18134   */\n      tag_329\n      tag_164\n      jump\t// in\n    tag_329:\n        /* \"#utility.yul\":18099:18136   */\n    tag_328:\n        /* \"#utility.yul\":17949:18143   */\n      swap3\n      swap2\n      pop\n      pop\n      jump\t// out\n        /* \"#utility.yul\":18149:18329   */\n    tag_86:\n        /* \"#utility.yul\":18197:18274   */\n      0x4e487b7100000000000000000000000000000000000000000000000000000000\n        /* \"#utility.yul\":18194:18195   */\n      0x00\n        /* \"#utility.yul\":18187:18275   */\n      mstore\n        /* \"#utility.yul\":18294:18298   */\n      0x32\n        /* \"#utility.yul\":18291:18292   */\n      0x04\n        /* \"#utility.yul\":18284:18299   */\n      mstore\n        /* \"#utility.yul\":18318:18322   */\n      0x24\n        /* \"#utility.yul\":18315:18316   */\n      0x00\n        /* \"#utility.yul\":18308:18323   */\n      revert\n        /* \"#utility.yul\":18335:18558   */\n    tag_165:\n        /* \"#utility.yul\":18475:18509   */\n      0x45737461646f20696e76616c69646f3a2075736520322070617261204465726f\n        /* \"#utility.yul\":18471:18472   */\n      0x00\n        /* \"#utility.yul\":18463:18469   */\n      dup3\n        /* \"#utility.yul\":18459:18473   */\n      add\n        /* \"#utility.yul\":18452:18510   */\n      mstore\n        /* \"#utility.yul\":18544:18550   */\n      0x6761646100000000000000000000000000000000000000000000000000000000\n        /* \"#utility.yul\":18539:18541   */\n      0x20\n        /* \"#utility.yul\":18531:18537   */\n      dup3\n        /* \"#utility.yul\":18527:18542   */\n      add\n        /* \"#utility.yul\":18520:18551   */\n      mstore\n        /* \"#utility.yul\":18335:18558   */\n      pop\n      jump\t// out\n        /* \"#utility.yul\":18564:18930   */\n    tag_166:\n        /* \"#utility.yul\":18706:18709   */\n      0x00\n        /* \"#utility.yul\":18727:18794   */\n      tag_333\n        /* \"#utility.yul\":18791:18793   */\n      0x24\n        /* \"#utility.yul\":18786:18789   */\n      dup4\n        /* \"#utility.yul\":18727:18794   */\n      tag_153\n      jump\t// in\n    tag_333:\n        /* \"#utility.yul\":18720:18794   */\n      swap2\n      pop\n        /* \"#utility.yul\":18803:18896   */\n      tag_334\n        /* \"#utility.yul\":18892:18895   */\n      dup3\n        /* \"#utility.yul\":18803:18896   */\n      tag_165\n      jump\t// in\n    tag_334:\n        /* \"#utility.yul\":18921:18923   */\n      0x40\n        /* \"#utility.yul\":18916:18919   */\n      dup3\n        /* \"#utility.yul\":18912:18924   */\n      add\n        /* \"#utility.yul\":18905:18924   */\n      swap1\n      pop\n        /* \"#utility.yul\":18564:18930   */\n      swap2\n      swap1\n      pop\n      jump\t// out\n        /* \"#utility.yul\":18936:19355   */\n    tag_93:\n        /* \"#utility.yul\":19102:19106   */\n      0x00\n        /* \"#utility.yul\":19140:19142   */\n      0x20\n        /* \"#utility.yul\":19129:19138   */\n      dup3\n        /* \"#utility.yul\":19125:19143   */\n      add\n        /* \"#utility.yul\":19117:19143   */\n      swap1\n      pop\n        /* \"#utility.yul\":19189:19198   */\n      dup2\n        /* \"#utility.yul\":19183:19187   */\n      dup2\n        /* \"#utility.yul\":19179:19199   */\n      sub\n        /* \"#utility.yul\":19175:19176   */\n      0x00\n        /* \"#utility.yul\":19164:19173   */\n      dup4\n        /* \"#utility.yul\":19160:19177   */\n      add\n        /* \"#utility.yul\":19153:19200   */\n      mstore\n        /* \"#utility.yul\":19217:19348   */\n      tag_336\n        /* \"#utility.yul\":19343:19347   */\n      dup2\n        /* \"#utility.yul\":19217:19348   */\n      tag_166\n      jump\t// in\n    tag_336:\n        /* \"#utility.yul\":19209:19348   */\n      swap1\n      pop\n        /* \"#utility.yul\":18936:19355   */\n      swap2\n      swap1\n      pop\n      jump\t// out\n        /* \"#utility.yul\":19361:19531   */\n    tag_167:\n        /* \"#utility.yul\":19501:19523   */\n      0x4e6f20657320656c2070726f706965746172696f000000000000000000000000\n        /* \"#utility.yul\":19497:19498   */\n      0x00\n        /* \"#utility.yul\":19489:19495   */\n      dup3\n        /* \"#utility.yul\":19485:19499   */\n      add\n        /* \"#utility.yul\":19478:19524   */\n      mstore\n        /* \"#utility.yul\":19361:19531   */\n      pop\n      jump\t// out\n        /* \"#utility.yul\":19537:19903   */\n    tag_168:\n        /* \"#utility.yul\":19679:19682   */\n      0x00\n        /* \"#utility.yul\":19700:19767   */\n      tag_339\n        /* \"#utility.yul\":19764:19766   */\n      0x14\n        /* \"#utility.yul\":19759:19762   */\n      dup4\n        /* \"#utility.yul\":19700:19767   */\n      tag_153\n      jump\t// in\n    tag_339:\n        /* \"#utility.yul\":19693:19767   */\n      swap2\n      pop\n        /* \"#utility.yul\":19776:19869   */\n      tag_340\n        /* \"#utility.yul\":19865:19868   */\n      dup3\n        /* \"#utility.yul\":19776:19869   */\n      tag_167\n      jump\t// in\n    tag_340:\n        /* \"#utility.yul\":19894:19896   */\n      0x20\n        /* \"#utility.yul\":19889:19892   */\n      dup3\n        /* \"#utility.yul\":19885:19897   */\n      add\n        /* \"#utility.yul\":19878:19897   */\n      swap1\n      pop\n        /* \"#utility.yul\":19537:19903   */\n      swap2\n      swap1\n      pop\n      jump\t// out\n        /* \"#utility.yul\":19909:20328   */\n    tag_101:\n        /* \"#utility.yul\":20075:20079   */\n      0x00\n        /* \"#utility.yul\":20113:20115   */\n      0x20\n        /* \"#utility.yul\":20102:20111   */\n      dup3\n        /* \"#utility.yul\":20098:20116   */\n      add\n        /* \"#utility.yul\":20090:20116   */\n      swap1\n      pop\n        /* \"#utility.yul\":20162:20171   */\n      dup2\n        /* \"#utility.yul\":20156:20160   */\n      dup2\n        /* \"#utility.yul\":20152:20172   */\n      sub\n        /* \"#utility.yul\":20148:20149   */\n      0x00\n        /* \"#utility.yul\":20137:20146   */\n      dup4\n        /* \"#utility.yul\":20133:20150   */\n      add\n        /* \"#utility.yul\":20126:20173   */\n      mstore\n        /* \"#utility.yul\":20190:20321   */\n      tag_342\n        /* \"#utility.yul\":20316:20320   */\n      dup2\n        /* \"#utility.yul\":20190:20321   */\n      tag_168\n      jump\t// in\n    tag_342:\n        /* \"#utility.yul\":20182:20321   */\n      swap1\n      pop\n        /* \"#utility.yul\":19909:20328   */\n      swap2\n      swap1\n      pop\n      jump\t// out\n        /* \"#utility.yul\":20334:20506   */\n    tag_169:\n        /* \"#utility.yul\":20474:20498   */\n      0x4c6120616374756163696f6e2079612065786973746500000000000000000000\n        /* \"#utility.yul\":20470:20471   */\n      0x00\n        /* \"#utility.yul\":20462:20468   */\n      dup3\n        /* \"#utility.yul\":20458:20472   */\n      add\n        /* \"#utility.yul\":20451:20499   */\n      mstore\n        /* \"#utility.yul\":20334:20506   */\n      pop\n      jump\t// out\n        /* \"#utility.yul\":20512:20878   */\n    tag_170:\n        /* \"#utility.yul\":20654:20657   */\n      0x00\n        /* \"#utility.yul\":20675:20742   */\n      tag_345\n        /* \"#utility.yul\":20739:20741   */\n      0x16\n        /* \"#utility.yul\":20734:20737   */\n      dup4\n        /* \"#utility.yul\":20675:20742   */\n      tag_153\n      jump\t// in\n    tag_345:\n        /* \"#utility.yul\":20668:20742   */\n      swap2\n      pop\n        /* \"#utility.yul\":20751:20844   */\n      tag_346\n        /* \"#utility.yul\":20840:20843   */\n      dup3\n        /* \"#utility.yul\":20751:20844   */\n      tag_169\n      jump\t// in\n    tag_346:\n        /* \"#utility.yul\":20869:20871   */\n      0x20\n        /* \"#utility.yul\":20864:20867   */\n      dup3\n        /* \"#utility.yul\":20860:20872   */\n      add\n        /* \"#utility.yul\":20853:20872   */\n      swap1\n      pop\n        /* \"#utility.yul\":20512:20878   */\n      swap2\n      swap1\n      pop\n      jump\t// out\n        /* \"#utility.yul\":20884:21303   */\n    tag_107:\n        /* \"#utility.yul\":21050:21054   */\n      0x00\n        /* \"#utility.yul\":21088:21090   */\n      0x20\n        /* \"#utility.yul\":21077:21086   */\n      dup3\n        /* \"#utility.yul\":21073:21091   */\n      add\n        /* \"#utility.yul\":21065:21091   */\n      swap1\n      pop\n        /* \"#utility.yul\":21137:21146   */\n      dup2\n        /* \"#utility.yul\":21131:21135   */\n      dup2\n        /* \"#utility.yul\":21127:21147   */\n      sub\n        /* \"#utility.yul\":21123:21124   */\n      0x00\n        /* \"#utility.yul\":21112:21121   */\n      dup4\n        /* \"#utility.yul\":21108:21125   */\n      add\n        /* \"#utility.yul\":21101:21148   */\n      mstore\n        /* \"#utility.yul\":21165:21296   */\n      tag_348\n        /* \"#utility.yul\":21291:21295   */\n      dup2\n        /* \"#utility.yul\":21165:21296   */\n      tag_170\n      jump\t// in\n    tag_348:\n        /* \"#utility.yul\":21157:21296   */\n      swap1\n      pop\n        /* \"#utility.yul\":20884:21303   */\n      swap2\n      swap1\n      pop\n      jump\t// out\n        /* \"#utility.yul\":21309:21965   */\n    tag_111:\n        /* \"#utility.yul\":21510:21514   */\n      0x00\n        /* \"#utility.yul\":21548:21551   */\n      0xa0\n        /* \"#utility.yul\":21537:21546   */\n      dup3\n        /* \"#utility.yul\":21533:21552   */\n      add\n        /* \"#utility.yul\":21525:21552   */\n      swap1\n      pop\n        /* \"#utility.yul\":21562:21633   */\n      tag_350\n        /* \"#utility.yul\":21630:21631   */\n      0x00\n        /* \"#utility.yul\":21619:21628   */\n      dup4\n        /* \"#utility.yul\":21615:21632   */\n      add\n        /* \"#utility.yul\":21606:21612   */\n      dup9\n        /* \"#utility.yul\":21562:21633   */\n      tag_137\n      jump\t// in\n    tag_350:\n        /* \"#utility.yul\":21643:21715   */\n      tag_351\n        /* \"#utility.yul\":21711:21713   */\n      0x20\n        /* \"#utility.yul\":21700:21709   */\n      dup4\n        /* \"#utility.yul\":21696:21714   */\n      add\n        /* \"#utility.yul\":21687:21693   */\n      dup8\n        /* \"#utility.yul\":21643:21715   */\n      tag_137\n      jump\t// in\n    tag_351:\n        /* \"#utility.yul\":21725:21797   */\n      tag_352\n        /* \"#utility.yul\":21793:21795   */\n      0x40\n        /* \"#utility.yul\":21782:21791   */\n      dup4\n        /* \"#utility.yul\":21778:21796   */\n      add\n        /* \"#utility.yul\":21769:21775   */\n      dup7\n        /* \"#utility.yul\":21725:21797   */\n      tag_137\n      jump\t// in\n    tag_352:\n        /* \"#utility.yul\":21807:21875   */\n      tag_353\n        /* \"#utility.yul\":21871:21873   */\n      0x60\n        /* \"#utility.yul\":21860:21869   */\n      dup4\n        /* \"#utility.yul\":21856:21874   */\n      add\n        /* \"#utility.yul\":21847:21853   */\n      dup6\n        /* \"#utility.yul\":21807:21875   */\n      tag_151\n      jump\t// in\n    tag_353:\n        /* \"#utility.yul\":21885:21958   */\n      tag_354\n        /* \"#utility.yul\":21953:21956   */\n      0x80\n        /* \"#utility.yul\":21942:21951   */\n      dup4\n        /* \"#utility.yul\":21938:21957   */\n      add\n        /* \"#utility.yul\":21929:21935   */\n      dup5\n        /* \"#utility.yul\":21885:21958   */\n      tag_152\n      jump\t// in\n    tag_354:\n        /* \"#utility.yul\":21309:21965   */\n      swap7\n      swap6\n      pop\n      pop\n      pop\n      pop\n      pop\n      pop\n      jump\t// out\n        /* \"#utility.yul\":21971:22295   */\n    tag_119:\n        /* \"#utility.yul\":22088:22092   */\n      0x00\n        /* \"#utility.yul\":22126:22128   */\n      0x40\n        /* \"#utility.yul\":22115:22124   */\n      dup3\n        /* \"#utility.yul\":22111:22129   */\n      add\n        /* \"#utility.yul\":22103:22129   */\n      swap1\n      pop\n        /* \"#utility.yul\":22139:22210   */\n      tag_356\n        /* \"#utility.yul\":22207:22208   */\n      0x00\n        /* \"#utility.yul\":22196:22205   */\n      dup4\n        /* \"#utility.yul\":22192:22209   */\n      add\n        /* \"#utility.yul\":22183:22189   */\n      dup6\n        /* \"#utility.yul\":22139:22210   */\n      tag_137\n      jump\t// in\n    tag_356:\n        /* \"#utility.yul\":22220:22288   */\n      tag_357\n        /* \"#utility.yul\":22284:22286   */\n      0x20\n        /* \"#utility.yul\":22273:22282   */\n      dup4\n        /* \"#utility.yul\":22269:22287   */\n      add\n        /* \"#utility.yul\":22260:22266   */\n      dup5\n        /* \"#utility.yul\":22220:22288   */\n      tag_151\n      jump\t// in\n    tag_357:\n        /* \"#utility.yul\":21971:22295   */\n      swap4\n      swap3\n      pop\n      pop\n      pop\n      jump\t// out\n\n    auxdata: 0xa2646970667358221220d3bbddb20084fb0b86e7888f800d93d68c5ef20a9915dbf73e0db0109d06f3f964736f6c63430008220033\n}\n",
				"bytecode": {
					"linkReferences": {},
					"object": "6080604052348015600e575f5ffd5b50335f5f6101000a81548173ffffffffffffffffffffffffffffffffffffffff021916908373ffffffffffffffffffffffffffffffffffffffff1602179055506117cd8061005b5f395ff3fe60806040526004361061006f575f3560e01c80636dd7044e1161004d5780636dd7044e146101035780638e8a58761461011f578063d301e11d1461015b578063ffb6ecdc1461019c5761006f565b80633c4f81cd146100735780634cdba1931461009d57806352b5241e146100d9575b5f5ffd5b34801561007e575f5ffd5b506100876101c4565b6040516100949190610d43565b60405180910390f35b3480156100a8575f5ffd5b506100c360048036038101906100be9190610dfc565b6101e8565b6040516100d09190610e66565b60405180910390f35b3480156100e4575f5ffd5b506100ed610281565b6040516100fa9190610e8e565b60405180910390f35b61011d60048036038101906101189190610ea7565b610287565b005b34801561012a575f5ffd5b5061014560048036038101906101409190610f44565b610403565b6040516101529190611115565b60405180910390f35b348015610166575f5ffd5b50610181600480360381019061017c9190610f44565b61059b565b60405161019396959493929190611153565b60405180910390f35b3480156101a7575f5ffd5b506101c260048036038101906101bd91906111b2565b61065e565b005b5f5f9054906101000a900473ffffffffffffffffffffffffffffffffffffffff1681565b5f60018360ff161461022f576040517f08c379a000000000000000000000000000000000000000000000000000000000815260040161022690611270565b60405180910390fd5b61023a8484846106b2565b507ff1cbbbd659d417a3e64f12428284640f56e8816a61beb5c745057dce5c3fb25b84848460405161026e9392919061128e565b60405180910390a1600190509392505050565b6101f481565b6101f43410156102cc576040517f08c379a00000000000000000000000000000000000000000000000000000000081526004016102c390611333565b60405180910390fd5b60038360ff161115610313576040517f08c379a000000000000000000000000000000000000000000000000000000000815260040161030a906113c1565b60405180910390fd5b5f8160ff1614610358576040517f08c379a000000000000000000000000000000000000000000000000000000000815260040161034f9061144f565b60405180910390fd5b61036587878388886108d5565b60405180604001604052808460ff1681526020018381525060035f8981526020019081526020015f205f820151815f015f6101000a81548160ff021916908360ff160217905550602082015181600101559050507ffed5b38ebba8c206df4b17453afe7b2837bdc8a8ff866b4ae24e2c2c3bff640487888585858a6040516103f29695949392919061146d565b60405180910390a150505050505050565b61040b610cdd565b60015f8381526020019081526020015f206002015f9054906101000a900460ff1661046b576040517f08c379a000000000000000000000000000000000000000000000000000000000815260040161046290611516565b60405180910390fd5b60015f8381526020019081526020015f206040518060800160405290815f820154815260200160018201548152602001600282015f9054906101000a900460ff1615151515815260200160038201805480602002602001604051908101604052809291908181526020015f905b8282101561058c578382905f5260205f2090600402016040518060800160405290815f8201548152602001600182015f9054906101000a900460ff1660ff1660ff16815260200160028201548152602001600382015f9054906101000a900473ffffffffffffffffffffffffffffffffffffffff1673ffffffffffffffffffffffffffffffffffffffff1673ffffffffffffffffffffffffffffffffffffffff1681525050815260200190600101906104d8565b50505050815250509050919050565b5f5f5f5f5f5f5f6105ab88610403565b90505f60035f8a81526020019081526020015f209050815f01518260200151836060015160018560600151516105e19190611561565b815181106105f2576105f1611594565b5b602002602001015160200151835f015f9054906101000a900460ff1684600101548660600151600188606001515161062a9190611561565b8151811061063b5761063a611594565b5b602002602001015160400151975097509750975097509750505091939550919395565b60028160ff16146106a4576040517f08c379a000000000000000000000000000000000000000000000000000000000815260040161069b90611631565b60405180910390fd5b6106ae8282610ac2565b5050565b5f60015f8581526020019081526020015f206002015f9054906101000a900460ff16610713576040517f08c379a000000000000000000000000000000000000000000000000000000000815260040161070a90611516565b60405180910390fd5b5f5f9054906101000a900473ffffffffffffffffffffffffffffffffffffffff1673ffffffffffffffffffffffffffffffffffffffff163373ffffffffffffffffffffffffffffffffffffffff16146107a1576040517f08c379a000000000000000000000000000000000000000000000000000000000815260040161079890611699565b60405180910390fd5b60015f8581526020019081526020015f2060030160405180608001604052804281526020018560ff1681526020018481526020013373ffffffffffffffffffffffffffffffffffffffff16815250908060018154018082558091505060019003905f5260205f2090600402015f909190919091505f820151815f01556020820151816001015f6101000a81548160ff021916908360ff160217905550604082015181600201556060820151816003015f6101000a81548173ffffffffffffffffffffffffffffffffffffffff021916908373ffffffffffffffffffffffffffffffffffffffff16021790555050507f02fd7cca134bdc372692f9e8679a7046060ca6da0c386e7494b18b9c21b106528484846040516108c29392919061128e565b60405180910390a1600190509392505050565b60015f8681526020019081526020015f206002015f9054906101000a900460ff1615610936576040517f08c379a000000000000000000000000000000000000000000000000000000000815260040161092d90611701565b60405180910390fd5b5f60015f8781526020019081526020015f2090506001816002015f6101000a81548160ff02191690831515021790555084816001018190555081815f01819055508060030160405180608001604052804281526020018660ff1681526020018581526020013373ffffffffffffffffffffffffffffffffffffffff16815250908060018154018082558091505060019003905f5260205f2090600402015f909190919091505f820151815f01556020820151816001015f6101000a81548160ff021916908360ff160217905550604082015181600201556060820151816003015f6101000a81548173ffffffffffffffffffffffffffffffffffffffff021916908373ffffffffffffffffffffffffffffffffffffffff1602179055505050600286908060018154018082558091505060019003905f5260205f20015f90919091909150557f164383a2b97191661e35fd7054520c2abdf173025e32983b038ecb35a796cda78683878787604051610ab295949392919061171f565b60405180910390a1505050505050565b60015f8381526020019081526020015f206002015f9054906101000a900460ff16610b22576040517f08c379a0000000000000000000000000000000000000000000000000000000008152600401610b1990611516565b60405180910390fd5b5f5f9054906101000a900473ffffffffffffffffffffffffffffffffffffffff1673ffffffffffffffffffffffffffffffffffffffff163373ffffffffffffffffffffffffffffffffffffffff1614610bb0576040517f08c379a0000000000000000000000000000000000000000000000000000000008152600401610ba790611699565b60405180910390fd5b60015f8381526020019081526020015f2060030160405180608001604052804281526020018360ff1681526020015f5f1b81526020013373ffffffffffffffffffffffffffffffffffffffff16815250908060018154018082558091505060019003905f5260205f2090600402015f909190919091505f820151815f01556020820151816001015f6101000a81548160ff021916908360ff160217905550604082015181600201556060820151816003015f6101000a81548173ffffffffffffffffffffffffffffffffffffffff021916908373ffffffffffffffffffffffffffffffffffffffff16021790555050507f55f3b2b2bc9c07499976075b3a9a78344b888c51b194889c9214c6eba4bf01138282604051610cd1929190611770565b60405180910390a15050565b60405180608001604052805f81526020015f81526020015f15158152602001606081525090565b5f73ffffffffffffffffffffffffffffffffffffffff82169050919050565b5f610d2d82610d04565b9050919050565b610d3d81610d23565b82525050565b5f602082019050610d565f830184610d34565b92915050565b5f5ffd5b5f819050919050565b610d7281610d60565b8114610d7c575f5ffd5b50565b5f81359050610d8d81610d69565b92915050565b5f60ff82169050919050565b610da881610d93565b8114610db2575f5ffd5b50565b5f81359050610dc381610d9f565b92915050565b5f819050919050565b610ddb81610dc9565b8114610de5575f5ffd5b50565b5f81359050610df681610dd2565b92915050565b5f5f5f60608486031215610e1357610e12610d5c565b5b5f610e2086828701610d7f565b9350506020610e3186828701610db5565b9250506040610e4286828701610de8565b9150509250925092565b5f8115159050919050565b610e6081610e4c565b82525050565b5f602082019050610e795f830184610e57565b92915050565b610e8881610d60565b82525050565b5f602082019050610ea15f830184610e7f565b92915050565b5f5f5f5f5f5f5f60e0888a031215610ec257610ec1610d5c565b5b5f610ecf8a828b01610d7f565b9750506020610ee08a828b01610d7f565b9650506040610ef18a828b01610de8565b9550506060610f028a828b01610d7f565b9450506080610f138a828b01610db5565b93505060a0610f248a828b01610de8565b92505060c0610f358a828b01610db5565b91505092959891949750929550565b5f60208284031215610f5957610f58610d5c565b5b5f610f6684828501610d7f565b91505092915050565b610f7881610d60565b82525050565b610f8781610e4c565b82525050565b5f81519050919050565b5f82825260208201905092915050565b5f819050602082019050919050565b610fbf81610d93565b82525050565b610fce81610dc9565b82525050565b610fdd81610d23565b82525050565b608082015f820151610ff75f850182610f6f565b50602082015161100a6020850182610fb6565b50604082015161101d6040850182610fc5565b5060608201516110306060850182610fd4565b50505050565b5f6110418383610fe3565b60808301905092915050565b5f602082019050919050565b5f61106382610f8d565b61106d8185610f97565b935061107883610fa7565b805f5b838110156110a857815161108f8882611036565b975061109a8361104d565b92505060018101905061107b565b5085935050505092915050565b5f608083015f8301516110ca5f860182610f6f565b5060208301516110dd6020860182610f6f565b5060408301516110f06040860182610f7e565b50606083015184820360608601526111088282611059565b9150508091505092915050565b5f6020820190508181035f83015261112d81846110b5565b905092915050565b61113e81610d93565b82525050565b61114d81610dc9565b82525050565b5f60c0820190506111665f830189610e7f565b6111736020830188610e7f565b6111806040830187611135565b61118d6060830186611135565b61119a6080830185611144565b6111a760a0830184611144565b979650505050505050565b5f5f604083850312156111c8576111c7610d5c565b5b5f6111d585828601610d7f565b92505060206111e685828601610db5565b9150509250929050565b5f82825260208201905092915050565b7f45737461646f20696e76616c69646f3a2075736520312070617261204d6f64695f8201527f6669636164610000000000000000000000000000000000000000000000000000602082015250565b5f61125a6026836111f0565b915061126582611200565b604082019050919050565b5f6020820190508181035f8301526112878161124e565b9050919050565b5f6060820190506112a15f830186610e7f565b6112ae6020830185611135565b6112bb6040830184611144565b949350505050565b7f4e6f2073652068612070616761646f206c6120746172696661206465207265675f8201527f697374726f000000000000000000000000000000000000000000000000000000602082015250565b5f61131d6025836111f0565b9150611328826112c3565b604082019050919050565b5f6020820190508181035f83015261134a81611311565b9050919050565b7f43617465676f72696120696e76616c6964613a20303d43756c747572616c20315f8201527f3d45647563617469766120323d4465706f727469766120333d536f6369616c00602082015250565b5f6113ab603f836111f0565b91506113b682611351565b604082019050919050565b5f6020820190508181035f8301526113d88161139f565b9050919050565b7f45737461646f20696e696369616c20696e76616c69646f3a20757365203020705f8201527f61726120566967656e7465000000000000000000000000000000000000000000602082015250565b5f611439602b836111f0565b9150611444826113df565b604082019050919050565b5f6020820190508181035f8301526114668161142d565b9050919050565b5f60c0820190506114805f830189610e7f565b61148d6020830188610e7f565b61149a6040830187611135565b6114a76060830186611144565b6114b46080830185611135565b6114c160a0830184611144565b979650505050505050565b7f4c6120616374756163696f6e206e6f20657869737465000000000000000000005f82015250565b5f6115006016836111f0565b915061150b826114cc565b602082019050919050565b5f6020820190508181035f83015261152d816114f4565b9050919050565b7f4e487b71000000000000000000000000000000000000000000000000000000005f52601160045260245ffd5b5f61156b82610d60565b915061157683610d60565b925082820390508181111561158e5761158d611534565b5b92915050565b7f4e487b71000000000000000000000000000000000000000000000000000000005f52603260045260245ffd5b7f45737461646f20696e76616c69646f3a2075736520322070617261204465726f5f8201527f6761646100000000000000000000000000000000000000000000000000000000602082015250565b5f61161b6024836111f0565b9150611626826115c1565b604082019050919050565b5f6020820190508181035f8301526116488161160f565b9050919050565b7f4e6f20657320656c2070726f706965746172696f0000000000000000000000005f82015250565b5f6116836014836111f0565b915061168e8261164f565b602082019050919050565b5f6020820190508181035f8301526116b081611677565b9050919050565b7f4c6120616374756163696f6e20796120657869737465000000000000000000005f82015250565b5f6116eb6016836111f0565b91506116f6826116b7565b602082019050919050565b5f6020820190508181035f830152611718816116df565b9050919050565b5f60a0820190506117325f830188610e7f565b61173f6020830187610e7f565b61174c6040830186610e7f565b6117596060830185611135565b6117666080830184611144565b9695505050505050565b5f6040820190506117835f830185610e7f565b6117906020830184611135565b939250505056fea2646970667358221220d3bbddb20084fb0b86e7888f800d93d68c5ef20a9915dbf73e0db0109d06f3f964736f6c63430008220033",
					"opcodes": "PUSH1 0x80 PUSH1 0x40 MSTORE CALLVALUE DUP1 ISZERO PUSH1 0xE JUMPI PUSH0 PUSH0 REVERT JUMPDEST POP CALLER PUSH0 PUSH0 PUSH2 0x100 EXP DUP2 SLOAD DUP2 PUSH20 0xFFFFFFFFFFFFFFFFFFFFFFFFFFFFFFFFFFFFFFFF MUL NOT AND SWAP1 DUP4 PUSH20 0xFFFFFFFFFFFFFFFFFFFFFFFFFFFFFFFFFFFFFFFF AND MUL OR SWAP1 SSTORE POP PUSH2 0x17CD DUP1 PUSH2 0x5B PUSH0 CODECOPY PUSH0 RETURN INVALID PUSH1 0x80 PUSH1 0x40 MSTORE PUSH1 0x4 CALLDATASIZE LT PUSH2 0x6F JUMPI PUSH0 CALLDATALOAD PUSH1 0xE0 SHR DUP1 PUSH4 0x6DD7044E GT PUSH2 0x4D JUMPI DUP1 PUSH4 0x6DD7044E EQ PUSH2 0x103 JUMPI DUP1 PUSH4 0x8E8A5876 EQ PUSH2 0x11F JUMPI DUP1 PUSH4 0xD301E11D EQ PUSH2 0x15B JUMPI DUP1 PUSH4 0xFFB6ECDC EQ PUSH2 0x19C JUMPI PUSH2 0x6F JUMP JUMPDEST DUP1 PUSH4 0x3C4F81CD EQ PUSH2 0x73 JUMPI DUP1 PUSH4 0x4CDBA193 EQ PUSH2 0x9D JUMPI DUP1 PUSH4 0x52B5241E EQ PUSH2 0xD9 JUMPI JUMPDEST PUSH0 PUSH0 REVERT JUMPDEST CALLVALUE DUP1 ISZERO PUSH2 0x7E JUMPI PUSH0 PUSH0 REVERT JUMPDEST POP PUSH2 0x87 PUSH2 0x1C4 JUMP JUMPDEST PUSH1 0x40 MLOAD PUSH2 0x94 SWAP2 SWAP1 PUSH2 0xD43 JUMP JUMPDEST PUSH1 0x40 MLOAD DUP1 SWAP2 SUB SWAP1 RETURN JUMPDEST CALLVALUE DUP1 ISZERO PUSH2 0xA8 JUMPI PUSH0 PUSH0 REVERT JUMPDEST POP PUSH2 0xC3 PUSH1 0x4 DUP1 CALLDATASIZE SUB DUP2 ADD SWAP1 PUSH2 0xBE SWAP2 SWAP1 PUSH2 0xDFC JUMP JUMPDEST PUSH2 0x1E8 JUMP JUMPDEST PUSH1 0x40 MLOAD PUSH2 0xD0 SWAP2 SWAP1 PUSH2 0xE66 JUMP JUMPDEST PUSH1 0x40 MLOAD DUP1 SWAP2 SUB SWAP1 RETURN JUMPDEST CALLVALUE DUP1 ISZERO PUSH2 0xE4 JUMPI PUSH0 PUSH0 REVERT JUMPDEST POP PUSH2 0xED PUSH2 0x281 JUMP JUMPDEST PUSH1 0x40 MLOAD PUSH2 0xFA SWAP2 SWAP1 PUSH2 0xE8E JUMP JUMPDEST PUSH1 0x40 MLOAD DUP1 SWAP2 SUB SWAP1 RETURN JUMPDEST PUSH2 0x11D PUSH1 0x4 DUP1 CALLDATASIZE SUB DUP2 ADD SWAP1 PUSH2 0x118 SWAP2 SWAP1 PUSH2 0xEA7 JUMP JUMPDEST PUSH2 0x287 JUMP JUMPDEST STOP JUMPDEST CALLVALUE DUP1 ISZERO PUSH2 0x12A JUMPI PUSH0 PUSH0 REVERT JUMPDEST POP PUSH2 0x145 PUSH1 0x4 DUP1 CALLDATASIZE SUB DUP2 ADD SWAP1 PUSH2 0x140 SWAP2 SWAP1 PUSH2 0xF44 JUMP JUMPDEST PUSH2 0x403 JUMP JUMPDEST PUSH1 0x40 MLOAD PUSH2 0x152 SWAP2 SWAP1 PUSH2 0x1115 JUMP JUMPDEST PUSH1 0x40 MLOAD DUP1 SWAP2 SUB SWAP1 RETURN JUMPDEST CALLVALUE DUP1 ISZERO PUSH2 0x166 JUMPI PUSH0 PUSH0 REVERT JUMPDEST POP PUSH2 0x181 PUSH1 0x4 DUP1 CALLDATASIZE SUB DUP2 ADD SWAP1 PUSH2 0x17C SWAP2 SWAP1 PUSH2 0xF44 JUMP JUMPDEST PUSH2 0x59B JUMP JUMPDEST PUSH1 0x40 MLOAD PUSH2 0x193 SWAP7 SWAP6 SWAP5 SWAP4 SWAP3 SWAP2 SWAP1 PUSH2 0x1153 JUMP JUMPDEST PUSH1 0x40 MLOAD DUP1 SWAP2 SUB SWAP1 RETURN JUMPDEST CALLVALUE DUP1 ISZERO PUSH2 0x1A7 JUMPI PUSH0 PUSH0 REVERT JUMPDEST POP PUSH2 0x1C2 PUSH1 0x4 DUP1 CALLDATASIZE SUB DUP2 ADD SWAP1 PUSH2 0x1BD SWAP2 SWAP1 PUSH2 0x11B2 JUMP JUMPDEST PUSH2 0x65E JUMP JUMPDEST STOP JUMPDEST PUSH0 PUSH0 SWAP1 SLOAD SWAP1 PUSH2 0x100 EXP SWAP1 DIV PUSH20 0xFFFFFFFFFFFFFFFFFFFFFFFFFFFFFFFFFFFFFFFF AND DUP2 JUMP JUMPDEST PUSH0 PUSH1 0x1 DUP4 PUSH1 0xFF AND EQ PUSH2 0x22F JUMPI PUSH1 0x40 MLOAD PUSH32 0x8C379A000000000000000000000000000000000000000000000000000000000 DUP2 MSTORE PUSH1 0x4 ADD PUSH2 0x226 SWAP1 PUSH2 0x1270 JUMP JUMPDEST PUSH1 0x40 MLOAD DUP1 SWAP2 SUB SWAP1 REVERT JUMPDEST PUSH2 0x23A DUP5 DUP5 DUP5 PUSH2 0x6B2 JUMP JUMPDEST POP PUSH32 0xF1CBBBD659D417A3E64F12428284640F56E8816A61BEB5C745057DCE5C3FB25B DUP5 DUP5 DUP5 PUSH1 0x40 MLOAD PUSH2 0x26E SWAP4 SWAP3 SWAP2 SWAP1 PUSH2 0x128E JUMP JUMPDEST PUSH1 0x40 MLOAD DUP1 SWAP2 SUB SWAP1 LOG1 PUSH1 0x1 SWAP1 POP SWAP4 SWAP3 POP POP POP JUMP JUMPDEST PUSH2 0x1F4 DUP2 JUMP JUMPDEST PUSH2 0x1F4 CALLVALUE LT ISZERO PUSH2 0x2CC JUMPI PUSH1 0x40 MLOAD PUSH32 0x8C379A000000000000000000000000000000000000000000000000000000000 DUP2 MSTORE PUSH1 0x4 ADD PUSH2 0x2C3 SWAP1 PUSH2 0x1333 JUMP JUMPDEST PUSH1 0x40 MLOAD DUP1 SWAP2 SUB SWAP1 REVERT JUMPDEST PUSH1 0x3 DUP4 PUSH1 0xFF AND GT ISZERO PUSH2 0x313 JUMPI PUSH1 0x40 MLOAD PUSH32 0x8C379A000000000000000000000000000000000000000000000000000000000 DUP2 MSTORE PUSH1 0x4 ADD PUSH2 0x30A SWAP1 PUSH2 0x13C1 JUMP JUMPDEST PUSH1 0x40 MLOAD DUP1 SWAP2 SUB SWAP1 REVERT JUMPDEST PUSH0 DUP2 PUSH1 0xFF AND EQ PUSH2 0x358 JUMPI PUSH1 0x40 MLOAD PUSH32 0x8C379A000000000000000000000000000000000000000000000000000000000 DUP2 MSTORE PUSH1 0x4 ADD PUSH2 0x34F SWAP1 PUSH2 0x144F JUMP JUMPDEST PUSH1 0x40 MLOAD DUP1 SWAP2 SUB SWAP1 REVERT JUMPDEST PUSH2 0x365 DUP8 DUP8 DUP4 DUP9 DUP9 PUSH2 0x8D5 JUMP JUMPDEST PUSH1 0x40 MLOAD DUP1 PUSH1 0x40 ADD PUSH1 0x40 MSTORE DUP1 DUP5 PUSH1 0xFF AND DUP2 MSTORE PUSH1 0x20 ADD DUP4 DUP2 MSTORE POP PUSH1 0x3 PUSH0 DUP10 DUP2 MSTORE PUSH1 0x20 ADD SWAP1 DUP2 MSTORE PUSH1 0x20 ADD PUSH0 KECCAK256 PUSH0 DUP3 ADD MLOAD DUP2 PUSH0 ADD PUSH0 PUSH2 0x100 EXP DUP2 SLOAD DUP2 PUSH1 0xFF MUL NOT AND SWAP1 DUP4 PUSH1 0xFF AND MUL OR SWAP1 SSTORE POP PUSH1 0x20 DUP3 ADD MLOAD DUP2 PUSH1 0x1 ADD SSTORE SWAP1 POP POP PUSH32 0xFED5B38EBBA8C206DF4B17453AFE7B2837BDC8A8FF866B4AE24E2C2C3BFF6404 DUP8 DUP9 DUP6 DUP6 DUP6 DUP11 PUSH1 0x40 MLOAD PUSH2 0x3F2 SWAP7 SWAP6 SWAP5 SWAP4 SWAP3 SWAP2 SWAP1 PUSH2 0x146D JUMP JUMPDEST PUSH1 0x40 MLOAD DUP1 SWAP2 SUB SWAP1 LOG1 POP POP POP POP POP POP POP JUMP JUMPDEST PUSH2 0x40B PUSH2 0xCDD JUMP JUMPDEST PUSH1 0x1 PUSH0 DUP4 DUP2 MSTORE PUSH1 0x20 ADD SWAP1 DUP2 MSTORE PUSH1 0x20 ADD PUSH0 KECCAK256 PUSH1 0x2 ADD PUSH0 SWAP1 SLOAD SWAP1 PUSH2 0x100 EXP SWAP1 DIV PUSH1 0xFF AND PUSH2 0x46B JUMPI PUSH1 0x40 MLOAD PUSH32 0x8C379A000000000000000000000000000000000000000000000000000000000 DUP2 MSTORE PUSH1 0x4 ADD PUSH2 0x462 SWAP1 PUSH2 0x1516 JUMP JUMPDEST PUSH1 0x40 MLOAD DUP1 SWAP2 SUB SWAP1 REVERT JUMPDEST PUSH1 0x1 PUSH0 DUP4 DUP2 MSTORE PUSH1 0x20 ADD SWAP1 DUP2 MSTORE PUSH1 0x20 ADD PUSH0 KECCAK256 PUSH1 0x40 MLOAD DUP1 PUSH1 0x80 ADD PUSH1 0x40 MSTORE SWAP1 DUP2 PUSH0 DUP3 ADD SLOAD DUP2 MSTORE PUSH1 0x20 ADD PUSH1 0x1 DUP3 ADD SLOAD DUP2 MSTORE PUSH1 0x20 ADD PUSH1 0x2 DUP3 ADD PUSH0 SWAP1 SLOAD SWAP1 PUSH2 0x100 EXP SWAP1 DIV PUSH1 0xFF AND ISZERO ISZERO ISZERO ISZERO DUP2 MSTORE PUSH1 0x20 ADD PUSH1 0x3 DUP3 ADD DUP1 SLOAD DUP1 PUSH1 0x20 MUL PUSH1 0x20 ADD PUSH1 0x40 MLOAD SWAP1 DUP2 ADD PUSH1 0x40 MSTORE DUP1 SWAP3 SWAP2 SWAP1 DUP2 DUP2 MSTORE PUSH1 0x20 ADD PUSH0 SWAP1 JUMPDEST DUP3 DUP3 LT ISZERO PUSH2 0x58C JUMPI DUP4 DUP3 SWAP1 PUSH0 MSTORE PUSH1 0x20 PUSH0 KECCAK256 SWAP1 PUSH1 0x4 MUL ADD PUSH1 0x40 MLOAD DUP1 PUSH1 0x80 ADD PUSH1 0x40 MSTORE SWAP1 DUP2 PUSH0 DUP3 ADD SLOAD DUP2 MSTORE PUSH1 0x20 ADD PUSH1 0x1 DUP3 ADD PUSH0 SWAP1 SLOAD SWAP1 PUSH2 0x100 EXP SWAP1 DIV PUSH1 0xFF AND PUSH1 0xFF AND PUSH1 0xFF AND DUP2 MSTORE PUSH1 0x20 ADD PUSH1 0x2 DUP3 ADD SLOAD DUP2 MSTORE PUSH1 0x20 ADD PUSH1 0x3 DUP3 ADD PUSH0 SWAP1 SLOAD SWAP1 PUSH2 0x100 EXP SWAP1 DIV PUSH20 0xFFFFFFFFFFFFFFFFFFFFFFFFFFFFFFFFFFFFFFFF AND PUSH20 0xFFFFFFFFFFFFFFFFFFFFFFFFFFFFFFFFFFFFFFFF AND PUSH20 0xFFFFFFFFFFFFFFFFFFFFFFFFFFFFFFFFFFFFFFFF AND DUP2 MSTORE POP POP DUP2 MSTORE PUSH1 0x20 ADD SWAP1 PUSH1 0x1 ADD SWAP1 PUSH2 0x4D8 JUMP JUMPDEST POP POP POP POP DUP2 MSTORE POP POP SWAP1 POP SWAP2 SWAP1 POP JUMP JUMPDEST PUSH0 PUSH0 PUSH0 PUSH0 PUSH0 PUSH0 PUSH0 PUSH2 0x5AB DUP9 PUSH2 0x403 JUMP JUMPDEST SWAP1 POP PUSH0 PUSH1 0x3 PUSH0 DUP11 DUP2 MSTORE PUSH1 0x20 ADD SWAP1 DUP2 MSTORE PUSH1 0x20 ADD PUSH0 KECCAK256 SWAP1 POP DUP2 PUSH0 ADD MLOAD DUP3 PUSH1 0x20 ADD MLOAD DUP4 PUSH1 0x60 ADD MLOAD PUSH1 0x1 DUP6 PUSH1 0x60 ADD MLOAD MLOAD PUSH2 0x5E1 SWAP2 SWAP1 PUSH2 0x1561 JUMP JUMPDEST DUP2 MLOAD DUP2 LT PUSH2 0x5F2 JUMPI PUSH2 0x5F1 PUSH2 0x1594 JUMP JUMPDEST JUMPDEST PUSH1 0x20 MUL PUSH1 0x20 ADD ADD MLOAD PUSH1 0x20 ADD MLOAD DUP4 PUSH0 ADD PUSH0 SWAP1 SLOAD SWAP1 PUSH2 0x100 EXP SWAP1 DIV PUSH1 0xFF AND DUP5 PUSH1 0x1 ADD SLOAD DUP7 PUSH1 0x60 ADD MLOAD PUSH1 0x1 DUP9 PUSH1 0x60 ADD MLOAD MLOAD PUSH2 0x62A SWAP2 SWAP1 PUSH2 0x1561 JUMP JUMPDEST DUP2 MLOAD DUP2 LT PUSH2 0x63B JUMPI PUSH2 0x63A PUSH2 0x1594 JUMP JUMPDEST JUMPDEST PUSH1 0x20 MUL PUSH1 0x20 ADD ADD MLOAD PUSH1 0x40 ADD MLOAD SWAP8 POP SWAP8 POP SWAP8 POP SWAP8 POP SWAP8 POP SWAP8 POP POP POP SWAP2 SWAP4 SWAP6 POP SWAP2 SWAP4 SWAP6 JUMP JUMPDEST PUSH1 0x2 DUP2 PUSH1 0xFF AND EQ PUSH2 0x6A4 JUMPI PUSH1 0x40 MLOAD PUSH32 0x8C379A000000000000000000000000000000000000000000000000000000000 DUP2 MSTORE PUSH1 0x4 ADD PUSH2 0x69B SWAP1 PUSH2 0x1631 JUMP JUMPDEST PUSH1 0x40 MLOAD DUP1 SWAP2 SUB SWAP1 REVERT JUMPDEST PUSH2 0x6AE DUP3 DUP3 PUSH2 0xAC2 JUMP JUMPDEST POP POP JUMP JUMPDEST PUSH0 PUSH1 0x1 PUSH0 DUP6 DUP2 MSTORE PUSH1 0x20 ADD SWAP1 DUP2 MSTORE PUSH1 0x20 ADD PUSH0 KECCAK256 PUSH1 0x2 ADD PUSH0 SWAP1 SLOAD SWAP1 PUSH2 0x100 EXP SWAP1 DIV PUSH1 0xFF AND PUSH2 0x713 JUMPI PUSH1 0x40 MLOAD PUSH32 0x8C379A000000000000000000000000000000000000000000000000000000000 DUP2 MSTORE PUSH1 0x4 ADD PUSH2 0x70A SWAP1 PUSH2 0x1516 JUMP JUMPDEST PUSH1 0x40 MLOAD DUP1 SWAP2 SUB SWAP1 REVERT JUMPDEST PUSH0 PUSH0 SWAP1 SLOAD SWAP1 PUSH2 0x100 EXP SWAP1 DIV PUSH20 0xFFFFFFFFFFFFFFFFFFFFFFFFFFFFFFFFFFFFFFFF AND PUSH20 0xFFFFFFFFFFFFFFFFFFFFFFFFFFFFFFFFFFFFFFFF AND CALLER PUSH20 0xFFFFFFFFFFFFFFFFFFFFFFFFFFFFFFFFFFFFFFFF AND EQ PUSH2 0x7A1 JUMPI PUSH1 0x40 MLOAD PUSH32 0x8C379A000000000000000000000000000000000000000000000000000000000 DUP2 MSTORE PUSH1 0x4 ADD PUSH2 0x798 SWAP1 PUSH2 0x1699 JUMP JUMPDEST PUSH1 0x40 MLOAD DUP1 SWAP2 SUB SWAP1 REVERT JUMPDEST PUSH1 0x1 PUSH0 DUP6 DUP2 MSTORE PUSH1 0x20 ADD SWAP1 DUP2 MSTORE PUSH1 0x20 ADD PUSH0 KECCAK256 PUSH1 0x3 ADD PUSH1 0x40 MLOAD DUP1 PUSH1 0x80 ADD PUSH1 0x40 MSTORE DUP1 TIMESTAMP DUP2 MSTORE PUSH1 0x20 ADD DUP6 PUSH1 0xFF AND DUP2 MSTORE PUSH1 0x20 ADD DUP5 DUP2 MSTORE PUSH1 0x20 ADD CALLER PUSH20 0xFFFFFFFFFFFFFFFFFFFFFFFFFFFFFFFFFFFFFFFF AND DUP2 MSTORE POP SWAP1 DUP1 PUSH1 0x1 DUP2 SLOAD ADD DUP1 DUP3 SSTORE DUP1 SWAP2 POP POP PUSH1 0x1 SWAP1 SUB SWAP1 PUSH0 MSTORE PUSH1 0x20 PUSH0 KECCAK256 SWAP1 PUSH1 0x4 MUL ADD PUSH0 SWAP1 SWAP2 SWAP1 SWAP2 SWAP1 SWAP2 POP PUSH0 DUP3 ADD MLOAD DUP2 PUSH0 ADD SSTORE PUSH1 0x20 DUP3 ADD MLOAD DUP2 PUSH1 0x1 ADD PUSH0 PUSH2 0x100 EXP DUP2 SLOAD DUP2 PUSH1 0xFF MUL NOT AND SWAP1 DUP4 PUSH1 0xFF AND MUL OR SWAP1 SSTORE POP PUSH1 0x40 DUP3 ADD MLOAD DUP2 PUSH1 0x2 ADD SSTORE PUSH1 0x60 DUP3 ADD MLOAD DUP2 PUSH1 0x3 ADD PUSH0 PUSH2 0x100 EXP DUP2 SLOAD DUP2 PUSH20 0xFFFFFFFFFFFFFFFFFFFFFFFFFFFFFFFFFFFFFFFF MUL NOT AND SWAP1 DUP4 PUSH20 0xFFFFFFFFFFFFFFFFFFFFFFFFFFFFFFFFFFFFFFFF AND MUL OR SWAP1 SSTORE POP POP POP PUSH32 0x2FD7CCA134BDC372692F9E8679A7046060CA6DA0C386E7494B18B9C21B10652 DUP5 DUP5 DUP5 PUSH1 0x40 MLOAD PUSH2 0x8C2 SWAP4 SWAP3 SWAP2 SWAP1 PUSH2 0x128E JUMP JUMPDEST PUSH1 0x40 MLOAD DUP1 SWAP2 SUB SWAP1 LOG1 PUSH1 0x1 SWAP1 POP SWAP4 SWAP3 POP POP POP JUMP JUMPDEST PUSH1 0x1 PUSH0 DUP7 DUP2 MSTORE PUSH1 0x20 ADD SWAP1 DUP2 MSTORE PUSH1 0x20 ADD PUSH0 KECCAK256 PUSH1 0x2 ADD PUSH0 SWAP1 SLOAD SWAP1 PUSH2 0x100 EXP SWAP1 DIV PUSH1 0xFF AND ISZERO PUSH2 0x936 JUMPI PUSH1 0x40 MLOAD PUSH32 0x8C379A000000000000000000000000000000000000000000000000000000000 DUP2 MSTORE PUSH1 0x4 ADD PUSH2 0x92D SWAP1 PUSH2 0x1701 JUMP JUMPDEST PUSH1 0x40 MLOAD DUP1 SWAP2 SUB SWAP1 REVERT JUMPDEST PUSH0 PUSH1 0x1 PUSH0 DUP8 DUP2 MSTORE PUSH1 0x20 ADD SWAP1 DUP2 MSTORE PUSH1 0x20 ADD PUSH0 KECCAK256 SWAP1 POP PUSH1 0x1 DUP2 PUSH1 0x2 ADD PUSH0 PUSH2 0x100 EXP DUP2 SLOAD DUP2 PUSH1 0xFF MUL NOT AND SWAP1 DUP4 ISZERO ISZERO MUL OR SWAP1 SSTORE POP DUP5 DUP2 PUSH1 0x1 ADD DUP2 SWAP1 SSTORE POP DUP2 DUP2 PUSH0 ADD DUP2 SWAP1 SSTORE POP DUP1 PUSH1 0x3 ADD PUSH1 0x40 MLOAD DUP1 PUSH1 0x80 ADD PUSH1 0x40 MSTORE DUP1 TIMESTAMP DUP2 MSTORE PUSH1 0x20 ADD DUP7 PUSH1 0xFF AND DUP2 MSTORE PUSH1 0x20 ADD DUP6 DUP2 MSTORE PUSH1 0x20 ADD CALLER PUSH20 0xFFFFFFFFFFFFFFFFFFFFFFFFFFFFFFFFFFFFFFFF AND DUP2 MSTORE POP SWAP1 DUP1 PUSH1 0x1 DUP2 SLOAD ADD DUP1 DUP3 SSTORE DUP1 SWAP2 POP POP PUSH1 0x1 SWAP1 SUB SWAP1 PUSH0 MSTORE PUSH1 0x20 PUSH0 KECCAK256 SWAP1 PUSH1 0x4 MUL ADD PUSH0 SWAP1 SWAP2 SWAP1 SWAP2 SWAP1 SWAP2 POP PUSH0 DUP3 ADD MLOAD DUP2 PUSH0 ADD SSTORE PUSH1 0x20 DUP3 ADD MLOAD DUP2 PUSH1 0x1 ADD PUSH0 PUSH2 0x100 EXP DUP2 SLOAD DUP2 PUSH1 0xFF MUL NOT AND SWAP1 DUP4 PUSH1 0xFF AND MUL OR SWAP1 SSTORE POP PUSH1 0x40 DUP3 ADD MLOAD DUP2 PUSH1 0x2 ADD SSTORE PUSH1 0x60 DUP3 ADD MLOAD DUP2 PUSH1 0x3 ADD PUSH0 PUSH2 0x100 EXP DUP2 SLOAD DUP2 PUSH20 0xFFFFFFFFFFFFFFFFFFFFFFFFFFFFFFFFFFFFFFFF MUL NOT AND SWAP1 DUP4 PUSH20 0xFFFFFFFFFFFFFFFFFFFFFFFFFFFFFFFFFFFFFFFF AND MUL OR SWAP1 SSTORE POP POP POP PUSH1 0x2 DUP7 SWAP1 DUP1 PUSH1 0x1 DUP2 SLOAD ADD DUP1 DUP3 SSTORE DUP1 SWAP2 POP POP PUSH1 0x1 SWAP1 SUB SWAP1 PUSH0 MSTORE PUSH1 0x20 PUSH0 KECCAK256 ADD PUSH0 SWAP1 SWAP2 SWAP1 SWAP2 SWAP1 SWAP2 POP SSTORE PUSH32 0x164383A2B97191661E35FD7054520C2ABDF173025E32983B038ECB35A796CDA7 DUP7 DUP4 DUP8 DUP8 DUP8 PUSH1 0x40 MLOAD PUSH2 0xAB2 SWAP6 SWAP5 SWAP4 SWAP3 SWAP2 SWAP1 PUSH2 0x171F JUMP JUMPDEST PUSH1 0x40 MLOAD DUP1 SWAP2 SUB SWAP1 LOG1 POP POP POP POP POP POP JUMP JUMPDEST PUSH1 0x1 PUSH0 DUP4 DUP2 MSTORE PUSH1 0x20 ADD SWAP1 DUP2 MSTORE PUSH1 0x20 ADD PUSH0 KECCAK256 PUSH1 0x2 ADD PUSH0 SWAP1 SLOAD SWAP1 PUSH2 0x100 EXP SWAP1 DIV PUSH1 0xFF AND PUSH2 0xB22 JUMPI PUSH1 0x40 MLOAD PUSH32 0x8C379A000000000000000000000000000000000000000000000000000000000 DUP2 MSTORE PUSH1 0x4 ADD PUSH2 0xB19 SWAP1 PUSH2 0x1516 JUMP JUMPDEST PUSH1 0x40 MLOAD DUP1 SWAP2 SUB SWAP1 REVERT JUMPDEST PUSH0 PUSH0 SWAP1 SLOAD SWAP1 PUSH2 0x100 EXP SWAP1 DIV PUSH20 0xFFFFFFFFFFFFFFFFFFFFFFFFFFFFFFFFFFFFFFFF AND PUSH20 0xFFFFFFFFFFFFFFFFFFFFFFFFFFFFFFFFFFFFFFFF AND CALLER PUSH20 0xFFFFFFFFFFFFFFFFFFFFFFFFFFFFFFFFFFFFFFFF AND EQ PUSH2 0xBB0 JUMPI PUSH1 0x40 MLOAD PUSH32 0x8C379A000000000000000000000000000000000000000000000000000000000 DUP2 MSTORE PUSH1 0x4 ADD PUSH2 0xBA7 SWAP1 PUSH2 0x1699 JUMP JUMPDEST PUSH1 0x40 MLOAD DUP1 SWAP2 SUB SWAP1 REVERT JUMPDEST PUSH1 0x1 PUSH0 DUP4 DUP2 MSTORE PUSH1 0x20 ADD SWAP1 DUP2 MSTORE PUSH1 0x20 ADD PUSH0 KECCAK256 PUSH1 0x3 ADD PUSH1 0x40 MLOAD DUP1 PUSH1 0x80 ADD PUSH1 0x40 MSTORE DUP1 TIMESTAMP DUP2 MSTORE PUSH1 0x20 ADD DUP4 PUSH1 0xFF AND DUP2 MSTORE PUSH1 0x20 ADD PUSH0 PUSH0 SHL DUP2 MSTORE PUSH1 0x20 ADD CALLER PUSH20 0xFFFFFFFFFFFFFFFFFFFFFFFFFFFFFFFFFFFFFFFF AND DUP2 MSTORE POP SWAP1 DUP1 PUSH1 0x1 DUP2 SLOAD ADD DUP1 DUP3 SSTORE DUP1 SWAP2 POP POP PUSH1 0x1 SWAP1 SUB SWAP1 PUSH0 MSTORE PUSH1 0x20 PUSH0 KECCAK256 SWAP1 PUSH1 0x4 MUL ADD PUSH0 SWAP1 SWAP2 SWAP1 SWAP2 SWAP1 SWAP2 POP PUSH0 DUP3 ADD MLOAD DUP2 PUSH0 ADD SSTORE PUSH1 0x20 DUP3 ADD MLOAD DUP2 PUSH1 0x1 ADD PUSH0 PUSH2 0x100 EXP DUP2 SLOAD DUP2 PUSH1 0xFF MUL NOT AND SWAP1 DUP4 PUSH1 0xFF AND MUL OR SWAP1 SSTORE POP PUSH1 0x40 DUP3 ADD MLOAD DUP2 PUSH1 0x2 ADD SSTORE PUSH1 0x60 DUP3 ADD MLOAD DUP2 PUSH1 0x3 ADD PUSH0 PUSH2 0x100 EXP DUP2 SLOAD DUP2 PUSH20 0xFFFFFFFFFFFFFFFFFFFFFFFFFFFFFFFFFFFFFFFF MUL NOT AND SWAP1 DUP4 PUSH20 0xFFFFFFFFFFFFFFFFFFFFFFFFFFFFFFFFFFFFFFFF AND MUL OR SWAP1 SSTORE POP POP POP PUSH32 0x55F3B2B2BC9C07499976075B3A9A78344B888C51B194889C9214C6EBA4BF0113 DUP3 DUP3 PUSH1 0x40 MLOAD PUSH2 0xCD1 SWAP3 SWAP2 SWAP1 PUSH2 0x1770 JUMP JUMPDEST PUSH1 0x40 MLOAD DUP1 SWAP2 SUB SWAP1 LOG1 POP POP JUMP JUMPDEST PUSH1 0x40 MLOAD DUP1 PUSH1 0x80 ADD PUSH1 0x40 MSTORE DUP1 PUSH0 DUP2 MSTORE PUSH1 0x20 ADD PUSH0 DUP2 MSTORE PUSH1 0x20 ADD PUSH0 ISZERO ISZERO DUP2 MSTORE PUSH1 0x20 ADD PUSH1 0x60 DUP2 MSTORE POP SWAP1 JUMP JUMPDEST PUSH0 PUSH20 0xFFFFFFFFFFFFFFFFFFFFFFFFFFFFFFFFFFFFFFFF DUP3 AND SWAP1 POP SWAP2 SWAP1 POP JUMP JUMPDEST PUSH0 PUSH2 0xD2D DUP3 PUSH2 0xD04 JUMP JUMPDEST SWAP1 POP SWAP2 SWAP1 POP JUMP JUMPDEST PUSH2 0xD3D DUP2 PUSH2 0xD23 JUMP JUMPDEST DUP3 MSTORE POP POP JUMP JUMPDEST PUSH0 PUSH1 0x20 DUP3 ADD SWAP1 POP PUSH2 0xD56 PUSH0 DUP4 ADD DUP5 PUSH2 0xD34 JUMP JUMPDEST SWAP3 SWAP2 POP POP JUMP JUMPDEST PUSH0 PUSH0 REVERT JUMPDEST PUSH0 DUP2 SWAP1 POP SWAP2 SWAP1 POP JUMP JUMPDEST PUSH2 0xD72 DUP2 PUSH2 0xD60 JUMP JUMPDEST DUP2 EQ PUSH2 0xD7C JUMPI PUSH0 PUSH0 REVERT JUMPDEST POP JUMP JUMPDEST PUSH0 DUP2 CALLDATALOAD SWAP1 POP PUSH2 0xD8D DUP2 PUSH2 0xD69 JUMP JUMPDEST SWAP3 SWAP2 POP POP JUMP JUMPDEST PUSH0 PUSH1 0xFF DUP3 AND SWAP1 POP SWAP2 SWAP1 POP JUMP JUMPDEST PUSH2 0xDA8 DUP2 PUSH2 0xD93 JUMP JUMPDEST DUP2 EQ PUSH2 0xDB2 JUMPI PUSH0 PUSH0 REVERT JUMPDEST POP JUMP JUMPDEST PUSH0 DUP2 CALLDATALOAD SWAP1 POP PUSH2 0xDC3 DUP2 PUSH2 0xD9F JUMP JUMPDEST SWAP3 SWAP2 POP POP JUMP JUMPDEST PUSH0 DUP2 SWAP1 POP SWAP2 SWAP1 POP JUMP JUMPDEST PUSH2 0xDDB DUP2 PUSH2 0xDC9 JUMP JUMPDEST DUP2 EQ PUSH2 0xDE5 JUMPI PUSH0 PUSH0 REVERT JUMPDEST POP JUMP JUMPDEST PUSH0 DUP2 CALLDATALOAD SWAP1 POP PUSH2 0xDF6 DUP2 PUSH2 0xDD2 JUMP JUMPDEST SWAP3 SWAP2 POP POP JUMP JUMPDEST PUSH0 PUSH0 PUSH0 PUSH1 0x60 DUP5 DUP7 SUB SLT ISZERO PUSH2 0xE13 JUMPI PUSH2 0xE12 PUSH2 0xD5C JUMP JUMPDEST JUMPDEST PUSH0 PUSH2 0xE20 DUP7 DUP3 DUP8 ADD PUSH2 0xD7F JUMP JUMPDEST SWAP4 POP POP PUSH1 0x20 PUSH2 0xE31 DUP7 DUP3 DUP8 ADD PUSH2 0xDB5 JUMP JUMPDEST SWAP3 POP POP PUSH1 0x40 PUSH2 0xE42 DUP7 DUP3 DUP8 ADD PUSH2 0xDE8 JUMP JUMPDEST SWAP2 POP POP SWAP3 POP SWAP3 POP SWAP3 JUMP JUMPDEST PUSH0 DUP2 ISZERO ISZERO SWAP1 POP SWAP2 SWAP1 POP JUMP JUMPDEST PUSH2 0xE60 DUP2 PUSH2 0xE4C JUMP JUMPDEST DUP3 MSTORE POP POP JUMP JUMPDEST PUSH0 PUSH1 0x20 DUP3 ADD SWAP1 POP PUSH2 0xE79 PUSH0 DUP4 ADD DUP5 PUSH2 0xE57 JUMP JUMPDEST SWAP3 SWAP2 POP POP JUMP JUMPDEST PUSH2 0xE88 DUP2 PUSH2 0xD60 JUMP JUMPDEST DUP3 MSTORE POP POP JUMP JUMPDEST PUSH0 PUSH1 0x20 DUP3 ADD SWAP1 POP PUSH2 0xEA1 PUSH0 DUP4 ADD DUP5 PUSH2 0xE7F JUMP JUMPDEST SWAP3 SWAP2 POP POP JUMP JUMPDEST PUSH0 PUSH0 PUSH0 PUSH0 PUSH0 PUSH0 PUSH0 PUSH1 0xE0 DUP9 DUP11 SUB SLT ISZERO PUSH2 0xEC2 JUMPI PUSH2 0xEC1 PUSH2 0xD5C JUMP JUMPDEST JUMPDEST PUSH0 PUSH2 0xECF DUP11 DUP3 DUP12 ADD PUSH2 0xD7F JUMP JUMPDEST SWAP8 POP POP PUSH1 0x20 PUSH2 0xEE0 DUP11 DUP3 DUP12 ADD PUSH2 0xD7F JUMP JUMPDEST SWAP7 POP POP PUSH1 0x40 PUSH2 0xEF1 DUP11 DUP3 DUP12 ADD PUSH2 0xDE8 JUMP JUMPDEST SWAP6 POP POP PUSH1 0x60 PUSH2 0xF02 DUP11 DUP3 DUP12 ADD PUSH2 0xD7F JUMP JUMPDEST SWAP5 POP POP PUSH1 0x80 PUSH2 0xF13 DUP11 DUP3 DUP12 ADD PUSH2 0xDB5 JUMP JUMPDEST SWAP4 POP POP PUSH1 0xA0 PUSH2 0xF24 DUP11 DUP3 DUP12 ADD PUSH2 0xDE8 JUMP JUMPDEST SWAP3 POP POP PUSH1 0xC0 PUSH2 0xF35 DUP11 DUP3 DUP12 ADD PUSH2 0xDB5 JUMP JUMPDEST SWAP2 POP POP SWAP3 SWAP6 SWAP9 SWAP2 SWAP5 SWAP8 POP SWAP3 SWAP6 POP JUMP JUMPDEST PUSH0 PUSH1 0x20 DUP3 DUP5 SUB SLT ISZERO PUSH2 0xF59 JUMPI PUSH2 0xF58 PUSH2 0xD5C JUMP JUMPDEST JUMPDEST PUSH0 PUSH2 0xF66 DUP5 DUP3 DUP6 ADD PUSH2 0xD7F JUMP JUMPDEST SWAP2 POP POP SWAP3 SWAP2 POP POP JUMP JUMPDEST PUSH2 0xF78 DUP2 PUSH2 0xD60 JUMP JUMPDEST DUP3 MSTORE POP POP JUMP JUMPDEST PUSH2 0xF87 DUP2 PUSH2 0xE4C JUMP JUMPDEST DUP3 MSTORE POP POP JUMP JUMPDEST PUSH0 DUP2 MLOAD SWAP1 POP SWAP2 SWAP1 POP JUMP JUMPDEST PUSH0 DUP3 DUP3 MSTORE PUSH1 0x20 DUP3 ADD SWAP1 POP SWAP3 SWAP2 POP POP JUMP JUMPDEST PUSH0 DUP2 SWAP1 POP PUSH1 0x20 DUP3 ADD SWAP1 POP SWAP2 SWAP1 POP JUMP JUMPDEST PUSH2 0xFBF DUP2 PUSH2 0xD93 JUMP JUMPDEST DUP3 MSTORE POP POP JUMP JUMPDEST PUSH2 0xFCE DUP2 PUSH2 0xDC9 JUMP JUMPDEST DUP3 MSTORE POP POP JUMP JUMPDEST PUSH2 0xFDD DUP2 PUSH2 0xD23 JUMP JUMPDEST DUP3 MSTORE POP POP JUMP JUMPDEST PUSH1 0x80 DUP3 ADD PUSH0 DUP3 ADD MLOAD PUSH2 0xFF7 PUSH0 DUP6 ADD DUP3 PUSH2 0xF6F JUMP JUMPDEST POP PUSH1 0x20 DUP3 ADD MLOAD PUSH2 0x100A PUSH1 0x20 DUP6 ADD DUP3 PUSH2 0xFB6 JUMP JUMPDEST POP PUSH1 0x40 DUP3 ADD MLOAD PUSH2 0x101D PUSH1 0x40 DUP6 ADD DUP3 PUSH2 0xFC5 JUMP JUMPDEST POP PUSH1 0x60 DUP3 ADD MLOAD PUSH2 0x1030 PUSH1 0x60 DUP6 ADD DUP3 PUSH2 0xFD4 JUMP JUMPDEST POP POP POP POP JUMP JUMPDEST PUSH0 PUSH2 0x1041 DUP4 DUP4 PUSH2 0xFE3 JUMP JUMPDEST PUSH1 0x80 DUP4 ADD SWAP1 POP SWAP3 SWAP2 POP POP JUMP JUMPDEST PUSH0 PUSH1 0x20 DUP3 ADD SWAP1 POP SWAP2 SWAP1 POP JUMP JUMPDEST PUSH0 PUSH2 0x1063 DUP3 PUSH2 0xF8D JUMP JUMPDEST PUSH2 0x106D DUP2 DUP6 PUSH2 0xF97 JUMP JUMPDEST SWAP4 POP PUSH2 0x1078 DUP4 PUSH2 0xFA7 JUMP JUMPDEST DUP1 PUSH0 JUMPDEST DUP4 DUP2 LT ISZERO PUSH2 0x10A8 JUMPI DUP2 MLOAD PUSH2 0x108F DUP9 DUP3 PUSH2 0x1036 JUMP JUMPDEST SWAP8 POP PUSH2 0x109A DUP4 PUSH2 0x104D JUMP JUMPDEST SWAP3 POP POP PUSH1 0x1 DUP2 ADD SWAP1 POP PUSH2 0x107B JUMP JUMPDEST POP DUP6 SWAP4 POP POP POP POP SWAP3 SWAP2 POP POP JUMP JUMPDEST PUSH0 PUSH1 0x80 DUP4 ADD PUSH0 DUP4 ADD MLOAD PUSH2 0x10CA PUSH0 DUP7 ADD DUP3 PUSH2 0xF6F JUMP JUMPDEST POP PUSH1 0x20 DUP4 ADD MLOAD PUSH2 0x10DD PUSH1 0x20 DUP7 ADD DUP3 PUSH2 0xF6F JUMP JUMPDEST POP PUSH1 0x40 DUP4 ADD MLOAD PUSH2 0x10F0 PUSH1 0x40 DUP7 ADD DUP3 PUSH2 0xF7E JUMP JUMPDEST POP PUSH1 0x60 DUP4 ADD MLOAD DUP5 DUP3 SUB PUSH1 0x60 DUP7 ADD MSTORE PUSH2 0x1108 DUP3 DUP3 PUSH2 0x1059 JUMP JUMPDEST SWAP2 POP POP DUP1 SWAP2 POP POP SWAP3 SWAP2 POP POP JUMP JUMPDEST PUSH0 PUSH1 0x20 DUP3 ADD SWAP1 POP DUP2 DUP2 SUB PUSH0 DUP4 ADD MSTORE PUSH2 0x112D DUP2 DUP5 PUSH2 0x10B5 JUMP JUMPDEST SWAP1 POP SWAP3 SWAP2 POP POP JUMP JUMPDEST PUSH2 0x113E DUP2 PUSH2 0xD93 JUMP JUMPDEST DUP3 MSTORE POP POP JUMP JUMPDEST PUSH2 0x114D DUP2 PUSH2 0xDC9 JUMP JUMPDEST DUP3 MSTORE POP POP JUMP JUMPDEST PUSH0 PUSH1 0xC0 DUP3 ADD SWAP1 POP PUSH2 0x1166 PUSH0 DUP4 ADD DUP10 PUSH2 0xE7F JUMP JUMPDEST PUSH2 0x1173 PUSH1 0x20 DUP4 ADD DUP9 PUSH2 0xE7F JUMP JUMPDEST PUSH2 0x1180 PUSH1 0x40 DUP4 ADD DUP8 PUSH2 0x1135 JUMP JUMPDEST PUSH2 0x118D PUSH1 0x60 DUP4 ADD DUP7 PUSH2 0x1135 JUMP JUMPDEST PUSH2 0x119A PUSH1 0x80 DUP4 ADD DUP6 PUSH2 0x1144 JUMP JUMPDEST PUSH2 0x11A7 PUSH1 0xA0 DUP4 ADD DUP5 PUSH2 0x1144 JUMP JUMPDEST SWAP8 SWAP7 POP POP POP POP POP POP POP JUMP JUMPDEST PUSH0 PUSH0 PUSH1 0x40 DUP4 DUP6 SUB SLT ISZERO PUSH2 0x11C8 JUMPI PUSH2 0x11C7 PUSH2 0xD5C JUMP JUMPDEST JUMPDEST PUSH0 PUSH2 0x11D5 DUP6 DUP3 DUP7 ADD PUSH2 0xD7F JUMP JUMPDEST SWAP3 POP POP PUSH1 0x20 PUSH2 0x11E6 DUP6 DUP3 DUP7 ADD PUSH2 0xDB5 JUMP JUMPDEST SWAP2 POP POP SWAP3 POP SWAP3 SWAP1 POP JUMP JUMPDEST PUSH0 DUP3 DUP3 MSTORE PUSH1 0x20 DUP3 ADD SWAP1 POP SWAP3 SWAP2 POP POP JUMP JUMPDEST PUSH32 0x45737461646F20696E76616C69646F3A2075736520312070617261204D6F6469 PUSH0 DUP3 ADD MSTORE PUSH32 0x6669636164610000000000000000000000000000000000000000000000000000 PUSH1 0x20 DUP3 ADD MSTORE POP JUMP JUMPDEST PUSH0 PUSH2 0x125A PUSH1 0x26 DUP4 PUSH2 0x11F0 JUMP JUMPDEST SWAP2 POP PUSH2 0x1265 DUP3 PUSH2 0x1200 JUMP JUMPDEST PUSH1 0x40 DUP3 ADD SWAP1 POP SWAP2 SWAP1 POP JUMP JUMPDEST PUSH0 PUSH1 0x20 DUP3 ADD SWAP1 POP DUP2 DUP2 SUB PUSH0 DUP4 ADD MSTORE PUSH2 0x1287 DUP2 PUSH2 0x124E JUMP JUMPDEST SWAP1 POP SWAP2 SWAP1 POP JUMP JUMPDEST PUSH0 PUSH1 0x60 DUP3 ADD SWAP1 POP PUSH2 0x12A1 PUSH0 DUP4 ADD DUP7 PUSH2 0xE7F JUMP JUMPDEST PUSH2 0x12AE PUSH1 0x20 DUP4 ADD DUP6 PUSH2 0x1135 JUMP JUMPDEST PUSH2 0x12BB PUSH1 0x40 DUP4 ADD DUP5 PUSH2 0x1144 JUMP JUMPDEST SWAP5 SWAP4 POP POP POP POP JUMP JUMPDEST PUSH32 0x4E6F2073652068612070616761646F206C612074617269666120646520726567 PUSH0 DUP3 ADD MSTORE PUSH32 0x697374726F000000000000000000000000000000000000000000000000000000 PUSH1 0x20 DUP3 ADD MSTORE POP JUMP JUMPDEST PUSH0 PUSH2 0x131D PUSH1 0x25 DUP4 PUSH2 0x11F0 JUMP JUMPDEST SWAP2 POP PUSH2 0x1328 DUP3 PUSH2 0x12C3 JUMP JUMPDEST PUSH1 0x40 DUP3 ADD SWAP1 POP SWAP2 SWAP1 POP JUMP JUMPDEST PUSH0 PUSH1 0x20 DUP3 ADD SWAP1 POP DUP2 DUP2 SUB PUSH0 DUP4 ADD MSTORE PUSH2 0x134A DUP2 PUSH2 0x1311 JUMP JUMPDEST SWAP1 POP SWAP2 SWAP1 POP JUMP JUMPDEST PUSH32 0x43617465676F72696120696E76616C6964613A20303D43756C747572616C2031 PUSH0 DUP3 ADD MSTORE PUSH32 0x3D45647563617469766120323D4465706F727469766120333D536F6369616C00 PUSH1 0x20 DUP3 ADD MSTORE POP JUMP JUMPDEST PUSH0 PUSH2 0x13AB PUSH1 0x3F DUP4 PUSH2 0x11F0 JUMP JUMPDEST SWAP2 POP PUSH2 0x13B6 DUP3 PUSH2 0x1351 JUMP JUMPDEST PUSH1 0x40 DUP3 ADD SWAP1 POP SWAP2 SWAP1 POP JUMP JUMPDEST PUSH0 PUSH1 0x20 DUP3 ADD SWAP1 POP DUP2 DUP2 SUB PUSH0 DUP4 ADD MSTORE PUSH2 0x13D8 DUP2 PUSH2 0x139F JUMP JUMPDEST SWAP1 POP SWAP2 SWAP1 POP JUMP JUMPDEST PUSH32 0x45737461646F20696E696369616C20696E76616C69646F3A2075736520302070 PUSH0 DUP3 ADD MSTORE PUSH32 0x61726120566967656E7465000000000000000000000000000000000000000000 PUSH1 0x20 DUP3 ADD MSTORE POP JUMP JUMPDEST PUSH0 PUSH2 0x1439 PUSH1 0x2B DUP4 PUSH2 0x11F0 JUMP JUMPDEST SWAP2 POP PUSH2 0x1444 DUP3 PUSH2 0x13DF JUMP JUMPDEST PUSH1 0x40 DUP3 ADD SWAP1 POP SWAP2 SWAP1 POP JUMP JUMPDEST PUSH0 PUSH1 0x20 DUP3 ADD SWAP1 POP DUP2 DUP2 SUB PUSH0 DUP4 ADD MSTORE PUSH2 0x1466 DUP2 PUSH2 0x142D JUMP JUMPDEST SWAP1 POP SWAP2 SWAP1 POP JUMP JUMPDEST PUSH0 PUSH1 0xC0 DUP3 ADD SWAP1 POP PUSH2 0x1480 PUSH0 DUP4 ADD DUP10 PUSH2 0xE7F JUMP JUMPDEST PUSH2 0x148D PUSH1 0x20 DUP4 ADD DUP9 PUSH2 0xE7F JUMP JUMPDEST PUSH2 0x149A PUSH1 0x40 DUP4 ADD DUP8 PUSH2 0x1135 JUMP JUMPDEST PUSH2 0x14A7 PUSH1 0x60 DUP4 ADD DUP7 PUSH2 0x1144 JUMP JUMPDEST PUSH2 0x14B4 PUSH1 0x80 DUP4 ADD DUP6 PUSH2 0x1135 JUMP JUMPDEST PUSH2 0x14C1 PUSH1 0xA0 DUP4 ADD DUP5 PUSH2 0x1144 JUMP JUMPDEST SWAP8 SWAP7 POP POP POP POP POP POP POP JUMP JUMPDEST PUSH32 0x4C6120616374756163696F6E206E6F2065786973746500000000000000000000 PUSH0 DUP3 ADD MSTORE POP JUMP JUMPDEST PUSH0 PUSH2 0x1500 PUSH1 0x16 DUP4 PUSH2 0x11F0 JUMP JUMPDEST SWAP2 POP PUSH2 0x150B DUP3 PUSH2 0x14CC JUMP JUMPDEST PUSH1 0x20 DUP3 ADD SWAP1 POP SWAP2 SWAP1 POP JUMP JUMPDEST PUSH0 PUSH1 0x20 DUP3 ADD SWAP1 POP DUP2 DUP2 SUB PUSH0 DUP4 ADD MSTORE PUSH2 0x152D DUP2 PUSH2 0x14F4 JUMP JUMPDEST SWAP1 POP SWAP2 SWAP1 POP JUMP JUMPDEST PUSH32 0x4E487B7100000000000000000000000000000000000000000000000000000000 PUSH0 MSTORE PUSH1 0x11 PUSH1 0x4 MSTORE PUSH1 0x24 PUSH0 REVERT JUMPDEST PUSH0 PUSH2 0x156B DUP3 PUSH2 0xD60 JUMP JUMPDEST SWAP2 POP PUSH2 0x1576 DUP4 PUSH2 0xD60 JUMP JUMPDEST SWAP3 POP DUP3 DUP3 SUB SWAP1 POP DUP2 DUP2 GT ISZERO PUSH2 0x158E JUMPI PUSH2 0x158D PUSH2 0x1534 JUMP JUMPDEST JUMPDEST SWAP3 SWAP2 POP POP JUMP JUMPDEST PUSH32 0x4E487B7100000000000000000000000000000000000000000000000000000000 PUSH0 MSTORE PUSH1 0x32 PUSH1 0x4 MSTORE PUSH1 0x24 PUSH0 REVERT JUMPDEST PUSH32 0x45737461646F20696E76616C69646F3A2075736520322070617261204465726F PUSH0 DUP3 ADD MSTORE PUSH32 0x6761646100000000000000000000000000000000000000000000000000000000 PUSH1 0x20 DUP3 ADD MSTORE POP JUMP JUMPDEST PUSH0 PUSH2 0x161B PUSH1 0x24 DUP4 PUSH2 0x11F0 JUMP JUMPDEST SWAP2 POP PUSH2 0x1626 DUP3 PUSH2 0x15C1 JUMP JUMPDEST PUSH1 0x40 DUP3 ADD SWAP1 POP SWAP2 SWAP1 POP JUMP JUMPDEST PUSH0 PUSH1 0x20 DUP3 ADD SWAP1 POP DUP2 DUP2 SUB PUSH0 DUP4 ADD MSTORE PUSH2 0x1648 DUP2 PUSH2 0x160F JUMP JUMPDEST SWAP1 POP SWAP2 SWAP1 POP JUMP JUMPDEST PUSH32 0x4E6F20657320656C2070726F706965746172696F000000000000000000000000 PUSH0 DUP3 ADD MSTORE POP JUMP JUMPDEST PUSH0 PUSH2 0x1683 PUSH1 0x14 DUP4 PUSH2 0x11F0 JUMP JUMPDEST SWAP2 POP PUSH2 0x168E DUP3 PUSH2 0x164F JUMP JUMPDEST PUSH1 0x20 DUP3 ADD SWAP1 POP SWAP2 SWAP1 POP JUMP JUMPDEST PUSH0 PUSH1 0x20 DUP3 ADD SWAP1 POP DUP2 DUP2 SUB PUSH0 DUP4 ADD MSTORE PUSH2 0x16B0 DUP2 PUSH2 0x1677 JUMP JUMPDEST SWAP1 POP SWAP2 SWAP1 POP JUMP JUMPDEST PUSH32 0x4C6120616374756163696F6E2079612065786973746500000000000000000000 PUSH0 DUP3 ADD MSTORE POP JUMP JUMPDEST PUSH0 PUSH2 0x16EB PUSH1 0x16 DUP4 PUSH2 0x11F0 JUMP JUMPDEST SWAP2 POP PUSH2 0x16F6 DUP3 PUSH2 0x16B7 JUMP JUMPDEST PUSH1 0x20 DUP3 ADD SWAP1 POP SWAP2 SWAP1 POP JUMP JUMPDEST PUSH0 PUSH1 0x20 DUP3 ADD SWAP1 POP DUP2 DUP2 SUB PUSH0 DUP4 ADD MSTORE PUSH2 0x1718 DUP2 PUSH2 0x16DF JUMP JUMPDEST SWAP1 POP SWAP2 SWAP1 POP JUMP JUMPDEST PUSH0 PUSH1 0xA0 DUP3 ADD SWAP1 POP PUSH2 0x1732 PUSH0 DUP4 ADD DUP9 PUSH2 0xE7F JUMP JUMPDEST PUSH2 0x173F PUSH1 0x20 DUP4 ADD DUP8 PUSH2 0xE7F JUMP JUMPDEST PUSH2 0x174C PUSH1 0x40 DUP4 ADD DUP7 PUSH2 0xE7F JUMP JUMPDEST PUSH2 0x1759 PUSH1 0x60 DUP4 ADD DUP6 PUSH2 0x1135 JUMP JUMPDEST PUSH2 0x1766 PUSH1 0x80 DUP4 ADD DUP5 PUSH2 0x1144 JUMP JUMPDEST SWAP7 SWAP6 POP POP POP POP POP POP JUMP JUMPDEST PUSH0 PUSH1 0x40 DUP3 ADD SWAP1 POP PUSH2 0x1783 PUSH0 DUP4 ADD DUP6 PUSH2 0xE7F JUMP JUMPDEST PUSH2 0x1790 PUSH1 0x20 DUP4 ADD DUP5 PUSH2 0x1135 JUMP JUMPDEST SWAP4 SWAP3 POP POP POP JUMP INVALID LOG2 PUSH5 0x6970667358 0x22 SLT KECCAK256 0xD3 0xBB 0xDD 0xB2 STOP DUP5 EXTSTATICCALL SIGNEXTEND DUP7 SWAPN 0x88 DUP16 DUP1 0xD SWAP4 0xD6 DUP13 MCOPY CALLCODE EXP SWAP10 ISZERO 0xDB 0xF7 RETURNDATACOPY 0xD 0xB0 LT SWAP14 MOD RETURN EXTDELEGATECALL PUSH5 0x736F6C6343 STOP ADDMOD 0x22 STOP CALLER "
				},
				"gasEstimates": {
					"creation": {
						"codeDepositCost": "1218600",
						"executionCost": "25530",
						"totalCost": "1244130"
					},
					"external": {
						"COSTO()": "370",
						"_consultarActuacion(uint256)": "infinite",
						"agregarDeclaracion(uint256,uint256,bytes32,uint256,uint8,bytes32,uint8)": "infinite",
						"consultarDeclaracion(uint256)": "infinite",
						"eliminarDeclaracion(uint256,uint8)": "infinite",
						"modificarDeclaracion(uint256,uint8,bytes32)": "infinite",
						"propietario()": "2508"
					}
				},
				"methodIdentifiers": {
					"COSTO()": "52b5241e",
					"_consultarActuacion(uint256)": "8e8a5876",
					"agregarDeclaracion(uint256,uint256,bytes32,uint256,uint8,bytes32,uint8)": "6dd7044e",
					"consultarDeclaracion(uint256)": "d301e11d",
					"eliminarDeclaracion(uint256,uint8)": "ffb6ecdc",
					"modificarDeclaracion(uint256,uint8,bytes32)": "4cdba193",
					"propietario()": "3c4f81cd"
				}
			},
			"storageLayout": {
				"storage": [
					{
						"astId": 23,
						"contract": "ConcejoDeliberante/contracts/Declaracion.sol:Declaracion",
						"label": "propietario",
						"offset": 0,
						"slot": "0",
						"type": "t_address"
					},
					{
						"astId": 31,
						"contract": "ConcejoDeliberante/contracts/Declaracion.sol:Declaracion",
						"label": "actuaciones",
						"offset": 0,
						"slot": "1",
						"type": "t_mapping(t_uint256,t_struct(Actuacion)21_storage)"
					},
					{
						"astId": 34,
						"contract": "ConcejoDeliberante/contracts/Declaracion.sol:Declaracion",
						"label": "ids",
						"offset": 0,
						"slot": "2",
						"type": "t_array(t_uint256)dyn_storage"
					},
					{
						"astId": 281,
						"contract": "ConcejoDeliberante/contracts/Declaracion.sol:Declaracion",
						"label": "datosExtra",
						"offset": 0,
						"slot": "3",
						"type": "t_mapping(t_uint256,t_struct(DatosDeclaracion)276_storage)"
					}
				],
				"types": {
					"t_address": {
						"encoding": "inplace",
						"label": "address",
						"numberOfBytes": "20"
					},
					"t_array(t_struct(Cambio)10_storage)dyn_storage": {
						"base": "t_struct(Cambio)10_storage",
						"encoding": "dynamic_array",
						"label": "struct ActuacionBase.Cambio[]",
						"numberOfBytes": "32"
					},
					"t_array(t_uint256)dyn_storage": {
						"base": "t_uint256",
						"encoding": "dynamic_array",
						"label": "uint256[]",
						"numberOfBytes": "32"
					},
					"t_bool": {
						"encoding": "inplace",
						"label": "bool",
						"numberOfBytes": "1"
					},
					"t_bytes32": {
						"encoding": "inplace",
						"label": "bytes32",
						"numberOfBytes": "32"
					},
					"t_mapping(t_uint256,t_struct(Actuacion)21_storage)": {
						"encoding": "mapping",
						"key": "t_uint256",
						"label": "mapping(uint256 => struct ActuacionBase.Actuacion)",
						"numberOfBytes": "32",
						"value": "t_struct(Actuacion)21_storage"
					},
					"t_mapping(t_uint256,t_struct(DatosDeclaracion)276_storage)": {
						"encoding": "mapping",
						"key": "t_uint256",
						"label": "mapping(uint256 => struct Declaracion.DatosDeclaracion)",
						"numberOfBytes": "32",
						"value": "t_struct(DatosDeclaracion)276_storage"
					},
					"t_struct(Actuacion)21_storage": {
						"encoding": "inplace",
						"label": "struct ActuacionBase.Actuacion",
						"members": [
							{
								"astId": 12,
								"contract": "ConcejoDeliberante/contracts/Declaracion.sol:Declaracion",
								"label": "fechaCreacion",
								"offset": 0,
								"slot": "0",
								"type": "t_uint256"
							},
							{
								"astId": 14,
								"contract": "ConcejoDeliberante/contracts/Declaracion.sol:Declaracion",
								"label": "dniAutor",
								"offset": 0,
								"slot": "1",
								"type": "t_uint256"
							},
							{
								"astId": 16,
								"contract": "ConcejoDeliberante/contracts/Declaracion.sol:Declaracion",
								"label": "existe",
								"offset": 0,
								"slot": "2",
								"type": "t_bool"
							},
							{
								"astId": 20,
								"contract": "ConcejoDeliberante/contracts/Declaracion.sol:Declaracion",
								"label": "historial",
								"offset": 0,
								"slot": "3",
								"type": "t_array(t_struct(Cambio)10_storage)dyn_storage"
							}
						],
						"numberOfBytes": "128"
					},
					"t_struct(Cambio)10_storage": {
						"encoding": "inplace",
						"label": "struct ActuacionBase.Cambio",
						"members": [
							{
								"astId": 3,
								"contract": "ConcejoDeliberante/contracts/Declaracion.sol:Declaracion",
								"label": "timestamp",
								"offset": 0,
								"slot": "0",
								"type": "t_uint256"
							},
							{
								"astId": 5,
								"contract": "ConcejoDeliberante/contracts/Declaracion.sol:Declaracion",
								"label": "estado",
								"offset": 0,
								"slot": "1",
								"type": "t_uint8"
							},
							{
								"astId": 7,
								"contract": "ConcejoDeliberante/contracts/Declaracion.sol:Declaracion",
								"label": "hash",
								"offset": 0,
								"slot": "2",
								"type": "t_bytes32"
							},
							{
								"astId": 9,
								"contract": "ConcejoDeliberante/contracts/Declaracion.sol:Declaracion",
								"label": "modificadoPor",
								"offset": 0,
								"slot": "3",
								"type": "t_address"
							}
						],
						"numberOfBytes": "128"
					},
					"t_struct(DatosDeclaracion)276_storage": {
						"encoding": "inplace",
						"label": "struct Declaracion.DatosDeclaracion",
						"members": [
							{
								"astId": 273,
								"contract": "ConcejoDeliberante/contracts/Declaracion.sol:Declaracion",
								"label": "categoria",
								"offset": 0,
								"slot": "0",
								"type": "t_uint8"
							},
							{
								"astId": 275,
								"contract": "ConcejoDeliberante/contracts/Declaracion.sol:Declaracion",
								"label": "institucionBen",
								"offset": 0,
								"slot": "1",
								"type": "t_bytes32"
							}
						],
						"numberOfBytes": "64"
					},
					"t_uint256": {
						"encoding": "inplace",
						"label": "uint256",
						"numberOfBytes": "32"
					},
					"t_uint8": {
						"encoding": "inplace",
						"label": "uint8",
						"numberOfBytes": "1"
					}
				}
			},
			"userdoc": {
				"kind": "user",
				"methods": {},
				"version": 1
			}
		}
	}
}