{
	"ConcejoDeliberante/contracts/Actuacion.sol": {
		"ActuacionBase": {
			"abi": [
				{
					"inputs": [],
					"stateMutability": "nonpayable",
					"type": "constructor"
				},
				{
					"anonymous": false,
					"inputs": [
						{
							"indexed": true,
							"internalType": "bytes32",
							"name": "id",
							"type": "bytes32"
						},
						{
							"indexed": false,
							"internalType": "uint256",
							"name": "fechaCreacion",
							"type": "uint256"
						},
						{
							"indexed": false,
							"internalType": "uint256",
							"name": "dniAutor",
							"type": "uint256"
						},
						{
							"indexed": false,
							"internalType": "bytes32",
							"name": "nombreAutor",
							"type": "bytes32"
						}
					],
					"name": "ActuacionAgregada",
					"type": "event"
				},
				{
					"anonymous": false,
					"inputs": [
						{
							"indexed": true,
							"internalType": "bytes32",
							"name": "id",
							"type": "bytes32"
						}
					],
					"name": "ActuacionEliminada",
					"type": "event"
				},
				{
					"anonymous": false,
					"inputs": [
						{
							"indexed": true,
							"internalType": "bytes32",
							"name": "id",
							"type": "bytes32"
						},
						{
							"indexed": false,
							"internalType": "string",
							"name": "descripcion",
							"type": "string"
						}
					],
					"name": "ActuacionModificada",
					"type": "event"
				},
				{
					"inputs": [],
					"name": "COSTO",
					"outputs": [
						{
							"internalType": "uint256",
							"name": "",
							"type": "uint256"
						}
					],
					"stateMutability": "view",
					"type": "function"
				},
				{
					"inputs": [
						{
							"internalType": "bytes32",
							"name": "_id",
							"type": "bytes32"
						},
						{
							"internalType": "uint256",
							"name": "_dniAutor",
							"type": "uint256"
						},
						{
							"internalType": "bytes32",
							"name": "_nombreAutor",
							"type": "bytes32"
						}
					],
					"name": "_inicializarActuacion",
					"outputs": [],
					"stateMutability": "payable",
					"type": "function"
				},
				{
					"inputs": [
						{
							"internalType": "bytes32",
							"name": "_id",
							"type": "bytes32"
						}
					],
					"name": "consultarActuacion",
					"outputs": [
						{
							"components": [
								{
									"internalType": "bytes32",
									"name": "id",
									"type": "bytes32"
								},
								{
									"internalType": "uint256",
									"name": "fechaCreacion",
									"type": "uint256"
								},
								{
									"internalType": "uint256",
									"name": "dniAutor",
									"type": "uint256"
								},
								{
									"internalType": "bytes32",
									"name": "nombreAutor",
									"type": "bytes32"
								},
								{
									"internalType": "enum ActuacionBase.Estado",
									"name": "estado",
									"type": "uint8"
								},
								{
									"internalType": "bool",
									"name": "existe",
									"type": "bool"
								},
								{
									"components": [
										{
											"internalType": "uint256",
											"name": "timestamp",
											"type": "uint256"
										},
										{
											"internalType": "enum ActuacionBase.Estado",
											"name": "estadoAnterior",
											"type": "uint8"
										},
										{
											"internalType": "enum ActuacionBase.Estado",
											"name": "estadoNuevo",
											"type": "uint8"
										},
										{
											"internalType": "address",
											"name": "modificadoPor",
											"type": "address"
										},
										{
											"internalType": "string",
											"name": "descripcion",
											"type": "string"
										}
									],
									"internalType": "struct ActuacionBase.Cambio[]",
									"name": "historial",
									"type": "tuple[]"
								}
							],
							"internalType": "struct ActuacionBase.Actuacion",
							"name": "",
							"type": "tuple"
						}
					],
					"stateMutability": "view",
					"type": "function"
				},
				{
					"inputs": [
						{
							"internalType": "bytes32",
							"name": "_id",
							"type": "bytes32"
						},
						{
							"internalType": "string",
							"name": "_dato",
							"type": "string"
						}
					],
					"name": "modificarEntrada",
					"outputs": [
						{
							"internalType": "bool",
							"name": "success",
							"type": "bool"
						}
					],
					"stateMutability": "nonpayable",
					"type": "function"
				},
				{
					"inputs": [],
					"name": "propietario",
					"outputs": [
						{
							"internalType": "address",
							"name": "",
							"type": "address"
						}
					],
					"stateMutability": "view",
					"type": "function"
				}
			],
			"devdoc": {
				"kind": "dev",
				"methods": {},
				"version": 1
			},
			"evm": {
				"assembly": "    /* \"ConcejoDeliberante/contracts/Actuacion.sol\":70:4989  contract ActuacionBase {... */\n  mstore(0x40, 0x80)\n    /* \"ConcejoDeliberante/contracts/Actuacion.sol\":1311:1366  constructor() {... */\n  callvalue\n  dup1\n  iszero\n  tag_1\n  jumpi\n  revert(0x00, 0x00)\ntag_1:\n  pop\n    /* \"ConcejoDeliberante/contracts/Actuacion.sol\":1349:1359  msg.sender */\n  caller\n    /* \"ConcejoDeliberante/contracts/Actuacion.sol\":1335:1346  propietario */\n  0x00\n  0x00\n    /* \"ConcejoDeliberante/contracts/Actuacion.sol\":1335:1359  propietario = msg.sender */\n  0x0100\n  exp\n  dup2\n  sload\n  dup2\n  0xffffffffffffffffffffffffffffffffffffffff\n  mul\n  not\n  and\n  swap1\n  dup4\n  0xffffffffffffffffffffffffffffffffffffffff\n  and\n  mul\n  or\n  swap1\n  sstore\n  pop\n    /* \"ConcejoDeliberante/contracts/Actuacion.sol\":70:4989  contract ActuacionBase {... */\n  dataSize(sub_0)\n  dup1\n  dataOffset(sub_0)\n  0x00\n  codecopy\n  0x00\n  return\nstop\n\nsub_0: assembly {\n        /* \"ConcejoDeliberante/contracts/Actuacion.sol\":70:4989  contract ActuacionBase {... */\n      mstore(0x40, 0x80)\n      jumpi(tag_1, lt(calldatasize, 0x04))\n      shr(0xe0, calldataload(0x00))\n      dup1\n      0x3c4f81cd\n      eq\n      tag_2\n      jumpi\n      dup1\n      0x4580e587\n      eq\n      tag_3\n      jumpi\n      dup1\n      0x52b5241e\n      eq\n      tag_4\n      jumpi\n      dup1\n      0x6547300b\n      eq\n      tag_5\n      jumpi\n      dup1\n      0x9f577316\n      eq\n      tag_6\n      jumpi\n    tag_1:\n      revert(0x00, 0x00)\n        /* \"ConcejoDeliberante/contracts/Actuacion.sol\":723:749  address public propietario */\n    tag_2:\n      callvalue\n      dup1\n      iszero\n      tag_7\n      jumpi\n      revert(0x00, 0x00)\n    tag_7:\n      pop\n      tag_8\n      tag_9\n      jump\t// in\n    tag_8:\n      mload(0x40)\n      tag_10\n      swap2\n      swap1\n      tag_11\n      jump\t// in\n    tag_10:\n      mload(0x40)\n      dup1\n      swap2\n      sub\n      swap1\n      return\n        /* \"ConcejoDeliberante/contracts/Actuacion.sol\":2944:3196  function consultarActuacion(bytes32 _id)... */\n    tag_3:\n      callvalue\n      dup1\n      iszero\n      tag_12\n      jumpi\n      revert(0x00, 0x00)\n    tag_12:\n      pop\n      tag_13\n      0x04\n      dup1\n      calldatasize\n      sub\n      dup2\n      add\n      swap1\n      tag_14\n      swap2\n      swap1\n      tag_15\n      jump\t// in\n    tag_14:\n      tag_16\n      jump\t// in\n    tag_13:\n      mload(0x40)\n      tag_17\n      swap2\n      swap1\n      tag_18\n      jump\t// in\n    tag_17:\n      mload(0x40)\n      dup1\n      swap2\n      sub\n      swap1\n      return\n        /* \"ConcejoDeliberante/contracts/Actuacion.sol\":796:831  uint256 public constant COSTO = 500 */\n    tag_4:\n      callvalue\n      dup1\n      iszero\n      tag_19\n      jumpi\n      revert(0x00, 0x00)\n    tag_19:\n      pop\n      tag_20\n      tag_21\n      jump\t// in\n    tag_20:\n      mload(0x40)\n      tag_22\n      swap2\n      swap1\n      tag_23\n      jump\t// in\n    tag_22:\n      mload(0x40)\n      dup1\n      swap2\n      sub\n      swap1\n      return\n        /* \"ConcejoDeliberante/contracts/Actuacion.sol\":3505:4189  function modificarEntrada(bytes32 _id, string memory _dato)... */\n    tag_5:\n      callvalue\n      dup1\n      iszero\n      tag_24\n      jumpi\n      revert(0x00, 0x00)\n    tag_24:\n      pop\n      tag_25\n      0x04\n      dup1\n      calldatasize\n      sub\n      dup2\n      add\n      swap1\n      tag_26\n      swap2\n      swap1\n      tag_27\n      jump\t// in\n    tag_26:\n      tag_28\n      jump\t// in\n    tag_25:\n      mload(0x40)\n      tag_29\n      swap2\n      swap1\n      tag_30\n      jump\t// in\n    tag_29:\n      mload(0x40)\n      dup1\n      swap2\n      sub\n      swap1\n      return\n        /* \"ConcejoDeliberante/contracts/Actuacion.sol\":1859:2876  function _inicializarActuacion(... */\n    tag_6:\n      tag_31\n      0x04\n      dup1\n      calldatasize\n      sub\n      dup2\n      add\n      swap1\n      tag_32\n      swap2\n      swap1\n      tag_33\n      jump\t// in\n    tag_32:\n      tag_34\n      jump\t// in\n    tag_31:\n      stop\n        /* \"ConcejoDeliberante/contracts/Actuacion.sol\":723:749  address public propietario */\n    tag_9:\n      0x00\n      0x00\n      swap1\n      sload\n      swap1\n      0x0100\n      exp\n      swap1\n      div\n      0xffffffffffffffffffffffffffffffffffffffff\n      and\n      dup2\n      jump\t// out\n        /* \"ConcejoDeliberante/contracts/Actuacion.sol\":2944:3196  function consultarActuacion(bytes32 _id)... */\n    tag_16:\n        /* \"ConcejoDeliberante/contracts/Actuacion.sol\":3030:3046  Actuacion memory */\n      tag_35\n      tag_36\n      jump\t// in\n    tag_35:\n        /* \"ConcejoDeliberante/contracts/Actuacion.sol\":3070:3081  actuaciones */\n      0x01\n        /* \"ConcejoDeliberante/contracts/Actuacion.sol\":3070:3086  actuaciones[_id] */\n      0x00\n        /* \"ConcejoDeliberante/contracts/Actuacion.sol\":3082:3085  _id */\n      dup4\n        /* \"ConcejoDeliberante/contracts/Actuacion.sol\":3070:3086  actuaciones[_id] */\n      dup2\n      mstore\n      0x20\n      add\n      swap1\n      dup2\n      mstore\n      0x20\n      add\n      0x00\n      keccak256\n        /* \"ConcejoDeliberante/contracts/Actuacion.sol\":3070:3093  actuaciones[_id].existe */\n      0x04\n      add\n      0x01\n      swap1\n      sload\n      swap1\n      0x0100\n      exp\n      swap1\n      div\n      0xff\n      and\n        /* \"ConcejoDeliberante/contracts/Actuacion.sol\":3062:3120  require(actuaciones[_id].existe, \"La actuacion no existe\") */\n      tag_38\n      jumpi\n      mload(0x40)\n      0x08c379a000000000000000000000000000000000000000000000000000000000\n      dup2\n      mstore\n      0x04\n      add\n      tag_39\n      swap1\n      tag_40\n      jump\t// in\n    tag_39:\n      mload(0x40)\n      dup1\n      swap2\n      sub\n      swap1\n      revert\n    tag_38:\n        /* \"ConcejoDeliberante/contracts/Actuacion.sol\":3137:3148  actuaciones */\n      0x01\n        /* \"ConcejoDeliberante/contracts/Actuacion.sol\":3137:3153  actuaciones[_id] */\n      0x00\n        /* \"ConcejoDeliberante/contracts/Actuacion.sol\":3149:3152  _id */\n      dup4\n        /* \"ConcejoDeliberante/contracts/Actuacion.sol\":3137:3153  actuaciones[_id] */\n      dup2\n      mstore\n      0x20\n      add\n      swap1\n      dup2\n      mstore\n      0x20\n      add\n      0x00\n      keccak256\n        /* \"ConcejoDeliberante/contracts/Actuacion.sol\":3130:3153  return actuaciones[_id] */\n      mload(0x40)\n      dup1\n      0xe0\n      add\n      0x40\n      mstore\n      swap1\n      dup2\n      0x00\n      dup3\n      add\n      sload\n      dup2\n      mstore\n      0x20\n      add\n      0x01\n      dup3\n      add\n      sload\n      dup2\n      mstore\n      0x20\n      add\n      0x02\n      dup3\n      add\n      sload\n      dup2\n      mstore\n      0x20\n      add\n      0x03\n      dup3\n      add\n      sload\n      dup2\n      mstore\n      0x20\n      add\n      0x04\n      dup3\n      add\n      0x00\n      swap1\n      sload\n      swap1\n      0x0100\n      exp\n      swap1\n      div\n      0xff\n      and\n      0x02\n      dup2\n      gt\n      iszero\n      tag_41\n      jumpi\n      tag_42\n      tag_43\n      jump\t// in\n    tag_42:\n    tag_41:\n      0x02\n      dup2\n      gt\n      iszero\n      tag_44\n      jumpi\n      tag_45\n      tag_43\n      jump\t// in\n    tag_45:\n    tag_44:\n      dup2\n      mstore\n      0x20\n      add\n      0x04\n      dup3\n      add\n      0x01\n      swap1\n      sload\n      swap1\n      0x0100\n      exp\n      swap1\n      div\n      0xff\n      and\n      iszero\n      iszero\n      iszero\n      iszero\n      dup2\n      mstore\n      0x20\n      add\n      0x05\n      dup3\n      add\n      dup1\n      sload\n      dup1\n      0x20\n      mul\n      0x20\n      add\n      mload(0x40)\n      swap1\n      dup2\n      add\n      0x40\n      mstore\n      dup1\n      swap3\n      swap2\n      swap1\n      dup2\n      dup2\n      mstore\n      0x20\n      add\n      0x00\n      swap1\n    tag_46:\n      dup3\n      dup3\n      lt\n      iszero\n      tag_47\n      jumpi\n      dup4\n      dup3\n      swap1\n      0x00\n      mstore\n      keccak256(0x00, 0x20)\n      swap1\n      0x03\n      mul\n      add\n      mload(0x40)\n      dup1\n      0xa0\n      add\n      0x40\n      mstore\n      swap1\n      dup2\n      0x00\n      dup3\n      add\n      sload\n      dup2\n      mstore\n      0x20\n      add\n      0x01\n      dup3\n      add\n      0x00\n      swap1\n      sload\n      swap1\n      0x0100\n      exp\n      swap1\n      div\n      0xff\n      and\n      0x02\n      dup2\n      gt\n      iszero\n      tag_49\n      jumpi\n      tag_50\n      tag_43\n      jump\t// in\n    tag_50:\n    tag_49:\n      0x02\n      dup2\n      gt\n      iszero\n      tag_51\n      jumpi\n      tag_52\n      tag_43\n      jump\t// in\n    tag_52:\n    tag_51:\n      dup2\n      mstore\n      0x20\n      add\n      0x01\n      dup3\n      add\n      0x01\n      swap1\n      sload\n      swap1\n      0x0100\n      exp\n      swap1\n      div\n      0xff\n      and\n      0x02\n      dup2\n      gt\n      iszero\n      tag_53\n      jumpi\n      tag_54\n      tag_43\n      jump\t// in\n    tag_54:\n    tag_53:\n      0x02\n      dup2\n      gt\n      iszero\n      tag_55\n      jumpi\n      tag_56\n      tag_43\n      jump\t// in\n    tag_56:\n    tag_55:\n      dup2\n      mstore\n      0x20\n      add\n      0x01\n      dup3\n      add\n      0x02\n      swap1\n      sload\n      swap1\n      0x0100\n      exp\n      swap1\n      div\n      0xffffffffffffffffffffffffffffffffffffffff\n      and\n      0xffffffffffffffffffffffffffffffffffffffff\n      and\n      0xffffffffffffffffffffffffffffffffffffffff\n      and\n      dup2\n      mstore\n      0x20\n      add\n      0x02\n      dup3\n      add\n      dup1\n      sload\n      tag_57\n      swap1\n      tag_58\n      jump\t// in\n    tag_57:\n      dup1\n      0x1f\n      add\n      0x20\n      dup1\n      swap2\n      div\n      mul\n      0x20\n      add\n      mload(0x40)\n      swap1\n      dup2\n      add\n      0x40\n      mstore\n      dup1\n      swap3\n      swap2\n      swap1\n      dup2\n      dup2\n      mstore\n      0x20\n      add\n      dup3\n      dup1\n      sload\n      tag_59\n      swap1\n      tag_58\n      jump\t// in\n    tag_59:\n      dup1\n      iszero\n      tag_60\n      jumpi\n      dup1\n      0x1f\n      lt\n      tag_61\n      jumpi\n      0x0100\n      dup1\n      dup4\n      sload\n      div\n      mul\n      dup4\n      mstore\n      swap2\n      0x20\n      add\n      swap2\n      jump(tag_60)\n    tag_61:\n      dup3\n      add\n      swap2\n      swap1\n      0x00\n      mstore\n      keccak256(0x00, 0x20)\n      swap1\n    tag_62:\n      dup2\n      sload\n      dup2\n      mstore\n      swap1\n      0x01\n      add\n      swap1\n      0x20\n      add\n      dup1\n      dup4\n      gt\n      tag_62\n      jumpi\n      dup3\n      swap1\n      sub\n      0x1f\n      and\n      dup3\n      add\n      swap2\n    tag_60:\n      pop\n      pop\n      pop\n      pop\n      pop\n      dup2\n      mstore\n      pop\n      pop\n      dup2\n      mstore\n      0x20\n      add\n      swap1\n      0x01\n      add\n      swap1\n      jump(tag_46)\n    tag_47:\n      pop\n      pop\n      pop\n      pop\n      dup2\n      mstore\n      pop\n      pop\n      swap1\n      pop\n        /* \"ConcejoDeliberante/contracts/Actuacion.sol\":2944:3196  function consultarActuacion(bytes32 _id)... */\n      swap2\n      swap1\n      pop\n      jump\t// out\n        /* \"ConcejoDeliberante/contracts/Actuacion.sol\":796:831  uint256 public constant COSTO = 500 */\n    tag_21:\n        /* \"ConcejoDeliberante/contracts/Actuacion.sol\":828:831  500 */\n      0x01f4\n        /* \"ConcejoDeliberante/contracts/Actuacion.sol\":796:831  uint256 public constant COSTO = 500 */\n      dup2\n      jump\t// out\n        /* \"ConcejoDeliberante/contracts/Actuacion.sol\":3505:4189  function modificarEntrada(bytes32 _id, string memory _dato)... */\n    tag_28:\n        /* \"ConcejoDeliberante/contracts/Actuacion.sol\":3597:3609  bool success */\n      0x00\n        /* \"ConcejoDeliberante/contracts/Actuacion.sol\":3633:3644  actuaciones */\n      0x01\n        /* \"ConcejoDeliberante/contracts/Actuacion.sol\":3633:3649  actuaciones[_id] */\n      0x00\n        /* \"ConcejoDeliberante/contracts/Actuacion.sol\":3645:3648  _id */\n      dup5\n        /* \"ConcejoDeliberante/contracts/Actuacion.sol\":3633:3649  actuaciones[_id] */\n      dup2\n      mstore\n      0x20\n      add\n      swap1\n      dup2\n      mstore\n      0x20\n      add\n      0x00\n      keccak256\n        /* \"ConcejoDeliberante/contracts/Actuacion.sol\":3633:3656  actuaciones[_id].existe */\n      0x04\n      add\n      0x01\n      swap1\n      sload\n      swap1\n      0x0100\n      exp\n      swap1\n      div\n      0xff\n      and\n        /* \"ConcejoDeliberante/contracts/Actuacion.sol\":3625:3683  require(actuaciones[_id].existe, \"La actuacion no existe\") */\n      tag_64\n      jumpi\n      mload(0x40)\n      0x08c379a000000000000000000000000000000000000000000000000000000000\n      dup2\n      mstore\n      0x04\n      add\n      tag_65\n      swap1\n      tag_40\n      jump\t// in\n    tag_65:\n      mload(0x40)\n      dup1\n      swap2\n      sub\n      swap1\n      revert\n    tag_64:\n        /* \"ConcejoDeliberante/contracts/Actuacion.sol\":3715:3726  propietario */\n      0x00\n      0x00\n      swap1\n      sload\n      swap1\n      0x0100\n      exp\n      swap1\n      div\n      0xffffffffffffffffffffffffffffffffffffffff\n      and\n        /* \"ConcejoDeliberante/contracts/Actuacion.sol\":3701:3726  msg.sender == propietario */\n      0xffffffffffffffffffffffffffffffffffffffff\n      and\n        /* \"ConcejoDeliberante/contracts/Actuacion.sol\":3701:3711  msg.sender */\n      caller\n        /* \"ConcejoDeliberante/contracts/Actuacion.sol\":3701:3726  msg.sender == propietario */\n      0xffffffffffffffffffffffffffffffffffffffff\n      and\n      eq\n        /* \"ConcejoDeliberante/contracts/Actuacion.sol\":3693:3751  require(msg.sender == propietario, \"No es el propietario\") */\n      tag_66\n      jumpi\n      mload(0x40)\n      0x08c379a000000000000000000000000000000000000000000000000000000000\n      dup2\n      mstore\n      0x04\n      add\n      tag_67\n      swap1\n      tag_68\n      jump\t// in\n    tag_67:\n      mload(0x40)\n      dup1\n      swap2\n      sub\n      swap1\n      revert\n    tag_66:\n        /* \"ConcejoDeliberante/contracts/Actuacion.sol\":3762:3781  Actuacion storage a */\n      0x00\n        /* \"ConcejoDeliberante/contracts/Actuacion.sol\":3784:3795  actuaciones */\n      0x01\n        /* \"ConcejoDeliberante/contracts/Actuacion.sol\":3784:3800  actuaciones[_id] */\n      0x00\n        /* \"ConcejoDeliberante/contracts/Actuacion.sol\":3796:3799  _id */\n      dup6\n        /* \"ConcejoDeliberante/contracts/Actuacion.sol\":3784:3800  actuaciones[_id] */\n      dup2\n      mstore\n      0x20\n      add\n      swap1\n      dup2\n      mstore\n      0x20\n      add\n      0x00\n      keccak256\n        /* \"ConcejoDeliberante/contracts/Actuacion.sol\":3762:3800  Actuacion storage a = actuaciones[_id] */\n      swap1\n      pop\n        /* \"ConcejoDeliberante/contracts/Actuacion.sol\":3810:3825  Estado anterior */\n      0x00\n        /* \"ConcejoDeliberante/contracts/Actuacion.sol\":3828:3829  a */\n      dup2\n        /* \"ConcejoDeliberante/contracts/Actuacion.sol\":3828:3836  a.estado */\n      0x04\n      add\n      0x00\n      swap1\n      sload\n      swap1\n      0x0100\n      exp\n      swap1\n      div\n      0xff\n      and\n        /* \"ConcejoDeliberante/contracts/Actuacion.sol\":3810:3836  Estado anterior = a.estado */\n      swap1\n      pop\n        /* \"ConcejoDeliberante/contracts/Actuacion.sol\":3857:3874  Estado.Modificada */\n      0x01\n        /* \"ConcejoDeliberante/contracts/Actuacion.sol\":3846:3847  a */\n      dup3\n        /* \"ConcejoDeliberante/contracts/Actuacion.sol\":3846:3854  a.estado */\n      0x04\n      add\n      0x00\n        /* \"ConcejoDeliberante/contracts/Actuacion.sol\":3846:3874  a.estado = Estado.Modificada */\n      0x0100\n      exp\n      dup2\n      sload\n      dup2\n      0xff\n      mul\n      not\n      and\n      swap1\n      dup4\n      0x02\n      dup2\n      gt\n      iszero\n      tag_69\n      jumpi\n      tag_70\n      tag_43\n      jump\t// in\n    tag_70:\n    tag_69:\n      mul\n      or\n      swap1\n      sstore\n      pop\n        /* \"ConcejoDeliberante/contracts/Actuacion.sol\":3885:3886  a */\n      dup2\n        /* \"ConcejoDeliberante/contracts/Actuacion.sol\":3885:3896  a.historial */\n      0x05\n      add\n        /* \"ConcejoDeliberante/contracts/Actuacion.sol\":3902:4113  Cambio({... */\n      mload(0x40)\n      dup1\n      0xa0\n      add\n      0x40\n      mstore\n      dup1\n        /* \"ConcejoDeliberante/contracts/Actuacion.sol\":3934:3949  block.timestamp */\n      timestamp\n        /* \"ConcejoDeliberante/contracts/Actuacion.sol\":3902:4113  Cambio({... */\n      dup2\n      mstore\n      0x20\n      add\n        /* \"ConcejoDeliberante/contracts/Actuacion.sol\":3979:3987  anterior */\n      dup4\n        /* \"ConcejoDeliberante/contracts/Actuacion.sol\":3902:4113  Cambio({... */\n      0x02\n      dup2\n      gt\n      iszero\n      tag_71\n      jumpi\n      tag_72\n      tag_43\n      jump\t// in\n    tag_72:\n    tag_71:\n      dup2\n      mstore\n      0x20\n      add\n        /* \"ConcejoDeliberante/contracts/Actuacion.sol\":4014:4031  Estado.Modificada */\n      0x01\n        /* \"ConcejoDeliberante/contracts/Actuacion.sol\":3902:4113  Cambio({... */\n      0x02\n      dup2\n      gt\n      iszero\n      tag_73\n      jumpi\n      tag_74\n      tag_43\n      jump\t// in\n    tag_74:\n    tag_73:\n      dup2\n      mstore\n      0x20\n      add\n        /* \"ConcejoDeliberante/contracts/Actuacion.sol\":4060:4070  msg.sender */\n      caller\n        /* \"ConcejoDeliberante/contracts/Actuacion.sol\":3902:4113  Cambio({... */\n      0xffffffffffffffffffffffffffffffffffffffff\n      and\n      dup2\n      mstore\n      0x20\n      add\n        /* \"ConcejoDeliberante/contracts/Actuacion.sol\":4097:4102  _dato */\n      dup7\n        /* \"ConcejoDeliberante/contracts/Actuacion.sol\":3902:4113  Cambio({... */\n      dup2\n      mstore\n      pop\n        /* \"ConcejoDeliberante/contracts/Actuacion.sol\":3885:4114  a.historial.push(Cambio({... */\n      swap1\n      dup1\n      0x01\n      dup2\n      sload\n      add\n      dup1\n      dup3\n      sstore\n      dup1\n      swap2\n      pop\n      pop\n      0x01\n      swap1\n      sub\n      swap1\n      0x00\n      mstore\n      keccak256(0x00, 0x20)\n      swap1\n      0x03\n      mul\n      add\n      0x00\n      swap1\n      swap2\n      swap1\n      swap2\n      swap1\n      swap2\n      pop\n      0x00\n      dup3\n      add\n      mload\n      dup2\n      0x00\n      add\n      sstore\n      0x20\n      dup3\n      add\n      mload\n      dup2\n      0x01\n      add\n      exp(0x0100, 0x00)\n      dup2\n      sload\n      dup2\n      0xff\n      mul\n      not\n      and\n      swap1\n      dup4\n      0x02\n      dup2\n      gt\n      iszero\n      tag_76\n      jumpi\n      tag_77\n      tag_43\n      jump\t// in\n    tag_77:\n    tag_76:\n      mul\n      or\n      swap1\n      sstore\n      pop\n      0x40\n      dup3\n      add\n      mload\n      dup2\n      0x01\n      add\n      exp(0x0100, 0x01)\n      dup2\n      sload\n      dup2\n      0xff\n      mul\n      not\n      and\n      swap1\n      dup4\n      0x02\n      dup2\n      gt\n      iszero\n      tag_78\n      jumpi\n      tag_79\n      tag_43\n      jump\t// in\n    tag_79:\n    tag_78:\n      mul\n      or\n      swap1\n      sstore\n      pop\n      0x60\n      dup3\n      add\n      mload\n      dup2\n      0x01\n      add\n      exp(0x0100, 0x02)\n      dup2\n      sload\n      dup2\n      0xffffffffffffffffffffffffffffffffffffffff\n      mul\n      not\n      and\n      swap1\n      dup4\n      0xffffffffffffffffffffffffffffffffffffffff\n      and\n      mul\n      or\n      swap1\n      sstore\n      pop\n      0x80\n      dup3\n      add\n      mload\n      dup2\n      0x02\n      add\n      swap1\n      dup2\n      tag_80\n      swap2\n      swap1\n      tag_81\n      jump\t// in\n    tag_80:\n      pop\n      pop\n      pop\n        /* \"ConcejoDeliberante/contracts/Actuacion.sol\":4150:4153  _id */\n      dup5\n        /* \"ConcejoDeliberante/contracts/Actuacion.sol\":4130:4161  ActuacionModificada(_id, _dato) */\n      0x90a6c459e2aa557ee0fbe12339856cc69594869763fdcac70015ef2068ef2265\n        /* \"ConcejoDeliberante/contracts/Actuacion.sol\":4155:4160  _dato */\n      dup6\n        /* \"ConcejoDeliberante/contracts/Actuacion.sol\":4130:4161  ActuacionModificada(_id, _dato) */\n      mload(0x40)\n      tag_82\n      swap2\n      swap1\n      tag_83\n      jump\t// in\n    tag_82:\n      mload(0x40)\n      dup1\n      swap2\n      sub\n      swap1\n      log2\n        /* \"ConcejoDeliberante/contracts/Actuacion.sol\":4178:4182  true */\n      0x01\n        /* \"ConcejoDeliberante/contracts/Actuacion.sol\":4171:4182  return true */\n      swap3\n      pop\n      pop\n      pop\n        /* \"ConcejoDeliberante/contracts/Actuacion.sol\":3505:4189  function modificarEntrada(bytes32 _id, string memory _dato)... */\n      swap3\n      swap2\n      pop\n      pop\n      jump\t// out\n        /* \"ConcejoDeliberante/contracts/Actuacion.sol\":1859:2876  function _inicializarActuacion(... */\n    tag_34:\n        /* \"ConcejoDeliberante/contracts/Actuacion.sol\":2012:2023  actuaciones */\n      0x01\n        /* \"ConcejoDeliberante/contracts/Actuacion.sol\":2012:2028  actuaciones[_id] */\n      0x00\n        /* \"ConcejoDeliberante/contracts/Actuacion.sol\":2024:2027  _id */\n      dup5\n        /* \"ConcejoDeliberante/contracts/Actuacion.sol\":2012:2028  actuaciones[_id] */\n      dup2\n      mstore\n      0x20\n      add\n      swap1\n      dup2\n      mstore\n      0x20\n      add\n      0x00\n      keccak256\n        /* \"ConcejoDeliberante/contracts/Actuacion.sol\":2012:2035  actuaciones[_id].existe */\n      0x04\n      add\n      0x01\n      swap1\n      sload\n      swap1\n      0x0100\n      exp\n      swap1\n      div\n      0xff\n      and\n        /* \"ConcejoDeliberante/contracts/Actuacion.sol\":2011:2035  !actuaciones[_id].existe */\n      iszero\n        /* \"ConcejoDeliberante/contracts/Actuacion.sol\":2003:2062  require(!actuaciones[_id].existe, \"La actuacion ya existe\") */\n      tag_85\n      jumpi\n      mload(0x40)\n      0x08c379a000000000000000000000000000000000000000000000000000000000\n      dup2\n      mstore\n      0x04\n      add\n      tag_86\n      swap1\n      tag_87\n      jump\t// in\n    tag_86:\n      mload(0x40)\n      dup1\n      swap2\n      sub\n      swap1\n      revert\n    tag_85:\n        /* \"ConcejoDeliberante/contracts/Actuacion.sol\":2093:2096  500 */\n      0x01f4\n        /* \"ConcejoDeliberante/contracts/Actuacion.sol\":2080:2089  msg.value */\n      callvalue\n        /* \"ConcejoDeliberante/contracts/Actuacion.sol\":2080:2096  msg.value >= 500 */\n      lt\n      iszero\n        /* \"ConcejoDeliberante/contracts/Actuacion.sol\":2072:2138  require(msg.value >= 500, \"No se ha pagado la tarifa de registro\") */\n      tag_88\n      jumpi\n      mload(0x40)\n      0x08c379a000000000000000000000000000000000000000000000000000000000\n      dup2\n      mstore\n      0x04\n      add\n      tag_89\n      swap1\n      tag_90\n      jump\t// in\n    tag_89:\n      mload(0x40)\n      dup1\n      swap2\n      sub\n      swap1\n      revert\n    tag_88:\n        /* \"ConcejoDeliberante/contracts/Actuacion.sol\":2157:2176  Actuacion storage a */\n      0x00\n        /* \"ConcejoDeliberante/contracts/Actuacion.sol\":2179:2190  actuaciones */\n      0x01\n        /* \"ConcejoDeliberante/contracts/Actuacion.sol\":2179:2195  actuaciones[_id] */\n      0x00\n        /* \"ConcejoDeliberante/contracts/Actuacion.sol\":2191:2194  _id */\n      dup6\n        /* \"ConcejoDeliberante/contracts/Actuacion.sol\":2179:2195  actuaciones[_id] */\n      dup2\n      mstore\n      0x20\n      add\n      swap1\n      dup2\n      mstore\n      0x20\n      add\n      0x00\n      keccak256\n        /* \"ConcejoDeliberante/contracts/Actuacion.sol\":2157:2195  Actuacion storage a = actuaciones[_id] */\n      swap1\n      pop\n        /* \"ConcejoDeliberante/contracts/Actuacion.sol\":2216:2220  true */\n      0x01\n        /* \"ConcejoDeliberante/contracts/Actuacion.sol\":2205:2206  a */\n      dup2\n        /* \"ConcejoDeliberante/contracts/Actuacion.sol\":2205:2213  a.existe */\n      0x04\n      add\n      0x01\n        /* \"ConcejoDeliberante/contracts/Actuacion.sol\":2205:2220  a.existe = true */\n      0x0100\n      exp\n      dup2\n      sload\n      dup2\n      0xff\n      mul\n      not\n      and\n      swap1\n      dup4\n      iszero\n      iszero\n      mul\n      or\n      swap1\n      sstore\n      pop\n        /* \"ConcejoDeliberante/contracts/Actuacion.sol\":2243:2252  _dniAutor */\n      dup3\n        /* \"ConcejoDeliberante/contracts/Actuacion.sol\":2230:2231  a */\n      dup2\n        /* \"ConcejoDeliberante/contracts/Actuacion.sol\":2230:2240  a.dniAutor */\n      0x02\n      add\n        /* \"ConcejoDeliberante/contracts/Actuacion.sol\":2230:2252  a.dniAutor = _dniAutor */\n      dup2\n      swap1\n      sstore\n      pop\n        /* \"ConcejoDeliberante/contracts/Actuacion.sol\":2278:2290  _nombreAutor */\n      dup2\n        /* \"ConcejoDeliberante/contracts/Actuacion.sol\":2262:2263  a */\n      dup2\n        /* \"ConcejoDeliberante/contracts/Actuacion.sol\":2262:2275  a.nombreAutor */\n      0x03\n      add\n        /* \"ConcejoDeliberante/contracts/Actuacion.sol\":2262:2290  a.nombreAutor = _nombreAutor */\n      dup2\n      swap1\n      sstore\n      pop\n        /* \"ConcejoDeliberante/contracts/Actuacion.sol\":2318:2333  block.timestamp */\n      timestamp\n        /* \"ConcejoDeliberante/contracts/Actuacion.sol\":2300:2301  a */\n      dup2\n        /* \"ConcejoDeliberante/contracts/Actuacion.sol\":2300:2315  a.fechaCreacion */\n      0x01\n      add\n        /* \"ConcejoDeliberante/contracts/Actuacion.sol\":2300:2333  a.fechaCreacion = block.timestamp */\n      dup2\n      swap1\n      sstore\n      pop\n        /* \"ConcejoDeliberante/contracts/Actuacion.sol\":2354:2367  Estado.Activa */\n      0x00\n        /* \"ConcejoDeliberante/contracts/Actuacion.sol\":2343:2344  a */\n      dup2\n        /* \"ConcejoDeliberante/contracts/Actuacion.sol\":2343:2351  a.estado */\n      0x04\n      add\n      0x00\n        /* \"ConcejoDeliberante/contracts/Actuacion.sol\":2343:2367  a.estado = Estado.Activa */\n      0x0100\n      exp\n      dup2\n      sload\n      dup2\n      0xff\n      mul\n      not\n      and\n      swap1\n      dup4\n      0x02\n      dup2\n      gt\n      iszero\n      tag_91\n      jumpi\n      tag_92\n      tag_43\n      jump\t// in\n    tag_92:\n    tag_91:\n      mul\n      or\n      swap1\n      sstore\n      pop\n        /* \"ConcejoDeliberante/contracts/Actuacion.sol\":2391:2401  msg.sender */\n      caller\n        /* \"ConcejoDeliberante/contracts/Actuacion.sol\":2377:2388  propietario */\n      0x00\n      0x00\n        /* \"ConcejoDeliberante/contracts/Actuacion.sol\":2377:2401  propietario = msg.sender */\n      0x0100\n      exp\n      dup2\n      sload\n      dup2\n      0xffffffffffffffffffffffffffffffffffffffff\n      mul\n      not\n      and\n      swap1\n      dup4\n      0xffffffffffffffffffffffffffffffffffffffff\n      and\n      mul\n      or\n      swap1\n      sstore\n      pop\n        /* \"ConcejoDeliberante/contracts/Actuacion.sol\":2411:2412  a */\n      dup1\n        /* \"ConcejoDeliberante/contracts/Actuacion.sol\":2411:2422  a.historial */\n      0x05\n      add\n        /* \"ConcejoDeliberante/contracts/Actuacion.sol\":2428:2763  Cambio({   timestamp: block.timestamp,... */\n      mload(0x40)\n      dup1\n      0xa0\n      add\n      0x40\n      mstore\n      dup1\n        /* \"ConcejoDeliberante/contracts/Actuacion.sol\":2450:2465  block.timestamp */\n      timestamp\n        /* \"ConcejoDeliberante/contracts/Actuacion.sol\":2428:2763  Cambio({   timestamp: block.timestamp,... */\n      dup2\n      mstore\n      0x20\n      add\n        /* \"ConcejoDeliberante/contracts/Actuacion.sol\":2519:2532  Estado.Activa */\n      0x00\n        /* \"ConcejoDeliberante/contracts/Actuacion.sol\":2428:2763  Cambio({   timestamp: block.timestamp,... */\n      0x02\n      dup2\n      gt\n      iszero\n      tag_93\n      jumpi\n      tag_94\n      tag_43\n      jump\t// in\n    tag_94:\n    tag_93:\n      dup2\n      mstore\n      0x20\n      add\n        /* \"ConcejoDeliberante/contracts/Actuacion.sol\":2583:2596  Estado.Activa */\n      0x00\n        /* \"ConcejoDeliberante/contracts/Actuacion.sol\":2428:2763  Cambio({   timestamp: block.timestamp,... */\n      0x02\n      dup2\n      gt\n      iszero\n      tag_95\n      jumpi\n      tag_96\n      tag_43\n      jump\t// in\n    tag_96:\n    tag_95:\n      dup2\n      mstore\n      0x20\n      add\n        /* \"ConcejoDeliberante/contracts/Actuacion.sol\":2649:2659  msg.sender */\n      caller\n        /* \"ConcejoDeliberante/contracts/Actuacion.sol\":2428:2763  Cambio({   timestamp: block.timestamp,... */\n      0xffffffffffffffffffffffffffffffffffffffff\n      and\n      dup2\n      mstore\n      0x20\n      add\n      mload(0x40)\n      dup1\n      0x40\n      add\n      0x40\n      mstore\n      dup1\n      0x10\n      dup2\n      mstore\n      0x20\n      add\n      0x4372656163696f6e20696e696369616c00000000000000000000000000000000\n      dup2\n      mstore\n      pop\n      dup2\n      mstore\n      pop\n        /* \"ConcejoDeliberante/contracts/Actuacion.sol\":2411:2764  a.historial.push(Cambio({   timestamp: block.timestamp,... */\n      swap1\n      dup1\n      0x01\n      dup2\n      sload\n      add\n      dup1\n      dup3\n      sstore\n      dup1\n      swap2\n      pop\n      pop\n      0x01\n      swap1\n      sub\n      swap1\n      0x00\n      mstore\n      keccak256(0x00, 0x20)\n      swap1\n      0x03\n      mul\n      add\n      0x00\n      swap1\n      swap2\n      swap1\n      swap2\n      swap1\n      swap2\n      pop\n      0x00\n      dup3\n      add\n      mload\n      dup2\n      0x00\n      add\n      sstore\n      0x20\n      dup3\n      add\n      mload\n      dup2\n      0x01\n      add\n      exp(0x0100, 0x00)\n      dup2\n      sload\n      dup2\n      0xff\n      mul\n      not\n      and\n      swap1\n      dup4\n      0x02\n      dup2\n      gt\n      iszero\n      tag_98\n      jumpi\n      tag_99\n      tag_43\n      jump\t// in\n    tag_99:\n    tag_98:\n      mul\n      or\n      swap1\n      sstore\n      pop\n      0x40\n      dup3\n      add\n      mload\n      dup2\n      0x01\n      add\n      exp(0x0100, 0x01)\n      dup2\n      sload\n      dup2\n      0xff\n      mul\n      not\n      and\n      swap1\n      dup4\n      0x02\n      dup2\n      gt\n      iszero\n      tag_100\n      jumpi\n      tag_101\n      tag_43\n      jump\t// in\n    tag_101:\n    tag_100:\n      mul\n      or\n      swap1\n      sstore\n      pop\n      0x60\n      dup3\n      add\n      mload\n      dup2\n      0x01\n      add\n      exp(0x0100, 0x02)\n      dup2\n      sload\n      dup2\n      0xffffffffffffffffffffffffffffffffffffffff\n      mul\n      not\n      and\n      swap1\n      dup4\n      0xffffffffffffffffffffffffffffffffffffffff\n      and\n      mul\n      or\n      swap1\n      sstore\n      pop\n      0x80\n      dup3\n      add\n      mload\n      dup2\n      0x02\n      add\n      swap1\n      dup2\n      tag_102\n      swap2\n      swap1\n      tag_81\n      jump\t// in\n    tag_102:\n      pop\n      pop\n      pop\n        /* \"ConcejoDeliberante/contracts/Actuacion.sol\":2774:2777  ids */\n      0x02\n        /* \"ConcejoDeliberante/contracts/Actuacion.sol\":2783:2786  _id */\n      dup5\n        /* \"ConcejoDeliberante/contracts/Actuacion.sol\":2774:2787  ids.push(_id) */\n      swap1\n      dup1\n      0x01\n      dup2\n      sload\n      add\n      dup1\n      dup3\n      sstore\n      dup1\n      swap2\n      pop\n      pop\n      0x01\n      swap1\n      sub\n      swap1\n      0x00\n      mstore\n      keccak256(0x00, 0x20)\n      add\n      0x00\n      swap1\n      swap2\n      swap1\n      swap2\n      swap1\n      swap2\n      pop\n      sstore\n        /* \"ConcejoDeliberante/contracts/Actuacion.sol\":2821:2824  _id */\n      dup4\n        /* \"ConcejoDeliberante/contracts/Actuacion.sol\":2803:2869  ActuacionAgregada(_id, a.fechaCreacion, a.dniAutor, a.nombreAutor) */\n      0x63cd7d7ccb65790505f0d377f7a9fcb0974002f2a470411356e7cd48660b4c8b\n        /* \"ConcejoDeliberante/contracts/Actuacion.sol\":2826:2827  a */\n      dup3\n        /* \"ConcejoDeliberante/contracts/Actuacion.sol\":2826:2841  a.fechaCreacion */\n      0x01\n      add\n      sload\n        /* \"ConcejoDeliberante/contracts/Actuacion.sol\":2843:2844  a */\n      dup4\n        /* \"ConcejoDeliberante/contracts/Actuacion.sol\":2843:2853  a.dniAutor */\n      0x02\n      add\n      sload\n        /* \"ConcejoDeliberante/contracts/Actuacion.sol\":2855:2856  a */\n      dup5\n        /* \"ConcejoDeliberante/contracts/Actuacion.sol\":2855:2868  a.nombreAutor */\n      0x03\n      add\n      sload\n        /* \"ConcejoDeliberante/contracts/Actuacion.sol\":2803:2869  ActuacionAgregada(_id, a.fechaCreacion, a.dniAutor, a.nombreAutor) */\n      mload(0x40)\n      tag_104\n      swap4\n      swap3\n      swap2\n      swap1\n      tag_105\n      jump\t// in\n    tag_104:\n      mload(0x40)\n      dup1\n      swap2\n      sub\n      swap1\n      log2\n        /* \"ConcejoDeliberante/contracts/Actuacion.sol\":1984:2876  {... */\n      pop\n        /* \"ConcejoDeliberante/contracts/Actuacion.sol\":1859:2876  function _inicializarActuacion(... */\n      pop\n      pop\n      pop\n      jump\t// out\n    tag_36:\n      mload(0x40)\n      dup1\n      0xe0\n      add\n      0x40\n      mstore\n      dup1\n      0x00\n      dup2\n      mstore\n      0x20\n      add\n      0x00\n      dup2\n      mstore\n      0x20\n      add\n      0x00\n      dup2\n      mstore\n      0x20\n      add\n      0x00\n      dup2\n      mstore\n      0x20\n      add\n      0x00\n      0x02\n      dup2\n      gt\n      iszero\n      tag_106\n      jumpi\n      tag_107\n      tag_43\n      jump\t// in\n    tag_107:\n    tag_106:\n      dup2\n      mstore\n      0x20\n      add\n      iszero(iszero(0x00))\n      dup2\n      mstore\n      0x20\n      add\n      0x60\n      dup2\n      mstore\n      pop\n      swap1\n      jump\t// out\n        /* \"#utility.yul\":7:133   */\n    tag_108:\n        /* \"#utility.yul\":44:51   */\n      0x00\n        /* \"#utility.yul\":84:126   */\n      0xffffffffffffffffffffffffffffffffffffffff\n        /* \"#utility.yul\":77:82   */\n      dup3\n        /* \"#utility.yul\":73:127   */\n      and\n        /* \"#utility.yul\":62:127   */\n      swap1\n      pop\n        /* \"#utility.yul\":7:133   */\n      swap2\n      swap1\n      pop\n      jump\t// out\n        /* \"#utility.yul\":139:235   */\n    tag_109:\n        /* \"#utility.yul\":176:183   */\n      0x00\n        /* \"#utility.yul\":205:229   */\n      tag_183\n        /* \"#utility.yul\":223:228   */\n      dup3\n        /* \"#utility.yul\":205:229   */\n      tag_108\n      jump\t// in\n    tag_183:\n        /* \"#utility.yul\":194:229   */\n      swap1\n      pop\n        /* \"#utility.yul\":139:235   */\n      swap2\n      swap1\n      pop\n      jump\t// out\n        /* \"#utility.yul\":241:359   */\n    tag_110:\n        /* \"#utility.yul\":328:352   */\n      tag_185\n        /* \"#utility.yul\":346:351   */\n      dup2\n        /* \"#utility.yul\":328:352   */\n      tag_109\n      jump\t// in\n    tag_185:\n        /* \"#utility.yul\":323:326   */\n      dup3\n        /* \"#utility.yul\":316:353   */\n      mstore\n        /* \"#utility.yul\":241:359   */\n      pop\n      pop\n      jump\t// out\n        /* \"#utility.yul\":365:587   */\n    tag_11:\n        /* \"#utility.yul\":458:462   */\n      0x00\n        /* \"#utility.yul\":496:498   */\n      0x20\n        /* \"#utility.yul\":485:494   */\n      dup3\n        /* \"#utility.yul\":481:499   */\n      add\n        /* \"#utility.yul\":473:499   */\n      swap1\n      pop\n        /* \"#utility.yul\":509:580   */\n      tag_187\n        /* \"#utility.yul\":577:578   */\n      0x00\n        /* \"#utility.yul\":566:575   */\n      dup4\n        /* \"#utility.yul\":562:579   */\n      add\n        /* \"#utility.yul\":553:559   */\n      dup5\n        /* \"#utility.yul\":509:580   */\n      tag_110\n      jump\t// in\n    tag_187:\n        /* \"#utility.yul\":365:587   */\n      swap3\n      swap2\n      pop\n      pop\n      jump\t// out\n        /* \"#utility.yul\":593:668   */\n    tag_111:\n        /* \"#utility.yul\":626:632   */\n      0x00\n        /* \"#utility.yul\":659:661   */\n      0x40\n        /* \"#utility.yul\":653:662   */\n      mload\n        /* \"#utility.yul\":643:662   */\n      swap1\n      pop\n        /* \"#utility.yul\":593:668   */\n      swap1\n      jump\t// out\n        /* \"#utility.yul\":674:791   */\n    tag_112:\n        /* \"#utility.yul\":783:784   */\n      0x00\n        /* \"#utility.yul\":780:781   */\n      0x00\n        /* \"#utility.yul\":773:785   */\n      revert\n        /* \"#utility.yul\":797:914   */\n    tag_113:\n        /* \"#utility.yul\":906:907   */\n      0x00\n        /* \"#utility.yul\":903:904   */\n      0x00\n        /* \"#utility.yul\":896:908   */\n      revert\n        /* \"#utility.yul\":920:997   */\n    tag_114:\n        /* \"#utility.yul\":957:964   */\n      0x00\n        /* \"#utility.yul\":986:991   */\n      dup2\n        /* \"#utility.yul\":975:991   */\n      swap1\n      pop\n        /* \"#utility.yul\":920:997   */\n      swap2\n      swap1\n      pop\n      jump\t// out\n        /* \"#utility.yul\":1003:1125   */\n    tag_115:\n        /* \"#utility.yul\":1076:1100   */\n      tag_193\n        /* \"#utility.yul\":1094:1099   */\n      dup2\n        /* \"#utility.yul\":1076:1100   */\n      tag_114\n      jump\t// in\n    tag_193:\n        /* \"#utility.yul\":1069:1074   */\n      dup2\n        /* \"#utility.yul\":1066:1101   */\n      eq\n        /* \"#utility.yul\":1056:1119   */\n      tag_194\n      jumpi\n        /* \"#utility.yul\":1115:1116   */\n      0x00\n        /* \"#utility.yul\":1112:1113   */\n      0x00\n        /* \"#utility.yul\":1105:1117   */\n      revert\n        /* \"#utility.yul\":1056:1119   */\n    tag_194:\n        /* \"#utility.yul\":1003:1125   */\n      pop\n      jump\t// out\n        /* \"#utility.yul\":1131:1270   */\n    tag_116:\n        /* \"#utility.yul\":1177:1182   */\n      0x00\n        /* \"#utility.yul\":1215:1221   */\n      dup2\n        /* \"#utility.yul\":1202:1222   */\n      calldataload\n        /* \"#utility.yul\":1193:1222   */\n      swap1\n      pop\n        /* \"#utility.yul\":1231:1264   */\n      tag_196\n        /* \"#utility.yul\":1258:1263   */\n      dup2\n        /* \"#utility.yul\":1231:1264   */\n      tag_115\n      jump\t// in\n    tag_196:\n        /* \"#utility.yul\":1131:1270   */\n      swap3\n      swap2\n      pop\n      pop\n      jump\t// out\n        /* \"#utility.yul\":1276:1605   */\n    tag_15:\n        /* \"#utility.yul\":1335:1341   */\n      0x00\n        /* \"#utility.yul\":1384:1386   */\n      0x20\n        /* \"#utility.yul\":1372:1381   */\n      dup3\n        /* \"#utility.yul\":1363:1370   */\n      dup5\n        /* \"#utility.yul\":1359:1382   */\n      sub\n        /* \"#utility.yul\":1355:1387   */\n      slt\n        /* \"#utility.yul\":1352:1471   */\n      iszero\n      tag_198\n      jumpi\n        /* \"#utility.yul\":1390:1469   */\n      tag_199\n      tag_112\n      jump\t// in\n    tag_199:\n        /* \"#utility.yul\":1352:1471   */\n    tag_198:\n        /* \"#utility.yul\":1510:1511   */\n      0x00\n        /* \"#utility.yul\":1535:1588   */\n      tag_200\n        /* \"#utility.yul\":1580:1587   */\n      dup5\n        /* \"#utility.yul\":1571:1577   */\n      dup3\n        /* \"#utility.yul\":1560:1569   */\n      dup6\n        /* \"#utility.yul\":1556:1578   */\n      add\n        /* \"#utility.yul\":1535:1588   */\n      tag_116\n      jump\t// in\n    tag_200:\n        /* \"#utility.yul\":1525:1588   */\n      swap2\n      pop\n        /* \"#utility.yul\":1481:1598   */\n      pop\n        /* \"#utility.yul\":1276:1605   */\n      swap3\n      swap2\n      pop\n      pop\n      jump\t// out\n        /* \"#utility.yul\":1611:1719   */\n    tag_117:\n        /* \"#utility.yul\":1688:1712   */\n      tag_202\n        /* \"#utility.yul\":1706:1711   */\n      dup2\n        /* \"#utility.yul\":1688:1712   */\n      tag_114\n      jump\t// in\n    tag_202:\n        /* \"#utility.yul\":1683:1686   */\n      dup3\n        /* \"#utility.yul\":1676:1713   */\n      mstore\n        /* \"#utility.yul\":1611:1719   */\n      pop\n      pop\n      jump\t// out\n        /* \"#utility.yul\":1725:1802   */\n    tag_118:\n        /* \"#utility.yul\":1762:1769   */\n      0x00\n        /* \"#utility.yul\":1791:1796   */\n      dup2\n        /* \"#utility.yul\":1780:1796   */\n      swap1\n      pop\n        /* \"#utility.yul\":1725:1802   */\n      swap2\n      swap1\n      pop\n      jump\t// out\n        /* \"#utility.yul\":1808:1916   */\n    tag_119:\n        /* \"#utility.yul\":1885:1909   */\n      tag_205\n        /* \"#utility.yul\":1903:1908   */\n      dup2\n        /* \"#utility.yul\":1885:1909   */\n      tag_118\n      jump\t// in\n    tag_205:\n        /* \"#utility.yul\":1880:1883   */\n      dup3\n        /* \"#utility.yul\":1873:1910   */\n      mstore\n        /* \"#utility.yul\":1808:1916   */\n      pop\n      pop\n      jump\t// out\n        /* \"#utility.yul\":1922:2102   */\n    tag_43:\n        /* \"#utility.yul\":1970:2047   */\n      0x4e487b7100000000000000000000000000000000000000000000000000000000\n        /* \"#utility.yul\":1967:1968   */\n      0x00\n        /* \"#utility.yul\":1960:2048   */\n      mstore\n        /* \"#utility.yul\":2067:2071   */\n      0x21\n        /* \"#utility.yul\":2064:2065   */\n      0x04\n        /* \"#utility.yul\":2057:2072   */\n      mstore\n        /* \"#utility.yul\":2091:2095   */\n      0x24\n        /* \"#utility.yul\":2088:2089   */\n      0x00\n        /* \"#utility.yul\":2081:2096   */\n      revert\n        /* \"#utility.yul\":2108:2221   */\n    tag_120:\n        /* \"#utility.yul\":2189:2190   */\n      0x03\n        /* \"#utility.yul\":2182:2187   */\n      dup2\n        /* \"#utility.yul\":2179:2191   */\n      lt\n        /* \"#utility.yul\":2169:2215   */\n      tag_208\n      jumpi\n        /* \"#utility.yul\":2195:2213   */\n      tag_209\n      tag_43\n      jump\t// in\n    tag_209:\n        /* \"#utility.yul\":2169:2215   */\n    tag_208:\n        /* \"#utility.yul\":2108:2221   */\n      pop\n      jump\t// out\n        /* \"#utility.yul\":2227:2354   */\n    tag_121:\n        /* \"#utility.yul\":2272:2279   */\n      0x00\n        /* \"#utility.yul\":2301:2306   */\n      dup2\n        /* \"#utility.yul\":2290:2306   */\n      swap1\n      pop\n        /* \"#utility.yul\":2307:2348   */\n      tag_211\n        /* \"#utility.yul\":2342:2347   */\n      dup3\n        /* \"#utility.yul\":2307:2348   */\n      tag_120\n      jump\t// in\n    tag_211:\n        /* \"#utility.yul\":2227:2354   */\n      swap2\n      swap1\n      pop\n      jump\t// out\n        /* \"#utility.yul\":2360:2487   */\n    tag_122:\n        /* \"#utility.yul\":2416:2425   */\n      0x00\n        /* \"#utility.yul\":2449:2481   */\n      tag_213\n        /* \"#utility.yul\":2475:2480   */\n      dup3\n        /* \"#utility.yul\":2449:2481   */\n      tag_121\n      jump\t// in\n    tag_213:\n        /* \"#utility.yul\":2436:2481   */\n      swap1\n      pop\n        /* \"#utility.yul\":2360:2487   */\n      swap2\n      swap1\n      pop\n      jump\t// out\n        /* \"#utility.yul\":2493:2626   */\n    tag_123:\n        /* \"#utility.yul\":2576:2619   */\n      tag_215\n        /* \"#utility.yul\":2613:2618   */\n      dup2\n        /* \"#utility.yul\":2576:2619   */\n      tag_122\n      jump\t// in\n    tag_215:\n        /* \"#utility.yul\":2571:2574   */\n      dup3\n        /* \"#utility.yul\":2564:2620   */\n      mstore\n        /* \"#utility.yul\":2493:2626   */\n      pop\n      pop\n      jump\t// out\n        /* \"#utility.yul\":2632:2722   */\n    tag_124:\n        /* \"#utility.yul\":2666:2673   */\n      0x00\n        /* \"#utility.yul\":2709:2714   */\n      dup2\n        /* \"#utility.yul\":2702:2715   */\n      iszero\n        /* \"#utility.yul\":2695:2716   */\n      iszero\n        /* \"#utility.yul\":2684:2716   */\n      swap1\n      pop\n        /* \"#utility.yul\":2632:2722   */\n      swap2\n      swap1\n      pop\n      jump\t// out\n        /* \"#utility.yul\":2728:2827   */\n    tag_125:\n        /* \"#utility.yul\":2799:2820   */\n      tag_218\n        /* \"#utility.yul\":2814:2819   */\n      dup2\n        /* \"#utility.yul\":2799:2820   */\n      tag_124\n      jump\t// in\n    tag_218:\n        /* \"#utility.yul\":2794:2797   */\n      dup3\n        /* \"#utility.yul\":2787:2821   */\n      mstore\n        /* \"#utility.yul\":2728:2827   */\n      pop\n      pop\n      jump\t// out\n        /* \"#utility.yul\":2833:2969   */\n    tag_126:\n        /* \"#utility.yul\":2922:2928   */\n      0x00\n        /* \"#utility.yul\":2956:2961   */\n      dup2\n        /* \"#utility.yul\":2950:2962   */\n      mload\n        /* \"#utility.yul\":2940:2962   */\n      swap1\n      pop\n        /* \"#utility.yul\":2833:2969   */\n      swap2\n      swap1\n      pop\n      jump\t// out\n        /* \"#utility.yul\":2975:3171   */\n    tag_127:\n        /* \"#utility.yul\":3086:3097   */\n      0x00\n        /* \"#utility.yul\":3120:3126   */\n      dup3\n        /* \"#utility.yul\":3115:3118   */\n      dup3\n        /* \"#utility.yul\":3108:3127   */\n      mstore\n        /* \"#utility.yul\":3160:3164   */\n      0x20\n        /* \"#utility.yul\":3155:3158   */\n      dup3\n        /* \"#utility.yul\":3151:3165   */\n      add\n        /* \"#utility.yul\":3136:3165   */\n      swap1\n      pop\n        /* \"#utility.yul\":2975:3171   */\n      swap3\n      swap2\n      pop\n      pop\n      jump\t// out\n        /* \"#utility.yul\":3177:3331   */\n    tag_128:\n        /* \"#utility.yul\":3266:3270   */\n      0x00\n        /* \"#utility.yul\":3289:3292   */\n      dup2\n        /* \"#utility.yul\":3281:3292   */\n      swap1\n      pop\n        /* \"#utility.yul\":3319:3323   */\n      0x20\n        /* \"#utility.yul\":3314:3317   */\n      dup3\n        /* \"#utility.yul\":3310:3324   */\n      add\n        /* \"#utility.yul\":3302:3324   */\n      swap1\n      pop\n        /* \"#utility.yul\":3177:3331   */\n      swap2\n      swap1\n      pop\n      jump\t// out\n        /* \"#utility.yul\":3337:3445   */\n    tag_129:\n        /* \"#utility.yul\":3414:3438   */\n      tag_223\n        /* \"#utility.yul\":3432:3437   */\n      dup2\n        /* \"#utility.yul\":3414:3438   */\n      tag_109\n      jump\t// in\n    tag_223:\n        /* \"#utility.yul\":3409:3412   */\n      dup3\n        /* \"#utility.yul\":3402:3439   */\n      mstore\n        /* \"#utility.yul\":3337:3445   */\n      pop\n      pop\n      jump\t// out\n        /* \"#utility.yul\":3451:3550   */\n    tag_130:\n        /* \"#utility.yul\":3503:3509   */\n      0x00\n        /* \"#utility.yul\":3537:3542   */\n      dup2\n        /* \"#utility.yul\":3531:3543   */\n      mload\n        /* \"#utility.yul\":3521:3543   */\n      swap1\n      pop\n        /* \"#utility.yul\":3451:3550   */\n      swap2\n      swap1\n      pop\n      jump\t// out\n        /* \"#utility.yul\":3556:3715   */\n    tag_131:\n        /* \"#utility.yul\":3630:3641   */\n      0x00\n        /* \"#utility.yul\":3664:3670   */\n      dup3\n        /* \"#utility.yul\":3659:3662   */\n      dup3\n        /* \"#utility.yul\":3652:3671   */\n      mstore\n        /* \"#utility.yul\":3704:3708   */\n      0x20\n        /* \"#utility.yul\":3699:3702   */\n      dup3\n        /* \"#utility.yul\":3695:3709   */\n      add\n        /* \"#utility.yul\":3680:3709   */\n      swap1\n      pop\n        /* \"#utility.yul\":3556:3715   */\n      swap3\n      swap2\n      pop\n      pop\n      jump\t// out\n        /* \"#utility.yul\":3721:3860   */\n    tag_132:\n        /* \"#utility.yul\":3810:3816   */\n      dup3\n        /* \"#utility.yul\":3805:3808   */\n      dup2\n        /* \"#utility.yul\":3800:3803   */\n      dup4\n        /* \"#utility.yul\":3794:3817   */\n      mcopy\n        /* \"#utility.yul\":3851:3852   */\n      0x00\n        /* \"#utility.yul\":3842:3848   */\n      dup4\n        /* \"#utility.yul\":3837:3840   */\n      dup4\n        /* \"#utility.yul\":3833:3849   */\n      add\n        /* \"#utility.yul\":3826:3853   */\n      mstore\n        /* \"#utility.yul\":3721:3860   */\n      pop\n      pop\n      pop\n      jump\t// out\n        /* \"#utility.yul\":3866:3968   */\n    tag_133:\n        /* \"#utility.yul\":3907:3913   */\n      0x00\n        /* \"#utility.yul\":3958:3960   */\n      0x1f\n        /* \"#utility.yul\":3954:3961   */\n      not\n        /* \"#utility.yul\":3949:3951   */\n      0x1f\n        /* \"#utility.yul\":3942:3947   */\n      dup4\n        /* \"#utility.yul\":3938:3952   */\n      add\n        /* \"#utility.yul\":3934:3962   */\n      and\n        /* \"#utility.yul\":3924:3962   */\n      swap1\n      pop\n        /* \"#utility.yul\":3866:3968   */\n      swap2\n      swap1\n      pop\n      jump\t// out\n        /* \"#utility.yul\":3974:4331   */\n    tag_134:\n        /* \"#utility.yul\":4052:4055   */\n      0x00\n        /* \"#utility.yul\":4080:4119   */\n      tag_229\n        /* \"#utility.yul\":4113:4118   */\n      dup3\n        /* \"#utility.yul\":4080:4119   */\n      tag_130\n      jump\t// in\n    tag_229:\n        /* \"#utility.yul\":4135:4196   */\n      tag_230\n        /* \"#utility.yul\":4189:4195   */\n      dup2\n        /* \"#utility.yul\":4184:4187   */\n      dup6\n        /* \"#utility.yul\":4135:4196   */\n      tag_131\n      jump\t// in\n    tag_230:\n        /* \"#utility.yul\":4128:4196   */\n      swap4\n      pop\n        /* \"#utility.yul\":4205:4270   */\n      tag_231\n        /* \"#utility.yul\":4263:4269   */\n      dup2\n        /* \"#utility.yul\":4258:4261   */\n      dup6\n        /* \"#utility.yul\":4251:4255   */\n      0x20\n        /* \"#utility.yul\":4244:4249   */\n      dup7\n        /* \"#utility.yul\":4240:4256   */\n      add\n        /* \"#utility.yul\":4205:4270   */\n      tag_132\n      jump\t// in\n    tag_231:\n        /* \"#utility.yul\":4295:4324   */\n      tag_232\n        /* \"#utility.yul\":4317:4323   */\n      dup2\n        /* \"#utility.yul\":4295:4324   */\n      tag_133\n      jump\t// in\n    tag_232:\n        /* \"#utility.yul\":4290:4293   */\n      dup5\n        /* \"#utility.yul\":4286:4325   */\n      add\n        /* \"#utility.yul\":4279:4325   */\n      swap2\n      pop\n        /* \"#utility.yul\":4056:4331   */\n      pop\n        /* \"#utility.yul\":3974:4331   */\n      swap3\n      swap2\n      pop\n      pop\n      jump\t// out\n        /* \"#utility.yul\":4403:5565   */\n    tag_135:\n        /* \"#utility.yul\":4506:4509   */\n      0x00\n        /* \"#utility.yul\":4542:4546   */\n      0xa0\n        /* \"#utility.yul\":4537:4540   */\n      dup4\n        /* \"#utility.yul\":4533:4547   */\n      add\n        /* \"#utility.yul\":4634:4638   */\n      0x00\n        /* \"#utility.yul\":4627:4632   */\n      dup4\n        /* \"#utility.yul\":4623:4639   */\n      add\n        /* \"#utility.yul\":4617:4640   */\n      mload\n        /* \"#utility.yul\":4653:4716   */\n      tag_234\n        /* \"#utility.yul\":4710:4714   */\n      0x00\n        /* \"#utility.yul\":4705:4708   */\n      dup7\n        /* \"#utility.yul\":4701:4715   */\n      add\n        /* \"#utility.yul\":4687:4699   */\n      dup3\n        /* \"#utility.yul\":4653:4716   */\n      tag_119\n      jump\t// in\n    tag_234:\n        /* \"#utility.yul\":4557:4726   */\n      pop\n        /* \"#utility.yul\":4818:4822   */\n      0x20\n        /* \"#utility.yul\":4811:4816   */\n      dup4\n        /* \"#utility.yul\":4807:4823   */\n      add\n        /* \"#utility.yul\":4801:4824   */\n      mload\n        /* \"#utility.yul\":4837:4906   */\n      tag_235\n        /* \"#utility.yul\":4900:4904   */\n      0x20\n        /* \"#utility.yul\":4895:4898   */\n      dup7\n        /* \"#utility.yul\":4891:4905   */\n      add\n        /* \"#utility.yul\":4877:4889   */\n      dup3\n        /* \"#utility.yul\":4837:4906   */\n      tag_123\n      jump\t// in\n    tag_235:\n        /* \"#utility.yul\":4736:4916   */\n      pop\n        /* \"#utility.yul\":5005:5009   */\n      0x40\n        /* \"#utility.yul\":4998:5003   */\n      dup4\n        /* \"#utility.yul\":4994:5010   */\n      add\n        /* \"#utility.yul\":4988:5011   */\n      mload\n        /* \"#utility.yul\":5024:5093   */\n      tag_236\n        /* \"#utility.yul\":5087:5091   */\n      0x40\n        /* \"#utility.yul\":5082:5085   */\n      dup7\n        /* \"#utility.yul\":5078:5092   */\n      add\n        /* \"#utility.yul\":5064:5076   */\n      dup3\n        /* \"#utility.yul\":5024:5093   */\n      tag_123\n      jump\t// in\n    tag_236:\n        /* \"#utility.yul\":4926:5103   */\n      pop\n        /* \"#utility.yul\":5194:5198   */\n      0x60\n        /* \"#utility.yul\":5187:5192   */\n      dup4\n        /* \"#utility.yul\":5183:5199   */\n      add\n        /* \"#utility.yul\":5177:5200   */\n      mload\n        /* \"#utility.yul\":5213:5276   */\n      tag_237\n        /* \"#utility.yul\":5270:5274   */\n      0x60\n        /* \"#utility.yul\":5265:5268   */\n      dup7\n        /* \"#utility.yul\":5261:5275   */\n      add\n        /* \"#utility.yul\":5247:5259   */\n      dup3\n        /* \"#utility.yul\":5213:5276   */\n      tag_129\n      jump\t// in\n    tag_237:\n        /* \"#utility.yul\":5113:5286   */\n      pop\n        /* \"#utility.yul\":5375:5379   */\n      0x80\n        /* \"#utility.yul\":5368:5373   */\n      dup4\n        /* \"#utility.yul\":5364:5380   */\n      add\n        /* \"#utility.yul\":5358:5381   */\n      mload\n        /* \"#utility.yul\":5428:5431   */\n      dup5\n        /* \"#utility.yul\":5422:5426   */\n      dup3\n        /* \"#utility.yul\":5418:5432   */\n      sub\n        /* \"#utility.yul\":5411:5415   */\n      0x80\n        /* \"#utility.yul\":5406:5409   */\n      dup7\n        /* \"#utility.yul\":5402:5416   */\n      add\n        /* \"#utility.yul\":5395:5433   */\n      mstore\n        /* \"#utility.yul\":5454:5527   */\n      tag_238\n        /* \"#utility.yul\":5522:5526   */\n      dup3\n        /* \"#utility.yul\":5508:5520   */\n      dup3\n        /* \"#utility.yul\":5454:5527   */\n      tag_134\n      jump\t// in\n    tag_238:\n        /* \"#utility.yul\":5446:5527   */\n      swap2\n      pop\n        /* \"#utility.yul\":5296:5538   */\n      pop\n        /* \"#utility.yul\":5555:5559   */\n      dup1\n        /* \"#utility.yul\":5548:5559   */\n      swap2\n      pop\n        /* \"#utility.yul\":4511:5565   */\n      pop\n        /* \"#utility.yul\":4403:5565   */\n      swap3\n      swap2\n      pop\n      pop\n      jump\t// out\n        /* \"#utility.yul\":5571:5815   */\n    tag_136:\n        /* \"#utility.yul\":5684:5694   */\n      0x00\n        /* \"#utility.yul\":5719:5809   */\n      tag_240\n        /* \"#utility.yul\":5805:5808   */\n      dup4\n        /* \"#utility.yul\":5797:5803   */\n      dup4\n        /* \"#utility.yul\":5719:5809   */\n      tag_135\n      jump\t// in\n    tag_240:\n        /* \"#utility.yul\":5705:5809   */\n      swap1\n      pop\n        /* \"#utility.yul\":5571:5815   */\n      swap3\n      swap2\n      pop\n      pop\n      jump\t// out\n        /* \"#utility.yul\":5821:5956   */\n    tag_137:\n        /* \"#utility.yul\":5913:5917   */\n      0x00\n        /* \"#utility.yul\":5945:5949   */\n      0x20\n        /* \"#utility.yul\":5940:5943   */\n      dup3\n        /* \"#utility.yul\":5936:5950   */\n      add\n        /* \"#utility.yul\":5928:5950   */\n      swap1\n      pop\n        /* \"#utility.yul\":5821:5956   */\n      swap2\n      swap1\n      pop\n      jump\t// out\n        /* \"#utility.yul\":6032:7099   */\n    tag_138:\n        /* \"#utility.yul\":6185:6188   */\n      0x00\n        /* \"#utility.yul\":6214:6290   */\n      tag_243\n        /* \"#utility.yul\":6284:6289   */\n      dup3\n        /* \"#utility.yul\":6214:6290   */\n      tag_126\n      jump\t// in\n    tag_243:\n        /* \"#utility.yul\":6306:6404   */\n      tag_244\n        /* \"#utility.yul\":6397:6403   */\n      dup2\n        /* \"#utility.yul\":6392:6395   */\n      dup6\n        /* \"#utility.yul\":6306:6404   */\n      tag_127\n      jump\t// in\n    tag_244:\n        /* \"#utility.yul\":6299:6404   */\n      swap4\n      pop\n        /* \"#utility.yul\":6430:6433   */\n      dup4\n        /* \"#utility.yul\":6475:6479   */\n      0x20\n        /* \"#utility.yul\":6467:6473   */\n      dup3\n        /* \"#utility.yul\":6463:6480   */\n      mul\n        /* \"#utility.yul\":6458:6461   */\n      dup6\n        /* \"#utility.yul\":6454:6481   */\n      add\n        /* \"#utility.yul\":6505:6583   */\n      tag_245\n        /* \"#utility.yul\":6577:6582   */\n      dup6\n        /* \"#utility.yul\":6505:6583   */\n      tag_128\n      jump\t// in\n    tag_245:\n        /* \"#utility.yul\":6606:6613   */\n      dup1\n        /* \"#utility.yul\":6637:6638   */\n      0x00\n        /* \"#utility.yul\":6622:7054   */\n    tag_246:\n        /* \"#utility.yul\":6647:6653   */\n      dup6\n        /* \"#utility.yul\":6644:6645   */\n      dup2\n        /* \"#utility.yul\":6641:6654   */\n      lt\n        /* \"#utility.yul\":6622:7054   */\n      iszero\n      tag_248\n      jumpi\n        /* \"#utility.yul\":6718:6727   */\n      dup5\n        /* \"#utility.yul\":6712:6716   */\n      dup5\n        /* \"#utility.yul\":6708:6728   */\n      sub\n        /* \"#utility.yul\":6703:6706   */\n      dup10\n        /* \"#utility.yul\":6696:6729   */\n      mstore\n        /* \"#utility.yul\":6769:6775   */\n      dup2\n        /* \"#utility.yul\":6763:6776   */\n      mload\n        /* \"#utility.yul\":6797:6905   */\n      tag_249\n        /* \"#utility.yul\":6900:6904   */\n      dup6\n        /* \"#utility.yul\":6885:6898   */\n      dup3\n        /* \"#utility.yul\":6797:6905   */\n      tag_136\n      jump\t// in\n    tag_249:\n        /* \"#utility.yul\":6789:6905   */\n      swap5\n      pop\n        /* \"#utility.yul\":6928:7010   */\n      tag_250\n        /* \"#utility.yul\":7003:7009   */\n      dup4\n        /* \"#utility.yul\":6928:7010   */\n      tag_137\n      jump\t// in\n    tag_250:\n        /* \"#utility.yul\":6918:7010   */\n      swap3\n      pop\n        /* \"#utility.yul\":7039:7043   */\n      0x20\n        /* \"#utility.yul\":7034:7037   */\n      dup11\n        /* \"#utility.yul\":7030:7044   */\n      add\n        /* \"#utility.yul\":7023:7044   */\n      swap10\n      pop\n        /* \"#utility.yul\":6682:7054   */\n      pop\n        /* \"#utility.yul\":6669:6670   */\n      0x01\n        /* \"#utility.yul\":6666:6667   */\n      dup2\n        /* \"#utility.yul\":6662:6671   */\n      add\n        /* \"#utility.yul\":6657:6671   */\n      swap1\n      pop\n        /* \"#utility.yul\":6622:7054   */\n      jump(tag_246)\n    tag_248:\n        /* \"#utility.yul\":6626:6640   */\n      pop\n        /* \"#utility.yul\":7070:7074   */\n      dup3\n        /* \"#utility.yul\":7063:7074   */\n      swap8\n      pop\n        /* \"#utility.yul\":7090:7093   */\n      dup8\n        /* \"#utility.yul\":7083:7093   */\n      swap6\n      pop\n        /* \"#utility.yul\":6190:7099   */\n      pop\n      pop\n      pop\n      pop\n      pop\n        /* \"#utility.yul\":6032:7099   */\n      swap3\n      swap2\n      pop\n      pop\n      jump\t// out\n        /* \"#utility.yul\":7177:8754   */\n    tag_139:\n        /* \"#utility.yul\":7296:7299   */\n      0x00\n        /* \"#utility.yul\":7332:7336   */\n      0xe0\n        /* \"#utility.yul\":7327:7330   */\n      dup4\n        /* \"#utility.yul\":7323:7337   */\n      add\n        /* \"#utility.yul\":7417:7421   */\n      0x00\n        /* \"#utility.yul\":7410:7415   */\n      dup4\n        /* \"#utility.yul\":7406:7422   */\n      add\n        /* \"#utility.yul\":7400:7423   */\n      mload\n        /* \"#utility.yul\":7436:7499   */\n      tag_252\n        /* \"#utility.yul\":7493:7497   */\n      0x00\n        /* \"#utility.yul\":7488:7491   */\n      dup7\n        /* \"#utility.yul\":7484:7498   */\n      add\n        /* \"#utility.yul\":7470:7482   */\n      dup3\n        /* \"#utility.yul\":7436:7499   */\n      tag_117\n      jump\t// in\n    tag_252:\n        /* \"#utility.yul\":7347:7509   */\n      pop\n        /* \"#utility.yul\":7600:7604   */\n      0x20\n        /* \"#utility.yul\":7593:7598   */\n      dup4\n        /* \"#utility.yul\":7589:7605   */\n      add\n        /* \"#utility.yul\":7583:7606   */\n      mload\n        /* \"#utility.yul\":7619:7682   */\n      tag_253\n        /* \"#utility.yul\":7676:7680   */\n      0x20\n        /* \"#utility.yul\":7671:7674   */\n      dup7\n        /* \"#utility.yul\":7667:7681   */\n      add\n        /* \"#utility.yul\":7653:7665   */\n      dup3\n        /* \"#utility.yul\":7619:7682   */\n      tag_119\n      jump\t// in\n    tag_253:\n        /* \"#utility.yul\":7519:7692   */\n      pop\n        /* \"#utility.yul\":7778:7782   */\n      0x40\n        /* \"#utility.yul\":7771:7776   */\n      dup4\n        /* \"#utility.yul\":7767:7783   */\n      add\n        /* \"#utility.yul\":7761:7784   */\n      mload\n        /* \"#utility.yul\":7797:7860   */\n      tag_254\n        /* \"#utility.yul\":7854:7858   */\n      0x40\n        /* \"#utility.yul\":7849:7852   */\n      dup7\n        /* \"#utility.yul\":7845:7859   */\n      add\n        /* \"#utility.yul\":7831:7843   */\n      dup3\n        /* \"#utility.yul\":7797:7860   */\n      tag_119\n      jump\t// in\n    tag_254:\n        /* \"#utility.yul\":7702:7870   */\n      pop\n        /* \"#utility.yul\":7959:7963   */\n      0x60\n        /* \"#utility.yul\":7952:7957   */\n      dup4\n        /* \"#utility.yul\":7948:7964   */\n      add\n        /* \"#utility.yul\":7942:7965   */\n      mload\n        /* \"#utility.yul\":7978:8041   */\n      tag_255\n        /* \"#utility.yul\":8035:8039   */\n      0x60\n        /* \"#utility.yul\":8030:8033   */\n      dup7\n        /* \"#utility.yul\":8026:8040   */\n      add\n        /* \"#utility.yul\":8012:8024   */\n      dup3\n        /* \"#utility.yul\":7978:8041   */\n      tag_117\n      jump\t// in\n    tag_255:\n        /* \"#utility.yul\":7880:8051   */\n      pop\n        /* \"#utility.yul\":8135:8139   */\n      0x80\n        /* \"#utility.yul\":8128:8133   */\n      dup4\n        /* \"#utility.yul\":8124:8140   */\n      add\n        /* \"#utility.yul\":8118:8141   */\n      mload\n        /* \"#utility.yul\":8154:8223   */\n      tag_256\n        /* \"#utility.yul\":8217:8221   */\n      0x80\n        /* \"#utility.yul\":8212:8215   */\n      dup7\n        /* \"#utility.yul\":8208:8222   */\n      add\n        /* \"#utility.yul\":8194:8206   */\n      dup3\n        /* \"#utility.yul\":8154:8223   */\n      tag_123\n      jump\t// in\n    tag_256:\n        /* \"#utility.yul\":8061:8233   */\n      pop\n        /* \"#utility.yul\":8317:8321   */\n      0xa0\n        /* \"#utility.yul\":8310:8315   */\n      dup4\n        /* \"#utility.yul\":8306:8322   */\n      add\n        /* \"#utility.yul\":8300:8323   */\n      mload\n        /* \"#utility.yul\":8336:8393   */\n      tag_257\n        /* \"#utility.yul\":8387:8391   */\n      0xa0\n        /* \"#utility.yul\":8382:8385   */\n      dup7\n        /* \"#utility.yul\":8378:8392   */\n      add\n        /* \"#utility.yul\":8364:8376   */\n      dup3\n        /* \"#utility.yul\":8336:8393   */\n      tag_125\n      jump\t// in\n    tag_257:\n        /* \"#utility.yul\":8243:8403   */\n      pop\n        /* \"#utility.yul\":8490:8494   */\n      0xc0\n        /* \"#utility.yul\":8483:8488   */\n      dup4\n        /* \"#utility.yul\":8479:8495   */\n      add\n        /* \"#utility.yul\":8473:8496   */\n      mload\n        /* \"#utility.yul\":8543:8546   */\n      dup5\n        /* \"#utility.yul\":8537:8541   */\n      dup3\n        /* \"#utility.yul\":8533:8547   */\n      sub\n        /* \"#utility.yul\":8526:8530   */\n      0xc0\n        /* \"#utility.yul\":8521:8524   */\n      dup7\n        /* \"#utility.yul\":8517:8531   */\n      add\n        /* \"#utility.yul\":8510:8548   */\n      mstore\n        /* \"#utility.yul\":8569:8716   */\n      tag_258\n        /* \"#utility.yul\":8711:8715   */\n      dup3\n        /* \"#utility.yul\":8697:8709   */\n      dup3\n        /* \"#utility.yul\":8569:8716   */\n      tag_138\n      jump\t// in\n    tag_258:\n        /* \"#utility.yul\":8561:8716   */\n      swap2\n      pop\n        /* \"#utility.yul\":8413:8727   */\n      pop\n        /* \"#utility.yul\":8744:8748   */\n      dup1\n        /* \"#utility.yul\":8737:8748   */\n      swap2\n      pop\n        /* \"#utility.yul\":7301:8754   */\n      pop\n        /* \"#utility.yul\":7177:8754   */\n      swap3\n      swap2\n      pop\n      pop\n      jump\t// out\n        /* \"#utility.yul\":8760:9133   */\n    tag_18:\n        /* \"#utility.yul\":8903:8907   */\n      0x00\n        /* \"#utility.yul\":8941:8943   */\n      0x20\n        /* \"#utility.yul\":8930:8939   */\n      dup3\n        /* \"#utility.yul\":8926:8944   */\n      add\n        /* \"#utility.yul\":8918:8944   */\n      swap1\n      pop\n        /* \"#utility.yul\":8990:8999   */\n      dup2\n        /* \"#utility.yul\":8984:8988   */\n      dup2\n        /* \"#utility.yul\":8980:9000   */\n      sub\n        /* \"#utility.yul\":8976:8977   */\n      0x00\n        /* \"#utility.yul\":8965:8974   */\n      dup4\n        /* \"#utility.yul\":8961:8978   */\n      add\n        /* \"#utility.yul\":8954:9001   */\n      mstore\n        /* \"#utility.yul\":9018:9126   */\n      tag_260\n        /* \"#utility.yul\":9121:9125   */\n      dup2\n        /* \"#utility.yul\":9112:9118   */\n      dup5\n        /* \"#utility.yul\":9018:9126   */\n      tag_139\n      jump\t// in\n    tag_260:\n        /* \"#utility.yul\":9010:9126   */\n      swap1\n      pop\n        /* \"#utility.yul\":8760:9133   */\n      swap3\n      swap2\n      pop\n      pop\n      jump\t// out\n        /* \"#utility.yul\":9139:9257   */\n    tag_140:\n        /* \"#utility.yul\":9226:9250   */\n      tag_262\n        /* \"#utility.yul\":9244:9249   */\n      dup2\n        /* \"#utility.yul\":9226:9250   */\n      tag_118\n      jump\t// in\n    tag_262:\n        /* \"#utility.yul\":9221:9224   */\n      dup3\n        /* \"#utility.yul\":9214:9251   */\n      mstore\n        /* \"#utility.yul\":9139:9257   */\n      pop\n      pop\n      jump\t// out\n        /* \"#utility.yul\":9263:9485   */\n    tag_23:\n        /* \"#utility.yul\":9356:9360   */\n      0x00\n        /* \"#utility.yul\":9394:9396   */\n      0x20\n        /* \"#utility.yul\":9383:9392   */\n      dup3\n        /* \"#utility.yul\":9379:9397   */\n      add\n        /* \"#utility.yul\":9371:9397   */\n      swap1\n      pop\n        /* \"#utility.yul\":9407:9478   */\n      tag_264\n        /* \"#utility.yul\":9475:9476   */\n      0x00\n        /* \"#utility.yul\":9464:9473   */\n      dup4\n        /* \"#utility.yul\":9460:9477   */\n      add\n        /* \"#utility.yul\":9451:9457   */\n      dup5\n        /* \"#utility.yul\":9407:9478   */\n      tag_140\n      jump\t// in\n    tag_264:\n        /* \"#utility.yul\":9263:9485   */\n      swap3\n      swap2\n      pop\n      pop\n      jump\t// out\n        /* \"#utility.yul\":9491:9608   */\n    tag_141:\n        /* \"#utility.yul\":9600:9601   */\n      0x00\n        /* \"#utility.yul\":9597:9598   */\n      0x00\n        /* \"#utility.yul\":9590:9602   */\n      revert\n        /* \"#utility.yul\":9614:9731   */\n    tag_142:\n        /* \"#utility.yul\":9723:9724   */\n      0x00\n        /* \"#utility.yul\":9720:9721   */\n      0x00\n        /* \"#utility.yul\":9713:9725   */\n      revert\n        /* \"#utility.yul\":9737:9917   */\n    tag_143:\n        /* \"#utility.yul\":9785:9862   */\n      0x4e487b7100000000000000000000000000000000000000000000000000000000\n        /* \"#utility.yul\":9782:9783   */\n      0x00\n        /* \"#utility.yul\":9775:9863   */\n      mstore\n        /* \"#utility.yul\":9882:9886   */\n      0x41\n        /* \"#utility.yul\":9879:9880   */\n      0x04\n        /* \"#utility.yul\":9872:9887   */\n      mstore\n        /* \"#utility.yul\":9906:9910   */\n      0x24\n        /* \"#utility.yul\":9903:9904   */\n      0x00\n        /* \"#utility.yul\":9896:9911   */\n      revert\n        /* \"#utility.yul\":9923:10204   */\n    tag_144:\n        /* \"#utility.yul\":10006:10033   */\n      tag_269\n        /* \"#utility.yul\":10028:10032   */\n      dup3\n        /* \"#utility.yul\":10006:10033   */\n      tag_133\n      jump\t// in\n    tag_269:\n        /* \"#utility.yul\":9998:10004   */\n      dup2\n        /* \"#utility.yul\":9994:10034   */\n      add\n        /* \"#utility.yul\":10136:10142   */\n      dup2\n        /* \"#utility.yul\":10124:10134   */\n      dup2\n        /* \"#utility.yul\":10121:10143   */\n      lt\n        /* \"#utility.yul\":10100:10118   */\n      0xffffffffffffffff\n        /* \"#utility.yul\":10088:10098   */\n      dup3\n        /* \"#utility.yul\":10085:10119   */\n      gt\n        /* \"#utility.yul\":10082:10144   */\n      or\n        /* \"#utility.yul\":10079:10167   */\n      iszero\n      tag_270\n      jumpi\n        /* \"#utility.yul\":10147:10165   */\n      tag_271\n      tag_143\n      jump\t// in\n    tag_271:\n        /* \"#utility.yul\":10079:10167   */\n    tag_270:\n        /* \"#utility.yul\":10187:10197   */\n      dup1\n        /* \"#utility.yul\":10183:10185   */\n      0x40\n        /* \"#utility.yul\":10176:10198   */\n      mstore\n        /* \"#utility.yul\":9966:10204   */\n      pop\n        /* \"#utility.yul\":9923:10204   */\n      pop\n      pop\n      jump\t// out\n        /* \"#utility.yul\":10210:10339   */\n    tag_145:\n        /* \"#utility.yul\":10244:10250   */\n      0x00\n        /* \"#utility.yul\":10271:10291   */\n      tag_273\n      tag_111\n      jump\t// in\n    tag_273:\n        /* \"#utility.yul\":10261:10291   */\n      swap1\n      pop\n        /* \"#utility.yul\":10300:10333   */\n      tag_274\n        /* \"#utility.yul\":10328:10332   */\n      dup3\n        /* \"#utility.yul\":10320:10326   */\n      dup3\n        /* \"#utility.yul\":10300:10333   */\n      tag_144\n      jump\t// in\n    tag_274:\n        /* \"#utility.yul\":10210:10339   */\n      swap2\n      swap1\n      pop\n      jump\t// out\n        /* \"#utility.yul\":10345:10653   */\n    tag_146:\n        /* \"#utility.yul\":10407:10411   */\n      0x00\n        /* \"#utility.yul\":10497:10515   */\n      0xffffffffffffffff\n        /* \"#utility.yul\":10489:10495   */\n      dup3\n        /* \"#utility.yul\":10486:10516   */\n      gt\n        /* \"#utility.yul\":10483:10539   */\n      iszero\n      tag_276\n      jumpi\n        /* \"#utility.yul\":10519:10537   */\n      tag_277\n      tag_143\n      jump\t// in\n    tag_277:\n        /* \"#utility.yul\":10483:10539   */\n    tag_276:\n        /* \"#utility.yul\":10557:10586   */\n      tag_278\n        /* \"#utility.yul\":10579:10585   */\n      dup3\n        /* \"#utility.yul\":10557:10586   */\n      tag_133\n      jump\t// in\n    tag_278:\n        /* \"#utility.yul\":10549:10586   */\n      swap1\n      pop\n        /* \"#utility.yul\":10641:10645   */\n      0x20\n        /* \"#utility.yul\":10635:10639   */\n      dup2\n        /* \"#utility.yul\":10631:10646   */\n      add\n        /* \"#utility.yul\":10623:10646   */\n      swap1\n      pop\n        /* \"#utility.yul\":10345:10653   */\n      swap2\n      swap1\n      pop\n      jump\t// out\n        /* \"#utility.yul\":10659:10807   */\n    tag_147:\n        /* \"#utility.yul\":10757:10763   */\n      dup3\n        /* \"#utility.yul\":10752:10755   */\n      dup2\n        /* \"#utility.yul\":10747:10750   */\n      dup4\n        /* \"#utility.yul\":10734:10764   */\n      calldatacopy\n        /* \"#utility.yul\":10798:10799   */\n      0x00\n        /* \"#utility.yul\":10789:10795   */\n      dup4\n        /* \"#utility.yul\":10784:10787   */\n      dup4\n        /* \"#utility.yul\":10780:10796   */\n      add\n        /* \"#utility.yul\":10773:10800   */\n      mstore\n        /* \"#utility.yul\":10659:10807   */\n      pop\n      pop\n      pop\n      jump\t// out\n        /* \"#utility.yul\":10813:11238   */\n    tag_148:\n        /* \"#utility.yul\":10891:10896   */\n      0x00\n        /* \"#utility.yul\":10916:10982   */\n      tag_281\n        /* \"#utility.yul\":10932:10981   */\n      tag_282\n        /* \"#utility.yul\":10974:10980   */\n      dup5\n        /* \"#utility.yul\":10932:10981   */\n      tag_146\n      jump\t// in\n    tag_282:\n        /* \"#utility.yul\":10916:10982   */\n      tag_145\n      jump\t// in\n    tag_281:\n        /* \"#utility.yul\":10907:10982   */\n      swap1\n      pop\n        /* \"#utility.yul\":11005:11011   */\n      dup3\n        /* \"#utility.yul\":10998:11003   */\n      dup2\n        /* \"#utility.yul\":10991:11012   */\n      mstore\n        /* \"#utility.yul\":11043:11047   */\n      0x20\n        /* \"#utility.yul\":11036:11041   */\n      dup2\n        /* \"#utility.yul\":11032:11048   */\n      add\n        /* \"#utility.yul\":11081:11084   */\n      dup5\n        /* \"#utility.yul\":11072:11078   */\n      dup5\n        /* \"#utility.yul\":11067:11070   */\n      dup5\n        /* \"#utility.yul\":11063:11079   */\n      add\n        /* \"#utility.yul\":11060:11085   */\n      gt\n        /* \"#utility.yul\":11057:11169   */\n      iszero\n      tag_283\n      jumpi\n        /* \"#utility.yul\":11088:11167   */\n      tag_284\n      tag_142\n      jump\t// in\n    tag_284:\n        /* \"#utility.yul\":11057:11169   */\n    tag_283:\n        /* \"#utility.yul\":11178:11232   */\n      tag_285\n        /* \"#utility.yul\":11225:11231   */\n      dup5\n        /* \"#utility.yul\":11220:11223   */\n      dup3\n        /* \"#utility.yul\":11215:11218   */\n      dup6\n        /* \"#utility.yul\":11178:11232   */\n      tag_147\n      jump\t// in\n    tag_285:\n        /* \"#utility.yul\":10897:11238   */\n      pop\n        /* \"#utility.yul\":10813:11238   */\n      swap4\n      swap3\n      pop\n      pop\n      pop\n      jump\t// out\n        /* \"#utility.yul\":11258:11598   */\n    tag_149:\n        /* \"#utility.yul\":11314:11319   */\n      0x00\n        /* \"#utility.yul\":11363:11366   */\n      dup3\n        /* \"#utility.yul\":11356:11360   */\n      0x1f\n        /* \"#utility.yul\":11348:11354   */\n      dup4\n        /* \"#utility.yul\":11344:11361   */\n      add\n        /* \"#utility.yul\":11340:11367   */\n      slt\n        /* \"#utility.yul\":11330:11452   */\n      tag_287\n      jumpi\n        /* \"#utility.yul\":11371:11450   */\n      tag_288\n      tag_141\n      jump\t// in\n    tag_288:\n        /* \"#utility.yul\":11330:11452   */\n    tag_287:\n        /* \"#utility.yul\":11488:11494   */\n      dup2\n        /* \"#utility.yul\":11475:11495   */\n      calldataload\n        /* \"#utility.yul\":11513:11592   */\n      tag_289\n        /* \"#utility.yul\":11588:11591   */\n      dup5\n        /* \"#utility.yul\":11580:11586   */\n      dup3\n        /* \"#utility.yul\":11573:11577   */\n      0x20\n        /* \"#utility.yul\":11565:11571   */\n      dup7\n        /* \"#utility.yul\":11561:11578   */\n      add\n        /* \"#utility.yul\":11513:11592   */\n      tag_148\n      jump\t// in\n    tag_289:\n        /* \"#utility.yul\":11504:11592   */\n      swap2\n      pop\n        /* \"#utility.yul\":11320:11598   */\n      pop\n        /* \"#utility.yul\":11258:11598   */\n      swap3\n      swap2\n      pop\n      pop\n      jump\t// out\n        /* \"#utility.yul\":11604:12258   */\n    tag_27:\n        /* \"#utility.yul\":11682:11688   */\n      0x00\n        /* \"#utility.yul\":11690:11696   */\n      0x00\n        /* \"#utility.yul\":11739:11741   */\n      0x40\n        /* \"#utility.yul\":11727:11736   */\n      dup4\n        /* \"#utility.yul\":11718:11725   */\n      dup6\n        /* \"#utility.yul\":11714:11737   */\n      sub\n        /* \"#utility.yul\":11710:11742   */\n      slt\n        /* \"#utility.yul\":11707:11826   */\n      iszero\n      tag_291\n      jumpi\n        /* \"#utility.yul\":11745:11824   */\n      tag_292\n      tag_112\n      jump\t// in\n    tag_292:\n        /* \"#utility.yul\":11707:11826   */\n    tag_291:\n        /* \"#utility.yul\":11865:11866   */\n      0x00\n        /* \"#utility.yul\":11890:11943   */\n      tag_293\n        /* \"#utility.yul\":11935:11942   */\n      dup6\n        /* \"#utility.yul\":11926:11932   */\n      dup3\n        /* \"#utility.yul\":11915:11924   */\n      dup7\n        /* \"#utility.yul\":11911:11933   */\n      add\n        /* \"#utility.yul\":11890:11943   */\n      tag_116\n      jump\t// in\n    tag_293:\n        /* \"#utility.yul\":11880:11943   */\n      swap3\n      pop\n        /* \"#utility.yul\":11836:11953   */\n      pop\n        /* \"#utility.yul\":12020:12022   */\n      0x20\n        /* \"#utility.yul\":12009:12018   */\n      dup4\n        /* \"#utility.yul\":12005:12023   */\n      add\n        /* \"#utility.yul\":11992:12024   */\n      calldataload\n        /* \"#utility.yul\":12051:12069   */\n      0xffffffffffffffff\n        /* \"#utility.yul\":12043:12049   */\n      dup2\n        /* \"#utility.yul\":12040:12070   */\n      gt\n        /* \"#utility.yul\":12037:12154   */\n      iszero\n      tag_294\n      jumpi\n        /* \"#utility.yul\":12073:12152   */\n      tag_295\n      tag_113\n      jump\t// in\n    tag_295:\n        /* \"#utility.yul\":12037:12154   */\n    tag_294:\n        /* \"#utility.yul\":12178:12241   */\n      tag_296\n        /* \"#utility.yul\":12233:12240   */\n      dup6\n        /* \"#utility.yul\":12224:12230   */\n      dup3\n        /* \"#utility.yul\":12213:12222   */\n      dup7\n        /* \"#utility.yul\":12209:12231   */\n      add\n        /* \"#utility.yul\":12178:12241   */\n      tag_149\n      jump\t// in\n    tag_296:\n        /* \"#utility.yul\":12168:12241   */\n      swap2\n      pop\n        /* \"#utility.yul\":11963:12251   */\n      pop\n        /* \"#utility.yul\":11604:12258   */\n      swap3\n      pop\n      swap3\n      swap1\n      pop\n      jump\t// out\n        /* \"#utility.yul\":12264:12373   */\n    tag_150:\n        /* \"#utility.yul\":12345:12366   */\n      tag_298\n        /* \"#utility.yul\":12360:12365   */\n      dup2\n        /* \"#utility.yul\":12345:12366   */\n      tag_124\n      jump\t// in\n    tag_298:\n        /* \"#utility.yul\":12340:12343   */\n      dup3\n        /* \"#utility.yul\":12333:12367   */\n      mstore\n        /* \"#utility.yul\":12264:12373   */\n      pop\n      pop\n      jump\t// out\n        /* \"#utility.yul\":12379:12589   */\n    tag_30:\n        /* \"#utility.yul\":12466:12470   */\n      0x00\n        /* \"#utility.yul\":12504:12506   */\n      0x20\n        /* \"#utility.yul\":12493:12502   */\n      dup3\n        /* \"#utility.yul\":12489:12507   */\n      add\n        /* \"#utility.yul\":12481:12507   */\n      swap1\n      pop\n        /* \"#utility.yul\":12517:12582   */\n      tag_300\n        /* \"#utility.yul\":12579:12580   */\n      0x00\n        /* \"#utility.yul\":12568:12577   */\n      dup4\n        /* \"#utility.yul\":12564:12581   */\n      add\n        /* \"#utility.yul\":12555:12561   */\n      dup5\n        /* \"#utility.yul\":12517:12582   */\n      tag_150\n      jump\t// in\n    tag_300:\n        /* \"#utility.yul\":12379:12589   */\n      swap3\n      swap2\n      pop\n      pop\n      jump\t// out\n        /* \"#utility.yul\":12595:12717   */\n    tag_151:\n        /* \"#utility.yul\":12668:12692   */\n      tag_302\n        /* \"#utility.yul\":12686:12691   */\n      dup2\n        /* \"#utility.yul\":12668:12692   */\n      tag_118\n      jump\t// in\n    tag_302:\n        /* \"#utility.yul\":12661:12666   */\n      dup2\n        /* \"#utility.yul\":12658:12693   */\n      eq\n        /* \"#utility.yul\":12648:12711   */\n      tag_303\n      jumpi\n        /* \"#utility.yul\":12707:12708   */\n      0x00\n        /* \"#utility.yul\":12704:12705   */\n      0x00\n        /* \"#utility.yul\":12697:12709   */\n      revert\n        /* \"#utility.yul\":12648:12711   */\n    tag_303:\n        /* \"#utility.yul\":12595:12717   */\n      pop\n      jump\t// out\n        /* \"#utility.yul\":12723:12862   */\n    tag_152:\n        /* \"#utility.yul\":12769:12774   */\n      0x00\n        /* \"#utility.yul\":12807:12813   */\n      dup2\n        /* \"#utility.yul\":12794:12814   */\n      calldataload\n        /* \"#utility.yul\":12785:12814   */\n      swap1\n      pop\n        /* \"#utility.yul\":12823:12856   */\n      tag_305\n        /* \"#utility.yul\":12850:12855   */\n      dup2\n        /* \"#utility.yul\":12823:12856   */\n      tag_151\n      jump\t// in\n    tag_305:\n        /* \"#utility.yul\":12723:12862   */\n      swap3\n      swap2\n      pop\n      pop\n      jump\t// out\n        /* \"#utility.yul\":12868:13487   */\n    tag_33:\n        /* \"#utility.yul\":12945:12951   */\n      0x00\n        /* \"#utility.yul\":12953:12959   */\n      0x00\n        /* \"#utility.yul\":12961:12967   */\n      0x00\n        /* \"#utility.yul\":13010:13012   */\n      0x60\n        /* \"#utility.yul\":12998:13007   */\n      dup5\n        /* \"#utility.yul\":12989:12996   */\n      dup7\n        /* \"#utility.yul\":12985:13008   */\n      sub\n        /* \"#utility.yul\":12981:13013   */\n      slt\n        /* \"#utility.yul\":12978:13097   */\n      iszero\n      tag_307\n      jumpi\n        /* \"#utility.yul\":13016:13095   */\n      tag_308\n      tag_112\n      jump\t// in\n    tag_308:\n        /* \"#utility.yul\":12978:13097   */\n    tag_307:\n        /* \"#utility.yul\":13136:13137   */\n      0x00\n        /* \"#utility.yul\":13161:13214   */\n      tag_309\n        /* \"#utility.yul\":13206:13213   */\n      dup7\n        /* \"#utility.yul\":13197:13203   */\n      dup3\n        /* \"#utility.yul\":13186:13195   */\n      dup8\n        /* \"#utility.yul\":13182:13204   */\n      add\n        /* \"#utility.yul\":13161:13214   */\n      tag_116\n      jump\t// in\n    tag_309:\n        /* \"#utility.yul\":13151:13214   */\n      swap4\n      pop\n        /* \"#utility.yul\":13107:13224   */\n      pop\n        /* \"#utility.yul\":13263:13265   */\n      0x20\n        /* \"#utility.yul\":13289:13342   */\n      tag_310\n        /* \"#utility.yul\":13334:13341   */\n      dup7\n        /* \"#utility.yul\":13325:13331   */\n      dup3\n        /* \"#utility.yul\":13314:13323   */\n      dup8\n        /* \"#utility.yul\":13310:13332   */\n      add\n        /* \"#utility.yul\":13289:13342   */\n      tag_152\n      jump\t// in\n    tag_310:\n        /* \"#utility.yul\":13279:13342   */\n      swap3\n      pop\n        /* \"#utility.yul\":13234:13352   */\n      pop\n        /* \"#utility.yul\":13391:13393   */\n      0x40\n        /* \"#utility.yul\":13417:13470   */\n      tag_311\n        /* \"#utility.yul\":13462:13469   */\n      dup7\n        /* \"#utility.yul\":13453:13459   */\n      dup3\n        /* \"#utility.yul\":13442:13451   */\n      dup8\n        /* \"#utility.yul\":13438:13460   */\n      add\n        /* \"#utility.yul\":13417:13470   */\n      tag_116\n      jump\t// in\n    tag_311:\n        /* \"#utility.yul\":13407:13470   */\n      swap2\n      pop\n        /* \"#utility.yul\":13362:13480   */\n      pop\n        /* \"#utility.yul\":12868:13487   */\n      swap3\n      pop\n      swap3\n      pop\n      swap3\n      jump\t// out\n        /* \"#utility.yul\":13493:13662   */\n    tag_153:\n        /* \"#utility.yul\":13577:13588   */\n      0x00\n        /* \"#utility.yul\":13611:13617   */\n      dup3\n        /* \"#utility.yul\":13606:13609   */\n      dup3\n        /* \"#utility.yul\":13599:13618   */\n      mstore\n        /* \"#utility.yul\":13651:13655   */\n      0x20\n        /* \"#utility.yul\":13646:13649   */\n      dup3\n        /* \"#utility.yul\":13642:13656   */\n      add\n        /* \"#utility.yul\":13627:13656   */\n      swap1\n      pop\n        /* \"#utility.yul\":13493:13662   */\n      swap3\n      swap2\n      pop\n      pop\n      jump\t// out\n        /* \"#utility.yul\":13668:13840   */\n    tag_154:\n        /* \"#utility.yul\":13808:13832   */\n      0x4c6120616374756163696f6e206e6f2065786973746500000000000000000000\n        /* \"#utility.yul\":13804:13805   */\n      0x00\n        /* \"#utility.yul\":13796:13802   */\n      dup3\n        /* \"#utility.yul\":13792:13806   */\n      add\n        /* \"#utility.yul\":13785:13833   */\n      mstore\n        /* \"#utility.yul\":13668:13840   */\n      pop\n      jump\t// out\n        /* \"#utility.yul\":13846:14212   */\n    tag_155:\n        /* \"#utility.yul\":13988:13991   */\n      0x00\n        /* \"#utility.yul\":14009:14076   */\n      tag_315\n        /* \"#utility.yul\":14073:14075   */\n      0x16\n        /* \"#utility.yul\":14068:14071   */\n      dup4\n        /* \"#utility.yul\":14009:14076   */\n      tag_153\n      jump\t// in\n    tag_315:\n        /* \"#utility.yul\":14002:14076   */\n      swap2\n      pop\n        /* \"#utility.yul\":14085:14178   */\n      tag_316\n        /* \"#utility.yul\":14174:14177   */\n      dup3\n        /* \"#utility.yul\":14085:14178   */\n      tag_154\n      jump\t// in\n    tag_316:\n        /* \"#utility.yul\":14203:14205   */\n      0x20\n        /* \"#utility.yul\":14198:14201   */\n      dup3\n        /* \"#utility.yul\":14194:14206   */\n      add\n        /* \"#utility.yul\":14187:14206   */\n      swap1\n      pop\n        /* \"#utility.yul\":13846:14212   */\n      swap2\n      swap1\n      pop\n      jump\t// out\n        /* \"#utility.yul\":14218:14637   */\n    tag_40:\n        /* \"#utility.yul\":14384:14388   */\n      0x00\n        /* \"#utility.yul\":14422:14424   */\n      0x20\n        /* \"#utility.yul\":14411:14420   */\n      dup3\n        /* \"#utility.yul\":14407:14425   */\n      add\n        /* \"#utility.yul\":14399:14425   */\n      swap1\n      pop\n        /* \"#utility.yul\":14471:14480   */\n      dup2\n        /* \"#utility.yul\":14465:14469   */\n      dup2\n        /* \"#utility.yul\":14461:14481   */\n      sub\n        /* \"#utility.yul\":14457:14458   */\n      0x00\n        /* \"#utility.yul\":14446:14455   */\n      dup4\n        /* \"#utility.yul\":14442:14459   */\n      add\n        /* \"#utility.yul\":14435:14482   */\n      mstore\n        /* \"#utility.yul\":14499:14630   */\n      tag_318\n        /* \"#utility.yul\":14625:14629   */\n      dup2\n        /* \"#utility.yul\":14499:14630   */\n      tag_155\n      jump\t// in\n    tag_318:\n        /* \"#utility.yul\":14491:14630   */\n      swap1\n      pop\n        /* \"#utility.yul\":14218:14637   */\n      swap2\n      swap1\n      pop\n      jump\t// out\n        /* \"#utility.yul\":14643:14823   */\n    tag_156:\n        /* \"#utility.yul\":14691:14768   */\n      0x4e487b7100000000000000000000000000000000000000000000000000000000\n        /* \"#utility.yul\":14688:14689   */\n      0x00\n        /* \"#utility.yul\":14681:14769   */\n      mstore\n        /* \"#utility.yul\":14788:14792   */\n      0x22\n        /* \"#utility.yul\":14785:14786   */\n      0x04\n        /* \"#utility.yul\":14778:14793   */\n      mstore\n        /* \"#utility.yul\":14812:14816   */\n      0x24\n        /* \"#utility.yul\":14809:14810   */\n      0x00\n        /* \"#utility.yul\":14802:14817   */\n      revert\n        /* \"#utility.yul\":14829:15149   */\n    tag_58:\n        /* \"#utility.yul\":14873:14879   */\n      0x00\n        /* \"#utility.yul\":14910:14911   */\n      0x02\n        /* \"#utility.yul\":14904:14908   */\n      dup3\n        /* \"#utility.yul\":14900:14912   */\n      div\n        /* \"#utility.yul\":14890:14912   */\n      swap1\n      pop\n        /* \"#utility.yul\":14957:14958   */\n      0x01\n        /* \"#utility.yul\":14951:14955   */\n      dup3\n        /* \"#utility.yul\":14947:14959   */\n      and\n        /* \"#utility.yul\":14978:14996   */\n      dup1\n        /* \"#utility.yul\":14968:15049   */\n      tag_321\n      jumpi\n        /* \"#utility.yul\":15034:15038   */\n      0x7f\n        /* \"#utility.yul\":15026:15032   */\n      dup3\n        /* \"#utility.yul\":15022:15039   */\n      and\n        /* \"#utility.yul\":15012:15039   */\n      swap2\n      pop\n        /* \"#utility.yul\":14968:15049   */\n    tag_321:\n        /* \"#utility.yul\":15096:15098   */\n      0x20\n        /* \"#utility.yul\":15088:15094   */\n      dup3\n        /* \"#utility.yul\":15085:15099   */\n      lt\n        /* \"#utility.yul\":15065:15083   */\n      dup2\n        /* \"#utility.yul\":15062:15100   */\n      sub\n        /* \"#utility.yul\":15059:15143   */\n      tag_322\n      jumpi\n        /* \"#utility.yul\":15115:15133   */\n      tag_323\n      tag_156\n      jump\t// in\n    tag_323:\n        /* \"#utility.yul\":15059:15143   */\n    tag_322:\n        /* \"#utility.yul\":14880:15149   */\n      pop\n        /* \"#utility.yul\":14829:15149   */\n      swap2\n      swap1\n      pop\n      jump\t// out\n        /* \"#utility.yul\":15155:15325   */\n    tag_157:\n        /* \"#utility.yul\":15295:15317   */\n      0x4e6f20657320656c2070726f706965746172696f000000000000000000000000\n        /* \"#utility.yul\":15291:15292   */\n      0x00\n        /* \"#utility.yul\":15283:15289   */\n      dup3\n        /* \"#utility.yul\":15279:15293   */\n      add\n        /* \"#utility.yul\":15272:15318   */\n      mstore\n        /* \"#utility.yul\":15155:15325   */\n      pop\n      jump\t// out\n        /* \"#utility.yul\":15331:15697   */\n    tag_158:\n        /* \"#utility.yul\":15473:15476   */\n      0x00\n        /* \"#utility.yul\":15494:15561   */\n      tag_326\n        /* \"#utility.yul\":15558:15560   */\n      0x14\n        /* \"#utility.yul\":15553:15556   */\n      dup4\n        /* \"#utility.yul\":15494:15561   */\n      tag_153\n      jump\t// in\n    tag_326:\n        /* \"#utility.yul\":15487:15561   */\n      swap2\n      pop\n        /* \"#utility.yul\":15570:15663   */\n      tag_327\n        /* \"#utility.yul\":15659:15662   */\n      dup3\n        /* \"#utility.yul\":15570:15663   */\n      tag_157\n      jump\t// in\n    tag_327:\n        /* \"#utility.yul\":15688:15690   */\n      0x20\n        /* \"#utility.yul\":15683:15686   */\n      dup3\n        /* \"#utility.yul\":15679:15691   */\n      add\n        /* \"#utility.yul\":15672:15691   */\n      swap1\n      pop\n        /* \"#utility.yul\":15331:15697   */\n      swap2\n      swap1\n      pop\n      jump\t// out\n        /* \"#utility.yul\":15703:16122   */\n    tag_68:\n        /* \"#utility.yul\":15869:15873   */\n      0x00\n        /* \"#utility.yul\":15907:15909   */\n      0x20\n        /* \"#utility.yul\":15896:15905   */\n      dup3\n        /* \"#utility.yul\":15892:15910   */\n      add\n        /* \"#utility.yul\":15884:15910   */\n      swap1\n      pop\n        /* \"#utility.yul\":15956:15965   */\n      dup2\n        /* \"#utility.yul\":15950:15954   */\n      dup2\n        /* \"#utility.yul\":15946:15966   */\n      sub\n        /* \"#utility.yul\":15942:15943   */\n      0x00\n        /* \"#utility.yul\":15931:15940   */\n      dup4\n        /* \"#utility.yul\":15927:15944   */\n      add\n        /* \"#utility.yul\":15920:15967   */\n      mstore\n        /* \"#utility.yul\":15984:16115   */\n      tag_329\n        /* \"#utility.yul\":16110:16114   */\n      dup2\n        /* \"#utility.yul\":15984:16115   */\n      tag_158\n      jump\t// in\n    tag_329:\n        /* \"#utility.yul\":15976:16115   */\n      swap1\n      pop\n        /* \"#utility.yul\":15703:16122   */\n      swap2\n      swap1\n      pop\n      jump\t// out\n        /* \"#utility.yul\":16128:16269   */\n    tag_159:\n        /* \"#utility.yul\":16177:16181   */\n      0x00\n        /* \"#utility.yul\":16200:16203   */\n      dup2\n        /* \"#utility.yul\":16192:16203   */\n      swap1\n      pop\n        /* \"#utility.yul\":16223:16226   */\n      dup2\n        /* \"#utility.yul\":16220:16221   */\n      0x00\n        /* \"#utility.yul\":16213:16227   */\n      mstore\n        /* \"#utility.yul\":16257:16261   */\n      0x20\n        /* \"#utility.yul\":16254:16255   */\n      0x00\n        /* \"#utility.yul\":16244:16262   */\n      keccak256\n        /* \"#utility.yul\":16236:16262   */\n      swap1\n      pop\n        /* \"#utility.yul\":16128:16269   */\n      swap2\n      swap1\n      pop\n      jump\t// out\n        /* \"#utility.yul\":16275:16368   */\n    tag_160:\n        /* \"#utility.yul\":16312:16318   */\n      0x00\n        /* \"#utility.yul\":16359:16361   */\n      0x20\n        /* \"#utility.yul\":16354:16356   */\n      0x1f\n        /* \"#utility.yul\":16347:16352   */\n      dup4\n        /* \"#utility.yul\":16343:16357   */\n      add\n        /* \"#utility.yul\":16339:16362   */\n      div\n        /* \"#utility.yul\":16329:16362   */\n      swap1\n      pop\n        /* \"#utility.yul\":16275:16368   */\n      swap2\n      swap1\n      pop\n      jump\t// out\n        /* \"#utility.yul\":16374:16481   */\n    tag_161:\n        /* \"#utility.yul\":16418:16426   */\n      0x00\n        /* \"#utility.yul\":16468:16473   */\n      dup3\n        /* \"#utility.yul\":16462:16466   */\n      dup3\n        /* \"#utility.yul\":16458:16474   */\n      shl\n        /* \"#utility.yul\":16437:16474   */\n      swap1\n      pop\n        /* \"#utility.yul\":16374:16481   */\n      swap3\n      swap2\n      pop\n      pop\n      jump\t// out\n        /* \"#utility.yul\":16487:16880   */\n    tag_162:\n        /* \"#utility.yul\":16556:16562   */\n      0x00\n        /* \"#utility.yul\":16606:16607   */\n      0x08\n        /* \"#utility.yul\":16594:16604   */\n      dup4\n        /* \"#utility.yul\":16590:16608   */\n      mul\n        /* \"#utility.yul\":16629:16726   */\n      tag_334\n        /* \"#utility.yul\":16659:16725   */\n      0xffffffffffffffffffffffffffffffffffffffffffffffffffffffffffffffff\n        /* \"#utility.yul\":16648:16657   */\n      dup3\n        /* \"#utility.yul\":16629:16726   */\n      tag_161\n      jump\t// in\n    tag_334:\n        /* \"#utility.yul\":16747:16786   */\n      tag_335\n        /* \"#utility.yul\":16777:16785   */\n      dup7\n        /* \"#utility.yul\":16766:16775   */\n      dup4\n        /* \"#utility.yul\":16747:16786   */\n      tag_161\n      jump\t// in\n    tag_335:\n        /* \"#utility.yul\":16735:16786   */\n      swap6\n      pop\n        /* \"#utility.yul\":16819:16823   */\n      dup1\n        /* \"#utility.yul\":16815:16824   */\n      not\n        /* \"#utility.yul\":16808:16813   */\n      dup5\n        /* \"#utility.yul\":16804:16825   */\n      and\n        /* \"#utility.yul\":16795:16825   */\n      swap4\n      pop\n        /* \"#utility.yul\":16868:16872   */\n      dup1\n        /* \"#utility.yul\":16858:16866   */\n      dup7\n        /* \"#utility.yul\":16854:16873   */\n      and\n        /* \"#utility.yul\":16847:16852   */\n      dup5\n        /* \"#utility.yul\":16844:16874   */\n      or\n        /* \"#utility.yul\":16834:16874   */\n      swap3\n      pop\n        /* \"#utility.yul\":16563:16880   */\n      pop\n      pop\n        /* \"#utility.yul\":16487:16880   */\n      swap4\n      swap3\n      pop\n      pop\n      pop\n      jump\t// out\n        /* \"#utility.yul\":16886:16946   */\n    tag_163:\n        /* \"#utility.yul\":16914:16917   */\n      0x00\n        /* \"#utility.yul\":16935:16940   */\n      dup2\n        /* \"#utility.yul\":16928:16940   */\n      swap1\n      pop\n        /* \"#utility.yul\":16886:16946   */\n      swap2\n      swap1\n      pop\n      jump\t// out\n        /* \"#utility.yul\":16952:17094   */\n    tag_164:\n        /* \"#utility.yul\":17002:17011   */\n      0x00\n        /* \"#utility.yul\":17035:17088   */\n      tag_338\n        /* \"#utility.yul\":17053:17087   */\n      tag_339\n        /* \"#utility.yul\":17062:17086   */\n      tag_340\n        /* \"#utility.yul\":17080:17085   */\n      dup5\n        /* \"#utility.yul\":17062:17086   */\n      tag_118\n      jump\t// in\n    tag_340:\n        /* \"#utility.yul\":17053:17087   */\n      tag_163\n      jump\t// in\n    tag_339:\n        /* \"#utility.yul\":17035:17088   */\n      tag_118\n      jump\t// in\n    tag_338:\n        /* \"#utility.yul\":17022:17088   */\n      swap1\n      pop\n        /* \"#utility.yul\":16952:17094   */\n      swap2\n      swap1\n      pop\n      jump\t// out\n        /* \"#utility.yul\":17100:17175   */\n    tag_165:\n        /* \"#utility.yul\":17143:17146   */\n      0x00\n        /* \"#utility.yul\":17164:17169   */\n      dup2\n        /* \"#utility.yul\":17157:17169   */\n      swap1\n      pop\n        /* \"#utility.yul\":17100:17175   */\n      swap2\n      swap1\n      pop\n      jump\t// out\n        /* \"#utility.yul\":17181:17450   */\n    tag_166:\n        /* \"#utility.yul\":17291:17330   */\n      tag_343\n        /* \"#utility.yul\":17322:17329   */\n      dup4\n        /* \"#utility.yul\":17291:17330   */\n      tag_164\n      jump\t// in\n    tag_343:\n        /* \"#utility.yul\":17352:17443   */\n      tag_344\n        /* \"#utility.yul\":17401:17442   */\n      tag_345\n        /* \"#utility.yul\":17425:17441   */\n      dup3\n        /* \"#utility.yul\":17401:17442   */\n      tag_165\n      jump\t// in\n    tag_345:\n        /* \"#utility.yul\":17393:17399   */\n      dup5\n        /* \"#utility.yul\":17386:17390   */\n      dup5\n        /* \"#utility.yul\":17380:17391   */\n      sload\n        /* \"#utility.yul\":17352:17443   */\n      tag_162\n      jump\t// in\n    tag_344:\n        /* \"#utility.yul\":17346:17350   */\n      dup3\n        /* \"#utility.yul\":17339:17444   */\n      sstore\n        /* \"#utility.yul\":17257:17450   */\n      pop\n        /* \"#utility.yul\":17181:17450   */\n      pop\n      pop\n      pop\n      jump\t// out\n        /* \"#utility.yul\":17456:17529   */\n    tag_167:\n        /* \"#utility.yul\":17501:17504   */\n      0x00\n        /* \"#utility.yul\":17522:17523   */\n      0x00\n        /* \"#utility.yul\":17515:17523   */\n      swap1\n      pop\n        /* \"#utility.yul\":17456:17529   */\n      swap1\n      jump\t// out\n        /* \"#utility.yul\":17535:17724   */\n    tag_168:\n        /* \"#utility.yul\":17612:17644   */\n      tag_348\n      tag_167\n      jump\t// in\n    tag_348:\n        /* \"#utility.yul\":17653:17718   */\n      tag_349\n        /* \"#utility.yul\":17711:17717   */\n      dup2\n        /* \"#utility.yul\":17703:17709   */\n      dup5\n        /* \"#utility.yul\":17697:17701   */\n      dup5\n        /* \"#utility.yul\":17653:17718   */\n      tag_166\n      jump\t// in\n    tag_349:\n        /* \"#utility.yul\":17588:17724   */\n      pop\n        /* \"#utility.yul\":17535:17724   */\n      pop\n      pop\n      jump\t// out\n        /* \"#utility.yul\":17730:17944   */\n    tag_169:\n        /* \"#utility.yul\":17815:17816   */\n      0x00\n        /* \"#utility.yul\":17800:17938   */\n    tag_351:\n        /* \"#utility.yul\":17825:17834   */\n      dup3\n        /* \"#utility.yul\":17822:17823   */\n      dup2\n        /* \"#utility.yul\":17819:17835   */\n      lt\n        /* \"#utility.yul\":17800:17938   */\n      iszero\n      tag_353\n      jumpi\n        /* \"#utility.yul\":17877:17928   */\n      tag_354\n        /* \"#utility.yul\":17926:17927   */\n      0x00\n        /* \"#utility.yul\":17922:17923   */\n      dup3\n        /* \"#utility.yul\":17911:17920   */\n      dup5\n        /* \"#utility.yul\":17907:17924   */\n      add\n        /* \"#utility.yul\":17877:17928   */\n      tag_168\n      jump\t// in\n    tag_354:\n        /* \"#utility.yul\":17850:17851   */\n      0x01\n        /* \"#utility.yul\":17847:17848   */\n      dup2\n        /* \"#utility.yul\":17843:17852   */\n      add\n        /* \"#utility.yul\":17838:17852   */\n      swap1\n      pop\n        /* \"#utility.yul\":17800:17938   */\n      jump(tag_351)\n    tag_353:\n        /* \"#utility.yul\":17804:17818   */\n      pop\n        /* \"#utility.yul\":17730:17944   */\n      pop\n      pop\n      jump\t// out\n        /* \"#utility.yul\":17950:18696   */\n    tag_170:\n        /* \"#utility.yul\":18051:18053   */\n      0x1f\n        /* \"#utility.yul\":18046:18049   */\n      dup3\n        /* \"#utility.yul\":18043:18054   */\n      gt\n        /* \"#utility.yul\":18040:18689   */\n      iszero\n      tag_356\n      jumpi\n        /* \"#utility.yul\":18080:18090   */\n      dup3\n        /* \"#utility.yul\":18075:18078   */\n      dup3\n        /* \"#utility.yul\":18072:18091   */\n      gt\n        /* \"#utility.yul\":18069:18679   */\n      iszero\n      tag_357\n      jumpi\n        /* \"#utility.yul\":18126:18164   */\n      tag_358\n        /* \"#utility.yul\":18158:18163   */\n      dup2\n        /* \"#utility.yul\":18126:18164   */\n      tag_159\n      jump\t// in\n    tag_358:\n        /* \"#utility.yul\":18201:18223   */\n      tag_359\n        /* \"#utility.yul\":18219:18222   */\n      dup4\n        /* \"#utility.yul\":18201:18223   */\n      tag_160\n      jump\t// in\n    tag_359:\n        /* \"#utility.yul\":18260:18289   */\n      tag_360\n        /* \"#utility.yul\":18278:18288   */\n      dup6\n        /* \"#utility.yul\":18260:18289   */\n      tag_160\n      jump\t// in\n    tag_360:\n        /* \"#utility.yul\":18450:18452   */\n      0x20\n        /* \"#utility.yul\":18438:18448   */\n      dup7\n        /* \"#utility.yul\":18435:18453   */\n      lt\n        /* \"#utility.yul\":18432:18511   */\n      iszero\n      tag_361\n      jumpi\n        /* \"#utility.yul\":18492:18493   */\n      0x00\n        /* \"#utility.yul\":18476:18493   */\n      swap1\n      pop\n        /* \"#utility.yul\":18432:18511   */\n    tag_361:\n        /* \"#utility.yul\":18561:18573   */\n      dup1\n        /* \"#utility.yul\":18551:18559   */\n      dup4\n        /* \"#utility.yul\":18547:18574   */\n      add\n        /* \"#utility.yul\":18591:18665   */\n      tag_362\n        /* \"#utility.yul\":18651:18663   */\n      dup3\n        /* \"#utility.yul\":18637:18649   */\n      dup5\n        /* \"#utility.yul\":18633:18664   */\n      sub\n        /* \"#utility.yul\":18620:18631   */\n      dup3\n        /* \"#utility.yul\":18591:18665   */\n      tag_169\n      jump\t// in\n    tag_362:\n        /* \"#utility.yul\":18092:18679   */\n      pop\n      pop\n      pop\n      pop\n        /* \"#utility.yul\":18069:18679   */\n    tag_357:\n        /* \"#utility.yul\":18040:18689   */\n    tag_356:\n        /* \"#utility.yul\":17950:18696   */\n      pop\n      pop\n      pop\n      jump\t// out\n        /* \"#utility.yul\":18702:18819   */\n    tag_171:\n        /* \"#utility.yul\":18756:18764   */\n      0x00\n        /* \"#utility.yul\":18806:18811   */\n      dup3\n        /* \"#utility.yul\":18800:18804   */\n      dup3\n        /* \"#utility.yul\":18796:18812   */\n      shr\n        /* \"#utility.yul\":18775:18812   */\n      swap1\n      pop\n        /* \"#utility.yul\":18702:18819   */\n      swap3\n      swap2\n      pop\n      pop\n      jump\t// out\n        /* \"#utility.yul\":18825:18994   */\n    tag_172:\n        /* \"#utility.yul\":18869:18875   */\n      0x00\n        /* \"#utility.yul\":18902:18953   */\n      tag_365\n        /* \"#utility.yul\":18950:18951   */\n      0x00\n        /* \"#utility.yul\":18946:18952   */\n      not\n        /* \"#utility.yul\":18938:18943   */\n      dup5\n        /* \"#utility.yul\":18935:18936   */\n      0x08\n        /* \"#utility.yul\":18931:18944   */\n      mul\n        /* \"#utility.yul\":18902:18953   */\n      tag_171\n      jump\t// in\n    tag_365:\n        /* \"#utility.yul\":18898:18954   */\n      not\n        /* \"#utility.yul\":18983:18987   */\n      dup1\n        /* \"#utility.yul\":18977:18981   */\n      dup4\n        /* \"#utility.yul\":18973:18988   */\n      and\n        /* \"#utility.yul\":18963:18988   */\n      swap2\n      pop\n        /* \"#utility.yul\":18876:18994   */\n      pop\n        /* \"#utility.yul\":18825:18994   */\n      swap3\n      swap2\n      pop\n      pop\n      jump\t// out\n        /* \"#utility.yul\":18999:19294   */\n    tag_173:\n        /* \"#utility.yul\":19075:19079   */\n      0x00\n        /* \"#utility.yul\":19221:19250   */\n      tag_367\n        /* \"#utility.yul\":19246:19249   */\n      dup4\n        /* \"#utility.yul\":19240:19244   */\n      dup4\n        /* \"#utility.yul\":19221:19250   */\n      tag_172\n      jump\t// in\n    tag_367:\n        /* \"#utility.yul\":19213:19250   */\n      swap2\n      pop\n        /* \"#utility.yul\":19283:19286   */\n      dup3\n        /* \"#utility.yul\":19280:19281   */\n      0x02\n        /* \"#utility.yul\":19276:19287   */\n      mul\n        /* \"#utility.yul\":19270:19274   */\n      dup3\n        /* \"#utility.yul\":19267:19288   */\n      or\n        /* \"#utility.yul\":19259:19288   */\n      swap1\n      pop\n        /* \"#utility.yul\":18999:19294   */\n      swap3\n      swap2\n      pop\n      pop\n      jump\t// out\n        /* \"#utility.yul\":19299:20694   */\n    tag_81:\n        /* \"#utility.yul\":19416:19453   */\n      tag_369\n        /* \"#utility.yul\":19449:19452   */\n      dup3\n        /* \"#utility.yul\":19416:19453   */\n      tag_130\n      jump\t// in\n    tag_369:\n        /* \"#utility.yul\":19518:19536   */\n      0xffffffffffffffff\n        /* \"#utility.yul\":19510:19516   */\n      dup2\n        /* \"#utility.yul\":19507:19537   */\n      gt\n        /* \"#utility.yul\":19504:19560   */\n      iszero\n      tag_370\n      jumpi\n        /* \"#utility.yul\":19540:19558   */\n      tag_371\n      tag_143\n      jump\t// in\n    tag_371:\n        /* \"#utility.yul\":19504:19560   */\n    tag_370:\n        /* \"#utility.yul\":19584:19622   */\n      tag_372\n        /* \"#utility.yul\":19616:19620   */\n      dup3\n        /* \"#utility.yul\":19610:19621   */\n      sload\n        /* \"#utility.yul\":19584:19622   */\n      tag_58\n      jump\t// in\n    tag_372:\n        /* \"#utility.yul\":19669:19736   */\n      tag_373\n        /* \"#utility.yul\":19729:19735   */\n      dup3\n        /* \"#utility.yul\":19721:19727   */\n      dup3\n        /* \"#utility.yul\":19715:19719   */\n      dup6\n        /* \"#utility.yul\":19669:19736   */\n      tag_170\n      jump\t// in\n    tag_373:\n        /* \"#utility.yul\":19763:19764   */\n      0x00\n        /* \"#utility.yul\":19787:19791   */\n      0x20\n        /* \"#utility.yul\":19774:19791   */\n      swap1\n      pop\n        /* \"#utility.yul\":19819:19821   */\n      0x1f\n        /* \"#utility.yul\":19811:19817   */\n      dup4\n        /* \"#utility.yul\":19808:19822   */\n      gt\n        /* \"#utility.yul\":19836:19837   */\n      0x01\n        /* \"#utility.yul\":19831:20449   */\n      dup2\n      eq\n      tag_375\n      jumpi\n        /* \"#utility.yul\":20493:20494   */\n      0x00\n        /* \"#utility.yul\":20510:20516   */\n      dup5\n        /* \"#utility.yul\":20507:20584   */\n      iszero\n      tag_376\n      jumpi\n        /* \"#utility.yul\":20559:20568   */\n      dup3\n        /* \"#utility.yul\":20554:20557   */\n      dup8\n        /* \"#utility.yul\":20550:20569   */\n      add\n        /* \"#utility.yul\":20544:20570   */\n      mload\n        /* \"#utility.yul\":20535:20570   */\n      swap1\n      pop\n        /* \"#utility.yul\":20507:20584   */\n    tag_376:\n        /* \"#utility.yul\":20610:20677   */\n      tag_377\n        /* \"#utility.yul\":20670:20676   */\n      dup6\n        /* \"#utility.yul\":20663:20668   */\n      dup3\n        /* \"#utility.yul\":20610:20677   */\n      tag_173\n      jump\t// in\n    tag_377:\n        /* \"#utility.yul\":20604:20608   */\n      dup7\n        /* \"#utility.yul\":20597:20678   */\n      sstore\n        /* \"#utility.yul\":20466:20688   */\n      pop\n        /* \"#utility.yul\":19801:20688   */\n      jump(tag_374)\n        /* \"#utility.yul\":19831:20449   */\n    tag_375:\n        /* \"#utility.yul\":19883:19887   */\n      0x1f\n        /* \"#utility.yul\":19879:19888   */\n      not\n        /* \"#utility.yul\":19871:19877   */\n      dup5\n        /* \"#utility.yul\":19867:19889   */\n      and\n        /* \"#utility.yul\":19917:19954   */\n      tag_378\n        /* \"#utility.yul\":19949:19953   */\n      dup7\n        /* \"#utility.yul\":19917:19954   */\n      tag_159\n      jump\t// in\n    tag_378:\n        /* \"#utility.yul\":19976:19977   */\n      0x00\n        /* \"#utility.yul\":19990:20198   */\n    tag_379:\n        /* \"#utility.yul\":20004:20011   */\n      dup3\n        /* \"#utility.yul\":20001:20002   */\n      dup2\n        /* \"#utility.yul\":19998:20012   */\n      lt\n        /* \"#utility.yul\":19990:20198   */\n      iszero\n      tag_381\n      jumpi\n        /* \"#utility.yul\":20083:20092   */\n      dup5\n        /* \"#utility.yul\":20078:20081   */\n      dup10\n        /* \"#utility.yul\":20074:20093   */\n      add\n        /* \"#utility.yul\":20068:20094   */\n      mload\n        /* \"#utility.yul\":20060:20066   */\n      dup3\n        /* \"#utility.yul\":20053:20095   */\n      sstore\n        /* \"#utility.yul\":20134:20135   */\n      0x01\n        /* \"#utility.yul\":20126:20132   */\n      dup3\n        /* \"#utility.yul\":20122:20136   */\n      add\n        /* \"#utility.yul\":20112:20136   */\n      swap2\n      pop\n        /* \"#utility.yul\":20181:20183   */\n      0x20\n        /* \"#utility.yul\":20170:20179   */\n      dup6\n        /* \"#utility.yul\":20166:20184   */\n      add\n        /* \"#utility.yul\":20153:20184   */\n      swap5\n      pop\n        /* \"#utility.yul\":20027:20031   */\n      0x20\n        /* \"#utility.yul\":20024:20025   */\n      dup2\n        /* \"#utility.yul\":20020:20032   */\n      add\n        /* \"#utility.yul\":20015:20032   */\n      swap1\n      pop\n        /* \"#utility.yul\":19990:20198   */\n      jump(tag_379)\n    tag_381:\n        /* \"#utility.yul\":20226:20232   */\n      dup7\n        /* \"#utility.yul\":20217:20224   */\n      dup4\n        /* \"#utility.yul\":20214:20233   */\n      lt\n        /* \"#utility.yul\":20211:20390   */\n      iszero\n      tag_382\n      jumpi\n        /* \"#utility.yul\":20284:20293   */\n      dup5\n        /* \"#utility.yul\":20279:20282   */\n      dup10\n        /* \"#utility.yul\":20275:20294   */\n      add\n        /* \"#utility.yul\":20269:20295   */\n      mload\n        /* \"#utility.yul\":20327:20375   */\n      tag_383\n        /* \"#utility.yul\":20369:20373   */\n      0x1f\n        /* \"#utility.yul\":20361:20367   */\n      dup10\n        /* \"#utility.yul\":20357:20374   */\n      and\n        /* \"#utility.yul\":20346:20355   */\n      dup3\n        /* \"#utility.yul\":20327:20375   */\n      tag_172\n      jump\t// in\n    tag_383:\n        /* \"#utility.yul\":20319:20325   */\n      dup4\n        /* \"#utility.yul\":20312:20376   */\n      sstore\n        /* \"#utility.yul\":20234:20390   */\n      pop\n        /* \"#utility.yul\":20211:20390   */\n    tag_382:\n        /* \"#utility.yul\":20436:20437   */\n      0x01\n        /* \"#utility.yul\":20432:20433   */\n      0x02\n        /* \"#utility.yul\":20424:20430   */\n      dup9\n        /* \"#utility.yul\":20420:20434   */\n      mul\n        /* \"#utility.yul\":20416:20438   */\n      add\n        /* \"#utility.yul\":20410:20414   */\n      dup9\n        /* \"#utility.yul\":20403:20439   */\n      sstore\n        /* \"#utility.yul\":19838:20449   */\n      pop\n      pop\n      pop\n        /* \"#utility.yul\":19801:20688   */\n    tag_374:\n      pop\n        /* \"#utility.yul\":19391:20694   */\n      pop\n      pop\n      pop\n        /* \"#utility.yul\":19299:20694   */\n      pop\n      pop\n      jump\t// out\n        /* \"#utility.yul\":20700:21077   */\n    tag_174:\n        /* \"#utility.yul\":20788:20791   */\n      0x00\n        /* \"#utility.yul\":20816:20855   */\n      tag_385\n        /* \"#utility.yul\":20849:20854   */\n      dup3\n        /* \"#utility.yul\":20816:20855   */\n      tag_130\n      jump\t// in\n    tag_385:\n        /* \"#utility.yul\":20871:20942   */\n      tag_386\n        /* \"#utility.yul\":20935:20941   */\n      dup2\n        /* \"#utility.yul\":20930:20933   */\n      dup6\n        /* \"#utility.yul\":20871:20942   */\n      tag_153\n      jump\t// in\n    tag_386:\n        /* \"#utility.yul\":20864:20942   */\n      swap4\n      pop\n        /* \"#utility.yul\":20951:21016   */\n      tag_387\n        /* \"#utility.yul\":21009:21015   */\n      dup2\n        /* \"#utility.yul\":21004:21007   */\n      dup6\n        /* \"#utility.yul\":20997:21001   */\n      0x20\n        /* \"#utility.yul\":20990:20995   */\n      dup7\n        /* \"#utility.yul\":20986:21002   */\n      add\n        /* \"#utility.yul\":20951:21016   */\n      tag_132\n      jump\t// in\n    tag_387:\n        /* \"#utility.yul\":21041:21070   */\n      tag_388\n        /* \"#utility.yul\":21063:21069   */\n      dup2\n        /* \"#utility.yul\":21041:21070   */\n      tag_133\n      jump\t// in\n    tag_388:\n        /* \"#utility.yul\":21036:21039   */\n      dup5\n        /* \"#utility.yul\":21032:21071   */\n      add\n        /* \"#utility.yul\":21025:21071   */\n      swap2\n      pop\n        /* \"#utility.yul\":20792:21077   */\n      pop\n        /* \"#utility.yul\":20700:21077   */\n      swap3\n      swap2\n      pop\n      pop\n      jump\t// out\n        /* \"#utility.yul\":21083:21396   */\n    tag_83:\n        /* \"#utility.yul\":21196:21200   */\n      0x00\n        /* \"#utility.yul\":21234:21236   */\n      0x20\n        /* \"#utility.yul\":21223:21232   */\n      dup3\n        /* \"#utility.yul\":21219:21237   */\n      add\n        /* \"#utility.yul\":21211:21237   */\n      swap1\n      pop\n        /* \"#utility.yul\":21283:21292   */\n      dup2\n        /* \"#utility.yul\":21277:21281   */\n      dup2\n        /* \"#utility.yul\":21273:21293   */\n      sub\n        /* \"#utility.yul\":21269:21270   */\n      0x00\n        /* \"#utility.yul\":21258:21267   */\n      dup4\n        /* \"#utility.yul\":21254:21271   */\n      add\n        /* \"#utility.yul\":21247:21294   */\n      mstore\n        /* \"#utility.yul\":21311:21389   */\n      tag_390\n        /* \"#utility.yul\":21384:21388   */\n      dup2\n        /* \"#utility.yul\":21375:21381   */\n      dup5\n        /* \"#utility.yul\":21311:21389   */\n      tag_174\n      jump\t// in\n    tag_390:\n        /* \"#utility.yul\":21303:21389   */\n      swap1\n      pop\n        /* \"#utility.yul\":21083:21396   */\n      swap3\n      swap2\n      pop\n      pop\n      jump\t// out\n        /* \"#utility.yul\":21402:21574   */\n    tag_175:\n        /* \"#utility.yul\":21542:21566   */\n      0x4c6120616374756163696f6e2079612065786973746500000000000000000000\n        /* \"#utility.yul\":21538:21539   */\n      0x00\n        /* \"#utility.yul\":21530:21536   */\n      dup3\n        /* \"#utility.yul\":21526:21540   */\n      add\n        /* \"#utility.yul\":21519:21567   */\n      mstore\n        /* \"#utility.yul\":21402:21574   */\n      pop\n      jump\t// out\n        /* \"#utility.yul\":21580:21946   */\n    tag_176:\n        /* \"#utility.yul\":21722:21725   */\n      0x00\n        /* \"#utility.yul\":21743:21810   */\n      tag_393\n        /* \"#utility.yul\":21807:21809   */\n      0x16\n        /* \"#utility.yul\":21802:21805   */\n      dup4\n        /* \"#utility.yul\":21743:21810   */\n      tag_153\n      jump\t// in\n    tag_393:\n        /* \"#utility.yul\":21736:21810   */\n      swap2\n      pop\n        /* \"#utility.yul\":21819:21912   */\n      tag_394\n        /* \"#utility.yul\":21908:21911   */\n      dup3\n        /* \"#utility.yul\":21819:21912   */\n      tag_175\n      jump\t// in\n    tag_394:\n        /* \"#utility.yul\":21937:21939   */\n      0x20\n        /* \"#utility.yul\":21932:21935   */\n      dup3\n        /* \"#utility.yul\":21928:21940   */\n      add\n        /* \"#utility.yul\":21921:21940   */\n      swap1\n      pop\n        /* \"#utility.yul\":21580:21946   */\n      swap2\n      swap1\n      pop\n      jump\t// out\n        /* \"#utility.yul\":21952:22371   */\n    tag_87:\n        /* \"#utility.yul\":22118:22122   */\n      0x00\n        /* \"#utility.yul\":22156:22158   */\n      0x20\n        /* \"#utility.yul\":22145:22154   */\n      dup3\n        /* \"#utility.yul\":22141:22159   */\n      add\n        /* \"#utility.yul\":22133:22159   */\n      swap1\n      pop\n        /* \"#utility.yul\":22205:22214   */\n      dup2\n        /* \"#utility.yul\":22199:22203   */\n      dup2\n        /* \"#utility.yul\":22195:22215   */\n      sub\n        /* \"#utility.yul\":22191:22192   */\n      0x00\n        /* \"#utility.yul\":22180:22189   */\n      dup4\n        /* \"#utility.yul\":22176:22193   */\n      add\n        /* \"#utility.yul\":22169:22216   */\n      mstore\n        /* \"#utility.yul\":22233:22364   */\n      tag_396\n        /* \"#utility.yul\":22359:22363   */\n      dup2\n        /* \"#utility.yul\":22233:22364   */\n      tag_176\n      jump\t// in\n    tag_396:\n        /* \"#utility.yul\":22225:22364   */\n      swap1\n      pop\n        /* \"#utility.yul\":21952:22371   */\n      swap2\n      swap1\n      pop\n      jump\t// out\n        /* \"#utility.yul\":22377:22601   */\n    tag_177:\n        /* \"#utility.yul\":22517:22551   */\n      0x4e6f2073652068612070616761646f206c612074617269666120646520726567\n        /* \"#utility.yul\":22513:22514   */\n      0x00\n        /* \"#utility.yul\":22505:22511   */\n      dup3\n        /* \"#utility.yul\":22501:22515   */\n      add\n        /* \"#utility.yul\":22494:22552   */\n      mstore\n        /* \"#utility.yul\":22586:22593   */\n      0x697374726f000000000000000000000000000000000000000000000000000000\n        /* \"#utility.yul\":22581:22583   */\n      0x20\n        /* \"#utility.yul\":22573:22579   */\n      dup3\n        /* \"#utility.yul\":22569:22584   */\n      add\n        /* \"#utility.yul\":22562:22594   */\n      mstore\n        /* \"#utility.yul\":22377:22601   */\n      pop\n      jump\t// out\n        /* \"#utility.yul\":22607:22973   */\n    tag_178:\n        /* \"#utility.yul\":22749:22752   */\n      0x00\n        /* \"#utility.yul\":22770:22837   */\n      tag_399\n        /* \"#utility.yul\":22834:22836   */\n      0x25\n        /* \"#utility.yul\":22829:22832   */\n      dup4\n        /* \"#utility.yul\":22770:22837   */\n      tag_153\n      jump\t// in\n    tag_399:\n        /* \"#utility.yul\":22763:22837   */\n      swap2\n      pop\n        /* \"#utility.yul\":22846:22939   */\n      tag_400\n        /* \"#utility.yul\":22935:22938   */\n      dup3\n        /* \"#utility.yul\":22846:22939   */\n      tag_177\n      jump\t// in\n    tag_400:\n        /* \"#utility.yul\":22964:22966   */\n      0x40\n        /* \"#utility.yul\":22959:22962   */\n      dup3\n        /* \"#utility.yul\":22955:22967   */\n      add\n        /* \"#utility.yul\":22948:22967   */\n      swap1\n      pop\n        /* \"#utility.yul\":22607:22973   */\n      swap2\n      swap1\n      pop\n      jump\t// out\n        /* \"#utility.yul\":22979:23398   */\n    tag_90:\n        /* \"#utility.yul\":23145:23149   */\n      0x00\n        /* \"#utility.yul\":23183:23185   */\n      0x20\n        /* \"#utility.yul\":23172:23181   */\n      dup3\n        /* \"#utility.yul\":23168:23186   */\n      add\n        /* \"#utility.yul\":23160:23186   */\n      swap1\n      pop\n        /* \"#utility.yul\":23232:23241   */\n      dup2\n        /* \"#utility.yul\":23226:23230   */\n      dup2\n        /* \"#utility.yul\":23222:23242   */\n      sub\n        /* \"#utility.yul\":23218:23219   */\n      0x00\n        /* \"#utility.yul\":23207:23216   */\n      dup4\n        /* \"#utility.yul\":23203:23220   */\n      add\n        /* \"#utility.yul\":23196:23243   */\n      mstore\n        /* \"#utility.yul\":23260:23391   */\n      tag_402\n        /* \"#utility.yul\":23386:23390   */\n      dup2\n        /* \"#utility.yul\":23260:23391   */\n      tag_178\n      jump\t// in\n    tag_402:\n        /* \"#utility.yul\":23252:23391   */\n      swap1\n      pop\n        /* \"#utility.yul\":22979:23398   */\n      swap2\n      swap1\n      pop\n      jump\t// out\n        /* \"#utility.yul\":23404:23522   */\n    tag_179:\n        /* \"#utility.yul\":23491:23515   */\n      tag_404\n        /* \"#utility.yul\":23509:23514   */\n      dup2\n        /* \"#utility.yul\":23491:23515   */\n      tag_114\n      jump\t// in\n    tag_404:\n        /* \"#utility.yul\":23486:23489   */\n      dup3\n        /* \"#utility.yul\":23479:23516   */\n      mstore\n        /* \"#utility.yul\":23404:23522   */\n      pop\n      pop\n      jump\t// out\n        /* \"#utility.yul\":23528:23970   */\n    tag_105:\n        /* \"#utility.yul\":23677:23681   */\n      0x00\n        /* \"#utility.yul\":23715:23717   */\n      0x60\n        /* \"#utility.yul\":23704:23713   */\n      dup3\n        /* \"#utility.yul\":23700:23718   */\n      add\n        /* \"#utility.yul\":23692:23718   */\n      swap1\n      pop\n        /* \"#utility.yul\":23728:23799   */\n      tag_406\n        /* \"#utility.yul\":23796:23797   */\n      0x00\n        /* \"#utility.yul\":23785:23794   */\n      dup4\n        /* \"#utility.yul\":23781:23798   */\n      add\n        /* \"#utility.yul\":23772:23778   */\n      dup7\n        /* \"#utility.yul\":23728:23799   */\n      tag_140\n      jump\t// in\n    tag_406:\n        /* \"#utility.yul\":23809:23881   */\n      tag_407\n        /* \"#utility.yul\":23877:23879   */\n      0x20\n        /* \"#utility.yul\":23866:23875   */\n      dup4\n        /* \"#utility.yul\":23862:23880   */\n      add\n        /* \"#utility.yul\":23853:23859   */\n      dup6\n        /* \"#utility.yul\":23809:23881   */\n      tag_140\n      jump\t// in\n    tag_407:\n        /* \"#utility.yul\":23891:23963   */\n      tag_408\n        /* \"#utility.yul\":23959:23961   */\n      0x40\n        /* \"#utility.yul\":23948:23957   */\n      dup4\n        /* \"#utility.yul\":23944:23962   */\n      add\n        /* \"#utility.yul\":23935:23941   */\n      dup5\n        /* \"#utility.yul\":23891:23963   */\n      tag_179\n      jump\t// in\n    tag_408:\n        /* \"#utility.yul\":23528:23970   */\n      swap5\n      swap4\n      pop\n      pop\n      pop\n      pop\n      jump\t// out\n\n    auxdata: 0xa26469706673582212206ecddc238e74898dd6bf49e295fd798acf9ab854beadf7ff1b67c5dd3d53a5ab64736f6c63430008220033\n}\n",
				"bytecode": {
					"linkReferences": {},
					"object": "6080604052348015600e575f5ffd5b50335f5f6101000a81548173ffffffffffffffffffffffffffffffffffffffff021916908373ffffffffffffffffffffffffffffffffffffffff1602179055506116598061005b5f395ff3fe608060405260043610610049575f3560e01c80633c4f81cd1461004d5780634580e5871461007757806352b5241e146100b35780636547300b146100dd5780639f57731614610119575b5f5ffd5b348015610058575f5ffd5b50610061610135565b60405161006e9190610ae2565b60405180910390f35b348015610082575f5ffd5b5061009d60048036038101906100989190610b3f565b610159565b6040516100aa9190610e64565b60405180910390f35b3480156100be575f5ffd5b506100c7610421565b6040516100d49190610e93565b60405180910390f35b3480156100e8575f5ffd5b5061010360048036038101906100fe9190610fd8565b610427565b6040516101109190611041565b60405180910390f35b610133600480360381019061012e9190611084565b610701565b005b5f5f9054906101000a900473ffffffffffffffffffffffffffffffffffffffff1681565b610161610a58565b60015f8381526020019081526020015f2060040160019054906101000a900460ff166101c2576040517f08c379a00000000000000000000000000000000000000000000000000000000081526004016101b99061112e565b60405180910390fd5b60015f8381526020019081526020015f206040518060e00160405290815f8201548152602001600182015481526020016002820154815260200160038201548152602001600482015f9054906101000a900460ff16600281111561022957610228610b91565b5b600281111561023b5761023a610b91565b5b81526020016004820160019054906101000a900460ff1615151515815260200160058201805480602002602001604051908101604052809291908181526020015f905b82821015610412578382905f5260205f2090600302016040518060a00160405290815f8201548152602001600182015f9054906101000a900460ff1660028111156102cc576102cb610b91565b5b60028111156102de576102dd610b91565b5b81526020016001820160019054906101000a900460ff16600281111561030757610306610b91565b5b600281111561031957610318610b91565b5b81526020016001820160029054906101000a900473ffffffffffffffffffffffffffffffffffffffff1673ffffffffffffffffffffffffffffffffffffffff1673ffffffffffffffffffffffffffffffffffffffff16815260200160028201805461038390611179565b80601f01602080910402602001604051908101604052809291908181526020018280546103af90611179565b80156103fa5780601f106103d1576101008083540402835291602001916103fa565b820191905f5260205f20905b8154815290600101906020018083116103dd57829003601f168201915b5050505050815250508152602001906001019061027e565b50505050815250509050919050565b6101f481565b5f60015f8481526020019081526020015f2060040160019054906101000a900460ff16610489576040517f08c379a00000000000000000000000000000000000000000000000000000000081526004016104809061112e565b60405180910390fd5b5f5f9054906101000a900473ffffffffffffffffffffffffffffffffffffffff1673ffffffffffffffffffffffffffffffffffffffff163373ffffffffffffffffffffffffffffffffffffffff1614610517576040517f08c379a000000000000000000000000000000000000000000000000000000000815260040161050e906111f3565b60405180910390fd5b5f60015f8581526020019081526020015f2090505f816004015f9054906101000a900460ff1690506001826004015f6101000a81548160ff0219169083600281111561056657610565610b91565b5b0217905550816005016040518060a0016040528042815260200183600281111561059357610592610b91565b5b8152602001600160028111156105ac576105ab610b91565b5b81526020013373ffffffffffffffffffffffffffffffffffffffff16815260200186815250908060018154018082558091505060019003905f5260205f2090600302015f909190919091505f820151815f01556020820151816001015f6101000a81548160ff0219169083600281111561062957610628610b91565b5b021790555060408201518160010160016101000a81548160ff0219169083600281111561065957610658610b91565b5b021790555060608201518160010160026101000a81548173ffffffffffffffffffffffffffffffffffffffff021916908373ffffffffffffffffffffffffffffffffffffffff16021790555060808201518160020190816106ba91906113c2565b505050847f90a6c459e2aa557ee0fbe12339856cc69594869763fdcac70015ef2068ef2265856040516106ed91906114c9565b60405180910390a260019250505092915050565b60015f8481526020019081526020015f2060040160019054906101000a900460ff1615610763576040517f08c379a000000000000000000000000000000000000000000000000000000000815260040161075a90611533565b60405180910390fd5b6101f43410156107a8576040517f08c379a000000000000000000000000000000000000000000000000000000000815260040161079f906115c1565b60405180910390fd5b5f60015f8581526020019081526020015f20905060018160040160016101000a81548160ff0219169083151502179055508281600201819055508181600301819055504281600101819055505f816004015f6101000a81548160ff0219169083600281111561081a57610819610b91565b5b0217905550335f5f6101000a81548173ffffffffffffffffffffffffffffffffffffffff021916908373ffffffffffffffffffffffffffffffffffffffff160217905550806005016040518060a001604052804281526020015f600281111561088657610885610b91565b5b81526020015f600281111561089e5761089d610b91565b5b81526020013373ffffffffffffffffffffffffffffffffffffffff1681526020016040518060400160405280601081526020017f4372656163696f6e20696e696369616c00000000000000000000000000000000815250815250908060018154018082558091505060019003905f5260205f2090600302015f909190919091505f820151815f01556020820151816001015f6101000a81548160ff021916908360028111156109505761094f610b91565b5b021790555060408201518160010160016101000a81548160ff021916908360028111156109805761097f610b91565b5b021790555060608201518160010160026101000a81548173ffffffffffffffffffffffffffffffffffffffff021916908373ffffffffffffffffffffffffffffffffffffffff16021790555060808201518160020190816109e191906113c2565b505050600284908060018154018082558091505060019003905f5260205f20015f9091909190915055837f63cd7d7ccb65790505f0d377f7a9fcb0974002f2a470411356e7cd48660b4c8b826001015483600201548460030154604051610a4a939291906115ee565b60405180910390a250505050565b6040518060e001604052805f81526020015f81526020015f81526020015f81526020015f6002811115610a8e57610a8d610b91565b5b81526020015f15158152602001606081525090565b5f73ffffffffffffffffffffffffffffffffffffffff82169050919050565b5f610acc82610aa3565b9050919050565b610adc81610ac2565b82525050565b5f602082019050610af55f830184610ad3565b92915050565b5f604051905090565b5f5ffd5b5f5ffd5b5f819050919050565b610b1e81610b0c565b8114610b28575f5ffd5b50565b5f81359050610b3981610b15565b92915050565b5f60208284031215610b5457610b53610b04565b5b5f610b6184828501610b2b565b91505092915050565b610b7381610b0c565b82525050565b5f819050919050565b610b8b81610b79565b82525050565b7f4e487b71000000000000000000000000000000000000000000000000000000005f52602160045260245ffd5b60038110610bcf57610bce610b91565b5b50565b5f819050610bdf82610bbe565b919050565b5f610bee82610bd2565b9050919050565b610bfe81610be4565b82525050565b5f8115159050919050565b610c1881610c04565b82525050565b5f81519050919050565b5f82825260208201905092915050565b5f819050602082019050919050565b610c5081610ac2565b82525050565b5f81519050919050565b5f82825260208201905092915050565b8281835e5f83830152505050565b5f601f19601f8301169050919050565b5f610c9882610c56565b610ca28185610c60565b9350610cb2818560208601610c70565b610cbb81610c7e565b840191505092915050565b5f60a083015f830151610cdb5f860182610b82565b506020830151610cee6020860182610bf5565b506040830151610d016040860182610bf5565b506060830151610d146060860182610c47565b5060808301518482036080860152610d2c8282610c8e565b9150508091505092915050565b5f610d448383610cc6565b905092915050565b5f602082019050919050565b5f610d6282610c1e565b610d6c8185610c28565b935083602082028501610d7e85610c38565b805f5b85811015610db95784840389528151610d9a8582610d39565b9450610da583610d4c565b925060208a01995050600181019050610d81565b50829750879550505050505092915050565b5f60e083015f830151610de05f860182610b6a565b506020830151610df36020860182610b82565b506040830151610e066040860182610b82565b506060830151610e196060860182610b6a565b506080830151610e2c6080860182610bf5565b5060a0830151610e3f60a0860182610c0f565b5060c083015184820360c0860152610e578282610d58565b9150508091505092915050565b5f6020820190508181035f830152610e7c8184610dcb565b905092915050565b610e8d81610b79565b82525050565b5f602082019050610ea65f830184610e84565b92915050565b5f5ffd5b5f5ffd5b7f4e487b71000000000000000000000000000000000000000000000000000000005f52604160045260245ffd5b610eea82610c7e565b810181811067ffffffffffffffff82111715610f0957610f08610eb4565b5b80604052505050565b5f610f1b610afb565b9050610f278282610ee1565b919050565b5f67ffffffffffffffff821115610f4657610f45610eb4565b5b610f4f82610c7e565b9050602081019050919050565b828183375f83830152505050565b5f610f7c610f7784610f2c565b610f12565b905082815260208101848484011115610f9857610f97610eb0565b5b610fa3848285610f5c565b509392505050565b5f82601f830112610fbf57610fbe610eac565b5b8135610fcf848260208601610f6a565b91505092915050565b5f5f60408385031215610fee57610fed610b04565b5b5f610ffb85828601610b2b565b925050602083013567ffffffffffffffff81111561101c5761101b610b08565b5b61102885828601610fab565b9150509250929050565b61103b81610c04565b82525050565b5f6020820190506110545f830184611032565b92915050565b61106381610b79565b811461106d575f5ffd5b50565b5f8135905061107e8161105a565b92915050565b5f5f5f6060848603121561109b5761109a610b04565b5b5f6110a886828701610b2b565b93505060206110b986828701611070565b92505060406110ca86828701610b2b565b9150509250925092565b5f82825260208201905092915050565b7f4c6120616374756163696f6e206e6f20657869737465000000000000000000005f82015250565b5f6111186016836110d4565b9150611123826110e4565b602082019050919050565b5f6020820190508181035f8301526111458161110c565b9050919050565b7f4e487b71000000000000000000000000000000000000000000000000000000005f52602260045260245ffd5b5f600282049050600182168061119057607f821691505b6020821081036111a3576111a261114c565b5b50919050565b7f4e6f20657320656c2070726f706965746172696f0000000000000000000000005f82015250565b5f6111dd6014836110d4565b91506111e8826111a9565b602082019050919050565b5f6020820190508181035f83015261120a816111d1565b9050919050565b5f819050815f5260205f209050919050565b5f6020601f8301049050919050565b5f82821b905092915050565b5f6008830261126d7fffffffffffffffffffffffffffffffffffffffffffffffffffffffffffffffff82611232565b6112778683611232565b95508019841693508086168417925050509392505050565b5f819050919050565b5f6112b26112ad6112a884610b79565b61128f565b610b79565b9050919050565b5f819050919050565b6112cb83611298565b6112df6112d7826112b9565b84845461123e565b825550505050565b5f5f905090565b6112f66112e7565b6113018184846112c2565b505050565b5f5b828110156113275761131c5f8284016112ee565b600181019050611308565b505050565b601f82111561137a57828211156113795761134681611211565b61134f83611223565b61135885611223565b6020861015611365575f90505b80830161137482840382611306565b505050505b5b505050565b5f82821c905092915050565b5f61139a5f198460080261137f565b1980831691505092915050565b5f6113b2838361138b565b9150826002028217905092915050565b6113cb82610c56565b67ffffffffffffffff8111156113e4576113e3610eb4565b5b6113ee8254611179565b6113f982828561132c565b5f60209050601f83116001811461142a575f8415611418578287015190505b61142285826113a7565b865550611489565b601f19841661143886611211565b5f5b8281101561145f5784890151825560018201915060208501945060208101905061143a565b8683101561147c5784890151611478601f89168261138b565b8355505b6001600288020188555050505b505050505050565b5f61149b82610c56565b6114a581856110d4565b93506114b5818560208601610c70565b6114be81610c7e565b840191505092915050565b5f6020820190508181035f8301526114e18184611491565b905092915050565b7f4c6120616374756163696f6e20796120657869737465000000000000000000005f82015250565b5f61151d6016836110d4565b9150611528826114e9565b602082019050919050565b5f6020820190508181035f83015261154a81611511565b9050919050565b7f4e6f2073652068612070616761646f206c6120746172696661206465207265675f8201527f697374726f000000000000000000000000000000000000000000000000000000602082015250565b5f6115ab6025836110d4565b91506115b682611551565b604082019050919050565b5f6020820190508181035f8301526115d88161159f565b9050919050565b6115e881610b0c565b82525050565b5f6060820190506116015f830186610e84565b61160e6020830185610e84565b61161b60408301846115df565b94935050505056fea26469706673582212206ecddc238e74898dd6bf49e295fd798acf9ab854beadf7ff1b67c5dd3d53a5ab64736f6c63430008220033",
					"opcodes": "PUSH1 0x80 PUSH1 0x40 MSTORE CALLVALUE DUP1 ISZERO PUSH1 0xE JUMPI PUSH0 PUSH0 REVERT JUMPDEST POP CALLER PUSH0 PUSH0 PUSH2 0x100 EXP DUP2 SLOAD DUP2 PUSH20 0xFFFFFFFFFFFFFFFFFFFFFFFFFFFFFFFFFFFFFFFF MUL NOT AND SWAP1 DUP4 PUSH20 0xFFFFFFFFFFFFFFFFFFFFFFFFFFFFFFFFFFFFFFFF AND MUL OR SWAP1 SSTORE POP PUSH2 0x1659 DUP1 PUSH2 0x5B PUSH0 CODECOPY PUSH0 RETURN INVALID PUSH1 0x80 PUSH1 0x40 MSTORE PUSH1 0x4 CALLDATASIZE LT PUSH2 0x49 JUMPI PUSH0 CALLDATALOAD PUSH1 0xE0 SHR DUP1 PUSH4 0x3C4F81CD EQ PUSH2 0x4D JUMPI DUP1 PUSH4 0x4580E587 EQ PUSH2 0x77 JUMPI DUP1 PUSH4 0x52B5241E EQ PUSH2 0xB3 JUMPI DUP1 PUSH4 0x6547300B EQ PUSH2 0xDD JUMPI DUP1 PUSH4 0x9F577316 EQ PUSH2 0x119 JUMPI JUMPDEST PUSH0 PUSH0 REVERT JUMPDEST CALLVALUE DUP1 ISZERO PUSH2 0x58 JUMPI PUSH0 PUSH0 REVERT JUMPDEST POP PUSH2 0x61 PUSH2 0x135 JUMP JUMPDEST PUSH1 0x40 MLOAD PUSH2 0x6E SWAP2 SWAP1 PUSH2 0xAE2 JUMP JUMPDEST PUSH1 0x40 MLOAD DUP1 SWAP2 SUB SWAP1 RETURN JUMPDEST CALLVALUE DUP1 ISZERO PUSH2 0x82 JUMPI PUSH0 PUSH0 REVERT JUMPDEST POP PUSH2 0x9D PUSH1 0x4 DUP1 CALLDATASIZE SUB DUP2 ADD SWAP1 PUSH2 0x98 SWAP2 SWAP1 PUSH2 0xB3F JUMP JUMPDEST PUSH2 0x159 JUMP JUMPDEST PUSH1 0x40 MLOAD PUSH2 0xAA SWAP2 SWAP1 PUSH2 0xE64 JUMP JUMPDEST PUSH1 0x40 MLOAD DUP1 SWAP2 SUB SWAP1 RETURN JUMPDEST CALLVALUE DUP1 ISZERO PUSH2 0xBE JUMPI PUSH0 PUSH0 REVERT JUMPDEST POP PUSH2 0xC7 PUSH2 0x421 JUMP JUMPDEST PUSH1 0x40 MLOAD PUSH2 0xD4 SWAP2 SWAP1 PUSH2 0xE93 JUMP JUMPDEST PUSH1 0x40 MLOAD DUP1 SWAP2 SUB SWAP1 RETURN JUMPDEST CALLVALUE DUP1 ISZERO PUSH2 0xE8 JUMPI PUSH0 PUSH0 REVERT JUMPDEST POP PUSH2 0x103 PUSH1 0x4 DUP1 CALLDATASIZE SUB DUP2 ADD SWAP1 PUSH2 0xFE SWAP2 SWAP1 PUSH2 0xFD8 JUMP JUMPDEST PUSH2 0x427 JUMP JUMPDEST PUSH1 0x40 MLOAD PUSH2 0x110 SWAP2 SWAP1 PUSH2 0x1041 JUMP JUMPDEST PUSH1 0x40 MLOAD DUP1 SWAP2 SUB SWAP1 RETURN JUMPDEST PUSH2 0x133 PUSH1 0x4 DUP1 CALLDATASIZE SUB DUP2 ADD SWAP1 PUSH2 0x12E SWAP2 SWAP1 PUSH2 0x1084 JUMP JUMPDEST PUSH2 0x701 JUMP JUMPDEST STOP JUMPDEST PUSH0 PUSH0 SWAP1 SLOAD SWAP1 PUSH2 0x100 EXP SWAP1 DIV PUSH20 0xFFFFFFFFFFFFFFFFFFFFFFFFFFFFFFFFFFFFFFFF AND DUP2 JUMP JUMPDEST PUSH2 0x161 PUSH2 0xA58 JUMP JUMPDEST PUSH1 0x1 PUSH0 DUP4 DUP2 MSTORE PUSH1 0x20 ADD SWAP1 DUP2 MSTORE PUSH1 0x20 ADD PUSH0 KECCAK256 PUSH1 0x4 ADD PUSH1 0x1 SWAP1 SLOAD SWAP1 PUSH2 0x100 EXP SWAP1 DIV PUSH1 0xFF AND PUSH2 0x1C2 JUMPI PUSH1 0x40 MLOAD PUSH32 0x8C379A000000000000000000000000000000000000000000000000000000000 DUP2 MSTORE PUSH1 0x4 ADD PUSH2 0x1B9 SWAP1 PUSH2 0x112E JUMP JUMPDEST PUSH1 0x40 MLOAD DUP1 SWAP2 SUB SWAP1 REVERT JUMPDEST PUSH1 0x1 PUSH0 DUP4 DUP2 MSTORE PUSH1 0x20 ADD SWAP1 DUP2 MSTORE PUSH1 0x20 ADD PUSH0 KECCAK256 PUSH1 0x40 MLOAD DUP1 PUSH1 0xE0 ADD PUSH1 0x40 MSTORE SWAP1 DUP2 PUSH0 DUP3 ADD SLOAD DUP2 MSTORE PUSH1 0x20 ADD PUSH1 0x1 DUP3 ADD SLOAD DUP2 MSTORE PUSH1 0x20 ADD PUSH1 0x2 DUP3 ADD SLOAD DUP2 MSTORE PUSH1 0x20 ADD PUSH1 0x3 DUP3 ADD SLOAD DUP2 MSTORE PUSH1 0x20 ADD PUSH1 0x4 DUP3 ADD PUSH0 SWAP1 SLOAD SWAP1 PUSH2 0x100 EXP SWAP1 DIV PUSH1 0xFF AND PUSH1 0x2 DUP2 GT ISZERO PUSH2 0x229 JUMPI PUSH2 0x228 PUSH2 0xB91 JUMP JUMPDEST JUMPDEST PUSH1 0x2 DUP2 GT ISZERO PUSH2 0x23B JUMPI PUSH2 0x23A PUSH2 0xB91 JUMP JUMPDEST JUMPDEST DUP2 MSTORE PUSH1 0x20 ADD PUSH1 0x4 DUP3 ADD PUSH1 0x1 SWAP1 SLOAD SWAP1 PUSH2 0x100 EXP SWAP1 DIV PUSH1 0xFF AND ISZERO ISZERO ISZERO ISZERO DUP2 MSTORE PUSH1 0x20 ADD PUSH1 0x5 DUP3 ADD DUP1 SLOAD DUP1 PUSH1 0x20 MUL PUSH1 0x20 ADD PUSH1 0x40 MLOAD SWAP1 DUP2 ADD PUSH1 0x40 MSTORE DUP1 SWAP3 SWAP2 SWAP1 DUP2 DUP2 MSTORE PUSH1 0x20 ADD PUSH0 SWAP1 JUMPDEST DUP3 DUP3 LT ISZERO PUSH2 0x412 JUMPI DUP4 DUP3 SWAP1 PUSH0 MSTORE PUSH1 0x20 PUSH0 KECCAK256 SWAP1 PUSH1 0x3 MUL ADD PUSH1 0x40 MLOAD DUP1 PUSH1 0xA0 ADD PUSH1 0x40 MSTORE SWAP1 DUP2 PUSH0 DUP3 ADD SLOAD DUP2 MSTORE PUSH1 0x20 ADD PUSH1 0x1 DUP3 ADD PUSH0 SWAP1 SLOAD SWAP1 PUSH2 0x100 EXP SWAP1 DIV PUSH1 0xFF AND PUSH1 0x2 DUP2 GT ISZERO PUSH2 0x2CC JUMPI PUSH2 0x2CB PUSH2 0xB91 JUMP JUMPDEST JUMPDEST PUSH1 0x2 DUP2 GT ISZERO PUSH2 0x2DE JUMPI PUSH2 0x2DD PUSH2 0xB91 JUMP JUMPDEST JUMPDEST DUP2 MSTORE PUSH1 0x20 ADD PUSH1 0x1 DUP3 ADD PUSH1 0x1 SWAP1 SLOAD SWAP1 PUSH2 0x100 EXP SWAP1 DIV PUSH1 0xFF AND PUSH1 0x2 DUP2 GT ISZERO PUSH2 0x307 JUMPI PUSH2 0x306 PUSH2 0xB91 JUMP JUMPDEST JUMPDEST PUSH1 0x2 DUP2 GT ISZERO PUSH2 0x319 JUMPI PUSH2 0x318 PUSH2 0xB91 JUMP JUMPDEST JUMPDEST DUP2 MSTORE PUSH1 0x20 ADD PUSH1 0x1 DUP3 ADD PUSH1 0x2 SWAP1 SLOAD SWAP1 PUSH2 0x100 EXP SWAP1 DIV PUSH20 0xFFFFFFFFFFFFFFFFFFFFFFFFFFFFFFFFFFFFFFFF AND PUSH20 0xFFFFFFFFFFFFFFFFFFFFFFFFFFFFFFFFFFFFFFFF AND PUSH20 0xFFFFFFFFFFFFFFFFFFFFFFFFFFFFFFFFFFFFFFFF AND DUP2 MSTORE PUSH1 0x20 ADD PUSH1 0x2 DUP3 ADD DUP1 SLOAD PUSH2 0x383 SWAP1 PUSH2 0x1179 JUMP JUMPDEST DUP1 PUSH1 0x1F ADD PUSH1 0x20 DUP1 SWAP2 DIV MUL PUSH1 0x20 ADD PUSH1 0x40 MLOAD SWAP1 DUP2 ADD PUSH1 0x40 MSTORE DUP1 SWAP3 SWAP2 SWAP1 DUP2 DUP2 MSTORE PUSH1 0x20 ADD DUP3 DUP1 SLOAD PUSH2 0x3AF SWAP1 PUSH2 0x1179 JUMP JUMPDEST DUP1 ISZERO PUSH2 0x3FA JUMPI DUP1 PUSH1 0x1F LT PUSH2 0x3D1 JUMPI PUSH2 0x100 DUP1 DUP4 SLOAD DIV MUL DUP4 MSTORE SWAP2 PUSH1 0x20 ADD SWAP2 PUSH2 0x3FA JUMP JUMPDEST DUP3 ADD SWAP2 SWAP1 PUSH0 MSTORE PUSH1 0x20 PUSH0 KECCAK256 SWAP1 JUMPDEST DUP2 SLOAD DUP2 MSTORE SWAP1 PUSH1 0x1 ADD SWAP1 PUSH1 0x20 ADD DUP1 DUP4 GT PUSH2 0x3DD JUMPI DUP3 SWAP1 SUB PUSH1 0x1F AND DUP3 ADD SWAP2 JUMPDEST POP POP POP POP POP DUP2 MSTORE POP POP DUP2 MSTORE PUSH1 0x20 ADD SWAP1 PUSH1 0x1 ADD SWAP1 PUSH2 0x27E JUMP JUMPDEST POP POP POP POP DUP2 MSTORE POP POP SWAP1 POP SWAP2 SWAP1 POP JUMP JUMPDEST PUSH2 0x1F4 DUP2 JUMP JUMPDEST PUSH0 PUSH1 0x1 PUSH0 DUP5 DUP2 MSTORE PUSH1 0x20 ADD SWAP1 DUP2 MSTORE PUSH1 0x20 ADD PUSH0 KECCAK256 PUSH1 0x4 ADD PUSH1 0x1 SWAP1 SLOAD SWAP1 PUSH2 0x100 EXP SWAP1 DIV PUSH1 0xFF AND PUSH2 0x489 JUMPI PUSH1 0x40 MLOAD PUSH32 0x8C379A000000000000000000000000000000000000000000000000000000000 DUP2 MSTORE PUSH1 0x4 ADD PUSH2 0x480 SWAP1 PUSH2 0x112E JUMP JUMPDEST PUSH1 0x40 MLOAD DUP1 SWAP2 SUB SWAP1 REVERT JUMPDEST PUSH0 PUSH0 SWAP1 SLOAD SWAP1 PUSH2 0x100 EXP SWAP1 DIV PUSH20 0xFFFFFFFFFFFFFFFFFFFFFFFFFFFFFFFFFFFFFFFF AND PUSH20 0xFFFFFFFFFFFFFFFFFFFFFFFFFFFFFFFFFFFFFFFF AND CALLER PUSH20 0xFFFFFFFFFFFFFFFFFFFFFFFFFFFFFFFFFFFFFFFF AND EQ PUSH2 0x517 JUMPI PUSH1 0x40 MLOAD PUSH32 0x8C379A000000000000000000000000000000000000000000000000000000000 DUP2 MSTORE PUSH1 0x4 ADD PUSH2 0x50E SWAP1 PUSH2 0x11F3 JUMP JUMPDEST PUSH1 0x40 MLOAD DUP1 SWAP2 SUB SWAP1 REVERT JUMPDEST PUSH0 PUSH1 0x1 PUSH0 DUP6 DUP2 MSTORE PUSH1 0x20 ADD SWAP1 DUP2 MSTORE PUSH1 0x20 ADD PUSH0 KECCAK256 SWAP1 POP PUSH0 DUP2 PUSH1 0x4 ADD PUSH0 SWAP1 SLOAD SWAP1 PUSH2 0x100 EXP SWAP1 DIV PUSH1 0xFF AND SWAP1 POP PUSH1 0x1 DUP3 PUSH1 0x4 ADD PUSH0 PUSH2 0x100 EXP DUP2 SLOAD DUP2 PUSH1 0xFF MUL NOT AND SWAP1 DUP4 PUSH1 0x2 DUP2 GT ISZERO PUSH2 0x566 JUMPI PUSH2 0x565 PUSH2 0xB91 JUMP JUMPDEST JUMPDEST MUL OR SWAP1 SSTORE POP DUP2 PUSH1 0x5 ADD PUSH1 0x40 MLOAD DUP1 PUSH1 0xA0 ADD PUSH1 0x40 MSTORE DUP1 TIMESTAMP DUP2 MSTORE PUSH1 0x20 ADD DUP4 PUSH1 0x2 DUP2 GT ISZERO PUSH2 0x593 JUMPI PUSH2 0x592 PUSH2 0xB91 JUMP JUMPDEST JUMPDEST DUP2 MSTORE PUSH1 0x20 ADD PUSH1 0x1 PUSH1 0x2 DUP2 GT ISZERO PUSH2 0x5AC JUMPI PUSH2 0x5AB PUSH2 0xB91 JUMP JUMPDEST JUMPDEST DUP2 MSTORE PUSH1 0x20 ADD CALLER PUSH20 0xFFFFFFFFFFFFFFFFFFFFFFFFFFFFFFFFFFFFFFFF AND DUP2 MSTORE PUSH1 0x20 ADD DUP7 DUP2 MSTORE POP SWAP1 DUP1 PUSH1 0x1 DUP2 SLOAD ADD DUP1 DUP3 SSTORE DUP1 SWAP2 POP POP PUSH1 0x1 SWAP1 SUB SWAP1 PUSH0 MSTORE PUSH1 0x20 PUSH0 KECCAK256 SWAP1 PUSH1 0x3 MUL ADD PUSH0 SWAP1 SWAP2 SWAP1 SWAP2 SWAP1 SWAP2 POP PUSH0 DUP3 ADD MLOAD DUP2 PUSH0 ADD SSTORE PUSH1 0x20 DUP3 ADD MLOAD DUP2 PUSH1 0x1 ADD PUSH0 PUSH2 0x100 EXP DUP2 SLOAD DUP2 PUSH1 0xFF MUL NOT AND SWAP1 DUP4 PUSH1 0x2 DUP2 GT ISZERO PUSH2 0x629 JUMPI PUSH2 0x628 PUSH2 0xB91 JUMP JUMPDEST JUMPDEST MUL OR SWAP1 SSTORE POP PUSH1 0x40 DUP3 ADD MLOAD DUP2 PUSH1 0x1 ADD PUSH1 0x1 PUSH2 0x100 EXP DUP2 SLOAD DUP2 PUSH1 0xFF MUL NOT AND SWAP1 DUP4 PUSH1 0x2 DUP2 GT ISZERO PUSH2 0x659 JUMPI PUSH2 0x658 PUSH2 0xB91 JUMP JUMPDEST JUMPDEST MUL OR SWAP1 SSTORE POP PUSH1 0x60 DUP3 ADD MLOAD DUP2 PUSH1 0x1 ADD PUSH1 0x2 PUSH2 0x100 EXP DUP2 SLOAD DUP2 PUSH20 0xFFFFFFFFFFFFFFFFFFFFFFFFFFFFFFFFFFFFFFFF MUL NOT AND SWAP1 DUP4 PUSH20 0xFFFFFFFFFFFFFFFFFFFFFFFFFFFFFFFFFFFFFFFF AND MUL OR SWAP1 SSTORE POP PUSH1 0x80 DUP3 ADD MLOAD DUP2 PUSH1 0x2 ADD SWAP1 DUP2 PUSH2 0x6BA SWAP2 SWAP1 PUSH2 0x13C2 JUMP JUMPDEST POP POP POP DUP5 PUSH32 0x90A6C459E2AA557EE0FBE12339856CC69594869763FDCAC70015EF2068EF2265 DUP6 PUSH1 0x40 MLOAD PUSH2 0x6ED SWAP2 SWAP1 PUSH2 0x14C9 JUMP JUMPDEST PUSH1 0x40 MLOAD DUP1 SWAP2 SUB SWAP1 LOG2 PUSH1 0x1 SWAP3 POP POP POP SWAP3 SWAP2 POP POP JUMP JUMPDEST PUSH1 0x1 PUSH0 DUP5 DUP2 MSTORE PUSH1 0x20 ADD SWAP1 DUP2 MSTORE PUSH1 0x20 ADD PUSH0 KECCAK256 PUSH1 0x4 ADD PUSH1 0x1 SWAP1 SLOAD SWAP1 PUSH2 0x100 EXP SWAP1 DIV PUSH1 0xFF AND ISZERO PUSH2 0x763 JUMPI PUSH1 0x40 MLOAD PUSH32 0x8C379A000000000000000000000000000000000000000000000000000000000 DUP2 MSTORE PUSH1 0x4 ADD PUSH2 0x75A SWAP1 PUSH2 0x1533 JUMP JUMPDEST PUSH1 0x40 MLOAD DUP1 SWAP2 SUB SWAP1 REVERT JUMPDEST PUSH2 0x1F4 CALLVALUE LT ISZERO PUSH2 0x7A8 JUMPI PUSH1 0x40 MLOAD PUSH32 0x8C379A000000000000000000000000000000000000000000000000000000000 DUP2 MSTORE PUSH1 0x4 ADD PUSH2 0x79F SWAP1 PUSH2 0x15C1 JUMP JUMPDEST PUSH1 0x40 MLOAD DUP1 SWAP2 SUB SWAP1 REVERT JUMPDEST PUSH0 PUSH1 0x1 PUSH0 DUP6 DUP2 MSTORE PUSH1 0x20 ADD SWAP1 DUP2 MSTORE PUSH1 0x20 ADD PUSH0 KECCAK256 SWAP1 POP PUSH1 0x1 DUP2 PUSH1 0x4 ADD PUSH1 0x1 PUSH2 0x100 EXP DUP2 SLOAD DUP2 PUSH1 0xFF MUL NOT AND SWAP1 DUP4 ISZERO ISZERO MUL OR SWAP1 SSTORE POP DUP3 DUP2 PUSH1 0x2 ADD DUP2 SWAP1 SSTORE POP DUP2 DUP2 PUSH1 0x3 ADD DUP2 SWAP1 SSTORE POP TIMESTAMP DUP2 PUSH1 0x1 ADD DUP2 SWAP1 SSTORE POP PUSH0 DUP2 PUSH1 0x4 ADD PUSH0 PUSH2 0x100 EXP DUP2 SLOAD DUP2 PUSH1 0xFF MUL NOT AND SWAP1 DUP4 PUSH1 0x2 DUP2 GT ISZERO PUSH2 0x81A JUMPI PUSH2 0x819 PUSH2 0xB91 JUMP JUMPDEST JUMPDEST MUL OR SWAP1 SSTORE POP CALLER PUSH0 PUSH0 PUSH2 0x100 EXP DUP2 SLOAD DUP2 PUSH20 0xFFFFFFFFFFFFFFFFFFFFFFFFFFFFFFFFFFFFFFFF MUL NOT AND SWAP1 DUP4 PUSH20 0xFFFFFFFFFFFFFFFFFFFFFFFFFFFFFFFFFFFFFFFF AND MUL OR SWAP1 SSTORE POP DUP1 PUSH1 0x5 ADD PUSH1 0x40 MLOAD DUP1 PUSH1 0xA0 ADD PUSH1 0x40 MSTORE DUP1 TIMESTAMP DUP2 MSTORE PUSH1 0x20 ADD PUSH0 PUSH1 0x2 DUP2 GT ISZERO PUSH2 0x886 JUMPI PUSH2 0x885 PUSH2 0xB91 JUMP JUMPDEST JUMPDEST DUP2 MSTORE PUSH1 0x20 ADD PUSH0 PUSH1 0x2 DUP2 GT ISZERO PUSH2 0x89E JUMPI PUSH2 0x89D PUSH2 0xB91 JUMP JUMPDEST JUMPDEST DUP2 MSTORE PUSH1 0x20 ADD CALLER PUSH20 0xFFFFFFFFFFFFFFFFFFFFFFFFFFFFFFFFFFFFFFFF AND DUP2 MSTORE PUSH1 0x20 ADD PUSH1 0x40 MLOAD DUP1 PUSH1 0x40 ADD PUSH1 0x40 MSTORE DUP1 PUSH1 0x10 DUP2 MSTORE PUSH1 0x20 ADD PUSH32 0x4372656163696F6E20696E696369616C00000000000000000000000000000000 DUP2 MSTORE POP DUP2 MSTORE POP SWAP1 DUP1 PUSH1 0x1 DUP2 SLOAD ADD DUP1 DUP3 SSTORE DUP1 SWAP2 POP POP PUSH1 0x1 SWAP1 SUB SWAP1 PUSH0 MSTORE PUSH1 0x20 PUSH0 KECCAK256 SWAP1 PUSH1 0x3 MUL ADD PUSH0 SWAP1 SWAP2 SWAP1 SWAP2 SWAP1 SWAP2 POP PUSH0 DUP3 ADD MLOAD DUP2 PUSH0 ADD SSTORE PUSH1 0x20 DUP3 ADD MLOAD DUP2 PUSH1 0x1 ADD PUSH0 PUSH2 0x100 EXP DUP2 SLOAD DUP2 PUSH1 0xFF MUL NOT AND SWAP1 DUP4 PUSH1 0x2 DUP2 GT ISZERO PUSH2 0x950 JUMPI PUSH2 0x94F PUSH2 0xB91 JUMP JUMPDEST JUMPDEST MUL OR SWAP1 SSTORE POP PUSH1 0x40 DUP3 ADD MLOAD DUP2 PUSH1 0x1 ADD PUSH1 0x1 PUSH2 0x100 EXP DUP2 SLOAD DUP2 PUSH1 0xFF MUL NOT AND SWAP1 DUP4 PUSH1 0x2 DUP2 GT ISZERO PUSH2 0x980 JUMPI PUSH2 0x97F PUSH2 0xB91 JUMP JUMPDEST JUMPDEST MUL OR SWAP1 SSTORE POP PUSH1 0x60 DUP3 ADD MLOAD DUP2 PUSH1 0x1 ADD PUSH1 0x2 PUSH2 0x100 EXP DUP2 SLOAD DUP2 PUSH20 0xFFFFFFFFFFFFFFFFFFFFFFFFFFFFFFFFFFFFFFFF MUL NOT AND SWAP1 DUP4 PUSH20 0xFFFFFFFFFFFFFFFFFFFFFFFFFFFFFFFFFFFFFFFF AND MUL OR SWAP1 SSTORE POP PUSH1 0x80 DUP3 ADD MLOAD DUP2 PUSH1 0x2 ADD SWAP1 DUP2 PUSH2 0x9E1 SWAP2 SWAP1 PUSH2 0x13C2 JUMP JUMPDEST POP POP POP PUSH1 0x2 DUP5 SWAP1 DUP1 PUSH1 0x1 DUP2 SLOAD ADD DUP1 DUP3 SSTORE DUP1 SWAP2 POP POP PUSH1 0x1 SWAP1 SUB SWAP1 PUSH0 MSTORE PUSH1 0x20 PUSH0 KECCAK256 ADD PUSH0 SWAP1 SWAP2 SWAP1 SWAP2 SWAP1 SWAP2 POP SSTORE DUP4 PUSH32 0x63CD7D7CCB65790505F0D377F7A9FCB0974002F2A470411356E7CD48660B4C8B DUP3 PUSH1 0x1 ADD SLOAD DUP4 PUSH1 0x2 ADD SLOAD DUP5 PUSH1 0x3 ADD SLOAD PUSH1 0x40 MLOAD PUSH2 0xA4A SWAP4 SWAP3 SWAP2 SWAP1 PUSH2 0x15EE JUMP JUMPDEST PUSH1 0x40 MLOAD DUP1 SWAP2 SUB SWAP1 LOG2 POP POP POP POP JUMP JUMPDEST PUSH1 0x40 MLOAD DUP1 PUSH1 0xE0 ADD PUSH1 0x40 MSTORE DUP1 PUSH0 DUP2 MSTORE PUSH1 0x20 ADD PUSH0 DUP2 MSTORE PUSH1 0x20 ADD PUSH0 DUP2 MSTORE PUSH1 0x20 ADD PUSH0 DUP2 MSTORE PUSH1 0x20 ADD PUSH0 PUSH1 0x2 DUP2 GT ISZERO PUSH2 0xA8E JUMPI PUSH2 0xA8D PUSH2 0xB91 JUMP JUMPDEST JUMPDEST DUP2 MSTORE PUSH1 0x20 ADD PUSH0 ISZERO ISZERO DUP2 MSTORE PUSH1 0x20 ADD PUSH1 0x60 DUP2 MSTORE POP SWAP1 JUMP JUMPDEST PUSH0 PUSH20 0xFFFFFFFFFFFFFFFFFFFFFFFFFFFFFFFFFFFFFFFF DUP3 AND SWAP1 POP SWAP2 SWAP1 POP JUMP JUMPDEST PUSH0 PUSH2 0xACC DUP3 PUSH2 0xAA3 JUMP JUMPDEST SWAP1 POP SWAP2 SWAP1 POP JUMP JUMPDEST PUSH2 0xADC DUP2 PUSH2 0xAC2 JUMP JUMPDEST DUP3 MSTORE POP POP JUMP JUMPDEST PUSH0 PUSH1 0x20 DUP3 ADD SWAP1 POP PUSH2 0xAF5 PUSH0 DUP4 ADD DUP5 PUSH2 0xAD3 JUMP JUMPDEST SWAP3 SWAP2 POP POP JUMP JUMPDEST PUSH0 PUSH1 0x40 MLOAD SWAP1 POP SWAP1 JUMP JUMPDEST PUSH0 PUSH0 REVERT JUMPDEST PUSH0 PUSH0 REVERT JUMPDEST PUSH0 DUP2 SWAP1 POP SWAP2 SWAP1 POP JUMP JUMPDEST PUSH2 0xB1E DUP2 PUSH2 0xB0C JUMP JUMPDEST DUP2 EQ PUSH2 0xB28 JUMPI PUSH0 PUSH0 REVERT JUMPDEST POP JUMP JUMPDEST PUSH0 DUP2 CALLDATALOAD SWAP1 POP PUSH2 0xB39 DUP2 PUSH2 0xB15 JUMP JUMPDEST SWAP3 SWAP2 POP POP JUMP JUMPDEST PUSH0 PUSH1 0x20 DUP3 DUP5 SUB SLT ISZERO PUSH2 0xB54 JUMPI PUSH2 0xB53 PUSH2 0xB04 JUMP JUMPDEST JUMPDEST PUSH0 PUSH2 0xB61 DUP5 DUP3 DUP6 ADD PUSH2 0xB2B JUMP JUMPDEST SWAP2 POP POP SWAP3 SWAP2 POP POP JUMP JUMPDEST PUSH2 0xB73 DUP2 PUSH2 0xB0C JUMP JUMPDEST DUP3 MSTORE POP POP JUMP JUMPDEST PUSH0 DUP2 SWAP1 POP SWAP2 SWAP1 POP JUMP JUMPDEST PUSH2 0xB8B DUP2 PUSH2 0xB79 JUMP JUMPDEST DUP3 MSTORE POP POP JUMP JUMPDEST PUSH32 0x4E487B7100000000000000000000000000000000000000000000000000000000 PUSH0 MSTORE PUSH1 0x21 PUSH1 0x4 MSTORE PUSH1 0x24 PUSH0 REVERT JUMPDEST PUSH1 0x3 DUP2 LT PUSH2 0xBCF JUMPI PUSH2 0xBCE PUSH2 0xB91 JUMP JUMPDEST JUMPDEST POP JUMP JUMPDEST PUSH0 DUP2 SWAP1 POP PUSH2 0xBDF DUP3 PUSH2 0xBBE JUMP JUMPDEST SWAP2 SWAP1 POP JUMP JUMPDEST PUSH0 PUSH2 0xBEE DUP3 PUSH2 0xBD2 JUMP JUMPDEST SWAP1 POP SWAP2 SWAP1 POP JUMP JUMPDEST PUSH2 0xBFE DUP2 PUSH2 0xBE4 JUMP JUMPDEST DUP3 MSTORE POP POP JUMP JUMPDEST PUSH0 DUP2 ISZERO ISZERO SWAP1 POP SWAP2 SWAP1 POP JUMP JUMPDEST PUSH2 0xC18 DUP2 PUSH2 0xC04 JUMP JUMPDEST DUP3 MSTORE POP POP JUMP JUMPDEST PUSH0 DUP2 MLOAD SWAP1 POP SWAP2 SWAP1 POP JUMP JUMPDEST PUSH0 DUP3 DUP3 MSTORE PUSH1 0x20 DUP3 ADD SWAP1 POP SWAP3 SWAP2 POP POP JUMP JUMPDEST PUSH0 DUP2 SWAP1 POP PUSH1 0x20 DUP3 ADD SWAP1 POP SWAP2 SWAP1 POP JUMP JUMPDEST PUSH2 0xC50 DUP2 PUSH2 0xAC2 JUMP JUMPDEST DUP3 MSTORE POP POP JUMP JUMPDEST PUSH0 DUP2 MLOAD SWAP1 POP SWAP2 SWAP1 POP JUMP JUMPDEST PUSH0 DUP3 DUP3 MSTORE PUSH1 0x20 DUP3 ADD SWAP1 POP SWAP3 SWAP2 POP POP JUMP JUMPDEST DUP3 DUP2 DUP4 MCOPY PUSH0 DUP4 DUP4 ADD MSTORE POP POP POP JUMP JUMPDEST PUSH0 PUSH1 0x1F NOT PUSH1 0x1F DUP4 ADD AND SWAP1 POP SWAP2 SWAP1 POP JUMP JUMPDEST PUSH0 PUSH2 0xC98 DUP3 PUSH2 0xC56 JUMP JUMPDEST PUSH2 0xCA2 DUP2 DUP6 PUSH2 0xC60 JUMP JUMPDEST SWAP4 POP PUSH2 0xCB2 DUP2 DUP6 PUSH1 0x20 DUP7 ADD PUSH2 0xC70 JUMP JUMPDEST PUSH2 0xCBB DUP2 PUSH2 0xC7E JUMP JUMPDEST DUP5 ADD SWAP2 POP POP SWAP3 SWAP2 POP POP JUMP JUMPDEST PUSH0 PUSH1 0xA0 DUP4 ADD PUSH0 DUP4 ADD MLOAD PUSH2 0xCDB PUSH0 DUP7 ADD DUP3 PUSH2 0xB82 JUMP JUMPDEST POP PUSH1 0x20 DUP4 ADD MLOAD PUSH2 0xCEE PUSH1 0x20 DUP7 ADD DUP3 PUSH2 0xBF5 JUMP JUMPDEST POP PUSH1 0x40 DUP4 ADD MLOAD PUSH2 0xD01 PUSH1 0x40 DUP7 ADD DUP3 PUSH2 0xBF5 JUMP JUMPDEST POP PUSH1 0x60 DUP4 ADD MLOAD PUSH2 0xD14 PUSH1 0x60 DUP7 ADD DUP3 PUSH2 0xC47 JUMP JUMPDEST POP PUSH1 0x80 DUP4 ADD MLOAD DUP5 DUP3 SUB PUSH1 0x80 DUP7 ADD MSTORE PUSH2 0xD2C DUP3 DUP3 PUSH2 0xC8E JUMP JUMPDEST SWAP2 POP POP DUP1 SWAP2 POP POP SWAP3 SWAP2 POP POP JUMP JUMPDEST PUSH0 PUSH2 0xD44 DUP4 DUP4 PUSH2 0xCC6 JUMP JUMPDEST SWAP1 POP SWAP3 SWAP2 POP POP JUMP JUMPDEST PUSH0 PUSH1 0x20 DUP3 ADD SWAP1 POP SWAP2 SWAP1 POP JUMP JUMPDEST PUSH0 PUSH2 0xD62 DUP3 PUSH2 0xC1E JUMP JUMPDEST PUSH2 0xD6C DUP2 DUP6 PUSH2 0xC28 JUMP JUMPDEST SWAP4 POP DUP4 PUSH1 0x20 DUP3 MUL DUP6 ADD PUSH2 0xD7E DUP6 PUSH2 0xC38 JUMP JUMPDEST DUP1 PUSH0 JUMPDEST DUP6 DUP2 LT ISZERO PUSH2 0xDB9 JUMPI DUP5 DUP5 SUB DUP10 MSTORE DUP2 MLOAD PUSH2 0xD9A DUP6 DUP3 PUSH2 0xD39 JUMP JUMPDEST SWAP5 POP PUSH2 0xDA5 DUP4 PUSH2 0xD4C JUMP JUMPDEST SWAP3 POP PUSH1 0x20 DUP11 ADD SWAP10 POP POP PUSH1 0x1 DUP2 ADD SWAP1 POP PUSH2 0xD81 JUMP JUMPDEST POP DUP3 SWAP8 POP DUP8 SWAP6 POP POP POP POP POP POP SWAP3 SWAP2 POP POP JUMP JUMPDEST PUSH0 PUSH1 0xE0 DUP4 ADD PUSH0 DUP4 ADD MLOAD PUSH2 0xDE0 PUSH0 DUP7 ADD DUP3 PUSH2 0xB6A JUMP JUMPDEST POP PUSH1 0x20 DUP4 ADD MLOAD PUSH2 0xDF3 PUSH1 0x20 DUP7 ADD DUP3 PUSH2 0xB82 JUMP JUMPDEST POP PUSH1 0x40 DUP4 ADD MLOAD PUSH2 0xE06 PUSH1 0x40 DUP7 ADD DUP3 PUSH2 0xB82 JUMP JUMPDEST POP PUSH1 0x60 DUP4 ADD MLOAD PUSH2 0xE19 PUSH1 0x60 DUP7 ADD DUP3 PUSH2 0xB6A JUMP JUMPDEST POP PUSH1 0x80 DUP4 ADD MLOAD PUSH2 0xE2C PUSH1 0x80 DUP7 ADD DUP3 PUSH2 0xBF5 JUMP JUMPDEST POP PUSH1 0xA0 DUP4 ADD MLOAD PUSH2 0xE3F PUSH1 0xA0 DUP7 ADD DUP3 PUSH2 0xC0F JUMP JUMPDEST POP PUSH1 0xC0 DUP4 ADD MLOAD DUP5 DUP3 SUB PUSH1 0xC0 DUP7 ADD MSTORE PUSH2 0xE57 DUP3 DUP3 PUSH2 0xD58 JUMP JUMPDEST SWAP2 POP POP DUP1 SWAP2 POP POP SWAP3 SWAP2 POP POP JUMP JUMPDEST PUSH0 PUSH1 0x20 DUP3 ADD SWAP1 POP DUP2 DUP2 SUB PUSH0 DUP4 ADD MSTORE PUSH2 0xE7C DUP2 DUP5 PUSH2 0xDCB JUMP JUMPDEST SWAP1 POP SWAP3 SWAP2 POP POP JUMP JUMPDEST PUSH2 0xE8D DUP2 PUSH2 0xB79 JUMP JUMPDEST DUP3 MSTORE POP POP JUMP JUMPDEST PUSH0 PUSH1 0x20 DUP3 ADD SWAP1 POP PUSH2 0xEA6 PUSH0 DUP4 ADD DUP5 PUSH2 0xE84 JUMP JUMPDEST SWAP3 SWAP2 POP POP JUMP JUMPDEST PUSH0 PUSH0 REVERT JUMPDEST PUSH0 PUSH0 REVERT JUMPDEST PUSH32 0x4E487B7100000000000000000000000000000000000000000000000000000000 PUSH0 MSTORE PUSH1 0x41 PUSH1 0x4 MSTORE PUSH1 0x24 PUSH0 REVERT JUMPDEST PUSH2 0xEEA DUP3 PUSH2 0xC7E JUMP JUMPDEST DUP2 ADD DUP2 DUP2 LT PUSH8 0xFFFFFFFFFFFFFFFF DUP3 GT OR ISZERO PUSH2 0xF09 JUMPI PUSH2 0xF08 PUSH2 0xEB4 JUMP JUMPDEST JUMPDEST DUP1 PUSH1 0x40 MSTORE POP POP POP JUMP JUMPDEST PUSH0 PUSH2 0xF1B PUSH2 0xAFB JUMP JUMPDEST SWAP1 POP PUSH2 0xF27 DUP3 DUP3 PUSH2 0xEE1 JUMP JUMPDEST SWAP2 SWAP1 POP JUMP JUMPDEST PUSH0 PUSH8 0xFFFFFFFFFFFFFFFF DUP3 GT ISZERO PUSH2 0xF46 JUMPI PUSH2 0xF45 PUSH2 0xEB4 JUMP JUMPDEST JUMPDEST PUSH2 0xF4F DUP3 PUSH2 0xC7E JUMP JUMPDEST SWAP1 POP PUSH1 0x20 DUP2 ADD SWAP1 POP SWAP2 SWAP1 POP JUMP JUMPDEST DUP3 DUP2 DUP4 CALLDATACOPY PUSH0 DUP4 DUP4 ADD MSTORE POP POP POP JUMP JUMPDEST PUSH0 PUSH2 0xF7C PUSH2 0xF77 DUP5 PUSH2 0xF2C JUMP JUMPDEST PUSH2 0xF12 JUMP JUMPDEST SWAP1 POP DUP3 DUP2 MSTORE PUSH1 0x20 DUP2 ADD DUP5 DUP5 DUP5 ADD GT ISZERO PUSH2 0xF98 JUMPI PUSH2 0xF97 PUSH2 0xEB0 JUMP JUMPDEST JUMPDEST PUSH2 0xFA3 DUP5 DUP3 DUP6 PUSH2 0xF5C JUMP JUMPDEST POP SWAP4 SWAP3 POP POP POP JUMP JUMPDEST PUSH0 DUP3 PUSH1 0x1F DUP4 ADD SLT PUSH2 0xFBF JUMPI PUSH2 0xFBE PUSH2 0xEAC JUMP JUMPDEST JUMPDEST DUP2 CALLDATALOAD PUSH2 0xFCF DUP5 DUP3 PUSH1 0x20 DUP7 ADD PUSH2 0xF6A JUMP JUMPDEST SWAP2 POP POP SWAP3 SWAP2 POP POP JUMP JUMPDEST PUSH0 PUSH0 PUSH1 0x40 DUP4 DUP6 SUB SLT ISZERO PUSH2 0xFEE JUMPI PUSH2 0xFED PUSH2 0xB04 JUMP JUMPDEST JUMPDEST PUSH0 PUSH2 0xFFB DUP6 DUP3 DUP7 ADD PUSH2 0xB2B JUMP JUMPDEST SWAP3 POP POP PUSH1 0x20 DUP4 ADD CALLDATALOAD PUSH8 0xFFFFFFFFFFFFFFFF DUP2 GT ISZERO PUSH2 0x101C JUMPI PUSH2 0x101B PUSH2 0xB08 JUMP JUMPDEST JUMPDEST PUSH2 0x1028 DUP6 DUP3 DUP7 ADD PUSH2 0xFAB JUMP JUMPDEST SWAP2 POP POP SWAP3 POP SWAP3 SWAP1 POP JUMP JUMPDEST PUSH2 0x103B DUP2 PUSH2 0xC04 JUMP JUMPDEST DUP3 MSTORE POP POP JUMP JUMPDEST PUSH0 PUSH1 0x20 DUP3 ADD SWAP1 POP PUSH2 0x1054 PUSH0 DUP4 ADD DUP5 PUSH2 0x1032 JUMP JUMPDEST SWAP3 SWAP2 POP POP JUMP JUMPDEST PUSH2 0x1063 DUP2 PUSH2 0xB79 JUMP JUMPDEST DUP2 EQ PUSH2 0x106D JUMPI PUSH0 PUSH0 REVERT JUMPDEST POP JUMP JUMPDEST PUSH0 DUP2 CALLDATALOAD SWAP1 POP PUSH2 0x107E DUP2 PUSH2 0x105A JUMP JUMPDEST SWAP3 SWAP2 POP POP JUMP JUMPDEST PUSH0 PUSH0 PUSH0 PUSH1 0x60 DUP5 DUP7 SUB SLT ISZERO PUSH2 0x109B JUMPI PUSH2 0x109A PUSH2 0xB04 JUMP JUMPDEST JUMPDEST PUSH0 PUSH2 0x10A8 DUP7 DUP3 DUP8 ADD PUSH2 0xB2B JUMP JUMPDEST SWAP4 POP POP PUSH1 0x20 PUSH2 0x10B9 DUP7 DUP3 DUP8 ADD PUSH2 0x1070 JUMP JUMPDEST SWAP3 POP POP PUSH1 0x40 PUSH2 0x10CA DUP7 DUP3 DUP8 ADD PUSH2 0xB2B JUMP JUMPDEST SWAP2 POP POP SWAP3 POP SWAP3 POP SWAP3 JUMP JUMPDEST PUSH0 DUP3 DUP3 MSTORE PUSH1 0x20 DUP3 ADD SWAP1 POP SWAP3 SWAP2 POP POP JUMP JUMPDEST PUSH32 0x4C6120616374756163696F6E206E6F2065786973746500000000000000000000 PUSH0 DUP3 ADD MSTORE POP JUMP JUMPDEST PUSH0 PUSH2 0x1118 PUSH1 0x16 DUP4 PUSH2 0x10D4 JUMP JUMPDEST SWAP2 POP PUSH2 0x1123 DUP3 PUSH2 0x10E4 JUMP JUMPDEST PUSH1 0x20 DUP3 ADD SWAP1 POP SWAP2 SWAP1 POP JUMP JUMPDEST PUSH0 PUSH1 0x20 DUP3 ADD SWAP1 POP DUP2 DUP2 SUB PUSH0 DUP4 ADD MSTORE PUSH2 0x1145 DUP2 PUSH2 0x110C JUMP JUMPDEST SWAP1 POP SWAP2 SWAP1 POP JUMP JUMPDEST PUSH32 0x4E487B7100000000000000000000000000000000000000000000000000000000 PUSH0 MSTORE PUSH1 0x22 PUSH1 0x4 MSTORE PUSH1 0x24 PUSH0 REVERT JUMPDEST PUSH0 PUSH1 0x2 DUP3 DIV SWAP1 POP PUSH1 0x1 DUP3 AND DUP1 PUSH2 0x1190 JUMPI PUSH1 0x7F DUP3 AND SWAP2 POP JUMPDEST PUSH1 0x20 DUP3 LT DUP2 SUB PUSH2 0x11A3 JUMPI PUSH2 0x11A2 PUSH2 0x114C JUMP JUMPDEST JUMPDEST POP SWAP2 SWAP1 POP JUMP JUMPDEST PUSH32 0x4E6F20657320656C2070726F706965746172696F000000000000000000000000 PUSH0 DUP3 ADD MSTORE POP JUMP JUMPDEST PUSH0 PUSH2 0x11DD PUSH1 0x14 DUP4 PUSH2 0x10D4 JUMP JUMPDEST SWAP2 POP PUSH2 0x11E8 DUP3 PUSH2 0x11A9 JUMP JUMPDEST PUSH1 0x20 DUP3 ADD SWAP1 POP SWAP2 SWAP1 POP JUMP JUMPDEST PUSH0 PUSH1 0x20 DUP3 ADD SWAP1 POP DUP2 DUP2 SUB PUSH0 DUP4 ADD MSTORE PUSH2 0x120A DUP2 PUSH2 0x11D1 JUMP JUMPDEST SWAP1 POP SWAP2 SWAP1 POP JUMP JUMPDEST PUSH0 DUP2 SWAP1 POP DUP2 PUSH0 MSTORE PUSH1 0x20 PUSH0 KECCAK256 SWAP1 POP SWAP2 SWAP1 POP JUMP JUMPDEST PUSH0 PUSH1 0x20 PUSH1 0x1F DUP4 ADD DIV SWAP1 POP SWAP2 SWAP1 POP JUMP JUMPDEST PUSH0 DUP3 DUP3 SHL SWAP1 POP SWAP3 SWAP2 POP POP JUMP JUMPDEST PUSH0 PUSH1 0x8 DUP4 MUL PUSH2 0x126D PUSH32 0xFFFFFFFFFFFFFFFFFFFFFFFFFFFFFFFFFFFFFFFFFFFFFFFFFFFFFFFFFFFFFFFF DUP3 PUSH2 0x1232 JUMP JUMPDEST PUSH2 0x1277 DUP7 DUP4 PUSH2 0x1232 JUMP JUMPDEST SWAP6 POP DUP1 NOT DUP5 AND SWAP4 POP DUP1 DUP7 AND DUP5 OR SWAP3 POP POP POP SWAP4 SWAP3 POP POP POP JUMP JUMPDEST PUSH0 DUP2 SWAP1 POP SWAP2 SWAP1 POP JUMP JUMPDEST PUSH0 PUSH2 0x12B2 PUSH2 0x12AD PUSH2 0x12A8 DUP5 PUSH2 0xB79 JUMP JUMPDEST PUSH2 0x128F JUMP JUMPDEST PUSH2 0xB79 JUMP JUMPDEST SWAP1 POP SWAP2 SWAP1 POP JUMP JUMPDEST PUSH0 DUP2 SWAP1 POP SWAP2 SWAP1 POP JUMP JUMPDEST PUSH2 0x12CB DUP4 PUSH2 0x1298 JUMP JUMPDEST PUSH2 0x12DF PUSH2 0x12D7 DUP3 PUSH2 0x12B9 JUMP JUMPDEST DUP5 DUP5 SLOAD PUSH2 0x123E JUMP JUMPDEST DUP3 SSTORE POP POP POP POP JUMP JUMPDEST PUSH0 PUSH0 SWAP1 POP SWAP1 JUMP JUMPDEST PUSH2 0x12F6 PUSH2 0x12E7 JUMP JUMPDEST PUSH2 0x1301 DUP2 DUP5 DUP5 PUSH2 0x12C2 JUMP JUMPDEST POP POP POP JUMP JUMPDEST PUSH0 JUMPDEST DUP3 DUP2 LT ISZERO PUSH2 0x1327 JUMPI PUSH2 0x131C PUSH0 DUP3 DUP5 ADD PUSH2 0x12EE JUMP JUMPDEST PUSH1 0x1 DUP2 ADD SWAP1 POP PUSH2 0x1308 JUMP JUMPDEST POP POP POP JUMP JUMPDEST PUSH1 0x1F DUP3 GT ISZERO PUSH2 0x137A JUMPI DUP3 DUP3 GT ISZERO PUSH2 0x1379 JUMPI PUSH2 0x1346 DUP2 PUSH2 0x1211 JUMP JUMPDEST PUSH2 0x134F DUP4 PUSH2 0x1223 JUMP JUMPDEST PUSH2 0x1358 DUP6 PUSH2 0x1223 JUMP JUMPDEST PUSH1 0x20 DUP7 LT ISZERO PUSH2 0x1365 JUMPI PUSH0 SWAP1 POP JUMPDEST DUP1 DUP4 ADD PUSH2 0x1374 DUP3 DUP5 SUB DUP3 PUSH2 0x1306 JUMP JUMPDEST POP POP POP POP JUMPDEST JUMPDEST POP POP POP JUMP JUMPDEST PUSH0 DUP3 DUP3 SHR SWAP1 POP SWAP3 SWAP2 POP POP JUMP JUMPDEST PUSH0 PUSH2 0x139A PUSH0 NOT DUP5 PUSH1 0x8 MUL PUSH2 0x137F JUMP JUMPDEST NOT DUP1 DUP4 AND SWAP2 POP POP SWAP3 SWAP2 POP POP JUMP JUMPDEST PUSH0 PUSH2 0x13B2 DUP4 DUP4 PUSH2 0x138B JUMP JUMPDEST SWAP2 POP DUP3 PUSH1 0x2 MUL DUP3 OR SWAP1 POP SWAP3 SWAP2 POP POP JUMP JUMPDEST PUSH2 0x13CB DUP3 PUSH2 0xC56 JUMP JUMPDEST PUSH8 0xFFFFFFFFFFFFFFFF DUP2 GT ISZERO PUSH2 0x13E4 JUMPI PUSH2 0x13E3 PUSH2 0xEB4 JUMP JUMPDEST JUMPDEST PUSH2 0x13EE DUP3 SLOAD PUSH2 0x1179 JUMP JUMPDEST PUSH2 0x13F9 DUP3 DUP3 DUP6 PUSH2 0x132C JUMP JUMPDEST PUSH0 PUSH1 0x20 SWAP1 POP PUSH1 0x1F DUP4 GT PUSH1 0x1 DUP2 EQ PUSH2 0x142A JUMPI PUSH0 DUP5 ISZERO PUSH2 0x1418 JUMPI DUP3 DUP8 ADD MLOAD SWAP1 POP JUMPDEST PUSH2 0x1422 DUP6 DUP3 PUSH2 0x13A7 JUMP JUMPDEST DUP7 SSTORE POP PUSH2 0x1489 JUMP JUMPDEST PUSH1 0x1F NOT DUP5 AND PUSH2 0x1438 DUP7 PUSH2 0x1211 JUMP JUMPDEST PUSH0 JUMPDEST DUP3 DUP2 LT ISZERO PUSH2 0x145F JUMPI DUP5 DUP10 ADD MLOAD DUP3 SSTORE PUSH1 0x1 DUP3 ADD SWAP2 POP PUSH1 0x20 DUP6 ADD SWAP5 POP PUSH1 0x20 DUP2 ADD SWAP1 POP PUSH2 0x143A JUMP JUMPDEST DUP7 DUP4 LT ISZERO PUSH2 0x147C JUMPI DUP5 DUP10 ADD MLOAD PUSH2 0x1478 PUSH1 0x1F DUP10 AND DUP3 PUSH2 0x138B JUMP JUMPDEST DUP4 SSTORE POP JUMPDEST PUSH1 0x1 PUSH1 0x2 DUP9 MUL ADD DUP9 SSTORE POP POP POP JUMPDEST POP POP POP POP POP POP JUMP JUMPDEST PUSH0 PUSH2 0x149B DUP3 PUSH2 0xC56 JUMP JUMPDEST PUSH2 0x14A5 DUP2 DUP6 PUSH2 0x10D4 JUMP JUMPDEST SWAP4 POP PUSH2 0x14B5 DUP2 DUP6 PUSH1 0x20 DUP7 ADD PUSH2 0xC70 JUMP JUMPDEST PUSH2 0x14BE DUP2 PUSH2 0xC7E JUMP JUMPDEST DUP5 ADD SWAP2 POP POP SWAP3 SWAP2 POP POP JUMP JUMPDEST PUSH0 PUSH1 0x20 DUP3 ADD SWAP1 POP DUP2 DUP2 SUB PUSH0 DUP4 ADD MSTORE PUSH2 0x14E1 DUP2 DUP5 PUSH2 0x1491 JUMP JUMPDEST SWAP1 POP SWAP3 SWAP2 POP POP JUMP JUMPDEST PUSH32 0x4C6120616374756163696F6E2079612065786973746500000000000000000000 PUSH0 DUP3 ADD MSTORE POP JUMP JUMPDEST PUSH0 PUSH2 0x151D PUSH1 0x16 DUP4 PUSH2 0x10D4 JUMP JUMPDEST SWAP2 POP PUSH2 0x1528 DUP3 PUSH2 0x14E9 JUMP JUMPDEST PUSH1 0x20 DUP3 ADD SWAP1 POP SWAP2 SWAP1 POP JUMP JUMPDEST PUSH0 PUSH1 0x20 DUP3 ADD SWAP1 POP DUP2 DUP2 SUB PUSH0 DUP4 ADD MSTORE PUSH2 0x154A DUP2 PUSH2 0x1511 JUMP JUMPDEST SWAP1 POP SWAP2 SWAP1 POP JUMP JUMPDEST PUSH32 0x4E6F2073652068612070616761646F206C612074617269666120646520726567 PUSH0 DUP3 ADD MSTORE PUSH32 0x697374726F000000000000000000000000000000000000000000000000000000 PUSH1 0x20 DUP3 ADD MSTORE POP JUMP JUMPDEST PUSH0 PUSH2 0x15AB PUSH1 0x25 DUP4 PUSH2 0x10D4 JUMP JUMPDEST SWAP2 POP PUSH2 0x15B6 DUP3 PUSH2 0x1551 JUMP JUMPDEST PUSH1 0x40 DUP3 ADD SWAP1 POP SWAP2 SWAP1 POP JUMP JUMPDEST PUSH0 PUSH1 0x20 DUP3 ADD SWAP1 POP DUP2 DUP2 SUB PUSH0 DUP4 ADD MSTORE PUSH2 0x15D8 DUP2 PUSH2 0x159F JUMP JUMPDEST SWAP1 POP SWAP2 SWAP1 POP JUMP JUMPDEST PUSH2 0x15E8 DUP2 PUSH2 0xB0C JUMP JUMPDEST DUP3 MSTORE POP POP JUMP JUMPDEST PUSH0 PUSH1 0x60 DUP3 ADD SWAP1 POP PUSH2 0x1601 PUSH0 DUP4 ADD DUP7 PUSH2 0xE84 JUMP JUMPDEST PUSH2 0x160E PUSH1 0x20 DUP4 ADD DUP6 PUSH2 0xE84 JUMP JUMPDEST PUSH2 0x161B PUSH1 0x40 DUP4 ADD DUP5 PUSH2 0x15DF JUMP JUMPDEST SWAP5 SWAP4 POP POP POP POP JUMP INVALID LOG2 PUSH5 0x6970667358 0x22 SLT KECCAK256 PUSH15 0xCDDC238E74898DD6BF49E295FD798A 0xCF SWAP11 0xB8 SLOAD 0xBE 0xAD 0xF7 SELFDESTRUCT SHL PUSH8 0xC5DD3D53A5AB6473 PUSH16 0x6C634300082200330000000000000000 "
				},
				"gasEstimates": {
					"creation": {
						"codeDepositCost": "1144200",
						"executionCost": "25449",
						"totalCost": "1169649"
					},
					"external": {
						"COSTO()": "347",
						"_inicializarActuacion(bytes32,uint256,bytes32)": "infinite",
						"consultarActuacion(bytes32)": "infinite",
						"modificarEntrada(bytes32,string)": "infinite",
						"propietario()": "2485"
					},
					"internal": {
						"_eliminarEntrada(bytes32)": "infinite"
					}
				},
				"methodIdentifiers": {
					"COSTO()": "52b5241e",
					"_inicializarActuacion(bytes32,uint256,bytes32)": "9f577316",
					"consultarActuacion(bytes32)": "4580e587",
					"modificarEntrada(bytes32,string)": "6547300b",
					"propietario()": "3c4f81cd"
				}
			},
			"storageLayout": {
				"storage": [
					{
						"astId": 38,
						"contract": "ConcejoDeliberante/contracts/Actuacion.sol:ActuacionBase",
						"label": "propietario",
						"offset": 0,
						"slot": "0",
						"type": "t_address"
					},
					{
						"astId": 46,
						"contract": "ConcejoDeliberante/contracts/Actuacion.sol:ActuacionBase",
						"label": "actuaciones",
						"offset": 0,
						"slot": "1",
						"type": "t_mapping(t_bytes32,t_struct(Actuacion)36_storage)"
					},
					{
						"astId": 49,
						"contract": "ConcejoDeliberante/contracts/Actuacion.sol:ActuacionBase",
						"label": "ids",
						"offset": 0,
						"slot": "2",
						"type": "t_array(t_bytes32)dyn_storage"
					}
				],
				"types": {
					"t_address": {
						"encoding": "inplace",
						"label": "address",
						"numberOfBytes": "20"
					},
					"t_array(t_bytes32)dyn_storage": {
						"base": "t_bytes32",
						"encoding": "dynamic_array",
						"label": "bytes32[]",
						"numberOfBytes": "32"
					},
					"t_array(t_struct(Cambio)18_storage)dyn_storage": {
						"base": "t_struct(Cambio)18_storage",
						"encoding": "dynamic_array",
						"label": "struct ActuacionBase.Cambio[]",
						"numberOfBytes": "32"
					},
					"t_bool": {
						"encoding": "inplace",
						"label": "bool",
						"numberOfBytes": "1"
					},
					"t_bytes32": {
						"encoding": "inplace",
						"label": "bytes32",
						"numberOfBytes": "32"
					},
					"t_enum(Estado)5": {
						"encoding": "inplace",
						"label": "enum ActuacionBase.Estado",
						"numberOfBytes": "1"
					},
					"t_mapping(t_bytes32,t_struct(Actuacion)36_storage)": {
						"encoding": "mapping",
						"key": "t_bytes32",
						"label": "mapping(bytes32 => struct ActuacionBase.Actuacion)",
						"numberOfBytes": "32",
						"value": "t_struct(Actuacion)36_storage"
					},
					"t_string_storage": {
						"encoding": "bytes",
						"label": "string",
						"numberOfBytes": "32"
					},
					"t_struct(Actuacion)36_storage": {
						"encoding": "inplace",
						"label": "struct ActuacionBase.Actuacion",
						"members": [
							{
								"astId": 20,
								"contract": "ConcejoDeliberante/contracts/Actuacion.sol:ActuacionBase",
								"label": "id",
								"offset": 0,
								"slot": "0",
								"type": "t_bytes32"
							},
							{
								"astId": 22,
								"contract": "ConcejoDeliberante/contracts/Actuacion.sol:ActuacionBase",
								"label": "fechaCreacion",
								"offset": 0,
								"slot": "1",
								"type": "t_uint256"
							},
							{
								"astId": 24,
								"contract": "ConcejoDeliberante/contracts/Actuacion.sol:ActuacionBase",
								"label": "dniAutor",
								"offset": 0,
								"slot": "2",
								"type": "t_uint256"
							},
							{
								"astId": 26,
								"contract": "ConcejoDeliberante/contracts/Actuacion.sol:ActuacionBase",
								"label": "nombreAutor",
								"offset": 0,
								"slot": "3",
								"type": "t_bytes32"
							},
							{
								"astId": 29,
								"contract": "ConcejoDeliberante/contracts/Actuacion.sol:ActuacionBase",
								"label": "estado",
								"offset": 0,
								"slot": "4",
								"type": "t_enum(Estado)5"
							},
							{
								"astId": 31,
								"contract": "ConcejoDeliberante/contracts/Actuacion.sol:ActuacionBase",
								"label": "existe",
								"offset": 1,
								"slot": "4",
								"type": "t_bool"
							},
							{
								"astId": 35,
								"contract": "ConcejoDeliberante/contracts/Actuacion.sol:ActuacionBase",
								"label": "historial",
								"offset": 0,
								"slot": "5",
								"type": "t_array(t_struct(Cambio)18_storage)dyn_storage"
							}
						],
						"numberOfBytes": "192"
					},
					"t_struct(Cambio)18_storage": {
						"encoding": "inplace",
						"label": "struct ActuacionBase.Cambio",
						"members": [
							{
								"astId": 7,
								"contract": "ConcejoDeliberante/contracts/Actuacion.sol:ActuacionBase",
								"label": "timestamp",
								"offset": 0,
								"slot": "0",
								"type": "t_uint256"
							},
							{
								"astId": 10,
								"contract": "ConcejoDeliberante/contracts/Actuacion.sol:ActuacionBase",
								"label": "estadoAnterior",
								"offset": 0,
								"slot": "1",
								"type": "t_enum(Estado)5"
							},
							{
								"astId": 13,
								"contract": "ConcejoDeliberante/contracts/Actuacion.sol:ActuacionBase",
								"label": "estadoNuevo",
								"offset": 1,
								"slot": "1",
								"type": "t_enum(Estado)5"
							},
							{
								"astId": 15,
								"contract": "ConcejoDeliberante/contracts/Actuacion.sol:ActuacionBase",
								"label": "modificadoPor",
								"offset": 2,
								"slot": "1",
								"type": "t_address"
							},
							{
								"astId": 17,
								"contract": "ConcejoDeliberante/contracts/Actuacion.sol:ActuacionBase",
								"label": "descripcion",
								"offset": 0,
								"slot": "2",
								"type": "t_string_storage"
							}
						],
						"numberOfBytes": "96"
					},
					"t_uint256": {
						"encoding": "inplace",
						"label": "uint256",
						"numberOfBytes": "32"
					}
				}
			},
			"userdoc": {
				"kind": "user",
				"methods": {},
				"version": 1
			}
		}
	}
}