{
	"data": {
		"bytecode": {
			"linkReferences": {},
			"object": "6080604052348015600e575f5ffd5b50335f5f6101000a81548173ffffffffffffffffffffffffffffffffffffffff021916908373ffffffffffffffffffffffffffffffffffffffff1602179055506117798061005b5f395ff3fe60806040526004361061006f575f3560e01c806352b5241e1161004d57806352b5241e146101155780636dd7044e1461013f578063d301e11d1461015b578063ffb6ecdc1461019c5761006f565b80631bc7509e146100735780633c4f81cd146100af5780634cdba193146100d9575b5f5ffd5b34801561007e575f5ffd5b5061009960048036038101906100949190610d56565b6101c4565b6040516100a69190610efd565b60405180910390f35b3480156100ba575f5ffd5b506100c36101df565b6040516100d09190610f2c565b60405180910390f35b3480156100e4575f5ffd5b506100ff60048036038101906100fa9190610f99565b610203565b60405161010c9190611003565b60405180910390f35b348015610120575f5ffd5b5061012961029c565b604051610136919061102b565b60405180910390f35b61015960048036038101906101549190611044565b6102a2565b005b348015610166575f5ffd5b50610181600480360381019061017c9190610d56565b61041e565b604051610193969594939291906110ff565b60405180910390f35b3480156101a7575f5ffd5b506101c260048036038101906101bd919061115e565b6104e1565b005b60605f6101d083610535565b90508060600151915050919050565b5f5f9054906101000a900473ffffffffffffffffffffffffffffffffffffffff1681565b5f60018360ff161461024a576040517f08c379a00000000000000000000000000000000000000000000000000000000081526004016102419061121c565b60405180910390fd5b6102558484846106cd565b507ff1cbbbd659d417a3e64f12428284640f56e8816a61beb5c745057dce5c3fb25b8484846040516102899392919061123a565b60405180910390a1600190509392505050565b6101f481565b6101f43410156102e7576040517f08c379a00000000000000000000000000000000000000000000000000000000081526004016102de906112df565b60405180910390fd5b60038360ff16111561032e576040517f08c379a00000000000000000000000000000000000000000000000000000000081526004016103259061136d565b60405180910390fd5b5f8160ff1614610373576040517f08c379a000000000000000000000000000000000000000000000000000000000815260040161036a906113fb565b60405180910390fd5b61038087878388886108f0565b60405180604001604052808460ff1681526020018381525060035f8981526020019081526020015f205f820151815f015f6101000a81548160ff021916908360ff160217905550602082015181600101559050507ffed5b38ebba8c206df4b17453afe7b2837bdc8a8ff866b4ae24e2c2c3bff640487888585858a60405161040d96959493929190611419565b60405180910390a150505050505050565b5f5f5f5f5f5f5f61042e88610535565b90505f60035f8a81526020019081526020015f209050815f015182602001518360600151600185606001515161046491906114a5565b81518110610475576104746114d8565b5b602002602001015160200151835f015f9054906101000a900460ff168460010154866060015160018860600151516104ad91906114a5565b815181106104be576104bd6114d8565b5b602002602001015160400151975097509750975097509750505091939550919395565b60028160ff1614610527576040517f08c379a000000000000000000000000000000000000000000000000000000000815260040161051e90611575565b60405180910390fd5b6105318282610add565b5050565b61053d610cf8565b60015f8381526020019081526020015f206002015f9054906101000a900460ff1661059d576040517f08c379a0000000000000000000000000000000000000000000000000000000008152600401610594906115dd565b60405180910390fd5b60015f8381526020019081526020015f206040518060800160405290815f820154815260200160018201548152602001600282015f9054906101000a900460ff1615151515815260200160038201805480602002602001604051908101604052809291908181526020015f905b828210156106be578382905f5260205f2090600402016040518060800160405290815f8201548152602001600182015f9054906101000a900460ff1660ff1660ff16815260200160028201548152602001600382015f9054906101000a900473ffffffffffffffffffffffffffffffffffffffff1673ffffffffffffffffffffffffffffffffffffffff1673ffffffffffffffffffffffffffffffffffffffff16815250508152602001906001019061060a565b50505050815250509050919050565b5f60015f8581526020019081526020015f206002015f9054906101000a900460ff1661072e576040517f08c379a0000000000000000000000000000000000000000000000000000000008152600401610725906115dd565b60405180910390fd5b5f5f9054906101000a900473ffffffffffffffffffffffffffffffffffffffff1673ffffffffffffffffffffffffffffffffffffffff163373ffffffffffffffffffffffffffffffffffffffff16146107bc576040517f08c379a00000000000000000000000000000000000000000000000000000000081526004016107b390611645565b60405180910390fd5b60015f8581526020019081526020015f2060030160405180608001604052804281526020018560ff1681526020018481526020013373ffffffffffffffffffffffffffffffffffffffff16815250908060018154018082558091505060019003905f5260205f2090600402015f909190919091505f820151815f01556020820151816001015f6101000a81548160ff021916908360ff160217905550604082015181600201556060820151816003015f6101000a81548173ffffffffffffffffffffffffffffffffffffffff021916908373ffffffffffffffffffffffffffffffffffffffff16021790555050507f02fd7cca134bdc372692f9e8679a7046060ca6da0c386e7494b18b9c21b106528484846040516108dd9392919061123a565b60405180910390a1600190509392505050565b60015f8681526020019081526020015f206002015f9054906101000a900460ff1615610951576040517f08c379a0000000000000000000000000000000000000000000000000000000008152600401610948906116ad565b60405180910390fd5b5f60015f8781526020019081526020015f2090506001816002015f6101000a81548160ff02191690831515021790555084816001018190555081815f01819055508060030160405180608001604052804281526020018660ff1681526020018581526020013373ffffffffffffffffffffffffffffffffffffffff16815250908060018154018082558091505060019003905f5260205f2090600402015f909190919091505f820151815f01556020820151816001015f6101000a81548160ff021916908360ff160217905550604082015181600201556060820151816003015f6101000a81548173ffffffffffffffffffffffffffffffffffffffff021916908373ffffffffffffffffffffffffffffffffffffffff1602179055505050600286908060018154018082558091505060019003905f5260205f20015f90919091909150557f164383a2b97191661e35fd7054520c2abdf173025e32983b038ecb35a796cda78683878787604051610acd9594939291906116cb565b60405180910390a1505050505050565b60015f8381526020019081526020015f206002015f9054906101000a900460ff16610b3d576040517f08c379a0000000000000000000000000000000000000000000000000000000008152600401610b34906115dd565b60405180910390fd5b5f5f9054906101000a900473ffffffffffffffffffffffffffffffffffffffff1673ffffffffffffffffffffffffffffffffffffffff163373ffffffffffffffffffffffffffffffffffffffff1614610bcb576040517f08c379a0000000000000000000000000000000000000000000000000000000008152600401610bc290611645565b60405180910390fd5b60015f8381526020019081526020015f2060030160405180608001604052804281526020018360ff1681526020015f5f1b81526020013373ffffffffffffffffffffffffffffffffffffffff16815250908060018154018082558091505060019003905f5260205f2090600402015f909190919091505f820151815f01556020820151816001015f6101000a81548160ff021916908360ff160217905550604082015181600201556060820151816003015f6101000a81548173ffffffffffffffffffffffffffffffffffffffff021916908373ffffffffffffffffffffffffffffffffffffffff16021790555050507f55f3b2b2bc9c07499976075b3a9a78344b888c51b194889c9214c6eba4bf01138282604051610cec92919061171c565b60405180910390a15050565b60405180608001604052805f81526020015f81526020015f15158152602001606081525090565b5f5ffd5b5f819050919050565b610d3581610d23565b8114610d3f575f5ffd5b50565b5f81359050610d5081610d2c565b92915050565b5f60208284031215610d6b57610d6a610d1f565b5b5f610d7884828501610d42565b91505092915050565b5f81519050919050565b5f82825260208201905092915050565b5f819050602082019050919050565b610db381610d23565b82525050565b5f60ff82169050919050565b610dce81610db9565b82525050565b5f819050919050565b610de681610dd4565b82525050565b5f73ffffffffffffffffffffffffffffffffffffffff82169050919050565b5f610e1582610dec565b9050919050565b610e2581610e0b565b82525050565b608082015f820151610e3f5f850182610daa565b506020820151610e526020850182610dc5565b506040820151610e656040850182610ddd565b506060820151610e786060850182610e1c565b50505050565b5f610e898383610e2b565b60808301905092915050565b5f602082019050919050565b5f610eab82610d81565b610eb58185610d8b565b9350610ec083610d9b565b805f5b83811015610ef0578151610ed78882610e7e565b9750610ee283610e95565b925050600181019050610ec3565b5085935050505092915050565b5f6020820190508181035f830152610f158184610ea1565b905092915050565b610f2681610e0b565b82525050565b5f602082019050610f3f5f830184610f1d565b92915050565b610f4e81610db9565b8114610f58575f5ffd5b50565b5f81359050610f6981610f45565b92915050565b610f7881610dd4565b8114610f82575f5ffd5b50565b5f81359050610f9381610f6f565b92915050565b5f5f5f60608486031215610fb057610faf610d1f565b5b5f610fbd86828701610d42565b9350506020610fce86828701610f5b565b9250506040610fdf86828701610f85565b9150509250925092565b5f8115159050919050565b610ffd81610fe9565b82525050565b5f6020820190506110165f830184610ff4565b92915050565b61102581610d23565b82525050565b5f60208201905061103e5f83018461101c565b92915050565b5f5f5f5f5f5f5f60e0888a03121561105f5761105e610d1f565b5b5f61106c8a828b01610d42565b975050602061107d8a828b01610d42565b965050604061108e8a828b01610f85565b955050606061109f8a828b01610d42565b94505060806110b08a828b01610f5b565b93505060a06110c18a828b01610f85565b92505060c06110d28a828b01610f5b565b91505092959891949750929550565b6110ea81610db9565b82525050565b6110f981610dd4565b82525050565b5f60c0820190506111125f83018961101c565b61111f602083018861101c565b61112c60408301876110e1565b61113960608301866110e1565b61114660808301856110f0565b61115360a08301846110f0565b979650505050505050565b5f5f6040838503121561117457611173610d1f565b5b5f61118185828601610d42565b925050602061119285828601610f5b565b9150509250929050565b5f82825260208201905092915050565b7f45737461646f20696e76616c69646f3a2075736520312070617261204d6f64695f8201527f6669636164610000000000000000000000000000000000000000000000000000602082015250565b5f61120660268361119c565b9150611211826111ac565b604082019050919050565b5f6020820190508181035f830152611233816111fa565b9050919050565b5f60608201905061124d5f83018661101c565b61125a60208301856110e1565b61126760408301846110f0565b949350505050565b7f4e6f2073652068612070616761646f206c6120746172696661206465207265675f8201527f697374726f000000000000000000000000000000000000000000000000000000602082015250565b5f6112c960258361119c565b91506112d48261126f565b604082019050919050565b5f6020820190508181035f8301526112f6816112bd565b9050919050565b7f43617465676f72696120696e76616c6964613a20303d43756c747572616c20315f8201527f3d45647563617469766120323d4465706f727469766120333d536f6369616c00602082015250565b5f611357603f8361119c565b9150611362826112fd565b604082019050919050565b5f6020820190508181035f8301526113848161134b565b9050919050565b7f45737461646f20696e696369616c20696e76616c69646f3a20757365203020705f8201527f61726120566967656e7465000000000000000000000000000000000000000000602082015250565b5f6113e5602b8361119c565b91506113f08261138b565b604082019050919050565b5f6020820190508181035f830152611412816113d9565b9050919050565b5f60c08201905061142c5f83018961101c565b611439602083018861101c565b61144660408301876110e1565b61145360608301866110f0565b61146060808301856110e1565b61146d60a08301846110f0565b979650505050505050565b7f4e487b71000000000000000000000000000000000000000000000000000000005f52601160045260245ffd5b5f6114af82610d23565b91506114ba83610d23565b92508282039050818111156114d2576114d1611478565b5b92915050565b7f4e487b71000000000000000000000000000000000000000000000000000000005f52603260045260245ffd5b7f45737461646f20696e76616c69646f3a2075736520322070617261204465726f5f8201527f6761646100000000000000000000000000000000000000000000000000000000602082015250565b5f61155f60248361119c565b915061156a82611505565b604082019050919050565b5f6020820190508181035f83015261158c81611553565b9050919050565b7f4c6120616374756163696f6e206e6f20657869737465000000000000000000005f82015250565b5f6115c760168361119c565b91506115d282611593565b602082019050919050565b5f6020820190508181035f8301526115f4816115bb565b9050919050565b7f4e6f20657320656c2070726f706965746172696f0000000000000000000000005f82015250565b5f61162f60148361119c565b915061163a826115fb565b602082019050919050565b5f6020820190508181035f83015261165c81611623565b9050919050565b7f4c6120616374756163696f6e20796120657869737465000000000000000000005f82015250565b5f61169760168361119c565b91506116a282611663565b602082019050919050565b5f6020820190508181035f8301526116c48161168b565b9050919050565b5f60a0820190506116de5f83018861101c565b6116eb602083018761101c565b6116f8604083018661101c565b61170560608301856110e1565b61171260808301846110f0565b9695505050505050565b5f60408201905061172f5f83018561101c565b61173c60208301846110e1565b939250505056fea2646970667358221220b66635d3b328f08aa5c30ee08b46e6bef7212720d1135ddeac515ab4fb0f95c164736f6c63430008220033",
			"opcodes": "PUSH1 0x80 PUSH1 0x40 MSTORE CALLVALUE DUP1 ISZERO PUSH1 0xE JUMPI PUSH0 PUSH0 REVERT JUMPDEST POP CALLER PUSH0 PUSH0 PUSH2 0x100 EXP DUP2 SLOAD DUP2 PUSH20 0xFFFFFFFFFFFFFFFFFFFFFFFFFFFFFFFFFFFFFFFF MUL NOT AND SWAP1 DUP4 PUSH20 0xFFFFFFFFFFFFFFFFFFFFFFFFFFFFFFFFFFFFFFFF AND MUL OR SWAP1 SSTORE POP PUSH2 0x1779 DUP1 PUSH2 0x5B PUSH0 CODECOPY PUSH0 RETURN INVALID PUSH1 0x80 PUSH1 0x40 MSTORE PUSH1 0x4 CALLDATASIZE LT PUSH2 0x6F JUMPI PUSH0 CALLDATALOAD PUSH1 0xE0 SHR DUP1 PUSH4 0x52B5241E GT PUSH2 0x4D JUMPI DUP1 PUSH4 0x52B5241E EQ PUSH2 0x115 JUMPI DUP1 PUSH4 0x6DD7044E EQ PUSH2 0x13F JUMPI DUP1 PUSH4 0xD301E11D EQ PUSH2 0x15B JUMPI DUP1 PUSH4 0xFFB6ECDC EQ PUSH2 0x19C JUMPI PUSH2 0x6F JUMP JUMPDEST DUP1 PUSH4 0x1BC7509E EQ PUSH2 0x73 JUMPI DUP1 PUSH4 0x3C4F81CD EQ PUSH2 0xAF JUMPI DUP1 PUSH4 0x4CDBA193 EQ PUSH2 0xD9 JUMPI JUMPDEST PUSH0 PUSH0 REVERT JUMPDEST CALLVALUE DUP1 ISZERO PUSH2 0x7E JUMPI PUSH0 PUSH0 REVERT JUMPDEST POP PUSH2 0x99 PUSH1 0x4 DUP1 CALLDATASIZE SUB DUP2 ADD SWAP1 PUSH2 0x94 SWAP2 SWAP1 PUSH2 0xD56 JUMP JUMPDEST PUSH2 0x1C4 JUMP JUMPDEST PUSH1 0x40 MLOAD PUSH2 0xA6 SWAP2 SWAP1 PUSH2 0xEFD JUMP JUMPDEST PUSH1 0x40 MLOAD DUP1 SWAP2 SUB SWAP1 RETURN JUMPDEST CALLVALUE DUP1 ISZERO PUSH2 0xBA JUMPI PUSH0 PUSH0 REVERT JUMPDEST POP PUSH2 0xC3 PUSH2 0x1DF JUMP JUMPDEST PUSH1 0x40 MLOAD PUSH2 0xD0 SWAP2 SWAP1 PUSH2 0xF2C JUMP JUMPDEST PUSH1 0x40 MLOAD DUP1 SWAP2 SUB SWAP1 RETURN JUMPDEST CALLVALUE DUP1 ISZERO PUSH2 0xE4 JUMPI PUSH0 PUSH0 REVERT JUMPDEST POP PUSH2 0xFF PUSH1 0x4 DUP1 CALLDATASIZE SUB DUP2 ADD SWAP1 PUSH2 0xFA SWAP2 SWAP1 PUSH2 0xF99 JUMP JUMPDEST PUSH2 0x203 JUMP JUMPDEST PUSH1 0x40 MLOAD PUSH2 0x10C SWAP2 SWAP1 PUSH2 0x1003 JUMP JUMPDEST PUSH1 0x40 MLOAD DUP1 SWAP2 SUB SWAP1 RETURN JUMPDEST CALLVALUE DUP1 ISZERO PUSH2 0x120 JUMPI PUSH0 PUSH0 REVERT JUMPDEST POP PUSH2 0x129 PUSH2 0x29C JUMP JUMPDEST PUSH1 0x40 MLOAD PUSH2 0x136 SWAP2 SWAP1 PUSH2 0x102B JUMP JUMPDEST PUSH1 0x40 MLOAD DUP1 SWAP2 SUB SWAP1 RETURN JUMPDEST PUSH2 0x159 PUSH1 0x4 DUP1 CALLDATASIZE SUB DUP2 ADD SWAP1 PUSH2 0x154 SWAP2 SWAP1 PUSH2 0x1044 JUMP JUMPDEST PUSH2 0x2A2 JUMP JUMPDEST STOP JUMPDEST CALLVALUE DUP1 ISZERO PUSH2 0x166 JUMPI PUSH0 PUSH0 REVERT JUMPDEST POP PUSH2 0x181 PUSH1 0x4 DUP1 CALLDATASIZE SUB DUP2 ADD SWAP1 PUSH2 0x17C SWAP2 SWAP1 PUSH2 0xD56 JUMP JUMPDEST PUSH2 0x41E JUMP JUMPDEST PUSH1 0x40 MLOAD PUSH2 0x193 SWAP7 SWAP6 SWAP5 SWAP4 SWAP3 SWAP2 SWAP1 PUSH2 0x10FF JUMP JUMPDEST PUSH1 0x40 MLOAD DUP1 SWAP2 SUB SWAP1 RETURN JUMPDEST CALLVALUE DUP1 ISZERO PUSH2 0x1A7 JUMPI PUSH0 PUSH0 REVERT JUMPDEST POP PUSH2 0x1C2 PUSH1 0x4 DUP1 CALLDATASIZE SUB DUP2 ADD SWAP1 PUSH2 0x1BD SWAP2 SWAP1 PUSH2 0x115E JUMP JUMPDEST PUSH2 0x4E1 JUMP JUMPDEST STOP JUMPDEST PUSH1 0x60 PUSH0 PUSH2 0x1D0 DUP4 PUSH2 0x535 JUMP JUMPDEST SWAP1 POP DUP1 PUSH1 0x60 ADD MLOAD SWAP2 POP POP SWAP2 SWAP1 POP JUMP JUMPDEST PUSH0 PUSH0 SWAP1 SLOAD SWAP1 PUSH2 0x100 EXP SWAP1 DIV PUSH20 0xFFFFFFFFFFFFFFFFFFFFFFFFFFFFFFFFFFFFFFFF AND DUP2 JUMP JUMPDEST PUSH0 PUSH1 0x1 DUP4 PUSH1 0xFF AND EQ PUSH2 0x24A JUMPI PUSH1 0x40 MLOAD PUSH32 0x8C379A000000000000000000000000000000000000000000000000000000000 DUP2 MSTORE PUSH1 0x4 ADD PUSH2 0x241 SWAP1 PUSH2 0x121C JUMP JUMPDEST PUSH1 0x40 MLOAD DUP1 SWAP2 SUB SWAP1 REVERT JUMPDEST PUSH2 0x255 DUP5 DUP5 DUP5 PUSH2 0x6CD JUMP JUMPDEST POP PUSH32 0xF1CBBBD659D417A3E64F12428284640F56E8816A61BEB5C745057DCE5C3FB25B DUP5 DUP5 DUP5 PUSH1 0x40 MLOAD PUSH2 0x289 SWAP4 SWAP3 SWAP2 SWAP1 PUSH2 0x123A JUMP JUMPDEST PUSH1 0x40 MLOAD DUP1 SWAP2 SUB SWAP1 LOG1 PUSH1 0x1 SWAP1 POP SWAP4 SWAP3 POP POP POP JUMP JUMPDEST PUSH2 0x1F4 DUP2 JUMP JUMPDEST PUSH2 0x1F4 CALLVALUE LT ISZERO PUSH2 0x2E7 JUMPI PUSH1 0x40 MLOAD PUSH32 0x8C379A000000000000000000000000000000000000000000000000000000000 DUP2 MSTORE PUSH1 0x4 ADD PUSH2 0x2DE SWAP1 PUSH2 0x12DF JUMP JUMPDEST PUSH1 0x40 MLOAD DUP1 SWAP2 SUB SWAP1 REVERT JUMPDEST PUSH1 0x3 DUP4 PUSH1 0xFF AND GT ISZERO PUSH2 0x32E JUMPI PUSH1 0x40 MLOAD PUSH32 0x8C379A000000000000000000000000000000000000000000000000000000000 DUP2 MSTORE PUSH1 0x4 ADD PUSH2 0x325 SWAP1 PUSH2 0x136D JUMP JUMPDEST PUSH1 0x40 MLOAD DUP1 SWAP2 SUB SWAP1 REVERT JUMPDEST PUSH0 DUP2 PUSH1 0xFF AND EQ PUSH2 0x373 JUMPI PUSH1 0x40 MLOAD PUSH32 0x8C379A000000000000000000000000000000000000000000000000000000000 DUP2 MSTORE PUSH1 0x4 ADD PUSH2 0x36A SWAP1 PUSH2 0x13FB JUMP JUMPDEST PUSH1 0x40 MLOAD DUP1 SWAP2 SUB SWAP1 REVERT JUMPDEST PUSH2 0x380 DUP8 DUP8 DUP4 DUP9 DUP9 PUSH2 0x8F0 JUMP JUMPDEST PUSH1 0x40 MLOAD DUP1 PUSH1 0x40 ADD PUSH1 0x40 MSTORE DUP1 DUP5 PUSH1 0xFF AND DUP2 MSTORE PUSH1 0x20 ADD DUP4 DUP2 MSTORE POP PUSH1 0x3 PUSH0 DUP10 DUP2 MSTORE PUSH1 0x20 ADD SWAP1 DUP2 MSTORE PUSH1 0x20 ADD PUSH0 KECCAK256 PUSH0 DUP3 ADD MLOAD DUP2 PUSH0 ADD PUSH0 PUSH2 0x100 EXP DUP2 SLOAD DUP2 PUSH1 0xFF MUL NOT AND SWAP1 DUP4 PUSH1 0xFF AND MUL OR SWAP1 SSTORE POP PUSH1 0x20 DUP3 ADD MLOAD DUP2 PUSH1 0x1 ADD SSTORE SWAP1 POP POP PUSH32 0xFED5B38EBBA8C206DF4B17453AFE7B2837BDC8A8FF866B4AE24E2C2C3BFF6404 DUP8 DUP9 DUP6 DUP6 DUP6 DUP11 PUSH1 0x40 MLOAD PUSH2 0x40D SWAP7 SWAP6 SWAP5 SWAP4 SWAP3 SWAP2 SWAP1 PUSH2 0x1419 JUMP JUMPDEST PUSH1 0x40 MLOAD DUP1 SWAP2 SUB SWAP1 LOG1 POP POP POP POP POP POP POP JUMP JUMPDEST PUSH0 PUSH0 PUSH0 PUSH0 PUSH0 PUSH0 PUSH0 PUSH2 0x42E DUP9 PUSH2 0x535 JUMP JUMPDEST SWAP1 POP PUSH0 PUSH1 0x3 PUSH0 DUP11 DUP2 MSTORE PUSH1 0x20 ADD SWAP1 DUP2 MSTORE PUSH1 0x20 ADD PUSH0 KECCAK256 SWAP1 POP DUP2 PUSH0 ADD MLOAD DUP3 PUSH1 0x20 ADD MLOAD DUP4 PUSH1 0x60 ADD MLOAD PUSH1 0x1 DUP6 PUSH1 0x60 ADD MLOAD MLOAD PUSH2 0x464 SWAP2 SWAP1 PUSH2 0x14A5 JUMP JUMPDEST DUP2 MLOAD DUP2 LT PUSH2 0x475 JUMPI PUSH2 0x474 PUSH2 0x14D8 JUMP JUMPDEST JUMPDEST PUSH1 0x20 MUL PUSH1 0x20 ADD ADD MLOAD PUSH1 0x20 ADD MLOAD DUP4 PUSH0 ADD PUSH0 SWAP1 SLOAD SWAP1 PUSH2 0x100 EXP SWAP1 DIV PUSH1 0xFF AND DUP5 PUSH1 0x1 ADD SLOAD DUP7 PUSH1 0x60 ADD MLOAD PUSH1 0x1 DUP9 PUSH1 0x60 ADD MLOAD MLOAD PUSH2 0x4AD SWAP2 SWAP1 PUSH2 0x14A5 JUMP JUMPDEST DUP2 MLOAD DUP2 LT PUSH2 0x4BE JUMPI PUSH2 0x4BD PUSH2 0x14D8 JUMP JUMPDEST JUMPDEST PUSH1 0x20 MUL PUSH1 0x20 ADD ADD MLOAD PUSH1 0x40 ADD MLOAD SWAP8 POP SWAP8 POP SWAP8 POP SWAP8 POP SWAP8 POP SWAP8 POP POP POP SWAP2 SWAP4 SWAP6 POP SWAP2 SWAP4 SWAP6 JUMP JUMPDEST PUSH1 0x2 DUP2 PUSH1 0xFF AND EQ PUSH2 0x527 JUMPI PUSH1 0x40 MLOAD PUSH32 0x8C379A000000000000000000000000000000000000000000000000000000000 DUP2 MSTORE PUSH1 0x4 ADD PUSH2 0x51E SWAP1 PUSH2 0x1575 JUMP JUMPDEST PUSH1 0x40 MLOAD DUP1 SWAP2 SUB SWAP1 REVERT JUMPDEST PUSH2 0x531 DUP3 DUP3 PUSH2 0xADD JUMP JUMPDEST POP POP JUMP JUMPDEST PUSH2 0x53D PUSH2 0xCF8 JUMP JUMPDEST PUSH1 0x1 PUSH0 DUP4 DUP2 MSTORE PUSH1 0x20 ADD SWAP1 DUP2 MSTORE PUSH1 0x20 ADD PUSH0 KECCAK256 PUSH1 0x2 ADD PUSH0 SWAP1 SLOAD SWAP1 PUSH2 0x100 EXP SWAP1 DIV PUSH1 0xFF AND PUSH2 0x59D JUMPI PUSH1 0x40 MLOAD PUSH32 0x8C379A000000000000000000000000000000000000000000000000000000000 DUP2 MSTORE PUSH1 0x4 ADD PUSH2 0x594 SWAP1 PUSH2 0x15DD JUMP JUMPDEST PUSH1 0x40 MLOAD DUP1 SWAP2 SUB SWAP1 REVERT JUMPDEST PUSH1 0x1 PUSH0 DUP4 DUP2 MSTORE PUSH1 0x20 ADD SWAP1 DUP2 MSTORE PUSH1 0x20 ADD PUSH0 KECCAK256 PUSH1 0x40 MLOAD DUP1 PUSH1 0x80 ADD PUSH1 0x40 MSTORE SWAP1 DUP2 PUSH0 DUP3 ADD SLOAD DUP2 MSTORE PUSH1 0x20 ADD PUSH1 0x1 DUP3 ADD SLOAD DUP2 MSTORE PUSH1 0x20 ADD PUSH1 0x2 DUP3 ADD PUSH0 SWAP1 SLOAD SWAP1 PUSH2 0x100 EXP SWAP1 DIV PUSH1 0xFF AND ISZERO ISZERO ISZERO ISZERO DUP2 MSTORE PUSH1 0x20 ADD PUSH1 0x3 DUP3 ADD DUP1 SLOAD DUP1 PUSH1 0x20 MUL PUSH1 0x20 ADD PUSH1 0x40 MLOAD SWAP1 DUP2 ADD PUSH1 0x40 MSTORE DUP1 SWAP3 SWAP2 SWAP1 DUP2 DUP2 MSTORE PUSH1 0x20 ADD PUSH0 SWAP1 JUMPDEST DUP3 DUP3 LT ISZERO PUSH2 0x6BE JUMPI DUP4 DUP3 SWAP1 PUSH0 MSTORE PUSH1 0x20 PUSH0 KECCAK256 SWAP1 PUSH1 0x4 MUL ADD PUSH1 0x40 MLOAD DUP1 PUSH1 0x80 ADD PUSH1 0x40 MSTORE SWAP1 DUP2 PUSH0 DUP3 ADD SLOAD DUP2 MSTORE PUSH1 0x20 ADD PUSH1 0x1 DUP3 ADD PUSH0 SWAP1 SLOAD SWAP1 PUSH2 0x100 EXP SWAP1 DIV PUSH1 0xFF AND PUSH1 0xFF AND PUSH1 0xFF AND DUP2 MSTORE PUSH1 0x20 ADD PUSH1 0x2 DUP3 ADD SLOAD DUP2 MSTORE PUSH1 0x20 ADD PUSH1 0x3 DUP3 ADD PUSH0 SWAP1 SLOAD SWAP1 PUSH2 0x100 EXP SWAP1 DIV PUSH20 0xFFFFFFFFFFFFFFFFFFFFFFFFFFFFFFFFFFFFFFFF AND PUSH20 0xFFFFFFFFFFFFFFFFFFFFFFFFFFFFFFFFFFFFFFFF AND PUSH20 0xFFFFFFFFFFFFFFFFFFFFFFFFFFFFFFFFFFFFFFFF AND DUP2 MSTORE POP POP DUP2 MSTORE PUSH1 0x20 ADD SWAP1 PUSH1 0x1 ADD SWAP1 PUSH2 0x60A JUMP JUMPDEST POP POP POP POP DUP2 MSTORE POP POP SWAP1 POP SWAP2 SWAP1 POP JUMP JUMPDEST PUSH0 PUSH1 0x1 PUSH0 DUP6 DUP2 MSTORE PUSH1 0x20 ADD SWAP1 DUP2 MSTORE PUSH1 0x20 ADD PUSH0 KECCAK256 PUSH1 0x2 ADD PUSH0 SWAP1 SLOAD SWAP1 PUSH2 0x100 EXP SWAP1 DIV PUSH1 0xFF AND PUSH2 0x72E JUMPI PUSH1 0x40 MLOAD PUSH32 0x8C379A000000000000000000000000000000000000000000000000000000000 DUP2 MSTORE PUSH1 0x4 ADD PUSH2 0x725 SWAP1 PUSH2 0x15DD JUMP JUMPDEST PUSH1 0x40 MLOAD DUP1 SWAP2 SUB SWAP1 REVERT JUMPDEST PUSH0 PUSH0 SWAP1 SLOAD SWAP1 PUSH2 0x100 EXP SWAP1 DIV PUSH20 0xFFFFFFFFFFFFFFFFFFFFFFFFFFFFFFFFFFFFFFFF AND PUSH20 0xFFFFFFFFFFFFFFFFFFFFFFFFFFFFFFFFFFFFFFFF AND CALLER PUSH20 0xFFFFFFFFFFFFFFFFFFFFFFFFFFFFFFFFFFFFFFFF AND EQ PUSH2 0x7BC JUMPI PUSH1 0x40 MLOAD PUSH32 0x8C379A000000000000000000000000000000000000000000000000000000000 DUP2 MSTORE PUSH1 0x4 ADD PUSH2 0x7B3 SWAP1 PUSH2 0x1645 JUMP JUMPDEST PUSH1 0x40 MLOAD DUP1 SWAP2 SUB SWAP1 REVERT JUMPDEST PUSH1 0x1 PUSH0 DUP6 DUP2 MSTORE PUSH1 0x20 ADD SWAP1 DUP2 MSTORE PUSH1 0x20 ADD PUSH0 KECCAK256 PUSH1 0x3 ADD PUSH1 0x40 MLOAD DUP1 PUSH1 0x80 ADD PUSH1 0x40 MSTORE DUP1 TIMESTAMP DUP2 MSTORE PUSH1 0x20 ADD DUP6 PUSH1 0xFF AND DUP2 MSTORE PUSH1 0x20 ADD DUP5 DUP2 MSTORE PUSH1 0x20 ADD CALLER PUSH20 0xFFFFFFFFFFFFFFFFFFFFFFFFFFFFFFFFFFFFFFFF AND DUP2 MSTORE POP SWAP1 DUP1 PUSH1 0x1 DUP2 SLOAD ADD DUP1 DUP3 SSTORE DUP1 SWAP2 POP POP PUSH1 0x1 SWAP1 SUB SWAP1 PUSH0 MSTORE PUSH1 0x20 PUSH0 KECCAK256 SWAP1 PUSH1 0x4 MUL ADD PUSH0 SWAP1 SWAP2 SWAP1 SWAP2 SWAP1 SWAP2 POP PUSH0 DUP3 ADD MLOAD DUP2 PUSH0 ADD SSTORE PUSH1 0x20 DUP3 ADD MLOAD DUP2 PUSH1 0x1 ADD PUSH0 PUSH2 0x100 EXP DUP2 SLOAD DUP2 PUSH1 0xFF MUL NOT AND SWAP1 DUP4 PUSH1 0xFF AND MUL OR SWAP1 SSTORE POP PUSH1 0x40 DUP3 ADD MLOAD DUP2 PUSH1 0x2 ADD SSTORE PUSH1 0x60 DUP3 ADD MLOAD DUP2 PUSH1 0x3 ADD PUSH0 PUSH2 0x100 EXP DUP2 SLOAD DUP2 PUSH20 0xFFFFFFFFFFFFFFFFFFFFFFFFFFFFFFFFFFFFFFFF MUL NOT AND SWAP1 DUP4 PUSH20 0xFFFFFFFFFFFFFFFFFFFFFFFFFFFFFFFFFFFFFFFF AND MUL OR SWAP1 SSTORE POP POP POP PUSH32 0x2FD7CCA134BDC372692F9E8679A7046060CA6DA0C386E7494B18B9C21B10652 DUP5 DUP5 DUP5 PUSH1 0x40 MLOAD PUSH2 0x8DD SWAP4 SWAP3 SWAP2 SWAP1 PUSH2 0x123A JUMP JUMPDEST PUSH1 0x40 MLOAD DUP1 SWAP2 SUB SWAP1 LOG1 PUSH1 0x1 SWAP1 POP SWAP4 SWAP3 POP POP POP JUMP JUMPDEST PUSH1 0x1 PUSH0 DUP7 DUP2 MSTORE PUSH1 0x20 ADD SWAP1 DUP2 MSTORE PUSH1 0x20 ADD PUSH0 KECCAK256 PUSH1 0x2 ADD PUSH0 SWAP1 SLOAD SWAP1 PUSH2 0x100 EXP SWAP1 DIV PUSH1 0xFF AND ISZERO PUSH2 0x951 JUMPI PUSH1 0x40 MLOAD PUSH32 0x8C379A000000000000000000000000000000000000000000000000000000000 DUP2 MSTORE PUSH1 0x4 ADD PUSH2 0x948 SWAP1 PUSH2 0x16AD JUMP JUMPDEST PUSH1 0x40 MLOAD DUP1 SWAP2 SUB SWAP1 REVERT JUMPDEST PUSH0 PUSH1 0x1 PUSH0 DUP8 DUP2 MSTORE PUSH1 0x20 ADD SWAP1 DUP2 MSTORE PUSH1 0x20 ADD PUSH0 KECCAK256 SWAP1 POP PUSH1 0x1 DUP2 PUSH1 0x2 ADD PUSH0 PUSH2 0x100 EXP DUP2 SLOAD DUP2 PUSH1 0xFF MUL NOT AND SWAP1 DUP4 ISZERO ISZERO MUL OR SWAP1 SSTORE POP DUP5 DUP2 PUSH1 0x1 ADD DUP2 SWAP1 SSTORE POP DUP2 DUP2 PUSH0 ADD DUP2 SWAP1 SSTORE POP DUP1 PUSH1 0x3 ADD PUSH1 0x40 MLOAD DUP1 PUSH1 0x80 ADD PUSH1 0x40 MSTORE DUP1 TIMESTAMP DUP2 MSTORE PUSH1 0x20 ADD DUP7 PUSH1 0xFF AND DUP2 MSTORE PUSH1 0x20 ADD DUP6 DUP2 MSTORE PUSH1 0x20 ADD CALLER PUSH20 0xFFFFFFFFFFFFFFFFFFFFFFFFFFFFFFFFFFFFFFFF AND DUP2 MSTORE POP SWAP1 DUP1 PUSH1 0x1 DUP2 SLOAD ADD DUP1 DUP3 SSTORE DUP1 SWAP2 POP POP PUSH1 0x1 SWAP1 SUB SWAP1 PUSH0 MSTORE PUSH1 0x20 PUSH0 KECCAK256 SWAP1 PUSH1 0x4 MUL ADD PUSH0 SWAP1 SWAP2 SWAP1 SWAP2 SWAP1 SWAP2 POP PUSH0 DUP3 ADD MLOAD DUP2 PUSH0 ADD SSTORE PUSH1 0x20 DUP3 ADD MLOAD DUP2 PUSH1 0x1 ADD PUSH0 PUSH2 0x100 EXP DUP2 SLOAD DUP2 PUSH1 0xFF MUL NOT AND SWAP1 DUP4 PUSH1 0xFF AND MUL OR SWAP1 SSTORE POP PUSH1 0x40 DUP3 ADD MLOAD DUP2 PUSH1 0x2 ADD SSTORE PUSH1 0x60 DUP3 ADD MLOAD DUP2 PUSH1 0x3 ADD PUSH0 PUSH2 0x100 EXP DUP2 SLOAD DUP2 PUSH20 0xFFFFFFFFFFFFFFFFFFFFFFFFFFFFFFFFFFFFFFFF MUL NOT AND SWAP1 DUP4 PUSH20 0xFFFFFFFFFFFFFFFFFFFFFFFFFFFFFFFFFFFFFFFF AND MUL OR SWAP1 SSTORE POP POP POP PUSH1 0x2 DUP7 SWAP1 DUP1 PUSH1 0x1 DUP2 SLOAD ADD DUP1 DUP3 SSTORE DUP1 SWAP2 POP POP PUSH1 0x1 SWAP1 SUB SWAP1 PUSH0 MSTORE PUSH1 0x20 PUSH0 KECCAK256 ADD PUSH0 SWAP1 SWAP2 SWAP1 SWAP2 SWAP1 SWAP2 POP SSTORE PUSH32 0x164383A2B97191661E35FD7054520C2ABDF173025E32983B038ECB35A796CDA7 DUP7 DUP4 DUP8 DUP8 DUP8 PUSH1 0x40 MLOAD PUSH2 0xACD SWAP6 SWAP5 SWAP4 SWAP3 SWAP2 SWAP1 PUSH2 0x16CB JUMP JUMPDEST PUSH1 0x40 MLOAD DUP1 SWAP2 SUB SWAP1 LOG1 POP POP POP POP POP POP JUMP JUMPDEST PUSH1 0x1 PUSH0 DUP4 DUP2 MSTORE PUSH1 0x20 ADD SWAP1 DUP2 MSTORE PUSH1 0x20 ADD PUSH0 KECCAK256 PUSH1 0x2 ADD PUSH0 SWAP1 SLOAD SWAP1 PUSH2 0x100 EXP SWAP1 DIV PUSH1 0xFF AND PUSH2 0xB3D JUMPI PUSH1 0x40 MLOAD PUSH32 0x8C379A000000000000000000000000000000000000000000000000000000000 DUP2 MSTORE PUSH1 0x4 ADD PUSH2 0xB34 SWAP1 PUSH2 0x15DD JUMP JUMPDEST PUSH1 0x40 MLOAD DUP1 SWAP2 SUB SWAP1 REVERT JUMPDEST PUSH0 PUSH0 SWAP1 SLOAD SWAP1 PUSH2 0x100 EXP SWAP1 DIV PUSH20 0xFFFFFFFFFFFFFFFFFFFFFFFFFFFFFFFFFFFFFFFF AND PUSH20 0xFFFFFFFFFFFFFFFFFFFFFFFFFFFFFFFFFFFFFFFF AND CALLER PUSH20 0xFFFFFFFFFFFFFFFFFFFFFFFFFFFFFFFFFFFFFFFF AND EQ PUSH2 0xBCB JUMPI PUSH1 0x40 MLOAD PUSH32 0x8C379A000000000000000000000000000000000000000000000000000000000 DUP2 MSTORE PUSH1 0x4 ADD PUSH2 0xBC2 SWAP1 PUSH2 0x1645 JUMP JUMPDEST PUSH1 0x40 MLOAD DUP1 SWAP2 SUB SWAP1 REVERT JUMPDEST PUSH1 0x1 PUSH0 DUP4 DUP2 MSTORE PUSH1 0x20 ADD SWAP1 DUP2 MSTORE PUSH1 0x20 ADD PUSH0 KECCAK256 PUSH1 0x3 ADD PUSH1 0x40 MLOAD DUP1 PUSH1 0x80 ADD PUSH1 0x40 MSTORE DUP1 TIMESTAMP DUP2 MSTORE PUSH1 0x20 ADD DUP4 PUSH1 0xFF AND DUP2 MSTORE PUSH1 0x20 ADD PUSH0 PUSH0 SHL DUP2 MSTORE PUSH1 0x20 ADD CALLER PUSH20 0xFFFFFFFFFFFFFFFFFFFFFFFFFFFFFFFFFFFFFFFF AND DUP2 MSTORE POP SWAP1 DUP1 PUSH1 0x1 DUP2 SLOAD ADD DUP1 DUP3 SSTORE DUP1 SWAP2 POP POP PUSH1 0x1 SWAP1 SUB SWAP1 PUSH0 MSTORE PUSH1 0x20 PUSH0 KECCAK256 SWAP1 PUSH1 0x4 MUL ADD PUSH0 SWAP1 SWAP2 SWAP1 SWAP2 SWAP1 SWAP2 POP PUSH0 DUP3 ADD MLOAD DUP2 PUSH0 ADD SSTORE PUSH1 0x20 DUP3 ADD MLOAD DUP2 PUSH1 0x1 ADD PUSH0 PUSH2 0x100 EXP DUP2 SLOAD DUP2 PUSH1 0xFF MUL NOT AND SWAP1 DUP4 PUSH1 0xFF AND MUL OR SWAP1 SSTORE POP PUSH1 0x40 DUP3 ADD MLOAD DUP2 PUSH1 0x2 ADD SSTORE PUSH1 0x60 DUP3 ADD MLOAD DUP2 PUSH1 0x3 ADD PUSH0 PUSH2 0x100 EXP DUP2 SLOAD DUP2 PUSH20 0xFFFFFFFFFFFFFFFFFFFFFFFFFFFFFFFFFFFFFFFF MUL NOT AND SWAP1 DUP4 PUSH20 0xFFFFFFFFFFFFFFFFFFFFFFFFFFFFFFFFFFFFFFFF AND MUL OR SWAP1 SSTORE POP POP POP PUSH32 0x55F3B2B2BC9C07499976075B3A9A78344B888C51B194889C9214C6EBA4BF0113 DUP3 DUP3 PUSH1 0x40 MLOAD PUSH2 0xCEC SWAP3 SWAP2 SWAP1 PUSH2 0x171C JUMP JUMPDEST PUSH1 0x40 MLOAD DUP1 SWAP2 SUB SWAP1 LOG1 POP POP JUMP JUMPDEST PUSH1 0x40 MLOAD DUP1 PUSH1 0x80 ADD PUSH1 0x40 MSTORE DUP1 PUSH0 DUP2 MSTORE PUSH1 0x20 ADD PUSH0 DUP2 MSTORE PUSH1 0x20 ADD PUSH0 ISZERO ISZERO DUP2 MSTORE PUSH1 0x20 ADD PUSH1 0x60 DUP2 MSTORE POP SWAP1 JUMP JUMPDEST PUSH0 PUSH0 REVERT JUMPDEST PUSH0 DUP2 SWAP1 POP SWAP2 SWAP1 POP JUMP JUMPDEST PUSH2 0xD35 DUP2 PUSH2 0xD23 JUMP JUMPDEST DUP2 EQ PUSH2 0xD3F JUMPI PUSH0 PUSH0 REVERT JUMPDEST POP JUMP JUMPDEST PUSH0 DUP2 CALLDATALOAD SWAP1 POP PUSH2 0xD50 DUP2 PUSH2 0xD2C JUMP JUMPDEST SWAP3 SWAP2 POP POP JUMP JUMPDEST PUSH0 PUSH1 0x20 DUP3 DUP5 SUB SLT ISZERO PUSH2 0xD6B JUMPI PUSH2 0xD6A PUSH2 0xD1F JUMP JUMPDEST JUMPDEST PUSH0 PUSH2 0xD78 DUP5 DUP3 DUP6 ADD PUSH2 0xD42 JUMP JUMPDEST SWAP2 POP POP SWAP3 SWAP2 POP POP JUMP JUMPDEST PUSH0 DUP2 MLOAD SWAP1 POP SWAP2 SWAP1 POP JUMP JUMPDEST PUSH0 DUP3 DUP3 MSTORE PUSH1 0x20 DUP3 ADD SWAP1 POP SWAP3 SWAP2 POP POP JUMP JUMPDEST PUSH0 DUP2 SWAP1 POP PUSH1 0x20 DUP3 ADD SWAP1 POP SWAP2 SWAP1 POP JUMP JUMPDEST PUSH2 0xDB3 DUP2 PUSH2 0xD23 JUMP JUMPDEST DUP3 MSTORE POP POP JUMP JUMPDEST PUSH0 PUSH1 0xFF DUP3 AND SWAP1 POP SWAP2 SWAP1 POP JUMP JUMPDEST PUSH2 0xDCE DUP2 PUSH2 0xDB9 JUMP JUMPDEST DUP3 MSTORE POP POP JUMP JUMPDEST PUSH0 DUP2 SWAP1 POP SWAP2 SWAP1 POP JUMP JUMPDEST PUSH2 0xDE6 DUP2 PUSH2 0xDD4 JUMP JUMPDEST DUP3 MSTORE POP POP JUMP JUMPDEST PUSH0 PUSH20 0xFFFFFFFFFFFFFFFFFFFFFFFFFFFFFFFFFFFFFFFF DUP3 AND SWAP1 POP SWAP2 SWAP1 POP JUMP JUMPDEST PUSH0 PUSH2 0xE15 DUP3 PUSH2 0xDEC JUMP JUMPDEST SWAP1 POP SWAP2 SWAP1 POP JUMP JUMPDEST PUSH2 0xE25 DUP2 PUSH2 0xE0B JUMP JUMPDEST DUP3 MSTORE POP POP JUMP JUMPDEST PUSH1 0x80 DUP3 ADD PUSH0 DUP3 ADD MLOAD PUSH2 0xE3F PUSH0 DUP6 ADD DUP3 PUSH2 0xDAA JUMP JUMPDEST POP PUSH1 0x20 DUP3 ADD MLOAD PUSH2 0xE52 PUSH1 0x20 DUP6 ADD DUP3 PUSH2 0xDC5 JUMP JUMPDEST POP PUSH1 0x40 DUP3 ADD MLOAD PUSH2 0xE65 PUSH1 0x40 DUP6 ADD DUP3 PUSH2 0xDDD JUMP JUMPDEST POP PUSH1 0x60 DUP3 ADD MLOAD PUSH2 0xE78 PUSH1 0x60 DUP6 ADD DUP3 PUSH2 0xE1C JUMP JUMPDEST POP POP POP POP JUMP JUMPDEST PUSH0 PUSH2 0xE89 DUP4 DUP4 PUSH2 0xE2B JUMP JUMPDEST PUSH1 0x80 DUP4 ADD SWAP1 POP SWAP3 SWAP2 POP POP JUMP JUMPDEST PUSH0 PUSH1 0x20 DUP3 ADD SWAP1 POP SWAP2 SWAP1 POP JUMP JUMPDEST PUSH0 PUSH2 0xEAB DUP3 PUSH2 0xD81 JUMP JUMPDEST PUSH2 0xEB5 DUP2 DUP6 PUSH2 0xD8B JUMP JUMPDEST SWAP4 POP PUSH2 0xEC0 DUP4 PUSH2 0xD9B JUMP JUMPDEST DUP1 PUSH0 JUMPDEST DUP4 DUP2 LT ISZERO PUSH2 0xEF0 JUMPI DUP2 MLOAD PUSH2 0xED7 DUP9 DUP3 PUSH2 0xE7E JUMP JUMPDEST SWAP8 POP PUSH2 0xEE2 DUP4 PUSH2 0xE95 JUMP JUMPDEST SWAP3 POP POP PUSH1 0x1 DUP2 ADD SWAP1 POP PUSH2 0xEC3 JUMP JUMPDEST POP DUP6 SWAP4 POP POP POP POP SWAP3 SWAP2 POP POP JUMP JUMPDEST PUSH0 PUSH1 0x20 DUP3 ADD SWAP1 POP DUP2 DUP2 SUB PUSH0 DUP4 ADD MSTORE PUSH2 0xF15 DUP2 DUP5 PUSH2 0xEA1 JUMP JUMPDEST SWAP1 POP SWAP3 SWAP2 POP POP JUMP JUMPDEST PUSH2 0xF26 DUP2 PUSH2 0xE0B JUMP JUMPDEST DUP3 MSTORE POP POP JUMP JUMPDEST PUSH0 PUSH1 0x20 DUP3 ADD SWAP1 POP PUSH2 0xF3F PUSH0 DUP4 ADD DUP5 PUSH2 0xF1D JUMP JUMPDEST SWAP3 SWAP2 POP POP JUMP JUMPDEST PUSH2 0xF4E DUP2 PUSH2 0xDB9 JUMP JUMPDEST DUP2 EQ PUSH2 0xF58 JUMPI PUSH0 PUSH0 REVERT JUMPDEST POP JUMP JUMPDEST PUSH0 DUP2 CALLDATALOAD SWAP1 POP PUSH2 0xF69 DUP2 PUSH2 0xF45 JUMP JUMPDEST SWAP3 SWAP2 POP POP JUMP JUMPDEST PUSH2 0xF78 DUP2 PUSH2 0xDD4 JUMP JUMPDEST DUP2 EQ PUSH2 0xF82 JUMPI PUSH0 PUSH0 REVERT JUMPDEST POP JUMP JUMPDEST PUSH0 DUP2 CALLDATALOAD SWAP1 POP PUSH2 0xF93 DUP2 PUSH2 0xF6F JUMP JUMPDEST SWAP3 SWAP2 POP POP JUMP JUMPDEST PUSH0 PUSH0 PUSH0 PUSH1 0x60 DUP5 DUP7 SUB SLT ISZERO PUSH2 0xFB0 JUMPI PUSH2 0xFAF PUSH2 0xD1F JUMP JUMPDEST JUMPDEST PUSH0 PUSH2 0xFBD DUP7 DUP3 DUP8 ADD PUSH2 0xD42 JUMP JUMPDEST SWAP4 POP POP PUSH1 0x20 PUSH2 0xFCE DUP7 DUP3 DUP8 ADD PUSH2 0xF5B JUMP JUMPDEST SWAP3 POP POP PUSH1 0x40 PUSH2 0xFDF DUP7 DUP3 DUP8 ADD PUSH2 0xF85 JUMP JUMPDEST SWAP2 POP POP SWAP3 POP SWAP3 POP SWAP3 JUMP JUMPDEST PUSH0 DUP2 ISZERO ISZERO SWAP1 POP SWAP2 SWAP1 POP JUMP JUMPDEST PUSH2 0xFFD DUP2 PUSH2 0xFE9 JUMP JUMPDEST DUP3 MSTORE POP POP JUMP JUMPDEST PUSH0 PUSH1 0x20 DUP3 ADD SWAP1 POP PUSH2 0x1016 PUSH0 DUP4 ADD DUP5 PUSH2 0xFF4 JUMP JUMPDEST SWAP3 SWAP2 POP POP JUMP JUMPDEST PUSH2 0x1025 DUP2 PUSH2 0xD23 JUMP JUMPDEST DUP3 MSTORE POP POP JUMP JUMPDEST PUSH0 PUSH1 0x20 DUP3 ADD SWAP1 POP PUSH2 0x103E PUSH0 DUP4 ADD DUP5 PUSH2 0x101C JUMP JUMPDEST SWAP3 SWAP2 POP POP JUMP JUMPDEST PUSH0 PUSH0 PUSH0 PUSH0 PUSH0 PUSH0 PUSH0 PUSH1 0xE0 DUP9 DUP11 SUB SLT ISZERO PUSH2 0x105F JUMPI PUSH2 0x105E PUSH2 0xD1F JUMP JUMPDEST JUMPDEST PUSH0 PUSH2 0x106C DUP11 DUP3 DUP12 ADD PUSH2 0xD42 JUMP JUMPDEST SWAP8 POP POP PUSH1 0x20 PUSH2 0x107D DUP11 DUP3 DUP12 ADD PUSH2 0xD42 JUMP JUMPDEST SWAP7 POP POP PUSH1 0x40 PUSH2 0x108E DUP11 DUP3 DUP12 ADD PUSH2 0xF85 JUMP JUMPDEST SWAP6 POP POP PUSH1 0x60 PUSH2 0x109F DUP11 DUP3 DUP12 ADD PUSH2 0xD42 JUMP JUMPDEST SWAP5 POP POP PUSH1 0x80 PUSH2 0x10B0 DUP11 DUP3 DUP12 ADD PUSH2 0xF5B JUMP JUMPDEST SWAP4 POP POP PUSH1 0xA0 PUSH2 0x10C1 DUP11 DUP3 DUP12 ADD PUSH2 0xF85 JUMP JUMPDEST SWAP3 POP POP PUSH1 0xC0 PUSH2 0x10D2 DUP11 DUP3 DUP12 ADD PUSH2 0xF5B JUMP JUMPDEST SWAP2 POP POP SWAP3 SWAP6 SWAP9 SWAP2 SWAP5 SWAP8 POP SWAP3 SWAP6 POP JUMP JUMPDEST PUSH2 0x10EA DUP2 PUSH2 0xDB9 JUMP JUMPDEST DUP3 MSTORE POP POP JUMP JUMPDEST PUSH2 0x10F9 DUP2 PUSH2 0xDD4 JUMP JUMPDEST DUP3 MSTORE POP POP JUMP JUMPDEST PUSH0 PUSH1 0xC0 DUP3 ADD SWAP1 POP PUSH2 0x1112 PUSH0 DUP4 ADD DUP10 PUSH2 0x101C JUMP JUMPDEST PUSH2 0x111F PUSH1 0x20 DUP4 ADD DUP9 PUSH2 0x101C JUMP JUMPDEST PUSH2 0x112C PUSH1 0x40 DUP4 ADD DUP8 PUSH2 0x10E1 JUMP JUMPDEST PUSH2 0x1139 PUSH1 0x60 DUP4 ADD DUP7 PUSH2 0x10E1 JUMP JUMPDEST PUSH2 0x1146 PUSH1 0x80 DUP4 ADD DUP6 PUSH2 0x10F0 JUMP JUMPDEST PUSH2 0x1153 PUSH1 0xA0 DUP4 ADD DUP5 PUSH2 0x10F0 JUMP JUMPDEST SWAP8 SWAP7 POP POP POP POP POP POP POP JUMP JUMPDEST PUSH0 PUSH0 PUSH1 0x40 DUP4 DUP6 SUB SLT ISZERO PUSH2 0x1174 JUMPI PUSH2 0x1173 PUSH2 0xD1F JUMP JUMPDEST JUMPDEST PUSH0 PUSH2 0x1181 DUP6 DUP3 DUP7 ADD PUSH2 0xD42 JUMP JUMPDEST SWAP3 POP POP PUSH1 0x20 PUSH2 0x1192 DUP6 DUP3 DUP7 ADD PUSH2 0xF5B JUMP JUMPDEST SWAP2 POP POP SWAP3 POP SWAP3 SWAP1 POP JUMP JUMPDEST PUSH0 DUP3 DUP3 MSTORE PUSH1 0x20 DUP3 ADD SWAP1 POP SWAP3 SWAP2 POP POP JUMP JUMPDEST PUSH32 0x45737461646F20696E76616C69646F3A2075736520312070617261204D6F6469 PUSH0 DUP3 ADD MSTORE PUSH32 0x6669636164610000000000000000000000000000000000000000000000000000 PUSH1 0x20 DUP3 ADD MSTORE POP JUMP JUMPDEST PUSH0 PUSH2 0x1206 PUSH1 0x26 DUP4 PUSH2 0x119C JUMP JUMPDEST SWAP2 POP PUSH2 0x1211 DUP3 PUSH2 0x11AC JUMP JUMPDEST PUSH1 0x40 DUP3 ADD SWAP1 POP SWAP2 SWAP1 POP JUMP JUMPDEST PUSH0 PUSH1 0x20 DUP3 ADD SWAP1 POP DUP2 DUP2 SUB PUSH0 DUP4 ADD MSTORE PUSH2 0x1233 DUP2 PUSH2 0x11FA JUMP JUMPDEST SWAP1 POP SWAP2 SWAP1 POP JUMP JUMPDEST PUSH0 PUSH1 0x60 DUP3 ADD SWAP1 POP PUSH2 0x124D PUSH0 DUP4 ADD DUP7 PUSH2 0x101C JUMP JUMPDEST PUSH2 0x125A PUSH1 0x20 DUP4 ADD DUP6 PUSH2 0x10E1 JUMP JUMPDEST PUSH2 0x1267 PUSH1 0x40 DUP4 ADD DUP5 PUSH2 0x10F0 JUMP JUMPDEST SWAP5 SWAP4 POP POP POP POP JUMP JUMPDEST PUSH32 0x4E6F2073652068612070616761646F206C612074617269666120646520726567 PUSH0 DUP3 ADD MSTORE PUSH32 0x697374726F000000000000000000000000000000000000000000000000000000 PUSH1 0x20 DUP3 ADD MSTORE POP JUMP JUMPDEST PUSH0 PUSH2 0x12C9 PUSH1 0x25 DUP4 PUSH2 0x119C JUMP JUMPDEST SWAP2 POP PUSH2 0x12D4 DUP3 PUSH2 0x126F JUMP JUMPDEST PUSH1 0x40 DUP3 ADD SWAP1 POP SWAP2 SWAP1 POP JUMP JUMPDEST PUSH0 PUSH1 0x20 DUP3 ADD SWAP1 POP DUP2 DUP2 SUB PUSH0 DUP4 ADD MSTORE PUSH2 0x12F6 DUP2 PUSH2 0x12BD JUMP JUMPDEST SWAP1 POP SWAP2 SWAP1 POP JUMP JUMPDEST PUSH32 0x43617465676F72696120696E76616C6964613A20303D43756C747572616C2031 PUSH0 DUP3 ADD MSTORE PUSH32 0x3D45647563617469766120323D4465706F727469766120333D536F6369616C00 PUSH1 0x20 DUP3 ADD MSTORE POP JUMP JUMPDEST PUSH0 PUSH2 0x1357 PUSH1 0x3F DUP4 PUSH2 0x119C JUMP JUMPDEST SWAP2 POP PUSH2 0x1362 DUP3 PUSH2 0x12FD JUMP JUMPDEST PUSH1 0x40 DUP3 ADD SWAP1 POP SWAP2 SWAP1 POP JUMP JUMPDEST PUSH0 PUSH1 0x20 DUP3 ADD SWAP1 POP DUP2 DUP2 SUB PUSH0 DUP4 ADD MSTORE PUSH2 0x1384 DUP2 PUSH2 0x134B JUMP JUMPDEST SWAP1 POP SWAP2 SWAP1 POP JUMP JUMPDEST PUSH32 0x45737461646F20696E696369616C20696E76616C69646F3A2075736520302070 PUSH0 DUP3 ADD MSTORE PUSH32 0x61726120566967656E7465000000000000000000000000000000000000000000 PUSH1 0x20 DUP3 ADD MSTORE POP JUMP JUMPDEST PUSH0 PUSH2 0x13E5 PUSH1 0x2B DUP4 PUSH2 0x119C JUMP JUMPDEST SWAP2 POP PUSH2 0x13F0 DUP3 PUSH2 0x138B JUMP JUMPDEST PUSH1 0x40 DUP3 ADD SWAP1 POP SWAP2 SWAP1 POP JUMP JUMPDEST PUSH0 PUSH1 0x20 DUP3 ADD SWAP1 POP DUP2 DUP2 SUB PUSH0 DUP4 ADD MSTORE PUSH2 0x1412 DUP2 PUSH2 0x13D9 JUMP JUMPDEST SWAP1 POP SWAP2 SWAP1 POP JUMP JUMPDEST PUSH0 PUSH1 0xC0 DUP3 ADD SWAP1 POP PUSH2 0x142C PUSH0 DUP4 ADD DUP10 PUSH2 0x101C JUMP JUMPDEST PUSH2 0x1439 PUSH1 0x20 DUP4 ADD DUP9 PUSH2 0x101C JUMP JUMPDEST PUSH2 0x1446 PUSH1 0x40 DUP4 ADD DUP8 PUSH2 0x10E1 JUMP JUMPDEST PUSH2 0x1453 PUSH1 0x60 DUP4 ADD DUP7 PUSH2 0x10F0 JUMP JUMPDEST PUSH2 0x1460 PUSH1 0x80 DUP4 ADD DUP6 PUSH2 0x10E1 JUMP JUMPDEST PUSH2 0x146D PUSH1 0xA0 DUP4 ADD DUP5 PUSH2 0x10F0 JUMP JUMPDEST SWAP8 SWAP7 POP POP POP POP POP POP POP JUMP JUMPDEST PUSH32 0x4E487B7100000000000000000000000000000000000000000000000000000000 PUSH0 MSTORE PUSH1 0x11 PUSH1 0x4 MSTORE PUSH1 0x24 PUSH0 REVERT JUMPDEST PUSH0 PUSH2 0x14AF DUP3 PUSH2 0xD23 JUMP JUMPDEST SWAP2 POP PUSH2 0x14BA DUP4 PUSH2 0xD23 JUMP JUMPDEST SWAP3 POP DUP3 DUP3 SUB SWAP1 POP DUP2 DUP2 GT ISZERO PUSH2 0x14D2 JUMPI PUSH2 0x14D1 PUSH2 0x1478 JUMP JUMPDEST JUMPDEST SWAP3 SWAP2 POP POP JUMP JUMPDEST PUSH32 0x4E487B7100000000000000000000000000000000000000000000000000000000 PUSH0 MSTORE PUSH1 0x32 PUSH1 0x4 MSTORE PUSH1 0x24 PUSH0 REVERT JUMPDEST PUSH32 0x45737461646F20696E76616C69646F3A2075736520322070617261204465726F PUSH0 DUP3 ADD MSTORE PUSH32 0x6761646100000000000000000000000000000000000000000000000000000000 PUSH1 0x20 DUP3 ADD MSTORE POP JUMP JUMPDEST PUSH0 PUSH2 0x155F PUSH1 0x24 DUP4 PUSH2 0x119C JUMP JUMPDEST SWAP2 POP PUSH2 0x156A DUP3 PUSH2 0x1505 JUMP JUMPDEST PUSH1 0x40 DUP3 ADD SWAP1 POP SWAP2 SWAP1 POP JUMP JUMPDEST PUSH0 PUSH1 0x20 DUP3 ADD SWAP1 POP DUP2 DUP2 SUB PUSH0 DUP4 ADD MSTORE PUSH2 0x158C DUP2 PUSH2 0x1553 JUMP JUMPDEST SWAP1 POP SWAP2 SWAP1 POP JUMP JUMPDEST PUSH32 0x4C6120616374756163696F6E206E6F2065786973746500000000000000000000 PUSH0 DUP3 ADD MSTORE POP JUMP JUMPDEST PUSH0 PUSH2 0x15C7 PUSH1 0x16 DUP4 PUSH2 0x119C JUMP JUMPDEST SWAP2 POP PUSH2 0x15D2 DUP3 PUSH2 0x1593 JUMP JUMPDEST PUSH1 0x20 DUP3 ADD SWAP1 POP SWAP2 SWAP1 POP JUMP JUMPDEST PUSH0 PUSH1 0x20 DUP3 ADD SWAP1 POP DUP2 DUP2 SUB PUSH0 DUP4 ADD MSTORE PUSH2 0x15F4 DUP2 PUSH2 0x15BB JUMP JUMPDEST SWAP1 POP SWAP2 SWAP1 POP JUMP JUMPDEST PUSH32 0x4E6F20657320656C2070726F706965746172696F000000000000000000000000 PUSH0 DUP3 ADD MSTORE POP JUMP JUMPDEST PUSH0 PUSH2 0x162F PUSH1 0x14 DUP4 PUSH2 0x119C JUMP JUMPDEST SWAP2 POP PUSH2 0x163A DUP3 PUSH2 0x15FB JUMP JUMPDEST PUSH1 0x20 DUP3 ADD SWAP1 POP SWAP2 SWAP1 POP JUMP JUMPDEST PUSH0 PUSH1 0x20 DUP3 ADD SWAP1 POP DUP2 DUP2 SUB PUSH0 DUP4 ADD MSTORE PUSH2 0x165C DUP2 PUSH2 0x1623 JUMP JUMPDEST SWAP1 POP SWAP2 SWAP1 POP JUMP JUMPDEST PUSH32 0x4C6120616374756163696F6E2079612065786973746500000000000000000000 PUSH0 DUP3 ADD MSTORE POP JUMP JUMPDEST PUSH0 PUSH2 0x1697 PUSH1 0x16 DUP4 PUSH2 0x119C JUMP JUMPDEST SWAP2 POP PUSH2 0x16A2 DUP3 PUSH2 0x1663 JUMP JUMPDEST PUSH1 0x20 DUP3 ADD SWAP1 POP SWAP2 SWAP1 POP JUMP JUMPDEST PUSH0 PUSH1 0x20 DUP3 ADD SWAP1 POP DUP2 DUP2 SUB PUSH0 DUP4 ADD MSTORE PUSH2 0x16C4 DUP2 PUSH2 0x168B JUMP JUMPDEST SWAP1 POP SWAP2 SWAP1 POP JUMP JUMPDEST PUSH0 PUSH1 0xA0 DUP3 ADD SWAP1 POP PUSH2 0x16DE PUSH0 DUP4 ADD DUP9 PUSH2 0x101C JUMP JUMPDEST PUSH2 0x16EB PUSH1 0x20 DUP4 ADD DUP8 PUSH2 0x101C JUMP JUMPDEST PUSH2 0x16F8 PUSH1 0x40 DUP4 ADD DUP7 PUSH2 0x101C JUMP JUMPDEST PUSH2 0x1705 PUSH1 0x60 DUP4 ADD DUP6 PUSH2 0x10E1 JUMP JUMPDEST PUSH2 0x1712 PUSH1 0x80 DUP4 ADD DUP5 PUSH2 0x10F0 JUMP JUMPDEST SWAP7 SWAP6 POP POP POP POP POP POP JUMP JUMPDEST PUSH0 PUSH1 0x40 DUP3 ADD SWAP1 POP PUSH2 0x172F PUSH0 DUP4 ADD DUP6 PUSH2 0x101C JUMP JUMPDEST PUSH2 0x173C PUSH1 0x20 DUP4 ADD DUP5 PUSH2 0x10E1 JUMP JUMPDEST SWAP4 SWAP3 POP POP POP JUMP INVALID LOG2 PUSH5 0x6970667358 0x22 SLT KECCAK256 0xB6 PUSH7 0x35D3B328F08AA5 0xC3 0xE RJUMP 0x8B46 DUPN 0xBE 0xF7 0x21 0x27 KECCAK256 DATALOADN 0x135D 0xDE 0xAC MLOAD GAS 0xB4 EXTSTATICCALL 0xF SWAP6 0xC1 PUSH5 0x736F6C6343 STOP ADDMOD 0x22 STOP CALLER "
		},
		"gasEstimates": {
			"creation": {
				"codeDepositCost": "1201800",
				"executionCost": "25510",
				"totalCost": "1227310"
			},
			"external": {
				"COSTO()": "325",
				"agregarDeclaracion(uint256,uint256,bytes32,uint256,uint8,bytes32,uint8)": "infinite",
				"consultarDeclaracion(uint256)": "infinite",
				"consultarHistorial(uint256)": "infinite",
				"eliminarDeclaracion(uint256,uint8)": "infinite",
				"modificarDeclaracion(uint256,uint8,bytes32)": "infinite",
				"propietario()": "2530"
			}
		},
		"methodIdentifiers": {
			"COSTO()": "52b5241e",
			"agregarDeclaracion(uint256,uint256,bytes32,uint256,uint8,bytes32,uint8)": "6dd7044e",
			"consultarDeclaracion(uint256)": "d301e11d",
			"consultarHistorial(uint256)": "1bc7509e",
			"eliminarDeclaracion(uint256,uint8)": "ffb6ecdc",
			"modificarDeclaracion(uint256,uint8,bytes32)": "4cdba193",
			"propietario()": "3c4f81cd"
		}
	},
	"abi": [
		{
			"anonymous": false,
			"inputs": [
				{
					"indexed": false,
					"internalType": "uint256",
					"name": "id",
					"type": "uint256"
				},
				{
					"indexed": false,
					"internalType": "uint256",
					"name": "fechaCreacion",
					"type": "uint256"
				},
				{
					"indexed": false,
					"internalType": "uint256",
					"name": "dniAutor",
					"type": "uint256"
				},
				{
					"indexed": false,
					"internalType": "uint8",
					"name": "estado",
					"type": "uint8"
				},
				{
					"indexed": false,
					"internalType": "bytes32",
					"name": "hash",
					"type": "bytes32"
				}
			],
			"name": "ActuacionAgregada",
			"type": "event"
		},
		{
			"anonymous": false,
			"inputs": [
				{
					"indexed": false,
					"internalType": "uint256",
					"name": "id",
					"type": "uint256"
				},
				{
					"indexed": false,
					"internalType": "uint8",
					"name": "estado",
					"type": "uint8"
				}
			],
			"name": "ActuacionEliminada",
			"type": "event"
		},
		{
			"anonymous": false,
			"inputs": [
				{
					"indexed": false,
					"internalType": "uint256",
					"name": "id",
					"type": "uint256"
				},
				{
					"indexed": false,
					"internalType": "uint8",
					"name": "estado",
					"type": "uint8"
				},
				{
					"indexed": false,
					"internalType": "bytes32",
					"name": "hash",
					"type": "bytes32"
				}
			],
			"name": "ActuacionModificada",
			"type": "event"
		},
		{
			"anonymous": false,
			"inputs": [
				{
					"indexed": false,
					"internalType": "uint256",
					"name": "id",
					"type": "uint256"
				},
				{
					"indexed": false,
					"internalType": "uint256",
					"name": "numDeclaracion",
					"type": "uint256"
				},
				{
					"indexed": false,
					"internalType": "uint8",
					"name": "categoria",
					"type": "uint8"
				},
				{
					"indexed": false,
					"internalType": "bytes32",
					"name": "institucionBen",
					"type": "bytes32"
				},
				{
					"indexed": false,
					"internalType": "uint8",
					"name": "estado",
					"type": "uint8"
				},
				{
					"indexed": false,
					"internalType": "bytes32",
					"name": "hash",
					"type": "bytes32"
				}
			],
			"name": "DeclaracionAgregada",
			"type": "event"
		},
		{
			"anonymous": false,
			"inputs": [
				{
					"indexed": false,
					"internalType": "uint256",
					"name": "id",
					"type": "uint256"
				},
				{
					"indexed": false,
					"internalType": "uint8",
					"name": "estadoNuevo",
					"type": "uint8"
				},
				{
					"indexed": false,
					"internalType": "bytes32",
					"name": "hash",
					"type": "bytes32"
				}
			],
			"name": "DeclaracionModificada",
			"type": "event"
		},
		{
			"inputs": [],
			"name": "COSTO",
			"outputs": [
				{
					"internalType": "uint256",
					"name": "",
					"type": "uint256"
				}
			],
			"stateMutability": "view",
			"type": "function"
		},
		{
			"inputs": [
				{
					"internalType": "uint256",
					"name": "_id",
					"type": "uint256"
				},
				{
					"internalType": "uint256",
					"name": "_dniAutor",
					"type": "uint256"
				},
				{
					"internalType": "bytes32",
					"name": "_hash",
					"type": "bytes32"
				},
				{
					"internalType": "uint256",
					"name": "_fechaCreacion",
					"type": "uint256"
				},
				{
					"internalType": "uint8",
					"name": "_categoria",
					"type": "uint8"
				},
				{
					"internalType": "bytes32",
					"name": "_institucionBen",
					"type": "bytes32"
				},
				{
					"internalType": "uint8",
					"name": "_estado",
					"type": "uint8"
				}
			],
			"name": "agregarDeclaracion",
			"outputs": [],
			"stateMutability": "payable",
			"type": "function"
		},
		{
			"inputs": [
				{
					"internalType": "uint256",
					"name": "_id",
					"type": "uint256"
				}
			],
			"name": "consultarDeclaracion",
			"outputs": [
				{
					"internalType": "uint256",
					"name": "fechaCreacion",
					"type": "uint256"
				},
				{
					"internalType": "uint256",
					"name": "dniAutor",
					"type": "uint256"
				},
				{
					"internalType": "uint8",
					"name": "estado",
					"type": "uint8"
				},
				{
					"internalType": "uint8",
					"name": "categoria",
					"type": "uint8"
				},
				{
					"internalType": "bytes32",
					"name": "institucionBen",
					"type": "bytes32"
				},
				{
					"internalType": "bytes32",
					"name": "hash",
					"type": "bytes32"
				}
			],
			"stateMutability": "view",
			"type": "function"
		},
		{
			"inputs": [
				{
					"internalType": "uint256",
					"name": "_id",
					"type": "uint256"
				}
			],
			"name": "consultarHistorial",
			"outputs": [
				{
					"components": [
						{
							"internalType": "uint256",
							"name": "timestamp",
							"type": "uint256"
						},
						{
							"internalType": "uint8",
							"name": "estado",
							"type": "uint8"
						},
						{
							"internalType": "bytes32",
							"name": "hash",
							"type": "bytes32"
						},
						{
							"internalType": "address",
							"name": "modificadoPor",
							"type": "address"
						}
					],
					"internalType": "struct ActuacionBase.Cambio[]",
					"name": "",
					"type": "tuple[]"
				}
			],
			"stateMutability": "view",
			"type": "function"
		},
		{
			"inputs": [
				{
					"internalType": "uint256",
					"name": "_id",
					"type": "uint256"
				},
				{
					"internalType": "uint8",
					"name": "_estado",
					"type": "uint8"
				}
			],
			"name": "eliminarDeclaracion",
			"outputs": [],
			"stateMutability": "nonpayable",
			"type": "function"
		},
		{
			"inputs": [
				{
					"internalType": "uint256",
					"name": "_id",
					"type": "uint256"
				},
				{
					"internalType": "uint8",
					"name": "_estadoNuevo",
					"type": "uint8"
				},
				{
					"internalType": "bytes32",
					"name": "_hash",
					"type": "bytes32"
				}
			],
			"name": "modificarDeclaracion",
			"outputs": [
				{
					"internalType": "bool",
					"name": "success",
					"type": "bool"
				}
			],
			"stateMutability": "nonpayable",
			"type": "function"
		},
		{
			"inputs": [],
			"name": "propietario",
			"outputs": [
				{
					"internalType": "address",
					"name": "",
					"type": "address"
				}
			],
			"stateMutability": "view",
			"type": "function"
		}
	]
}