{
	"data": {
		"bytecode": {
			"linkReferences": {},
			"object": "6080604052348015600e575f5ffd5b50335f5f6101000a81548173ffffffffffffffffffffffffffffffffffffffff021916908373ffffffffffffffffffffffffffffffffffffffff1602179055506124e28061005b5f395ff3fe608060405260043610610090575f3560e01c806352b5241e1161005857806352b5241e1461019a5780639cfa7e5f146101c4578063abcc0eb7146101e0578063b673b0f314610221578063e32987881461023d57610090565b80631a558e99146100945780633c4f81cd146100bc5780633e403055146100e657806345e78768146101225780634b386ce61461015e575b5f5ffd5b34801561009f575f5ffd5b506100ba60048036038101906100b5919061165a565b610265565b005b3480156100c7575f5ffd5b506100d06105a2565b6040516100dd919061170f565b60405180910390f35b3480156100f1575f5ffd5b5061010c60048036038101906101079190611728565b6105c6565b60405161011991906117e6565b60405180910390f35b34801561012d575f5ffd5b5061014860048036038101906101439190611728565b6108d8565b60405161015591906117e6565b60405180910390f35b348015610169575f5ffd5b50610184600480360381019061017f91906117ff565b610a4a565b6040516101919190611ac6565b60405180910390f35b3480156101a5575f5ffd5b506101ae610f36565b6040516101bb9190611af5565b60405180910390f35b6101de60048036038101906101d99190611b38565b610f3c565b005b3480156101eb575f5ffd5b50610206600480360381019061020191906117ff565b611269565b60405161021896959493929190611c38565b60405180910390f35b61023b60048036038101906102369190611cac565b6112d1565b005b348015610248575f5ffd5b50610263600480360381019061025e919061165a565b61143e565b005b6001826040516102759190611db1565b90815260200160405180910390206005015f9054906101000a900460ff166102d2576040517f08c379a00000000000000000000000000000000000000000000000000000000081526004016102c990611e11565b60405180910390fd5b5f5f9054906101000a900473ffffffffffffffffffffffffffffffffffffffff1673ffffffffffffffffffffffffffffffffffffffff163373ffffffffffffffffffffffffffffffffffffffff1614610360576040517f08c379a000000000000000000000000000000000000000000000000000000000815260040161035790611e79565b60405180910390fd5b5f6001836040516103719190611db1565b908152602001604051809103902090505f81600401805461039190611ec4565b80601f01602080910402602001604051908101604052809291908181526020018280546103bd90611ec4565b80156104085780601f106103df57610100808354040283529160200191610408565b820191905f5260205f20905b8154815290600101906020018083116103eb57829003601f168201915b50505050509050816006016040518060a001604052804281526020018381526020018581526020013373ffffffffffffffffffffffffffffffffffffffff1681526020016040518060400160405280600b81526020017f456c696d696e6163696f6e000000000000000000000000000000000000000000815250815250908060018154018082558091505060019003905f5260205f2090600502015f909190919091505f820151815f015560208201518160010190816104c891906120a5565b5060408201518160020190816104de91906120a5565b506060820151816003015f6101000a81548173ffffffffffffffffffffffffffffffffffffffff021916908373ffffffffffffffffffffffffffffffffffffffff160217905550608082015181600401908161053a91906120a5565b5050508282600401908161054e91906120a5565b508360405161055d9190611db1565b60405180910390207fca9e61491a92f74ab08de901c48dfae60350b8d8e23ee6a893a15d7f5e725200846040516105949190612174565b60405180910390a250505050565b5f5f9054906101000a900473ffffffffffffffffffffffffffffffffffffffff1681565b5f6001846040516105d79190611db1565b90815260200160405180910390206005015f9054906101000a900460ff16610634576040517f08c379a000000000000000000000000000000000000000000000000000000000815260040161062b90611e11565b60405180910390fd5b5f5f9054906101000a900473ffffffffffffffffffffffffffffffffffffffff1673ffffffffffffffffffffffffffffffffffffffff163373ffffffffffffffffffffffffffffffffffffffff16146106c2576040517f08c379a00000000000000000000000000000000000000000000000000000000081526004016106b990611e79565b60405180910390fd5b5f6001856040516106d39190611db1565b908152602001604051809103902090505f8160040180546106f390611ec4565b80601f016020809104026020016040519081016040528092919081815260200182805461071f90611ec4565b801561076a5780601f106107415761010080835404028352916020019161076a565b820191905f5260205f20905b81548152906001019060200180831161074d57829003601f168201915b505050505090508482600401908161078291906120a5565b50816006016040518060a001604052804281526020018381526020018781526020013373ffffffffffffffffffffffffffffffffffffffff16815260200186815250908060018154018082558091505060019003905f5260205f2090600502015f909190919091505f820151815f0155602082015181600101908161080791906120a5565b50604082015181600201908161081d91906120a5565b506060820151816003015f6101000a81548173ffffffffffffffffffffffffffffffffffffffff021916908373ffffffffffffffffffffffffffffffffffffffff160217905550608082015181600401908161087991906120a5565b5050508560405161088a9190611db1565b60405180910390207f3f43aaee16eaf64e24f81e00000b24904c03bdb56fa4823c10c2be8aae97d0ac86866040516108c3929190612194565b60405180910390a26001925050509392505050565b5f6040518060400160405280600781526020017f566967656e746500000000000000000000000000000000000000000000000000815250805190602001208380519060200120148061096c57506040518060400160405280600a81526020017f4d6f646966696361646100000000000000000000000000000000000000000000815250805190602001208380519060200120145b806109b957506040518060400160405280600881526020017f4465726f67616461000000000000000000000000000000000000000000000000815250805190602001208380519060200120145b6109f8576040517f08c379a00000000000000000000000000000000000000000000000000000000081526004016109ef90612239565b60405180910390fd5b610a038484846105c6565b507f6671abaa8e20d376e6dfc20e2b2071b0128c1aa11ed2ea37a5db5f400f8dc674848484604051610a3793929190612257565b60405180910390a1600190509392505050565b610a526114d1565b600182604051610a629190611db1565b90815260200160405180910390206005015f9054906101000a900460ff16610abf576040517f08c379a0000000000000000000000000000000000000000000000000000000008152600401610ab690611e11565b60405180910390fd5b600182604051610acf9190611db1565b90815260200160405180910390206040518060e00160405290815f82018054610af790611ec4565b80601f0160208091040260200160405190810160405280929190818152602001828054610b2390611ec4565b8015610b6e5780601f10610b4557610100808354040283529160200191610b6e565b820191905f5260205f20905b815481529060010190602001808311610b5157829003601f168201915b505050505081526020016001820154815260200160028201548152602001600382018054610b9b90611ec4565b80601f0160208091040260200160405190810160405280929190818152602001828054610bc790611ec4565b8015610c125780601f10610be957610100808354040283529160200191610c12565b820191905f5260205f20905b815481529060010190602001808311610bf557829003601f168201915b50505050508152602001600482018054610c2b90611ec4565b80601f0160208091040260200160405190810160405280929190818152602001828054610c5790611ec4565b8015610ca25780601f10610c7957610100808354040283529160200191610ca2565b820191905f5260205f20905b815481529060010190602001808311610c8557829003601f168201915b50505050508152602001600582015f9054906101000a900460ff1615151515815260200160068201805480602002602001604051908101604052809291908181526020015f905b82821015610f27578382905f5260205f2090600502016040518060a00160405290815f8201548152602001600182018054610d2390611ec4565b80601f0160208091040260200160405190810160405280929190818152602001828054610d4f90611ec4565b8015610d9a5780601f10610d7157610100808354040283529160200191610d9a565b820191905f5260205f20905b815481529060010190602001808311610d7d57829003601f168201915b50505050508152602001600282018054610db390611ec4565b80601f0160208091040260200160405190810160405280929190818152602001828054610ddf90611ec4565b8015610e2a5780601f10610e0157610100808354040283529160200191610e2a565b820191905f5260205f20905b815481529060010190602001808311610e0d57829003601f168201915b50505050508152602001600382015f9054906101000a900473ffffffffffffffffffffffffffffffffffffffff1673ffffffffffffffffffffffffffffffffffffffff1673ffffffffffffffffffffffffffffffffffffffff168152602001600482018054610e9890611ec4565b80601f0160208091040260200160405190810160405280929190818152602001828054610ec490611ec4565b8015610f0f5780601f10610ee657610100808354040283529160200191610f0f565b820191905f5260205f20905b815481529060010190602001808311610ef257829003601f168201915b50505050508152505081526020019060010190610ce9565b50505050815250509050919050565b6101f481565b600184604051610f4c9190611db1565b90815260200160405180910390206005015f9054906101000a900460ff1615610faa576040517f08c379a0000000000000000000000000000000000000000000000000000000008152600401610fa1906122eb565b60405180910390fd5b6101f4341015610fef576040517f08c379a0000000000000000000000000000000000000000000000000000000008152600401610fe690612379565b60405180910390fd5b5f6001856040516110009190611db1565b908152602001604051809103902090506001816005015f6101000a81548160ff0219169083151502179055508381600201819055508281600301908161104691906120a5565b504281600101819055508181600401908161106191906120a5565b50335f5f6101000a81548173ffffffffffffffffffffffffffffffffffffffff021916908373ffffffffffffffffffffffffffffffffffffffff160217905550806006016040518060a001604052804281526020018481526020018481526020013373ffffffffffffffffffffffffffffffffffffffff1681526020016040518060400160405280601081526020017f4372656163696f6e20696e696369616c00000000000000000000000000000000815250815250908060018154018082558091505060019003905f5260205f2090600502015f909190919091505f820151815f0155602082015181600101908161115a91906120a5565b50604082015181600201908161117091906120a5565b506060820151816003015f6101000a81548173ffffffffffffffffffffffffffffffffffffffff021916908373ffffffffffffffffffffffffffffffffffffffff16021790555060808201518160040190816111cc91906120a5565b505050600285908060018154018082558091505060019003905f5260205f20015f90919091909150908161120091906120a5565b508460405161120f9190611db1565b60405180910390207f486dd5dd869111ce8c86b91647e06e12d7006250dd505081891cd9a9eff9eb9d82600101548360020154846003018560040160405161125a9493929190612418565b60405180910390a25050505050565b60605f5f6060805f5f61127b88610a4a565b90505f60038960405161128e9190611db1565b90815260200160405180910390209050815f01518260200151836040015184606001518560800151855f0154975097509750975097509750505091939550919395565b6040518060400160405280600781526020017f566967656e746500000000000000000000000000000000000000000000000000815250805190602001208180519060200120148061136457506040518060400160405280600a81526020017f4d6f646966696361646100000000000000000000000000000000000000000000815250805190602001208180519060200120145b806113b157506040518060400160405280600881526020017f4465726f67616461000000000000000000000000000000000000000000000000815250805190602001208180519060200120145b6113f0576040517f08c379a00000000000000000000000000000000000000000000000000000000081526004016113e790612239565b60405180910390fd5b6113fc85858484610f3c565b7fdaeacba2ddea3fef2be4ebd25262afb1a2c95f58aa20860367803187a580450885848360405161142f93929190612469565b60405180910390a15050505050565b6040518060400160405280600881526020017f4465726f67616461000000000000000000000000000000000000000000000000815250805190602001208180519060200120146114c3576040517f08c379a00000000000000000000000000000000000000000000000000000000081526004016114ba90612239565b60405180910390fd5b6114cd8282610265565b5050565b6040518060e00160405280606081526020015f81526020015f815260200160608152602001606081526020015f15158152602001606081525090565b5f604051905090565b5f5ffd5b5f5ffd5b5f5ffd5b5f5ffd5b5f601f19601f8301169050919050565b7f4e487b71000000000000000000000000000000000000000000000000000000005f52604160045260245ffd5b61156c82611526565b810181811067ffffffffffffffff8211171561158b5761158a611536565b5b80604052505050565b5f61159d61150d565b90506115a98282611563565b919050565b5f67ffffffffffffffff8211156115c8576115c7611536565b5b6115d182611526565b9050602081019050919050565b828183375f83830152505050565b5f6115fe6115f9846115ae565b611594565b90508281526020810184848401111561161a57611619611522565b5b6116258482856115de565b509392505050565b5f82601f8301126116415761164061151e565b5b81356116518482602086016115ec565b91505092915050565b5f5f604083850312156116705761166f611516565b5b5f83013567ffffffffffffffff81111561168d5761168c61151a565b5b6116998582860161162d565b925050602083013567ffffffffffffffff8111156116ba576116b961151a565b5b6116c68582860161162d565b9150509250929050565b5f73ffffffffffffffffffffffffffffffffffffffff82169050919050565b5f6116f9826116d0565b9050919050565b611709816116ef565b82525050565b5f6020820190506117225f830184611700565b92915050565b5f5f5f6060848603121561173f5761173e611516565b5b5f84013567ffffffffffffffff81111561175c5761175b61151a565b5b6117688682870161162d565b935050602084013567ffffffffffffffff8111156117895761178861151a565b5b6117958682870161162d565b925050604084013567ffffffffffffffff8111156117b6576117b561151a565b5b6117c28682870161162d565b9150509250925092565b5f8115159050919050565b6117e0816117cc565b82525050565b5f6020820190506117f95f8301846117d7565b92915050565b5f6020828403121561181457611813611516565b5b5f82013567ffffffffffffffff8111156118315761183061151a565b5b61183d8482850161162d565b91505092915050565b5f81519050919050565b5f82825260208201905092915050565b8281835e5f83830152505050565b5f61187882611846565b6118828185611850565b9350611892818560208601611860565b61189b81611526565b840191505092915050565b5f819050919050565b6118b8816118a6565b82525050565b6118c7816117cc565b82525050565b5f81519050919050565b5f82825260208201905092915050565b5f819050602082019050919050565b6118ff816116ef565b82525050565b5f60a083015f83015161191a5f8601826118af565b5060208301518482036020860152611932828261186e565b9150506040830151848203604086015261194c828261186e565b915050606083015161196160608601826118f6565b5060808301518482036080860152611979828261186e565b9150508091505092915050565b5f6119918383611905565b905092915050565b5f602082019050919050565b5f6119af826118cd565b6119b981856118d7565b9350836020820285016119cb856118e7565b805f5b85811015611a0657848403895281516119e78582611986565b94506119f283611999565b925060208a019950506001810190506119ce565b50829750879550505050505092915050565b5f60e083015f8301518482035f860152611a32828261186e565b9150506020830151611a4760208601826118af565b506040830151611a5a60408601826118af565b5060608301518482036060860152611a72828261186e565b91505060808301518482036080860152611a8c828261186e565b91505060a0830151611aa160a08601826118be565b5060c083015184820360c0860152611ab982826119a5565b9150508091505092915050565b5f6020820190508181035f830152611ade8184611a18565b905092915050565b611aef816118a6565b82525050565b5f602082019050611b085f830184611ae6565b92915050565b611b17816118a6565b8114611b21575f5ffd5b50565b5f81359050611b3281611b0e565b92915050565b5f5f5f5f60808587031215611b5057611b4f611516565b5b5f85013567ffffffffffffffff811115611b6d57611b6c61151a565b5b611b798782880161162d565b9450506020611b8a87828801611b24565b935050604085013567ffffffffffffffff811115611bab57611baa61151a565b5b611bb78782880161162d565b925050606085013567ffffffffffffffff811115611bd857611bd761151a565b5b611be48782880161162d565b91505092959194509250565b5f82825260208201905092915050565b5f611c0a82611846565b611c148185611bf0565b9350611c24818560208601611860565b611c2d81611526565b840191505092915050565b5f60c0820190508181035f830152611c508189611c00565b9050611c5f6020830188611ae6565b611c6c6040830187611ae6565b8181036060830152611c7e8186611c00565b90508181036080830152611c928185611c00565b9050611ca160a0830184611ae6565b979650505050505050565b5f5f5f5f5f60a08688031215611cc557611cc4611516565b5b5f86013567ffffffffffffffff811115611ce257611ce161151a565b5b611cee8882890161162d565b9550506020611cff88828901611b24565b9450506040611d1088828901611b24565b935050606086013567ffffffffffffffff811115611d3157611d3061151a565b5b611d3d8882890161162d565b925050608086013567ffffffffffffffff811115611d5e57611d5d61151a565b5b611d6a8882890161162d565b9150509295509295909350565b5f81905092915050565b5f611d8b82611846565b611d958185611d77565b9350611da5818560208601611860565b80840191505092915050565b5f611dbc8284611d81565b915081905092915050565b7f4c6120616374756163696f6e206e6f20657869737465000000000000000000005f82015250565b5f611dfb601683611bf0565b9150611e0682611dc7565b602082019050919050565b5f6020820190508181035f830152611e2881611def565b9050919050565b7f4e6f20657320656c2070726f706965746172696f0000000000000000000000005f82015250565b5f611e63601483611bf0565b9150611e6e82611e2f565b602082019050919050565b5f6020820190508181035f830152611e9081611e57565b9050919050565b7f4e487b71000000000000000000000000000000000000000000000000000000005f52602260045260245ffd5b5f6002820490506001821680611edb57607f821691505b602082108103611eee57611eed611e97565b5b50919050565b5f819050815f5260205f209050919050565b5f6020601f8301049050919050565b5f82821b905092915050565b5f60088302611f507fffffffffffffffffffffffffffffffffffffffffffffffffffffffffffffffff82611f15565b611f5a8683611f15565b95508019841693508086168417925050509392505050565b5f819050919050565b5f611f95611f90611f8b846118a6565b611f72565b6118a6565b9050919050565b5f819050919050565b611fae83611f7b565b611fc2611fba82611f9c565b848454611f21565b825550505050565b5f5f905090565b611fd9611fca565b611fe4818484611fa5565b505050565b5f5b8281101561200a57611fff5f828401611fd1565b600181019050611feb565b505050565b601f82111561205d578282111561205c5761202981611ef4565b61203283611f06565b61203b85611f06565b6020861015612048575f90505b80830161205782840382611fe9565b505050505b5b505050565b5f82821c905092915050565b5f61207d5f1984600802612062565b1980831691505092915050565b5f612095838361206e565b9150826002028217905092915050565b6120ae82611846565b67ffffffffffffffff8111156120c7576120c6611536565b5b6120d18254611ec4565b6120dc82828561200f565b5f60209050601f83116001811461210d575f84156120fb578287015190505b612105858261208a565b86555061216c565b601f19841661211b86611ef4565b5f5b828110156121425784890151825560018201915060208501945060208101905061211d565b8683101561215f578489015161215b601f89168261206e565b8355505b6001600288020188555050505b505050505050565b5f6020820190508181035f83015261218c8184611c00565b905092915050565b5f6040820190508181035f8301526121ac8185611c00565b905081810360208301526121c08184611c00565b90509392505050565b7f566967656e63696120696e76616c6964613a2075736520566967656e74652c205f8201527f4d6f6469666963616461206f204465726f676164610000000000000000000000602082015250565b5f612223603583611bf0565b915061222e826121c9565b604082019050919050565b5f6020820190508181035f83015261225081612217565b9050919050565b5f6060820190508181035f83015261226f8186611c00565b905081810360208301526122838185611c00565b905081810360408301526122978184611c00565b9050949350505050565b7f4c6120616374756163696f6e20796120657869737465000000000000000000005f82015250565b5f6122d5601683611bf0565b91506122e0826122a1565b602082019050919050565b5f6020820190508181035f830152612302816122c9565b9050919050565b7f4e6f2073652068612070616761646f206c6120746172696661206465207265675f8201527f697374726f000000000000000000000000000000000000000000000000000000602082015250565b5f612363602583611bf0565b915061236e82612309565b604082019050919050565b5f6020820190508181035f83015261239081612357565b9050919050565b5f81546123a381611ec4565b6123ad8186611bf0565b9450600182165f81146123c757600181146123dd5761240f565b60ff19831686528115156020028601935061240f565b6123e685611ef4565b5f5b83811015612407578154818901526001820191506020810190506123e8565b808801955050505b50505092915050565b5f60808201905061242b5f830187611ae6565b6124386020830186611ae6565b818103604083015261244a8185612397565b9050818103606083015261245e8184612397565b905095945050505050565b5f6060820190508181035f8301526124818186611c00565b90506124906020830185611ae6565b81810360408301526124a28184611c00565b905094935050505056fea2646970667358221220b7bd15131822a994ec22e9fd79e3ed8e2e19dfa1a2ef153c7e4c5f2e1db9c09664736f6c63430008220033",
			"opcodes": "PUSH1 0x80 PUSH1 0x40 MSTORE CALLVALUE DUP1 ISZERO PUSH1 0xE JUMPI PUSH0 PUSH0 REVERT JUMPDEST POP CALLER PUSH0 PUSH0 PUSH2 0x100 EXP DUP2 SLOAD DUP2 PUSH20 0xFFFFFFFFFFFFFFFFFFFFFFFFFFFFFFFFFFFFFFFF MUL NOT AND SWAP1 DUP4 PUSH20 0xFFFFFFFFFFFFFFFFFFFFFFFFFFFFFFFFFFFFFFFF AND MUL OR SWAP1 SSTORE POP PUSH2 0x24E2 DUP1 PUSH2 0x5B PUSH0 CODECOPY PUSH0 RETURN INVALID PUSH1 0x80 PUSH1 0x40 MSTORE PUSH1 0x4 CALLDATASIZE LT PUSH2 0x90 JUMPI PUSH0 CALLDATALOAD PUSH1 0xE0 SHR DUP1 PUSH4 0x52B5241E GT PUSH2 0x58 JUMPI DUP1 PUSH4 0x52B5241E EQ PUSH2 0x19A JUMPI DUP1 PUSH4 0x9CFA7E5F EQ PUSH2 0x1C4 JUMPI DUP1 PUSH4 0xABCC0EB7 EQ PUSH2 0x1E0 JUMPI DUP1 PUSH4 0xB673B0F3 EQ PUSH2 0x221 JUMPI DUP1 PUSH4 0xE3298788 EQ PUSH2 0x23D JUMPI PUSH2 0x90 JUMP JUMPDEST DUP1 PUSH4 0x1A558E99 EQ PUSH2 0x94 JUMPI DUP1 PUSH4 0x3C4F81CD EQ PUSH2 0xBC JUMPI DUP1 PUSH4 0x3E403055 EQ PUSH2 0xE6 JUMPI DUP1 PUSH4 0x45E78768 EQ PUSH2 0x122 JUMPI DUP1 PUSH4 0x4B386CE6 EQ PUSH2 0x15E JUMPI JUMPDEST PUSH0 PUSH0 REVERT JUMPDEST CALLVALUE DUP1 ISZERO PUSH2 0x9F JUMPI PUSH0 PUSH0 REVERT JUMPDEST POP PUSH2 0xBA PUSH1 0x4 DUP1 CALLDATASIZE SUB DUP2 ADD SWAP1 PUSH2 0xB5 SWAP2 SWAP1 PUSH2 0x165A JUMP JUMPDEST PUSH2 0x265 JUMP JUMPDEST STOP JUMPDEST CALLVALUE DUP1 ISZERO PUSH2 0xC7 JUMPI PUSH0 PUSH0 REVERT JUMPDEST POP PUSH2 0xD0 PUSH2 0x5A2 JUMP JUMPDEST PUSH1 0x40 MLOAD PUSH2 0xDD SWAP2 SWAP1 PUSH2 0x170F JUMP JUMPDEST PUSH1 0x40 MLOAD DUP1 SWAP2 SUB SWAP1 RETURN JUMPDEST CALLVALUE DUP1 ISZERO PUSH2 0xF1 JUMPI PUSH0 PUSH0 REVERT JUMPDEST POP PUSH2 0x10C PUSH1 0x4 DUP1 CALLDATASIZE SUB DUP2 ADD SWAP1 PUSH2 0x107 SWAP2 SWAP1 PUSH2 0x1728 JUMP JUMPDEST PUSH2 0x5C6 JUMP JUMPDEST PUSH1 0x40 MLOAD PUSH2 0x119 SWAP2 SWAP1 PUSH2 0x17E6 JUMP JUMPDEST PUSH1 0x40 MLOAD DUP1 SWAP2 SUB SWAP1 RETURN JUMPDEST CALLVALUE DUP1 ISZERO PUSH2 0x12D JUMPI PUSH0 PUSH0 REVERT JUMPDEST POP PUSH2 0x148 PUSH1 0x4 DUP1 CALLDATASIZE SUB DUP2 ADD SWAP1 PUSH2 0x143 SWAP2 SWAP1 PUSH2 0x1728 JUMP JUMPDEST PUSH2 0x8D8 JUMP JUMPDEST PUSH1 0x40 MLOAD PUSH2 0x155 SWAP2 SWAP1 PUSH2 0x17E6 JUMP JUMPDEST PUSH1 0x40 MLOAD DUP1 SWAP2 SUB SWAP1 RETURN JUMPDEST CALLVALUE DUP1 ISZERO PUSH2 0x169 JUMPI PUSH0 PUSH0 REVERT JUMPDEST POP PUSH2 0x184 PUSH1 0x4 DUP1 CALLDATASIZE SUB DUP2 ADD SWAP1 PUSH2 0x17F SWAP2 SWAP1 PUSH2 0x17FF JUMP JUMPDEST PUSH2 0xA4A JUMP JUMPDEST PUSH1 0x40 MLOAD PUSH2 0x191 SWAP2 SWAP1 PUSH2 0x1AC6 JUMP JUMPDEST PUSH1 0x40 MLOAD DUP1 SWAP2 SUB SWAP1 RETURN JUMPDEST CALLVALUE DUP1 ISZERO PUSH2 0x1A5 JUMPI PUSH0 PUSH0 REVERT JUMPDEST POP PUSH2 0x1AE PUSH2 0xF36 JUMP JUMPDEST PUSH1 0x40 MLOAD PUSH2 0x1BB SWAP2 SWAP1 PUSH2 0x1AF5 JUMP JUMPDEST PUSH1 0x40 MLOAD DUP1 SWAP2 SUB SWAP1 RETURN JUMPDEST PUSH2 0x1DE PUSH1 0x4 DUP1 CALLDATASIZE SUB DUP2 ADD SWAP1 PUSH2 0x1D9 SWAP2 SWAP1 PUSH2 0x1B38 JUMP JUMPDEST PUSH2 0xF3C JUMP JUMPDEST STOP JUMPDEST CALLVALUE DUP1 ISZERO PUSH2 0x1EB JUMPI PUSH0 PUSH0 REVERT JUMPDEST POP PUSH2 0x206 PUSH1 0x4 DUP1 CALLDATASIZE SUB DUP2 ADD SWAP1 PUSH2 0x201 SWAP2 SWAP1 PUSH2 0x17FF JUMP JUMPDEST PUSH2 0x1269 JUMP JUMPDEST PUSH1 0x40 MLOAD PUSH2 0x218 SWAP7 SWAP6 SWAP5 SWAP4 SWAP3 SWAP2 SWAP1 PUSH2 0x1C38 JUMP JUMPDEST PUSH1 0x40 MLOAD DUP1 SWAP2 SUB SWAP1 RETURN JUMPDEST PUSH2 0x23B PUSH1 0x4 DUP1 CALLDATASIZE SUB DUP2 ADD SWAP1 PUSH2 0x236 SWAP2 SWAP1 PUSH2 0x1CAC JUMP JUMPDEST PUSH2 0x12D1 JUMP JUMPDEST STOP JUMPDEST CALLVALUE DUP1 ISZERO PUSH2 0x248 JUMPI PUSH0 PUSH0 REVERT JUMPDEST POP PUSH2 0x263 PUSH1 0x4 DUP1 CALLDATASIZE SUB DUP2 ADD SWAP1 PUSH2 0x25E SWAP2 SWAP1 PUSH2 0x165A JUMP JUMPDEST PUSH2 0x143E JUMP JUMPDEST STOP JUMPDEST PUSH1 0x1 DUP3 PUSH1 0x40 MLOAD PUSH2 0x275 SWAP2 SWAP1 PUSH2 0x1DB1 JUMP JUMPDEST SWAP1 DUP2 MSTORE PUSH1 0x20 ADD PUSH1 0x40 MLOAD DUP1 SWAP2 SUB SWAP1 KECCAK256 PUSH1 0x5 ADD PUSH0 SWAP1 SLOAD SWAP1 PUSH2 0x100 EXP SWAP1 DIV PUSH1 0xFF AND PUSH2 0x2D2 JUMPI PUSH1 0x40 MLOAD PUSH32 0x8C379A000000000000000000000000000000000000000000000000000000000 DUP2 MSTORE PUSH1 0x4 ADD PUSH2 0x2C9 SWAP1 PUSH2 0x1E11 JUMP JUMPDEST PUSH1 0x40 MLOAD DUP1 SWAP2 SUB SWAP1 REVERT JUMPDEST PUSH0 PUSH0 SWAP1 SLOAD SWAP1 PUSH2 0x100 EXP SWAP1 DIV PUSH20 0xFFFFFFFFFFFFFFFFFFFFFFFFFFFFFFFFFFFFFFFF AND PUSH20 0xFFFFFFFFFFFFFFFFFFFFFFFFFFFFFFFFFFFFFFFF AND CALLER PUSH20 0xFFFFFFFFFFFFFFFFFFFFFFFFFFFFFFFFFFFFFFFF AND EQ PUSH2 0x360 JUMPI PUSH1 0x40 MLOAD PUSH32 0x8C379A000000000000000000000000000000000000000000000000000000000 DUP2 MSTORE PUSH1 0x4 ADD PUSH2 0x357 SWAP1 PUSH2 0x1E79 JUMP JUMPDEST PUSH1 0x40 MLOAD DUP1 SWAP2 SUB SWAP1 REVERT JUMPDEST PUSH0 PUSH1 0x1 DUP4 PUSH1 0x40 MLOAD PUSH2 0x371 SWAP2 SWAP1 PUSH2 0x1DB1 JUMP JUMPDEST SWAP1 DUP2 MSTORE PUSH1 0x20 ADD PUSH1 0x40 MLOAD DUP1 SWAP2 SUB SWAP1 KECCAK256 SWAP1 POP PUSH0 DUP2 PUSH1 0x4 ADD DUP1 SLOAD PUSH2 0x391 SWAP1 PUSH2 0x1EC4 JUMP JUMPDEST DUP1 PUSH1 0x1F ADD PUSH1 0x20 DUP1 SWAP2 DIV MUL PUSH1 0x20 ADD PUSH1 0x40 MLOAD SWAP1 DUP2 ADD PUSH1 0x40 MSTORE DUP1 SWAP3 SWAP2 SWAP1 DUP2 DUP2 MSTORE PUSH1 0x20 ADD DUP3 DUP1 SLOAD PUSH2 0x3BD SWAP1 PUSH2 0x1EC4 JUMP JUMPDEST DUP1 ISZERO PUSH2 0x408 JUMPI DUP1 PUSH1 0x1F LT PUSH2 0x3DF JUMPI PUSH2 0x100 DUP1 DUP4 SLOAD DIV MUL DUP4 MSTORE SWAP2 PUSH1 0x20 ADD SWAP2 PUSH2 0x408 JUMP JUMPDEST DUP3 ADD SWAP2 SWAP1 PUSH0 MSTORE PUSH1 0x20 PUSH0 KECCAK256 SWAP1 JUMPDEST DUP2 SLOAD DUP2 MSTORE SWAP1 PUSH1 0x1 ADD SWAP1 PUSH1 0x20 ADD DUP1 DUP4 GT PUSH2 0x3EB JUMPI DUP3 SWAP1 SUB PUSH1 0x1F AND DUP3 ADD SWAP2 JUMPDEST POP POP POP POP POP SWAP1 POP DUP2 PUSH1 0x6 ADD PUSH1 0x40 MLOAD DUP1 PUSH1 0xA0 ADD PUSH1 0x40 MSTORE DUP1 TIMESTAMP DUP2 MSTORE PUSH1 0x20 ADD DUP4 DUP2 MSTORE PUSH1 0x20 ADD DUP6 DUP2 MSTORE PUSH1 0x20 ADD CALLER PUSH20 0xFFFFFFFFFFFFFFFFFFFFFFFFFFFFFFFFFFFFFFFF AND DUP2 MSTORE PUSH1 0x20 ADD PUSH1 0x40 MLOAD DUP1 PUSH1 0x40 ADD PUSH1 0x40 MSTORE DUP1 PUSH1 0xB DUP2 MSTORE PUSH1 0x20 ADD PUSH32 0x456C696D696E6163696F6E000000000000000000000000000000000000000000 DUP2 MSTORE POP DUP2 MSTORE POP SWAP1 DUP1 PUSH1 0x1 DUP2 SLOAD ADD DUP1 DUP3 SSTORE DUP1 SWAP2 POP POP PUSH1 0x1 SWAP1 SUB SWAP1 PUSH0 MSTORE PUSH1 0x20 PUSH0 KECCAK256 SWAP1 PUSH1 0x5 MUL ADD PUSH0 SWAP1 SWAP2 SWAP1 SWAP2 SWAP1 SWAP2 POP PUSH0 DUP3 ADD MLOAD DUP2 PUSH0 ADD SSTORE PUSH1 0x20 DUP3 ADD MLOAD DUP2 PUSH1 0x1 ADD SWAP1 DUP2 PUSH2 0x4C8 SWAP2 SWAP1 PUSH2 0x20A5 JUMP JUMPDEST POP PUSH1 0x40 DUP3 ADD MLOAD DUP2 PUSH1 0x2 ADD SWAP1 DUP2 PUSH2 0x4DE SWAP2 SWAP1 PUSH2 0x20A5 JUMP JUMPDEST POP PUSH1 0x60 DUP3 ADD MLOAD DUP2 PUSH1 0x3 ADD PUSH0 PUSH2 0x100 EXP DUP2 SLOAD DUP2 PUSH20 0xFFFFFFFFFFFFFFFFFFFFFFFFFFFFFFFFFFFFFFFF MUL NOT AND SWAP1 DUP4 PUSH20 0xFFFFFFFFFFFFFFFFFFFFFFFFFFFFFFFFFFFFFFFF AND MUL OR SWAP1 SSTORE POP PUSH1 0x80 DUP3 ADD MLOAD DUP2 PUSH1 0x4 ADD SWAP1 DUP2 PUSH2 0x53A SWAP2 SWAP1 PUSH2 0x20A5 JUMP JUMPDEST POP POP POP DUP3 DUP3 PUSH1 0x4 ADD SWAP1 DUP2 PUSH2 0x54E SWAP2 SWAP1 PUSH2 0x20A5 JUMP JUMPDEST POP DUP4 PUSH1 0x40 MLOAD PUSH2 0x55D SWAP2 SWAP1 PUSH2 0x1DB1 JUMP JUMPDEST PUSH1 0x40 MLOAD DUP1 SWAP2 SUB SWAP1 KECCAK256 PUSH32 0xCA9E61491A92F74AB08DE901C48DFAE60350B8D8E23EE6A893A15D7F5E725200 DUP5 PUSH1 0x40 MLOAD PUSH2 0x594 SWAP2 SWAP1 PUSH2 0x2174 JUMP JUMPDEST PUSH1 0x40 MLOAD DUP1 SWAP2 SUB SWAP1 LOG2 POP POP POP POP JUMP JUMPDEST PUSH0 PUSH0 SWAP1 SLOAD SWAP1 PUSH2 0x100 EXP SWAP1 DIV PUSH20 0xFFFFFFFFFFFFFFFFFFFFFFFFFFFFFFFFFFFFFFFF AND DUP2 JUMP JUMPDEST PUSH0 PUSH1 0x1 DUP5 PUSH1 0x40 MLOAD PUSH2 0x5D7 SWAP2 SWAP1 PUSH2 0x1DB1 JUMP JUMPDEST SWAP1 DUP2 MSTORE PUSH1 0x20 ADD PUSH1 0x40 MLOAD DUP1 SWAP2 SUB SWAP1 KECCAK256 PUSH1 0x5 ADD PUSH0 SWAP1 SLOAD SWAP1 PUSH2 0x100 EXP SWAP1 DIV PUSH1 0xFF AND PUSH2 0x634 JUMPI PUSH1 0x40 MLOAD PUSH32 0x8C379A000000000000000000000000000000000000000000000000000000000 DUP2 MSTORE PUSH1 0x4 ADD PUSH2 0x62B SWAP1 PUSH2 0x1E11 JUMP JUMPDEST PUSH1 0x40 MLOAD DUP1 SWAP2 SUB SWAP1 REVERT JUMPDEST PUSH0 PUSH0 SWAP1 SLOAD SWAP1 PUSH2 0x100 EXP SWAP1 DIV PUSH20 0xFFFFFFFFFFFFFFFFFFFFFFFFFFFFFFFFFFFFFFFF AND PUSH20 0xFFFFFFFFFFFFFFFFFFFFFFFFFFFFFFFFFFFFFFFF AND CALLER PUSH20 0xFFFFFFFFFFFFFFFFFFFFFFFFFFFFFFFFFFFFFFFF AND EQ PUSH2 0x6C2 JUMPI PUSH1 0x40 MLOAD PUSH32 0x8C379A000000000000000000000000000000000000000000000000000000000 DUP2 MSTORE PUSH1 0x4 ADD PUSH2 0x6B9 SWAP1 PUSH2 0x1E79 JUMP JUMPDEST PUSH1 0x40 MLOAD DUP1 SWAP2 SUB SWAP1 REVERT JUMPDEST PUSH0 PUSH1 0x1 DUP6 PUSH1 0x40 MLOAD PUSH2 0x6D3 SWAP2 SWAP1 PUSH2 0x1DB1 JUMP JUMPDEST SWAP1 DUP2 MSTORE PUSH1 0x20 ADD PUSH1 0x40 MLOAD DUP1 SWAP2 SUB SWAP1 KECCAK256 SWAP1 POP PUSH0 DUP2 PUSH1 0x4 ADD DUP1 SLOAD PUSH2 0x6F3 SWAP1 PUSH2 0x1EC4 JUMP JUMPDEST DUP1 PUSH1 0x1F ADD PUSH1 0x20 DUP1 SWAP2 DIV MUL PUSH1 0x20 ADD PUSH1 0x40 MLOAD SWAP1 DUP2 ADD PUSH1 0x40 MSTORE DUP1 SWAP3 SWAP2 SWAP1 DUP2 DUP2 MSTORE PUSH1 0x20 ADD DUP3 DUP1 SLOAD PUSH2 0x71F SWAP1 PUSH2 0x1EC4 JUMP JUMPDEST DUP1 ISZERO PUSH2 0x76A JUMPI DUP1 PUSH1 0x1F LT PUSH2 0x741 JUMPI PUSH2 0x100 DUP1 DUP4 SLOAD DIV MUL DUP4 MSTORE SWAP2 PUSH1 0x20 ADD SWAP2 PUSH2 0x76A JUMP JUMPDEST DUP3 ADD SWAP2 SWAP1 PUSH0 MSTORE PUSH1 0x20 PUSH0 KECCAK256 SWAP1 JUMPDEST DUP2 SLOAD DUP2 MSTORE SWAP1 PUSH1 0x1 ADD SWAP1 PUSH1 0x20 ADD DUP1 DUP4 GT PUSH2 0x74D JUMPI DUP3 SWAP1 SUB PUSH1 0x1F AND DUP3 ADD SWAP2 JUMPDEST POP POP POP POP POP SWAP1 POP DUP5 DUP3 PUSH1 0x4 ADD SWAP1 DUP2 PUSH2 0x782 SWAP2 SWAP1 PUSH2 0x20A5 JUMP JUMPDEST POP DUP2 PUSH1 0x6 ADD PUSH1 0x40 MLOAD DUP1 PUSH1 0xA0 ADD PUSH1 0x40 MSTORE DUP1 TIMESTAMP DUP2 MSTORE PUSH1 0x20 ADD DUP4 DUP2 MSTORE PUSH1 0x20 ADD DUP8 DUP2 MSTORE PUSH1 0x20 ADD CALLER PUSH20 0xFFFFFFFFFFFFFFFFFFFFFFFFFFFFFFFFFFFFFFFF AND DUP2 MSTORE PUSH1 0x20 ADD DUP7 DUP2 MSTORE POP SWAP1 DUP1 PUSH1 0x1 DUP2 SLOAD ADD DUP1 DUP3 SSTORE DUP1 SWAP2 POP POP PUSH1 0x1 SWAP1 SUB SWAP1 PUSH0 MSTORE PUSH1 0x20 PUSH0 KECCAK256 SWAP1 PUSH1 0x5 MUL ADD PUSH0 SWAP1 SWAP2 SWAP1 SWAP2 SWAP1 SWAP2 POP PUSH0 DUP3 ADD MLOAD DUP2 PUSH0 ADD SSTORE PUSH1 0x20 DUP3 ADD MLOAD DUP2 PUSH1 0x1 ADD SWAP1 DUP2 PUSH2 0x807 SWAP2 SWAP1 PUSH2 0x20A5 JUMP JUMPDEST POP PUSH1 0x40 DUP3 ADD MLOAD DUP2 PUSH1 0x2 ADD SWAP1 DUP2 PUSH2 0x81D SWAP2 SWAP1 PUSH2 0x20A5 JUMP JUMPDEST POP PUSH1 0x60 DUP3 ADD MLOAD DUP2 PUSH1 0x3 ADD PUSH0 PUSH2 0x100 EXP DUP2 SLOAD DUP2 PUSH20 0xFFFFFFFFFFFFFFFFFFFFFFFFFFFFFFFFFFFFFFFF MUL NOT AND SWAP1 DUP4 PUSH20 0xFFFFFFFFFFFFFFFFFFFFFFFFFFFFFFFFFFFFFFFF AND MUL OR SWAP1 SSTORE POP PUSH1 0x80 DUP3 ADD MLOAD DUP2 PUSH1 0x4 ADD SWAP1 DUP2 PUSH2 0x879 SWAP2 SWAP1 PUSH2 0x20A5 JUMP JUMPDEST POP POP POP DUP6 PUSH1 0x40 MLOAD PUSH2 0x88A SWAP2 SWAP1 PUSH2 0x1DB1 JUMP JUMPDEST PUSH1 0x40 MLOAD DUP1 SWAP2 SUB SWAP1 KECCAK256 PUSH32 0x3F43AAEE16EAF64E24F81E00000B24904C03BDB56FA4823C10C2BE8AAE97D0AC DUP7 DUP7 PUSH1 0x40 MLOAD PUSH2 0x8C3 SWAP3 SWAP2 SWAP1 PUSH2 0x2194 JUMP JUMPDEST PUSH1 0x40 MLOAD DUP1 SWAP2 SUB SWAP1 LOG2 PUSH1 0x1 SWAP3 POP POP POP SWAP4 SWAP3 POP POP POP JUMP JUMPDEST PUSH0 PUSH1 0x40 MLOAD DUP1 PUSH1 0x40 ADD PUSH1 0x40 MSTORE DUP1 PUSH1 0x7 DUP2 MSTORE PUSH1 0x20 ADD PUSH32 0x566967656E746500000000000000000000000000000000000000000000000000 DUP2 MSTORE POP DUP1 MLOAD SWAP1 PUSH1 0x20 ADD KECCAK256 DUP4 DUP1 MLOAD SWAP1 PUSH1 0x20 ADD KECCAK256 EQ DUP1 PUSH2 0x96C JUMPI POP PUSH1 0x40 MLOAD DUP1 PUSH1 0x40 ADD PUSH1 0x40 MSTORE DUP1 PUSH1 0xA DUP2 MSTORE PUSH1 0x20 ADD PUSH32 0x4D6F646966696361646100000000000000000000000000000000000000000000 DUP2 MSTORE POP DUP1 MLOAD SWAP1 PUSH1 0x20 ADD KECCAK256 DUP4 DUP1 MLOAD SWAP1 PUSH1 0x20 ADD KECCAK256 EQ JUMPDEST DUP1 PUSH2 0x9B9 JUMPI POP PUSH1 0x40 MLOAD DUP1 PUSH1 0x40 ADD PUSH1 0x40 MSTORE DUP1 PUSH1 0x8 DUP2 MSTORE PUSH1 0x20 ADD PUSH32 0x4465726F67616461000000000000000000000000000000000000000000000000 DUP2 MSTORE POP DUP1 MLOAD SWAP1 PUSH1 0x20 ADD KECCAK256 DUP4 DUP1 MLOAD SWAP1 PUSH1 0x20 ADD KECCAK256 EQ JUMPDEST PUSH2 0x9F8 JUMPI PUSH1 0x40 MLOAD PUSH32 0x8C379A000000000000000000000000000000000000000000000000000000000 DUP2 MSTORE PUSH1 0x4 ADD PUSH2 0x9EF SWAP1 PUSH2 0x2239 JUMP JUMPDEST PUSH1 0x40 MLOAD DUP1 SWAP2 SUB SWAP1 REVERT JUMPDEST PUSH2 0xA03 DUP5 DUP5 DUP5 PUSH2 0x5C6 JUMP JUMPDEST POP PUSH32 0x6671ABAA8E20D376E6DFC20E2B2071B0128C1AA11ED2EA37A5DB5F400F8DC674 DUP5 DUP5 DUP5 PUSH1 0x40 MLOAD PUSH2 0xA37 SWAP4 SWAP3 SWAP2 SWAP1 PUSH2 0x2257 JUMP JUMPDEST PUSH1 0x40 MLOAD DUP1 SWAP2 SUB SWAP1 LOG1 PUSH1 0x1 SWAP1 POP SWAP4 SWAP3 POP POP POP JUMP JUMPDEST PUSH2 0xA52 PUSH2 0x14D1 JUMP JUMPDEST PUSH1 0x1 DUP3 PUSH1 0x40 MLOAD PUSH2 0xA62 SWAP2 SWAP1 PUSH2 0x1DB1 JUMP JUMPDEST SWAP1 DUP2 MSTORE PUSH1 0x20 ADD PUSH1 0x40 MLOAD DUP1 SWAP2 SUB SWAP1 KECCAK256 PUSH1 0x5 ADD PUSH0 SWAP1 SLOAD SWAP1 PUSH2 0x100 EXP SWAP1 DIV PUSH1 0xFF AND PUSH2 0xABF JUMPI PUSH1 0x40 MLOAD PUSH32 0x8C379A000000000000000000000000000000000000000000000000000000000 DUP2 MSTORE PUSH1 0x4 ADD PUSH2 0xAB6 SWAP1 PUSH2 0x1E11 JUMP JUMPDEST PUSH1 0x40 MLOAD DUP1 SWAP2 SUB SWAP1 REVERT JUMPDEST PUSH1 0x1 DUP3 PUSH1 0x40 MLOAD PUSH2 0xACF SWAP2 SWAP1 PUSH2 0x1DB1 JUMP JUMPDEST SWAP1 DUP2 MSTORE PUSH1 0x20 ADD PUSH1 0x40 MLOAD DUP1 SWAP2 SUB SWAP1 KECCAK256 PUSH1 0x40 MLOAD DUP1 PUSH1 0xE0 ADD PUSH1 0x40 MSTORE SWAP1 DUP2 PUSH0 DUP3 ADD DUP1 SLOAD PUSH2 0xAF7 SWAP1 PUSH2 0x1EC4 JUMP JUMPDEST DUP1 PUSH1 0x1F ADD PUSH1 0x20 DUP1 SWAP2 DIV MUL PUSH1 0x20 ADD PUSH1 0x40 MLOAD SWAP1 DUP2 ADD PUSH1 0x40 MSTORE DUP1 SWAP3 SWAP2 SWAP1 DUP2 DUP2 MSTORE PUSH1 0x20 ADD DUP3 DUP1 SLOAD PUSH2 0xB23 SWAP1 PUSH2 0x1EC4 JUMP JUMPDEST DUP1 ISZERO PUSH2 0xB6E JUMPI DUP1 PUSH1 0x1F LT PUSH2 0xB45 JUMPI PUSH2 0x100 DUP1 DUP4 SLOAD DIV MUL DUP4 MSTORE SWAP2 PUSH1 0x20 ADD SWAP2 PUSH2 0xB6E JUMP JUMPDEST DUP3 ADD SWAP2 SWAP1 PUSH0 MSTORE PUSH1 0x20 PUSH0 KECCAK256 SWAP1 JUMPDEST DUP2 SLOAD DUP2 MSTORE SWAP1 PUSH1 0x1 ADD SWAP1 PUSH1 0x20 ADD DUP1 DUP4 GT PUSH2 0xB51 JUMPI DUP3 SWAP1 SUB PUSH1 0x1F AND DUP3 ADD SWAP2 JUMPDEST POP POP POP POP POP DUP2 MSTORE PUSH1 0x20 ADD PUSH1 0x1 DUP3 ADD SLOAD DUP2 MSTORE PUSH1 0x20 ADD PUSH1 0x2 DUP3 ADD SLOAD DUP2 MSTORE PUSH1 0x20 ADD PUSH1 0x3 DUP3 ADD DUP1 SLOAD PUSH2 0xB9B SWAP1 PUSH2 0x1EC4 JUMP JUMPDEST DUP1 PUSH1 0x1F ADD PUSH1 0x20 DUP1 SWAP2 DIV MUL PUSH1 0x20 ADD PUSH1 0x40 MLOAD SWAP1 DUP2 ADD PUSH1 0x40 MSTORE DUP1 SWAP3 SWAP2 SWAP1 DUP2 DUP2 MSTORE PUSH1 0x20 ADD DUP3 DUP1 SLOAD PUSH2 0xBC7 SWAP1 PUSH2 0x1EC4 JUMP JUMPDEST DUP1 ISZERO PUSH2 0xC12 JUMPI DUP1 PUSH1 0x1F LT PUSH2 0xBE9 JUMPI PUSH2 0x100 DUP1 DUP4 SLOAD DIV MUL DUP4 MSTORE SWAP2 PUSH1 0x20 ADD SWAP2 PUSH2 0xC12 JUMP JUMPDEST DUP3 ADD SWAP2 SWAP1 PUSH0 MSTORE PUSH1 0x20 PUSH0 KECCAK256 SWAP1 JUMPDEST DUP2 SLOAD DUP2 MSTORE SWAP1 PUSH1 0x1 ADD SWAP1 PUSH1 0x20 ADD DUP1 DUP4 GT PUSH2 0xBF5 JUMPI DUP3 SWAP1 SUB PUSH1 0x1F AND DUP3 ADD SWAP2 JUMPDEST POP POP POP POP POP DUP2 MSTORE PUSH1 0x20 ADD PUSH1 0x4 DUP3 ADD DUP1 SLOAD PUSH2 0xC2B SWAP1 PUSH2 0x1EC4 JUMP JUMPDEST DUP1 PUSH1 0x1F ADD PUSH1 0x20 DUP1 SWAP2 DIV MUL PUSH1 0x20 ADD PUSH1 0x40 MLOAD SWAP1 DUP2 ADD PUSH1 0x40 MSTORE DUP1 SWAP3 SWAP2 SWAP1 DUP2 DUP2 MSTORE PUSH1 0x20 ADD DUP3 DUP1 SLOAD PUSH2 0xC57 SWAP1 PUSH2 0x1EC4 JUMP JUMPDEST DUP1 ISZERO PUSH2 0xCA2 JUMPI DUP1 PUSH1 0x1F LT PUSH2 0xC79 JUMPI PUSH2 0x100 DUP1 DUP4 SLOAD DIV MUL DUP4 MSTORE SWAP2 PUSH1 0x20 ADD SWAP2 PUSH2 0xCA2 JUMP JUMPDEST DUP3 ADD SWAP2 SWAP1 PUSH0 MSTORE PUSH1 0x20 PUSH0 KECCAK256 SWAP1 JUMPDEST DUP2 SLOAD DUP2 MSTORE SWAP1 PUSH1 0x1 ADD SWAP1 PUSH1 0x20 ADD DUP1 DUP4 GT PUSH2 0xC85 JUMPI DUP3 SWAP1 SUB PUSH1 0x1F AND DUP3 ADD SWAP2 JUMPDEST POP POP POP POP POP DUP2 MSTORE PUSH1 0x20 ADD PUSH1 0x5 DUP3 ADD PUSH0 SWAP1 SLOAD SWAP1 PUSH2 0x100 EXP SWAP1 DIV PUSH1 0xFF AND ISZERO ISZERO ISZERO ISZERO DUP2 MSTORE PUSH1 0x20 ADD PUSH1 0x6 DUP3 ADD DUP1 SLOAD DUP1 PUSH1 0x20 MUL PUSH1 0x20 ADD PUSH1 0x40 MLOAD SWAP1 DUP2 ADD PUSH1 0x40 MSTORE DUP1 SWAP3 SWAP2 SWAP1 DUP2 DUP2 MSTORE PUSH1 0x20 ADD PUSH0 SWAP1 JUMPDEST DUP3 DUP3 LT ISZERO PUSH2 0xF27 JUMPI DUP4 DUP3 SWAP1 PUSH0 MSTORE PUSH1 0x20 PUSH0 KECCAK256 SWAP1 PUSH1 0x5 MUL ADD PUSH1 0x40 MLOAD DUP1 PUSH1 0xA0 ADD PUSH1 0x40 MSTORE SWAP1 DUP2 PUSH0 DUP3 ADD SLOAD DUP2 MSTORE PUSH1 0x20 ADD PUSH1 0x1 DUP3 ADD DUP1 SLOAD PUSH2 0xD23 SWAP1 PUSH2 0x1EC4 JUMP JUMPDEST DUP1 PUSH1 0x1F ADD PUSH1 0x20 DUP1 SWAP2 DIV MUL PUSH1 0x20 ADD PUSH1 0x40 MLOAD SWAP1 DUP2 ADD PUSH1 0x40 MSTORE DUP1 SWAP3 SWAP2 SWAP1 DUP2 DUP2 MSTORE PUSH1 0x20 ADD DUP3 DUP1 SLOAD PUSH2 0xD4F SWAP1 PUSH2 0x1EC4 JUMP JUMPDEST DUP1 ISZERO PUSH2 0xD9A JUMPI DUP1 PUSH1 0x1F LT PUSH2 0xD71 JUMPI PUSH2 0x100 DUP1 DUP4 SLOAD DIV MUL DUP4 MSTORE SWAP2 PUSH1 0x20 ADD SWAP2 PUSH2 0xD9A JUMP JUMPDEST DUP3 ADD SWAP2 SWAP1 PUSH0 MSTORE PUSH1 0x20 PUSH0 KECCAK256 SWAP1 JUMPDEST DUP2 SLOAD DUP2 MSTORE SWAP1 PUSH1 0x1 ADD SWAP1 PUSH1 0x20 ADD DUP1 DUP4 GT PUSH2 0xD7D JUMPI DUP3 SWAP1 SUB PUSH1 0x1F AND DUP3 ADD SWAP2 JUMPDEST POP POP POP POP POP DUP2 MSTORE PUSH1 0x20 ADD PUSH1 0x2 DUP3 ADD DUP1 SLOAD PUSH2 0xDB3 SWAP1 PUSH2 0x1EC4 JUMP JUMPDEST DUP1 PUSH1 0x1F ADD PUSH1 0x20 DUP1 SWAP2 DIV MUL PUSH1 0x20 ADD PUSH1 0x40 MLOAD SWAP1 DUP2 ADD PUSH1 0x40 MSTORE DUP1 SWAP3 SWAP2 SWAP1 DUP2 DUP2 MSTORE PUSH1 0x20 ADD DUP3 DUP1 SLOAD PUSH2 0xDDF SWAP1 PUSH2 0x1EC4 JUMP JUMPDEST DUP1 ISZERO PUSH2 0xE2A JUMPI DUP1 PUSH1 0x1F LT PUSH2 0xE01 JUMPI PUSH2 0x100 DUP1 DUP4 SLOAD DIV MUL DUP4 MSTORE SWAP2 PUSH1 0x20 ADD SWAP2 PUSH2 0xE2A JUMP JUMPDEST DUP3 ADD SWAP2 SWAP1 PUSH0 MSTORE PUSH1 0x20 PUSH0 KECCAK256 SWAP1 JUMPDEST DUP2 SLOAD DUP2 MSTORE SWAP1 PUSH1 0x1 ADD SWAP1 PUSH1 0x20 ADD DUP1 DUP4 GT PUSH2 0xE0D JUMPI DUP3 SWAP1 SUB PUSH1 0x1F AND DUP3 ADD SWAP2 JUMPDEST POP POP POP POP POP DUP2 MSTORE PUSH1 0x20 ADD PUSH1 0x3 DUP3 ADD PUSH0 SWAP1 SLOAD SWAP1 PUSH2 0x100 EXP SWAP1 DIV PUSH20 0xFFFFFFFFFFFFFFFFFFFFFFFFFFFFFFFFFFFFFFFF AND PUSH20 0xFFFFFFFFFFFFFFFFFFFFFFFFFFFFFFFFFFFFFFFF AND PUSH20 0xFFFFFFFFFFFFFFFFFFFFFFFFFFFFFFFFFFFFFFFF AND DUP2 MSTORE PUSH1 0x20 ADD PUSH1 0x4 DUP3 ADD DUP1 SLOAD PUSH2 0xE98 SWAP1 PUSH2 0x1EC4 JUMP JUMPDEST DUP1 PUSH1 0x1F ADD PUSH1 0x20 DUP1 SWAP2 DIV MUL PUSH1 0x20 ADD PUSH1 0x40 MLOAD SWAP1 DUP2 ADD PUSH1 0x40 MSTORE DUP1 SWAP3 SWAP2 SWAP1 DUP2 DUP2 MSTORE PUSH1 0x20 ADD DUP3 DUP1 SLOAD PUSH2 0xEC4 SWAP1 PUSH2 0x1EC4 JUMP JUMPDEST DUP1 ISZERO PUSH2 0xF0F JUMPI DUP1 PUSH1 0x1F LT PUSH2 0xEE6 JUMPI PUSH2 0x100 DUP1 DUP4 SLOAD DIV MUL DUP4 MSTORE SWAP2 PUSH1 0x20 ADD SWAP2 PUSH2 0xF0F JUMP JUMPDEST DUP3 ADD SWAP2 SWAP1 PUSH0 MSTORE PUSH1 0x20 PUSH0 KECCAK256 SWAP1 JUMPDEST DUP2 SLOAD DUP2 MSTORE SWAP1 PUSH1 0x1 ADD SWAP1 PUSH1 0x20 ADD DUP1 DUP4 GT PUSH2 0xEF2 JUMPI DUP3 SWAP1 SUB PUSH1 0x1F AND DUP3 ADD SWAP2 JUMPDEST POP POP POP POP POP DUP2 MSTORE POP POP DUP2 MSTORE PUSH1 0x20 ADD SWAP1 PUSH1 0x1 ADD SWAP1 PUSH2 0xCE9 JUMP JUMPDEST POP POP POP POP DUP2 MSTORE POP POP SWAP1 POP SWAP2 SWAP1 POP JUMP JUMPDEST PUSH2 0x1F4 DUP2 JUMP JUMPDEST PUSH1 0x1 DUP5 PUSH1 0x40 MLOAD PUSH2 0xF4C SWAP2 SWAP1 PUSH2 0x1DB1 JUMP JUMPDEST SWAP1 DUP2 MSTORE PUSH1 0x20 ADD PUSH1 0x40 MLOAD DUP1 SWAP2 SUB SWAP1 KECCAK256 PUSH1 0x5 ADD PUSH0 SWAP1 SLOAD SWAP1 PUSH2 0x100 EXP SWAP1 DIV PUSH1 0xFF AND ISZERO PUSH2 0xFAA JUMPI PUSH1 0x40 MLOAD PUSH32 0x8C379A000000000000000000000000000000000000000000000000000000000 DUP2 MSTORE PUSH1 0x4 ADD PUSH2 0xFA1 SWAP1 PUSH2 0x22EB JUMP JUMPDEST PUSH1 0x40 MLOAD DUP1 SWAP2 SUB SWAP1 REVERT JUMPDEST PUSH2 0x1F4 CALLVALUE LT ISZERO PUSH2 0xFEF JUMPI PUSH1 0x40 MLOAD PUSH32 0x8C379A000000000000000000000000000000000000000000000000000000000 DUP2 MSTORE PUSH1 0x4 ADD PUSH2 0xFE6 SWAP1 PUSH2 0x2379 JUMP JUMPDEST PUSH1 0x40 MLOAD DUP1 SWAP2 SUB SWAP1 REVERT JUMPDEST PUSH0 PUSH1 0x1 DUP6 PUSH1 0x40 MLOAD PUSH2 0x1000 SWAP2 SWAP1 PUSH2 0x1DB1 JUMP JUMPDEST SWAP1 DUP2 MSTORE PUSH1 0x20 ADD PUSH1 0x40 MLOAD DUP1 SWAP2 SUB SWAP1 KECCAK256 SWAP1 POP PUSH1 0x1 DUP2 PUSH1 0x5 ADD PUSH0 PUSH2 0x100 EXP DUP2 SLOAD DUP2 PUSH1 0xFF MUL NOT AND SWAP1 DUP4 ISZERO ISZERO MUL OR SWAP1 SSTORE POP DUP4 DUP2 PUSH1 0x2 ADD DUP2 SWAP1 SSTORE POP DUP3 DUP2 PUSH1 0x3 ADD SWAP1 DUP2 PUSH2 0x1046 SWAP2 SWAP1 PUSH2 0x20A5 JUMP JUMPDEST POP TIMESTAMP DUP2 PUSH1 0x1 ADD DUP2 SWAP1 SSTORE POP DUP2 DUP2 PUSH1 0x4 ADD SWAP1 DUP2 PUSH2 0x1061 SWAP2 SWAP1 PUSH2 0x20A5 JUMP JUMPDEST POP CALLER PUSH0 PUSH0 PUSH2 0x100 EXP DUP2 SLOAD DUP2 PUSH20 0xFFFFFFFFFFFFFFFFFFFFFFFFFFFFFFFFFFFFFFFF MUL NOT AND SWAP1 DUP4 PUSH20 0xFFFFFFFFFFFFFFFFFFFFFFFFFFFFFFFFFFFFFFFF AND MUL OR SWAP1 SSTORE POP DUP1 PUSH1 0x6 ADD PUSH1 0x40 MLOAD DUP1 PUSH1 0xA0 ADD PUSH1 0x40 MSTORE DUP1 TIMESTAMP DUP2 MSTORE PUSH1 0x20 ADD DUP5 DUP2 MSTORE PUSH1 0x20 ADD DUP5 DUP2 MSTORE PUSH1 0x20 ADD CALLER PUSH20 0xFFFFFFFFFFFFFFFFFFFFFFFFFFFFFFFFFFFFFFFF AND DUP2 MSTORE PUSH1 0x20 ADD PUSH1 0x40 MLOAD DUP1 PUSH1 0x40 ADD PUSH1 0x40 MSTORE DUP1 PUSH1 0x10 DUP2 MSTORE PUSH1 0x20 ADD PUSH32 0x4372656163696F6E20696E696369616C00000000000000000000000000000000 DUP2 MSTORE POP DUP2 MSTORE POP SWAP1 DUP1 PUSH1 0x1 DUP2 SLOAD ADD DUP1 DUP3 SSTORE DUP1 SWAP2 POP POP PUSH1 0x1 SWAP1 SUB SWAP1 PUSH0 MSTORE PUSH1 0x20 PUSH0 KECCAK256 SWAP1 PUSH1 0x5 MUL ADD PUSH0 SWAP1 SWAP2 SWAP1 SWAP2 SWAP1 SWAP2 POP PUSH0 DUP3 ADD MLOAD DUP2 PUSH0 ADD SSTORE PUSH1 0x20 DUP3 ADD MLOAD DUP2 PUSH1 0x1 ADD SWAP1 DUP2 PUSH2 0x115A SWAP2 SWAP1 PUSH2 0x20A5 JUMP JUMPDEST POP PUSH1 0x40 DUP3 ADD MLOAD DUP2 PUSH1 0x2 ADD SWAP1 DUP2 PUSH2 0x1170 SWAP2 SWAP1 PUSH2 0x20A5 JUMP JUMPDEST POP PUSH1 0x60 DUP3 ADD MLOAD DUP2 PUSH1 0x3 ADD PUSH0 PUSH2 0x100 EXP DUP2 SLOAD DUP2 PUSH20 0xFFFFFFFFFFFFFFFFFFFFFFFFFFFFFFFFFFFFFFFF MUL NOT AND SWAP1 DUP4 PUSH20 0xFFFFFFFFFFFFFFFFFFFFFFFFFFFFFFFFFFFFFFFF AND MUL OR SWAP1 SSTORE POP PUSH1 0x80 DUP3 ADD MLOAD DUP2 PUSH1 0x4 ADD SWAP1 DUP2 PUSH2 0x11CC SWAP2 SWAP1 PUSH2 0x20A5 JUMP JUMPDEST POP POP POP PUSH1 0x2 DUP6 SWAP1 DUP1 PUSH1 0x1 DUP2 SLOAD ADD DUP1 DUP3 SSTORE DUP1 SWAP2 POP POP PUSH1 0x1 SWAP1 SUB SWAP1 PUSH0 MSTORE PUSH1 0x20 PUSH0 KECCAK256 ADD PUSH0 SWAP1 SWAP2 SWAP1 SWAP2 SWAP1 SWAP2 POP SWAP1 DUP2 PUSH2 0x1200 SWAP2 SWAP1 PUSH2 0x20A5 JUMP JUMPDEST POP DUP5 PUSH1 0x40 MLOAD PUSH2 0x120F SWAP2 SWAP1 PUSH2 0x1DB1 JUMP JUMPDEST PUSH1 0x40 MLOAD DUP1 SWAP2 SUB SWAP1 KECCAK256 PUSH32 0x486DD5DD869111CE8C86B91647E06E12D7006250DD505081891CD9A9EFF9EB9D DUP3 PUSH1 0x1 ADD SLOAD DUP4 PUSH1 0x2 ADD SLOAD DUP5 PUSH1 0x3 ADD DUP6 PUSH1 0x4 ADD PUSH1 0x40 MLOAD PUSH2 0x125A SWAP5 SWAP4 SWAP3 SWAP2 SWAP1 PUSH2 0x2418 JUMP JUMPDEST PUSH1 0x40 MLOAD DUP1 SWAP2 SUB SWAP1 LOG2 POP POP POP POP POP JUMP JUMPDEST PUSH1 0x60 PUSH0 PUSH0 PUSH1 0x60 DUP1 PUSH0 PUSH0 PUSH2 0x127B DUP9 PUSH2 0xA4A JUMP JUMPDEST SWAP1 POP PUSH0 PUSH1 0x3 DUP10 PUSH1 0x40 MLOAD PUSH2 0x128E SWAP2 SWAP1 PUSH2 0x1DB1 JUMP JUMPDEST SWAP1 DUP2 MSTORE PUSH1 0x20 ADD PUSH1 0x40 MLOAD DUP1 SWAP2 SUB SWAP1 KECCAK256 SWAP1 POP DUP2 PUSH0 ADD MLOAD DUP3 PUSH1 0x20 ADD MLOAD DUP4 PUSH1 0x40 ADD MLOAD DUP5 PUSH1 0x60 ADD MLOAD DUP6 PUSH1 0x80 ADD MLOAD DUP6 PUSH0 ADD SLOAD SWAP8 POP SWAP8 POP SWAP8 POP SWAP8 POP SWAP8 POP SWAP8 POP POP POP SWAP2 SWAP4 SWAP6 POP SWAP2 SWAP4 SWAP6 JUMP JUMPDEST PUSH1 0x40 MLOAD DUP1 PUSH1 0x40 ADD PUSH1 0x40 MSTORE DUP1 PUSH1 0x7 DUP2 MSTORE PUSH1 0x20 ADD PUSH32 0x566967656E746500000000000000000000000000000000000000000000000000 DUP2 MSTORE POP DUP1 MLOAD SWAP1 PUSH1 0x20 ADD KECCAK256 DUP2 DUP1 MLOAD SWAP1 PUSH1 0x20 ADD KECCAK256 EQ DUP1 PUSH2 0x1364 JUMPI POP PUSH1 0x40 MLOAD DUP1 PUSH1 0x40 ADD PUSH1 0x40 MSTORE DUP1 PUSH1 0xA DUP2 MSTORE PUSH1 0x20 ADD PUSH32 0x4D6F646966696361646100000000000000000000000000000000000000000000 DUP2 MSTORE POP DUP1 MLOAD SWAP1 PUSH1 0x20 ADD KECCAK256 DUP2 DUP1 MLOAD SWAP1 PUSH1 0x20 ADD KECCAK256 EQ JUMPDEST DUP1 PUSH2 0x13B1 JUMPI POP PUSH1 0x40 MLOAD DUP1 PUSH1 0x40 ADD PUSH1 0x40 MSTORE DUP1 PUSH1 0x8 DUP2 MSTORE PUSH1 0x20 ADD PUSH32 0x4465726F67616461000000000000000000000000000000000000000000000000 DUP2 MSTORE POP DUP1 MLOAD SWAP1 PUSH1 0x20 ADD KECCAK256 DUP2 DUP1 MLOAD SWAP1 PUSH1 0x20 ADD KECCAK256 EQ JUMPDEST PUSH2 0x13F0 JUMPI PUSH1 0x40 MLOAD PUSH32 0x8C379A000000000000000000000000000000000000000000000000000000000 DUP2 MSTORE PUSH1 0x4 ADD PUSH2 0x13E7 SWAP1 PUSH2 0x2239 JUMP JUMPDEST PUSH1 0x40 MLOAD DUP1 SWAP2 SUB SWAP1 REVERT JUMPDEST PUSH2 0x13FC DUP6 DUP6 DUP5 DUP5 PUSH2 0xF3C JUMP JUMPDEST PUSH32 0xDAEACBA2DDEA3FEF2BE4EBD25262AFB1A2C95F58AA20860367803187A5804508 DUP6 DUP5 DUP4 PUSH1 0x40 MLOAD PUSH2 0x142F SWAP4 SWAP3 SWAP2 SWAP1 PUSH2 0x2469 JUMP JUMPDEST PUSH1 0x40 MLOAD DUP1 SWAP2 SUB SWAP1 LOG1 POP POP POP POP POP JUMP JUMPDEST PUSH1 0x40 MLOAD DUP1 PUSH1 0x40 ADD PUSH1 0x40 MSTORE DUP1 PUSH1 0x8 DUP2 MSTORE PUSH1 0x20 ADD PUSH32 0x4465726F67616461000000000000000000000000000000000000000000000000 DUP2 MSTORE POP DUP1 MLOAD SWAP1 PUSH1 0x20 ADD KECCAK256 DUP2 DUP1 MLOAD SWAP1 PUSH1 0x20 ADD KECCAK256 EQ PUSH2 0x14C3 JUMPI PUSH1 0x40 MLOAD PUSH32 0x8C379A000000000000000000000000000000000000000000000000000000000 DUP2 MSTORE PUSH1 0x4 ADD PUSH2 0x14BA SWAP1 PUSH2 0x2239 JUMP JUMPDEST PUSH1 0x40 MLOAD DUP1 SWAP2 SUB SWAP1 REVERT JUMPDEST PUSH2 0x14CD DUP3 DUP3 PUSH2 0x265 JUMP JUMPDEST POP POP JUMP JUMPDEST PUSH1 0x40 MLOAD DUP1 PUSH1 0xE0 ADD PUSH1 0x40 MSTORE DUP1 PUSH1 0x60 DUP2 MSTORE PUSH1 0x20 ADD PUSH0 DUP2 MSTORE PUSH1 0x20 ADD PUSH0 DUP2 MSTORE PUSH1 0x20 ADD PUSH1 0x60 DUP2 MSTORE PUSH1 0x20 ADD PUSH1 0x60 DUP2 MSTORE PUSH1 0x20 ADD PUSH0 ISZERO ISZERO DUP2 MSTORE PUSH1 0x20 ADD PUSH1 0x60 DUP2 MSTORE POP SWAP1 JUMP JUMPDEST PUSH0 PUSH1 0x40 MLOAD SWAP1 POP SWAP1 JUMP JUMPDEST PUSH0 PUSH0 REVERT JUMPDEST PUSH0 PUSH0 REVERT JUMPDEST PUSH0 PUSH0 REVERT JUMPDEST PUSH0 PUSH0 REVERT JUMPDEST PUSH0 PUSH1 0x1F NOT PUSH1 0x1F DUP4 ADD AND SWAP1 POP SWAP2 SWAP1 POP JUMP JUMPDEST PUSH32 0x4E487B7100000000000000000000000000000000000000000000000000000000 PUSH0 MSTORE PUSH1 0x41 PUSH1 0x4 MSTORE PUSH1 0x24 PUSH0 REVERT JUMPDEST PUSH2 0x156C DUP3 PUSH2 0x1526 JUMP JUMPDEST DUP2 ADD DUP2 DUP2 LT PUSH8 0xFFFFFFFFFFFFFFFF DUP3 GT OR ISZERO PUSH2 0x158B JUMPI PUSH2 0x158A PUSH2 0x1536 JUMP JUMPDEST JUMPDEST DUP1 PUSH1 0x40 MSTORE POP POP POP JUMP JUMPDEST PUSH0 PUSH2 0x159D PUSH2 0x150D JUMP JUMPDEST SWAP1 POP PUSH2 0x15A9 DUP3 DUP3 PUSH2 0x1563 JUMP JUMPDEST SWAP2 SWAP1 POP JUMP JUMPDEST PUSH0 PUSH8 0xFFFFFFFFFFFFFFFF DUP3 GT ISZERO PUSH2 0x15C8 JUMPI PUSH2 0x15C7 PUSH2 0x1536 JUMP JUMPDEST JUMPDEST PUSH2 0x15D1 DUP3 PUSH2 0x1526 JUMP JUMPDEST SWAP1 POP PUSH1 0x20 DUP2 ADD SWAP1 POP SWAP2 SWAP1 POP JUMP JUMPDEST DUP3 DUP2 DUP4 CALLDATACOPY PUSH0 DUP4 DUP4 ADD MSTORE POP POP POP JUMP JUMPDEST PUSH0 PUSH2 0x15FE PUSH2 0x15F9 DUP5 PUSH2 0x15AE JUMP JUMPDEST PUSH2 0x1594 JUMP JUMPDEST SWAP1 POP DUP3 DUP2 MSTORE PUSH1 0x20 DUP2 ADD DUP5 DUP5 DUP5 ADD GT ISZERO PUSH2 0x161A JUMPI PUSH2 0x1619 PUSH2 0x1522 JUMP JUMPDEST JUMPDEST PUSH2 0x1625 DUP5 DUP3 DUP6 PUSH2 0x15DE JUMP JUMPDEST POP SWAP4 SWAP3 POP POP POP JUMP JUMPDEST PUSH0 DUP3 PUSH1 0x1F DUP4 ADD SLT PUSH2 0x1641 JUMPI PUSH2 0x1640 PUSH2 0x151E JUMP JUMPDEST JUMPDEST DUP2 CALLDATALOAD PUSH2 0x1651 DUP5 DUP3 PUSH1 0x20 DUP7 ADD PUSH2 0x15EC JUMP JUMPDEST SWAP2 POP POP SWAP3 SWAP2 POP POP JUMP JUMPDEST PUSH0 PUSH0 PUSH1 0x40 DUP4 DUP6 SUB SLT ISZERO PUSH2 0x1670 JUMPI PUSH2 0x166F PUSH2 0x1516 JUMP JUMPDEST JUMPDEST PUSH0 DUP4 ADD CALLDATALOAD PUSH8 0xFFFFFFFFFFFFFFFF DUP2 GT ISZERO PUSH2 0x168D JUMPI PUSH2 0x168C PUSH2 0x151A JUMP JUMPDEST JUMPDEST PUSH2 0x1699 DUP6 DUP3 DUP7 ADD PUSH2 0x162D JUMP JUMPDEST SWAP3 POP POP PUSH1 0x20 DUP4 ADD CALLDATALOAD PUSH8 0xFFFFFFFFFFFFFFFF DUP2 GT ISZERO PUSH2 0x16BA JUMPI PUSH2 0x16B9 PUSH2 0x151A JUMP JUMPDEST JUMPDEST PUSH2 0x16C6 DUP6 DUP3 DUP7 ADD PUSH2 0x162D JUMP JUMPDEST SWAP2 POP POP SWAP3 POP SWAP3 SWAP1 POP JUMP JUMPDEST PUSH0 PUSH20 0xFFFFFFFFFFFFFFFFFFFFFFFFFFFFFFFFFFFFFFFF DUP3 AND SWAP1 POP SWAP2 SWAP1 POP JUMP JUMPDEST PUSH0 PUSH2 0x16F9 DUP3 PUSH2 0x16D0 JUMP JUMPDEST SWAP1 POP SWAP2 SWAP1 POP JUMP JUMPDEST PUSH2 0x1709 DUP2 PUSH2 0x16EF JUMP JUMPDEST DUP3 MSTORE POP POP JUMP JUMPDEST PUSH0 PUSH1 0x20 DUP3 ADD SWAP1 POP PUSH2 0x1722 PUSH0 DUP4 ADD DUP5 PUSH2 0x1700 JUMP JUMPDEST SWAP3 SWAP2 POP POP JUMP JUMPDEST PUSH0 PUSH0 PUSH0 PUSH1 0x60 DUP5 DUP7 SUB SLT ISZERO PUSH2 0x173F JUMPI PUSH2 0x173E PUSH2 0x1516 JUMP JUMPDEST JUMPDEST PUSH0 DUP5 ADD CALLDATALOAD PUSH8 0xFFFFFFFFFFFFFFFF DUP2 GT ISZERO PUSH2 0x175C JUMPI PUSH2 0x175B PUSH2 0x151A JUMP JUMPDEST JUMPDEST PUSH2 0x1768 DUP7 DUP3 DUP8 ADD PUSH2 0x162D JUMP JUMPDEST SWAP4 POP POP PUSH1 0x20 DUP5 ADD CALLDATALOAD PUSH8 0xFFFFFFFFFFFFFFFF DUP2 GT ISZERO PUSH2 0x1789 JUMPI PUSH2 0x1788 PUSH2 0x151A JUMP JUMPDEST JUMPDEST PUSH2 0x1795 DUP7 DUP3 DUP8 ADD PUSH2 0x162D JUMP JUMPDEST SWAP3 POP POP PUSH1 0x40 DUP5 ADD CALLDATALOAD PUSH8 0xFFFFFFFFFFFFFFFF DUP2 GT ISZERO PUSH2 0x17B6 JUMPI PUSH2 0x17B5 PUSH2 0x151A JUMP JUMPDEST JUMPDEST PUSH2 0x17C2 DUP7 DUP3 DUP8 ADD PUSH2 0x162D JUMP JUMPDEST SWAP2 POP POP SWAP3 POP SWAP3 POP SWAP3 JUMP JUMPDEST PUSH0 DUP2 ISZERO ISZERO SWAP1 POP SWAP2 SWAP1 POP JUMP JUMPDEST PUSH2 0x17E0 DUP2 PUSH2 0x17CC JUMP JUMPDEST DUP3 MSTORE POP POP JUMP JUMPDEST PUSH0 PUSH1 0x20 DUP3 ADD SWAP1 POP PUSH2 0x17F9 PUSH0 DUP4 ADD DUP5 PUSH2 0x17D7 JUMP JUMPDEST SWAP3 SWAP2 POP POP JUMP JUMPDEST PUSH0 PUSH1 0x20 DUP3 DUP5 SUB SLT ISZERO PUSH2 0x1814 JUMPI PUSH2 0x1813 PUSH2 0x1516 JUMP JUMPDEST JUMPDEST PUSH0 DUP3 ADD CALLDATALOAD PUSH8 0xFFFFFFFFFFFFFFFF DUP2 GT ISZERO PUSH2 0x1831 JUMPI PUSH2 0x1830 PUSH2 0x151A JUMP JUMPDEST JUMPDEST PUSH2 0x183D DUP5 DUP3 DUP6 ADD PUSH2 0x162D JUMP JUMPDEST SWAP2 POP POP SWAP3 SWAP2 POP POP JUMP JUMPDEST PUSH0 DUP2 MLOAD SWAP1 POP SWAP2 SWAP1 POP JUMP JUMPDEST PUSH0 DUP3 DUP3 MSTORE PUSH1 0x20 DUP3 ADD SWAP1 POP SWAP3 SWAP2 POP POP JUMP JUMPDEST DUP3 DUP2 DUP4 MCOPY PUSH0 DUP4 DUP4 ADD MSTORE POP POP POP JUMP JUMPDEST PUSH0 PUSH2 0x1878 DUP3 PUSH2 0x1846 JUMP JUMPDEST PUSH2 0x1882 DUP2 DUP6 PUSH2 0x1850 JUMP JUMPDEST SWAP4 POP PUSH2 0x1892 DUP2 DUP6 PUSH1 0x20 DUP7 ADD PUSH2 0x1860 JUMP JUMPDEST PUSH2 0x189B DUP2 PUSH2 0x1526 JUMP JUMPDEST DUP5 ADD SWAP2 POP POP SWAP3 SWAP2 POP POP JUMP JUMPDEST PUSH0 DUP2 SWAP1 POP SWAP2 SWAP1 POP JUMP JUMPDEST PUSH2 0x18B8 DUP2 PUSH2 0x18A6 JUMP JUMPDEST DUP3 MSTORE POP POP JUMP JUMPDEST PUSH2 0x18C7 DUP2 PUSH2 0x17CC JUMP JUMPDEST DUP3 MSTORE POP POP JUMP JUMPDEST PUSH0 DUP2 MLOAD SWAP1 POP SWAP2 SWAP1 POP JUMP JUMPDEST PUSH0 DUP3 DUP3 MSTORE PUSH1 0x20 DUP3 ADD SWAP1 POP SWAP3 SWAP2 POP POP JUMP JUMPDEST PUSH0 DUP2 SWAP1 POP PUSH1 0x20 DUP3 ADD SWAP1 POP SWAP2 SWAP1 POP JUMP JUMPDEST PUSH2 0x18FF DUP2 PUSH2 0x16EF JUMP JUMPDEST DUP3 MSTORE POP POP JUMP JUMPDEST PUSH0 PUSH1 0xA0 DUP4 ADD PUSH0 DUP4 ADD MLOAD PUSH2 0x191A PUSH0 DUP7 ADD DUP3 PUSH2 0x18AF JUMP JUMPDEST POP PUSH1 0x20 DUP4 ADD MLOAD DUP5 DUP3 SUB PUSH1 0x20 DUP7 ADD MSTORE PUSH2 0x1932 DUP3 DUP3 PUSH2 0x186E JUMP JUMPDEST SWAP2 POP POP PUSH1 0x40 DUP4 ADD MLOAD DUP5 DUP3 SUB PUSH1 0x40 DUP7 ADD MSTORE PUSH2 0x194C DUP3 DUP3 PUSH2 0x186E JUMP JUMPDEST SWAP2 POP POP PUSH1 0x60 DUP4 ADD MLOAD PUSH2 0x1961 PUSH1 0x60 DUP7 ADD DUP3 PUSH2 0x18F6 JUMP JUMPDEST POP PUSH1 0x80 DUP4 ADD MLOAD DUP5 DUP3 SUB PUSH1 0x80 DUP7 ADD MSTORE PUSH2 0x1979 DUP3 DUP3 PUSH2 0x186E JUMP JUMPDEST SWAP2 POP POP DUP1 SWAP2 POP POP SWAP3 SWAP2 POP POP JUMP JUMPDEST PUSH0 PUSH2 0x1991 DUP4 DUP4 PUSH2 0x1905 JUMP JUMPDEST SWAP1 POP SWAP3 SWAP2 POP POP JUMP JUMPDEST PUSH0 PUSH1 0x20 DUP3 ADD SWAP1 POP SWAP2 SWAP1 POP JUMP JUMPDEST PUSH0 PUSH2 0x19AF DUP3 PUSH2 0x18CD JUMP JUMPDEST PUSH2 0x19B9 DUP2 DUP6 PUSH2 0x18D7 JUMP JUMPDEST SWAP4 POP DUP4 PUSH1 0x20 DUP3 MUL DUP6 ADD PUSH2 0x19CB DUP6 PUSH2 0x18E7 JUMP JUMPDEST DUP1 PUSH0 JUMPDEST DUP6 DUP2 LT ISZERO PUSH2 0x1A06 JUMPI DUP5 DUP5 SUB DUP10 MSTORE DUP2 MLOAD PUSH2 0x19E7 DUP6 DUP3 PUSH2 0x1986 JUMP JUMPDEST SWAP5 POP PUSH2 0x19F2 DUP4 PUSH2 0x1999 JUMP JUMPDEST SWAP3 POP PUSH1 0x20 DUP11 ADD SWAP10 POP POP PUSH1 0x1 DUP2 ADD SWAP1 POP PUSH2 0x19CE JUMP JUMPDEST POP DUP3 SWAP8 POP DUP8 SWAP6 POP POP POP POP POP POP SWAP3 SWAP2 POP POP JUMP JUMPDEST PUSH0 PUSH1 0xE0 DUP4 ADD PUSH0 DUP4 ADD MLOAD DUP5 DUP3 SUB PUSH0 DUP7 ADD MSTORE PUSH2 0x1A32 DUP3 DUP3 PUSH2 0x186E JUMP JUMPDEST SWAP2 POP POP PUSH1 0x20 DUP4 ADD MLOAD PUSH2 0x1A47 PUSH1 0x20 DUP7 ADD DUP3 PUSH2 0x18AF JUMP JUMPDEST POP PUSH1 0x40 DUP4 ADD MLOAD PUSH2 0x1A5A PUSH1 0x40 DUP7 ADD DUP3 PUSH2 0x18AF JUMP JUMPDEST POP PUSH1 0x60 DUP4 ADD MLOAD DUP5 DUP3 SUB PUSH1 0x60 DUP7 ADD MSTORE PUSH2 0x1A72 DUP3 DUP3 PUSH2 0x186E JUMP JUMPDEST SWAP2 POP POP PUSH1 0x80 DUP4 ADD MLOAD DUP5 DUP3 SUB PUSH1 0x80 DUP7 ADD MSTORE PUSH2 0x1A8C DUP3 DUP3 PUSH2 0x186E JUMP JUMPDEST SWAP2 POP POP PUSH1 0xA0 DUP4 ADD MLOAD PUSH2 0x1AA1 PUSH1 0xA0 DUP7 ADD DUP3 PUSH2 0x18BE JUMP JUMPDEST POP PUSH1 0xC0 DUP4 ADD MLOAD DUP5 DUP3 SUB PUSH1 0xC0 DUP7 ADD MSTORE PUSH2 0x1AB9 DUP3 DUP3 PUSH2 0x19A5 JUMP JUMPDEST SWAP2 POP POP DUP1 SWAP2 POP POP SWAP3 SWAP2 POP POP JUMP JUMPDEST PUSH0 PUSH1 0x20 DUP3 ADD SWAP1 POP DUP2 DUP2 SUB PUSH0 DUP4 ADD MSTORE PUSH2 0x1ADE DUP2 DUP5 PUSH2 0x1A18 JUMP JUMPDEST SWAP1 POP SWAP3 SWAP2 POP POP JUMP JUMPDEST PUSH2 0x1AEF DUP2 PUSH2 0x18A6 JUMP JUMPDEST DUP3 MSTORE POP POP JUMP JUMPDEST PUSH0 PUSH1 0x20 DUP3 ADD SWAP1 POP PUSH2 0x1B08 PUSH0 DUP4 ADD DUP5 PUSH2 0x1AE6 JUMP JUMPDEST SWAP3 SWAP2 POP POP JUMP JUMPDEST PUSH2 0x1B17 DUP2 PUSH2 0x18A6 JUMP JUMPDEST DUP2 EQ PUSH2 0x1B21 JUMPI PUSH0 PUSH0 REVERT JUMPDEST POP JUMP JUMPDEST PUSH0 DUP2 CALLDATALOAD SWAP1 POP PUSH2 0x1B32 DUP2 PUSH2 0x1B0E JUMP JUMPDEST SWAP3 SWAP2 POP POP JUMP JUMPDEST PUSH0 PUSH0 PUSH0 PUSH0 PUSH1 0x80 DUP6 DUP8 SUB SLT ISZERO PUSH2 0x1B50 JUMPI PUSH2 0x1B4F PUSH2 0x1516 JUMP JUMPDEST JUMPDEST PUSH0 DUP6 ADD CALLDATALOAD PUSH8 0xFFFFFFFFFFFFFFFF DUP2 GT ISZERO PUSH2 0x1B6D JUMPI PUSH2 0x1B6C PUSH2 0x151A JUMP JUMPDEST JUMPDEST PUSH2 0x1B79 DUP8 DUP3 DUP9 ADD PUSH2 0x162D JUMP JUMPDEST SWAP5 POP POP PUSH1 0x20 PUSH2 0x1B8A DUP8 DUP3 DUP9 ADD PUSH2 0x1B24 JUMP JUMPDEST SWAP4 POP POP PUSH1 0x40 DUP6 ADD CALLDATALOAD PUSH8 0xFFFFFFFFFFFFFFFF DUP2 GT ISZERO PUSH2 0x1BAB JUMPI PUSH2 0x1BAA PUSH2 0x151A JUMP JUMPDEST JUMPDEST PUSH2 0x1BB7 DUP8 DUP3 DUP9 ADD PUSH2 0x162D JUMP JUMPDEST SWAP3 POP POP PUSH1 0x60 DUP6 ADD CALLDATALOAD PUSH8 0xFFFFFFFFFFFFFFFF DUP2 GT ISZERO PUSH2 0x1BD8 JUMPI PUSH2 0x1BD7 PUSH2 0x151A JUMP JUMPDEST JUMPDEST PUSH2 0x1BE4 DUP8 DUP3 DUP9 ADD PUSH2 0x162D JUMP JUMPDEST SWAP2 POP POP SWAP3 SWAP6 SWAP2 SWAP5 POP SWAP3 POP JUMP JUMPDEST PUSH0 DUP3 DUP3 MSTORE PUSH1 0x20 DUP3 ADD SWAP1 POP SWAP3 SWAP2 POP POP JUMP JUMPDEST PUSH0 PUSH2 0x1C0A DUP3 PUSH2 0x1846 JUMP JUMPDEST PUSH2 0x1C14 DUP2 DUP6 PUSH2 0x1BF0 JUMP JUMPDEST SWAP4 POP PUSH2 0x1C24 DUP2 DUP6 PUSH1 0x20 DUP7 ADD PUSH2 0x1860 JUMP JUMPDEST PUSH2 0x1C2D DUP2 PUSH2 0x1526 JUMP JUMPDEST DUP5 ADD SWAP2 POP POP SWAP3 SWAP2 POP POP JUMP JUMPDEST PUSH0 PUSH1 0xC0 DUP3 ADD SWAP1 POP DUP2 DUP2 SUB PUSH0 DUP4 ADD MSTORE PUSH2 0x1C50 DUP2 DUP10 PUSH2 0x1C00 JUMP JUMPDEST SWAP1 POP PUSH2 0x1C5F PUSH1 0x20 DUP4 ADD DUP9 PUSH2 0x1AE6 JUMP JUMPDEST PUSH2 0x1C6C PUSH1 0x40 DUP4 ADD DUP8 PUSH2 0x1AE6 JUMP JUMPDEST DUP2 DUP2 SUB PUSH1 0x60 DUP4 ADD MSTORE PUSH2 0x1C7E DUP2 DUP7 PUSH2 0x1C00 JUMP JUMPDEST SWAP1 POP DUP2 DUP2 SUB PUSH1 0x80 DUP4 ADD MSTORE PUSH2 0x1C92 DUP2 DUP6 PUSH2 0x1C00 JUMP JUMPDEST SWAP1 POP PUSH2 0x1CA1 PUSH1 0xA0 DUP4 ADD DUP5 PUSH2 0x1AE6 JUMP JUMPDEST SWAP8 SWAP7 POP POP POP POP POP POP POP JUMP JUMPDEST PUSH0 PUSH0 PUSH0 PUSH0 PUSH0 PUSH1 0xA0 DUP7 DUP9 SUB SLT ISZERO PUSH2 0x1CC5 JUMPI PUSH2 0x1CC4 PUSH2 0x1516 JUMP JUMPDEST JUMPDEST PUSH0 DUP7 ADD CALLDATALOAD PUSH8 0xFFFFFFFFFFFFFFFF DUP2 GT ISZERO PUSH2 0x1CE2 JUMPI PUSH2 0x1CE1 PUSH2 0x151A JUMP JUMPDEST JUMPDEST PUSH2 0x1CEE DUP9 DUP3 DUP10 ADD PUSH2 0x162D JUMP JUMPDEST SWAP6 POP POP PUSH1 0x20 PUSH2 0x1CFF DUP9 DUP3 DUP10 ADD PUSH2 0x1B24 JUMP JUMPDEST SWAP5 POP POP PUSH1 0x40 PUSH2 0x1D10 DUP9 DUP3 DUP10 ADD PUSH2 0x1B24 JUMP JUMPDEST SWAP4 POP POP PUSH1 0x60 DUP7 ADD CALLDATALOAD PUSH8 0xFFFFFFFFFFFFFFFF DUP2 GT ISZERO PUSH2 0x1D31 JUMPI PUSH2 0x1D30 PUSH2 0x151A JUMP JUMPDEST JUMPDEST PUSH2 0x1D3D DUP9 DUP3 DUP10 ADD PUSH2 0x162D JUMP JUMPDEST SWAP3 POP POP PUSH1 0x80 DUP7 ADD CALLDATALOAD PUSH8 0xFFFFFFFFFFFFFFFF DUP2 GT ISZERO PUSH2 0x1D5E JUMPI PUSH2 0x1D5D PUSH2 0x151A JUMP JUMPDEST JUMPDEST PUSH2 0x1D6A DUP9 DUP3 DUP10 ADD PUSH2 0x162D JUMP JUMPDEST SWAP2 POP POP SWAP3 SWAP6 POP SWAP3 SWAP6 SWAP1 SWAP4 POP JUMP JUMPDEST PUSH0 DUP2 SWAP1 POP SWAP3 SWAP2 POP POP JUMP JUMPDEST PUSH0 PUSH2 0x1D8B DUP3 PUSH2 0x1846 JUMP JUMPDEST PUSH2 0x1D95 DUP2 DUP6 PUSH2 0x1D77 JUMP JUMPDEST SWAP4 POP PUSH2 0x1DA5 DUP2 DUP6 PUSH1 0x20 DUP7 ADD PUSH2 0x1860 JUMP JUMPDEST DUP1 DUP5 ADD SWAP2 POP POP SWAP3 SWAP2 POP POP JUMP JUMPDEST PUSH0 PUSH2 0x1DBC DUP3 DUP5 PUSH2 0x1D81 JUMP JUMPDEST SWAP2 POP DUP2 SWAP1 POP SWAP3 SWAP2 POP POP JUMP JUMPDEST PUSH32 0x4C6120616374756163696F6E206E6F2065786973746500000000000000000000 PUSH0 DUP3 ADD MSTORE POP JUMP JUMPDEST PUSH0 PUSH2 0x1DFB PUSH1 0x16 DUP4 PUSH2 0x1BF0 JUMP JUMPDEST SWAP2 POP PUSH2 0x1E06 DUP3 PUSH2 0x1DC7 JUMP JUMPDEST PUSH1 0x20 DUP3 ADD SWAP1 POP SWAP2 SWAP1 POP JUMP JUMPDEST PUSH0 PUSH1 0x20 DUP3 ADD SWAP1 POP DUP2 DUP2 SUB PUSH0 DUP4 ADD MSTORE PUSH2 0x1E28 DUP2 PUSH2 0x1DEF JUMP JUMPDEST SWAP1 POP SWAP2 SWAP1 POP JUMP JUMPDEST PUSH32 0x4E6F20657320656C2070726F706965746172696F000000000000000000000000 PUSH0 DUP3 ADD MSTORE POP JUMP JUMPDEST PUSH0 PUSH2 0x1E63 PUSH1 0x14 DUP4 PUSH2 0x1BF0 JUMP JUMPDEST SWAP2 POP PUSH2 0x1E6E DUP3 PUSH2 0x1E2F JUMP JUMPDEST PUSH1 0x20 DUP3 ADD SWAP1 POP SWAP2 SWAP1 POP JUMP JUMPDEST PUSH0 PUSH1 0x20 DUP3 ADD SWAP1 POP DUP2 DUP2 SUB PUSH0 DUP4 ADD MSTORE PUSH2 0x1E90 DUP2 PUSH2 0x1E57 JUMP JUMPDEST SWAP1 POP SWAP2 SWAP1 POP JUMP JUMPDEST PUSH32 0x4E487B7100000000000000000000000000000000000000000000000000000000 PUSH0 MSTORE PUSH1 0x22 PUSH1 0x4 MSTORE PUSH1 0x24 PUSH0 REVERT JUMPDEST PUSH0 PUSH1 0x2 DUP3 DIV SWAP1 POP PUSH1 0x1 DUP3 AND DUP1 PUSH2 0x1EDB JUMPI PUSH1 0x7F DUP3 AND SWAP2 POP JUMPDEST PUSH1 0x20 DUP3 LT DUP2 SUB PUSH2 0x1EEE JUMPI PUSH2 0x1EED PUSH2 0x1E97 JUMP JUMPDEST JUMPDEST POP SWAP2 SWAP1 POP JUMP JUMPDEST PUSH0 DUP2 SWAP1 POP DUP2 PUSH0 MSTORE PUSH1 0x20 PUSH0 KECCAK256 SWAP1 POP SWAP2 SWAP1 POP JUMP JUMPDEST PUSH0 PUSH1 0x20 PUSH1 0x1F DUP4 ADD DIV SWAP1 POP SWAP2 SWAP1 POP JUMP JUMPDEST PUSH0 DUP3 DUP3 SHL SWAP1 POP SWAP3 SWAP2 POP POP JUMP JUMPDEST PUSH0 PUSH1 0x8 DUP4 MUL PUSH2 0x1F50 PUSH32 0xFFFFFFFFFFFFFFFFFFFFFFFFFFFFFFFFFFFFFFFFFFFFFFFFFFFFFFFFFFFFFFFF DUP3 PUSH2 0x1F15 JUMP JUMPDEST PUSH2 0x1F5A DUP7 DUP4 PUSH2 0x1F15 JUMP JUMPDEST SWAP6 POP DUP1 NOT DUP5 AND SWAP4 POP DUP1 DUP7 AND DUP5 OR SWAP3 POP POP POP SWAP4 SWAP3 POP POP POP JUMP JUMPDEST PUSH0 DUP2 SWAP1 POP SWAP2 SWAP1 POP JUMP JUMPDEST PUSH0 PUSH2 0x1F95 PUSH2 0x1F90 PUSH2 0x1F8B DUP5 PUSH2 0x18A6 JUMP JUMPDEST PUSH2 0x1F72 JUMP JUMPDEST PUSH2 0x18A6 JUMP JUMPDEST SWAP1 POP SWAP2 SWAP1 POP JUMP JUMPDEST PUSH0 DUP2 SWAP1 POP SWAP2 SWAP1 POP JUMP JUMPDEST PUSH2 0x1FAE DUP4 PUSH2 0x1F7B JUMP JUMPDEST PUSH2 0x1FC2 PUSH2 0x1FBA DUP3 PUSH2 0x1F9C JUMP JUMPDEST DUP5 DUP5 SLOAD PUSH2 0x1F21 JUMP JUMPDEST DUP3 SSTORE POP POP POP POP JUMP JUMPDEST PUSH0 PUSH0 SWAP1 POP SWAP1 JUMP JUMPDEST PUSH2 0x1FD9 PUSH2 0x1FCA JUMP JUMPDEST PUSH2 0x1FE4 DUP2 DUP5 DUP5 PUSH2 0x1FA5 JUMP JUMPDEST POP POP POP JUMP JUMPDEST PUSH0 JUMPDEST DUP3 DUP2 LT ISZERO PUSH2 0x200A JUMPI PUSH2 0x1FFF PUSH0 DUP3 DUP5 ADD PUSH2 0x1FD1 JUMP JUMPDEST PUSH1 0x1 DUP2 ADD SWAP1 POP PUSH2 0x1FEB JUMP JUMPDEST POP POP POP JUMP JUMPDEST PUSH1 0x1F DUP3 GT ISZERO PUSH2 0x205D JUMPI DUP3 DUP3 GT ISZERO PUSH2 0x205C JUMPI PUSH2 0x2029 DUP2 PUSH2 0x1EF4 JUMP JUMPDEST PUSH2 0x2032 DUP4 PUSH2 0x1F06 JUMP JUMPDEST PUSH2 0x203B DUP6 PUSH2 0x1F06 JUMP JUMPDEST PUSH1 0x20 DUP7 LT ISZERO PUSH2 0x2048 JUMPI PUSH0 SWAP1 POP JUMPDEST DUP1 DUP4 ADD PUSH2 0x2057 DUP3 DUP5 SUB DUP3 PUSH2 0x1FE9 JUMP JUMPDEST POP POP POP POP JUMPDEST JUMPDEST POP POP POP JUMP JUMPDEST PUSH0 DUP3 DUP3 SHR SWAP1 POP SWAP3 SWAP2 POP POP JUMP JUMPDEST PUSH0 PUSH2 0x207D PUSH0 NOT DUP5 PUSH1 0x8 MUL PUSH2 0x2062 JUMP JUMPDEST NOT DUP1 DUP4 AND SWAP2 POP POP SWAP3 SWAP2 POP POP JUMP JUMPDEST PUSH0 PUSH2 0x2095 DUP4 DUP4 PUSH2 0x206E JUMP JUMPDEST SWAP2 POP DUP3 PUSH1 0x2 MUL DUP3 OR SWAP1 POP SWAP3 SWAP2 POP POP JUMP JUMPDEST PUSH2 0x20AE DUP3 PUSH2 0x1846 JUMP JUMPDEST PUSH8 0xFFFFFFFFFFFFFFFF DUP2 GT ISZERO PUSH2 0x20C7 JUMPI PUSH2 0x20C6 PUSH2 0x1536 JUMP JUMPDEST JUMPDEST PUSH2 0x20D1 DUP3 SLOAD PUSH2 0x1EC4 JUMP JUMPDEST PUSH2 0x20DC DUP3 DUP3 DUP6 PUSH2 0x200F JUMP JUMPDEST PUSH0 PUSH1 0x20 SWAP1 POP PUSH1 0x1F DUP4 GT PUSH1 0x1 DUP2 EQ PUSH2 0x210D JUMPI PUSH0 DUP5 ISZERO PUSH2 0x20FB JUMPI DUP3 DUP8 ADD MLOAD SWAP1 POP JUMPDEST PUSH2 0x2105 DUP6 DUP3 PUSH2 0x208A JUMP JUMPDEST DUP7 SSTORE POP PUSH2 0x216C JUMP JUMPDEST PUSH1 0x1F NOT DUP5 AND PUSH2 0x211B DUP7 PUSH2 0x1EF4 JUMP JUMPDEST PUSH0 JUMPDEST DUP3 DUP2 LT ISZERO PUSH2 0x2142 JUMPI DUP5 DUP10 ADD MLOAD DUP3 SSTORE PUSH1 0x1 DUP3 ADD SWAP2 POP PUSH1 0x20 DUP6 ADD SWAP5 POP PUSH1 0x20 DUP2 ADD SWAP1 POP PUSH2 0x211D JUMP JUMPDEST DUP7 DUP4 LT ISZERO PUSH2 0x215F JUMPI DUP5 DUP10 ADD MLOAD PUSH2 0x215B PUSH1 0x1F DUP10 AND DUP3 PUSH2 0x206E JUMP JUMPDEST DUP4 SSTORE POP JUMPDEST PUSH1 0x1 PUSH1 0x2 DUP9 MUL ADD DUP9 SSTORE POP POP POP JUMPDEST POP POP POP POP POP POP JUMP JUMPDEST PUSH0 PUSH1 0x20 DUP3 ADD SWAP1 POP DUP2 DUP2 SUB PUSH0 DUP4 ADD MSTORE PUSH2 0x218C DUP2 DUP5 PUSH2 0x1C00 JUMP JUMPDEST SWAP1 POP SWAP3 SWAP2 POP POP JUMP JUMPDEST PUSH0 PUSH1 0x40 DUP3 ADD SWAP1 POP DUP2 DUP2 SUB PUSH0 DUP4 ADD MSTORE PUSH2 0x21AC DUP2 DUP6 PUSH2 0x1C00 JUMP JUMPDEST SWAP1 POP DUP2 DUP2 SUB PUSH1 0x20 DUP4 ADD MSTORE PUSH2 0x21C0 DUP2 DUP5 PUSH2 0x1C00 JUMP JUMPDEST SWAP1 POP SWAP4 SWAP3 POP POP POP JUMP JUMPDEST PUSH32 0x566967656E63696120696E76616C6964613A2075736520566967656E74652C20 PUSH0 DUP3 ADD MSTORE PUSH32 0x4D6F6469666963616461206F204465726F676164610000000000000000000000 PUSH1 0x20 DUP3 ADD MSTORE POP JUMP JUMPDEST PUSH0 PUSH2 0x2223 PUSH1 0x35 DUP4 PUSH2 0x1BF0 JUMP JUMPDEST SWAP2 POP PUSH2 0x222E DUP3 PUSH2 0x21C9 JUMP JUMPDEST PUSH1 0x40 DUP3 ADD SWAP1 POP SWAP2 SWAP1 POP JUMP JUMPDEST PUSH0 PUSH1 0x20 DUP3 ADD SWAP1 POP DUP2 DUP2 SUB PUSH0 DUP4 ADD MSTORE PUSH2 0x2250 DUP2 PUSH2 0x2217 JUMP JUMPDEST SWAP1 POP SWAP2 SWAP1 POP JUMP JUMPDEST PUSH0 PUSH1 0x60 DUP3 ADD SWAP1 POP DUP2 DUP2 SUB PUSH0 DUP4 ADD MSTORE PUSH2 0x226F DUP2 DUP7 PUSH2 0x1C00 JUMP JUMPDEST SWAP1 POP DUP2 DUP2 SUB PUSH1 0x20 DUP4 ADD MSTORE PUSH2 0x2283 DUP2 DUP6 PUSH2 0x1C00 JUMP JUMPDEST SWAP1 POP DUP2 DUP2 SUB PUSH1 0x40 DUP4 ADD MSTORE PUSH2 0x2297 DUP2 DUP5 PUSH2 0x1C00 JUMP JUMPDEST SWAP1 POP SWAP5 SWAP4 POP POP POP POP JUMP JUMPDEST PUSH32 0x4C6120616374756163696F6E2079612065786973746500000000000000000000 PUSH0 DUP3 ADD MSTORE POP JUMP JUMPDEST PUSH0 PUSH2 0x22D5 PUSH1 0x16 DUP4 PUSH2 0x1BF0 JUMP JUMPDEST SWAP2 POP PUSH2 0x22E0 DUP3 PUSH2 0x22A1 JUMP JUMPDEST PUSH1 0x20 DUP3 ADD SWAP1 POP SWAP2 SWAP1 POP JUMP JUMPDEST PUSH0 PUSH1 0x20 DUP3 ADD SWAP1 POP DUP2 DUP2 SUB PUSH0 DUP4 ADD MSTORE PUSH2 0x2302 DUP2 PUSH2 0x22C9 JUMP JUMPDEST SWAP1 POP SWAP2 SWAP1 POP JUMP JUMPDEST PUSH32 0x4E6F2073652068612070616761646F206C612074617269666120646520726567 PUSH0 DUP3 ADD MSTORE PUSH32 0x697374726F000000000000000000000000000000000000000000000000000000 PUSH1 0x20 DUP3 ADD MSTORE POP JUMP JUMPDEST PUSH0 PUSH2 0x2363 PUSH1 0x25 DUP4 PUSH2 0x1BF0 JUMP JUMPDEST SWAP2 POP PUSH2 0x236E DUP3 PUSH2 0x2309 JUMP JUMPDEST PUSH1 0x40 DUP3 ADD SWAP1 POP SWAP2 SWAP1 POP JUMP JUMPDEST PUSH0 PUSH1 0x20 DUP3 ADD SWAP1 POP DUP2 DUP2 SUB PUSH0 DUP4 ADD MSTORE PUSH2 0x2390 DUP2 PUSH2 0x2357 JUMP JUMPDEST SWAP1 POP SWAP2 SWAP1 POP JUMP JUMPDEST PUSH0 DUP2 SLOAD PUSH2 0x23A3 DUP2 PUSH2 0x1EC4 JUMP JUMPDEST PUSH2 0x23AD DUP2 DUP7 PUSH2 0x1BF0 JUMP JUMPDEST SWAP5 POP PUSH1 0x1 DUP3 AND PUSH0 DUP2 EQ PUSH2 0x23C7 JUMPI PUSH1 0x1 DUP2 EQ PUSH2 0x23DD JUMPI PUSH2 0x240F JUMP JUMPDEST PUSH1 0xFF NOT DUP4 AND DUP7 MSTORE DUP2 ISZERO ISZERO PUSH1 0x20 MUL DUP7 ADD SWAP4 POP PUSH2 0x240F JUMP JUMPDEST PUSH2 0x23E6 DUP6 PUSH2 0x1EF4 JUMP JUMPDEST PUSH0 JUMPDEST DUP4 DUP2 LT ISZERO PUSH2 0x2407 JUMPI DUP2 SLOAD DUP2 DUP10 ADD MSTORE PUSH1 0x1 DUP3 ADD SWAP2 POP PUSH1 0x20 DUP2 ADD SWAP1 POP PUSH2 0x23E8 JUMP JUMPDEST DUP1 DUP9 ADD SWAP6 POP POP POP JUMPDEST POP POP POP SWAP3 SWAP2 POP POP JUMP JUMPDEST PUSH0 PUSH1 0x80 DUP3 ADD SWAP1 POP PUSH2 0x242B PUSH0 DUP4 ADD DUP8 PUSH2 0x1AE6 JUMP JUMPDEST PUSH2 0x2438 PUSH1 0x20 DUP4 ADD DUP7 PUSH2 0x1AE6 JUMP JUMPDEST DUP2 DUP2 SUB PUSH1 0x40 DUP4 ADD MSTORE PUSH2 0x244A DUP2 DUP6 PUSH2 0x2397 JUMP JUMPDEST SWAP1 POP DUP2 DUP2 SUB PUSH1 0x60 DUP4 ADD MSTORE PUSH2 0x245E DUP2 DUP5 PUSH2 0x2397 JUMP JUMPDEST SWAP1 POP SWAP6 SWAP5 POP POP POP POP POP JUMP JUMPDEST PUSH0 PUSH1 0x60 DUP3 ADD SWAP1 POP DUP2 DUP2 SUB PUSH0 DUP4 ADD MSTORE PUSH2 0x2481 DUP2 DUP7 PUSH2 0x1C00 JUMP JUMPDEST SWAP1 POP PUSH2 0x2490 PUSH1 0x20 DUP4 ADD DUP6 PUSH2 0x1AE6 JUMP JUMPDEST DUP2 DUP2 SUB PUSH1 0x40 DUP4 ADD MSTORE PUSH2 0x24A2 DUP2 DUP5 PUSH2 0x1C00 JUMP JUMPDEST SWAP1 POP SWAP5 SWAP4 POP POP POP POP JUMP INVALID LOG2 PUSH5 0x6970667358 0x22 SLT KECCAK256 0xB7 0xBD ISZERO SGT XOR 0x22 0xA9 SWAP5 EOFCREATE 0x22 0xE9 REVERT PUSH26 0xE3ED8E2E19DFA1A2EF153C7E4C5F2E1DB9C09664736F6C634300 ADDMOD 0x22 STOP CALLER "
		},
		"gasEstimates": {
			"creation": {
				"codeDepositCost": "1888400",
				"executionCost": "26260",
				"totalCost": "1914660"
			},
			"external": {
				"COSTO()": "325",
				"_consultarActuacion(string)": "infinite",
				"_eliminarActuacion(string,string)": "infinite",
				"_inicializarActuacion(string,uint256,string,string)": "infinite",
				"_modificarEntrada(string,string,string)": "infinite",
				"agregarOrdenanza(string,uint256,uint256,string,string)": "infinite",
				"consultarOrdenanza(string)": "infinite",
				"eliminar(string,string)": "infinite",
				"modificarVigencia(string,string,string)": "infinite",
				"propietario()": "2530"
			}
		},
		"methodIdentifiers": {
			"COSTO()": "52b5241e",
			"_consultarActuacion(string)": "4b386ce6",
			"_eliminarActuacion(string,string)": "1a558e99",
			"_inicializarActuacion(string,uint256,string,string)": "9cfa7e5f",
			"_modificarEntrada(string,string,string)": "3e403055",
			"agregarOrdenanza(string,uint256,uint256,string,string)": "b673b0f3",
			"consultarOrdenanza(string)": "abcc0eb7",
			"eliminar(string,string)": "e3298788",
			"modificarVigencia(string,string,string)": "45e78768",
			"propietario()": "3c4f81cd"
		}
	},
	"abi": [
		{
			"anonymous": false,
			"inputs": [
				{
					"indexed": true,
					"internalType": "string",
					"name": "id",
					"type": "string"
				},
				{
					"indexed": false,
					"internalType": "uint256",
					"name": "fechaCreacion",
					"type": "uint256"
				},
				{
					"indexed": false,
					"internalType": "uint256",
					"name": "dniAutor",
					"type": "uint256"
				},
				{
					"indexed": false,
					"internalType": "string",
					"name": "nombreAutor",
					"type": "string"
				},
				{
					"indexed": false,
					"internalType": "string",
					"name": "estado",
					"type": "string"
				}
			],
			"name": "ActuacionAgregada",
			"type": "event"
		},
		{
			"anonymous": false,
			"inputs": [
				{
					"indexed": true,
					"internalType": "string",
					"name": "id",
					"type": "string"
				},
				{
					"indexed": false,
					"internalType": "string",
					"name": "nuevoEstado",
					"type": "string"
				}
			],
			"name": "ActuacionEliminada",
			"type": "event"
		},
		{
			"anonymous": false,
			"inputs": [
				{
					"indexed": true,
					"internalType": "string",
					"name": "id",
					"type": "string"
				},
				{
					"indexed": false,
					"internalType": "string",
					"name": "nuevoEstado",
					"type": "string"
				},
				{
					"indexed": false,
					"internalType": "string",
					"name": "descripcion",
					"type": "string"
				}
			],
			"name": "ActuacionModificada",
			"type": "event"
		},
		{
			"anonymous": false,
			"inputs": [
				{
					"indexed": false,
					"internalType": "string",
					"name": "id",
					"type": "string"
				},
				{
					"indexed": false,
					"internalType": "uint256",
					"name": "numOrdenanza",
					"type": "uint256"
				},
				{
					"indexed": false,
					"internalType": "string",
					"name": "vigencia",
					"type": "string"
				}
			],
			"name": "OrdenanzaAgregada",
			"type": "event"
		},
		{
			"anonymous": false,
			"inputs": [
				{
					"indexed": false,
					"internalType": "string",
					"name": "id",
					"type": "string"
				},
				{
					"indexed": false,
					"internalType": "string",
					"name": "vigenciaNueva",
					"type": "string"
				},
				{
					"indexed": false,
					"internalType": "string",
					"name": "dato",
					"type": "string"
				}
			],
			"name": "VigenciaActualizada",
			"type": "event"
		},
		{
			"inputs": [],
			"name": "COSTO",
			"outputs": [
				{
					"internalType": "uint256",
					"name": "",
					"type": "uint256"
				}
			],
			"stateMutability": "view",
			"type": "function"
		},
		{
			"inputs": [
				{
					"internalType": "string",
					"name": "_id",
					"type": "string"
				}
			],
			"name": "_consultarActuacion",
			"outputs": [
				{
					"components": [
						{
							"internalType": "string",
							"name": "id",
							"type": "string"
						},
						{
							"internalType": "uint256",
							"name": "fechaCreacion",
							"type": "uint256"
						},
						{
							"internalType": "uint256",
							"name": "dniAutor",
							"type": "uint256"
						},
						{
							"internalType": "string",
							"name": "nombreAutor",
							"type": "string"
						},
						{
							"internalType": "string",
							"name": "estado",
							"type": "string"
						},
						{
							"internalType": "bool",
							"name": "existe",
							"type": "bool"
						},
						{
							"components": [
								{
									"internalType": "uint256",
									"name": "timestamp",
									"type": "uint256"
								},
								{
									"internalType": "string",
									"name": "estadoAnterior",
									"type": "string"
								},
								{
									"internalType": "string",
									"name": "estadoNuevo",
									"type": "string"
								},
								{
									"internalType": "address",
									"name": "modificadoPor",
									"type": "address"
								},
								{
									"internalType": "string",
									"name": "descripcion",
									"type": "string"
								}
							],
							"internalType": "struct ActuacionBase.Cambio[]",
							"name": "historial",
							"type": "tuple[]"
						}
					],
					"internalType": "struct ActuacionBase.Actuacion",
					"name": "",
					"type": "tuple"
				}
			],
			"stateMutability": "view",
			"type": "function"
		},
		{
			"inputs": [
				{
					"internalType": "string",
					"name": "_id",
					"type": "string"
				},
				{
					"internalType": "string",
					"name": "_estadoNuevo",
					"type": "string"
				}
			],
			"name": "_eliminarActuacion",
			"outputs": [],
			"stateMutability": "nonpayable",
			"type": "function"
		},
		{
			"inputs": [
				{
					"internalType": "string",
					"name": "_id",
					"type": "string"
				},
				{
					"internalType": "uint256",
					"name": "_dniAutor",
					"type": "uint256"
				},
				{
					"internalType": "string",
					"name": "_nombreAutor",
					"type": "string"
				},
				{
					"internalType": "string",
					"name": "estadoNuevo",
					"type": "string"
				}
			],
			"name": "_inicializarActuacion",
			"outputs": [],
			"stateMutability": "payable",
			"type": "function"
		},
		{
			"inputs": [
				{
					"internalType": "string",
					"name": "_id",
					"type": "string"
				},
				{
					"internalType": "string",
					"name": "_estadoNuevo",
					"type": "string"
				},
				{
					"internalType": "string",
					"name": "_dato",
					"type": "string"
				}
			],
			"name": "_modificarEntrada",
			"outputs": [
				{
					"internalType": "bool",
					"name": "success",
					"type": "bool"
				}
			],
			"stateMutability": "nonpayable",
			"type": "function"
		},
		{
			"inputs": [
				{
					"internalType": "string",
					"name": "_id",
					"type": "string"
				},
				{
					"internalType": "uint256",
					"name": "_dniAutor",
					"type": "uint256"
				},
				{
					"internalType": "uint256",
					"name": "_numOrdenanza",
					"type": "uint256"
				},
				{
					"internalType": "string",
					"name": "_nombreAutor",
					"type": "string"
				},
				{
					"internalType": "string",
					"name": "_vigencia",
					"type": "string"
				}
			],
			"name": "agregarOrdenanza",
			"outputs": [],
			"stateMutability": "payable",
			"type": "function"
		},
		{
			"inputs": [
				{
					"internalType": "string",
					"name": "_id",
					"type": "string"
				}
			],
			"name": "consultarOrdenanza",
			"outputs": [
				{
					"internalType": "string",
					"name": "id",
					"type": "string"
				},
				{
					"internalType": "uint256",
					"name": "fechaCreacion",
					"type": "uint256"
				},
				{
					"internalType": "uint256",
					"name": "dniAutor",
					"type": "uint256"
				},
				{
					"internalType": "string",
					"name": "nombreAutor",
					"type": "string"
				},
				{
					"internalType": "string",
					"name": "vigencia",
					"type": "string"
				},
				{
					"internalType": "uint256",
					"name": "numOrdenanza",
					"type": "uint256"
				}
			],
			"stateMutability": "view",
			"type": "function"
		},
		{
			"inputs": [
				{
					"internalType": "string",
					"name": "_id",
					"type": "string"
				},
				{
					"internalType": "string",
					"name": "_vigencia",
					"type": "string"
				}
			],
			"name": "eliminar",
			"outputs": [],
			"stateMutability": "nonpayable",
			"type": "function"
		},
		{
			"inputs": [
				{
					"internalType": "string",
					"name": "_id",
					"type": "string"
				},
				{
					"internalType": "string",
					"name": "_vigencia",
					"type": "string"
				},
				{
					"internalType": "string",
					"name": "_dato",
					"type": "string"
				}
			],
			"name": "modificarVigencia",
			"outputs": [
				{
					"internalType": "bool",
					"name": "success",
					"type": "bool"
				}
			],
			"stateMutability": "nonpayable",
			"type": "function"
		},
		{
			"inputs": [],
			"name": "propietario",
			"outputs": [
				{
					"internalType": "address",
					"name": "",
					"type": "address"
				}
			],
			"stateMutability": "view",
			"type": "function"
		}
	]
}