{
	"data": {
		"bytecode": {
			"linkReferences": {},
			"object": "6080604052348015600e575f5ffd5b50335f5f6101000a81548173ffffffffffffffffffffffffffffffffffffffff021916908373ffffffffffffffffffffffffffffffffffffffff16021790555061199f8061005b5f395ff3fe608060405260043610610090575f3560e01c8063c0b330b611610058578063c0b330b61461017c578063c631ba01146101bc578063c83e9d6d146101d8578063d986a2a314610200578063f904dd5b1461022857610090565b80633c4f81cd146100945780633cbdc2d3146100be57806352b5241e146100fa5780638e8a587614610124578063906a11df14610160575b5f5ffd5b34801561009f575f5ffd5b506100a8610264565b6040516100b59190611012565b60405180910390f35b3480156100c9575f5ffd5b506100e460048036038101906100df91906110cb565b610288565b6040516100f19190611135565b60405180910390f35b348015610105575f5ffd5b5061010e610417565b60405161011b919061115d565b60405180910390f35b34801561012f575f5ffd5b5061014a60048036038101906101459190611176565b61041d565b6040516101579190611347565b60405180910390f35b61017a60048036038101906101759190611367565b6105b5565b005b348015610187575f5ffd5b506101a2600480360381019061019d9190611176565b6107e7565b6040516101b39594939291906113fc565b60405180910390f35b6101d660048036038101906101d1919061144d565b610896565b005b3480156101e3575f5ffd5b506101fe60048036038101906101f991906114d6565b610a24565b005b34801561020b575f5ffd5b50610226600480360381019061022191906114d6565b610b6e565b005b348015610233575f5ffd5b5061024e600480360381019061024991906110cb565b610d89565b60405161025b9190611135565b60405180910390f35b5f5f9054906101000a900473ffffffffffffffffffffffffffffffffffffffff1681565b5f5f60405160200161029a9190611548565b60405160208183030381529060405280519060200120836040516020016102c19190611548565b60405160208183030381529060405280519060200120148061032f575060016040516020016102f09190611548565b60405160208183030381529060405280519060200120836040516020016103179190611548565b60405160208183030381529060405280519060200120145b80610386575060026040516020016103479190611548565b604051602081830303815290604052805190602001208360405160200161036e9190611548565b60405160208183030381529060405280519060200120145b6103c5576040517f08c379a00000000000000000000000000000000000000000000000000000000081526004016103bc90611608565b60405180910390fd5b6103d0848484610d89565b507f10f5ebedf0718619b5b15d769c3cccf914eaf6c44b2b6e71ff939545cc737bbe84848460405161040493929190611626565b60405180910390a1600190509392505050565b6101f481565b610425610fac565b60015f8381526020019081526020015f206002015f9054906101000a900460ff16610485576040517f08c379a000000000000000000000000000000000000000000000000000000000815260040161047c906116a5565b60405180910390fd5b60015f8381526020019081526020015f206040518060800160405290815f820154815260200160018201548152602001600282015f9054906101000a900460ff1615151515815260200160038201805480602002602001604051908101604052809291908181526020015f905b828210156105a6578382905f5260205f2090600402016040518060800160405290815f8201548152602001600182015f9054906101000a900460ff1660ff1660ff16815260200160028201548152602001600382015f9054906101000a900473ffffffffffffffffffffffffffffffffffffffff1673ffffffffffffffffffffffffffffffffffffffff1673ffffffffffffffffffffffffffffffffffffffff1681525050815260200190600101906104f2565b50505050815250509050919050565b60015f8681526020019081526020015f206002015f9054906101000a900460ff1615610616576040517f08c379a000000000000000000000000000000000000000000000000000000000815260040161060d9061170d565b60405180910390fd5b6101f434101561065b576040517f08c379a00000000000000000000000000000000000000000000000000000000081526004016106529061179b565b60405180910390fd5b5f60015f8781526020019081526020015f2090506001816002015f6101000a81548160ff02191690831515021790555084816001018190555081815f01819055508060030160405180608001604052804281526020018660ff1681526020018581526020013373ffffffffffffffffffffffffffffffffffffffff16815250908060018154018082558091505060019003905f5260205f2090600402015f909190919091505f820151815f01556020820151816001015f6101000a81548160ff021916908360ff160217905550604082015181600201556060820151816003015f6101000a81548173ffffffffffffffffffffffffffffffffffffffff021916908373ffffffffffffffffffffffffffffffffffffffff1602179055505050600286908060018154018082558091505060019003905f5260205f20015f90919091909150557f164383a2b97191661e35fd7054520c2abdf173025e32983b038ecb35a796cda786838787876040516107d79594939291906117b9565b60405180910390a1505050505050565b5f5f5f5f5f5f6107f68761041d565b90505f60035f8981526020019081526020015f209050815f015182602001518360600151600185606001515161082c9190611837565b8151811061083d5761083c61186a565b5b602002602001015160200151835f0154856060015160018760600151516108649190611837565b815181106108755761087461186a565b5b60200260200101516040015196509650965096509650505091939590929450565b5f6040516020016108a79190611548565b60405160208183030381529060405280519060200120816040516020016108ce9190611548565b60405160208183030381529060405280519060200120148061093c575060016040516020016108fd9190611548565b60405160208183030381529060405280519060200120816040516020016109249190611548565b60405160208183030381529060405280519060200120145b80610993575060026040516020016109549190611548565b604051602081830303815290604052805190602001208160405160200161097b9190611548565b60405160208183030381529060405280519060200120145b6109d2576040517f08c379a00000000000000000000000000000000000000000000000000000000081526004016109c990611608565b60405180910390fd5b6109df86868387876105b5565b7f5694b19b2cfcf39a4309e7d5015b841327b2020ff7dfbe0c17328b4c90aed71e86838387604051610a149493929190611897565b60405180910390a1505050505050565b5f604051602001610a359190611548565b6040516020818303038152906040528051906020012081604051602001610a5c9190611548565b604051602081830303815290604052805190602001201480610aca57506001604051602001610a8b9190611548565b6040516020818303038152906040528051906020012081604051602001610ab29190611548565b60405160208183030381529060405280519060200120145b80610b2157506002604051602001610ae29190611548565b6040516020818303038152906040528051906020012081604051602001610b099190611548565b60405160208183030381529060405280519060200120145b610b60576040517f08c379a0000000000000000000000000000000000000000000000000000000008152600401610b5790611608565b60405180910390fd5b610b6a8282610b6e565b5050565b60015f8381526020019081526020015f206002015f9054906101000a900460ff16610bce576040517f08c379a0000000000000000000000000000000000000000000000000000000008152600401610bc5906116a5565b60405180910390fd5b5f5f9054906101000a900473ffffffffffffffffffffffffffffffffffffffff1673ffffffffffffffffffffffffffffffffffffffff163373ffffffffffffffffffffffffffffffffffffffff1614610c5c576040517f08c379a0000000000000000000000000000000000000000000000000000000008152600401610c5390611924565b60405180910390fd5b60015f8381526020019081526020015f2060030160405180608001604052804281526020018360ff1681526020015f5f1b81526020013373ffffffffffffffffffffffffffffffffffffffff16815250908060018154018082558091505060019003905f5260205f2090600402015f909190919091505f820151815f01556020820151816001015f6101000a81548160ff021916908360ff160217905550604082015181600201556060820151816003015f6101000a81548173ffffffffffffffffffffffffffffffffffffffff021916908373ffffffffffffffffffffffffffffffffffffffff16021790555050507f55f3b2b2bc9c07499976075b3a9a78344b888c51b194889c9214c6eba4bf01138282604051610d7d929190611942565b60405180910390a15050565b5f60015f8581526020019081526020015f206002015f9054906101000a900460ff16610dea576040517f08c379a0000000000000000000000000000000000000000000000000000000008152600401610de1906116a5565b60405180910390fd5b5f5f9054906101000a900473ffffffffffffffffffffffffffffffffffffffff1673ffffffffffffffffffffffffffffffffffffffff163373ffffffffffffffffffffffffffffffffffffffff1614610e78576040517f08c379a0000000000000000000000000000000000000000000000000000000008152600401610e6f90611924565b60405180910390fd5b60015f8581526020019081526020015f2060030160405180608001604052804281526020018560ff1681526020018481526020013373ffffffffffffffffffffffffffffffffffffffff16815250908060018154018082558091505060019003905f5260205f2090600402015f909190919091505f820151815f01556020820151816001015f6101000a81548160ff021916908360ff160217905550604082015181600201556060820151816003015f6101000a81548173ffffffffffffffffffffffffffffffffffffffff021916908373ffffffffffffffffffffffffffffffffffffffff16021790555050507f02fd7cca134bdc372692f9e8679a7046060ca6da0c386e7494b18b9c21b10652848484604051610f9993929190611626565b60405180910390a1600190509392505050565b60405180608001604052805f81526020015f81526020015f15158152602001606081525090565b5f73ffffffffffffffffffffffffffffffffffffffff82169050919050565b5f610ffc82610fd3565b9050919050565b61100c81610ff2565b82525050565b5f6020820190506110255f830184611003565b92915050565b5f5ffd5b5f819050919050565b6110418161102f565b811461104b575f5ffd5b50565b5f8135905061105c81611038565b92915050565b5f60ff82169050919050565b61107781611062565b8114611081575f5ffd5b50565b5f813590506110928161106e565b92915050565b5f819050919050565b6110aa81611098565b81146110b4575f5ffd5b50565b5f813590506110c5816110a1565b92915050565b5f5f5f606084860312156110e2576110e161102b565b5b5f6110ef8682870161104e565b935050602061110086828701611084565b9250506040611111868287016110b7565b9150509250925092565b5f8115159050919050565b61112f8161111b565b82525050565b5f6020820190506111485f830184611126565b92915050565b6111578161102f565b82525050565b5f6020820190506111705f83018461114e565b92915050565b5f6020828403121561118b5761118a61102b565b5b5f6111988482850161104e565b91505092915050565b6111aa8161102f565b82525050565b6111b98161111b565b82525050565b5f81519050919050565b5f82825260208201905092915050565b5f819050602082019050919050565b6111f181611062565b82525050565b61120081611098565b82525050565b61120f81610ff2565b82525050565b608082015f8201516112295f8501826111a1565b50602082015161123c60208501826111e8565b50604082015161124f60408501826111f7565b5060608201516112626060850182611206565b50505050565b5f6112738383611215565b60808301905092915050565b5f602082019050919050565b5f611295826111bf565b61129f81856111c9565b93506112aa836111d9565b805f5b838110156112da5781516112c18882611268565b97506112cc8361127f565b9250506001810190506112ad565b5085935050505092915050565b5f608083015f8301516112fc5f8601826111a1565b50602083015161130f60208601826111a1565b50604083015161132260408601826111b0565b506060830151848203606086015261133a828261128b565b9150508091505092915050565b5f6020820190508181035f83015261135f81846112e7565b905092915050565b5f5f5f5f5f60a086880312156113805761137f61102b565b5b5f61138d8882890161104e565b955050602061139e8882890161104e565b94505060406113af88828901611084565b93505060606113c0888289016110b7565b92505060806113d18882890161104e565b9150509295509295909350565b6113e781611062565b82525050565b6113f681611098565b82525050565b5f60a08201905061140f5f83018861114e565b61141c602083018761114e565b61142960408301866113de565b611436606083018561114e565b61144360808301846113ed565b9695505050505050565b5f5f5f5f5f5f60c087890312156114675761146661102b565b5b5f61147489828a0161104e565b965050602061148589828a0161104e565b955050604061149689828a016110b7565b94505060606114a789828a0161104e565b93505060806114b889828a0161104e565b92505060a06114c989828a01611084565b9150509295509295509295565b5f5f604083850312156114ec576114eb61102b565b5b5f6114f98582860161104e565b925050602061150a85828601611084565b9150509250929050565b5f8160f81b9050919050565b5f61152a82611514565b9050919050565b61154261153d82611062565b611520565b82525050565b5f6115538284611531565b60018201915081905092915050565b5f82825260208201905092915050565b7f726573756c7461646f20696e76616c6964613a207573652028302920706172615f8201527f204170726f626164612c20283129207061726120417263686976616461206f2060208201527f28322920706172612052656368617a6164610000000000000000000000000000604082015250565b5f6115f2605283611562565b91506115fd82611572565b606082019050919050565b5f6020820190508181035f83015261161f816115e6565b9050919050565b5f6060820190506116395f83018661114e565b61164660208301856113de565b61165360408301846113ed565b949350505050565b7f4c6120616374756163696f6e206e6f20657869737465000000000000000000005f82015250565b5f61168f601683611562565b915061169a8261165b565b602082019050919050565b5f6020820190508181035f8301526116bc81611683565b9050919050565b7f4c6120616374756163696f6e20796120657869737465000000000000000000005f82015250565b5f6116f7601683611562565b9150611702826116c3565b602082019050919050565b5f6020820190508181035f830152611724816116eb565b9050919050565b7f4e6f2073652068612070616761646f206c6120746172696661206465207265675f8201527f697374726f000000000000000000000000000000000000000000000000000000602082015250565b5f611785602583611562565b91506117908261172b565b604082019050919050565b5f6020820190508181035f8301526117b281611779565b9050919050565b5f60a0820190506117cc5f83018861114e565b6117d9602083018761114e565b6117e6604083018661114e565b6117f360608301856113de565b61180060808301846113ed565b9695505050505050565b7f4e487b71000000000000000000000000000000000000000000000000000000005f52601160045260245ffd5b5f6118418261102f565b915061184c8361102f565b92508282039050818111156118645761186361180a565b5b92915050565b7f4e487b71000000000000000000000000000000000000000000000000000000005f52603260045260245ffd5b5f6080820190506118aa5f83018761114e565b6118b7602083018661114e565b6118c460408301856113de565b6118d160608301846113ed565b95945050505050565b7f4e6f20657320656c2070726f706965746172696f0000000000000000000000005f82015250565b5f61190e601483611562565b9150611919826118da565b602082019050919050565b5f6020820190508181035f83015261193b81611902565b9050919050565b5f6040820190506119555f83018561114e565b61196260208301846113de565b939250505056fea26469706673582212209f70e516bac7de3727adee6e24d015ae9306b8e6e6d0cd563813d66f81ad183464736f6c63430008220033",
			"opcodes": "PUSH1 0x80 PUSH1 0x40 MSTORE CALLVALUE DUP1 ISZERO PUSH1 0xE JUMPI PUSH0 PUSH0 REVERT JUMPDEST POP CALLER PUSH0 PUSH0 PUSH2 0x100 EXP DUP2 SLOAD DUP2 PUSH20 0xFFFFFFFFFFFFFFFFFFFFFFFFFFFFFFFFFFFFFFFF MUL NOT AND SWAP1 DUP4 PUSH20 0xFFFFFFFFFFFFFFFFFFFFFFFFFFFFFFFFFFFFFFFF AND MUL OR SWAP1 SSTORE POP PUSH2 0x199F DUP1 PUSH2 0x5B PUSH0 CODECOPY PUSH0 RETURN INVALID PUSH1 0x80 PUSH1 0x40 MSTORE PUSH1 0x4 CALLDATASIZE LT PUSH2 0x90 JUMPI PUSH0 CALLDATALOAD PUSH1 0xE0 SHR DUP1 PUSH4 0xC0B330B6 GT PUSH2 0x58 JUMPI DUP1 PUSH4 0xC0B330B6 EQ PUSH2 0x17C JUMPI DUP1 PUSH4 0xC631BA01 EQ PUSH2 0x1BC JUMPI DUP1 PUSH4 0xC83E9D6D EQ PUSH2 0x1D8 JUMPI DUP1 PUSH4 0xD986A2A3 EQ PUSH2 0x200 JUMPI DUP1 PUSH4 0xF904DD5B EQ PUSH2 0x228 JUMPI PUSH2 0x90 JUMP JUMPDEST DUP1 PUSH4 0x3C4F81CD EQ PUSH2 0x94 JUMPI DUP1 PUSH4 0x3CBDC2D3 EQ PUSH2 0xBE JUMPI DUP1 PUSH4 0x52B5241E EQ PUSH2 0xFA JUMPI DUP1 PUSH4 0x8E8A5876 EQ PUSH2 0x124 JUMPI DUP1 PUSH4 0x906A11DF EQ PUSH2 0x160 JUMPI JUMPDEST PUSH0 PUSH0 REVERT JUMPDEST CALLVALUE DUP1 ISZERO PUSH2 0x9F JUMPI PUSH0 PUSH0 REVERT JUMPDEST POP PUSH2 0xA8 PUSH2 0x264 JUMP JUMPDEST PUSH1 0x40 MLOAD PUSH2 0xB5 SWAP2 SWAP1 PUSH2 0x1012 JUMP JUMPDEST PUSH1 0x40 MLOAD DUP1 SWAP2 SUB SWAP1 RETURN JUMPDEST CALLVALUE DUP1 ISZERO PUSH2 0xC9 JUMPI PUSH0 PUSH0 REVERT JUMPDEST POP PUSH2 0xE4 PUSH1 0x4 DUP1 CALLDATASIZE SUB DUP2 ADD SWAP1 PUSH2 0xDF SWAP2 SWAP1 PUSH2 0x10CB JUMP JUMPDEST PUSH2 0x288 JUMP JUMPDEST PUSH1 0x40 MLOAD PUSH2 0xF1 SWAP2 SWAP1 PUSH2 0x1135 JUMP JUMPDEST PUSH1 0x40 MLOAD DUP1 SWAP2 SUB SWAP1 RETURN JUMPDEST CALLVALUE DUP1 ISZERO PUSH2 0x105 JUMPI PUSH0 PUSH0 REVERT JUMPDEST POP PUSH2 0x10E PUSH2 0x417 JUMP JUMPDEST PUSH1 0x40 MLOAD PUSH2 0x11B SWAP2 SWAP1 PUSH2 0x115D JUMP JUMPDEST PUSH1 0x40 MLOAD DUP1 SWAP2 SUB SWAP1 RETURN JUMPDEST CALLVALUE DUP1 ISZERO PUSH2 0x12F JUMPI PUSH0 PUSH0 REVERT JUMPDEST POP PUSH2 0x14A PUSH1 0x4 DUP1 CALLDATASIZE SUB DUP2 ADD SWAP1 PUSH2 0x145 SWAP2 SWAP1 PUSH2 0x1176 JUMP JUMPDEST PUSH2 0x41D JUMP JUMPDEST PUSH1 0x40 MLOAD PUSH2 0x157 SWAP2 SWAP1 PUSH2 0x1347 JUMP JUMPDEST PUSH1 0x40 MLOAD DUP1 SWAP2 SUB SWAP1 RETURN JUMPDEST PUSH2 0x17A PUSH1 0x4 DUP1 CALLDATASIZE SUB DUP2 ADD SWAP1 PUSH2 0x175 SWAP2 SWAP1 PUSH2 0x1367 JUMP JUMPDEST PUSH2 0x5B5 JUMP JUMPDEST STOP JUMPDEST CALLVALUE DUP1 ISZERO PUSH2 0x187 JUMPI PUSH0 PUSH0 REVERT JUMPDEST POP PUSH2 0x1A2 PUSH1 0x4 DUP1 CALLDATASIZE SUB DUP2 ADD SWAP1 PUSH2 0x19D SWAP2 SWAP1 PUSH2 0x1176 JUMP JUMPDEST PUSH2 0x7E7 JUMP JUMPDEST PUSH1 0x40 MLOAD PUSH2 0x1B3 SWAP6 SWAP5 SWAP4 SWAP3 SWAP2 SWAP1 PUSH2 0x13FC JUMP JUMPDEST PUSH1 0x40 MLOAD DUP1 SWAP2 SUB SWAP1 RETURN JUMPDEST PUSH2 0x1D6 PUSH1 0x4 DUP1 CALLDATASIZE SUB DUP2 ADD SWAP1 PUSH2 0x1D1 SWAP2 SWAP1 PUSH2 0x144D JUMP JUMPDEST PUSH2 0x896 JUMP JUMPDEST STOP JUMPDEST CALLVALUE DUP1 ISZERO PUSH2 0x1E3 JUMPI PUSH0 PUSH0 REVERT JUMPDEST POP PUSH2 0x1FE PUSH1 0x4 DUP1 CALLDATASIZE SUB DUP2 ADD SWAP1 PUSH2 0x1F9 SWAP2 SWAP1 PUSH2 0x14D6 JUMP JUMPDEST PUSH2 0xA24 JUMP JUMPDEST STOP JUMPDEST CALLVALUE DUP1 ISZERO PUSH2 0x20B JUMPI PUSH0 PUSH0 REVERT JUMPDEST POP PUSH2 0x226 PUSH1 0x4 DUP1 CALLDATASIZE SUB DUP2 ADD SWAP1 PUSH2 0x221 SWAP2 SWAP1 PUSH2 0x14D6 JUMP JUMPDEST PUSH2 0xB6E JUMP JUMPDEST STOP JUMPDEST CALLVALUE DUP1 ISZERO PUSH2 0x233 JUMPI PUSH0 PUSH0 REVERT JUMPDEST POP PUSH2 0x24E PUSH1 0x4 DUP1 CALLDATASIZE SUB DUP2 ADD SWAP1 PUSH2 0x249 SWAP2 SWAP1 PUSH2 0x10CB JUMP JUMPDEST PUSH2 0xD89 JUMP JUMPDEST PUSH1 0x40 MLOAD PUSH2 0x25B SWAP2 SWAP1 PUSH2 0x1135 JUMP JUMPDEST PUSH1 0x40 MLOAD DUP1 SWAP2 SUB SWAP1 RETURN JUMPDEST PUSH0 PUSH0 SWAP1 SLOAD SWAP1 PUSH2 0x100 EXP SWAP1 DIV PUSH20 0xFFFFFFFFFFFFFFFFFFFFFFFFFFFFFFFFFFFFFFFF AND DUP2 JUMP JUMPDEST PUSH0 PUSH0 PUSH1 0x40 MLOAD PUSH1 0x20 ADD PUSH2 0x29A SWAP2 SWAP1 PUSH2 0x1548 JUMP JUMPDEST PUSH1 0x40 MLOAD PUSH1 0x20 DUP2 DUP4 SUB SUB DUP2 MSTORE SWAP1 PUSH1 0x40 MSTORE DUP1 MLOAD SWAP1 PUSH1 0x20 ADD KECCAK256 DUP4 PUSH1 0x40 MLOAD PUSH1 0x20 ADD PUSH2 0x2C1 SWAP2 SWAP1 PUSH2 0x1548 JUMP JUMPDEST PUSH1 0x40 MLOAD PUSH1 0x20 DUP2 DUP4 SUB SUB DUP2 MSTORE SWAP1 PUSH1 0x40 MSTORE DUP1 MLOAD SWAP1 PUSH1 0x20 ADD KECCAK256 EQ DUP1 PUSH2 0x32F JUMPI POP PUSH1 0x1 PUSH1 0x40 MLOAD PUSH1 0x20 ADD PUSH2 0x2F0 SWAP2 SWAP1 PUSH2 0x1548 JUMP JUMPDEST PUSH1 0x40 MLOAD PUSH1 0x20 DUP2 DUP4 SUB SUB DUP2 MSTORE SWAP1 PUSH1 0x40 MSTORE DUP1 MLOAD SWAP1 PUSH1 0x20 ADD KECCAK256 DUP4 PUSH1 0x40 MLOAD PUSH1 0x20 ADD PUSH2 0x317 SWAP2 SWAP1 PUSH2 0x1548 JUMP JUMPDEST PUSH1 0x40 MLOAD PUSH1 0x20 DUP2 DUP4 SUB SUB DUP2 MSTORE SWAP1 PUSH1 0x40 MSTORE DUP1 MLOAD SWAP1 PUSH1 0x20 ADD KECCAK256 EQ JUMPDEST DUP1 PUSH2 0x386 JUMPI POP PUSH1 0x2 PUSH1 0x40 MLOAD PUSH1 0x20 ADD PUSH2 0x347 SWAP2 SWAP1 PUSH2 0x1548 JUMP JUMPDEST PUSH1 0x40 MLOAD PUSH1 0x20 DUP2 DUP4 SUB SUB DUP2 MSTORE SWAP1 PUSH1 0x40 MSTORE DUP1 MLOAD SWAP1 PUSH1 0x20 ADD KECCAK256 DUP4 PUSH1 0x40 MLOAD PUSH1 0x20 ADD PUSH2 0x36E SWAP2 SWAP1 PUSH2 0x1548 JUMP JUMPDEST PUSH1 0x40 MLOAD PUSH1 0x20 DUP2 DUP4 SUB SUB DUP2 MSTORE SWAP1 PUSH1 0x40 MSTORE DUP1 MLOAD SWAP1 PUSH1 0x20 ADD KECCAK256 EQ JUMPDEST PUSH2 0x3C5 JUMPI PUSH1 0x40 MLOAD PUSH32 0x8C379A000000000000000000000000000000000000000000000000000000000 DUP2 MSTORE PUSH1 0x4 ADD PUSH2 0x3BC SWAP1 PUSH2 0x1608 JUMP JUMPDEST PUSH1 0x40 MLOAD DUP1 SWAP2 SUB SWAP1 REVERT JUMPDEST PUSH2 0x3D0 DUP5 DUP5 DUP5 PUSH2 0xD89 JUMP JUMPDEST POP PUSH32 0x10F5EBEDF0718619B5B15D769C3CCCF914EAF6C44B2B6E71FF939545CC737BBE DUP5 DUP5 DUP5 PUSH1 0x40 MLOAD PUSH2 0x404 SWAP4 SWAP3 SWAP2 SWAP1 PUSH2 0x1626 JUMP JUMPDEST PUSH1 0x40 MLOAD DUP1 SWAP2 SUB SWAP1 LOG1 PUSH1 0x1 SWAP1 POP SWAP4 SWAP3 POP POP POP JUMP JUMPDEST PUSH2 0x1F4 DUP2 JUMP JUMPDEST PUSH2 0x425 PUSH2 0xFAC JUMP JUMPDEST PUSH1 0x1 PUSH0 DUP4 DUP2 MSTORE PUSH1 0x20 ADD SWAP1 DUP2 MSTORE PUSH1 0x20 ADD PUSH0 KECCAK256 PUSH1 0x2 ADD PUSH0 SWAP1 SLOAD SWAP1 PUSH2 0x100 EXP SWAP1 DIV PUSH1 0xFF AND PUSH2 0x485 JUMPI PUSH1 0x40 MLOAD PUSH32 0x8C379A000000000000000000000000000000000000000000000000000000000 DUP2 MSTORE PUSH1 0x4 ADD PUSH2 0x47C SWAP1 PUSH2 0x16A5 JUMP JUMPDEST PUSH1 0x40 MLOAD DUP1 SWAP2 SUB SWAP1 REVERT JUMPDEST PUSH1 0x1 PUSH0 DUP4 DUP2 MSTORE PUSH1 0x20 ADD SWAP1 DUP2 MSTORE PUSH1 0x20 ADD PUSH0 KECCAK256 PUSH1 0x40 MLOAD DUP1 PUSH1 0x80 ADD PUSH1 0x40 MSTORE SWAP1 DUP2 PUSH0 DUP3 ADD SLOAD DUP2 MSTORE PUSH1 0x20 ADD PUSH1 0x1 DUP3 ADD SLOAD DUP2 MSTORE PUSH1 0x20 ADD PUSH1 0x2 DUP3 ADD PUSH0 SWAP1 SLOAD SWAP1 PUSH2 0x100 EXP SWAP1 DIV PUSH1 0xFF AND ISZERO ISZERO ISZERO ISZERO DUP2 MSTORE PUSH1 0x20 ADD PUSH1 0x3 DUP3 ADD DUP1 SLOAD DUP1 PUSH1 0x20 MUL PUSH1 0x20 ADD PUSH1 0x40 MLOAD SWAP1 DUP2 ADD PUSH1 0x40 MSTORE DUP1 SWAP3 SWAP2 SWAP1 DUP2 DUP2 MSTORE PUSH1 0x20 ADD PUSH0 SWAP1 JUMPDEST DUP3 DUP3 LT ISZERO PUSH2 0x5A6 JUMPI DUP4 DUP3 SWAP1 PUSH0 MSTORE PUSH1 0x20 PUSH0 KECCAK256 SWAP1 PUSH1 0x4 MUL ADD PUSH1 0x40 MLOAD DUP1 PUSH1 0x80 ADD PUSH1 0x40 MSTORE SWAP1 DUP2 PUSH0 DUP3 ADD SLOAD DUP2 MSTORE PUSH1 0x20 ADD PUSH1 0x1 DUP3 ADD PUSH0 SWAP1 SLOAD SWAP1 PUSH2 0x100 EXP SWAP1 DIV PUSH1 0xFF AND PUSH1 0xFF AND PUSH1 0xFF AND DUP2 MSTORE PUSH1 0x20 ADD PUSH1 0x2 DUP3 ADD SLOAD DUP2 MSTORE PUSH1 0x20 ADD PUSH1 0x3 DUP3 ADD PUSH0 SWAP1 SLOAD SWAP1 PUSH2 0x100 EXP SWAP1 DIV PUSH20 0xFFFFFFFFFFFFFFFFFFFFFFFFFFFFFFFFFFFFFFFF AND PUSH20 0xFFFFFFFFFFFFFFFFFFFFFFFFFFFFFFFFFFFFFFFF AND PUSH20 0xFFFFFFFFFFFFFFFFFFFFFFFFFFFFFFFFFFFFFFFF AND DUP2 MSTORE POP POP DUP2 MSTORE PUSH1 0x20 ADD SWAP1 PUSH1 0x1 ADD SWAP1 PUSH2 0x4F2 JUMP JUMPDEST POP POP POP POP DUP2 MSTORE POP POP SWAP1 POP SWAP2 SWAP1 POP JUMP JUMPDEST PUSH1 0x1 PUSH0 DUP7 DUP2 MSTORE PUSH1 0x20 ADD SWAP1 DUP2 MSTORE PUSH1 0x20 ADD PUSH0 KECCAK256 PUSH1 0x2 ADD PUSH0 SWAP1 SLOAD SWAP1 PUSH2 0x100 EXP SWAP1 DIV PUSH1 0xFF AND ISZERO PUSH2 0x616 JUMPI PUSH1 0x40 MLOAD PUSH32 0x8C379A000000000000000000000000000000000000000000000000000000000 DUP2 MSTORE PUSH1 0x4 ADD PUSH2 0x60D SWAP1 PUSH2 0x170D JUMP JUMPDEST PUSH1 0x40 MLOAD DUP1 SWAP2 SUB SWAP1 REVERT JUMPDEST PUSH2 0x1F4 CALLVALUE LT ISZERO PUSH2 0x65B JUMPI PUSH1 0x40 MLOAD PUSH32 0x8C379A000000000000000000000000000000000000000000000000000000000 DUP2 MSTORE PUSH1 0x4 ADD PUSH2 0x652 SWAP1 PUSH2 0x179B JUMP JUMPDEST PUSH1 0x40 MLOAD DUP1 SWAP2 SUB SWAP1 REVERT JUMPDEST PUSH0 PUSH1 0x1 PUSH0 DUP8 DUP2 MSTORE PUSH1 0x20 ADD SWAP1 DUP2 MSTORE PUSH1 0x20 ADD PUSH0 KECCAK256 SWAP1 POP PUSH1 0x1 DUP2 PUSH1 0x2 ADD PUSH0 PUSH2 0x100 EXP DUP2 SLOAD DUP2 PUSH1 0xFF MUL NOT AND SWAP1 DUP4 ISZERO ISZERO MUL OR SWAP1 SSTORE POP DUP5 DUP2 PUSH1 0x1 ADD DUP2 SWAP1 SSTORE POP DUP2 DUP2 PUSH0 ADD DUP2 SWAP1 SSTORE POP DUP1 PUSH1 0x3 ADD PUSH1 0x40 MLOAD DUP1 PUSH1 0x80 ADD PUSH1 0x40 MSTORE DUP1 TIMESTAMP DUP2 MSTORE PUSH1 0x20 ADD DUP7 PUSH1 0xFF AND DUP2 MSTORE PUSH1 0x20 ADD DUP6 DUP2 MSTORE PUSH1 0x20 ADD CALLER PUSH20 0xFFFFFFFFFFFFFFFFFFFFFFFFFFFFFFFFFFFFFFFF AND DUP2 MSTORE POP SWAP1 DUP1 PUSH1 0x1 DUP2 SLOAD ADD DUP1 DUP3 SSTORE DUP1 SWAP2 POP POP PUSH1 0x1 SWAP1 SUB SWAP1 PUSH0 MSTORE PUSH1 0x20 PUSH0 KECCAK256 SWAP1 PUSH1 0x4 MUL ADD PUSH0 SWAP1 SWAP2 SWAP1 SWAP2 SWAP1 SWAP2 POP PUSH0 DUP3 ADD MLOAD DUP2 PUSH0 ADD SSTORE PUSH1 0x20 DUP3 ADD MLOAD DUP2 PUSH1 0x1 ADD PUSH0 PUSH2 0x100 EXP DUP2 SLOAD DUP2 PUSH1 0xFF MUL NOT AND SWAP1 DUP4 PUSH1 0xFF AND MUL OR SWAP1 SSTORE POP PUSH1 0x40 DUP3 ADD MLOAD DUP2 PUSH1 0x2 ADD SSTORE PUSH1 0x60 DUP3 ADD MLOAD DUP2 PUSH1 0x3 ADD PUSH0 PUSH2 0x100 EXP DUP2 SLOAD DUP2 PUSH20 0xFFFFFFFFFFFFFFFFFFFFFFFFFFFFFFFFFFFFFFFF MUL NOT AND SWAP1 DUP4 PUSH20 0xFFFFFFFFFFFFFFFFFFFFFFFFFFFFFFFFFFFFFFFF AND MUL OR SWAP1 SSTORE POP POP POP PUSH1 0x2 DUP7 SWAP1 DUP1 PUSH1 0x1 DUP2 SLOAD ADD DUP1 DUP3 SSTORE DUP1 SWAP2 POP POP PUSH1 0x1 SWAP1 SUB SWAP1 PUSH0 MSTORE PUSH1 0x20 PUSH0 KECCAK256 ADD PUSH0 SWAP1 SWAP2 SWAP1 SWAP2 SWAP1 SWAP2 POP SSTORE PUSH32 0x164383A2B97191661E35FD7054520C2ABDF173025E32983B038ECB35A796CDA7 DUP7 DUP4 DUP8 DUP8 DUP8 PUSH1 0x40 MLOAD PUSH2 0x7D7 SWAP6 SWAP5 SWAP4 SWAP3 SWAP2 SWAP1 PUSH2 0x17B9 JUMP JUMPDEST PUSH1 0x40 MLOAD DUP1 SWAP2 SUB SWAP1 LOG1 POP POP POP POP POP POP JUMP JUMPDEST PUSH0 PUSH0 PUSH0 PUSH0 PUSH0 PUSH0 PUSH2 0x7F6 DUP8 PUSH2 0x41D JUMP JUMPDEST SWAP1 POP PUSH0 PUSH1 0x3 PUSH0 DUP10 DUP2 MSTORE PUSH1 0x20 ADD SWAP1 DUP2 MSTORE PUSH1 0x20 ADD PUSH0 KECCAK256 SWAP1 POP DUP2 PUSH0 ADD MLOAD DUP3 PUSH1 0x20 ADD MLOAD DUP4 PUSH1 0x60 ADD MLOAD PUSH1 0x1 DUP6 PUSH1 0x60 ADD MLOAD MLOAD PUSH2 0x82C SWAP2 SWAP1 PUSH2 0x1837 JUMP JUMPDEST DUP2 MLOAD DUP2 LT PUSH2 0x83D JUMPI PUSH2 0x83C PUSH2 0x186A JUMP JUMPDEST JUMPDEST PUSH1 0x20 MUL PUSH1 0x20 ADD ADD MLOAD PUSH1 0x20 ADD MLOAD DUP4 PUSH0 ADD SLOAD DUP6 PUSH1 0x60 ADD MLOAD PUSH1 0x1 DUP8 PUSH1 0x60 ADD MLOAD MLOAD PUSH2 0x864 SWAP2 SWAP1 PUSH2 0x1837 JUMP JUMPDEST DUP2 MLOAD DUP2 LT PUSH2 0x875 JUMPI PUSH2 0x874 PUSH2 0x186A JUMP JUMPDEST JUMPDEST PUSH1 0x20 MUL PUSH1 0x20 ADD ADD MLOAD PUSH1 0x40 ADD MLOAD SWAP7 POP SWAP7 POP SWAP7 POP SWAP7 POP SWAP7 POP POP POP SWAP2 SWAP4 SWAP6 SWAP1 SWAP3 SWAP5 POP JUMP JUMPDEST PUSH0 PUSH1 0x40 MLOAD PUSH1 0x20 ADD PUSH2 0x8A7 SWAP2 SWAP1 PUSH2 0x1548 JUMP JUMPDEST PUSH1 0x40 MLOAD PUSH1 0x20 DUP2 DUP4 SUB SUB DUP2 MSTORE SWAP1 PUSH1 0x40 MSTORE DUP1 MLOAD SWAP1 PUSH1 0x20 ADD KECCAK256 DUP2 PUSH1 0x40 MLOAD PUSH1 0x20 ADD PUSH2 0x8CE SWAP2 SWAP1 PUSH2 0x1548 JUMP JUMPDEST PUSH1 0x40 MLOAD PUSH1 0x20 DUP2 DUP4 SUB SUB DUP2 MSTORE SWAP1 PUSH1 0x40 MSTORE DUP1 MLOAD SWAP1 PUSH1 0x20 ADD KECCAK256 EQ DUP1 PUSH2 0x93C JUMPI POP PUSH1 0x1 PUSH1 0x40 MLOAD PUSH1 0x20 ADD PUSH2 0x8FD SWAP2 SWAP1 PUSH2 0x1548 JUMP JUMPDEST PUSH1 0x40 MLOAD PUSH1 0x20 DUP2 DUP4 SUB SUB DUP2 MSTORE SWAP1 PUSH1 0x40 MSTORE DUP1 MLOAD SWAP1 PUSH1 0x20 ADD KECCAK256 DUP2 PUSH1 0x40 MLOAD PUSH1 0x20 ADD PUSH2 0x924 SWAP2 SWAP1 PUSH2 0x1548 JUMP JUMPDEST PUSH1 0x40 MLOAD PUSH1 0x20 DUP2 DUP4 SUB SUB DUP2 MSTORE SWAP1 PUSH1 0x40 MSTORE DUP1 MLOAD SWAP1 PUSH1 0x20 ADD KECCAK256 EQ JUMPDEST DUP1 PUSH2 0x993 JUMPI POP PUSH1 0x2 PUSH1 0x40 MLOAD PUSH1 0x20 ADD PUSH2 0x954 SWAP2 SWAP1 PUSH2 0x1548 JUMP JUMPDEST PUSH1 0x40 MLOAD PUSH1 0x20 DUP2 DUP4 SUB SUB DUP2 MSTORE SWAP1 PUSH1 0x40 MSTORE DUP1 MLOAD SWAP1 PUSH1 0x20 ADD KECCAK256 DUP2 PUSH1 0x40 MLOAD PUSH1 0x20 ADD PUSH2 0x97B SWAP2 SWAP1 PUSH2 0x1548 JUMP JUMPDEST PUSH1 0x40 MLOAD PUSH1 0x20 DUP2 DUP4 SUB SUB DUP2 MSTORE SWAP1 PUSH1 0x40 MSTORE DUP1 MLOAD SWAP1 PUSH1 0x20 ADD KECCAK256 EQ JUMPDEST PUSH2 0x9D2 JUMPI PUSH1 0x40 MLOAD PUSH32 0x8C379A000000000000000000000000000000000000000000000000000000000 DUP2 MSTORE PUSH1 0x4 ADD PUSH2 0x9C9 SWAP1 PUSH2 0x1608 JUMP JUMPDEST PUSH1 0x40 MLOAD DUP1 SWAP2 SUB SWAP1 REVERT JUMPDEST PUSH2 0x9DF DUP7 DUP7 DUP4 DUP8 DUP8 PUSH2 0x5B5 JUMP JUMPDEST PUSH32 0x5694B19B2CFCF39A4309E7D5015B841327B2020FF7DFBE0C17328B4C90AED71E DUP7 DUP4 DUP4 DUP8 PUSH1 0x40 MLOAD PUSH2 0xA14 SWAP5 SWAP4 SWAP3 SWAP2 SWAP1 PUSH2 0x1897 JUMP JUMPDEST PUSH1 0x40 MLOAD DUP1 SWAP2 SUB SWAP1 LOG1 POP POP POP POP POP POP JUMP JUMPDEST PUSH0 PUSH1 0x40 MLOAD PUSH1 0x20 ADD PUSH2 0xA35 SWAP2 SWAP1 PUSH2 0x1548 JUMP JUMPDEST PUSH1 0x40 MLOAD PUSH1 0x20 DUP2 DUP4 SUB SUB DUP2 MSTORE SWAP1 PUSH1 0x40 MSTORE DUP1 MLOAD SWAP1 PUSH1 0x20 ADD KECCAK256 DUP2 PUSH1 0x40 MLOAD PUSH1 0x20 ADD PUSH2 0xA5C SWAP2 SWAP1 PUSH2 0x1548 JUMP JUMPDEST PUSH1 0x40 MLOAD PUSH1 0x20 DUP2 DUP4 SUB SUB DUP2 MSTORE SWAP1 PUSH1 0x40 MSTORE DUP1 MLOAD SWAP1 PUSH1 0x20 ADD KECCAK256 EQ DUP1 PUSH2 0xACA JUMPI POP PUSH1 0x1 PUSH1 0x40 MLOAD PUSH1 0x20 ADD PUSH2 0xA8B SWAP2 SWAP1 PUSH2 0x1548 JUMP JUMPDEST PUSH1 0x40 MLOAD PUSH1 0x20 DUP2 DUP4 SUB SUB DUP2 MSTORE SWAP1 PUSH1 0x40 MSTORE DUP1 MLOAD SWAP1 PUSH1 0x20 ADD KECCAK256 DUP2 PUSH1 0x40 MLOAD PUSH1 0x20 ADD PUSH2 0xAB2 SWAP2 SWAP1 PUSH2 0x1548 JUMP JUMPDEST PUSH1 0x40 MLOAD PUSH1 0x20 DUP2 DUP4 SUB SUB DUP2 MSTORE SWAP1 PUSH1 0x40 MSTORE DUP1 MLOAD SWAP1 PUSH1 0x20 ADD KECCAK256 EQ JUMPDEST DUP1 PUSH2 0xB21 JUMPI POP PUSH1 0x2 PUSH1 0x40 MLOAD PUSH1 0x20 ADD PUSH2 0xAE2 SWAP2 SWAP1 PUSH2 0x1548 JUMP JUMPDEST PUSH1 0x40 MLOAD PUSH1 0x20 DUP2 DUP4 SUB SUB DUP2 MSTORE SWAP1 PUSH1 0x40 MSTORE DUP1 MLOAD SWAP1 PUSH1 0x20 ADD KECCAK256 DUP2 PUSH1 0x40 MLOAD PUSH1 0x20 ADD PUSH2 0xB09 SWAP2 SWAP1 PUSH2 0x1548 JUMP JUMPDEST PUSH1 0x40 MLOAD PUSH1 0x20 DUP2 DUP4 SUB SUB DUP2 MSTORE SWAP1 PUSH1 0x40 MSTORE DUP1 MLOAD SWAP1 PUSH1 0x20 ADD KECCAK256 EQ JUMPDEST PUSH2 0xB60 JUMPI PUSH1 0x40 MLOAD PUSH32 0x8C379A000000000000000000000000000000000000000000000000000000000 DUP2 MSTORE PUSH1 0x4 ADD PUSH2 0xB57 SWAP1 PUSH2 0x1608 JUMP JUMPDEST PUSH1 0x40 MLOAD DUP1 SWAP2 SUB SWAP1 REVERT JUMPDEST PUSH2 0xB6A DUP3 DUP3 PUSH2 0xB6E JUMP JUMPDEST POP POP JUMP JUMPDEST PUSH1 0x1 PUSH0 DUP4 DUP2 MSTORE PUSH1 0x20 ADD SWAP1 DUP2 MSTORE PUSH1 0x20 ADD PUSH0 KECCAK256 PUSH1 0x2 ADD PUSH0 SWAP1 SLOAD SWAP1 PUSH2 0x100 EXP SWAP1 DIV PUSH1 0xFF AND PUSH2 0xBCE JUMPI PUSH1 0x40 MLOAD PUSH32 0x8C379A000000000000000000000000000000000000000000000000000000000 DUP2 MSTORE PUSH1 0x4 ADD PUSH2 0xBC5 SWAP1 PUSH2 0x16A5 JUMP JUMPDEST PUSH1 0x40 MLOAD DUP1 SWAP2 SUB SWAP1 REVERT JUMPDEST PUSH0 PUSH0 SWAP1 SLOAD SWAP1 PUSH2 0x100 EXP SWAP1 DIV PUSH20 0xFFFFFFFFFFFFFFFFFFFFFFFFFFFFFFFFFFFFFFFF AND PUSH20 0xFFFFFFFFFFFFFFFFFFFFFFFFFFFFFFFFFFFFFFFF AND CALLER PUSH20 0xFFFFFFFFFFFFFFFFFFFFFFFFFFFFFFFFFFFFFFFF AND EQ PUSH2 0xC5C JUMPI PUSH1 0x40 MLOAD PUSH32 0x8C379A000000000000000000000000000000000000000000000000000000000 DUP2 MSTORE PUSH1 0x4 ADD PUSH2 0xC53 SWAP1 PUSH2 0x1924 JUMP JUMPDEST PUSH1 0x40 MLOAD DUP1 SWAP2 SUB SWAP1 REVERT JUMPDEST PUSH1 0x1 PUSH0 DUP4 DUP2 MSTORE PUSH1 0x20 ADD SWAP1 DUP2 MSTORE PUSH1 0x20 ADD PUSH0 KECCAK256 PUSH1 0x3 ADD PUSH1 0x40 MLOAD DUP1 PUSH1 0x80 ADD PUSH1 0x40 MSTORE DUP1 TIMESTAMP DUP2 MSTORE PUSH1 0x20 ADD DUP4 PUSH1 0xFF AND DUP2 MSTORE PUSH1 0x20 ADD PUSH0 PUSH0 SHL DUP2 MSTORE PUSH1 0x20 ADD CALLER PUSH20 0xFFFFFFFFFFFFFFFFFFFFFFFFFFFFFFFFFFFFFFFF AND DUP2 MSTORE POP SWAP1 DUP1 PUSH1 0x1 DUP2 SLOAD ADD DUP1 DUP3 SSTORE DUP1 SWAP2 POP POP PUSH1 0x1 SWAP1 SUB SWAP1 PUSH0 MSTORE PUSH1 0x20 PUSH0 KECCAK256 SWAP1 PUSH1 0x4 MUL ADD PUSH0 SWAP1 SWAP2 SWAP1 SWAP2 SWAP1 SWAP2 POP PUSH0 DUP3 ADD MLOAD DUP2 PUSH0 ADD SSTORE PUSH1 0x20 DUP3 ADD MLOAD DUP2 PUSH1 0x1 ADD PUSH0 PUSH2 0x100 EXP DUP2 SLOAD DUP2 PUSH1 0xFF MUL NOT AND SWAP1 DUP4 PUSH1 0xFF AND MUL OR SWAP1 SSTORE POP PUSH1 0x40 DUP3 ADD MLOAD DUP2 PUSH1 0x2 ADD SSTORE PUSH1 0x60 DUP3 ADD MLOAD DUP2 PUSH1 0x3 ADD PUSH0 PUSH2 0x100 EXP DUP2 SLOAD DUP2 PUSH20 0xFFFFFFFFFFFFFFFFFFFFFFFFFFFFFFFFFFFFFFFF MUL NOT AND SWAP1 DUP4 PUSH20 0xFFFFFFFFFFFFFFFFFFFFFFFFFFFFFFFFFFFFFFFF AND MUL OR SWAP1 SSTORE POP POP POP PUSH32 0x55F3B2B2BC9C07499976075B3A9A78344B888C51B194889C9214C6EBA4BF0113 DUP3 DUP3 PUSH1 0x40 MLOAD PUSH2 0xD7D SWAP3 SWAP2 SWAP1 PUSH2 0x1942 JUMP JUMPDEST PUSH1 0x40 MLOAD DUP1 SWAP2 SUB SWAP1 LOG1 POP POP JUMP JUMPDEST PUSH0 PUSH1 0x1 PUSH0 DUP6 DUP2 MSTORE PUSH1 0x20 ADD SWAP1 DUP2 MSTORE PUSH1 0x20 ADD PUSH0 KECCAK256 PUSH1 0x2 ADD PUSH0 SWAP1 SLOAD SWAP1 PUSH2 0x100 EXP SWAP1 DIV PUSH1 0xFF AND PUSH2 0xDEA JUMPI PUSH1 0x40 MLOAD PUSH32 0x8C379A000000000000000000000000000000000000000000000000000000000 DUP2 MSTORE PUSH1 0x4 ADD PUSH2 0xDE1 SWAP1 PUSH2 0x16A5 JUMP JUMPDEST PUSH1 0x40 MLOAD DUP1 SWAP2 SUB SWAP1 REVERT JUMPDEST PUSH0 PUSH0 SWAP1 SLOAD SWAP1 PUSH2 0x100 EXP SWAP1 DIV PUSH20 0xFFFFFFFFFFFFFFFFFFFFFFFFFFFFFFFFFFFFFFFF AND PUSH20 0xFFFFFFFFFFFFFFFFFFFFFFFFFFFFFFFFFFFFFFFF AND CALLER PUSH20 0xFFFFFFFFFFFFFFFFFFFFFFFFFFFFFFFFFFFFFFFF AND EQ PUSH2 0xE78 JUMPI PUSH1 0x40 MLOAD PUSH32 0x8C379A000000000000000000000000000000000000000000000000000000000 DUP2 MSTORE PUSH1 0x4 ADD PUSH2 0xE6F SWAP1 PUSH2 0x1924 JUMP JUMPDEST PUSH1 0x40 MLOAD DUP1 SWAP2 SUB SWAP1 REVERT JUMPDEST PUSH1 0x1 PUSH0 DUP6 DUP2 MSTORE PUSH1 0x20 ADD SWAP1 DUP2 MSTORE PUSH1 0x20 ADD PUSH0 KECCAK256 PUSH1 0x3 ADD PUSH1 0x40 MLOAD DUP1 PUSH1 0x80 ADD PUSH1 0x40 MSTORE DUP1 TIMESTAMP DUP2 MSTORE PUSH1 0x20 ADD DUP6 PUSH1 0xFF AND DUP2 MSTORE PUSH1 0x20 ADD DUP5 DUP2 MSTORE PUSH1 0x20 ADD CALLER PUSH20 0xFFFFFFFFFFFFFFFFFFFFFFFFFFFFFFFFFFFFFFFF AND DUP2 MSTORE POP SWAP1 DUP1 PUSH1 0x1 DUP2 SLOAD ADD DUP1 DUP3 SSTORE DUP1 SWAP2 POP POP PUSH1 0x1 SWAP1 SUB SWAP1 PUSH0 MSTORE PUSH1 0x20 PUSH0 KECCAK256 SWAP1 PUSH1 0x4 MUL ADD PUSH0 SWAP1 SWAP2 SWAP1 SWAP2 SWAP1 SWAP2 POP PUSH0 DUP3 ADD MLOAD DUP2 PUSH0 ADD SSTORE PUSH1 0x20 DUP3 ADD MLOAD DUP2 PUSH1 0x1 ADD PUSH0 PUSH2 0x100 EXP DUP2 SLOAD DUP2 PUSH1 0xFF MUL NOT AND SWAP1 DUP4 PUSH1 0xFF AND MUL OR SWAP1 SSTORE POP PUSH1 0x40 DUP3 ADD MLOAD DUP2 PUSH1 0x2 ADD SSTORE PUSH1 0x60 DUP3 ADD MLOAD DUP2 PUSH1 0x3 ADD PUSH0 PUSH2 0x100 EXP DUP2 SLOAD DUP2 PUSH20 0xFFFFFFFFFFFFFFFFFFFFFFFFFFFFFFFFFFFFFFFF MUL NOT AND SWAP1 DUP4 PUSH20 0xFFFFFFFFFFFFFFFFFFFFFFFFFFFFFFFFFFFFFFFF AND MUL OR SWAP1 SSTORE POP POP POP PUSH32 0x2FD7CCA134BDC372692F9E8679A7046060CA6DA0C386E7494B18B9C21B10652 DUP5 DUP5 DUP5 PUSH1 0x40 MLOAD PUSH2 0xF99 SWAP4 SWAP3 SWAP2 SWAP1 PUSH2 0x1626 JUMP JUMPDEST PUSH1 0x40 MLOAD DUP1 SWAP2 SUB SWAP1 LOG1 PUSH1 0x1 SWAP1 POP SWAP4 SWAP3 POP POP POP JUMP JUMPDEST PUSH1 0x40 MLOAD DUP1 PUSH1 0x80 ADD PUSH1 0x40 MSTORE DUP1 PUSH0 DUP2 MSTORE PUSH1 0x20 ADD PUSH0 DUP2 MSTORE PUSH1 0x20 ADD PUSH0 ISZERO ISZERO DUP2 MSTORE PUSH1 0x20 ADD PUSH1 0x60 DUP2 MSTORE POP SWAP1 JUMP JUMPDEST PUSH0 PUSH20 0xFFFFFFFFFFFFFFFFFFFFFFFFFFFFFFFFFFFFFFFF DUP3 AND SWAP1 POP SWAP2 SWAP1 POP JUMP JUMPDEST PUSH0 PUSH2 0xFFC DUP3 PUSH2 0xFD3 JUMP JUMPDEST SWAP1 POP SWAP2 SWAP1 POP JUMP JUMPDEST PUSH2 0x100C DUP2 PUSH2 0xFF2 JUMP JUMPDEST DUP3 MSTORE POP POP JUMP JUMPDEST PUSH0 PUSH1 0x20 DUP3 ADD SWAP1 POP PUSH2 0x1025 PUSH0 DUP4 ADD DUP5 PUSH2 0x1003 JUMP JUMPDEST SWAP3 SWAP2 POP POP JUMP JUMPDEST PUSH0 PUSH0 REVERT JUMPDEST PUSH0 DUP2 SWAP1 POP SWAP2 SWAP1 POP JUMP JUMPDEST PUSH2 0x1041 DUP2 PUSH2 0x102F JUMP JUMPDEST DUP2 EQ PUSH2 0x104B JUMPI PUSH0 PUSH0 REVERT JUMPDEST POP JUMP JUMPDEST PUSH0 DUP2 CALLDATALOAD SWAP1 POP PUSH2 0x105C DUP2 PUSH2 0x1038 JUMP JUMPDEST SWAP3 SWAP2 POP POP JUMP JUMPDEST PUSH0 PUSH1 0xFF DUP3 AND SWAP1 POP SWAP2 SWAP1 POP JUMP JUMPDEST PUSH2 0x1077 DUP2 PUSH2 0x1062 JUMP JUMPDEST DUP2 EQ PUSH2 0x1081 JUMPI PUSH0 PUSH0 REVERT JUMPDEST POP JUMP JUMPDEST PUSH0 DUP2 CALLDATALOAD SWAP1 POP PUSH2 0x1092 DUP2 PUSH2 0x106E JUMP JUMPDEST SWAP3 SWAP2 POP POP JUMP JUMPDEST PUSH0 DUP2 SWAP1 POP SWAP2 SWAP1 POP JUMP JUMPDEST PUSH2 0x10AA DUP2 PUSH2 0x1098 JUMP JUMPDEST DUP2 EQ PUSH2 0x10B4 JUMPI PUSH0 PUSH0 REVERT JUMPDEST POP JUMP JUMPDEST PUSH0 DUP2 CALLDATALOAD SWAP1 POP PUSH2 0x10C5 DUP2 PUSH2 0x10A1 JUMP JUMPDEST SWAP3 SWAP2 POP POP JUMP JUMPDEST PUSH0 PUSH0 PUSH0 PUSH1 0x60 DUP5 DUP7 SUB SLT ISZERO PUSH2 0x10E2 JUMPI PUSH2 0x10E1 PUSH2 0x102B JUMP JUMPDEST JUMPDEST PUSH0 PUSH2 0x10EF DUP7 DUP3 DUP8 ADD PUSH2 0x104E JUMP JUMPDEST SWAP4 POP POP PUSH1 0x20 PUSH2 0x1100 DUP7 DUP3 DUP8 ADD PUSH2 0x1084 JUMP JUMPDEST SWAP3 POP POP PUSH1 0x40 PUSH2 0x1111 DUP7 DUP3 DUP8 ADD PUSH2 0x10B7 JUMP JUMPDEST SWAP2 POP POP SWAP3 POP SWAP3 POP SWAP3 JUMP JUMPDEST PUSH0 DUP2 ISZERO ISZERO SWAP1 POP SWAP2 SWAP1 POP JUMP JUMPDEST PUSH2 0x112F DUP2 PUSH2 0x111B JUMP JUMPDEST DUP3 MSTORE POP POP JUMP JUMPDEST PUSH0 PUSH1 0x20 DUP3 ADD SWAP1 POP PUSH2 0x1148 PUSH0 DUP4 ADD DUP5 PUSH2 0x1126 JUMP JUMPDEST SWAP3 SWAP2 POP POP JUMP JUMPDEST PUSH2 0x1157 DUP2 PUSH2 0x102F JUMP JUMPDEST DUP3 MSTORE POP POP JUMP JUMPDEST PUSH0 PUSH1 0x20 DUP3 ADD SWAP1 POP PUSH2 0x1170 PUSH0 DUP4 ADD DUP5 PUSH2 0x114E JUMP JUMPDEST SWAP3 SWAP2 POP POP JUMP JUMPDEST PUSH0 PUSH1 0x20 DUP3 DUP5 SUB SLT ISZERO PUSH2 0x118B JUMPI PUSH2 0x118A PUSH2 0x102B JUMP JUMPDEST JUMPDEST PUSH0 PUSH2 0x1198 DUP5 DUP3 DUP6 ADD PUSH2 0x104E JUMP JUMPDEST SWAP2 POP POP SWAP3 SWAP2 POP POP JUMP JUMPDEST PUSH2 0x11AA DUP2 PUSH2 0x102F JUMP JUMPDEST DUP3 MSTORE POP POP JUMP JUMPDEST PUSH2 0x11B9 DUP2 PUSH2 0x111B JUMP JUMPDEST DUP3 MSTORE POP POP JUMP JUMPDEST PUSH0 DUP2 MLOAD SWAP1 POP SWAP2 SWAP1 POP JUMP JUMPDEST PUSH0 DUP3 DUP3 MSTORE PUSH1 0x20 DUP3 ADD SWAP1 POP SWAP3 SWAP2 POP POP JUMP JUMPDEST PUSH0 DUP2 SWAP1 POP PUSH1 0x20 DUP3 ADD SWAP1 POP SWAP2 SWAP1 POP JUMP JUMPDEST PUSH2 0x11F1 DUP2 PUSH2 0x1062 JUMP JUMPDEST DUP3 MSTORE POP POP JUMP JUMPDEST PUSH2 0x1200 DUP2 PUSH2 0x1098 JUMP JUMPDEST DUP3 MSTORE POP POP JUMP JUMPDEST PUSH2 0x120F DUP2 PUSH2 0xFF2 JUMP JUMPDEST DUP3 MSTORE POP POP JUMP JUMPDEST PUSH1 0x80 DUP3 ADD PUSH0 DUP3 ADD MLOAD PUSH2 0x1229 PUSH0 DUP6 ADD DUP3 PUSH2 0x11A1 JUMP JUMPDEST POP PUSH1 0x20 DUP3 ADD MLOAD PUSH2 0x123C PUSH1 0x20 DUP6 ADD DUP3 PUSH2 0x11E8 JUMP JUMPDEST POP PUSH1 0x40 DUP3 ADD MLOAD PUSH2 0x124F PUSH1 0x40 DUP6 ADD DUP3 PUSH2 0x11F7 JUMP JUMPDEST POP PUSH1 0x60 DUP3 ADD MLOAD PUSH2 0x1262 PUSH1 0x60 DUP6 ADD DUP3 PUSH2 0x1206 JUMP JUMPDEST POP POP POP POP JUMP JUMPDEST PUSH0 PUSH2 0x1273 DUP4 DUP4 PUSH2 0x1215 JUMP JUMPDEST PUSH1 0x80 DUP4 ADD SWAP1 POP SWAP3 SWAP2 POP POP JUMP JUMPDEST PUSH0 PUSH1 0x20 DUP3 ADD SWAP1 POP SWAP2 SWAP1 POP JUMP JUMPDEST PUSH0 PUSH2 0x1295 DUP3 PUSH2 0x11BF JUMP JUMPDEST PUSH2 0x129F DUP2 DUP6 PUSH2 0x11C9 JUMP JUMPDEST SWAP4 POP PUSH2 0x12AA DUP4 PUSH2 0x11D9 JUMP JUMPDEST DUP1 PUSH0 JUMPDEST DUP4 DUP2 LT ISZERO PUSH2 0x12DA JUMPI DUP2 MLOAD PUSH2 0x12C1 DUP9 DUP3 PUSH2 0x1268 JUMP JUMPDEST SWAP8 POP PUSH2 0x12CC DUP4 PUSH2 0x127F JUMP JUMPDEST SWAP3 POP POP PUSH1 0x1 DUP2 ADD SWAP1 POP PUSH2 0x12AD JUMP JUMPDEST POP DUP6 SWAP4 POP POP POP POP SWAP3 SWAP2 POP POP JUMP JUMPDEST PUSH0 PUSH1 0x80 DUP4 ADD PUSH0 DUP4 ADD MLOAD PUSH2 0x12FC PUSH0 DUP7 ADD DUP3 PUSH2 0x11A1 JUMP JUMPDEST POP PUSH1 0x20 DUP4 ADD MLOAD PUSH2 0x130F PUSH1 0x20 DUP7 ADD DUP3 PUSH2 0x11A1 JUMP JUMPDEST POP PUSH1 0x40 DUP4 ADD MLOAD PUSH2 0x1322 PUSH1 0x40 DUP7 ADD DUP3 PUSH2 0x11B0 JUMP JUMPDEST POP PUSH1 0x60 DUP4 ADD MLOAD DUP5 DUP3 SUB PUSH1 0x60 DUP7 ADD MSTORE PUSH2 0x133A DUP3 DUP3 PUSH2 0x128B JUMP JUMPDEST SWAP2 POP POP DUP1 SWAP2 POP POP SWAP3 SWAP2 POP POP JUMP JUMPDEST PUSH0 PUSH1 0x20 DUP3 ADD SWAP1 POP DUP2 DUP2 SUB PUSH0 DUP4 ADD MSTORE PUSH2 0x135F DUP2 DUP5 PUSH2 0x12E7 JUMP JUMPDEST SWAP1 POP SWAP3 SWAP2 POP POP JUMP JUMPDEST PUSH0 PUSH0 PUSH0 PUSH0 PUSH0 PUSH1 0xA0 DUP7 DUP9 SUB SLT ISZERO PUSH2 0x1380 JUMPI PUSH2 0x137F PUSH2 0x102B JUMP JUMPDEST JUMPDEST PUSH0 PUSH2 0x138D DUP9 DUP3 DUP10 ADD PUSH2 0x104E JUMP JUMPDEST SWAP6 POP POP PUSH1 0x20 PUSH2 0x139E DUP9 DUP3 DUP10 ADD PUSH2 0x104E JUMP JUMPDEST SWAP5 POP POP PUSH1 0x40 PUSH2 0x13AF DUP9 DUP3 DUP10 ADD PUSH2 0x1084 JUMP JUMPDEST SWAP4 POP POP PUSH1 0x60 PUSH2 0x13C0 DUP9 DUP3 DUP10 ADD PUSH2 0x10B7 JUMP JUMPDEST SWAP3 POP POP PUSH1 0x80 PUSH2 0x13D1 DUP9 DUP3 DUP10 ADD PUSH2 0x104E JUMP JUMPDEST SWAP2 POP POP SWAP3 SWAP6 POP SWAP3 SWAP6 SWAP1 SWAP4 POP JUMP JUMPDEST PUSH2 0x13E7 DUP2 PUSH2 0x1062 JUMP JUMPDEST DUP3 MSTORE POP POP JUMP JUMPDEST PUSH2 0x13F6 DUP2 PUSH2 0x1098 JUMP JUMPDEST DUP3 MSTORE POP POP JUMP JUMPDEST PUSH0 PUSH1 0xA0 DUP3 ADD SWAP1 POP PUSH2 0x140F PUSH0 DUP4 ADD DUP9 PUSH2 0x114E JUMP JUMPDEST PUSH2 0x141C PUSH1 0x20 DUP4 ADD DUP8 PUSH2 0x114E JUMP JUMPDEST PUSH2 0x1429 PUSH1 0x40 DUP4 ADD DUP7 PUSH2 0x13DE JUMP JUMPDEST PUSH2 0x1436 PUSH1 0x60 DUP4 ADD DUP6 PUSH2 0x114E JUMP JUMPDEST PUSH2 0x1443 PUSH1 0x80 DUP4 ADD DUP5 PUSH2 0x13ED JUMP JUMPDEST SWAP7 SWAP6 POP POP POP POP POP POP JUMP JUMPDEST PUSH0 PUSH0 PUSH0 PUSH0 PUSH0 PUSH0 PUSH1 0xC0 DUP8 DUP10 SUB SLT ISZERO PUSH2 0x1467 JUMPI PUSH2 0x1466 PUSH2 0x102B JUMP JUMPDEST JUMPDEST PUSH0 PUSH2 0x1474 DUP10 DUP3 DUP11 ADD PUSH2 0x104E JUMP JUMPDEST SWAP7 POP POP PUSH1 0x20 PUSH2 0x1485 DUP10 DUP3 DUP11 ADD PUSH2 0x104E JUMP JUMPDEST SWAP6 POP POP PUSH1 0x40 PUSH2 0x1496 DUP10 DUP3 DUP11 ADD PUSH2 0x10B7 JUMP JUMPDEST SWAP5 POP POP PUSH1 0x60 PUSH2 0x14A7 DUP10 DUP3 DUP11 ADD PUSH2 0x104E JUMP JUMPDEST SWAP4 POP POP PUSH1 0x80 PUSH2 0x14B8 DUP10 DUP3 DUP11 ADD PUSH2 0x104E JUMP JUMPDEST SWAP3 POP POP PUSH1 0xA0 PUSH2 0x14C9 DUP10 DUP3 DUP11 ADD PUSH2 0x1084 JUMP JUMPDEST SWAP2 POP POP SWAP3 SWAP6 POP SWAP3 SWAP6 POP SWAP3 SWAP6 JUMP JUMPDEST PUSH0 PUSH0 PUSH1 0x40 DUP4 DUP6 SUB SLT ISZERO PUSH2 0x14EC JUMPI PUSH2 0x14EB PUSH2 0x102B JUMP JUMPDEST JUMPDEST PUSH0 PUSH2 0x14F9 DUP6 DUP3 DUP7 ADD PUSH2 0x104E JUMP JUMPDEST SWAP3 POP POP PUSH1 0x20 PUSH2 0x150A DUP6 DUP3 DUP7 ADD PUSH2 0x1084 JUMP JUMPDEST SWAP2 POP POP SWAP3 POP SWAP3 SWAP1 POP JUMP JUMPDEST PUSH0 DUP2 PUSH1 0xF8 SHL SWAP1 POP SWAP2 SWAP1 POP JUMP JUMPDEST PUSH0 PUSH2 0x152A DUP3 PUSH2 0x1514 JUMP JUMPDEST SWAP1 POP SWAP2 SWAP1 POP JUMP JUMPDEST PUSH2 0x1542 PUSH2 0x153D DUP3 PUSH2 0x1062 JUMP JUMPDEST PUSH2 0x1520 JUMP JUMPDEST DUP3 MSTORE POP POP JUMP JUMPDEST PUSH0 PUSH2 0x1553 DUP3 DUP5 PUSH2 0x1531 JUMP JUMPDEST PUSH1 0x1 DUP3 ADD SWAP2 POP DUP2 SWAP1 POP SWAP3 SWAP2 POP POP JUMP JUMPDEST PUSH0 DUP3 DUP3 MSTORE PUSH1 0x20 DUP3 ADD SWAP1 POP SWAP3 SWAP2 POP POP JUMP JUMPDEST PUSH32 0x726573756C7461646F20696E76616C6964613A20757365202830292070617261 PUSH0 DUP3 ADD MSTORE PUSH32 0x204170726F626164612C20283129207061726120417263686976616461206F20 PUSH1 0x20 DUP3 ADD MSTORE PUSH32 0x28322920706172612052656368617A6164610000000000000000000000000000 PUSH1 0x40 DUP3 ADD MSTORE POP JUMP JUMPDEST PUSH0 PUSH2 0x15F2 PUSH1 0x52 DUP4 PUSH2 0x1562 JUMP JUMPDEST SWAP2 POP PUSH2 0x15FD DUP3 PUSH2 0x1572 JUMP JUMPDEST PUSH1 0x60 DUP3 ADD SWAP1 POP SWAP2 SWAP1 POP JUMP JUMPDEST PUSH0 PUSH1 0x20 DUP3 ADD SWAP1 POP DUP2 DUP2 SUB PUSH0 DUP4 ADD MSTORE PUSH2 0x161F DUP2 PUSH2 0x15E6 JUMP JUMPDEST SWAP1 POP SWAP2 SWAP1 POP JUMP JUMPDEST PUSH0 PUSH1 0x60 DUP3 ADD SWAP1 POP PUSH2 0x1639 PUSH0 DUP4 ADD DUP7 PUSH2 0x114E JUMP JUMPDEST PUSH2 0x1646 PUSH1 0x20 DUP4 ADD DUP6 PUSH2 0x13DE JUMP JUMPDEST PUSH2 0x1653 PUSH1 0x40 DUP4 ADD DUP5 PUSH2 0x13ED JUMP JUMPDEST SWAP5 SWAP4 POP POP POP POP JUMP JUMPDEST PUSH32 0x4C6120616374756163696F6E206E6F2065786973746500000000000000000000 PUSH0 DUP3 ADD MSTORE POP JUMP JUMPDEST PUSH0 PUSH2 0x168F PUSH1 0x16 DUP4 PUSH2 0x1562 JUMP JUMPDEST SWAP2 POP PUSH2 0x169A DUP3 PUSH2 0x165B JUMP JUMPDEST PUSH1 0x20 DUP3 ADD SWAP1 POP SWAP2 SWAP1 POP JUMP JUMPDEST PUSH0 PUSH1 0x20 DUP3 ADD SWAP1 POP DUP2 DUP2 SUB PUSH0 DUP4 ADD MSTORE PUSH2 0x16BC DUP2 PUSH2 0x1683 JUMP JUMPDEST SWAP1 POP SWAP2 SWAP1 POP JUMP JUMPDEST PUSH32 0x4C6120616374756163696F6E2079612065786973746500000000000000000000 PUSH0 DUP3 ADD MSTORE POP JUMP JUMPDEST PUSH0 PUSH2 0x16F7 PUSH1 0x16 DUP4 PUSH2 0x1562 JUMP JUMPDEST SWAP2 POP PUSH2 0x1702 DUP3 PUSH2 0x16C3 JUMP JUMPDEST PUSH1 0x20 DUP3 ADD SWAP1 POP SWAP2 SWAP1 POP JUMP JUMPDEST PUSH0 PUSH1 0x20 DUP3 ADD SWAP1 POP DUP2 DUP2 SUB PUSH0 DUP4 ADD MSTORE PUSH2 0x1724 DUP2 PUSH2 0x16EB JUMP JUMPDEST SWAP1 POP SWAP2 SWAP1 POP JUMP JUMPDEST PUSH32 0x4E6F2073652068612070616761646F206C612074617269666120646520726567 PUSH0 DUP3 ADD MSTORE PUSH32 0x697374726F000000000000000000000000000000000000000000000000000000 PUSH1 0x20 DUP3 ADD MSTORE POP JUMP JUMPDEST PUSH0 PUSH2 0x1785 PUSH1 0x25 DUP4 PUSH2 0x1562 JUMP JUMPDEST SWAP2 POP PUSH2 0x1790 DUP3 PUSH2 0x172B JUMP JUMPDEST PUSH1 0x40 DUP3 ADD SWAP1 POP SWAP2 SWAP1 POP JUMP JUMPDEST PUSH0 PUSH1 0x20 DUP3 ADD SWAP1 POP DUP2 DUP2 SUB PUSH0 DUP4 ADD MSTORE PUSH2 0x17B2 DUP2 PUSH2 0x1779 JUMP JUMPDEST SWAP1 POP SWAP2 SWAP1 POP JUMP JUMPDEST PUSH0 PUSH1 0xA0 DUP3 ADD SWAP1 POP PUSH2 0x17CC PUSH0 DUP4 ADD DUP9 PUSH2 0x114E JUMP JUMPDEST PUSH2 0x17D9 PUSH1 0x20 DUP4 ADD DUP8 PUSH2 0x114E JUMP JUMPDEST PUSH2 0x17E6 PUSH1 0x40 DUP4 ADD DUP7 PUSH2 0x114E JUMP JUMPDEST PUSH2 0x17F3 PUSH1 0x60 DUP4 ADD DUP6 PUSH2 0x13DE JUMP JUMPDEST PUSH2 0x1800 PUSH1 0x80 DUP4 ADD DUP5 PUSH2 0x13ED JUMP JUMPDEST SWAP7 SWAP6 POP POP POP POP POP POP JUMP JUMPDEST PUSH32 0x4E487B7100000000000000000000000000000000000000000000000000000000 PUSH0 MSTORE PUSH1 0x11 PUSH1 0x4 MSTORE PUSH1 0x24 PUSH0 REVERT JUMPDEST PUSH0 PUSH2 0x1841 DUP3 PUSH2 0x102F JUMP JUMPDEST SWAP2 POP PUSH2 0x184C DUP4 PUSH2 0x102F JUMP JUMPDEST SWAP3 POP DUP3 DUP3 SUB SWAP1 POP DUP2 DUP2 GT ISZERO PUSH2 0x1864 JUMPI PUSH2 0x1863 PUSH2 0x180A JUMP JUMPDEST JUMPDEST SWAP3 SWAP2 POP POP JUMP JUMPDEST PUSH32 0x4E487B7100000000000000000000000000000000000000000000000000000000 PUSH0 MSTORE PUSH1 0x32 PUSH1 0x4 MSTORE PUSH1 0x24 PUSH0 REVERT JUMPDEST PUSH0 PUSH1 0x80 DUP3 ADD SWAP1 POP PUSH2 0x18AA PUSH0 DUP4 ADD DUP8 PUSH2 0x114E JUMP JUMPDEST PUSH2 0x18B7 PUSH1 0x20 DUP4 ADD DUP7 PUSH2 0x114E JUMP JUMPDEST PUSH2 0x18C4 PUSH1 0x40 DUP4 ADD DUP6 PUSH2 0x13DE JUMP JUMPDEST PUSH2 0x18D1 PUSH1 0x60 DUP4 ADD DUP5 PUSH2 0x13ED JUMP JUMPDEST SWAP6 SWAP5 POP POP POP POP POP JUMP JUMPDEST PUSH32 0x4E6F20657320656C2070726F706965746172696F000000000000000000000000 PUSH0 DUP3 ADD MSTORE POP JUMP JUMPDEST PUSH0 PUSH2 0x190E PUSH1 0x14 DUP4 PUSH2 0x1562 JUMP JUMPDEST SWAP2 POP PUSH2 0x1919 DUP3 PUSH2 0x18DA JUMP JUMPDEST PUSH1 0x20 DUP3 ADD SWAP1 POP SWAP2 SWAP1 POP JUMP JUMPDEST PUSH0 PUSH1 0x20 DUP3 ADD SWAP1 POP DUP2 DUP2 SUB PUSH0 DUP4 ADD MSTORE PUSH2 0x193B DUP2 PUSH2 0x1902 JUMP JUMPDEST SWAP1 POP SWAP2 SWAP1 POP JUMP JUMPDEST PUSH0 PUSH1 0x40 DUP3 ADD SWAP1 POP PUSH2 0x1955 PUSH0 DUP4 ADD DUP6 PUSH2 0x114E JUMP JUMPDEST PUSH2 0x1962 PUSH1 0x20 DUP4 ADD DUP5 PUSH2 0x13DE JUMP JUMPDEST SWAP4 SWAP3 POP POP POP JUMP INVALID LOG2 PUSH5 0x6970667358 0x22 SLT KECCAK256 SWAP16 PUSH17 0xE516BAC7DE3727ADEE6E24D015AE9306B8 DUPN 0xE6 0xD0 0xCD JUMP CODESIZE SGT 0xD6 PUSH16 0x81AD183464736F6C6343000822003300 "
		},
		"gasEstimates": {
			"creation": {
				"codeDepositCost": "1311800",
				"executionCost": "25625",
				"totalCost": "1337425"
			},
			"external": {
				"COSTO()": "370",
				"_consultarActuacion(uint256)": "infinite",
				"_eliminarActuacion(uint256,uint8)": "infinite",
				"_inicializarActuacion(uint256,uint256,uint8,bytes32,uint256)": "infinite",
				"_modificarActuacion(uint256,uint8,bytes32)": "infinite",
				"agregarProyectoOrdenanza(uint256,uint256,bytes32,uint256,uint256,uint8)": "infinite",
				"consultarProyectoOrdenanza(uint256)": "infinite",
				"eliminar(uint256,uint8)": "infinite",
				"modificarResultado(uint256,uint8,bytes32)": "infinite",
				"propietario()": "2508"
			}
		},
		"methodIdentifiers": {
			"COSTO()": "52b5241e",
			"_consultarActuacion(uint256)": "8e8a5876",
			"_eliminarActuacion(uint256,uint8)": "d986a2a3",
			"_inicializarActuacion(uint256,uint256,uint8,bytes32,uint256)": "906a11df",
			"_modificarActuacion(uint256,uint8,bytes32)": "f904dd5b",
			"agregarProyectoOrdenanza(uint256,uint256,bytes32,uint256,uint256,uint8)": "c631ba01",
			"consultarProyectoOrdenanza(uint256)": "c0b330b6",
			"eliminar(uint256,uint8)": "c83e9d6d",
			"modificarResultado(uint256,uint8,bytes32)": "3cbdc2d3",
			"propietario()": "3c4f81cd"
		}
	},
	"abi": [
		{
			"anonymous": false,
			"inputs": [
				{
					"indexed": false,
					"internalType": "uint256",
					"name": "id",
					"type": "uint256"
				},
				{
					"indexed": false,
					"internalType": "uint256",
					"name": "fechaCreacion",
					"type": "uint256"
				},
				{
					"indexed": false,
					"internalType": "uint256",
					"name": "dniAutor",
					"type": "uint256"
				},
				{
					"indexed": false,
					"internalType": "uint8",
					"name": "estado",
					"type": "uint8"
				},
				{
					"indexed": false,
					"internalType": "bytes32",
					"name": "hash",
					"type": "bytes32"
				}
			],
			"name": "ActuacionAgregada",
			"type": "event"
		},
		{
			"anonymous": false,
			"inputs": [
				{
					"indexed": false,
					"internalType": "uint256",
					"name": "id",
					"type": "uint256"
				},
				{
					"indexed": false,
					"internalType": "uint8",
					"name": "estado",
					"type": "uint8"
				}
			],
			"name": "ActuacionEliminada",
			"type": "event"
		},
		{
			"anonymous": false,
			"inputs": [
				{
					"indexed": false,
					"internalType": "uint256",
					"name": "id",
					"type": "uint256"
				},
				{
					"indexed": false,
					"internalType": "uint8",
					"name": "estado",
					"type": "uint8"
				},
				{
					"indexed": false,
					"internalType": "bytes32",
					"name": "hash",
					"type": "bytes32"
				}
			],
			"name": "ActuacionModificada",
			"type": "event"
		},
		{
			"anonymous": false,
			"inputs": [
				{
					"indexed": false,
					"internalType": "uint256",
					"name": "id",
					"type": "uint256"
				},
				{
					"indexed": false,
					"internalType": "uint256",
					"name": "numExpediente",
					"type": "uint256"
				},
				{
					"indexed": false,
					"internalType": "uint8",
					"name": "resultado",
					"type": "uint8"
				},
				{
					"indexed": false,
					"internalType": "bytes32",
					"name": "hash",
					"type": "bytes32"
				}
			],
			"name": "OrdenanzaAgregada",
			"type": "event"
		},
		{
			"anonymous": false,
			"inputs": [
				{
					"indexed": false,
					"internalType": "uint256",
					"name": "id",
					"type": "uint256"
				},
				{
					"indexed": false,
					"internalType": "uint8",
					"name": "resultadoNueva",
					"type": "uint8"
				},
				{
					"indexed": false,
					"internalType": "bytes32",
					"name": "hash",
					"type": "bytes32"
				}
			],
			"name": "ResultadoActualizado",
			"type": "event"
		},
		{
			"inputs": [],
			"name": "COSTO",
			"outputs": [
				{
					"internalType": "uint256",
					"name": "",
					"type": "uint256"
				}
			],
			"stateMutability": "view",
			"type": "function"
		},
		{
			"inputs": [
				{
					"internalType": "uint256",
					"name": "_id",
					"type": "uint256"
				}
			],
			"name": "_consultarActuacion",
			"outputs": [
				{
					"components": [
						{
							"internalType": "uint256",
							"name": "fechaCreacion",
							"type": "uint256"
						},
						{
							"internalType": "uint256",
							"name": "dniAutor",
							"type": "uint256"
						},
						{
							"internalType": "bool",
							"name": "existe",
							"type": "bool"
						},
						{
							"components": [
								{
									"internalType": "uint256",
									"name": "timestamp",
									"type": "uint256"
								},
								{
									"internalType": "uint8",
									"name": "estado",
									"type": "uint8"
								},
								{
									"internalType": "bytes32",
									"name": "hash",
									"type": "bytes32"
								},
								{
									"internalType": "address",
									"name": "modificadoPor",
									"type": "address"
								}
							],
							"internalType": "struct ActuacionBase.Cambio[]",
							"name": "historial",
							"type": "tuple[]"
						}
					],
					"internalType": "struct ActuacionBase.Actuacion",
					"name": "",
					"type": "tuple"
				}
			],
			"stateMutability": "view",
			"type": "function"
		},
		{
			"inputs": [
				{
					"internalType": "uint256",
					"name": "_id",
					"type": "uint256"
				},
				{
					"internalType": "uint8",
					"name": "_estadoNuevo",
					"type": "uint8"
				}
			],
			"name": "_eliminarActuacion",
			"outputs": [],
			"stateMutability": "nonpayable",
			"type": "function"
		},
		{
			"inputs": [
				{
					"internalType": "uint256",
					"name": "_id",
					"type": "uint256"
				},
				{
					"internalType": "uint256",
					"name": "_dniAutor",
					"type": "uint256"
				},
				{
					"internalType": "uint8",
					"name": "_estadoNuevo",
					"type": "uint8"
				},
				{
					"internalType": "bytes32",
					"name": "_hash",
					"type": "bytes32"
				},
				{
					"internalType": "uint256",
					"name": "_fechaCreacion",
					"type": "uint256"
				}
			],
			"name": "_inicializarActuacion",
			"outputs": [],
			"stateMutability": "payable",
			"type": "function"
		},
		{
			"inputs": [
				{
					"internalType": "uint256",
					"name": "_id",
					"type": "uint256"
				},
				{
					"internalType": "uint8",
					"name": "_estadoNuevo",
					"type": "uint8"
				},
				{
					"internalType": "bytes32",
					"name": "_hashNuevo",
					"type": "bytes32"
				}
			],
			"name": "_modificarActuacion",
			"outputs": [
				{
					"internalType": "bool",
					"name": "success",
					"type": "bool"
				}
			],
			"stateMutability": "nonpayable",
			"type": "function"
		},
		{
			"inputs": [
				{
					"internalType": "uint256",
					"name": "_id",
					"type": "uint256"
				},
				{
					"internalType": "uint256",
					"name": "_dniAutor",
					"type": "uint256"
				},
				{
					"internalType": "bytes32",
					"name": "_hash",
					"type": "bytes32"
				},
				{
					"internalType": "uint256",
					"name": "_fechaCreacion",
					"type": "uint256"
				},
				{
					"internalType": "uint256",
					"name": "_numExpediente",
					"type": "uint256"
				},
				{
					"internalType": "uint8",
					"name": "_resultado",
					"type": "uint8"
				}
			],
			"name": "agregarProyectoOrdenanza",
			"outputs": [],
			"stateMutability": "payable",
			"type": "function"
		},
		{
			"inputs": [
				{
					"internalType": "uint256",
					"name": "_id",
					"type": "uint256"
				}
			],
			"name": "consultarProyectoOrdenanza",
			"outputs": [
				{
					"internalType": "uint256",
					"name": "fechaCreacion",
					"type": "uint256"
				},
				{
					"internalType": "uint256",
					"name": "dniAutor",
					"type": "uint256"
				},
				{
					"internalType": "uint8",
					"name": "resultado",
					"type": "uint8"
				},
				{
					"internalType": "uint256",
					"name": "numExpediente",
					"type": "uint256"
				},
				{
					"internalType": "bytes32",
					"name": "hash",
					"type": "bytes32"
				}
			],
			"stateMutability": "view",
			"type": "function"
		},
		{
			"inputs": [
				{
					"internalType": "uint256",
					"name": "_id",
					"type": "uint256"
				},
				{
					"internalType": "uint8",
					"name": "_resultado",
					"type": "uint8"
				}
			],
			"name": "eliminar",
			"outputs": [],
			"stateMutability": "nonpayable",
			"type": "function"
		},
		{
			"inputs": [
				{
					"internalType": "uint256",
					"name": "_id",
					"type": "uint256"
				},
				{
					"internalType": "uint8",
					"name": "_resultado",
					"type": "uint8"
				},
				{
					"internalType": "bytes32",
					"name": "_hash",
					"type": "bytes32"
				}
			],
			"name": "modificarResultado",
			"outputs": [
				{
					"internalType": "bool",
					"name": "success",
					"type": "bool"
				}
			],
			"stateMutability": "nonpayable",
			"type": "function"
		},
		{
			"inputs": [],
			"name": "propietario",
			"outputs": [
				{
					"internalType": "address",
					"name": "",
					"type": "address"
				}
			],
			"stateMutability": "view",
			"type": "function"
		}
	]
}